S01B000054657374696E675F5468756E646572626F6172642E733337BA
S113000000100020ED020000A5180000A518000053
S1130010A5180000A5180000A5180000A5180000E8
S1130020A5180000A5180000A5180000A5180000D8
S1130030A5180000A5180000A5180000A5180000C8
S1130040A5180000A5180000A5180000A5180000B8
S1130050A5180000A5180000A5180000A5180000A8
S1130060A5180000A5180000A5180000A518000098
S1130070A5180000A5180000A5180000A518000088
S1130080A5180000A5180000A5180000A518000078
S1130090A5180000A5180000A5180000A518000068
S11300A0A5180000A5180000A5180000A518000058
S11300B0A5180000A5180000A5180000A518000048
S11300C0A5180000A5180000A5180000A518000038
S11300D0A5180000A5180000A5180000A518000028
S11300E0A5180000A5180000A5180000A518000018
S11300F0A5180000A5180000A5180000A518000008
S1130100A5180000A5180000A5180000A5180000F7
S1130110A5180000A5180000A5180000A5180000E7
S1130120A5180000A5180000A5180000A5180000D7
S113013010B5054C237833B9044B13B10448AFF31D
S113014000800123237010BD7C10002000000000FB
S1130150381B000008B5034B1BB103490348AFF338
S1130160008008BD0000000080100020381B000043
S1130170A3F5803A704700BF174B002B08BF134B01
S11301809D46FFF7F5FF00218B460F461348144A9E
S1130190121A01F0C1FB0E4B002B00D098470D4BF7
S11301A0002B00D098470020002104000D000D48CA
S11301B0002802D00C48AFF3008001F035FB20008A
S11301C0290001F059FB01F01BFB00BF00000800EF
S11301D00000000000000000001000207C1000203F
S11301E0A0100020000000000000000038B500F05E
S11301F067FE1248124C012100F0F4F90122114665
S1130200002000F0C9FD022501221146C4F88050E7
S1130210002000F0C1FD01221146C4F884500020E2
S113022000F0BAFD0122C4F88C501146002000F001
S1130230B3FDC4F88850002038BD00BF30053E002F
S113024000400E4008B54FF0804301225A6403F584
S113025064231B49D3F8B02042F00102C3F8B02054
S1130260D3F8E02042F00802C3F8E0204A6B42F4DD
S113027080524A63D3F8E02022F00802C3F8E02059
S1130280D3F8B02022F00102C3F8B0200D4AD2F80E
S1130290A43143F4F843C2F8A43101F093FA00F016
S11302A01FF801F037FA01F04BFA01F077FAFFF783
S11302B09DFF01F00BFBBDE8084000F005B800BF4E
S11302C00040054000300E4008B50448012100F00C
S11302D089F9BDE8084001F0D9BA00BF00450A0019
S11302E00148012100F07EB900450A0008B500F07C
S11302F093F8124B12498B4212D3124B124900202D
S11303008B4218D3FFF738FF186850F8224058681A
S113031040F82240013298688242F5D30C33EAE770
S11303200022F8E71C6844F8220001325C68A2420B
S1130330F8D30833E4E70022F8E700BF401B0000CD
S11303404C1B00004C1B00004C1B00000048704775
S113035000A24A04174AD2F8943003F00703023B80
S1130360042B1FD8DFE803F00620031A0800124B01
S11303701B680AE0114BFBE79368C3F30443073B94
S1130380072B14D80E4A52F823300A4AD2F8000137
S1130390C0F304200130B3FBF0F07047094B1B6835
S11303A05B08F2E7074BE3E74FF40043EDE7002374
S11303B0EBE700BF00400E400C10002004100020AA
S11303C0401900000810002008B5FFF7C3FF054BD3
S11303D0D3F80831C3F308230133B0FBF3F0024B25
S11303E0186008BD00400E4000100020014B186842
S11303F0704700BF04100020054B1860054BD3F86C
S1130400943003F00703022B01D1FFF7DDBF7047DF
S11304100410002000400E40044B054A9A60D3F8B3
S1130420882042F47002C3F88820704700ED00E091
S1130430000000000C4B984210D90C4B984210D984
S1130440022201230A490B640A49D1F8003123F03E
S1130450407343EA0263C1F8003170470022134637
S1130460F0E70122FBE700BF0048E8010090D00359
S11304700000C84300400E4038B54FF080430022CE
S11304805B68104BC9B21C461D798D4202D11D68B0
S1130490854213D20132072A03F10803F4D10A4832
S11304A041F2147101F0FFF903224FF080414B68CF
S11304B023F0407343EA02634B6038BD04EBC2028D
S11304C05279F2E78C1A00006019000010B51F2859
S11304D0044604D903484FF4B67101F0E4F901204D
S11304E0A04010BDAE190000044BDB6B5B0604D4C6
S11304F0034AD2F8C830002BFBD1704700300E40BD
S11305000000C64308B5FFF7EFFF024B5868C0F37D
S1130510014008BD00300E40044BD3F84421D207FB
S113052003D4D3F840211042FBD1704700400E4061
S113053038B5B0F5004F054604D30C484FF4636159
S113054001F0B1F96C1C14BFB4FA84F42024C4F192
S11305501F042046FFF7BAFF0138A84204D003481D
S113056040F6376101F09FF9204638BD001A0000BB
S113057070B54FF0804341F671321E6C1A64054623
S11305800C46FFF779FF134A134B022C08BF13469E
S11305909D42124AB6B209D94FF08C43C3F80021E8
S11305A00F4A954207D84FF0884306E04FF088433E
S11305B0C3F80021F7E7002CF5D14FF480521A60FC
S11305C041F671339E421EBF4FF0804300221A64ED
S11305D070BD00BF0024F40080D543020202020073
S11305E080F0FA0238B5C0F30322013A03460E2A1A
S11305F03DD8DFE802F043463C36081B1E2125396E
S1130600292E3C183300204C0020C3F3043508B1D4
S1130610FFF782FF04F1424404F5801405EBC4049F
S1130620A400216038BD194C0020EEE7184C0120CD
S1130630EBE7184C1020E8E7174C4FF48070E4E720
S1130640164C4FF48030E0E7154C81F00101002096
S1130650DBE7144C81F001010020D6E7124C0020A6
S1130660D3E7124C0020D0E7114C0020CDE7BDE8C1
S11306703840104841F6B04101F015B90E4C002045
S1130680C3E70E4C0020C0E7B0400E40C4400E400B
S1130690E0400E40E8400E40EC400E40F0400E407A
S11306A060410E4064410E40F0410E4068410E40EE
S11306B050410E406019000000400E40C0400E4002
S11306C010B5C0F30313013B0C460B2B00F2188248
S11306D0DFE813F00C00340045006000740088006B
S11306E09C00BC006101CE01DA0102021F2904D979
S11306F0C44841F6D56101F0D6F801F0D5F8C248F6
S1130700FFF798FE00F00AFAC04BD3F8001121F469
S1130710F85141EA0424C3F80041FFF755FE0446AA
S1130720FFF7F0FE01462046FFF722FFFFF712FE17
S1130730FFF780FEBDE8104000F006BA1F2904D977
S1130740B04841F6EB6101F0AEF8B04BD3F81411A8
S113075021F4F85141EA0424C3F8144110BD4B1E9E
S1130760B3F5004F0DD2B4FA84F1A84BD3F800418D
S1130770C1F11F0124F0407444EA0164C3F800414C
S1130780ECE7A3484FF4546101F08DF8002CEAD152
S11307902021EAE7B1F5007F04D39A4841F6F861D5
S11307A001F081F8994BD3F80C1121F4FF3121F4B5
S11307B0807141EA0421C3F80C11CFE7B1F5007F41
S11307C004D3904841F6FF6101F06DF88F4BD3F8E4
S11307D0181121F4FF3121F4807141EA0421C3F896
S11307E01811BBE7B1F5007F04D3864841F60771C1
S11307F001F059F8854BD3F81C1121F4FF3121F491
S1130800807141EA0421C3F81C11A7E7B1F5007F08
S113081004D37C4841F60E7101F045F801F044F828
S11308207A4BD3F8081121F4FF3121F4807141EAA5
S11308300421C3F80811FFF7C7FD0446FFF762FE61
S113084001462046BDE81040FFF792BE714B984226
S113085074D010D8704B984246D0704B984257D001
S1130860A3F57033984226D041F68A71BDE8104052
S1130870644801F018B86A4B984205D0694B984215
S113088073D0694B9842EFD1B4F5004F04D95D4859
S113089041F67C7101F007F82046FFF749FE014656
S11308A00420FFF739FE594AD2F8203123F4E043FB
S11308B043EA013315E0B1F5004F04D951484FF430
S11308C0F95100F0F0FF2046FFF732FE0146042004
S11308D0FFF722FE4D4AD2F8203123F4702343EA75
S11308E00143C2F8203139E7022904D941F63171B4
S11308F0444800F0D8FF4FF48020FFF70DFE434B2F
S1130900D3F8301121F003010C43C3F8304125E73B
S1130910B1F5004F04D93B4841F64E7100F0C3FFD6
S11309202046FFF705FE01460420FFF7F5FD374A90
S1130930D2F8203123F00F030B43D2E7B1F5004F77
S113094004D9304841F65D7100F0ADFF2046FFF751
S1130950EFFD01460420FFF7DFFD2C4AD2F82031D9
S113096023F0F00343EA0113BBE7082904D925481F
S113097041F66C7100F097FF2046FFF7D9FD014660
S11309800420FFF7C9FD214AD2F8203123F4407333
S113099043EA0123A5E7254B98421DD003F5A11393
S11309A0984247D0224B98425FD1082904D9154870
S11309B041F6937100F077FF2046FFF7B9FD014639
S11309C04020FFF7A9FD114AD2F8283123F0030390
S11309D00B43C2F82831C1E6082904D9094841F675
S11309E0A27100F060FF2046FFF7A2FD01464020FF
S11309F0FFF792FD054AD2F8283123F0300343EA89
S1130A000113E6E7601900000148E80100400E40C8
S1130A10001A000080161800A009140080061600B1
S1130A2000362C0080262E0080002A0090171C001F
S1130A3090071A00A1F10F03702B04D9324841F634
S1130A40B17100F030FF2046FFF772FD01464020EF
S1130A50FFF762FD2D4AD2F82801043920F44050F2
S1130A6040EA0130C2F8280178E64FF4FE51FDE671
S1130A70274B984205D102297FF63DAF41F6CA7152
S1130A8036E741F6DA71F1E6224B984205D0224B63
S1130A90984212D041F6F371E8E6032904D91A48C2
S1130AA041F6E57100F0FFFE184BD3F85C1121F01C
S1130AB003010C43C3F85C4150E6032904D91248EE
S1130AC041F6ED7100F0EFFE104BD3F85C1121F408
S1130AD0403141EA0444EDE7B1F5007F04D30A480C
S1130AE041F6FB7100F0DFFE084BD3F8041121F44A
S1130AF0FF3121F4807141EA0421C3F804112DE689
S1130B0042F20201B2E600BF6019000000400E404C
S1130B10A0091400B8003200B900340008B5074831
S1130B200321FFF7CDFD06480321FFF7C9FDBDE80A
S1130B30084004480321FFF7C3BD00BF404105003E
S1130B40504107006041090037B5FFF703FC044634
S1130B50FFF7D8FC022817D1194B1A481A491C442C
S1130B609C42B4FBF1F188BF01F1FF310191FFF721
S1130B70A7FD01991548FFF7A3FD0199144803B097
S1130B80BDE83040FFF79CBD124B134D0D48E218F1
S1130B909A42B2FBF5F588BF05F1FF352946FFF708
S1130BA08FFD0B482946FFF78BFD0C4B0C4907487A
S1130BB01C449C42B4FBF1F188BF01F1FF31DEE734
S1130BC0FF2C310140410500002D31015041070047
S1130BD0604109007FF0FA0280F0FA02FFA14A04A2
S1130BE000A24A0408B500F00F0001380C2800F2F6
S1130BF08480DFE800F007121C30263A82445260F9
S1130C006C707900454BD3F8943003F00703023B32
S1130C10052B7FD8424AD05C08BD404BD3F88030C6
S1130C2003F00703013B032B76D83E4AF3E73B4B23
S1130C30D3F8843003F00703013B032B6CD83A4A02
S1130C40E9E7364BD3F8883003F00703013B032B65
S1130C5062D8364ADFE7314BD3F88C3003F0070310
S1130C60013B032B58D8324AD5E72C4B1B6F13F0AA
S1130C70030349D0012B14BF01200920CCE7274BE3
S1130C80D3F85C3103F03003202B3FD0302B3FD01E
S1130C90102B14BF01200720BEE7204BD3F85C3192
S1130CA003F44013B3F5001F30D0B3F5401F2FD029
S1130CB0B3F5801FEDE7194BD3F8600100F0030092
S1130CC0431E022B26D800EB40000130A4E7134B4F
S1130CD0D3F86401F2E7114BD3F8F03103F00703C2
S1130CE0052B19D8134A96E70C4BD3F8683103F057
S1130CF00303032B10D0104A8DE7104842F2012160
S1130D0000F0D1FD002087E7072085E7042083E772
S1130D10082081E705207FE701207DE700400E40A1
S1130D20511A0000571A00005B1A0000571A0000FD
S1130D30571A00005F1A0000651A000060190000CD
S1130D40014B1880704700BF7010002038B502288E
S1130D500C4604D00D4842F6D63100F0A4FD0C4DEB
S1130D606B6AC3F30113012B0DD064B1074842F63B
S1130D70F13100F098FD074BD5F8902033EA0202D8
S1130D80FAD1012038BD4FF48003F5E76019000063
S1130D9000400E40FF3F4F3A2DE9F0470528044636
S1130DA00F4691461FD83E4B3E4A13F800A03E4BD7
S1130DB013F80080F1B93D4B33F81030136601236A
S1130DC003FA08F8D2F8903013EA080FFAD1B9F10F
S1130DD0000F61D00125334A05FA0AF5D2F89030A4
S1130DE02B42FBD158E0BDE8F047314842F6BB2125
S1130DF000F059BD2F4B022833F810604ED1536ACE
S1130E00C3F30113012B49D12B4BDB6B5B0504D4DA
S1130E10274842F6CA2100F046FD224A536A03F0ED
S1130E200303032B05D1536A23F0300343F020035B
S1130E305362224D1B4BA8441E664FEA8808D8F81B
S1130E400030002BFBD0B9F1000F25D05544AD0084
S1130E502B68002BFCD0022C1ED1EFB1114B5B6A26
S1130E6003F00303032B03D000212046FFF76EFF9A
S1130E700F4842F6473100F016FD012200210220FE
S1130E80FFF78AFF0A4842F6BE3100F00CFD054B1D
S1130E901E662B68002BFCD0BDE8F0870027C8E74E
S1130EA0681A000000400E406E1A0000801A00000C
S1130EB060190000741A000000300E408004F21023
S1130EC038B5FFF793FA0021044600F0B7F9144847
S1130ED0FFF7B0FA012211460220FFF75DFF00F090
S1130EE0E3FCFFF71BFE0CB1FFF7FEFA0D4B0222E9
S1130EF05A67FFF72FFAFFF79DFAFFF765FA0546E1
S1130F00FFF700FB01462846FFF732FB1CB901211D
S1130F10204600F093F9BDE83840FFF715BE00BF46
S1130F200148E80100400E4038B504461120FFF79F
S1130F3059FE042804D11F4842F64A1100F0B3FCBC
S1130F40012200210220FFF727FFE37A022B2AD88F
S1130F50194AD25C194D6B6A23F0030313436B6285
S1130F60FFF744FA164B2288984294BF08200020C9
S1130F706B6A23F008031843A388686243EAC22318
S1130F80EB622B6BE2881B0D1B051343628843EA5B
S1130F90C2232B63637A227A1B0143EA0233A27AC7
S1130FA013436B6338BD034842F65E1100F07BFCCB
S1130FB00022CFE7601900004E1A000000400E40E6
S1130FC040787D0170B505461120FFF70BFE02281D
S1130FD004D10F4842F6082100F065FC0D4E0E4B7B
S1130FE0B26B2C7813401C436B7844EAC324AB786F
S1130FF044EA0364EB7844EA0324B36BA34205D0C8
S1131000002101220846FFF7C7FEB46370BD00BF8C
S11310106019000000400E4080E4FFF8034BD86BD9
S113102080F04000C0F38010704700BF00300E40D5
S113103038B542EA0323B3F5007F05460C463ED09B
S113104019D8B3F5807F36D00AD883B3012B21D0C9
S11310501F4840F6312100F026FC002213461FE011
S113106040F201129342F3D11A4BD3F824321A0EF0
S1131070C3F3074314E0B3F5407F24D040F20132B8
S1131080934210D040F201229342E1D1114BD3F8A4
S1131090283202E00F4BD3F82432C3F30722DBB229
S11310A02B60226038BD0B4BD3F82832DFE7094BA5
S11310B0D3F81C32F1E7074BD3F81C32D7E7054BC2
S11310C0D3F82032E9E7034BD3F82032CFE700BF4F
S11310D0C41A00000081E00F08B5FFF79FFF20B19C
S11310E0024AD2F8C830002BFBD108BD0000C64329
S11310F010B51A4B0228D3F830320C4612D003280C
S113110013D0012814BFDBB2C3F307231B0323F45A
S11311107042ECB95AB14FF41C61114800F0C3FBA2
S1131120002010BDC3F30743F0E71B0EEEE70D49A3
S1131130CA6E22F470421343CB660120F1E70949D9
S1131140D1F8EC2022F470421343C1F8EC30F4E7F8
S1131150002AF4D040F6CC11DFE700BF0081E00F95
S1131160C41A000000300E4070B50378124A002BF8
S11311704378946914BF04260026002B837814BF97
S113118002250025002B037924F03F0443EA0403DD
S1131190C47814BF08210021012C08BF43F00103C7
S11311A033432B430B4393611368417923F4403356
S11311B043EA0143136070BD00300E40F8B50446A5
S11311C00F46FFF72BFF78B3FFF786FF174B5B68DB
S11311D0C3F301439C4227D0154BD3F80061FFF7BA
S11311E0B9F8022C05460FD1124BC6F3042606FBB0
S11311F000069E4204D9104840F2577100F053FB98
S113120002212846FFF7B4F9C4F1020210239340E7
S1131210064A13610FB1FFF75FFF2CB92146284638
S1131220BDE8F840FFF7A4B9F8BD00BF00300E4098
S113123000400E40002D3101C41A000013B50246CF
S1131240FFF7ECFEC8B152B90D4B0191D3F8004140
S1131250FFF780F8C4F30422019902FB0002094B52
S11312601B7843B1084B9A4205D8022002B0BDE86E
S11312701040FFF7A3BF0020F8E702B010BD00BF85
S113128000400E409E100020002D310110B5174B78
S11312904AF6E852596B5A639A6FD407FCD41B6C14
S11312A013F003031EBF124A0124C2F8B44A834256
S11312B016D00E4B9A6FD207FCD41A6C22F003029C
S11312C002431A649A6F12F00102FBD10038084CF1
S11312D018BF01200129C4F8B40A08BF5A6303E007
S11312E010B9034BC3F8B40A10BD00BF00300E4060
S11312F00000C6432DE9F04F89B0A0F5E163002456
S1131300B3F5966FCDE90244CDE90444CDE9064432
S113131006468A46934605D940F6BA31554800F048
S1131320C2FAA3E0B0F5E16F534B8CBF0122002257
S113133049D1D3F81832C3F30721DBB207910493E0
S11313404FF416754FF4966748E0BBF1000F0ED0CA
S1131350D9F85C2022F4FE4222F00202B6F5E16FD5
S113136042EA012218BF02200243C9F85C20BAF104
S1131370000F26D020460021FFF7BAFE044610B91C
S113138040F61741CAE701214046FFF7B1FE044683
S113139010B940F61F41C1E7384A536EBD4238BF09
S11313A03D4623F4FF73E72D23F0010328BFE7250F
S11313B0B6F5E16F18BF43F0010343EA45035366F2
S11313C054E0012452E0D3F81832190EC3F3074352
S11313D0079104934FF496654FF4E167DFF89C900E
S11313E0D9F84C400192C4F30174234605A902A81C
S11313F0FFF71EFED9F8EC30019AC3F301284346E7
S113140006A903A8FFF714FE049BF01B079FF91A13
S11314104143B1FBF5F299182CBF012300238F42FD
S11314201ED3EBB9069A039FD31B4343B3FBF5F3D7
S1131430FF182CBF01230023BA4211D383B9059BA3
S1131440029AA3EB020C00FB0CF0B0FBF5F5551966
S11314502CBF01200020AB4202D300283FF475AF1B
S1131460044840F6084100F01EFA0024204609B062
S1131470BDE8F08FC41A00000081E00F00300E4078
S113148008B5334A136FD16C11F0010F03F0060352
S113149044D0002B42D0132857D9143813288CBFBA
S11314A0102308232A49013BCA6C180322F47F4203
S11314B040EA03231343CB64264BCA6C1B88C2F354
S11314C003222833013202EB820003EB5303B3FB04
S11314D0F0F3C86C013B072B28BF072320F0EE6014
S11314E040EA036343F48013CB641B4BB3F900302D
S11314F0002B12DB03F12800C0F34E030344500811
S113150000EB4202B3FBF2F20B6D072A28BF07225D
S113151023F0700343EA02120A6508BDD16C01F09E
S11315200101194304D109280FD90A380928B6E75B
S1131530D26CD20702D50BB92728B0E7074840F68A
S11315405D4100F0B0F90023ACE70423AAE700BF33
S113155000300E409A1000209C100020C41A000095
S113156010B50C4BD3F88039044633B9012804D99B
S1131570094840F67B4100F096F9084A136F23F0BE
S1131580070323431367064BBDE810401888FFF791
S113159077BF00BF0000C643C41A000000300E40ED
S11315A09810002038B50389C82B044604D9514843
S11315B040F65F2100F077F9A28823899A4204D982
S11315C04C484FF4266100F06EF9B4F90C30C82B86
S11315D004DD484840F6612100F065F96378012B89
S11315E055D1A388C82B04D940F66521414800F0A1
S11315F05AF9E28842F210739A4204D93D4840F6FF
S1131600722100F050F9E3884A2B48D9B3F5FA7FE8
S113161047D340F6C312934294BF4FF000524FF0A9
S113162040523549B4F90C00CB6C23F0405323F0FD
S113163001030028A8BF43F001031343CB64D1F88E
S1131640EC30A28843F44073C1F8EC302B4B1A8081
S1131650CB6E43F08073CB66294BD3F8800900B17D
S11316600420FFF77DFF274B21891980264BB4F90D
S11316700C20A0881A80FFF703FFA37BA3B1012BE2
S113168023D01C4840F6711100F00DF90FE0022B35
S1131690AFD1A3880A2BACD940F66A21A6E7002271
S11316A0BFE74FF08052BCE7134B184A9A650122FA
S11316B060881146FFF71EFE054648B90D4840F6FE
S11316C0A92100F0F0F8284638BD0B4B104AEDE78D
S11316D0094AD36B43F48063D3636078FFF7D6FD84
S11316E0A37AA3F1200253425341054AC2F8943726
S11316F0E9E700BFC41A000000300E409810002033
S11317000000C6439A1000209C1000207740205708
S1131710372110B77FB5094B6A4603F11006154609
S113172018685968144603C40833B3422246F7D1F3
S11317302846FFF737FF002004B070BD121B0000DD
S11317401FB5124A1068516801AB03C39068186052
S11317500F4BD3F8B42012030FD4D3F8B830C3F32B
S113176008030C48ADF80630FEF746FE01A8FFF763
S1131770DBFB002005B05DF804FB074B1B884FF62C
S1131780FF72934208BF8423EBE700BF221B0000D3
S11317900081E00F80F0FA020001E00F07B5084B6A
S11317A018680190462301A88DF80430FFF70AFC5D
S11317B06420FFF7C5FA002003B05DF804FB00BF06
S11317C02E1B000010B50C480C4C6FF00402A02135
S11317D012F0800FD3B21BBF03F00F03043BA31816
S11317E01B1802F101020CBF83F8001319763C2A7E
S11317F0EED1002010BD00BF00ED00E000E100E0EC
S113180008B5074B044613B10021AFF30080054B24
S11318101868836A03B19847204600F029F800BF8E
S113182000000000341B000070B50D4D0D4C641B0E
S1131830A4100026A64209D10B4D0C4C00F074F8FC
S1131840641BA4100026A64205D170BD55F8043BC4
S113185098470136EEE755F8043B98470136F2E71E
S113186074100020741000207410002078100020E0
S1131870FEE700BF7047704708B500F035F8FFF782
S1131880F9FF00F03EF8FFF7F6FFFAE770477047FC
S113189000F006B87047704770477047704770474C
S11318A00F207047FEE7FEE770B54FF0804441F625
S11318B07136256C2664FEF749FD0021FEF7DCFD38
S11318C0ADB2B5421CBF0023236470BD13B5684696
S11318D00024022300948DF804408DF80530FFF7AE
S11318E043FC204602B010BD08B5FEF7ABFCFFF781
S11318F0CEFFFFF7CDFFFFF7CDFFBDE80840FFF7B0
S1131900CABF08B5FFF7C8FFFFF7C7FFFFF7C6FF59
S1131910BDE80840FFF7C3BF02440346934200D129
S1131920704703F8011BF9E7F8B500BFF8BC08BC21
S11319309E467047F8B500BFF8BC08BC9E46704789
S11319400024F4000000000000000000000000007B
S11319500048E80100000000006CDC0280F0FA029C
S1131960433A2F55736572732F44436F72646F76D5
S1131970612F53696D706C6963697479537475640C
S1131980696F2F53444B732F6765636B6F5F736489
S11319906B2F706C6174666F726D2F656D6C69620C
S11319A02F7372632F656D5F636D752E6300633AE9
S11319B05C75736572735C64636F72646F76615C8B
S11319C073696D706C696369747973747564696F34
S11319D05C73646B735C6765636B6F5F73646B5C90
S11319E0706C6174666F726D5C636F6D6D6F6E5C4D
S11319F0696E635C736C5F636F6D6D6F6E2E6800F0
S1131A00633A5C75736572735C64636F72646F765A
S1131A10615C73696D706C696369747973747564FE
S1131A20696F5C73646B735C6765636B6F5F73642E
S1131A306B5C706C6174666F726D5C656D6C696211
S1131A405C696E635C656D5F636D752E6800000193
S1131A50030403020D0A0E0302010C0302060C0A1E
S1131A60040B05020305040A09070301050B080614
S1131A700200040A000140000400010010000004F8
S1131A8000028000080002002000000880A8120163
S1131A9000000000005125020001000080F9370316
S1131AA00002000000A24A0400030000C0CF6A0044
S1131AB002000000809FD50002010000002D3101CA
S1131AC002020000433A2F55736572732F44436F2B
S1131AD072646F76612F53696D706C696369747990
S1131AE053747564696F2F53444B732F6765636B2D
S1131AF06F5F73646B2F706C6174666F726D2F65AA
S1131B006D6C69622F7372632F656D5F656D752EE1
S1131B1063000002080705000A00C8000000FFFF78
S1131B20010000000000000600010D080E00000284
S10B1B30070000001010002062
S10B1B3838E6FF7F0100000004
S10F1B404C1B0000001000201F000000DF
S1131B4CC0EA210180F0FA02C0EA21010080000001
S1131B5C0000000000000000000000000000000075
S1131B6C0000000000000000000000000000000065
S1131B7C0000000000000000000000000000000055
S1131B8C0000000000000000000000000000000045
S1131B9C0000000000000000000000000000000035
S1131BAC0000000000000000000000000000000025
S10F1BBCFFFF0000550100003101000093
S90302ED0D
