:10000000001000203904000043300000433000009D
:100010004330000043300000433000004330000014
:100020004330000043300000433000004330000004
:1000300043300000433000004330000043300000F4
:1000400043300000433000004330000043300000E4
:1000500043300000433000004330000043300000D4
:1000600043300000433000004330000043300000C4
:10007000D52A000043300000433000004330000028
:1000800043300000433000004330000043300000A4
:1000900043300000D109000043300000433000002D
:1000A0004330000043300000433000004330000084
:1000B0004330000043300000433000004330000074
:1000C0004330000043300000433000004330000064
:1000D0004330000043300000433000004330000054
:1000E0004330000043300000433000004330000044
:1000F0004330000043300000433000004330000034
:100100004330000043300000433000004330000023
:100110004330000043300000433000004330000013
:100120004330000043300000433000004330000003
:1001300043300000433000004330000043300000F3
:10014000013800D0FCE7704710B5054C237833B96F
:10015000044B13B1044800E000BF0123237010BD1D
:10016000A4100020000000003C37000008B5034B3D
:100170001BB10349034800E000BF08BD00000000B8
:10018000A81000203C370000A3F5803A704700BF5C
:10019000174B002B08BF134B9D46FFF7F5FF0021BF
:1001A0008B460F461348144A121A03F082F80E4B7E
:1001B000002B00D098470D4B002B00D09847002013
:1001C000002104000D000D48002802D00C4800E07A
:1001D00000BF02F0D5FE2000290003F059F802F01C
:1001E000BBFE00BF0000080000000000000000008F
:1001F00000100020A41000202813002000000000A0
:100200000000000010B5234C01F080FA01F072FCF0
:10021000236F23F0070343F00303236702F092FFE9
:100220001D4B00209B6A9B075EBF01221B4B9A62FD
:10023000D4F8203123F0030343F00203C4F8203143
:10024000D4F8243123F0070343F00203C4F8243127
:10025000D4F8403123F0030343F00203C4F84031E3
:10026000D4F8603123F0030343F00203C4F8603193
:10027000D4F8403223F0030343F00203C4F84032C1
:10028000D4F8003223F0070343F00203C4F800322D
:1002900010BD00BF0080005000C0005000E00050C2
:1002A00008B502F013F801280ED1104B04205A6E45
:1002B0004FF480230E49520358BF0E4A4B6601F596
:1002C0001041086258BF536602F048F902F0ACFED4
:1002D00002F0D2F802F02CF902F0F0F8FFF792FFEA
:1002E00002F0DAF8BDE8084002F093BE008000504A
:1002F0000090005000A00050024B0349186800F025
:10030000FDBC00BF00100020041000201022014B93
:100310001A61704700D003501022014B1A617047D8
:1003200000E00350F0B589B03F4D01AC0FCD0FC4D4
:1003300095E8070084E80700012401213A2001F034
:100340002DF83A4F0121282001F028F8384B384683
:1003500001A903938DF8124002F020F823460422ED
:100360000021022001F0B4FD224621460023022094
:1003700001F0AEFD022123460846042201F0A8FD4B
:10038000042223461146002001F0A2FD4FF0021383
:10039000284D0226C5F83036A3F58033C5F82C3633
:1003A0001C23C5F834664FF44870C5F81C3602F0BB
:1003B000ABFB1420FFF7B0FF02F0A6FB2320FFF7F2
:1003C000A5FF02F0A1FBB9213846FFF7A5FF02F017
:1003D000FAFEFFF79BFF002330461A46194601F04C
:1003E00077FD002321461A46304601F071FD234671
:1003F00031463046002201F06BFD002223461046B4
:10040000042101F065FD384601F08CFF0021282011
:10041000C5F83016C5F82C16C5F83416C5F81C16E4
:1004200000F0BCFF09B0F0BDDC32000000C0055098
:1004300000127A0000C0035008B500F02DF8124BEE
:1004400012498B4212D30020114B12498B4218D310
:10045000FFF79EFE186850F82240586840F8224086
:10046000013298688242F5D30C33EAE70022F8E7BC
:100470001C6844F8220001325C68A242F8D30833B9
:10048000E4E70022F8E700BF4437000050370000DF
:10049000503700005037000010B54FF400414FF0C6
:1004A000FF30124B124A9A60D3F8882042F470024F
:1004B000C3F888200F4A916601F1884101F5005286
:1004C00010664FF6DF7050660220C3F8D000BFF30D
:1004D0004F8FBFF36F8F08244FF440330648C0F8A6
:1004E0008041D36004600B6110BD00BF00ED00E0EF
:1004F000000000000090005000E100E0014B18688F
:10050000704700BF28100020084B1B6F03F0070343
:10051000022B04D0032B05D0012B05D0FEE7044BA2
:1005200018687047034BFBE7034870470080005092
:10053000281000202C100020002D310108B5FFF7F5
:10054000E3FF054B1B6FC3F303330133B0FBF3F041
:10055000024B186008BD00BF00800050241000202E
:100560000048704700B4C404014B1868704700BFCE
:100570002C100020054B1860054B1B6F03F0070380
:10058000032B01D1FFF7DABF704700BF2C1000200A
:100590000080005000487047002D3101014B186861
:1005A000704700BF3010002008B501213A2000F04C
:1005B000F5FE032101230422002001F089FC002024
:1005C00002F0F8FD0122214B4FF46070C3F844247F
:1005D00000F00EFF1E4B00F5D520D3F8F02000F2FE
:1005E000FC4042F00102C3F8F020D3F8FC2042F0B6
:1005F0008072C3F8FC20174AA3F55D431A60164BBE
:100600000222B0FBF3F0154B01381861C3F8F0205B
:100610004FF48072C3F804234FF06043104A002067
:10062000C3F8B02F0F4AC3F8802ED3F8002E42F43F
:100630008072C3F8002EFF2283F82020D3F8002E0A
:1006400022F48072C3F8002E08BD00BF00D0035012
:1006500000ED00E0FF030040F8590D00000004E049
:1006600055CEACC5090001002DE9F04F85B09A4682
:10067000554B06461B780F461546DDF83C909DF815
:1006800044B0DDF85080002B00F08D80072A00F286
:100690008C800E9B002B00F08880B9F1000F00F0D9
:1006A0008480129BB3F5006F7FDC012802D1109B80
:1006B000002B7AD0454B03EB05131B7B002B76D028
:1006C000434C10220021684602F0F3FD04EB451470
:1006D0001022002F59D13946204602F0EAFD43F29C
:1006E00010036380BBF1000F03D1E37843F00303F1
:1006F000E370374A0E9B02EB451CCCE90193129B39
:100700006901013BC3F30A009DF84C30012E03F050
:1007100003034FEA836343EA001E53582D48CDF884
:1007200000A000EA03004EEA0003535041D1132316
:100730000CF1100ECCF80C309CE80F008EE80F0086
:100740006FF00301DCF81C20109B61F39F02012F66
:10075000CCF81C20CCF8143003D1CCF81890CCF88D
:1007600004300027194A290102EB051342F80180E1
:10077000159A28465A60694622469F605E7301F0CA
:100780006DFC384605B0BDE8F08F0021204602F030
:1007900090FD4FF444736380BBF1000FA9D1E3785F
:1007A00043F03003A4E70C48ECE70C48EAE70C48B8
:1007B000E8E7B8F1000FD4D19CF8023068F30413D5
:1007C0008CF80230CDE700BF1E130020441100203A
:1007D000C41100200F80FFF3028000F0018000F0C0
:1007E000078000F038B5124B05461B78DBB1E0B14D
:1007F00002F0C4FC0F4A00231146147B54B92B604D
:1008000001251A0101EB03131D738C5002F0BCFC8F
:10081000204638BD0133082B02F11002EDD102F061
:10082000B3FC0548F5E70548F3E70548F1E700BFE5
:100830001E13002044110020048000F0028000F00C
:10084000018000F013B5154B1868002301908DF856
:10085000043002F093FC124B1C7824B102F094FC9B
:10086000104802B010BD01221A7002F08DFC0E4B30
:1008700001A81C731C7783F82C4083F83C4083F854
:100880004C4083F85C4083F86C4083F87C4008233C
:100890008DF8073001F098FB2046E2E7F8320000BF
:1008A0001E130020038000F04411002008B50A4AFE
:1008B000127852B107280AD8084A02EB00131B7BB2
:1008C0003BB101F04BFC002008BD0548FCE70548A2
:1008D000FAE70548F8E700BF1E1300204411002086
:1008E000028000F0018000F0078000F00D4B1B78C3
:1008F00093B1072812D889B10B4B03EB00131B7B74
:1009000073B10A4BDA6A012303FA00F010401ABFF0
:1009100000200B7008707047054870470548704705
:10092000054870471E1300204411002000000450A9
:10093000028000F0018000F0078000F00D4B1B7872
:1009400093B1072812D889B10B4B03EB00131B7B23
:1009500073B10A4B1A6D012303FA00F010401ABF5D
:1009600000200B70087070470548704705487047B5
:10097000054870471E130020441100200000045059
:10098000028000F0018000F0078000F010B50B4AF3
:100990000C46127862B107280CD859B1084A02EB0C
:1009A00000131B7B43B101F0F5FB2060002010BD5C
:1009B0000448FCE70448FAE70448F8E71E1300205F
:1009C00044110020028000F0018000F0078000F058
:1009D0002DE9F843174B1F6D5B6D1F4000D5FEE7F7
:1009E00001260025144CDFF85480DFF8549037427C
:1009F00017D02368C8F850609BB1A1682846013120
:100A00006268A1609847637B012B0AD148B909EB62
:100A100045131A7B60F341021A731A7F60F3410297
:100A20001A770135082D4FEA460604F11004DED18D
:100A3000BDE8F88300000450441100200020045059
:100A4000C411002038B5144602F098FB0023A364BB
:100A500084F84C302364237F0546012B03D104F135
:100A6000600001F093FE636B1BB100212046E26B36
:100A70009847284602F088FBA36D002B03DCBB21BE
:100A8000034802F0E7FAA36D0120013BA36538BDDE
:100A9000FC320000F8B50446194F94F8445094F81D
:100AA00045601DB3012D24D0022D24D0032D03D188
:100AB0000F22F240D20704D440F2CF31384602F080
:100AC000C9FA3023142213FB052303F1A04303F5D5
:100AD00070331B68F340DB0703D494F84C30002BD1
:100AE000DBD194F84C3043B9A06CF8BD40F2FF1252
:100AF000DFE71F22DDE7FF22DBE70020F5E700BF8D
:100B00005033000013B591F84C300C46012B1ED128
:100B1000A06A0DF10601FFF7E9FE9DF80630C3B1AA
:100B2000A06AFFF7C3FE606AFFF7C0FEA06A04F187
:100B30004001FFF72BFF00230C4984F84C30636B16
:100B4000A16423B1D4E90F02821A2046984702B06B
:100B500010BD606A0DF10701FFF7F0FE9DF8073048
:100B6000002BF4D1E36B2364E5E700BF052000F020
:100B700038B50546B0B1B9B1B2B1B2F5006F13DC0A
:100B800002F0FCFA95F84C3003F0FF041BB102F0C0
:100B9000FBFA064838BD012385F84C3002F0F4FA20
:100BA0002046F7E70248F5E70248F3E7032000F0A4
:100BB000012000F0022000F0F0B587B017460022B7
:100BC000436390F85C30044680F85420C76333BB1D
:100BD0004FF4406346690568092E6B6121D90126EF
:100BE00005F12C034435A26DA06A0132A265134AB7
:100BF0000494CDE902620122019700920A46216B1A
:100C000002F05CFA00232A46CDE903330093CDE9D4
:100C10000176E16A606A04F1180302F035FA07B060
:100C2000F0BDA6F109020BBF05F1200305F1240375
:100C300038353C3556425641D5E700BF450A0000DD
:100C40002DE9F04387B017460022436390F85C30EB
:100C50000446884680F85420C76343BB4FF4406382
:100C600046690568092E6B6124D9012605F12C031C
:100C700044354FF00009A26D216B0132A265134A81
:100C8000A06ACDE90262049404F138020197CDF81C
:100C9000009002F013FA01232A460093CDE903994C
:100CA0004346CDE90176E16A606A02F0EDF907B0EA
:100CB000BDE8F083A6F109020BBF05F1200305F1A1
:100CC000240338353C3556425641D2E7450A0000E8
:100CD00010B586B00446084605A9039201F09AFDB6
:100CE00038B9CDE90000039B2046034A059902F07C
:100CF00074FA06B010BD00BF050B00002DE9F041ED
:100D00008AB004468D4F03AE0D460FCF0FC697E84D
:100D1000070086E80700002C00F00D811DB9884807
:100D20000AB0BDE8F08184220021204602F0C1FA19
:100D300000232A688349A3658A4240F0AF802821B6
:100D400021654FF4802198467F4FC4E90B71002341
:100D50002F4684F85C30261D22600FCF0FC697E81F
:100D60000F0086E80F006B7E012B08BF8DF81A304C
:100D7000AB7E002B40F0A080ADF81C302B7E012113
:100D8000012B03BF00238DF819304FF4E133EB68DA
:100D90003A20059300F002FB0121206D00F0FEFADD
:100DA0002B691A1F0C2ABAD8033B286803A98DF8AF
:100DB000183001F0F3FAAB6923F47F0323F47F4387
:100DC00023B92268936843F4803393602B7A28799F
:100DD000697940EA03406B7AAA7941EA0341AB7A28
:100DE000EE7E42EA0342594B4FEA48184344002E34
:100DF00072D11D26C3F81C66C3F83406C3F82C163E
:100E0000C3F83026E97AEA7942EA0142C3F820269B
:100E1000E37BE27A84F84530237F207A677AA57AEB
:100E2000217B94F80D80A67B84F84420002B5DD1B3
:100E30000422019301F04CF8019B012241463846FF
:100E400001F046F8A27F3146012A8CBF0123019BA5
:100E50000422284601F03CF8E37F3BB90123042239
:100E600094F8451094F8440001F032F802F086F945
:100E7000374B1A78002A53D101221A7002F084F9F4
:100E800001F04AFCFFF7DEFC002104F12400FFF72B
:100E9000A9FC0146002846D02E4841E72E4B9A4235
:100EA0007FF43DAF292323654FF4A0232B484FF057
:100EB0000108C4E90B034AE7012B02D14FF4007388
:100EC0005AE7022B02D14FF4807355E7032B7FF4CE
:100ED00026AF4FF440734FE71C25C3F81C56C3F8E8
:100EE0003406C3F82C16C3F8302691E700230122FC
:100EF00000F0EEFF002304224146384600F0E8FFF0
:100F0000A37F0222012B94BF0023012331462846F0
:100F100000F0DEFFE37F002BA8D1012302229FE730
:100F200002F032F9AEE704F12800FFF75BFC00287D
:100F30003FF4F6AEB0E70A48F2E600BFA033000087
:100F4000022000F000C005500200040000C0035061
:100F50001F130020092000F00000065002000500C9
:100F6000012000F0F8B51D46037F04460E461746E3
:100F7000F3B1FFF7FDFDA0B92DB12246294604F1DA
:100F80006000FFF7A5FE94F82030012B0AD03A4606
:100F900031462046074BFFF70FFE204602F0ADF822
:100FA000A06CF8BD2046FFF775FD0028EFD0F8E7EC
:100FB0000148F6E7F1300000082000F0F8B51D46C2
:100FC000037F04460E461746F3B1FFF7D1FDA0B9E3
:100FD0002DB12246294604F16000FFF779FE94F80E
:100FE0002030012B0AD03A4631462046074BFFF706
:100FF00027FE204602F081F8A06CF8BD2046FFF7DE
:1010000049FD0028EFD0F8E70148F6E7F13000008D
:10101000082000F0044BD3F88420D206FBD4D3F888
:101020008400C0F3811070470040005038B5104B69
:101030000546D3F820310C4603F00303022B0BD0F6
:10104000032B0DD0012B0FD1FFF758FA052305B163
:10105000286004B1236038BDFFF786FA0323F6E762
:10106000FFF798FA0223F2E701230020EFE700BF21
:1010700000800050F7B50027114B0197D3F880414D
:10108000064604F00304012C0D4608D0022C12D0B1
:1010900041F27A310B4801F0DDFF3C4604E039466D
:1010A00001A8FFF7C3FF0F240EB1019B336005B108
:1010B0002C6003B0F0BDFFF76DFA0190F4E700BFBC
:1010C00000800050BC33000038B51A4B0546D3F8F9
:1010D00024010C4600F00700062821D8DFE800F0C4
:1010E000280410181C0C1400FFF708FA052305B19A
:1010F000286004B1236038BDFFF700FA0623F6E745
:10110000FFF732FA0323F2E7FFF72EFA0423EEE7A4
:10111000FFF740FA0223EAE701F094FF0723E6E72E
:10112000054840F6717101F095FF00231846DEE78F
:101130000123DCE700800050BC33000038B5104BC1
:101140000546D3F840310C4603F00303022B0BD0C5
:10115000032B0DD0012B0FD101F076FF092305B130
:10116000286004B1236038BDFFF718FA0823F6E7BA
:1011700001F06DFF0B23F2E701230020EFE700BF32
:101180000080005038B5164B0546D3F800020C46D7
:1011900000F00700042819D8DFE800F020030B0F47
:1011A000130001F051FF092305B1286004B1236049
:1011B00038BDFFF7F3F90823F6E701F048FF0B23EA
:1011C000F2E7FFF7BBF90E23800AEDE7054841F28D
:1011D000384101F03FFF00231846E5E70123E3E72C
:1011E00000800050BC33000038B5124B0546D3F8E0
:1011F00040320C4603F00303022B0BD0032B0DD01F
:10120000012B0FD101F020FF092305B1286004B1A3
:10121000236038BDFFF7C2F90823F6E701F017FF96
:101220000B23F2E7044841F2C33101F013FF00231E
:101230001846EAE700800050BC33000038B5104B78
:101240000546D3F860310C4603F00303022B0BD0A4
:10125000032B0DD0012B0FD101F0F6FE092305B1B0
:10126000286004B1236038BDFFF798F90823F6E73A
:1012700001F0EDFE0B23F2E701230020EFE700BFB2
:101280000080005010B40F4C0B46D4F8204204F0FC
:101290000304012C0ED0022C10D008B100210160F3
:1012A0000BB100221A6040F69B7107485DF8044BB1
:1012B00001F0D0BE5DF8044BFFF7B8BE5DF8044BFB
:1012C000FFF73CBF00800050BC33000010B5B0F504
:1012D000207F34D009D8B0F5007F2AD003D898B148
:1012E000B0F5C07F10D0002421E0B0F5607FFAD1C6
:1012F000154BD3F88030C3F301149B0617D5032C8C
:1013000015D040F285210FE00F4B1C6F230B13F01B
:101310000E0FC4F303340AD0032C08D0072C06D0D8
:101320000F2C04D040F27521084801F093FE601C98
:1013300010BD054BD3F89040C4F30464F7E7024BAB
:101340001C6FC4F38024F2E700800050BC3300001F
:1013500010B54FF400320E4B04469A660020FFF79A
:10136000B5FF41F6713260430A4C0B4BA0428CBF73
:101370004FF480100020D969DA639A6822F4401291
:1013800002439A60CA0344BF0022DA6310BD00BF63
:1013900000900050005A62020000035070B54609E8
:1013A00004460D460FD14FF447710D4801F052FE2F
:1013B000334604F01F0485B103F58053012000FA81
:1013C00004F41C6070BD012E05D0064B064A022EA7
:1013D00018BF1346EDE7054BEBE703F50053EDE7C8
:1013E000BC33000068800050608200506480005070
:1013F00030B585B0002380280446019374D02AD8E4
:10140000002877D0A0F12004412C32D8412C30D8CC
:10141000DFE804F070737073868686867373903F7E
:10142000A6653F7373732F2F2F2F2F2F8B57737337
:1014300073B0AB732F2F2F2F2F2F2F2F2F2F2F2F37
:101440002F702F707070862F2F2F2F2F2F2F2F2F51
:101450002F2F2F2F7070B0F5806F61D024D8B0F58A
:10146000007F54D00BD8B0F5807F68D0B0F5C07F36
:1014700040D040F27941424801F0ECFD37E0B0F550
:10148000607F44D0F5D8B0F5207F36D0B0F5407FEE
:10149000EFD1FFF753F804464FF42070FFF716FF23
:1014A000B4FBF0F0400821E0B0F5C06F58D00DD883
:1014B000B0F5A06F39D0B0F5B06F3BD0B0F5906FFC
:1014C000D7D1002101A8FFF7FFFD10E0B0F5E06FD4
:1014D0004BD0B0F5F06F4DD0B0F5D06FC9D1002131
:1014E00001A8FFF74FFE02E0FFF70EF80190019808
:1014F00005B030BDFFF722F8F8E7FFF71FF8044604
:101500004FF42070FFF7E2FEB4FBF0F0EEE7FEF7D9
:10151000FBFF05462046FFF7D9FEB5FBF0F0E5E7F7
:10152000002101A8FFF782FDE1E7002101A8FFF7F4
:10153000A9FEDCE7002101A8FFF79CFDD7E7029395
:101540004FF0E0231B695B0705D5FEF7F7FF02901C
:10155000029B0193CBE703A902A8FFF7EFFDF7E792
:10156000002101A8FFF7EAFDC1E7002101A8FFF76C
:101570003BFEBCE7002101A8FFF760FEB7E700BF14
:10158000BC33000008B58020FFF732FF034B9842C0
:101590009EBF4FF48032024B1A6708BD005A6202A8
:1015A00000A000501FB50023B0F5807F01937FD0CD
:1015B00027D8382800F09C800BD82438092810D868
:1015C00009280ED8DFE800F06F6F6F6F0D0D670D03
:1015D0003685522867D007D83D283AD03E2800F0FB
:1015E0008C8040F25A5152E08028FAD1454B1B6F53
:1015F00003F00703013B032B47D8DFE803F0444126
:101600003F75B0F5D06F64D019D8B0F5A06F6FD02A
:101610000AD8B0F5806F46D0B0F5906FE1D10020C8
:1016200001A9FFF751FD3AE0B0F5B06F33D0B0F546
:10163000C06FD6D1002001A9FFF780FD2FE0B0F5E3
:10164000006FECD00AD8B0F5E06F56D0B0F5F06F6F
:10165000C7D1002001A9FFF7F1FD20E0B0F5086F28
:10166000BFD1284BD3F8003103F00303022B35D050
:10167000032B37D0012B39D1FEF776FF032300E08F
:10168000052301930BE00223FBE740F2AB411E4828
:1016900001F0E0FC03E0002001A9FFF7EBFC01985A
:1016A00005B05DF804FB002001A9FFF7BFFCF6E7D9
:1016B00002934FF0E0231B695B0705D5FEF73EFF61
:1016C0000C230393039BDCE703A902A8FFF736FD75
:1016D000F8E7002001A9FFF755FDE0E7FEF75EFF00
:1016E0000823CEE701F0AEFC0723CAE70123C8E7D1
:1016F000002001A9FFF7C6FDD1E7002001A9FFF7EF
:1017000073FDCCE700800050BC3300004FF4002292
:10171000034B5A66012203F580439A62704700BF6B
:101720000090005070B5036804460F2B04D940F6B2
:1017300046316E4801F08EFC63680F2B04D940F6E9
:1017400049316A4801F086FCA3680F2B04D940F6A2
:101750004C31664801F07EFC237B0F2B04D940F608
:101760004F31624801F076FC637B0F2B04D940F6C1
:1017700052315E4801F06EFCA37B3F2B04D940F64A
:1017800055315A4801F066FCE37B3F2B04D940F603
:101790005831564801F05EFC2369032B04D940F60A
:1017A0005B31524801F056FC6369032B04D940F6C3
:1017B0005E314E4801F04EFCE369012B04D940F63E
:1017C00061314A4801F046FC8020FFF7EBFE032818
:1017D00000F082804FF40022454B02215A6645F604
:1017E0000E03444AC2F88030434B9962012103F54D
:1017F00080539962936DD903FCD4D4E900131B057F
:1018000043EA0163E17B94F822500B43217B94F877
:10181000236043EA0143617B43EA0133A17B43EA4E
:10182000811313619169D4E904031B0643EA8063C1
:1018300001F000410B43A17EE07E0B43217E43EA91
:101840000143617E43EA01239361E369126A002B3D
:101850000CBF0021082122F00D0242EA030242EAF5
:101860008002244B42EA01021A6294F820204FEAD7
:10187000421232D1986A94F8211020F0330042EAE3
:101880000112024342F001029A621C4A996D32EA47
:101890000101FBD1022218498A621A659A6D520031
:1018A000FCD41869A26820F4700040EA02504FF09E
:1018B00000421861104B9A611DB9022203F5805352
:1018C0009A6216B901220E4B9A6294F824301BB129
:1018D000084B0C4AC3F8802070BD996A21F033018F
:1018E00031430A4342EA4502EEE700BFBC33000041
:1018F0000090005000C0005000D000500300014094
:1019000000E00050F1A7FFFF014B93F90000704782
:101910002013002010B543680446072B04D940F675
:101920007C512A4801F096FBA368032B04D940F6AA
:101930007E51264801F08EFB2378032B04D94FF407
:101940005861224801F086FB94F90130002B04DA3B
:1019500040F682511D4801F07DFB4FF480011C4A86
:10196000637851664FF4D151022002F5B8325162CA
:1019700018494F2B48604FF0010028BF4F2301F555
:10198000805148601169C903FCD4217843EA0123DE
:101990005361D4E901131B0143EA0123617B0B432B
:1019A000217B43EA41039360E37BA17B1B0143EA74
:1019B0004113617C0B43217C43EA41035360A37CC8
:1019C00013B16FF4D153536210BD00BFBC3300009C
:1019D0000090005000100250014B1880704700BF6B
:1019E00096100020014B1880704700BF9410002013
:1019F00010B5B0F5207F65D00ED8B0F5007F4FD080
:101A000003D800B3B0F5C07F1DD040F2FF21BDE880
:101A10001040344801F01EBBB0F5607FF5D14C1E7C
:101A2000012C06D9042904D040F2E2212D4801F00E
:101A300011FB2D4AD2F8803023F0300343EA04131F
:101A4000C2F8803010BD102901F1FF3404D8274BB3
:101A500023FA01F1CB0704D440F2B621214801F06A
:101A6000F9FA01F05CFB01F068FB4FF48031204B88
:101A70001D4A1967136F23F4704343EA0433136755
:101A8000FEF75CFD0446FFF7C5FAC0F102012046EF
:101A900001F04DFB00F03EF8BDE81040FFF772BDCD
:101AA0004C1E1F2C04D940F2F3210E4801F0D2FA4B
:101AB0000D4BD3F8901021F0F85141EA0461C3F8BE
:101AC0009010BFE74C1E012C04D940F2F9210548C3
:101AD00001F0C0FA044B196F21F4806141EA8421BE
:101AE0001967AFE7BC330000008000501601010009
:101AF0000090005008B50121022000F089F801F0A3
:101B00000EFB01F01AFB4FF48032014B1A6708BD3F
:101B10000090005008B54FF4C070FFF769FCBDE8B5
:101B20000840044988428CBF022101214FF42070F3
:101B3000FFF75EBF80F0FA020028ABBF00F1604003
:101B4000054B00F5614000F00F00ACBF90F80003BA
:101B5000185C0009704700BF14ED00E038B5C5B24D
:101B60003F2D044604D940F21631074801F072FABD
:101B7000064B640953F8240005F01F05E840C043F4
:101B800000F0010038BD00BF0934000000E100E0B2
:101B900010B500F10C03DBB24B2B044604D94FF413
:101BA0002971144801F056FAEFF31083DB0702D5D0
:101BB0000122104610BD2046FFF7D0FF0246002844
:101BC000F6D12046FFF7B8FF0146EFF3118313B1BA
:101BD000B0EB131FECD2084B5B68C3F30803002B78
:101BE000E7D0103B58B2FFF7A7FF88428CBF002216
:101BF0000122DEE70934000000ED00E0034A01792C
:101C0000D36E23F030030B43D3667047004000507F
:101C10002DE9F0410446264BD3F88420D006FBD4AE
:101C2000D3F88430C3F381139C423ED0FEF76CFCA2
:101C3000012C05460BD11F4B984204D940F2477145
:101C40001D4801F007FA0121284601F070FA01F061
:101C50008EFA4FF00072194B07465A66204601F083
:101C600096FA4FF48063124E621E9340DFF848806C
:101C70003367736E9A0103D4D6F884309B060AD575
:101C8000384601F078FA022C0FD12846BDE8F04121
:101C9000002101F04CBAD6F884309906E9D540F21B
:101CA0005571404601F0D6F9E3E7BDE8F08100BF89
:101CB00000400050005A620257340000006000509B
:101CC00007B518B90191FEF71FFC0199064B1B7867
:101CD00043B1064B984205D8012003B05DF804EBF0
:101CE000FFF796BF0220F8E721130020005A620296
:101CF00038B54FF000420121274B5A6603F50C23FB
:101D000059604AF6CD33254A556C13640D4048BBE3
:101D100094680C4009D0224B224C9960D36ADB07AF
:101D200010D4A0420CD14FF0FF3401221C4B5A605A
:101D300015B11A4B1C4A1A6401F02AFA204638BD24
:101D40000130EBE7A0424FF0FF3418BF0024ECE76E
:101D50000131D36A13F0080307D08142F8D16FF044
:101D60000104E5E700210F48F3E78142F7D0202185
:101D70000B4A51620121A2F5805291600749094A3C
:101D8000486A800603D49342E9D00133F8E79342CE
:101D9000E5D00024CCE700BF00900050004009507F
:101DA0000060095040420F003254FFFF38B54FF039
:101DB0000042194B194C5A66012203F50C235A6054
:101DC0004AF6CD33656C2364437815409340134342
:101DD000134AD363A368827823F0740343EA02139F
:101DE000C278002A14BF042200221343A3600279A0
:101DF000837943EA022323614279C37943EA0223C8
:101E000063610078FFF774FF0DB1064B236401F0A6
:101E1000BFF9012038BD00BF0090005000400950BC
:101E2000004000503254FFFF38B50D460446D8B18B
:101E300001281CD002281CD0032803D10F23EB401B
:101E4000DB0704D440F22D410B4801F003F93020A8
:101E5000012141F21003444304F1A04401FA05F5C5
:101E600004F57034E55038BD40F2FF13E7E71F2357
:101E7000E5E7FF23E3E700BF5033000038B50D4628
:101E80000446D8B101281CD002281CD0032803D155
:101E90000F23EB40DB0704D440F2FE310B4801F086
:101EA000D9F83020012142F21003444304F1A04448
:101EB00001FA05F504F57034E55038BD40F2FF1322
:101EC000E7E71F23E5E7FF23E3E700BF5033000008
:101ED000F8B50D4616461F46044660B301282DD0BE
:101EE00002282DD0032803D10F22EA40D30704D4BF
:101EF0004FF4B0711B4801F0ADF826B129462046D9
:101F000007B3FFF791FF04EB4403072D4FF00F01D8
:101F10004FEA031319D8A80006FA00F281401248CC
:101F2000184401F036F9E6B929462046AFB1BDE8BC
:101F3000F840FFF779BF40F2FF12D6E71F22D4E73F
:101F4000FF22D2E7FFF79AFFDDE7A5F10800800046
:101F500006FA00F281400548E2E7BDE8F840FFF7E5
:101F60008DBFF8BDA434000004C003500CC0035062
:101F700038B50C460546E0B101281DD002281DD019
:101F8000032803D10F23E340DB0704D440F28F1171
:101F90000B4801F05FF830230A48072C03FB0500CB
:101FA0008ABF083C4068C068A400E04000F00F0011
:101FB00038BD40F2FF13E6E71F23E4E7FF23E2E723
:101FC000A434000000C0035010B5044618B9912194
:101FD0001F4801F03FF823781B0613F0604F03D031
:101FE00092211B4801F036F8E3780F2B03D9A32187
:101FF000174801F02FF801212020FFF7CFF9012128
:102000002120FFF7CBF90122124B5A6022781206E9
:102010009A606178A27842EA01429A61FF229A624C
:1020200000229A631A644FF000425A654FF0FF3263
:102030004FF4001103F500531A65074AC2F88011E6
:10204000E3781B01DBB282F81533116010BD00BFCD
:10205000F23400000000045000E100E02DE9F041FE
:102060000126C3B2072805460C46904606FA03F639
:1020700003DDEC21354800F0EDFF1CB9ED213348BC
:1020800000F0E8FF236823F47C1323F00F031BB157
:10209000F0212E4800F0DEFFA37A1B0413F47C0F1E
:1020A00004D040F20911294800F0D4FFE37A1B055F
:1020B00013F07E6F04D040F20B11244800F0CAFFE9
:1020C000237B5B0513F0FE5F04D040F20D111F4827
:1020D00000F0C0FF30201E4A637B166521681D4F4B
:1020E00002F5005242F8251000FB05752B66E37AD5
:1020F000A27A1B0543EA0243227B43EA425328F0BB
:102100000302EB652A6701F039F87B6D33437B6589
:10211000237A13B13B6C33433B64637A13B1BB6BDB
:102120003343BB632279A37943EA0243084A9361AC
:102130006179E37943EA014307498B61054B5663B3
:102140009E64BDE8F04101F01FB800BFF23400000A
:1021500000200450000004500010045010B5012469
:10216000C3B2072804FA03F404DD40F297110748CC
:1021700000F070FF01F002F8054B5A6D22EA0402EC
:102180005A659C62BDE8104000F0FEBFF2340000CA
:1021900000000450F8B50125C3B20728044605FA2B
:1021A00003F504DD4FF4EE710C4800F053FF00F02E
:1021B000E5FF30220A4B1E6D5F6B02FB04335C6E41
:1021C00000F0E2FF3D4206D1C4F30A1008B93542DF
:1021D00000D10130F8BD0020FCE700BFF234000060
:1021E0000000045038B5022805460C4603D94C219E
:1021F0000C4800F02FFFE378627821785B0143EA16
:10220000820322790B4343EA02130C226A4302F150
:10221000B0421363012902BFA278034B43F8252083
:1022200038BD00BF8D350000E880035008B54FF081
:10223000B0435A6802B960B15B680BB100F0BBFFF4
:102240004FF0B04130B10120074B586000F0B3FFB0
:10225000C86008BD00F0AFFF0223CB6000F0ABFF09
:102260000122024B5A60F4E7001000580020005889
:1022700070B54FF0B0435B680BB100F09CFF0121DB
:10228000104B4578596083780679002BC37814BFCA
:1022900002240024002B14BF042200224379DB0017
:1022A00043EA06132B43234313434FF0B04293609A
:1022B000054B59600378002B14BF0B460223D360F3
:1022C00070BD00BF0020005800100058024B186875
:1022D000C0F30740704700BF0080E00F70B50646AE
:1022E0000C46154622B940F28E210C4800F0B2FE91
:1022F00024B94FF42070FFF77BF804466D00013CD1
:10230000B4FBF5F4064B250213EA042304D040F293
:10231000B321024800F09EFEF56170BDDB35000080
:10232000070080FF10B5194B0446984208D003F50A
:102330008043984204D040F24241154800F08AFEA2
:10234000012204F580535A6040F6AA6341F2050267
:10235000636100230F49A360E365E26004F5005266
:102360002361E361E36491640849A3658C4202D070
:102370000948844207D18C42236502D0064B9C4217
:1023800001D1002363650123536010BD00C00550D7
:10239000DB350000FFFF01000000065038B5334B6D
:1023A000044698420D4608D003F58043984204D075
:1023B00040F269312E4800F04DFE2046FFF7B2FF93
:1023C0000122A97B04F580535A602A8AA368002958
:1023D00014BF4FF48061002142F0010213432A7DB3
:1023E0000B43002A14BF4FF000520022A360A368E1
:1023F0001343A360AB7C5BB11C4AEB7C94422DD1B0
:10240000A2F51032C2F88C31E36D43F08003E3652E
:102410002B7B2046D5E9011243F48053E360FFF79C
:102420005DFF6B7B0BB1102363616B7D1BB1A368F8
:1024300043F48033A360AB7D1BB1A36843F4004336
:10244000A360EB7D2A7E1B07120503F0E04302F434
:10245000E0021343A3652B78636138BD054A9442BB
:1024600004BFA2F52032C2F89C31CDE700C0055070
:10247000DB3500000000065007B56B46054A1068C2
:10248000516803C36846FFF791FC002003B05DF874
:1024900004FB00BF2A36000013B50024064A684634
:1024A000536F43F00103536700948DF80440FFF726
:1024B000A5FB204602B010BD0040005030B58BB0E7
:1024C0006C46174D0FCD0FC40FCD0FC495E8030018
:1024D00084E80300134BD3F84C21120318D4D3F82B
:1024E0005041E4B28DF81940FFF70EFA204480F312
:1024F00008008DF818000C48FEF73CF86846FFF716
:1025000011F94FF4FA70FFF76DFA00200BB030BDEF
:10251000064B1C884FF6FF739C4208BF7824E1E706
:10252000343600000080E00F00F049020001E00FA7
:1025300030B587B0084D01AC0FCD0FC42B6801A892
:10254000236025238DF80530FFF7E4F96420FFF7B9
:1025500043FA002007B030BD5C36000010B56FF0C4
:10256000040250210A480B4C12F0800FD3B21BBF5B
:1025700003F00F03043BA3181B1802F101020CBF68
:1025800083F800131976402AEED1002010BD00BF59
:1025900000ED00E000E100E030B50F4C4161236840
:1025A000ABB92060836011E0891A9A681D464161C9
:1025B0002AB113465A698A42F6D955B11A461346CA
:1025C000A860836013B15A69511A596130BD002562
:1025D000F0E72060F5E700BFD012002010B500F052
:1025E00022FE0A4C0A4B19682368C31A01B10BB9C1
:1025F000206010BD4A699A423ABF9B1A0022D21A43
:102600004A6128BF00238968F0E700BFC412002098
:10261000D012002038B5134D2B685B6993B1124A74
:10262000022014681C4400F005FE204600F000FA69
:1026300000230E492A680B70D088800709D5012332
:102640000B7038BD022000F0F5FD022000F03AFAD0
:10265000EEE79268002AF4D050690344012BEBD9CD
:10266000EFE700BFD0120020C41200202313002087
:1026700070B516469DF81420C0E903360271049A1D
:10268000BDF818300260002204460D468260C38007
:1026900006BB00F0C8FD2844A0613DB9E368656150
:1026A00013B120462168984796B1354600F05FFD8A
:1026B0000646FFF793FF29462046FFF76DFF074BBD
:1026C0001B68A34201D1FFF7A5FF304600F053FD80
:1026D000002070BD00F0A7FD3044DDE7D0120020DF
:1026E00000220C490B687BB183420AD183687AB11E
:1026F000936083681BB15A6941690A445A6100209A
:1027000070471A469B68EEE70028EFD0022070471A
:102710000B60EEE7D012002070B500F02FFD144ED4
:1027200005463478FCB9134B1C60134B1C60134BEB
:102730001C8000F039F9012000F07CFD00F086FDDE
:102740000F4B0246186020B9284600F01DFD2320DB
:1027500070BD234640F2E7310A4800F06DFA0A4B9B
:10276000186001233370284600F00EFD0020EFE7CB
:1027700022130020D0120020C41200201C130020BD
:10278000CC12002018FCFFFFC81200202DE9F041F8
:102790000546F8B100F0EBFC0F4F0646FFF71EFFB1
:1027A0002846D7F80080FFF79BFF044628B1304643
:1027B00000F0E1FC2046BDE8F081A8453B6803D16C
:1027C00023B1FFF727FFF2E7002BF0D1022000F042
:1027D00061F9ECE72224EDE7D012002038B50C4671
:1027E000054698B191B100230B7000F0C7FC0121A0
:1027F000074B1B680BB122781AB100F0C5FC002012
:1028000038BDAB4214BF9B682170F3E72220F7E785
:10281000D012002070B50C4B0D461B68834211D3BB
:1028200040F2E73100248C462146084B4FF47A727F
:102830001E680023E0FB06C1604600F0FDF9286039
:10284000204670BD2120FCE7C8120020CC120020D9
:102850002DE9F84FC20704460BD54F4A13880133C0
:102860009BB21380FFF7BAFE4C4B1B680BB1FFF70E
:10287000D1FEA30740F18E8000F080FC4FF0000AEB
:1028800005465646FFF7AAFED046444FDFF814919E
:102890003C680CB163698BB10022414B012E1A7068
:1028A00003D11AF0020F18BF1E70002C62D0FFF780
:1028B000B1FE2846BDE8F84F00F066BC23461A7901
:1028C0002179914288BF1C469B6813B15A69002A3E
:1028D000F5D0284600F058FCD4F810A0BAF1000F4B
:1028E0004CD000F0A0FCA269851AEB17AA4578EB42
:1028F000030344DA236913440122A36123691BB350
:1029000012BBEB17BAEB050563EB4303002B04DAAC
:1029100040F22151484600F09DFBA38B33B1E28B7E
:1029200013449BB2B3F57A7F1CD2E38300F026FCFC
:10293000824629462046FFF72FFEA36922695046AA
:102940001344A36100F020FCE368B4F806A001364C
:1029500013B120462168984700F010FC0546FFF7A8
:102960003DFE95E7A3F57A73E383A369013D013B3F
:10297000A361DBE7022000F08DF89AE7554600F0EE
:10298000FDFB83462046FFF7ABFE584600F0FCFBFC
:102990000022B3E7BDE8F88F1C130020D0120020FE
:1029A00024130020703600001FB500241D4B0121A8
:1029B00018689A880290D3F806009B7A00903E200F
:1029C000ADF80C208DF80430FEF7E8FC8DF80840D7
:1029D00000F027FC8DF80C0002A8FFF749FC6946BF
:1029E00001208DF80040FFF7FDFB4FF0B04240F2B0
:1029F000FF31936923F47F7323F0030393610A4B40
:102A00005961936A13F00803FBD113620120FFF7A9
:102A10000DFC4FF48052054BC3F880211A6004B0BE
:102A200010BD00BFD13600000020005800E100E0DA
:102A300010B5044600F09BFB4FF0B042936A1907B3
:102A4000FCD4136A116C5269520604D4CA1A032AC0
:102A500001D88B420ED1E21A022A98BFDC1CB4F1D5
:102A6000FF3F38BF013C4FF0B0431C649A6942F00D
:102A700040029A6100F07FFB054A13783BB14FF0AA
:102A8000B041CB6B43F00203CB630023137010BD46
:102A900098100020820700F001030AD50121084A9E
:102AA00043F0400311704FF0B041CA6B22F00302B3
:102AB000CA634FF0B0418A6922EA03038B61704711
:102AC00098100020830742BF4022014B5A61704793
:102AD0000010005810B500F051FB4FF0B043044611
:102AE0005B695A06074A03F0010003F0510348BF2F
:102AF00040F002005361FFF7ABFE2046BDE81040F6
:102B000000F042BB0020005810B50446FDF716FD4A
:102B10004FF47A729042B0FBF2F105D23621BDE853
:102B200010400C4800F096BA0B4BB3FBF1F30B4985
:102B3000884201D93C21F2E702FB04F0B0FBF3F03C
:102B4000022806D9BDE810400323B0FBF3F0FDF7DF
:102B5000F7BA10BDDC36000040420F00E7CD9A3BCB
:102B600038B504460D46FFF703FA012803D029467D
:102B7000204600F09AFBDCB1012C1CD0022C1CD0AA
:102B8000032C03D10F23EB40DB0704D440F2CF31F9
:102B90000B4800F05FFA3020142310FB043404F1DA
:102BA000A04404F570342068E84000F0010038BD0E
:102BB00040F2FF13E7E71F23E5E7FF23E3E700BF4A
:102BC0005033000007B5019004480023102201A9EA
:102BD0000068FEF7F3F903B05DF804FB0010002075
:102BE00010B5054C05480023102221460068FEF769
:102BF000B9F9206810BD00BFD812002000100020D5
:102C000008B501210846FFF7ABFF094B0128186002
:102C10000DD1FFF7E5FF074B0128186008BF4FF6FD
:102C2000FF70BDE8084018BF0020FFF7CBBF08BD0C
:102C300018130020D412002053B94AB9002908BF44
:102C400000281CBF4FF0FF314FF0FF3000F082B979
:102C5000ADF1080C6DE904CE00F006F8DDF804E0F3
:102C6000DDE9022304B070472DE9F04F099D0446C9
:102C70000F46002B48D18A42944661D9B2FA82F3BA
:102C800043B1C3F120019F4002FA03FC9C4020FAAB
:102C900001F10F434FEA1C411FFA8CFE220CB7FBD7
:102CA000F1F601FB167706FB0EF042EA074290426E
:102CB00008D91CEB020206F1FF3702D2904200F263
:102CC00037813E46121AA4B2B2FBF1F001FB10228A
:102CD00000FB0EFE44EA0244A64508D91CEB04049E
:102CE00000F1FF3202D2A64500F21C81104640EAF4
:102CF0000640A4EB0E0400261DB1DC400023C5E90C
:102D000000433146BDE8F08F8B4209D9002D00F019
:102D1000FD800026C5E9000130463146BDE8F08F50
:102D2000B3FA83F6002E4BD18B42C0F0F280824280
:102D300040F2EF803046002DE3D0C5E90047E0E7E0
:102D400002B9FFDEB2FA82F3002B40F09D80891AAF
:102D50004FEA124E97B20126200CB1FBFEF20EFB99
:102D6000121140EA014107FB02F088420FD91CEB27
:102D7000010102F1FF382CBF4FF001094FF00009AB
:102D8000884203D9B9F1000F00F0CF804246091AFA
:102D9000A4B2B1FBFEF00EFB101100FB07F744EAF2
:102DA0000144A74208D91CEB040400F1FF3102D210
:102DB000A74200F2B4800846E41B40EA02409BE7C9
:102DC000C6F12007B34001FA06F422FA07FCF940E5
:102DD000B2404CEA030C20FA07F34FEA1C491C43AB
:102DE0001FFA8CFE00FA06F3200CB1FBF9F809FB80
:102DF000181140EA014108FB0EF088420FD91CEB84
:102E0000010108F1FF3A2CBF4FF0010B4FF0000B0E
:102E1000884203D9BBF1000F00F08D80D046091A1B
:102E2000A4B2B1FBF9F009FB101100FB0EFE44EA5D
:102E300001418E4507D91CEB010100F1FF3401D29D
:102E40008E457FD8204640EA0840A1EB0E01A0FB4A
:102E5000029841454C46C64602D306D14B4504D2A2
:102E60000138B9EB020468EB0C0E002D70D01A1B70
:102E700061EB0E0122FA06F301FA07F7F140002692
:102E80001F43C5E900713CE702FA03FCC3F12000CF
:102E900001FA03F221FA00F64FEA1C4E24FA00F17F
:102EA0001FFA8CF79C401143B6FBFEF00A0C0EFB98
:102EB000106642EA064200FB07F696420ED91CEB6A
:102EC000020200F1FF382CBF4FF001094FF000095A
:102ED000964202D9B9F1000F31D04046921B89B217
:102EE000B2FBFEF60EFB162241EA024106FB07F298
:102EF0008A4207D91CEB010106F1FF3801D28A4250
:102F000023D84646891A46EA004625E72E46284633
:102F1000F7E6841A61EB030301201F460BE76444C4
:102F2000023849E764440238E1E6023A61442EE798
:102F3000023E6244C6E6A8F1020861446FE7023827
:102F40006244CBE7023861447DE7023E6144D9E741
:102F50002E46D6E6704700BF08B5074B044613B1AE
:102F6000002100E000BF054B1868836A03B1984751
:102F7000204600F029F800BF0000000038370000AC
:102F800070B50D4D00260D4C641BA410A64209D14E
:102F90000B4D00260B4C00F095F9641BA410A642C3
:102FA00005D170BD55F8043B01369847EEE755F85A
:102FB000043B01369847F2E79C1000209C1000204B
:102FC0009C100020A0100020FEE700BF00F018B801
:102FD00008B5FDF7E9FAFDF78FF9BDE8084000F004
:102FE00027B808B500F00AF8BDE80840FFF794BB21
:102FF0007047704770477047704770470F207047A1
:1030000008B50422002311460120FEF761FF0020CD
:1030100008BD08B501213A20FEF7C0F9FFF7D6FF39
:10302000BDE80840FDF77EB901213A20FEF7B6B9A8
:1030300008B5082000F00FF8BDE80840082000F0AF
:1030400016B8FEE7002070474FF4004070474FF479
:103050007A707047FEE74FF060420123D2F8001EFD
:1030600003FA00F00843C2F8000E002070474FF04A
:1030700060410122D1F8003E02FA00F023EA000389
:10308000C1F8003E0020704710B588B00E9C009239
:1030900007940D9C024606949DF8304005940B9CC5
:1030A00004949DF8284003940024CDE9013420467F
:1030B0000B462146FDF7D8FA08B010BD10B588B010
:1030C0000E9C009207940D9C024606949DF8304099
:1030D00005940B9C04949DF8284003940024CDE9AA
:1030E000013420460B460121FDF7BEFA08B010BDA1
:1030F0000123816480F85430704710B504461520D0
:10310000FEF746FD30B994F85430002BFBD005E0B3
:10311000FDF75EFC94F85430002BF9D010BD08B5D3
:10312000FDF71EFABDE808400021FEF711B900299D
:10313000CCBF01210021FEF70BB902214FF4207012
:10314000FEF756BC10B5FDF7F9F90446FDF762FF2E
:10315000C0F102012046FFF7EAFF01210020FEF73F
:10316000AFFDFEF7D7FCBDE81040FEF70BBAEFF35A
:10317000108072B6704700B962B67047EFF31180E5
:10318000302383F31188704780F3118870477047AC
:10319000704770B5054614460E46FFF7E8FF2968EC
:1031A00081EA040202EA06044C402C60BDE870404B
:1031B000FFF7E1BF70474FF0B0435A6812B19A6A07
:1031C000002AFAD1704783695A06FCD5C163836926
:1031D0009B06FCD5406AC0B27047F0B587B01F4669
:1031E00000230D46164604468DF81730A8B1C3617A
:1031F0000DF11701FFF7F2FA9DF817207AB9BDF823
:103200003430294602939DF830302046CDE90073D2
:103210003346FFF72DFA07B0F0BD2220FBE703206D
:10322000F9E7002070474FF0B0439A6A1207FCD4C8
:10323000186A704782074FF0B04200F001039169AD
:1032400048BF43F040030B439361704708B53E20ED
:10325000FEF7CEF80346FFF7E4FF23FA00F008BDBF
:1032600008B5FDF71DF8FFF7B3FEFFF7BAFEFFF74D
:10327000BFFEBDE80840FFF7BCBE08B5FFF7BAFEC9
:10328000FFF7B9FEFFF7B8FEBDE80840FFF7B5BE8F
:1032900008B5FFF7E5FF00F005F8FFF7EEFF00F0D7
:1032A00002F8FAE77047FFF7ABBC00230122FEF7F4
:1032B0000FBE02440346934200D1704703F8011B3E
:1032C000F9E70000F8B500BFF8BC08BC9E4670479F
:1032D000F8B500BFF8BC08BC9E467047050000006A
:1032E0000000000040420F00050100000000000047
:1032F00000000000000000001E000003433A2F55AC
:10330000736572732F446965676F2F53696D706CB5
:10331000696369747953747564696F2F53444B738F
:103320002F6765636B6F5F73646B5F332F706C61C6
:1033300074666F726D2F656D6472762F7370696439
:1033400072762F7372632F7370696472762E6300C6
:10335000633A5C75736572735C646965676F5C730F
:10336000696D706C696369747973747564696F5C95
:1033700073646B735C6765636B6F5F73646B5F3300
:103380005C706C6174666F726D5C656D6C69625CBB
:10339000696E635C656D5F6770696F2E6800000021
:1033A000050000000000000040420F000501000081
:1033B000000000000000000000000000433A2F550C
:1033C000736572732F446965676F2F53696D706CF5
:1033D000696369747953747564696F2F53444B73CF
:1033E0002F6765636B6F5F73646B5F332F706C6106
:1033F00074666F726D2F656D6C69622F7372632FC7
:10340000656D5F636D752E6300433A2F557365726A
:10341000732F446965676F2F53696D706C696369B9
:10342000747953747564696F2F53444B732F6765B8
:10343000636B6F5F73646B5F332F706C6174666F67
:10344000726D2F656D6C69622F7372632F656D5F8E
:10345000636F72652E6300433A2F55736572732F45
:10346000446965676F2F53696D706C69636974791E
:1034700053747564696F2F53444B732F6765636B87
:103480006F5F73646B5F332F706C6174666F726D06
:103490002F656D6C69622F7372632F656D5F656D4B
:1034A000752E6300433A2F55736572732F44696517
:1034B000676F2F53696D706C6963697479537475A4
:1034C00064696F2F53444B732F6765636B6F5F7332
:1034D000646B5F332F706C6174666F726D2F656DF6
:1034E0006C69622F7372632F656D5F6770696F2EF1
:1034F0006300433A2F55736572732F446965676F94
:103500002F53696D706C696369747953747564695C
:103510006F2F53444B732F6765636B6F5F73646BDF
:103520005F332F706C6174666F726D2F656D6C699F
:10353000622F7372632F656D5F6C646D612E630023
:10354000633A5C75736572735C646965676F5C731D
:10355000696D706C696369747973747564696F5CA3
:1035600073646B735C6765636B6F5F73646B5F330E
:103570005C706C6174666F726D5C656D6C69625CC9
:10358000696E635C656D5F6275732E6800433A2FE8
:1035900055736572732F446965676F2F53696D703A
:1035A0006C696369747953747564696F2F53444B04
:1035B000732F6765636B6F5F73646B5F332F706C22
:1035C0006174666F726D2F656D6C69622F737263C3
:1035D0002F656D5F727463632E6300433A2F5573DA
:1035E0006572732F446965676F2F53696D706C69DD
:1035F0006369747953747564696F2F53444B732FE7
:103600006765636B6F5F73646B5F332F706C61749E
:10361000666F726D2F656D6C69622F7372632F65B3
:103620006D5F75736172742E630001030401010103
:10363000090300000B0000000B0000000200000066
:103640000000202000000000030000008C8C3C00E3
:103650000000000000000000000000000126000043
:103660000400000000000000000100000000000055
:10367000433A2F55736572732F446965676F2F53F3
:10368000696D706C696369747953747564696F2FBF
:1036900053444B732F6765636B6F5F73646B5F336A
:1036A0002F706C6174666F726D2F736572766963CB
:1036B000652F736C65657074696D65722F737263C5
:1036C0002F736C5F736C65657074696D65722E63C2
:1036D000000100000005000200000300433A2F55DE
:1036E000736572732F446965676F2F53696D706CD2
:1036F000696369747953747564696F2F53444B73AC
:103700002F6765636B6F5F73646B5F332F706C61E2
:1037100074666F726D2F736572766963652F756459
:10372000656C61792F7372632F736C5F7564656C60
:0C37300061792E630000000034100020BE
:08373C004CCAFF7F01000000F0
:0C37440050370000001000202900000099
:10375000C010002000C00550020202020001020356
:1037600040420F00080000000000000001010000BE
:1037700000000000C0EA2101C0EA210100F0490276
:1037800000800000000000000000000000000000B9
:103790000000000000000000000000000000000029
:1037A0000000000000000000000000000000000019
:1037B0000000000000000000000000000000000009
:1037C00000000000000000000000000000000000F9
:1037D00000000000000000000000000000000000E9
:1037E00000000000FFFFFFFF010000006D0100006E
:0437F000490100008B
:0400000300000439BC
:00000001FF
