S01800005350495F536C6176655F54657374696E672E73333759
S11300000010002091050000A94D0000A94D00003A
S1130010A94D0000A94D0000A94D0000A94D000004
S1130020A94D0000A94D0000A94D0000A94D0000F4
S1130030A94D0000A94D0000A94D0000A94D0000E4
S1130040A94D0000A94D0000A94D0000A94D0000D4
S1130050A94D0000A94D0000A94D0000A94D0000C4
S1130060A94D0000A94D0000A94D0000A94D0000B4
S11300707D370000A94D0000A94D0000A94D0000E6
S1130080A94D0000A94D0000A94D0000A94D000094
S1130090A94D00009D0C0000A94D0000A94D0000D1
S11300A0A94D0000A94D0000A94D0000A94D000074
S11300B0A94D0000A94D0000A94D0000A94D000064
S11300C0A94D0000A94D0000A94D0000A94D000054
S11300D0A94D0000A94D0000A94D0000A94D000044
S11300E0A94D0000A94D0000A94D0000A94D000034
S11300F0A94D0000A94D0000A94D0000A94D000024
S1130100A94D0000A94D0000A94D0000A94D000013
S1130110A94D0000A94D0000A94D0000A94D000003
S1130120A94D0000A94D0000A94D0000A94D0000F3
S1130130A94D0000A94D000045040000594D0000E0
S1130140013800D0FCE7704710B5054C237833B96B
S1130150044B13B1044800E000BF0123237010BD19
S1130160A8100020000000008C5C000008B5034BC0
S11301701BB10349034800E000BF08BD00000000B4
S1130180AC1000208C5C0000A3F5803A704700BFDF
S1130190174B002B08BF134B9D46FFF7F5FF0021BB
S11301A08B460F461348144A121A05F00FF80E4BEB
S11301B0002B00D098470D4B002B00D0984700200F
S11301C0002104000D000D48002802D00C4800E076
S11301D000BF03F0BDFC2000290004F095FD03F0EE
S11301E0A3FC00BF000008000000000000000000A5
S11301F000100020A8100020B81300200000000008
S11302000000000011B90122014B1A70704700BFB1
S11302107A130020014803F045BD00BFDC550000FF
S113022013B5144C14492268144803F007FE2368DC
S1130230124901331248236003F0AEFC0023114C31
S1130240114823700193114B114A00930B49102359
S1130250006800F0A3FF18B160210E4804F0ADFD62
S11302602378002BFCD00A490B4802B0BDE81040AB
S113027003F092BCC4100020135600007B1300202E
S11302801D5600007A130020001000200502000013
S11302906A130020375600005356000010B5234C53
S11302A001F03EFB01F02AFD236F23F0070343F026
S11302B00303236704F0D5FD1D4B00209B6A9B07B5
S11302C05EBF01221B4B9A62D4F8203123F0030352
S11302D043F00203C4F82031D4F8243123F0070397
S11302E043F00203C4F82431D4F8403123F003036B
S11302F043F00203C4F84031D4F8603123F003031F
S113030043F00203C4F86031D4F8403223F003030D
S113031043F00203C4F84032D4F8003223F0070358
S113032043F00203C4F8003210BD00BF0080005047
S113033000C0005000E0005008B5134B1B68C3F325
S11303400743012B0ED1114B04205A6E4FF4802326
S11303500F49520358BF0F4A4B6601F5104108621A
S113036058BF536602F0B0FB04F017FD02F03EFBE9
S113037002F05EFB02F092FBFFF790FF02F046FBF7
S1130380BDE8084004F0FEBC0080E00F008000508F
S11303900090005000A0005030B5234D9DB009AC32
S11303A00FCD0FC495E80F0084E80F00242200212C
S11303B012A804F00BFF1D4B01241193382313934F
S11303C005231593062317930823199307231B93D7
S11303D003231022002105A88DF849408DF84830E8
S11303E004F0F4FE4FF4801C114B1248CDE903C312
S11303F03E238DF814303F238DF815300E4B09AA97
S11304000693202307930D4B03A9009311AB8DF89A
S1130410214002F08FFB044618B17921084804F00A
S1130420CCFC20461DB030BDA05600000000035A8D
S11304303400035A2C1100208B130020C810002014
S113044071560000014804F000BE00BF2C110020CA
S1130450024B0349186800F073BD00BF0010002070
S1130460041000201022014B1A61704700D0035081
S11304701022014B1A61704700E00350F0B5404D63
S113048089B001AC0FCD0FC495E8070084E80700DC
S1130490012401213A2001F08BF83A4F0121282050
S11304A001F086F8384B384601A903938DF81240C1
S11304B002F02EFA234604220021022001F094FFC8
S11304C0224621460023022001F08EFF022123460A
S11304D00846042201F088FF042223461146002026
S11304E001F082FF4FF00213284D0226C5F8303682
S11304F0A3F58033C5F82C361C23C5F834664FF4B5
S11305004870C5F81C3603F053F91420FFF7B0FF08
S113051003F04EF92320FFF7A5FF03F049F9B921B1
S11305203846FFF7A5FF04F003FDFFF79BFF002308
S113053030461A46194601F057FF002321461A4651
S1130540304601F051FF234631463046002201F087
S11305504BFF002223461046042101F045FF384694
S113056002F09AF900212820C5F83016C5F82C1697
S1130570C5F83416C5F81C1601F01AF809B0F0BD18
S1130580C056000000C0055000127A0000C003509D
S113059008B500F02DF8124B12498B4212D30020FB
S11305A0114B12498B4218D3FFF7F2FD186850F82B
S11305B02240586840F82240013298688242F5D3BC
S11305C00C33EAE70022F8E71C6844F82200013201
S11305D05C68A242F8D30833E4E70022F8E700BFDE
S11305E0945C0000A05C0000A05C0000A05C000023
S11305F04FF400414FF0FF30124B134A10B59A608C
S1130600D3F8882042F47002C3F888200F4A916618
S113061001F1884101F5005210664FF6DF70506613
S11306200220C3F8D000BFF34F8FBFF36F8F0824AD
S11306304FF440330648C0F88041D36004600B6136
S113064010BD00BF00ED00E000000000009000506D
S113065000E100E0014B1868704700BF281000203B
S1130660084B1B6F03F00703022B04D0032B05D0A8
S1130670012B05D0FEE7044B18687047034BFBE7DA
S11306800348704700800050281000202C100020E0
S1130690002D310108B5FFF7E3FF054B1B6FC3F3D2
S11306A003330133B0FBF3F0024B186008BD00BF05
S11306B000800050241000200048704700B4C40497
S11306C0014B1868704700BF2C100020054B1860C0
S11306D0054B1B6F03F00703032B01D1FFF7DABFB0
S11306E0704700BF2C100020008000500048704765
S11306F0002D3101014B1868704700BF30100020F5
S113070005490A681318054883428CBF4FF0FF322D
S11307100B601046704700BF34100020008000209A
S113072008B501213A2000F043FF032101230422EC
S1130730002001F059FE002004F0F1FB0122214BBE
S11307404FF46070C3F8442400F05CFF1E4B00F5C6
S1130750D520D3F8F02000F2FC4042F00102C3F8A7
S1130760F020D3F8FC2042F08072C3F8FC20174A32
S1130770A3F55D431A60164B0222B0FBF3F0154B50
S113078001381861C3F8F0204FF48072C3F80423D1
S11307904FF06043104A0020C3F8B02F0F4AC3F84B
S11307A0802ED3F8002E42F48072C3F8002EFF226C
S11307B083F82020D3F8002E22F48072C3F8002E90
S11307C008BD00BF00D0035000ED00E0FF0300406F
S11307D0F8590D00000004E055CEACC50900010035
S11307E02DE9F04F9A46564B85B01B7806460F46C6
S11307F01546DDF83C909DF844B0DDF85080002BA0
S113080000F08D80072A00F28C800E9B002B00F0F4
S11308108880B9F1000F00F08480129BB3F5006F5B
S11308207FDC012802D1109B002B7AD0454B03EBCF
S113083005131B7B002B76D0434C10220021684605
S113084004F0C4FC04EB45141022002F59D139469E
S1130850204604F0BBFC43F210036380BBF1000F9D
S113086003D1E37843F00303E370374A0E9B02EBB2
S1130870451CCCE90193129B6901013BC3F30A00B7
S11308809DF84C30012E03F003034FEA836343EADF
S1130890001E53582D48CDF800A000EA03004EEA8C
S11308A00003535041D113230CF1100ECCF80C303B
S11308B09CE80F008EE80F006FF00301DCF81C20A9
S11308C0109B61F39F02012FCCF81C20CCF814304C
S11308D003D1CCF81890CCF804300027194A290128
S11308E002EB051342F80180159A28465A606946BE
S11308F022469F605E7301F051FE384605B0BDE8A4
S1130900F08F0021204604F061FC4FF444736380AF
S1130910BBF1000FA9D1E37843F03003A4E70C48FE
S1130920ECE70C48EAE70C48E8E7B8F1000FD4D14B
S11309309CF8023068F304138CF80230CDE700BF52
S1130940AB130020C8110020481200200F80FFF3D1
S1130950028000F0018000F0078000F038B5124BEF
S113096005461B78DBB1E0B104F097FA0F4A002387
S11309701146147B54B92B6001251A0101EB0313B2
S11309801D738C5004F08FFA204638BD0133082BB8
S113099002F11002EDD104F086FA0548F5E70548A6
S11309A0F3E70548F1E700BFAB130020C8110020AE
S11309B0048000F0028000F0018000F013B504F020
S11309C06CFA00230B4A147B7CB90133082B02F127
S11309D01002F8D1019001F057FD074B01981C70EB
S11309E004F061FA204602B010BD04F05CFA03483A
S11309F0F9E700BFC8110020AB130020058000F008
S1130A000D4B10B51B78044693B1072812D804F097
S1130A1044FA0A4B03EB04131A7B2AB100241C7317
S1130A2004F041FA204610BD04F03DFA0448FAE708
S1130A300448F8E70448F6E7AB130020C811002087
S1130A40068000F0028000F0018000F0154B13B521
S1130A501868002301908DF8043004F01EFA124B3C
S1130A601C7824B104F01FFA104802B010BD012212
S1130A701A7004F018FA0E4B01A81C731C7783F843
S1130A802C4083F83C4083F84C4083F85C4083F866
S1130A906C4083F87C4008238DF8073001F034FD66
S1130AA02046E2E7DC560000AB130020038000F090
S1130AB0C81100200A4A08B512785AB107280BD881
S1130AC0084A02EB00131B7B43B1002101F0FAFC3E
S1130AD0002008BD0448FCE70448FAE70448F8E7A6
S1130AE0AB130020C8110020028000F0018000F048
S1130AF0078000F00A4A08B512785AB107280BD8C3
S1130B00084A02EB00131B7B43B1012101F0DAFC1C
S1130B10002008BD0448FCE70448FAE70448F8E765
S1130B20AB130020C8110020028000F0018000F007
S1130B30078000F00A4A08B5127852B107280AD88B
S1130B40084A02EB00131B7B3BB101F0A7FD002018
S1130B5008BD0548FCE70548FAE70548F8E700BF83
S1130B60AB130020C8110020028000F0018000F0C7
S1130B70078000F00D4B1B7893B1072812D889B178
S1130B800B4B03EB00131B7B73B10A4BDA6A012393
S1130B9003FA00F010401ABF00200B700870704771
S1130BA0054870470548704705487047AB13002057
S1130BB0C811002000000450028000F0018000F001
S1130BC0078000F00D4B1B7893B1072812D889B128
S1130BD00B4B03EB00131B7B73B10A4B1A6D012300
S1130BE003FA00F010401ABF00200B700870704721
S1130BF0054870470548704705487047AB13002007
S1130C00C811002000000450028000F0018000F0B0
S1130C10078000F00B4A10B512780C4662B1072821
S1130C200CD859B1084A02EB00131B7B43B101F005
S1130C3051FD2070002010BD0448FCE70448FAE789
S1130C400448F8E7AB130020C8110020028000F02C
S1130C50018000F0078000F00B4A10B512780C46B2
S1130C6062B107280CD859B1084A02EB00131B7B68
S1130C7043B101F051FD2060002010BD0448FCE7A1
S1130C800448FAE70448F8E7AB130020C811002031
S1130C90028000F0018000F0078000F02DE9F843A5
S1130CA0174B1F6D5B6D1F4000D5FEE70126002525
S1130CB0144CDFF85480DFF85490374217D023687F
S1130CC0C8F850609BB1A168284601316268A160F0
S1130CD09847637B012B0AD148B909EB45131A7B6A
S1130CE060F341021A731A7F60F341021A770135E7
S1130CF0082D4FEA460604F11004DED1BDE8F8835E
S1130D0000000450C81100200020045048120020A4
S1130D1038B5144604F0C1F80023A36484F84C30B9
S1130D202364237F0546012B03D104F1600002F004
S1130D3081FB636B1BB100212046E26B9847284678
S1130D4004F0B1F8A36D002B03DCBB21034804F0CD
S1130D5034F8A36D0120013BA36538BDE0560000C3
S1130D60F8B50446194F94F8445094F845601DB3FF
S1130D70012D24D0022D24D0032D03D10F22F240C3
S1130D80D20704D440F2CF31384604F016F83023A9
S1130D90142213FB052303F1A04303F570331B68EE
S1130DA0F340DB0703D494F84C30002BDBD194F8E8
S1130DB04C3043B9A06CF8BD40F2FF12DFE71F22AC
S1130DC0DDE7FF22DBE70020F5E700BF3557000031
S1130DD013B591F84C300C46012B1ED1A06A0DF1CD
S1130DE00601FFF7C7FE9DF80630C3B1A06AFFF7FE
S1130DF0A1FE606AFFF79EFEA06A04F14001FFF7BE
S1130E002BFF00230C4984F84C30636BA16423B19D
S1130E10D4E90F02821A2046984702B010BD606AD6
S1130E200DF10701FFF7CEFE9DF80730002BF4D13A
S1130E30E36B2364E5E700BF052000F038B5054601
S1130E40B0B1B9B1B2B1B2F5006F13DC04F025F85A
S1130E5095F84C3003F0FF041BB104F024F8064865
S1130E6038BD012385F84C3004F01DF82046F7E71F
S1130E700248F5E70248F3E7032000F0012000F000
S1130E80022000F02DE9F0431F46002387B080F8CC
S1130E9054300E9B0446436390F85C308846C76325
S1130EA03BBB4FF4406346690568092E6B6123D947
S1130EB0012605F12C0344354FF00109A16DA06A08
S1130EC00131A16512490494CDE902610197216BB6
S1130ED0CDF8009003F098FF00232A46CDE90333B0
S1130EE0CDE901764346E16A606ACDF8009003F0EB
S1130EF071FF07B0BDE8F083A6F109010BBF05F14E
S1130F00200305F1240338353C354E424E41D3E7E6
S1130F10110D000010B586B00446084605A90392D9
S1130F2002F0CCFA38B9CDE90000039B2046034A0D
S1130F30059904F0E3F806B010BD00BFD10D000020
S1130F402DE9F04104468B4F8AB003AE0D460FCF16
S1130F500FC697E8070086E80700002C00F0088118
S1130F601DB985480AB0BDE8F081842200212046DD
S1130F7004F02CF92B68814A934240F0B180282276
S1130F8022654FF480224FF000087D4FC4E90B72B4
S1130F9026462F4646F8043B0FCF0FC697E80F00AE
S1130FA086E80F006B7E012B08BF8DF81A30AB7EEC
S1130FB033B1012B40F0A2804FF40073ADF81C3024
S1130FC02B7E0121012B03BF00238DF819304FF430
S1130FD0E133EB683A20059300F0EAFA0121206D31
S1130FE000F0E6FA2B691A1F0C2ABAD8033B2868CA
S1130FF003A98DF8183001F08BFCAB6923F47F034F
S113100023F47F4323B92268936843F480339360C5
S11310102B7A2879697940EA03406B7AAA7941EA04
S11310200341AB7AEE7E42EA0342564B4FEA48183C
S11310304344002E6DD11D26C3F81C66C3F8340644
S1131040C3F82C16C3F83026E97AEA7942EA014259
S1131050C3F82026E37BE27A84F84530237F207AA4
S1131060677AA57A217B94F80D80A67B84F84420C6
S1131070002B58D10422019301F0B6F9019B0122FF
S11310804146384601F0B0F9A27F3146012A8CBFAF
S11310900123019B0422284601F0A6F9E37F3BB912
S11310A00123042294F8451094F8440001F09CF9BB
S11310B003F0F3FE344B1A78002A4ED101221A7041
S11310C003F0F1FE02F07CF9FFF7C0FC002104F10B
S11310D02400FFF743FC0146002841D02B4841E798
S11310E02B4A93427FF43DAF292222654FF4A0227C
S11310F028484FF00108C4E90B0249E7022B02D14A
S11311004FF480735AE7032B7FF42BAF4FF44073F3
S113111054E71C25C3F81C56C3F83406C3F82C1630
S1131120C3F8302696E70023012201F05DF900237D
S113113004224146384601F057F9A37F0222012BCD
S113114094BF002301233146284601F04DF9E37F83
S1131150002BADD101230222A4E703F0A4FEB3E7E0
S113116004F12800FFF7FAFB00283FF4FBAEB5E7D3
S11311700948F7E684570000022000F000C005503B
S11311800200040000C00350AC130020092000F04A
S11311900000065002000500012000F02DE9F7438D
S11311A01F46037F044688461646DDF82C902BB371
S11311B03A46FFF743FE0546A8B90EB3B9F1000F4E
S11311C005D02246494604F16000FFF7A3FE94F8D7
S11311D02030012B0BD00A9B3246009341463B46FC
S11311E02046FFF74FFE284603B0BDE8F0832046B3
S11311F0FFF7B6FD0028EED00546F4E7014DF2E70F
S1131200014DF0E7082000F0022000F0044BD3F871
S11312108420D206FBD4D3F88400C0F38110704735
S11312200040005038B5124B0546D3F820310C4627
S113123003F00303022B0BD0032B0DD0012B0FD192
S1131240FFF708FA052305B1286004B1236038BD0F
S1131250FFF736FA0323F6E7FFF748FA0223F2E72B
S1131260044841F2711103F0A8FD00231846EAE78F
S113127000800050A0570000F7B50027114B0197DC
S1131280D3F88041064604F00304012C0D4608D02F
S1131290022C12D041F2BE210B4803F08EFD3C46D5
S11312A004E0394601A8FFF7BDFF0F240EB1019BEE
S11312B0336005B12C6003B0F0BDFFF717FA01905D
S11312C0F4E700BF00800050A057000038B5194B68
S11312D00546D3F824310C4603F00703013B052BE4
S11312E020D8DFE803F0030F171B0B13FFF7B2F945
S11312F0052305B1286004B1236038BDFFF7AAF9BE
S11313000623F6E7FFF7DCF90323F2E7FFF7D8F942
S11313100423EEE7FFF7EAF90223EAE703F045FDC9
S11313200723E6E7044840F6C76103F046FD0023BF
S11313301846DEE700800050A057000038B5124B75
S11313400546D3F840310C4603F00303022B0BD0BF
S1131350032B0DD0012B0FD103F029FD092305B177
S1131360286004B1236038BDFFF7C4F90823F6E709
S113137003F020FD0B23F2E7044841F29F1103F030
S11313801CFD00231846EAE700800050A057000027
S113139038B5154B0546D3F800320C4603F0070365
S11313A0013B032B18D8DFE803F0020A0E1203F006
S11313B0FEFC092305B1286004B1236038BDFFF7A2
S11313C099F90823F6E703F0F5FC0B23F2E7FFF79E
S11313D061F90E23800AEDE7044841F2743103F009
S11313E0ECFC00231846E5E700800050A0570000FD
S11313F038B5124B0546D3F840320C4603F00303CC
S1131400022B0BD0032B0DD0012B0FD103F0CFFCFB
S1131410092305B1286004B1236038BDFFF76AF9D8
S11314200823F6E703F0C6FC0B23F2E7044841F275
S1131430073103F0C2FC00231846EAE7008000509D
S1131440A057000038B5124B0546D3F860310C465E
S113145003F00303022B0BD0032B0DD0012B0FD170
S113146003F0A5FC092305B1286004B1236038BD4D
S1131470FFF740F90823F6E703F09CFC0B23F2E79F
S1131480044841F2CD1103F098FC00231846EAE722
S113149000800050A057000010B40F4C0B46D4F845
S11314A0204204F00304012C0ED0022C10D008B109
S11314B0002101600BB100221A6040F6F161074877
S11314C05DF8044B03F079BC5DF8044BFFF7AABE4A
S11314D05DF8044BFFF732BF00800050A0570000B6
S11314E0B0F5207F10B534D009D8B0F5007F2AD0EC
S11314F003D898B1B0F5C07F10D0002421E0B0F536
S1131500607FFAD1154BD3F88030C3F301149B06E6
S113151017D5032C15D04FF421710FE00F4B1C6F1E
S1131520230B13F00E0FC4F303340AD0032C08D09A
S1131530072C06D00F2C04D04FF41D71084803F07B
S11315403CFC601C10BD054BD3F89040C4F304640C
S1131550F7E7024B1C6FC4F38024F2E700800050CD
S1131560A05700004FF400320E4B10B504469A66A3
S11315700020FFF7B5FF41F6713260430A4C0B4B74
S1131580A0428CBF4FF480100020D969DA639A68B6
S113159022F4401202439A60CA0344BF0022DA6371
S11315A010BD00BF00900050005A620200000350BA
S11315B070B5460904460D460FD140F21B310D4863
S11315C003F0FBFB334604F01F0485B103F580539D
S11315D0012000FA04F41C6070BD012E05D0064BF6
S11315E0064A022E18BF1346EDE7054BEBE703F559
S11315F00053EDE7A057000068800050608200505F
S113160064800050002330B5802885B004460193DF
S113161074D02AD8002877D0A0F12004412C32D8E5
S1131620412C30D8DFE804F07073707386868686A8
S11316307373903FA6653F7373732F2F2F2F2F2F34
S11316408B57737373B0AB732F2F2F2F2F2F2F2F15
S11316502F2F2F2F2F702F707070862F2F2F2F2F3B
S11316602F2F2F2F2F2F2F2F7070B0F5806F61D059
S113167024D8B0F5007F54D00BD8B0F5807F68D063
S1131680B0F5C07F40D04FF48F61424803F095FB22
S113169037E0B0F5607F44D0F5D8B0F5207F36D080
S11316A0B0F5407FEFD1FEF7F5FF04464FF420700C
S11316B0FFF716FFB4FBF0F0400821E0B0F5C06F6F
S11316C058D00DD8B0F5A06F39D0B0F5B06F3BD07D
S11316D0B0F5906FD7D1002101A8FFF7F7FD10E016
S11316E0B0F5E06F4BD0B0F5F06F4DD0B0F5D06FE2
S11316F0C9D1002101A8FFF74BFE02E0FEF7B0FFBD
S11317000190019805B030BDFEF7C4FFF8E7FEF77D
S1131710C1FF04464FF42070FFF7E2FEB4FBF0F083
S1131720EEE7FEF79DFF05462046FFF7D9FEB5FB21
S1131730F0F0E5E7002101A8FFF774FDE1E70021DF
S113174001A8FFF7A9FEDCE7002101A8FFF794FD3B
S1131750D7E702934FF0E0231B695B0705D5FEF73B
S113176099FF0290029B0193CBE703A902A8FFF71C
S1131770E5FDF7E7002101A8FFF7E0FDC1E700213F
S113178001A8FFF735FEBCE7002101A8FFF75AFEC8
S1131790B7E700BFA057000008B58020FFF732FF6D
S11317A0034B98429EBF4FF48032024B1A6708BD28
S11317B0005A620200A000501FB50023B0F5807FDC
S11317C001937FD027D8382800F09C800BD8243888
S11317D0092810D809280ED8DFE800F06F6F6F6F62
S11317E00D0D670D3685522867D007D83D283AD0AD
S11317F03E2800F08C8040F2595152E08028FAD102
S1131800454B1B6F03F00703013B032B47D8DFE86D
S113181003F044413F75B0F5D06F64D019D8B0F5EA
S1131820A06F6FD00AD8B0F5806F46D0B0F5906F36
S1131830E1D1002001A9FFF749FD3AE0B0F5B06F0E
S113184033D0B0F5C06FD6D1002001A9FFF776FDE3
S11318502FE0B0F5006FECD00AD8B0F5E06F56D0A9
S1131860B0F5F06FC7D1002001A9FFF7EBFD20E030
S1131870B0F5086FBFD1284BD3F8003103F0030350
S1131880022B35D0032B37D0012B39D1FEF718FFAB
S1131890032300E0052301930BE00223FBE740F25E
S11318A0AA411E4803F089FA03E0002001A9FFF7CA
S11318B0E3FC019805B05DF804FB002001A9FFF7E3
S11318C0B1FCF6E702934FF0E0231B695B0705D5F3
S11318D0FEF7E0FE0C230393039BDCE703A902A8B5
S11318E0FFF72CFDF8E7002001A9FFF751FDE0E721
S11318F0FEF700FF0823CEE703F057FA0723CAE7F1
S11319000123C8E7002001A9FFF7C6FDD1E70020A5
S113191001A9FFF76DFDCCE700800050A05700003F
S11319204FF40022034B5A66012203F580439A6266
S1131930704700BF00900050036870B50F2B044639
S113194004D940F6F2216E4803F037FA63680F2B8E
S113195004D940F6F5216A4803F02FFAA3680F2B47
S113196004D940F6F821664803F027FA237B0F2BAD
S113197004D940F6FB21624803F01FFA637B0F2B66
S113198004D940F6FE215E4803F017FAA37B3F2BEF
S113199004D940F601315A4803F00FFAE37B3F2B98
S11319A004D940F60431564803F007FA2369032B9F
S11319B004D940F60731524803F0FFF96369032B59
S11319C004D940F60A314E4803F0F7F9E369012BD4
S11319D004D940F60D314A4803F0EFF98020FFF7AF
S11319E0EBFE032800F082804FF40022454B0221D5
S11319F05A6645F60E03444AC2F88030434B996256
S1131A00012103F580539962936DD903FCD4D4E981
S1131A1000131B0543EA0163E17B94F822500B4356
S1131A20217B94F8236043EA0143617B43EA013359
S1131A30A17B43EA811313619169D4E904031B0672
S1131A4043EA806301F000410B43A17EE07E0B4337
S1131A50217E43EA0143617E43EA01239361E36902
S1131A60126A002B0CBF0021082122F00D0242EA69
S1131A70030242EA8002244B42EA01021A6294F809
S1131A8020204FEA421232D1986A94F8211020F0B3
S1131A90330042EA0112024342F001029A621C4AF4
S1131AA0996D32EA0101FBD1022218498A621A6552
S1131AB09A6D5200FCD41869A26820F4700040EAC0
S1131AC002504FF000421861104B9A611DB9022276
S1131AD003F580539A6216B901220E4B9A6294F868
S1131AE024301BB1084B0C4AC3F8802070BD996A9E
S1131AF021F0330131430A4342EA4502EEE700BFD5
S1131B00A05700000090005000C0005000D00050CA
S1131B100300014000E00050F1A7FFFF014B93F9DF
S1131B2000007047AD130020436810B5072B04462E
S1131B3004D940F614512A4803F03FF9A368032B53
S1131B4004D940F61651264803F037F92378032BBD
S1131B5004D940F61851224803F02FF994F90130C2
S1131B60002B04DA40F61A511D4803F026F94FF40D
S1131B7080011C4A637851664FF4D151022002F56A
S1131B80B832516218494F2B48604FF0010028BF0A
S1131B904F2301F5805148601169C903FCD42178B1
S1131BA043EA01235361D4E901131B0143EA0123EE
S1131BB0617B0B43217B43EA41039360E37BA17B7D
S1131BC01B0143EA4113617C0B43217C43EA41033B
S1131BD05360A37C13B16FF4D153536210BD00BFA3
S1131BE0A05700000090005000100250014B1880D4
S1131BF0704700BF9C100020B0F5207F10B565D061
S1131C000ED8B0F5007F4FD003D800B3B0F5C07F35
S1131C101DD040F2FE21BDE81040344803F0CDB899
S1131C20B0F5607FF5D14C1E012C06D9042904D0EF
S1131C3040F2E1212D4803F0C0F82D4AD2F880305B
S1131C4023F0300343EA0413C2F8803010BD102996
S1131C5001F1FF3404D8274B23FA01F1CB0704D454
S1131C6040F2B521214803F0A8F803F0E7F803F0A7
S1131C70F3F84FF48031204B1D4A1967136F23F496
S1131C80704343EA04331367FEF704FD0446FFF789
S1131C90BDFAC0F10201204603F0D8F800F03EF886
S1131CA0BDE81040FFF778BD4C1E1F2C04D940F24C
S1131CB0F2210E4803F081F80D4BD3F8901021F077
S1131CC0F85141EA0461C3F89010BFE74C1E012C9F
S1131CD004D94FF43E71054803F06FF8044B196FB3
S1131CE021F4806141EA84211967AFE7A05700001D
S1131CF000800050160101000090005008B5012139
S1131D00022000F027F803F099F803F0A5F84FF447
S1131D108032014B1A6708BD0090005008B54FF49B
S1131D20C070FFF76FFCBDE80840044988428CBFCF
S1131D30022101214FF42070FFF75EBF80F0FA0208
S1131D40034A0179D36E23F030030B43D366704703
S1131D50004000502DE9F0410446264BD3F884207E
S1131D60D006FBD4D3F88430C3F381139C423ED015
S1131D70FEF776FC012C05460BD11F4B984204D983
S1131D8040F23C711D4803F018F80121284603F085
S1131D905DF803F07BF84FF00072194B07465A6662
S1131DA0204603F083F84FF48063124E621E934082
S1131DB0DFF848803367736E9A0103D4D6F8843011
S1131DC09B060AD5384603F065F8022C0FD1284645
S1131DD0BDE8F041002103F039B8D6F88430990603
S1131DE0E9D540F24A71404602F0E7FFE3E7BDE877
S1131DF0F08100BF00400050005A6202EE5700001C
S1131E000060005007B518B90191FEF729FC01994B
S1131E10064B1B7843B1064B984205D8012003B00A
S1131E205DF804EBFFF796BF0220F8E7AE1300203D
S1131E30005A62024FF0004210B501244AF6CD3137
S1131E40154B5A66154A03F50B2354605A6C1964F2
S1131E50224088B9996811F0010F114903D08C60B0
S1131E60D86AC007FCD501234B6012B10D4B0E4A52
S1131E701A6403F01CF810BDD96A0907FCD42021A8
S1131E80074B59620121A3F58053996005494B6AB8
S1131E909B06FCD5E9E700BF0090005000500950B4
S1131EA000600950004009503254FFFF4FF00042D7
S1131EB038B5194B194C5A66012203F50C235A60A4
S1131EC04AF6CD33656C236443781540934013433D
S1131ED0134AD363A368827823F0740343EA02139A
S1131EE0C278002A14BF042200221343A36002799B
S1131EF0837943EA022323614279C37943EA0223C3
S1131F0063610078FFF796FF0DB1064B236402F07E
S1131F10CEFF012038BD00BF0090005000400950A2
S1131F20004000503254FFFF10B5044602F0C4FFD5
S1131F30002341F202020849E360A360226104F530
S1131F400052E3616361A36123626362E362A36499
S1131F505164A36210BD00BF7F370C0138B5154B27
S1131F60044698420D4604D040F26511124802F02E
S1131F7024FF25B92046BDE8384002F09DBF012268
S1131F8004F580535A6040F2FF71204605F00F02B9
S1131F9002F08EFF2263782102F08AFF05F001032C
S1131FA06A0748BF43F00203226C02F003029A421C
S1131FB0FAD138BD0000035A3C580000F8B5064673
S1131FC00C46174622B940F22321414802F0F5FE9F
S1131FD0404B9E4278D040F226213D4802F0EDFE6F
S1131FE044B940F275313A4802F0E7FE2046FFF763
S1131FF009FB04467368012B04D04FF4167134486E
S113200002F0DBFEB16801F0E001402946D009D8B6
S1132010B9B1202938D040F29A21BDE8F8402C48C3
S113202002F0CBBE602945D08029F4D107EB4703E9
S1132030A34204D94FF42571254802F0BEFE0123C2
S113204008E0B7EB141F04D94FF42071204802F0C4
S1132050B4FE10237B436401B4FBF3F31E4D203B19
S1132060B5EBC30F4FEAC30404D240F2A5211848CC
S113207002F0A3FE30462C40012102F019FFB462A5
S1132080BDE8F84002F014BFB7EBD40F04D940F216
S113209085210F4802F091FE0823DBE70625B4FBF7
S11320A0F5F3BB4204D240F28A21094802F085FECE
S11320B02B46CFE7B7EB940F04D940F28F210448A5
S11320C002F07BFE0423C5E7002C93D138248DE76E
S11320D03C5800000000035AF8FF7F00436870B5C5
S11320E004460D4616461BB140F2FF7102F0E0FEB5
S11320F02046FFF719FFE9896B7B22690B43298A84
S113210022F44C520B4322F0030213432361A268CE
S11321102B7B297E22F0804222F0E2020B43134300
S11321206A691343A360AB681BB9A36843F0004317
S1132130A360EB69002B52D0A268197A42EA81525B
S1132140A260A268997A42EA4142A2609A88A16890
S113215002F4C0420A43A260A268597842EA8102AA
S1132160A260A268597B42EAC102A260A268997B7C
S113217042EA0112A260A268997842EA8122A2602E
S1132180DA799979520242EA8122E2601A7802F0FD
S1132190FD01012908BFE168A2F1020204BF41F078
S11321A00401E160012A4FF0010294BF2049214952
S11321B0C1F8C0205A7A04F580510A621AB1E26863
S11321C042F40062E260DA7A4AB1E26842F4004220
S11321D0E2601B7B184A03F00F03C2F8803036B16B
S11321E096F8203004F58051ABB101238B610521B1
S11321F02046FFF7B3FEAA681AB120466968FFF7C4
S1132200DDFE20462978FFF7A9FE236CDB4313F497
S1132210405FFAD170BD626996F8223096F82100C9
S113222022F009020343134343F001034B61DEE749
S113223000D4035000E403500090035038B52A4BF7
S1132240054698420C4640D08A21284802F0B5FD44
S113225034B98C21254802F0B0FD234B9D4236D081
S11322609E21224802F0A9FD637B032B03D9AA21F6
S11322701E4802F0A2FD237B802B03D0AC211B4817
S113228002F09BFD6369B3F1804F03D0AE21174880
S113229002F093FD238A23F400539BB2B3F5805FCD
S11322A003D0B021114802F088FDA368013BB3F5C7
S11322B0165F03D3B2210D4802F07FFD2146284664
S11322C0BDE838400022FFF709BF0029C1D03820FB
S11322D0FFF772FA08380828C2D840F20B1323FA21
S11322E000F0C307BCD5BFE70000035A3C58000008
S11322F038B5114B054698420C4603D070210F485F
S113230002F05BFD1CB972210C4802F056FD237BE0
S1132310802B03D17621094802F04FFD637B032B08
S113232003D97921054802F048FD21462846BDE835
S113233038400022FFF7D2BE0000035A3C58000088
S113234038B50D460446D8B101281CD002281CD04B
S1132350032803D10F23EB40DB0704D440F22D41C3
S11323600B4802F02AFD3020012141F210034443BE
S113237004F1A04401FA05F504F57034E55038BDC4
S113238040F2FF13E7E71F23E5E7FF23E3E700BF7E
S11323903557000038B50D460446D8B101281CD085
S11323A002281CD0032803D10F23EB40DB0704D4FD
S11323B040F2FE310B4802F000FD3020012142F2D0
S11323C01003444304F1A04401FA05F504F5703404
S11323D0E55038BD40F2FF13E7E71F23E5E7FF238D
S11323E0E3E700BF35570000F8B50D4616461F4613
S11323F0044660B301282DD002282DD0032803D130
S11324000F22EA40D30704D44FF4B0711B4802F002
S1132410D4FC26B12946204607B3FFF791FF04EB0D
S11324204403072D4FF00F014FEA031319D8A800F6
S113243006FA00F281401248184402F05FFDE6B942
S113244029462046AFB1BDE8F840FFF779BF40F216
S1132450FF12D6E71F22D4E7FF22D2E7FFF79AFF45
S1132460DDE7A5F10800800006FA00F28140054886
S1132470E2E7BDE8F840FFF78DBFF8BD8D580000D6
S113248004C003500CC003504FF400120B4B10B5A2
S1132490C3F88020BFF34F8FBFF36F8F0024FF2258
S11324A0074B21465C6520209A625C60FFF780F848
S11324B02146BDE810402120FFF77AB800E100E092
S11324C000000450072838B504460D4603DD772183
S11324D0094802F072FC1F2C03D99121074802F02D
S11324E06CFC074B074A0120002D18BF134600FA65
S11324F004F41C6038BD00BFDC5800002B590000F8
S1132500401004504020045010B5044618B99121DD
S11325101F4802F052FC23781B0613F0604F03D0CF
S113252092211B4802F049FCE3780F2B03D9A32125
S1132530174802F042FC01212020FFF739F801215D
S11325402120FFF735F80122124B5A602278120637
S11325509A606178A27842EA01429A61FF229A6203
S113256000229A631A644FF000425A654FF0FF321A
S11325704FF4001103F500531A65074AC2F880119D
S1132580E3781B01DBB282F81533116010BD00BF84
S1132590DC5800000000045000E100E02DE9F041A7
S11325A00126C3B2072805460C46904606FA03F6F0
S11325B003DDEC21354802F000FC1CB9ED21334861
S11325C002F0FBFB236823F47C1323F00F031BB1FD
S11325D0F0212E4802F0F1FBA37A1B0413F47C0FC4
S11325E004D040F20911294802F0E7FBE37A1B0505
S11325F013F07E6F04D040F20B11244802F0DDFB8F
S1132600237B5B0513F0FE5F04D040F20D111F48DD
S113261002F0D3FB30201E4A637B166521681D4FF0
S113262002F5005242F8251000FB05752B66E37A8B
S1132630A27A1B0543EA0243227B43EA425328F071
S11326400302EB652A6702F028FC7B6D33437B654C
S1132650237A13B13B6C33433B64637A13B1BB6B92
S11326603343BB632279A37943EA0243084A936163
S11326706179E37943EA014307498B61054B56636A
S11326809E64BDE8F04102F00EBC00BFDC580000BF
S113269000200450000004500010045010B5012420
S11326A0C3B2072804FA03F404DD40F29711074883
S11326B002F083FB02F0F1FB054B5A6D22EA04029F
S11326C05A659C62BDE8104002F0EDBBDC58000086
S11326D00000045010B50124C3B2072804FA03F41F
S11326E004DD40F2B5110A4802F067FB02F0D5FBA5
S11326F0084BDA6A224209D15B6B34EA03030CBF4C
S11327000124002402F0CFFB204610BD0024F9E789
S1132710DC58000000000450F8B50125C3B20728B6
S1132720044605FA03F504DD4FF4EE710C4802F09B
S113273044FB02F0B2FB30220A4B1E6D5F6B02FBBE
S113274004335C6E02F0AFFB3D4206D1C4F30A10C1
S113275008B9354200D10130F8BD0020FCE700BFC4
S1132760DC58000000000450022838B505460C4629
S113277003D94C210C4802F020FBE37862782178DD
S11327805B0143EA820322790B4343EA02130C22DE
S11327906A4302F1B0421363012902BFA278034BDA
S11327A043F8252038BD00BF79590000E880035064
S11327B008B54FF0B0435A6802B960B15B680BB119
S11327C002F0AEFB4FF0B04130B10120074B58602E
S11327D002F0A6FBC86008BD02F0A2FB0223CB6096
S11327E002F09EFB0122024B5A60F4E700100058ED
S11327F0002000584FF0B0435B6870B50BB102F095
S11328008FFB0121104B4578596083780679002BA2
S1132810C37814BF02240024002B14BF0422002216
S11328204379DB0043EA06132B43234313434FF05E
S1132830B0429360054B59600378002B14BF0B46DC
S11328400223D36070BD00BF002000580010005860
S113285070B506460C46154622B940F28E210C4846
S113286002F0ABFA24B94FF42070FEF7CBFE044615
S11328706D00013CB4FBF5F4064B250213EA042376
S113288004D040F2B321024802F097FAF56170BD1A
S1132890C8590000070080FF194B10B59842044640
S11328A008D003F58043984204D040F242411548D1
S11328B002F083FA012204F580535A6040F6AA63B9
S11328C041F20502636100230F49A360E365E260FE
S11328D004F500522361E361E36491640849A3654C
S11328E08C4202D00948844207D18C42236502D02D
S11328F0064B9C4201D1002363650123536010BD44
S113290000C00550C8590000FFFF01000000065038
S113291038B5334B044698420D4608D003F580433E
S1132920984204D040F269312E4802F046FA20461B
S1132930FFF7B2FF0122A97B04F580535A602A8A6B
S1132940A368002914BF4FF48061002142F0010202
S113295013432A7D0B43002A14BF4FF00052002278
S1132960A360A3681343A360AB7C5BB11C4AEB7CFC
S113297094422DD1A2F51032C2F88C31E36D43F0AC
S11329808003E3652B7B2046D5E9011243F4805391
S1132990E360FFF75DFF6B7B0BB1102363616B7D1D
S11329A01BB1A36843F48033A360AB7D1BB1A36860
S11329B043F40043A360EB7D2A7E1B07120503F05A
S11329C0E04302F4E0021343A3652B78636138BD4E
S11329D0054A944204BFA2F52032C2F89C31CDE7E7
S11329E000C00550C85900000000065007B56B46EA
S11329F0054A1068516803C36846FFF757FA002078
S1132A0003B05DF804FB00BF185A000013B500249E
S1132A10064A6846536F43F00103536700948DF8E8
S1132A200440FFF78DF9204602B010BD004000506D
S1132A3030B58BB06C46154D0FCD0FC40FCD0FC400
S1132A4095E8030084E80300114BD3F84C211203EA
S1132A5014D4D3F85041E4B28DF81940FFF75EF86E
S1132A60204480F308008DF818000A48FDF72EFE74
S1132A706846FEF761FF00200BB030BD064B1C8892
S1132A804FF6FF739C4208BF7824E5E7205A000004
S1132A900080E00F00F049020001E00F30B5094D5D
S1132AA087B001AC0FCD0FC42B6801A82360252388
S1132AB08DF80530FFF738F86420FFF797F8002009
S1132AC007B030BD485A00006FF00402502110B521
S1132AD00A480B4C12F0800FD3B21BBF03F00F0354
S1132AE0043BA3181B1802F101020CBF83F8001366
S1132AF01976402AEED1002010BD00BF00ED00E0A1
S1132B0000E100E010B5044602F0C0F9024B1C607D
S1132B1002F0C0F9002010BD4813002010B502F0E7
S1132B20B5F9034B1C6802F0B5F9204610BD00BF8F
S1132B30481300202DE9F0438BB01C4606AB064633
S1132B4089461846904600211022129D02F03EFB51
S1132B50227903460AB18DF818200127C8F81C30E1
S1132B6063793046002B14BF3B460223CDE903337F
S1132B70644B4A460293644B294601930023009315
S1132B80624B8DF81E7000F0DFFA0646002840F014
S1132B909280A3683946EB63A3693A20EB64237DF2
S1132BA0DFF8749185F8483023696B64237B85F8DA
S1132BB04030236A6B65237F85F85030A36AEB6548
S1132BC094F8243085F858302368AB63FEF7F0FCA2
S1132BD03B4604222169207BFFF706FC3B46022288
S1132BE0A169207DFFF700FC88F8006085F860602B
S1132BF03946A068FEF7DCFC6379394633BB4FF4F1
S1132C00C060FEF7D5FCD9F82032414623F0030317
S1132C1043F002032068C9F82032FFF70FFB0222B9
S1132C203B4B2169C3F8C020227B42EA0142C3F82E
S1132C30D020A169227D42EA0142C3F8CC20237945
S1132C40032B5DD8DFE803F02E193B544FF480606A
S1132C50FEF7AEFCD9F82032414623F0030343F0DB
S1132C600103C9F820322068FFF742FB95F8603071
S1132C7043F0040385F86030D1E7002795F860300D
S1132C8043F0010385F8603000230222216A207F8B
S1132C90FFF7AAFB226A237F43EA02431D4AC2F8D4
S1132CA0C43097B90422AB6B052103F58053206827
S1132CB09A64FFF753F930460BB0BDE8F08395F8FA
S1132CC0603043F0020385F8603000230422A16AD7
S1132CD094F82400FFF788FB01230E4AA16AC2F886
S1132CE0C03094F8243043EA0143C2F8C830D9E72D
S1132CF095F86030012743F0030385F86030C3E79B
S1132D002326D8E79F4F00000F5000003F500000DB
S1132D1000C4035000D403500080005010B50020BC
S1132D20144602F00FF918B1BF21024802F045F829
S1132D30204610BD5C5A0000034B02221868002391
S1132D408068194600F0B6BF38100020302238B52C
S1132D50037A0446534303F1A04303F58023DD6E55
S1132D60D0E9032313449D4201D8AA4204D94FF465
S1132D703E71054802F021F8D4E9030303449D425F
S1132D8018BF284638BD00BFC95A000030B51446E4
S1132D90054687B01046FFF7D9FF636902468342B0
S1132DA03CBFD4E903315B181B1AABB11249284666
S1132DB003910021CDE90131012304940093D4E966
S1132DC0001302F021F820B14FF434710B4801F0E4
S1132DD0F4FF002007B030BD0122627694F82D2064
S1132DE0002AF6D084F835301321E3692046984749
S1132DF02046636A9847ECE78D2D0000C95A00000D
S1132E002DE9F04788B0044688461746994602F0F3
S1132E1044F88246002F00F0AB80237E03F0FF02CB
S1132E20002B00F0DE802046FFF790FF6369054623
S1132E30984206D1637E23B940F27F316A4801F09B
S1132E40BCFF6669B5429CBFD4E90352AD18AD1B03
S1132E50BD4228BF3D4602F020F894F82D300646C6
S1132E60002B40F096802A464046616902F0A1F9A1
S1132E7063692F462B4463612CE06069037803F097
S1132E80FD01112940F08280216B884205D1A3F114
S1132E9011014B424B4184F83430013F6369216B8B
S1132EA001328B4203F1010308BF2363636195423E
S1132EB0E3D1D4E90323216B1344994208BF22636D
S1132EC0216B8A4201D88B4204D84FF46D71464875
S1132ED001F073FFD4E9032361691344994208BFE5
S1132EE0626161698A4201D88B4204D84FF47171DE
S1132EF03D4801F062FF0023207A6376FDF7DAFD96
S1132F0020B140F21131384801F057FF2046FFF755
S1132F101DFF636983423FD10023E568237694F85B
S1132F202D30656103B125632046636A98472F4BB2
S1132F302A46039300230293236921680193012302
S1132F40207A00930494636801F05EFF20B140F29C
S1132F502D31254801F031FF207AFDF7CBFD20B15A
S1132F6040F25131204801F028FF304601F09BFF28
S1132F705046C9F8007001F096FFD9F80030002BD4
S1132F800CBF1B20002008B0BDE8F08708F8013B07
S1132F9084E72F4600228AE70123207A23760DF165
S1132FA01E01FDF737FE20B14FF450710E4801F0B9
S1132FB004FF9DF81E30002BCED0207A0DF11F01A6
S1132FC0FDF700FE20B140F24631074801F0F5FE5E
S1132FD09DF81F100029BFD12246207AFFF7D6FEA4
S1132FE0BAE71746C4E700BFC95A00008D2D000098
S1132FF070B504460568FFF791FD844202D10020B4
S1133000FFF780FD95F93630002B11DB012203F028
S11330101F015B099B0003F160438A4003F5614390
S1133020C3F88021C3F88020BFF34F8FBFF36F8FA5
S1133030287AFDF77FFD20B14FF4ED71104801F0BF
S1133040BCFE287AFDF7DCFC20B14FF4EF710C488C
S113305001F0B3FEFDF7B2FC38B10A4B984204D03C
S11330604FF4F171064801F0A8FE00232846C4E994
S11330700033C4E90433A360AB6ABDE87040184769
S1133080C95A0000058000F02DE9F84304460D46B6
S113309090F82C80DFF8AC908E18B54228D094F8C4
S11330A02D3083B101F0F9FE237E07461BBB226B52
S11330B063699A4204D040F2F911484601F07DFE5A
S11330C0384601F0F0FE94F83430002BE5D0B8F126
S11330D0000F06D02B780A2B03D10D212046E3697B
S11330E098472046E36915F8011B98470028D4D077
S11330F00020BDE8F8832046FFF728FEE168013888
S1133100884238BF2069D4F830C03CBF00F1FF309A
S1133110401803469C450BD013F80129112A01D00D
S1133120132A07D1A2F111035A425A4184F83420D8
S11331302063C5E7994282BF236903F1FF335B181B
S1133140E8E700BFC95A0000F0B50C46064615462C
S113315087B03822002120461F4602F037F895E850
S1133160030000232A692376EB6884E80300C4E99A
S113317004232A7DE36084F82C20AA7D23630123A1
S113318084F8343084F835300C9B84F82D20236285
S11331900D9BE76163620E9BA3622B7A84F8363041
S11331A0204B34607360204BB360204B3361204B61
S11331B07361204BF360FDF749FC30B11E4B98421C
S11331C003D01024204607B0F0BD002104F108000C
S11331D0FDF7C4FB0028F4D10127184B0494CDE972
S11331E002032369009701936368E2682168207AE7
S11331F001F00AFE04460028E3D195F90830002BBB
S11332000BDB03F01F025B099B0003F16043974053
S113321003F56143C3F880711F603046FFF772FC09
S1133220D0E700BF89300000012E0000F1500000FB
S1133230F7500000F12F0000038000F08D2D0000F6
S113324030B50F4C41612368ABB92060836011E055
S1133250891A9A681D4641612AB113465A698A42FD
S1133260F6D955B11A461346A860836013B15A695A
S1133270511A596130BD0025F0E72060F5E700BF21
S11332805813002010B501F05FFF0A4C0A4B19686F
S11332902368C31A01B10BB9206010BD4A699A4270
S11332A03ABF9B1A0022D21A4A6128BF00238968B8
S11332B0F0E700BF4C1300205813002038B5134D1D
S11332C02B685B6993B1124A022014681C4401F014
S11332D042FF204600F000FA00230E492A680B70D2
S11332E0D088800709D501230B7038BD022001F076
S11332F032FF022000F03AFAEEE79268002AF4D096
S113330050690344012BEBD9EFE700BF58130020A9
S11333104C130020B013002070B516469DF81420FD
S1133320C0E903360271049ABDF818300260002225
S113333004460D468260C38006BB01F005FF2844A5
S1133340A0613DB9E368656113B1204621689847DF
S113335096B1354601F09AFD0646FFF793FF2946DC
S11333602046FFF76DFF074B1B68A34201D1FFF70F
S1133370A5FF304601F08EFD002070BD01F0E4FE93
S11333803044DDE75813002000220C490B687BB160
S113339083420AD183687AB1936083681BB15A6906
S11333A041690A445A61002070471A469B68EEE757
S11333B00028EFD0022070470B60EEE7581300207E
S11333C070B501F06AFD144E05463478FCB9134B10
S11333D01C60134B1C60134B1C8000F039F9012056
S11333E001F0B9FE01F0C3FE0F4B0246186020B98C
S11333F0284601F058FD232070BD234640F2E731F2
S11334000A4800F001FA0A4B186001233370284679
S113341001F049FD0020EFE7AF130020581300200E
S11334204C130020681300205413002018FCFFFFE5
S1133430501300202DE9F0410546F8B101F026FDB6
S11334400F4F0646FFF71EFF2846D7F80080FFF708
S11334509BFF044628B1304601F01CFD2046BDE820
S1133460F081A8453B6803D123B1FFF727FFF2E7BA
S1133470002BF0D1022000F061F9ECE72224EDE703
S11334805813002038B50C46054698B191B1002375
S11334900B7001F002FD0121074B1B680BB1227870
S11334A01AB101F000FD002038BDAB4214BF9B6887
S11334B02170F3E72220F7E7581300200C4B70B576
S11334C01B680D46834211D340F2E73100248C4639
S11334D02146084B4FF47A721E680023E0FB06C1B4
S11334E0604600F091F92860204670BD2120FCE779
S11334F05013002054130020C2072DE9F84F04464E
S11335000BD54F4A138801339BB21380FFF7BAFEE1
S11335104C4B1B680BB1FFF7D1FEA30740F18E8023
S113352001F0BBFC4FF0000A05465646FFF7AAFE21
S1133530D046444FDFF814913C680CB163698BB1F9
S11335400022414B012E1A7003D1BAF1020F08BFB9
S11335501E70002C62D0FFF7B1FE2846BDE8F84F7C
S113356001F0A1BC23461A792179914288BF1C46F7
S11335709B6813B15A69002AF5D0284601F093FCE0
S1133580D4F810A0BAF1000F4CD001F0DDFDA2690F
S1133590851AEB17AA4578EB030344DA236913442D
S11335A00122A36123691BB312BBEB17BAEB050518
S11335B063EB4303002B04DA4FF4A461484601F0A3
S11335C0FCFBA38B33B1E28B13449BB2B3F57A7F3C
S11335D01CD2E38301F061FC824629462046FFF7B2
S11335E02FFEA369226950461344A36101F05BFCDA
S11335F0E368B4F806A0013613B120462168984761
S113360001F04BFC0546FFF73DFE95E7A3F57A7301
S1133610E383A369013D013BA361DBE7022000F0E2
S11336208DF89AE7554601F038FC83462046FFF7AB
S1133630ABFE584601F037FC0022B3E7BDE8F88F33
S11336406813002058130020B11300202C5B0000E5
S11336501FB500241D4B012118689A880290D3F8E5
S113366006009B7A00903E20ADF80C208DF80430C3
S1133670FDF79EFF8DF8084001F064FD8DF80C0005
S113368002A8FFF7B7F8694601208DF80040FFF75C
S11336906BF84FF0B04240F2FF31936923F47F732B
S11336A023F0030393610A4B5961936A13F00803EF
S11336B0FBD113620120FFF77BF84FF48052054BD6
S11336C0C3F880211A6004B010BD00BF8E5B0000F7
S11336D00020005800E100E010B5044601F0D6FBDC
S11336E04FF0B042936A1907FCD4136A116C526903
S11336F0520604D4CA1A032A01D88B420ED1E21A04
S1133700022A98BFDC1CB4F1FF3F38BF013C4FF0E4
S1133710B0431C649A6942F040029A6101F0BAFB1A
S1133720054A13783BB14FF0B041CB6B43F0020331
S1133730CB630023137010BD9E100020820700F09D
S113374001030AD50121084A43F0400311704FF0E8
S1133750B041CA6B22F00302CA634FF0B0418A69D8
S113376022EA03038B6170479E100020830742BF47
S11337704022014B5A6170470010005810B501F007
S11337808CFB4FF0B04304465B695A06074A03F0CA
S1133790010003F0510348BF40F002005361FFF7FA
S11337A0ABFE2046BDE8104001F07DBB0020005870
S11337B010B50446FCF76EFF4FF47A729042B0FBEA
S11337C0F2F105D23621BDE810400C4801F0F5BAFB
S11337D00B4BB3FBF1F30B49884201D93C21F2E7CF
S11337E002FB04F0B0FBF3F0022806D9BDE8104058
S11337F00323B0FBF3F0FCF7A3BC10BD995B0000FE
S113380040420F00E7CD9A3B53B94AB9002908BF9B
S113381000281CBF4FF0FF314FF0FF3000F082B999
S1133820ADF1080C6DE904CE00F006F8DDF804E013
S1133830DDE9022304B070472DE9F04F099D0446E9
S11338400F46002B48D18A42944661D9B2FA82F3DA
S113385043B1C3F120019F4002FA03FC9C4020FACB
S113386001F10F434FEA1C411FFA8CFE220CB7FBF7
S1133870F1F601FB167706FB0EF042EA074290428E
S113388008D91CEB020206F1FF3702D2904200F283
S113389037813E46121AA4B2B2FBF1F001FB1022AA
S11338A000FB0EFE44EA0244A64508D91CEB0404BE
S11338B000F1FF3202D2A64500F21C81104640EA14
S11338C00640A4EB0E0400261DB1DC400023C5E92C
S11338D000433146BDE8F08F8B4209D9002D00F03A
S11338E0FD800026C5E9000130463146BDE8F08F71
S11338F0B3FA83F6002E4BD18B42C0F0F2808242A1
S113390040F2EF803046002DE3D0C5E90047E0E700
S113391002B9FFDEB2FA82F3002B40F09D80891ACF
S11339204FEA124E97B20126200CB1FBFEF20EFBB9
S1133930121140EA014107FB02F088420FD91CEB47
S1133940010102F1FF382CBF4FF001094FF00009CB
S1133950884203D9B9F1000F00F0CF804246091A1A
S1133960A4B2B1FBFEF00EFB101100FB07F744EA12
S11339700144A74208D91CEB040400F1FF3102D230
S1133980A74200F2B4800846E41B40EA02409BE7E9
S1133990C6F12007B34001FA06F422FA07FCF94005
S11339A0B2404CEA030C20FA07F34FEA1C491C43CB
S11339B01FFA8CFE00FA06F3200CB1FBF9F809FBA0
S11339C0181140EA014108FB0EF088420FD91CEBA4
S11339D0010108F1FF3A2CBF4FF0010B4FF0000B2F
S11339E0884203D9BBF1000F00F08D80D046091A3C
S11339F0A4B2B1FBF9F009FB101100FB0EFE44EA7E
S1133A0001418E4507D91CEB010100F1FF3401D2BD
S1133A108E457FD8204640EA0840A1EB0E01A0FB6A
S1133A20029841454C46C64602D306D14B4504D2C2
S1133A300138B9EB020468EB0C0E002D70D01A1B90
S1133A4061EB0E0122FA06F301FA07F7F1400026B2
S1133A501F43C5E900713CE702FA03FCC3F12000EF
S1133A6001FA03F221FA00F64FEA1C4E24FA00F19F
S1133A701FFA8CF79C401143B6FBFEF00A0C0EFBB8
S1133A80106642EA064200FB07F696420ED91CEB8A
S1133A90020200F1FF382CBF4FF001094FF000097A
S1133AA0964202D9B9F1000F31D04046921B89B237
S1133AB0B2FBFEF60EFB162241EA024106FB07F2B8
S1133AC08A4207D91CEB010106F1FF3801D28A4270
S1133AD023D84646891A46EA004625E72E46284654
S1133AE0F7E6841A61EB030301201F460BE76444E5
S1133AF0023849E764440238E1E6023A61442EE7B9
S1133B00023E6244C6E6A8F1020861446FE7023847
S1133B106244CBE7023861447DE7023E6144D9E761
S1133B202E46D6E6704700BF08B5074B044613B1CE
S1133B30002100E000BF054B1868836A03B1984771
S1133B40204601F0BDFA00BF00000000F45B000055
S1133B5070B50D4D00260D4C641BA410A64209D16E
S1133B600B4D00260B4C01F02DFD641BA410A64246
S1133B7005D170BD55F8043B01369847EEE755F87A
S1133B80043B01369847F2E7A0100020A010002063
S1133B90A0100020A41000200FB40A4B13B51C6819
S1133BA024B1A36913B9204600F02AFB05AB049A9B
S1133BB0A1682046019300F0C9FD02B0BDE81040A1
S1133BC004B070473810002070B50E46054618B191
S1133BD083690BB900F014FBAB69AC6813B92846D0
S1133BE000F00EFB2C4B9C4220D16C68636EDB070B
S1133BF005D4A389980502D4A06D01F025FBA389FF
S1133C0019071DD52369DBB1013EA36816F8011F0E
S1133C10013BA36039BB002B38DA22460A2128462F
S1133C2000F02CF9013011D00A2511E01B4B9C4205
S1133C3001D1AC68DAE71A4B9C4208BFEC68D5E7BF
S1133C402146284600F06CF90028DDD04FF0FF35FE
S1133C50636EDA0705D4A3899B0502D4A06D01F035
S1133C60F4FA284670BD002B04DAA2699A4206DCF5
S1133C700A2904D023685A1C22601970C5E7224619
S1133C80284600F0FBF80130BFD1DFE723680A259E
S1133C905A1C22601D70DBE7185C0000385C0000D1
S1133CA0F85B0000024B01461868FFF78DBF00BFA8
S1133CB0381000202DE9F7431D465C4B04460E46A0
S1133CC01F68904627B1BB6913B9384600F098FACB
S1133CD0574B9C4267D17C68B8F1020F06D0B8F10B
S1133CE0010F00F29E80002DC0F29B80636EDB0703
S1133CF005D4A389980502D4A06D01F0A5FA214644
S1133D00384600F0FFF9616B41B104F14403994274
S1133D1002D0384600F03AFB002363630023A3611A
S1133D206360A389190603D52169384600F02EFB88
S1133D30A389B8F1020F23F44A6323F00303A38198
S1133D406BD001AB6A462146384601F07FFAA3895D
S1133D501843A081002D30D1009D284600F00EFBB1
S1133D600646002854D1DDF80090A94549D14FF00A
S1133D70FF350022B4F90C30A26004F1470243F08D
S1133D800203226022610122A3816261626ED20772
S1133D9005D413F4007F02D1A06D01F056FA284631
S1133DA003B0BDE8F083234B9C4201D1BC6893E788
S1133DB0214B9C4208BFFC688EE7002ECDD0BB6926
S1133DC013B9384600F01CFAB8F1010F266002BF9F
S1133DD0A38943F00103A381A28912F00803C4E973
S1133DE004651CD0D30745BF00236D42A560A360C2
S1133DF048BFA561656E15F0010515D112F4007F69
S1133E00C9E7484600F0BAFA06460028AFD04D4646
S1133E10A38943F08003A381D1E70025A9E7A36028
S1133E20E8E74FF0FF35BAE70025B8E7381000207F
S1133E30185C0000385C0000F85B00000EB400B5AC
S1133E409CB06FF000411DAB029006900791049165
S1133E500848094953F8042B059102A90068019305
S1133E6000F074FB029B00221A701CB05DF804EB96
S1133E7003B07047381000200802FFFFF8B50E4663
S1133E801446054618B183690BB900F0B9F9214B02
S1133E909C422BD16C68A369A360A3891A072FD510
S1133EA023696BB32369F6B220683746C01A636985
S1133EB0834204DC2146284600F024F930BBA36881
S1133EC00130013BA36023685A1C22601E706369A1
S1133ED0834204D0A389DB0706D50A2E04D12146E8
S1133EE0284600F00FF988B93846F8BD0A4B9C42C1
S1133EF001D1AC68CFE7094B9C4208BFEC68CAE724
S1133F002146284600F00CF80028CBD04FF0FF37AC
S1133F10EAE700BF185C0000385C0000F85B0000B2
S1133F20324B70B51D6806460C4625B1AB6913B912
S1133F30284600F065F92E4B9C420FD16C68A3898A
S1133F40B4F90C2019072CD4DD0611D409233360ED
S1133F5042F040034FF0FF30A3813EE0254B9C42EA
S1133F6001D1AC68EBE7244B9C4208BFEC68E6E760
S1133F70580712D5616B41B104F14403994202D050
S1133F80304600F003FA00236363A38923F024037B
S1133F90A3810023636023692360A38943F008039A
S1133FA0A38123694BB9A38903F42073B3F5007F7C
S1133FB003D02146304600F0A1F9A089B4F90C20C1
S1133FC010F001030AD00023A36063695B42A3617C
S1133FD0236943B910F08000BAD170BD810758BF7E
S1133FE06369A360F4E70020F7E700BF38100020FE
S1133FF0185C0000385C0000F85B00008A892DE939
S1134000F041054610070C4658D44B68002B05DCDC
S11340100B6C002B02DC0020BDE8F081E66A002E68
S1134020F9D0002312F480522F682B6032D0606DD7
S1134030A3895A0705D56368C01A636B0BB1236C57
S1134040C01A00230246E66A2846216AB047431C88
S1134050A38906D129681D292CD8294ACA40D60724
S113406028D50022D90462602269226004D5421C4A
S113407001D12B6803B96065616B2F600029CAD038
S113408004F14403994202D0284600F07FF900204D
S11340906063C1E7216A01232846B047411CC7D1A8
S11340A02B68002BC4D01D2B01D0162B01D12F60FF
S11340B0B1E7A38943F04003A381ADE70F69002F63
S11340C0A9D093070E680F600CBF4B690023A6EBC1
S11340D007088B60B8F1000F9DDD43463A46216A1C
S11340E02846A66AB047002806DCA3894FF0FF30B3
S11340F043F04003A3818FE70744A8EB0008E9E7F6
S11341000100402038B50B6905460C4613B900255B
S1134110284638BD18B183690BB900F071F8144B07
S11341209C421BD16C68B4F90C30002BEFD0626E4A
S1134130D00704D4990502D4A06D01F085F828466F
S11341402146FFF75BFF636E0546DA07E0D4A389D7
S11341509B05DDD4A06D01F078F8D9E7054B9C42AE
S113416001D1AC68DFE7044B9C4208BFEC68DAE796
S1134170185C0000385C0000F85B0000002310B5F8
S113418004468360818119464366C28108228361A3
S1134190C0E90033C0E904335C3001F017F8054B83
S11341A024626362044BA362044BE362044B236303
S11341B010BD00BF7F540000A1540000D95400007A
S11341C0FD540000014901F01FB800BF0541000083
S11341D0014801F039B800BFB3130020014801F0D1
S11341E034B800BFB3130020014801F02DB800BF5C
S11341F0B4130020014801F028B800BFB413002014
S113420010B50446FFF7F0FFA3691BB1BDE81040E9
S1134210FFF7F0BFC4E9123323652046124B134A5B
S11342201B68A262A34204BF0123A36100F020F82B
S11342306060204600F01CF8A060204600F018F8EA
S113424000220421E0606068FFF798FF0122092141
S1134250A068FFF793FF02221221E068FFF78EFFA8
S11342600123A361D2E700BFF45B0000C541000055
S1134270F8B50746FFF7ACFF1E4B1E68B36913B9C8
S11342803046FFF7BDFF4836D6E90134013B03D57C
S113429033680BB33668F7E7B4F90C50D5B9164B4D
S11342A004F158006566E36000F0CDFFFFF796FF68
S11342B00822294604F15C002560A561C4E9015582
S11342C0C4E9045500F082FFC4E90D55C4E9125550
S11342D02046F8BD6834D9E70421384600F07EFF53
S11342E0044630600028D5D1FFF778FF0C233B60EB
S11342F0EEE700BFF45B00000100FFFF8B8973B59C
S11343009D0706460C4607D504F147032360236145
S11343100123636102B070BD01AB6A4600F096FFF1
S113432000990546304600F09DF848B9B4F90C30C0
S11343309A05EFD423F0030343F00203A381E3E7D8
S11343400D4BB362A389206043F080032061A381F5
S1134350009B6361019B5BB1B4F90E10304600F021
S11343608FFC28B1A38923F0030343F00103A38145
S1134370A0890543A581CDE7C5410000024B014654
S1134380186800F06FB800BF3810002037B5002956
S113439043D051F8043C0C1F0190002BB8BFE41823
S11343A000F090FC1E4A0198136833B963601460EE
S11343B003B0BDE8304000F08BBCA34208D92568A7
S11343C061198B4201BF19685B6849192160EDE7E7
S11343D01A465B680BB1A342FAD911685518A54275
S11343E00BD12468214454181160A342E0D11C6805
S11343F05B68214453601160DAE702D90C2303603F
S1134400D6E7256861198B4202BF19685B684919B0
S1134410636008BF21605460CAE703B030BD00BFC9
S11344205C13002070B50E4E0C460546316811B978
S113443000F0E2FB30602146284600F0DDFB431C1F
S11344400AD0C41C24F00304A04207D0211A284631
S113445000F0D2FB013001D14FF0FF34204670BD93
S1134460601300202DE9F041CD1C074625F003051B
S113447008350C2D38BF0C25002D01DBA94205D9C8
S11344800C2300263B603046BDE8F0812E4E00F040
S113449019FC33681C4634BB29463846FFF7C2FF73
S11344A0431C04464DD134682646002E40D123686F
S11344B03146384604EB030800F09EFB80453AD1B0
S11344C02168033538466D1A25F0030508350C2D8F
S11344D038BF0C252946FFF7A5FF01302BD02368F0
S11344E02B4423600EE02268521B1ED40B2A16D9DB
S11344F06119A342256018BF5960636808BF316021
S113450062514B6004F10B06384600F0E1FB231DB9
S113451026F00706F21AB6D09B1BA350B3E76268D5
S1134520A3420CBF32605A60ECE723466468B2E7EA
S113453034467668B9E70C2338463B6000F0C8FB84
S1134540A1E72560DEE700BF5C1300202DE9F04FF2
S113455098468B899DB007461B060D4614460ED51A
S11345600B6963B94021FFF77DFF2860286120B9FA
S11345700C233B604FF0FF30D1E040236B610023FC
S1134580CDF80C804FF00109DFF8AC8109932023AA
S11345908DF8293030238DF82A3023469A4613F8B3
S11345A0012B0AB1252AF9D1BAEB040B0BD05B46D7
S11345B022462946384600F06EFE013000F0AA80FB
S11345C0099A5A4409929AF80030002B00F0A2800C
S11345D000234FF0FF320AF1010A049307938DF888
S11345E053301A93CDE9052354460522524814F852
S11345F0011B00F087FF049AD8B9D00644BF2023DA
S11346008DF85330110744BF2B238DF853309AF89B
S113461000302A2B15D0079A544600204FF00A0C7C
S1134620214611F8013B303B092B4ED9B0B107921A
S113463014E0A0EB0803A24609FA03F3134304931E
S1134640D2E7039B191D1B68002B0391BBBF5B4280
S113465042F0020207930793B8BF049223782E2BEB
S11346600CD163782A2B35D1039B02341A1D1B68A5
S1134670002B0392B8BF4FF0FF330593DFF8C8A0B7
S113468003222178504600F03DFF40B14023A0EBC7
S11346900A00013403FA00F0049B0343049314F862
S11346A0011B062225488DF8281000F02BFF002856
S11346B038D0234B1BBB039B073323F0070308337A
S11346C00393099B3344099367E70CFB02320C46BE
S11346D00120A5E7002301344FF00A0C1946059385
S11346E0204610F8012B303A092A03D9002BC5D0F3
S11346F00591C3E70CFB012104460123F0E703AB5A
S11347002A4604A9384600930E4B00E000BF421C21
S11347100646D6D1AB895B063FF52CAF09981DB090
S1134720BDE8F08F03AB2A4604A938460093054B35
S113473000F03CF9EBE700BF585C0000625C00004D
S113474000000000975200005E5C00002DE9F04F6D
S11347500D469DB014469846064618B183690BB9B8
S1134760FFF74EFD894B9D421BD175686B6ED907CF
S113477005D4AB899A0502D4A86D00F065FDAB8918
S11347801B0701D52B69EBB929463046FFF7C8FB57
S1134790C0B16B6EDC070ED54FF0FF301DB0BDE825
S11347A0F08F7B4B9D4201D1B568DFE7794B9D4289
S11347B008BFF568DAE7AB899805EDD4A86D00F079
S11347C044FDE9E70023CDF80C804FF00109DFF840
S11347D0C881099320238DF8293030238DF82A309D
S11347E023469A4613F8012B0AB1252AF9D1BAEBCC
S11347F0040B0BD05B4622462946304600F0BDFD33
S1134800013000F0AA80099A5A4409929AF80030BB
S1134810002B00F0A28000234FF0FF320AF1010ABE
S1134820049307938DF853301A93CDE90523544626
S11348300522594814F8011B00F064FE049AD8B903
S1134840D10644BF20238DF85330130744BF2B23D4
S11348508DF853309AF800302A2B15D0079A544615
S113486000204FF00A0C214611F8013B303B092B84
S11348704ED9B0B1079214E0A0EB0803A24609FA9E
S113488003F313430493D2E7039B191D1B68002B06
S11348900391BBBF5B4242F0020207930793B8BF88
S11348A0049223782E2B0CD163782A2B35D1039BC9
S11348B002341A1D1B68002B0392B8BF4FF0FF335C
S11348C00593DFF8E4A003222178504600F01AFE95
S11348D040B14023A0EB0A00013403FA00F0049B2A
S11348E00343049314F8011B06222C488DF8281066
S11348F000F008FE00283FD0294B1BBB039B073365
S113490023F0070308330393099B3B44099367E7A8
S11349100CFB02320C460120A5E7002301344FF0C2
S11349200A0C19460593204610F8012B303A092A3F
S113493003D9002BC5D00591C3E70CFB0121044624
S11349400123F0E703AB2A4604A930460093154B34
S113495000E000BF0746781CD6D16B6ED90705D49A
S1134960AB899A0502D4A86D00F06FFCAB895B0695
S11349703FF512AF099811E703AB2A4604A9304664
S11349800093084B00F012F8E4E700BF185C000045
S1134990385C0000F85B0000585C0000625C0000BA
S11349A0000000007B5300005E5C00002DE9FF471F
S11349B00F7E914680460C46782F9A460C9D01F155
S11349C0430207D8622F0AD8002F00F0D880582F4E
S11349D000F0A38004F1420584F842703AE0A7F1A4
S11349E06303152BF6D801A151F823F0454A0000C2
S11349F0594A0000D5490000D5490000D5490000B6
S1134A00D5490000594A0000D5490000D5490000A5
S1134A10D5490000D5490000654B0000894A0000D3
S1134A20474B0000D5490000D5490000874B0000E2
S1134A30D5490000894A0000D5490000D549000045
S1134A404F4B00002B681A1D1B682A6004F14205B5
S1134A5084F842300123A3E020682968060601F1A6
S1134A6004030AD50E682B60002E03DA2D23764248
S1134A7084F843305E480A2319E00E6810F0400FB2
S1134A802B6018BF36B2EFE72B682068191D296028
S1134A90010601D51E6802E04606FBD51E886F2F6D
S1134AA053480CBF08230A23002184F84310656887
S1134AB0002DA560A2BF216821F0040121600EB978
S1134AC0002D4DD01546B6FBF3F103FB1167C75D0E
S1134AD005F8017D37460E46BB42F4D9082B0BD1AD
S1134AE02368DE0708D5236961689942DEBF302355
S1134AF005F8013C05F1FF35521B22614B4603AA20
S1134B0021464046CDF800A000F049FC01304CD1CC
S1134B104FF0FF3004B0BDE8F087354881F84570A8
S1134B202968236851F8046B29601D0614D5DF0732
S1134B3044BF43F0200323601EB9236823F02003FD
S1134B4023601023B0E7236843F020032360782315
S1134B50284884F84530E3E7590648BFB6B2E6E78B
S1134B601546BBE72B682668181D61692860350661
S1134B701B6801D5196002E07006FBD5198000237B
S1134B8015462361BAE72B6800211A1D2A601D68A7
S1134B906268284600F0B6FC08B1401B6060636898
S1134BA02361002384F84330A8E723692A46494651
S1134BB04046D0470130ABD023689B0713D4E0684C
S1134BC0039B9842B8BF1846A4E7012332464946DE
S1134BD04046D04701309BD00135E36803995B1A06
S1134BE0AB42F2DCEBE7002504F11906F5E700BF60
S1134BF0695C00007A5C000038B50023054D04466A
S1134C0008462B60FBF77CFD431C02D12B6803B1E3
S1134C10236038BD6413002038B50446064D0846A9
S1134C20114600222A601A46FEF778F8431C02D186
S1134C302B6803B1236038BD6413002038B500230A
S1134C40054D044608462B6000F038FA431C02D197
S1134C502B6803B1236038BD6413002038B50023EA
S1134C60064D0446084611462B6000F02AFA431C00
S1134C7002D12B6803B1236038BD00BF6413002048
S1134C8038B50023054D044608462B6000F01EFA93
S1134C90431C02D12B6803B1236038BD6413002088
S1134CA038B50446064D0846114600222A601A46C5
S1134CB000F00EFA431C02D12B6803B1236038BD07
S1134CC064130020014800F0BFBA00BFB2130020F3
S1134CD0014800F0BABA00BFB213002038B5044648
S1134CE0064D0846114600222A601A4600F0F2F9E1
S1134CF0431C02D12B6803B1236038BD6413002028
S1134D00FBF788BAFBF78CBA08B500F03AFAFFF75C
S1134D10F7FF00F043FAFFF7F5FFFAE700F029B8D0
S1134D2008B5FBF7FDFCFBF793FBBDE8084000F07A
S1134D3038B808B500F01BF8FEF742FBFDF7FCFF9E
S1134D40BDE8084000F006B87047704770477047E8
S1134D5070477047FBF720BBFBF774BB042208B510
S1134D60012311461846FDF73FFB002008BDFFF75D
S1134D70F5BF042208B5114600230120FDF734FBDA
S1134D80002008BD08B501213A20FCF711FCFFF70B
S1134D90C5FFBDE80840FBF771BB01213A20FCF7D1
S1134DA007BC082000F00AB8FEE7002070474FF463
S1134DB0004070474FF47A707047FEE74FF060424E
S1134DC00123D2F8001E03FA00F00843C2F8000ED3
S1134DD00020704710B588B00E9C009207940D9C7B
S1134DE0024606949DF8304005940B9C04949DF86B
S1134DF0284003940024CDE9013420460B46214683
S1134E00FBF7EEFC08B010BD10B588B00E9C009204
S1134E1007940D9C024606949DF8304005940B9C23
S1134E2004949DF8284003940024CDE901342046DD
S1134E300B460121FBF7D4FC08B010BD08B5FBF705
S1134E403BFCBDE808400021FCF78CBB0029CCBF2B
S1134E5001210021FCF786BB02214FF42070FCF7EE
S1134E60CBBE10B5FBF716FC0446FCF7CFF9C0F136
S1134E7002012046FFF7EAFF01210020FCF7C2FFF0
S1134E80FCF74CFFBDE81040FCF786BCEFF3108044
S1134E9072B6704700B962B67047EFF311803023E1
S1134EA083F31188704780F3118870477047704707
S1134EB0C36C0B42FCD1704708B543680246DB075C
S1134EC014D50A2350210363FFF7F2FF136C9907EB
S1134ED0FCD1936A012110469362FFF7E9FF136C3A
S1134EE01B0604D4012302F50052536008BD536B22
S1134EF0F5E7036C5B06FCD5C163704770B50546E6
S1134F0014460E46FFF7C2FF296881EA040202EA4A
S1134F1006044C402C60BDE87040FFF7BBBF7047EF
S1134F204FF0B0435A6812B19A6A002AFAD1704716
S1134F3083695A06FCD5C16383699B06FCD5406A24
S1134F40C0B2704707B530B9CDE90012FDF7E6FDF0
S1134F50DDE9001230B1436823B1006803B05DF8A5
S1134F6004EB1847232003B05DF804FB30B51C465E
S1134F7085B058B9CDE90012FDF7D0FDDDE9001286
S1134F8004B903AC20B9232005B030BD03B903AC88
S1134F908568002DF7D023460068A847F4E710B5CC
S1134FA00446826B136C5906FCD50023616C1A46C7
S1134FB094F84000FDF718FA0023E16C1A4694F8BF
S1134FC04800FDF711FA94F86030DA0706D500239B
S1134FD0616D1A4694F85000FDF706FA94F86030B3
S1134FE09B0706D50023E16D1A4694F85800FDF797
S1134FF0FBF90422A06B002100F500539A64FCF72E
S1135000ADFFE06B0021FCF7D3FA002010BD10B512
S11350100446FFF73BFF0421A36BBDE810401A6C64
S113502012F0800F03F5805204BF03F50053596456
S11350304FF0040318BF51649364FFF72BBF08B506
S1135040806BFFF756FF002008BD70B50468A06BA5
S1135050436C5B0708D5042500F500535D64227E8C
S11350601AB99D640123237670BD627E002AFBD0A9
S113507094F82D2002B30026132184F83560FFF73D
S113508038FFA36B03F5805295645B6BDBB2112B85
S11350900DD1012384F834303022237A534303F1B1
S11350A0A04303F58023DB6E013B2363DCE7132B72
S11350B0DAD184F83460EFE79D64D5E700207047C7
S11350C0FEE74FF4005300204B6070470120704707
S11350D00020704707B5002001AB0190FFF746FFA1
S11350E00198002808BF4FF0FF3003B05DF804FBBF
S11350F080F82C10704790F82C007047F0B51F46CC
S1135100002387B00D46164604468DF81730A8B123
S1135110C3610DF11701FEF7B5F99DF817207AB9AF
S1135120BDF83430294602939DF830302046CDE94D
S113513000733346FEF7F0F807B0F0BD2220FBE71A
S11351400320F9E7002070474FF0B0439A6A120732
S1135150FCD4186A704782074FF0B04200F0010394
S1135160916948BF43F040030B439361704708B50E
S11351703E20FCF747FA0346FFF7E4FF23FA00F06A
S113518008BD08B5FBF7D8F8FFF7CAFDFFF7D1FD56
S1135190FFF7DAFDBDE80840FFF7D7BD08B5FFF714
S11351A0D5FDFFF7D4FDFFF7D3FDBDE80840FFF7B9
S11351B0D0BD0A44431E914200D1704710B511F886
S11351C0014B914203F8014FF9D110BD024403464B
S11351D0934200D1704703F8011BF9E770B56822C8
S11351E04D1E0E46554305F17401FFF73BF9044685
S11351F040B1002105F16802C0E900160C30A0603E
S1135200FFF7E4FF204670BD2DE9F84306468846C3
S113521000F148040027D4E90195B9F1010905D545
S11352202468002CF7D13846BDE8F883AB89012BFC
S113523007D9B5F90E30013303D029463046C047AB
S113524007436835E9E770477047704770B50E4605
S1135250B1F90E1096B0144600291D4608DAB6F9C5
S11352600C3000222A601A0610D44FF480630EE03A
S11352706A46FFF7F3FC0028F1DB019A02F470425E
S1135280A2F500535A425A412A60EEE74023002017
S1135290236016B070BD2DE9F0478E6882460C4637
S11352A090469E421F4638D88A8912F4906F32D0B5
S11352B0256801330969A5EB0109656905EB450515
S11352C04B4405EBD5756D109D4238BF1D46530503
S11352D031D52946FFF7C6F8064650B90C234FF0DE
S11352E0FF30CAF80030A38943F04003A381BDE82E
S11352F0F0874A462169FFF75CFFA38923F4906392
S113530043F08003A38126614E446561A5EB090542
S113531026603E46A560BE4200D93E46324641461E
S1135320206800F0FDF8A36800209B1BA36023689D
S113533033442360DBE72A4600F00CF906460028D4
S1135340E1D121695046FFF721F8C7E79368013B93
S1135350002B936010B408DA9469A34201DB0A2994
S113536003D15DF8044BFEF789BD1368581C106027
S1135370084619705DF8044B7047F8B506460F46A9
S11353801446D518AC4201D1002007E03A4614F87F
S1135390011B3046FFF7DAFF431CF3D1F8BD2DE9BA
S11353A0F047164699468A6807460B690C46DDF8AD
S11353B020809342B8BF1346336091F843200AB16A
S11353C0013333602368990642BF33680233336084
S11353D0256815F0060506D104F1190AE368326858
S11353E09B1AAB4229DC94F84320131E226818BF91
S11353F0012392062ED404F1430249463846C0479D
S1135400013021D023681A3454F80E5C03F00603EB
S113541032680026042B54F8123C08BFAD1A54F825
S11354200A2C14BF002525EAE5759342C4BF9B1AD4
S1135430ED18B5421AD1002008E00123524649462E
S11354403846C047013003D14FF0FF30BDE8F08744
S11354500135C3E7E1185A1C30200233224481F895
S1135460430094F8451082F84310C4E70123224610
S113547049463846C0470130E6D00136D9E710B571
S11354800C46B1F90E10FFF729FC0028ABBF636D81
S1135490A3891B1823F48053ACBF6365A38110BD9B
S11354A02DE9F0411F468B8905460C46DB0516465F
S11354B005D502230022B1F90E10FFF7F1FBA389F1
S11354C03246B4F90E10284623F48053A3813B4698
S11354D0BDE8F041FFF7A0BB10B50C46B1F90E10C2
S11354E0FFF7DEFB431CA38915BF606523F48053DB
S11354F043F48053A38118BFA38110BDB1F90E10EA
S1135500FFF79CBBC9B2024410B59042034601D1D7
S1135510002303E01C7801308C42F6D1184610BDFC
S1135520884210B501EB020402D98442234607D80D
S1135530431EA14208D011F8012B03F8012FF8E70C
S1135540024401468A4200D110BD13F8014D02F80D
S1135550014DF7E72DE9F041804614460E4621B986
S11355601146BDE8F041FEF77DBF2AB92546FEF796
S11355700DFF2846BDE8F08100F01BF88442074681
S113558002D8B4EB500F12D821464046FEF76AFF0A
S113559005460028EDD0BC422246314628BF3A4693
S11355A0FFF707FE31464046FEF7F0FEE1E73546D9
S11355B0DFE751F8043C181F002BBCBF0B58C01880
S11355C070470000F8B500BFF8BC08BC9E467047A1
S11355D0F8B500BFF8BC08BC9E46704757656C63BD
S11355E06F6D6520746F2074686520535049445270
S11355F056206578616D706C65206170706C6963AC
S11356006174696F6E2C20736C617665206D6F64B4
S1135610650D00706F6E6720253033640053656E2E
S113562064696E6720257320746F206D61737465DF
S1135630722E2E2E0D0A002E2E2F73706964727630
S11356405F736C6176655F626172656D6574616CD0
S11356502E6300476F74206D657373616765206600
S1135660726F6D206D61737465723A2025730D0A33
S1135670002E2E2F6175746F67656E2F736C5F69D2
S11356806F73747265616D5F696E69745F6575735C
S11356906172745F696E7374616E6365732E630007
S11356A0050000000000000000C20100000200002C
S11356B000100000000000000000000000000000D6
S11356C0050000000000000040420F00050100003A
S11356D00000000000000000000000001E000003A5
S11356E0433A2F55736572732F44436F72646F7618
S11356F0612F53696D706C6963697479537475644F
S1135700696F2F53444B732F6765636B6F5F7364CB
S11357106B2F706C6174666F726D2F656D64727639
S11357202F7370696472762F7372632F7370696458
S113573072762E6300633A5C75736572735C64639E
S11357406F72646F76615C73696D706C69636974A0
S11357507973747564696F5C73646B735C67656398
S11357606B6F5F73646B5C706C6174666F726D5C9D
S1135770656D6C69625C696E635C656D5F677069B9
S11357806F2E6800050000000000000040420F007A
S113579005010000000000000000000000000000FF
S11357A0433A2F55736572732F44436F72646F7657
S11357B0612F53696D706C6963697479537475648E
S11357C0696F2F53444B732F6765636B6F5F73640B
S11357D06B2F706C6174666F726D2F656D6C69628E
S11357E02F7372632F656D5F636D752E6300433A8B
S11357F02F55736572732F44436F72646F76612FF4
S113580053696D706C696369747953747564696FF5
S11358102F53444B732F6765636B6F5F73646B2FF8
S1135820706C6174666F726D2F656D6C69622F7335
S113583072632F656D5F656D752E6300433A2F5556
S1135840736572732F44436F72646F76612F53696B
S11358506D706C696369747953747564696F2F53DF
S1135860444B732F6765636B6F5F73646B2F706C4E
S11358706174666F726D2F656D6C69622F737263EC
S11358802F656D5F6575736172742E6300433A2FE3
S113589055736572732F44436F72646F76612F532F
S11358A0696D706C696369747953747564696F2F79
S11358B053444B732F6765636B6F5F73646B2F7017
S11358C06C6174666F726D2F656D6C69622F737293
S11358D0632F656D5F6770696F2E6300433A2F55C0
S11358E0736572732F44436F72646F76612F5369CB
S11358F06D706C696369747953747564696F2F533F
S1135900444B732F6765636B6F5F73646B2F706CAD
S11359106174666F726D2F656D6C69622F7372634B
S11359202F656D5F6C646D612E6300633A5C757303
S11359306572735C64636F72646F76615C73696DC6
S1135940706C696369747973747564696F5C73648A
S11359506B735C6765636B6F5F73646B5C706C61C6
S113596074666F726D5C656D6C69625C696E635CB4
S1135970656D5F6275732E6800433A2F55736572C7
S1135980732F44436F72646F76612F53696D706C2B
S1135990696369747953747564696F2F53444B73E5
S11359A02F6765636B6F5F73646B2F706C617466D4
S11359B06F726D2F656D6C69622F7372632F656DE5
S11359C05F727463632E6300433A2F557365727379
S11359D02F44436F72646F76612F53696D706C69E5
S11359E06369747953747564696F2F53444B732FCF
S11359F06765636B6F5F73646B2F706C6174666F44
S1135A00726D2F656D6C69622F7372632F656D5FA4
S1135A1075736172742E63000103040101010903AB
S1135A200B0000000B00000002000000000020201A
S1135A3000000000030000008C8C3C00000000000B
S1135A400000000000000000012600000400000027
S1135A50000000000001000000000000433A2F5540
S1135A60736572732F44436F72646F76612F536949
S1135A706D706C696369747953747564696F2F53BD
S1135A80444B732F6765636B6F5F73646B2F706C2C
S1135A906174666F726D2F736572766963652F69C1
S1135AA06F73747265616D2F7372632F736C5F69AA
S1135AB06F73747265616D5F72657461726765742A
S1135AC05F737464696F2E6300433A2F5573657274
S1135AD0732F44436F72646F76612F53696D706CDA
S1135AE0696369747953747564696F2F53444B7394
S1135AF02F6765636B6F5F73646B2F706C61746683
S1135B006F726D2F736572766963652F696F737435
S1135B107265616D2F7372632F736C5F696F737439
S1135B207265616D5F756172742E6300433A2F551F
S1135B30736572732F44436F72646F76612F536978
S1135B406D706C696369747953747564696F2F53EC
S1135B50444B732F6765636B6F5F73646B2F706C5B
S1135B606174666F726D2F736572766963652F73E6
S1135B706C65657074696D65722F7372632F736CD5
S1135B805F736C65657074696D65722E63000100E6
S1135B90000005000200000300433A2F55736572AC
S1135BA0732F44436F72646F76612F53696D706C09
S1135BB0696369747953747564696F2F53444B73C3
S1135BC02F6765636B6F5F73646B2F706C617466B2
S1135BD06F726D2F736572766963652F7564656C7A
S1135BE061792F7372632F736C5F7564656C61796F
S1135BF02E6300003C1000200000000000000000A4
S1135C000000000000000000000000000000000090
S1135C100000000000000000000000000000000080
S1135C200000000000000000000000000000000070
S1135C300000000000000000000000000000000060
S1135C400000000000000000000000000000000050
S1135C500000000000000000232D302B2000686CA1
S1135C604C0065666745464700303132333435367B
S1135C7037383941424344454600303132333435B4
S10F5C80363738396162636465660000E1
S10B5C8CFCA4FF7F01000000ED
S10F5C94A05C0000001000202A000000AA
S1135CA04411002000C00550020202020001020358
S1135CB040420F0008000000000000000101000045
S1135CC001000000C0EA2101C0EA210100F04902FC
S1135CD000800000B81300203C10002000000000E9
