S01600006D69637269756D6F735F6E65745F322E733337CF
S21400000000100020850C00003F3802003F38020038
S2140000103F3802003F3802003F3802003F380200F7
S2140000203F3802003F3802003F3802003F380200E7
S2140000303F3802003F380200F7EB01003F3802006D
S2140000403F3802003F380200B91400003F38020073
S2140000503F3802003F3802003F3802003F380200B7
S2140000603F3802003F3802003F3802003F380200A7
S2140000703F3802003F3802003F3802003F38020097
S2140000803F3802003F3802003F3802003F38020087
S2140000903F3802003F3802003F3802003F38020077
S2140000A03F3802003F3802003F3802003F38020067
S2140000B03F3802003F3802003F380200010D0200C0
S2140000C03F3802003F3802003F3802003F38020047
S2140000D03F3802003F3802003F3802006D0600003D
S2140000E00B3702003F3802003F3802003F3802005C
S2140000F03F3802003F3802003F3802003F38020017
S2140001003F3802003F3802003F3802003F38020006
S2140001103F3802003F3802003F3802003F380200F6
S2140001203F3802003F3802003F380200F93700002F
S2140001303F3802003F3802003F3802003F380200D6
S2140001403F3802003F3802003F3802003F380200C6
S214000150000000000000000000000000000000009A
S214000160013800D0FCE770470000000000000000E7
S21400017001F0FF01102A2BDB10F0070F08D010F853
S214000180013B013A8B422DD010F0070F42B3F6D157
S214000190F0B441EA012141EA014122F007047FF070
S2140001A000070023F0E80256083C85EA010586EAC7
S2140001B0010685FA47F5A3FA87F586FA47F6A5FA03
S2140001C087F68EB9EED1F0BC01F0FF0102F007020F
S2140001D032B110F8013B013A83EA010313B1F8D1BA
S2140001E00020704701387047002D06BF354603389B
S2140001F0073815F0010F07D1013015F4807F02BFD4
S214000200013015F4C03F0130F0BC0138704700BF24
S2140002102DE9F04F9FED5C7B89B08DED007B0023D0
S2140002200B701F466D461E4698464FF00A0C4FF060
S214000230FF398646E0B110F8014B6CB9C6B1337889
S2140002402E2B15D0DDE900450B782046032B0FD862
S214000250DFE803F0393E54722E2C23D0A4F1300B85
S2140002605FFA8BF6092E03D80133DBB20A2B05D9C9
S21400027080231370002009B0BDE8F08F2E686C68EC
S214000280A6FB0CA60CFB04661FFA8BF41AEB040400
S21400029046F10006A145C5E9004678EB0604E7D31B
S2140002A07646C6E7002EE3D033782E2BE0D0013713
S2140002B0FFB2032FDCD80B78013385ED027B0B7081
S2140002C008350023ECE7002DD2D100231370D2E7C7
S2140002D0FF2CDDE90231CBD8B3F1807F71F100014C
S2140002E0C6D21A0244EA036002F47F0242EA00041D
S2140002F0180A00F47F40204300BABCE7029D039B27
S21400030004990598B5F5807F73F100032CBF01238F
S2140003100023B1F5803F70F1000028BF43F00103D1
S214000320002BA5D1FF2CA3D8080640EA05200443DD
S214000330080200F47F00DEE70298039D0499059EFC
S214000340069BB0F5807F75F100052CBF01250025C2
S214000350B1F5807F76F10006079E28BF45F00105BF
S214000360B3F5807F76F1000628BF45F00105002D25
S2140003707FF47EAFFF2C3FF67BAF090441EA0020F6
S214000380204340EA0360B7E70000000000000000DA
S21400039010B5054C237833B9044B13B10448AFF3BA
S2140003A000800123237010BDF0260020000000000E
S2140003B01CF0020008B5034B1BB103490348AFF31A
S2140003C0008008BD00000000F42600201CF002009B
S2140003D0A3F5803A704700BF174B002B08BF134B9E
S2140003E09D46FFF7F5FF00218B460F461348144A3B
S2140003F0121A2BF0F4FD0E4B002B00D098470D4B35
S214000400002B00D098470020002104000D000D4866
S214000410002802D00C48AFF3008021F09DFE20009B
S214000420290000F053F921F083FE00BF0000080009
S214000430000000000000000000100020B020002097
S214000440BC840220000000000000000030B5124C02
S214000450124B2268124D1A608BB0124B2B60124B57
S21400046000931FF001FC2B680293104B0393104B74
S2140004700493104B05934FF4C8621923CDE9062365
S21400048000213223CDE908130190694620681EF04A
S21400049081FE0BB030BD00BF0C100020D0460020FF
S2140004A0CC46002000100020E4C302004C280020A8
S2140004B010270020B020002038B502F08DF8124832
S2140004C0124C012101F00AF901221146002001F028
S2140004D0EFFF022501221146C4F88050002001F0EB
S2140004E0E7FF01221146C4F88450002001F0E0FF27
S2140004F00122C4F88C501146002001F0D9FFC4F840
S2140005008850002038BD00BF30053E0000400E4039
S21400051008B54FF0804301225A6403F564231E4950
S214000520D3F8B02042F00102C3F8B020D3F8E020A0
S21400053042F00802C3F8E0204A6B42F480524A6355
S214000540D3F8E02022F00802C3F8E020D3F8B02069
S21400055022F00102C3F8B020104AD2F8A43143F4C6
S214000560F843C2F8A4311FF02BFB00F03BFA1FF053
S214000570CBFA1FF011FB1FF0DDFAFFF79DFF2BF003
S21400058030FB00F021FA21F001FA04F09DF8BDE8F6
S214000590084004F0AFBA00BF0040054000300E40EF
S2140005A030B5214D0FCD97B00FAC0FC495E80700BE
S2140005B01E4B84E807001E4A1E49CDE903231E4B46
S2140005C0059303F1042306930423CDE907131022B1
S2140005D000210BA82BF003FD184B4FF48010CDE93B
S2140005E0090327238DF82C3028238DF82D30144B43
S2140005F00C9320230D9301238DF83930114B009373
S214000600114803AB0FAA09A91FF022FF044618B130
S2140006100E48882123F01AF900214FF4E13023F028
S214000620DFF8204617B030BD24C4020000B2040034
S2140006300010014000040404070407051C100140D4
S214000640045600200C2B0020FC2B0020F6C30200D2
S21400065008B5FFF7A5FF28B1BDE808400248B82155
S21400066023F0F4B808BD00BFF6C3020001481FF02F
S214000670A7BF00BFFC2B0020014823F063B900BFD2
S21400068040C4020007B523F042F803F0C5F80D4851
S2140006900D4C21F0FBFE2BF068FC21F027FB21F02F
S2140006A09FFB204623F051F900F07AF801AA0021BA
S2140006B04FF47A7006F00AFC9DF80430002BF0D058
S2140006C0FEE700BF58C4020040C4020000B58DB06B
S2140006D02BF08FFB00F042F80BAB089302220023AE
S2140006E0CDE906324FF400713322CDE902210A4AE1
S2140006F001921522CDE9043300920849084A0948B8
S21400070006F0C8F99DF82C3003B1FEE72BF07EFB0F
S21400071001200DB05DF804FB1C2C00206EC4020006
S214000720850600001C34002037B50D4604462BF025
S21400073068FC00230246CDE90053214602482AF011
S2140007407AFE03B030BD00BF00350020024B4FF4E8
S21400075000629A61704700BF0080084013B5002011
S2140007601EF0E8FB00B1FEE70A481EF051FC044606
S21400077000B1FEE7034604220B2102F0B3FBCDE9ED
S2140007800044054A054823464FF4FA7120F01AF94A
S21400079002B010BD003500204D0700002C350020AB
S2140007A02DE9F0417B489EB02AF018FD7A49794839
S2140007B02AF07DFE79480021FFF7B6FF7849754894
S2140007C02AF075FE06238DF80F300DF10F0203ABED
S2140007D004A901200FF068F89DF80C20002A40F0CC
S2140007E09A8003AB009304A801230EA925F017FFF7
S2140007F00EA80A21FFF798FF0EA901200FF062F954
S2140008009DF838300246002B40F08780654B6648DE
S214000810002A08BF18461421FFF786FF042303A901
S21400082001208DF80F300FF04DF9044640B903ABA8
S2140008300DF10F0204A9012010F02EFB00286ED146
S214000840042303A901208DF80F300FF03BF904466E
S21400085080B903AB0DF10F020EA9012012F0D0F8FB
S21400086040B1DFF830810EAE282527469DF80F30C0
S2140008709C4268DB002110220FA80E912BF0AFFBE4
S2140008804A484B49D0F818210B68D0F81CC1D0F85C
S21400089020E1D0F82471D0F82861D0F82C51D0F897
S2140008A030411A4462440EEB02033B4433442B446B
S2140008B02344404C0B60D0F868112268D0F86CE1F5
S2140008C0D0F870C1D0F87471D0F87861D0F87C5147
S2140008D0D0F8800111440EEB010262443A443244DF
S2140008E02A44024422601421334A0EA821F0ACFEAA
S2140008F00EA86E21FFF718FF2368304A14210EA8B1
S21400090021F0A2FE78210EA8FFF70EFF1EB0BDE86C
S214000910F0411EF039BB2A486BE72A487BE79DF872
S2140009200F30002B8CD003AB049822460EA925F07E
S214000930C2FE9DF80C300BB123F029FE1E210EA836
S214000940FFF7F2FE7CE703AB009300231A4604A9E8
S214000950304625F0E7FE9DF80C300BB123F017FE6D
S2140009600023142204A9CDE9005740462AF063FD6F
S21400097004A82BF046FB05F10A030093A0F114022D
S2140009800197002309A940462AF055FD1435013485
S21400099010366BE7003500204CE102009EC40200D2
S2140009A01CDE02008CC4020094C402000040024018
S2140009B0FC340020F8340020ADC40200BCC40200A1
S2140009C098E6020081C4020008B50548012100F03F
S2140009D085FE22F07FFEBDE8084022F0BFBE00BFC5
S2140009E000550A000148012100F078BE00550A00B3
S2140009F02DE9F0431F4E0446894690460FCE89B037
S214000A0001AD0FC596E8070085E8070025681A4877
S214000A106E6FAF6F012100F061FE6068012100F08B
S214000A205DFE617B207B0023042202F05BFA617A84
S214000A30207A0422002302F055FA0123284601A951
S214000A408DF81230CDF80C90ADF8148002F0CAFD87
S214000A50237CA27B1B0643EA022307F0070706F067
S214000A6001063B4346F00A060020AB676E6709B0F6
S214000A70BDE8F083CCC4020000550A0013B5044656
S214000A801FF07CFF247B00230122CDE900326400A6
S214000A90034AB0FBF4F103482BF05DF902B010BD39
S214000AA0A90A00004C350020024B4FF400629A6100
S214000AB0704700BF0080084073B50E4B0E4E4FF4D3
S214000AC08045DD660446407B20F03EF90423022282
S214000AD00DF106013046ADF8063022F090FE3046A5
S214000AE022F09EFEA07B20F02FF9044B0020DD664E
S214000AF002B070BD00800846101000200080084438
S214000B0070B5064601211248124C00F0E7FDB168A8
S214000B1011480022FFF76CFF002304220E2102205A
S214000B2002F0E0F9002304220B211846354602F0B5
S214000B30D9F90FCD0FC42B682360084B012230462D
S214000B401A70FFF79BFF3046FFF7B6FF002070BD18
S214000B5000550A006C350020101000202456002096
S214000B602DE9F04F0788994603795F43344B541CB0
S214000B704FF48042DA661FFA84FA85B00646407B58
S214000B808846FF1020F0E0F8C4F34E0453461F22B8
S214000B902CBB93401B0C43F001032A48ADF80E30E3
S214000BA002220DF10E0122F02AFEDFF898B009F1BC
S214000BB0FF3301930AF1010A4C4517D1214822F070
S214000BC02FFEB07B20F0C0F81F4B1E484FF480422B
S214000BD0DA6622F02AFE002005B0BDE8F08F04F0A9
S214000BE0010141EA4303013A6408D1E741463A4627
S214000BF0584622F004FE019BA342B8440BD14FF6A0
S214000C00FF72ADF80E2002220DF10E01584622F0BA
S214000C10F6FD0134D0E70AEB040295B21F21C2F3B9
S214000C204E0232B98D402D0C45F03F05ADF80E5002
S214000C30E9E702F0010040EA450501395208F0E70D
S214000C40008008461010002000800844034B04482B
S214000C501B78002B08BF0020704700BF24560020DA
S214000C606C35002030B5064D0FCD87B001AC0FC4F3
S214000C702B68236001A8FFF743FF07B030BD00BF15
S214000C80E8C4020008B500F093F8124B12498B42F4
S214000C9012D3124B124900208B4218D3FFF79CFB4D
S214000CA0186850F82240586840F822400132986888
S214000CB08242F5D30C33EAE70022F8E71C6844F8D2
S214000CC0220001325C68A242F8D30833E4E700222F
S214000CD0F8E700BF24F0020030F0020030F0020017
S214000CE030F002000048704700A24A04174AD2F8C3
S214000CF0943003F00703023B042B1FD8DFE803F011
S214000D000620031A0800124B1B680AE0114BFBE78B
S214000D109368C3F30443073B072B14D80E4A52F8D4
S214000D2023300A4AD2F80001C0F304200130B3FB96
S214000D30F0F07047094B1B685B08F2E7074BE3E7E8
S214000D404FF40043EDE70023EBE700BF00400E4002
S214000D503010002028100020FCC402002C100020B8
S214000D6008B5FFF7C3FF054BD3F80831C3F30823D4
S214000D700133B0FBF3F0024B186008BD00400E4094
S214000D8024100020014B1868704700BF2810002070
S214000D90054B1860054BD3F8943003F00703022B7D
S214000DA001D1FFF7DDBF70472810002000400E403D
S214000DB0044B054A9A60D3F8882042F47002C3F8C0
S214000DC08820704700ED00E000000000014B186826
S214000DD0704700BF3010002038B504460D4601B1FC
S214000DE018B90448372122F031FD23682B602560AE
S214000DF038BD00BF1CC5020070B5D0B1C9B10E4EDB
S214000E00431E013913F8014FA25D02F00302012AC6
S214000E1011F8012FB55C05F00305204608BF04F164
S214000E202000012D08BF2032801A01D1002CE9D104
S214000E3070BD0120FCE700BF81EE020005490A688C
S214000E401318054883428CBF4FF0FF320B601046E4
S214000E50704700BF341000200000082008B529485D
S214000E60012100F03BFC012304220221052002F0B0
S214000E7039F8002002F020F8234B0122C3F810288E
S214000E801146042001F014FB204801F033F9204BF2
S214000E90D3F8F02042F00102C3F8F020D3F8FC208B
S214000EA042F08072C3F8FC20A3F55D43194A1A602D
S214000EB000F5D520184B00F2FC40B0FBF3F0174BC2
S214000EC0013802221861C3F8F0204FF48072C3F88C
S214000ED004234FF06043124AC3F8B02F114AC3F8F8
S214000EE0802ED3F8002E42F48072C3F8002EFF2224
S214000EF083F82020D3F8002E22F48072C3F8002E48
S214000F00002008BD00550A000080104306000E00B1
S214000F1000ED00E0FF030040F8590D00000004E07B
S214000F2055CEACC5090001004FF0604330B5D3F88C
S214000F30802ED20715D501240B4D8440D5F8FC2011
S214000F4042F08072C5F8FC20D3F8002E2243C3F886
S214000F50002E53F82020002AF0D003F8201000209E
S214000F6030BD1120FCE700BF00ED00E0082838B5D2
S214000F7004460D4604D84FF6FF73CB40DB0704D477
S214000F80084840F2FE3122F061FC30230C2013FBAF
S214000F90040000F18840012100F5082001FA05F55B
S214000FA0056038BD4EC50200082838B504460D4613
S214000FB004D84FF6FF73CB40DB0704D4084840F252
S214000FC02D4122F043FC30230C2013FB040000F1DB
S214000FD08C40012100F5082001FA05F5056038BDB2
S214000FE04EC5020010B501210446094800F076FB04
S214000FF00848012100F072FBA37820786178B3FAE4
S21400100083F35B09042201F06DFF002010BD00BFD2
S2140010104041050000550A0038B504784578082C8C
S21400102004D84FF6FF73EB40DB0704D407484FF4B1
S214001030896122F00BFC3023634303F180430122D5
S21400104003F50823AA409A6138BD00BF4EC50200CA
S21400105070B506784478082E054604D84FF6FF7219
S214001060E240D30704D40C484FF4836122F0EEFB31
S21400107030230C2213FB062303F1067303F500430B
S21400108004EBC304A400AB782068C0B213B9B0FA6E
S21400109080F0400970BD00BF4EC502002DE9F04F3C
S2140010A09A46554B85B01B78DDF83C909DF844B0C9
S2140010B0DDF8508006460F461546002B00F08B8064
S2140010C0172A00F28A800E9B002B00F08680B9F16A
S2140010D0000F00F08280129BB3F5006F7DDC0128C4
S2140010E002D1109B002B78D0444B03EB05131B7BDF
S2140010F0002B74D0424C1022002168462AF06FFF65
S21400110004EB45141022002F57D1394620462AF00A
S21400111066FF43F210036380BBF1000F03D1E37850
S21400112043F00303E370364A0E9BCDF800A002EBB3
S214001130451CCCE90193129B013BC3F30A009DF8C2
S2140011404C30690103F003039B0643EA001E535824
S2140011502C4818404EEA0003012E535041D1132369
S214001160CCF80C309CE80F000CF1100E8EE80F0047
S214001170DCF81C20109BCCF814306FF0030161F3F0
S2140011809F02012FCCF81C2003D1CCF81890CCF885
S21400119004301A4A290102EB051342F801800027A1
S2140011A0159A5A6028469F605E732246694601F08B
S2140011B04FFF384605B0BDE8F08F002120462AF0E4
S2140011C00EFF4FF444736380BBF1000FABD1E3789E
S2140011D043F03003A6E70C48ECE70C48EAE70C4877
S2140011E0E8E7B8F1000FD4D19CF8023068F3041396
S2140011F08CF80230CDE700BF255600208035002051
S214001200003700200F80FFF3028000F0018000F01E
S214001210078000F038B5124B1B780546DBB1E0B10D
S21400122022F0E0FB0F4A00231146147B54B92B60D2
S2140012301A0101EB031301258C501D7322F0D8FB15
S214001240204638BD0133182B02F11002EDD122F0F2
S214001250CFFB0548F5E70548F3E70548F1E700BF8B
S2140012602556002080350020048000F0028000F023
S214001270018000F013B522F0B5FB0C4A0023147B66
S2140012807CB90133182B02F11002F8D1019001F05D
S2140012906FFE074B01981C7022F0AAFB204602B096
S2140012A010BD22F0A5FB0348F9E700BF80350020FB
S2140012B025560020058000F00D4B1B7810B504461F
S2140012C093B1172812D822F08DFB0A4B03EB0413B8
S2140012D01A7B2AB100241C7322F08AFB204610BD1C
S2140012E022F086FB0448FAE70448F8E70448F6E7E5
S2140012F02556002080350020068000F0028000F091
S214001300018000F013B5134B1868019000238DF888
S214001310043022F067FB104B1C7824B122F068FBE7
S2140013200E4802B010BD01221A7022F061FB0C4A72
S214001330234621460133182B117302F11002F9D10E
S21400134004230DEB03008DF8073001F041FE00206A
S214001350E7E700BFB9C5020025560020038000F06D
S214001360803500200A4A127808B55AB117280BD8DB
S214001370084A02EB00131B7B43B1002101F00CFE70
S214001380002008BD0448FCE70448FAE70448F8E7EC
S2140013902556002080350020028000F0018000F0F5
S2140013A0078000F00A4A127808B55AB117280BD8F9
S2140013B0084A02EB00131B7B43B1012101F0ECFD50
S2140013C0002008BD0448FCE70448FAE70448F8E7AC
S2140013D02556002080350020028000F0018000F0B5
S2140013E0078000F00A4A127808B552B117280AD8C2
S2140013F0084A02EB00131B7B3BB101F0AFFE002056
S21400140008BD0548FCE70548FAE70548F8E700BFC9
S2140014102556002080350020028000F0018000F074
S214001420078000F00D4B1B7893B1172812D889B1AE
S2140014300B4B03EB00131B7B73B10A4B1A6E012395
S21400144003FA00F010401ABF00200B7008707047B7
S21400145005487047054870470548704725560020E0
S2140014608035002000200040028000F0018000F05F
S214001470078000F00B4A127810B50C4662B11728A8
S2140014800CD859B1084A02EB00131B7B43B101F09C
S21400149085FE2070002010BD0448FCE70448FAE7EB
S2140014A00448F8E72556002080350020028000F02A
S2140014B0018000F0078000F02DE9F843DFF8648033
S2140014C0D8F86070D8F86C301F4000D5FEE7144C92
S2140014D0DFF8549001260025374217D02368C8F855
S2140014E068609BB1A16862680131A1602846984790
S2140014F0637B012B0AD148B909EB45131A7B60F3CD
S21400150041021A731A7F60F341021A770135182DCB
S2140015104FEA460604F11004DED1BDE8F88300BFAA
S2140015208035002000200040003700200C4B9842F9
S21400153010D90C4B984210D9022201230A490B6499
S2140015400A49D1F8003123F0407343EA0263C1F838
S2140015500031704700221346F0E70122FBE700BF88
S2140015600048E8010090D0030000C84300400E4049
S21400157038B54FF0804300225B68104BC9B21C465A
S2140015801D798D4202D11D68854213D20132072A89
S21400159003F10803F4D10A4841F2DD7122F056F94E
S2140015A003224FF080414B6823F0407343EA026306
S2140015B04B6038BD04EBC2025279F2E700C7020066
S2140015C0BDC502001F2810B5044604D903484FF4D1
S2140015D0B67122F03BF90120A04010BDECC5020018
S2140015E0044BDB6B5B0604D4034AD2F8C830002BEE
S2140015F0FBD1704700300E400000C64308B5FFF729
S214001600EFFF024B5868C0F3014008BD00300E40A3
S214001610044BD3F84421D20703D4D3F84021104218
S214001620FBD1704700400E40B0F5004F38B5054678
S21400163004D30C4840F64A6122F008F96C1C14BF2B
S214001640B4FA84F42024C4F11F042046FFF7BAFF3E
S2140016500138A84204D0034840F6516122F0F6F85B
S214001660204638BD5AC602004FF0804341F671321C
S21400167070B51E6C1A6405460C46FFF779FF134AD0
S214001680134B022C08BF13469D42124AB6B209D924
S2140016904FF08C43C3F800210F4A954207D84FF00D
S2140016A0884306E04FF08843C3F80021F7E7002C94
S2140016B0F5D14FF480521A6041F671339E421EBF38
S2140016C04FF0804300221A6470BD00BF0024F4006F
S2140016D080D543020202020080F0FA02C0F3032221
S2140016E0013A38B503460E2A3AD8DFE802F04043FE
S2140016F03939081B1E212536292E391833001F4C70
S2140017000020C3F3043508B1FFF782FF04F142441A
S21400171004F5801405EBC404A400216038BD184C01
S2140017200020EEE7174C0120EBE7174C1020E8E707
S214001730164C4FF48070E4E7154C4FF48030E0E729
S214001740144C81F001010020DBE7134C81F001010D
S2140017500020D6E7114C0020D3E7114C0020D0E73C
S214001760BDE838400F4841F6795122F06FB80E4C6C
S2140017700020C6E70D4C0020C3E700BFB0400E4077
S214001780C4400E40E0400E40E8400E40EC400E40A4
S214001790F0400E4060410E4064410E40F0410E4065
S2140017A050410E40BDC5020000400E40C0400E40F5
S2140017B008B5C0F30313013B0B2B00F2AB80DFE848
S2140017C003F0060C101A2024282C668692A5534B8C
S2140017D0D3F80001C0F3042008BD504BD3F8140121
S2140017E0F8E74E4BD3F80001C0F301600130FFF775
S2140017F0E9FE0138F0E7494BD3F80C01C0F30820A6
S214001800EAE7464BD3F81801F8E7444BD3F81C0137
S214001810F4E7424BD3F80801F0E7414B98422AD050
S2140018200ED8A3F5BA2398422BD003F5703398420E
S21400183015D041F61D713B4822F008F80020CBE792
S214001840394B984205D0394B98420ED0384B9842C7
S214001850EFD1324BD3F82001C0F30230C7E72F4B4D
S214001860D3F8200100F00F00C1E72C4BD3F820017D
S214001870C0F30120BBE7294BD3F82001C0F30310C7
S214001880B5E7264BD3F82001C0F30340AFE7294B5A
S21400189098420CD003F5A11398420ED0264B9842DE
S2140018A012D11E4BD3F8280100F003009FE71B4B14
S2140018B0D3F82801C0F3011099E7184BD3F8280194
S2140018C0C0F30130043092E741F64171B3E71B4B99
S2140018D0984205D1114BD3F8300100F003007BE7A6
S2140018E041F65071A7E7164B984205D0154B984223
S2140018F006D041F668719EE7084BD3F85C01ECE72A
S214001900064BD3F85C01C0F3014065E7034BD3F800
S214001910040173E741F675718DE700BF00400E4085
S21400192080161800BDC5020000362C0080262E004A
S21400193080002A0090171C0090071A00A0091400C7
S214001940B8003200B9003400C0F30313013B10B5F1
S2140019500C460B2B00F21882DFE813F00C00340064
S21400196045006000740088009C00BC006101CE0148
S214001970DA0102021F2904D9C44841F69E7121F0FB
S21400198065FF22F011F8C248FFF7D0FD00F00AFA12
S214001990C04BD3F8001121F4F85141EA0424C3F8EF
S2140019A00041FFF7DDF90446FFF728FE0146204612
S2140019B0FFF75AFEFFF79AF9FFF7B8FDBDE81040AB
S2140019C000F006BA1F2904D9B04841F6B47121F0D8
S2140019D03DFFB04BD3F8141121F4F85141EA04242A
S2140019E0C3F8144110BD4B1EB3F5004F0DD2B4FA28
S2140019F084F1A84BD3F80041C1F11F0124F04074D4
S214001A0044EA0164C3F80041ECE7A34840F65A51A3
S214001A1021F01CFF002CEAD12021EAE7B1F5007F77
S214001A2004D39A4841F6C17121F010FF994BD3F8C0
S214001A300C1121F4FF3121F4807141EA0421C3F82E
S214001A400C11CFE7B1F5007F04D3904841F6C8717A
S214001A5021F0FCFE8F4BD3F8181121F4FF3121F44E
S214001A60807141EA0421C3F81811BBE7B1F5007F85
S214001A7004D3864841F6D07121F0E8FE854BD3F8B2
S214001A801C1121F4FF3121F4807141EA0421C3F8CE
S214001A901C11A7E7B1F5007F04D37C4841F6D77147
S214001AA021F0D4FE21F080FF7A4BD3F8081121F400
S214001AB0FF3121F4807141EA0421C3F80811FFF7D1
S214001AC04FF90446FFF79AFD01462046BDE8104050
S214001AD0FFF7CABD714B984274D010D8704B98422D
S214001AE046D0704B984257D0A3F57033984226D014
S214001AF042F25301BDE81040644821F0A7BE6A4B8D
S214001B00984205D0694B984273D0694B9842EFD102
S214001B10B4F5004F04D95D4842F2450121F096FE27
S214001B202046FFF781FD01460420FFF771FD594A64
S214001B30D2F8203123F4E04343EA013315E0B1F54F
S214001B40004F04D9514841F6E97121F07FFE204646
S214001B50FFF76AFD01460420FFF75AFD4D4AD2F80A
S214001B60203123F4702343EA0143C2F8203139E7D9
S214001B70022904D941F6FA71444821F067FE4FF471
S214001B808020FFF745FD434BD3F8301121F00301C9
S214001B900C43C3F8304125E7B1F5004F04D93B4864
S214001BA042F2170121F052FE2046FFF73DFD0146A6
S214001BB00420FFF72DFD374AD2F8203123F00F031B
S214001BC00B43D2E7B1F5004F04D9304842F2260164
S214001BD021F03CFE2046FFF727FD01460420FFF7D4
S214001BE017FD2C4AD2F8203123F0F00343EA011304
S214001BF0BBE7082904D9254842F2350121F026FE24
S214001C002046FFF711FD01460420FFF701FD214A9B
S214001C10D2F8203123F4407343EA0123A5E7254B8D
S214001C2098421DD003F5A113984247D0224B984204
S214001C305FD1082904D9154842F25C0121F006FE5E
S214001C402046FFF7F1FC01464020FFF7E1FC114A71
S214001C50D2F8283123F003030B43C2F82831C1E63B
S214001C60082904D9094842F26B0121F0EFFD20460D
S214001C70FFF7DAFC01464020FFF7CAFC054AD2F817
S214001C80283123F0300343EA0113E6E7BDC502001E
S214001C900148E80100400E405AC6020080161800AF
S214001CA0A00914008006160000362C0080262E00A0
S214001CB080002A0090171C0090071A00A1F10F035D
S214001CC0702B04D9324842F27A0121F0BFFD20463B
S214001CD0FFF7AAFC01464020FFF79AFC2D4AD2F8EF
S214001CE02801043920F4405040EA0130C2F82801A7
S214001CF078E642F28901FDE6274B984205D1022993
S214001D007FF63DAF42F2930136E742F2A301F1E6D9
S214001D10224B984205D0224B984212D042F2BC0188
S214001D20E8E6032904D91A4842F2AE0121F08EFDF6
S214001D30184BD3F85C1121F003010C43C3F85C4147
S214001D4050E6032904D9124842F2B60121F07EFD7E
S214001D50104BD3F85C1121F4403141EA0444EDE71E
S214001D60B1F5007F04D30A4842F2C40121F06EFDAB
S214001D70084BD3F8041121F4FF3121F4807141EAB5
S214001D800421C3F804112DE642F2CB01B2E600BFEF
S214001D90BDC5020000400E40A0091400B800320085
S214001DA0B900340008B507480321FFF7CDFD064803
S214001DB00321FFF7C9FDBDE8084004480321FFF7EB
S214001DC0C3BD00BF40410500504107006041090007
S214001DD037B5FEF78BFF0446FFF710FC022817D135
S214001DE0194B1A481A491C449C42B4FBF1F188BFAF
S214001DF001F1FF310191FFF7A7FD01991548FFF7A3
S214001E00A3FD0199144803B0BDE83040FFF79CBD20
S214001E10124B134D0D48E2189A42B2FBF5F588BFF7
S214001E2005F1FF352946FFF78FFD0B482946FFF7DA
S214001E308BFD0C4B0C4907481C449C42B4FBF1F14B
S214001E4088BF01F1FF31DEE7FF2C3101404105007C
S214001E50002D310150410700604109007FF0FA0271
S214001E6080F0FA02FFA14A0400A24A0400F00F0024
S214001E70013808B50B2879D8DFE800F006111B2FCB
S214001E8025397843515F6B6F414BD3F8943003F09C
S214001E900703023B052B76D83E4AD05C30E03C4B2D
S214001EA0D3F8803003F00703013B032B6DD83A4A82
S214001EB0F3E7374BD3F8843003F00703013B032BDB
S214001EC063D8364AE9E7324BD3F8883003F0070385
S214001ED0013B032B59D8324ADFE72D4BD3F88C3021
S214001EE003F00703013B032B4FD82E4AD5E7284BB8
S214001EF01B6F13F0030340D0012B14BF01200920F1
S214001F0008BD234BD3F85C3103F03003202B36D0CA
S214001F10302B36D0102B14BF01200720F0E71C4BC7
S214001F20D3F85C3103F44013B3F5001F27D0B3F5A4
S214001F30401F26D0B3F5801FEDE7154BD3F86001A0
S214001F4000F00300431E022B1DD800EB40000130BA
S214001F50D6E70F4BD3F86401F2E70D4BD3F8F03118
S214001F6003F00703052B10D80F4A96E70F4842F2F6
S214001F70CA2121F06BFC0020C2E70720C0E704203E
S214001F80BEE70820BCE70520BAE70120B8E700BF97
S214001F9000400E40C7C60200CDC60200D1C60200F1
S214001FA0CDC60200CDC60200D5C60200BDC50200E1
S214001FB038B5314B984205460BD01ED82F4B984269
S214001FC007D02F4B9D4204D02E4841F6DC0121F06D
S214001FD03DFC2846FFF74AFF274B9D42044625D086
S214001FE00DD8264B9D4211D0254B9D421AD0254830
S214001FF041F60B1121F02AFC0DE0234BE2E7224BC1
S2140020009D42F4D1214BD3F8884002E01F4BD3F811
S214002010804004F00704042C27D8DFE804F0240BE3
S2140020200F171300194BD3F88440F2E7174BD3F879
S2140020308C40EEE7BDE8384021F002BCBDE83840F1
S214002040FEF7C4BEBDE8384021F0FDBBFEF74EFEED
S2140020500E4B0446D3F80001C0F301600130FFF7D1
S214002060B1FAB4FBF0F4204638BD064841F65D11DF
S21400207021F0ECFB0024F6E70400220002001E001C
S21400208003002000BDC502000500240000400E40ED
S214002090012808B514BF12481248FFF7E7FE0138BA
S2140020A0072816D8DFE800F01A1515071515040BD3
S2140020B00D4B186808BDBDE80840FEF763BEFEF786
S2140020C015FE0A4BD3F80031C3F3042303FB0000CC
S2140020D0F0E7074841F2D66121F0B8FB0020E9E7B7
S2140020E0B8003200B90034003810002000400E401E
S2140020F0BDC5020038B500F47813B3F5E01F0546F9
S21400210000F0FC804CD8B3F5602F00F0108123D887
S214002110B3F5C02F00F0A1800DD8B3F5003F00F056
S214002120A880B3F5802F00F08D80002B00F007818B
S21400213041F6A96109E1B3F5202F00F09480B3F5CC
S214002140402F00F09C80B3F5002FF1D1FEF7CEFDB6
S214002150B14BD3F81C317AE0B3F5B01F00F0AA807B
S2140021600DD8B3F5901F00F09280B3F5A01F00F0D5
S2140021709880B3F5801FDBD1A84B18686CE0B3F5E8
S214002180C01F00F0A580B3F5D01FD1D1A448FFF73B
S2140021900FFFA14B0446D3F8280100F0030092E09D
S2140021A0B3F5401F00F0B48024D8B3F5201F00F02C
S2140021B0BA800FD8B3F5001F00F09E80B3F5101F4D
S2140021C000F0B380B3F5F01FB2D19648BDE83840B2
S2140021D0FFF7EEBEB3F5281F00F08480B3F5381F76
S2140021E0A6D19048FFF7E4FE8B4BD3F82031C3F31B
S2140021F0012354E0B3F5601F00F0CF8013D8B3F589
S214002200501F00F0A780B3F5581F00F0AC80B3F560
S214002210481F8DD10020FFF73BFF7F4BD3F85C3182
S21400222003F0030315E0B3F5681F00F0D080B3F5A4
S214002230781F7FF47DAFFEF759FD0446284621F04F
S214002240C5FB42E0FEF752FD734BD3F80C31C3F3E7
S21400225008230133B0FBF3F038BDFEF747FD6E4BA5
S214002260D3F81831F3E7FEF741FD6B4BD3F8043192
S214002270EDE7FEF73BFD684BD3F80831E7E7FEF7DE
S21400228035FD654BD3F81431C3F30423E1E7654805
S214002290FFF78EFE604BD3F82031C3F30343D840DC
S2140022A0DAE76148FFF784FE5B4BD3F8303103F082
S2140022B00303F4E75B48FFF77BFE574B0446D3F86F
S2140022C0200100F00F00FFF77DF9B4FBF0F0C3E744
S2140022D05448FFF76DFE504B0446D3F82001C0F378
S2140022E00310F0E74F48FFF763FE4B4B0446D3F866
S2140022F02001C0F30230E6E7494867E74848FFF7A1
S21400230057FE454B0446D3F82801C0F30110DAE720
S2140023104348FFF74DFE404B0446D3F82801C0F370
S21400232001300430CFE7414850E73F484EE7404889
S214002330FFF79CFD07283FF41FAF092803D1BDE82F
S2140023403840FEF7D3BC41F29F613A4821F07EFA4E
S214002350002081E70120FFF79BFE2F4BD3F85C316E
S214002360C3F3014375E73448FFF780FD04380628B9
S21400237010D801A353F820F0ED230000FD23000041
S2140023809523000079210000952300009523000086
S214002390E92300004FF4B851D7E72848FFF766FD59
S2140023A00438062810D801A353F820F0ED230000C7
S2140023B0FD230000C923000079210000C923000086
S2140023C0C9230000E923000041F23271BDE71C4832
S2140023D0FFF74CFD023809281AD8DFE800F011157F
S2140023E0070F19191919050B164BC6E6BDE8384034
S2140023F0FEF7C8BCFEF7C6FC40002DE7124BBCE655
S214002400BDE83840FEF7E2BCBDE8384021F018BA17
S21400241041F2897199E700BF00400E403810002055
S2140024200300200002001E00050024000400220015
S21400243006000E00BDC502000A7B36000B7C380085
S2140024400C7F3A003C1000202C100020014B188016
S214002450704700BF46120020014B1880704700BF2F
S21400246044120020022838B50C4604D00D4842F627
S214002470FC4121F0EBF90C4D6B6AC3F30113012B01
S2140024800DD064B1074842F6175121F0DFF9074B2B
S214002490D5F8902033EA0202FAD1012038BD4FF475
S2140024A08003F5E7BDC5020000400E40FF3F473AF7
S2140024B005282DE9F04704460F4691461FD83E4BA7
S2140024C03E4A13F800A03E4B13F80080F1B93D4B8E
S2140024D033F810301366012303FA08F8D2F8903068
S2140024E013EA080FFAD1B9F1000F61D00125334A7B
S2140024F005FA0AF5D2F890302B42FBD158E0BDE839
S214002500F047314842F6C83121F0A0B92F4B0228D7
S21400251033F810604ED1536AC3F30113012B49D12F
S2140025202B4BDB6B5B0504D4274842F6D73121F0F2
S2140025308DF9224A536A03F00303032B05D1536A2D
S21400254023F0300343F020035362224D1B4BA84474
S2140025501E664FEA8808D8F80030002BFBD0B9F189
S214002560000F25D05544AD002B68002BFCD0022C64
S2140025701ED1EFB1114B5B6A03F00303032B03D0AC
S21400258000212046FFF76EFF0F4842F65A4121F021
S2140025905DF9012200210220FFF78AFF0A4842F671
S2140025A0E44121F053F9054B1E662B68002BFCD046
S2140025B0BDE8F0870027C8E7DBC6020000400E40F3
S2140025C0E1C60200F4C60200BDC50200E8C602006D
S2140025D000300E408004F21038B5FEF7D3FB002121
S2140025E0044600F0C1F91448FEF7A0FF0122114688
S2140025F00220FFF75DFF21F0D7F9FFF7D3FB0CB100
S214002600FEF7EEFF0D4B02225A67FEF76FFBFEF752
S2140026108DFFFEF7A5FB0546FEF7F0FF01462846B0
S214002620FFF722F81CB90121204600F09DF9BDE80D
S2140026303840FFF7CDBB00BF0148E80100400E4020
S21400264038B504461120FFF711FC042804D11F48B2
S21400265042F63C2121F0FAF8012200210220FFF781
S21400266027FFE37A022B2AD8194AD25C194D6B6AE7
S21400267023F0030313436B62FEF784FB164B22889A
S214002680984294BF082000206B6A23F00803184382
S214002690A388686243EAC223EB622B6BE2881B0DB9
S2140026A01B051343628843EAC2232B63637A227AAC
S2140026B01B0143EA0233A27A13436B6338BD034817
S2140026C042F6502121F0C2F80022CFE7BDC5020035
S2140026D0C4C6020000400E4040787D0170B5054635
S2140026E01120FFF7C3FB022804D10F4842F6FA2157
S2140026F021F0ACF80D4E0E4BB26B2C7813401C43F9
S2140027006B7844EAC324AB7844EA0364EB7844EA83
S2140027100324B36BA34205D0002101220846FFF72D
S214002720C7FEB46370BD00BFBDC5020000400E40CA
S21400273080E4FFF8034B5868C0F30800003818BF61
S2140027400120704700ED00E0034BD86B80F040009E
S214002750C0F38010704700BF00300E4038B542EA24
S2140027600323B3F5007F05460C463ED019D8B3F5D3
S214002770807F36D00AD883B3012B21D01F4840F67D
S214002780562121F063F8002213461FE040F20112A2
S2140027909342F3D11A4BD3F824321A0EC3F30743ED
S2140027A014E0B3F5407F24D040F20132934210D0BB
S2140027B040F201229342E1D1114BD3F8283202E0D5
S2140027C00F4BD3F82432C3F30722DBB22B60226010
S2140027D038BD0B4BD3F82832DFE7094BD3F81C3251
S2140027E0F1E7074BD3F81C32D7E7054BD3F8203276
S2140027F0E9E7034BD3F82032CFE700BF38C7020023
S2140028000081E00F08B5FFF79FFF20B1024AD2F81B
S214002810C830002BFBD108BD0000C6431A4B022867
S21400282010B5D3F830320C4612D0032813D0012846
S21400283014BFDBB2C3F307231B0323F47042ECB9C7
S2140028405AB140F6E511114821F000F8002010BDFD
S214002850C3F30743F0E71B0EEEE70D49CA6E22F4FA
S21400286070421343CB660120F1E70949D1F8EC200A
S21400287022F470421343C1F8EC30F4E7002AF4D097
S21400288040F6F111DFE700BF0081E00F38C7020015
S21400289000300E400378134A002B437870B514BFFF
S2140028A004260026002B8378946914BF0225002591
S2140028B0002B037924F03F0443EA0403C47814BFD2
S2140028C008210021012C08BF43F0010333432B43AA
S2140028D00B4393611368417923F4403343EA014381
S2140028E0136070BD00300E40F8B504460F46FFF783
S2140028F02BFF78B3FFF786FF174B5B68C3F30143E4
S2140029009C4227D0154BD3F80061FEF7EFF9022C56
S21400291005460FD1124BC6F3042606FB00069E4260
S21400292004D9104840F27C7120F090FF022128461E
S214002930FEF79AFEC4F1020210239340064A136182
S2140029400FB1FFF75FFF2CB921462846BDE8F840D7
S214002950FEF78ABEF8BD00BF00300E4000400E40B5
S214002960002D310138C7020013B50246FFF7ECFE12
S214002970C8B152B90D4B0191D3F80041FEF7B6F934
S214002980C4F30422019902FB0002094B1B7843B1F1
S214002990084B9A4205D8022002B0BDE81040FFF767
S2140029A0A3BF0020F8E702B010BD00BF00400E40F5
S2140029B026560020002D3101174B4AF6E85210B576
S2140029C0596B5A639A6FD407FCD41B6C13F003033D
S2140029D01EBF124A0124C2F8B44A834216D00E4BD8
S2140029E09A6FD207FCD41A6C22F0030202431A64D0
S2140029F09A6F12F00102FBD10038084C18BF012074
S214002A000129C4F8B40A08BF5A6303E010B9034B9F
S214002A10C3F8B40A10BD00BF00300E400000C64325
S214002A202DE9F04FA0F5E16389B00024B3F5966F69
S214002A30CDE90244CDE90444CDE9064406468A467B
S214002A40934605D940F6DF31554820F0FFFEA3E057
S214002A50B0F5E16F534B8CBF0122002249D1D3F869
S214002A601832C3F30721DBB2079104934FF41675AF
S214002A704FF4966748E0BBF1000F0ED0D9F85C2003
S214002A8022F4FE4222F00202B6F5E16F42EA01228B
S214002A9018BF02200243C9F85C20BAF1000F26D006
S214002AA020460021FFF7BAFE044610B940F63C4126
S214002AB0CAE701214046FFF7B1FE044610B940F6CA
S214002AC04441C1E7384A536EBD4238BF3D4623F401
S214002AD0FF73E72D23F0010328BFE725B6F5E16F66
S214002AE018BF43F0010343EA4503536654E001244C
S214002AF052E0D3F81832190EC3F307430791049334
S214002B004FF496654FF4E167DFF89C90D9F84C4097
S214002B100192C4F30174234605A902A8FFF71EFE1E
S214002B20D9F8EC30019AC3F30128434606A903A856
S214002B30FFF714FE049BF01B079FF91A4143B1FBF5
S214002B40F5F299182CBF012300238F421ED3EBB950
S214002B50069A039FD31B4343B3FBF5F3FF182CBF22
S214002B6001230023BA4211D383B9059B029AA3EB33
S214002B70020C00FB0CF0B0FBF5F555192CBF01203C
S214002B800020AB4202D300283FF475AF044840F65D
S214002B902D4120F05BFE0024204609B0BDE8F08FF2
S214002BA038C702000081E00F00300E40334A08B5F7
S214002BB0136FD16C11F0010F03F0060344D0002B05
S214002BC042D0132857D9143813288CBF1023082353
S214002BD02A49013BCA6C180322F47F4240EA0323C9
S214002BE01343CB64264BCA6C1B88C2F303222833DC
S214002BF0013202EB820003EB5303B3FBF0F3C86C25
S214002C00013B072B28BF072320F0EE6040EA036352
S214002C1043F48013CB641B4BB3F90030002B12DB5C
S214002C2003F12800C0F34E030344500800EB4202B1
S214002C30B3FBF2F20B6D072A28BF072223F07003BE
S214002C4043EA02120A6508BDD16C01F0010119437E
S214002C5004D109280FD90A380928B6E7D26CD2075A
S214002C6002D50BB92728B0E7074840F6824120F086
S214002C70EDFD0023ACE70423AAE700BF00300E40BA
S214002C80CA550020CC55002038C702000C4BD3F89C
S214002C90803910B5044633B9012804D909484FF4E1
S214002CA04A6120F0D3FD084A136F23F0070323433D
S214002CB01367064BBDE810401888FFF777BF00BFC4
S214002CC00000C64338C7020000300E40C85500203A
S214002CD038B50389C82B044604D9514840F68421E8
S214002CE020F0B4FDA28823899A4204D94C4840F6C5
S214002CF0852120F0ABFDB4F90C30C82B04DD484824
S214002D0040F6862120F0A2FD6378012B55D1A388DA
S214002D10C82B04D940F68A21414820F097FDE28866
S214002D2042F210739A4204D93D4840F6972120F0AB
S214002D308DFDE3884A2B48D9B3F5FA7F47D340F692
S214002D40C312934294BF4FF000524FF040523549A1
S214002D50B4F90C00CB6C23F0405323F00103002899
S214002D60A8BF43F001031343CB64D1F8EC30A2882C
S214002D7043F44073C1F8EC302B4B1A80CB6E43F013
S214002D808073CB66294BD3F8800900B10420FFF787
S214002D907DFF274B21891980264BB4F90C20A0888B
S214002DA01A80FFF703FFA37BA3B1012B23D01C4897
S214002DB040F6961120F04AFD0FE0022BAFD1A38813
S214002DC00A2BACD940F68F21A6E70022BFE74FF0CA
S214002DD08052BCE7134B184A9A6501226088114658
S214002DE0FFF71EFE054648B90D4840F6CE2120F0F6
S214002DF02DFD284638BD0B4B104AEDE7094AD36B2C
S214002E0043F48063D3636078FFF7D6FDA37AA3F11B
S214002E10200253425341054AC2F89437E9E700BFFF
S214002E2038C7020000300E40C85500200000C643D8
S214002E30CA550020CC55002077402057372110B7C0
S214002E40082838B504460D4604D84FF6FF73CB4025
S214002E50DB0704D4084840F22D4120F0F7FC30236D
S214002E600C2013FB040000F18C40012100F5082023
S214002E7001FA05F5056038BD4EC50200082838B5CC
S214002E8004460D4604D84FF6FF73CB40DB0704D448
S214002E90084840F2FE3120F0D9FC30230C2013FB0A
S214002EA0040000F18840012100F5082001FA05F52C
S214002EB0056038BD4EC50200072810B5044603D984
S214002EC00648522120F0C2FC054AD2F8443423F0CA
S214002ED003032343C2F8443410BD00BF67C7020093
S214002EE0008008400828F8B505460C4616461F46DA
S214002EF004D84FF6FF73CB40DB0704D419484FF4D1
S214002F00B07120F0A3FC26B121462846CFB1FFF7CA
S214002F1097FF05EB4503072C4FEA03134FF00F010D
S214002F2012D8A00006FA00F281400F48184420F09C
S214002F306FFDAEB92146284677B1BDE8F840FFF7E9
S214002F407FBFFFF79BFFE4E7A4F10800800006FAC6
S214002F5000F281400548E9E7BDE8F840FFF78EBF7C
S214002F60F8BD00BF67C7020004800840088008401C
S214002F70074B0422C3F88020BFF34F8FBFF36F8F39
S214002F80044B0021D9664FF4EA401962FEF7A6BB4F
S214002F9000E100E000200040172838B505460C4642
S214002FA003DD0848772120F051FC1F2D84F0010432
S214002FB003D90548912120F049FC044B2B449B0083
S214002FC01C6038BD97C70200C7C70200A001811069
S214002FD010B5044618B91B48912120F037FC237819
S214002FE01B0613F0604F03D01648922120F02EFCEB
S214002FF0E378072B03D91348A32120F027FC0121EF
S2140030004FF4EA40FEF76AFBB4F8013022785BBA68
S2140030109BB243EA02630C4A136000231362D36236
S21400302053634FF00043D3664FF0FF339366074A6F
S2140030300421C2F88011E3785B01DBB282F8023328
S214003040116010BD97C702000020004000E100E0BC
S2140030502DE9F041C3B20126172805460C469046D6
S21400306006FA03F603DD3A48EC2120F0EFFB1CB924
S2140030703748ED2120F0EAFB236823F47C1323F085
S2140030800F031BB13248F22120F0E0FBA37A1B04A9
S21400309013F47C0F04D02E4840F2091120F0D6FB22
S2140030A0E37A1B0513F07E6F04D0294840F20B111B
S2140030B020F0CCFB237B5B0513F0FE5F04D0244896
S2140030C040F20D1120F0C2FB224F637BBE6630201B
S2140030D000FB05702268C0F88020C0F88830E37ACC
S2140030E0A27A1B0543EA0243227B43EA425328F0B6
S2140030F00302C0F88430C0F8982020F073FCFB6E02
S2140031003343FB66237A13B17B6B33437B63637A6B
S21400311013B1FB6A3343FB620E4B1A68237923B163
S214003120DB431B0263F47F431A4063790BB142EA28
S2140031300322A3790BB122EA0302E3791A43054B73
S2140031401A60054A9662DE63BDE8F04120F050BC86
S21400315097C70200002000400020004410B5C3B20C
S2140031600124172804FA03F404DD094840F29711F5
S21400317020F06CFB20F036FC064AD36E23EA0403EC
S214003180D366054B1C62BDE8104020F031BC00BF82
S21400319097C70200002000400020004410B5C3B2CC
S2140031A00124172804FA03F404DD0B4840F2B51195
S2140031B020F04CFB20F016FC084B1A6A224209D17C
S2140031C09B6A34EA03030CBF0124002420F010FCA1
S2140031D0204610BD0024F9E797C7020000200040F3
S2140031E0022838B504460D4603D911484C2120F074
S2140031F02DFB6B791F2B03D90D484F2120F026FBA2
S214003200AB786A789B0143EA82032A781343EA780C
S21400321043EA02132A7943EAC2236A7943EA02336D
S214003220AA79043443EA42432401024A135138BDC2
S21400323031C8020000200640014B1860704700BFEE
S2140032400000C442427801790378002A827870B57B
S21400325014BF04260026002AC27814BF10250025B5
S214003260002A42794FEA023242EA012242EA030287
S214003270837942EA8332C37914BF20240024002BCA
S214003280037A42EA034343EA0603427A43EA050323
S21400329014BF4FF4004100212343002A14BF4FF40B
S2140032A0003200220B431343014A136070BD00BF77
S2140032B0002006402DE9F04180460C461F46164683
S2140032C022B934484FF4A17120F0C0FA3CB9324B11
S2140032D098450CBF31483248FEF70CFF0446402F95
S2140032E04BD009D8A7B1202F3DD0BDE8F0412948E2
S2140032F040F2891120F0AABA602FF6D1B6EB940FEF
S21400330004D9244840F2831120F0A0FA042108E0F2
S214003310B6EB141F04D91F484FF4BA7120F096FA82
S21400332010214E4371081F4D01EB4414B4FBF6F612
S214003330203EB5EBC60F4FEAC60404D215484FF43C
S214003340D07120F083FAD8F8003023F06003C8F874
S2140033500030D8F800302C401F43C8F80070C8F87A
S2140033601440BDE8F081B6EBD40F04D9094840F20A
S214003370791120F06BFA0821D3E70625B4FBF5F3A4
S214003380B34204D203484FF4BF7120F05FFA2946D7
S214003390C7E700BF61C802000008014050410700AF
S2140033A040410500F8FF7F0070B506460C461546FE
S2140033B022B90F4840F28E2120F048FA3CB90D4B56
S2140033C09E420CBF0C480D48FEF794FE04460C4B7C
S2140033D06D00013CB4FBF5F413EA04234FEA042520
S2140033E004D0034840F2B32120F030FA756170BD76
S2140033F061C8020000080140504107004041050036
S214003400070080FF38B5164B984204460D4620D07C
S21400341003F5806398421CD003F58063984218D069
S21400342003F58063984214D003F58063984210D069
S21400343003F5806398420CD003F53053984208D0C9
S21400344003F58063984204D006484FF4337120F0A9
S214003450FDF9EB435B0003F00A03E360E56038BD6B
S2140034600000014061C8020038B5254B254D984242
S21400347004461ED0A8421CD003F50063984218D01C
S21400348003F58063984214D003F58063984210D009
S21400349003F5806398420CD003F53053984208D069
S2140034A003F58063984204D0174840F2424120F06A
S2140034B0CDF940F6AA63E36041F2050200232360DB
S2140034C06260124AA3606361E364A2640C4A2366E6
S2140034D094426367A367E36703D002F500629442F1
S2140034E000D123650023AC42A36506D0084A944267
S2140034F003D002F58062944200D1E36538BD00BF78
S214003500000001400004014061C80200F9FF01000C
S214003510000C014038B5314B984204460D4620D089
S21400352003F5806398421CD003F58063984218D058
S21400353003F58063984214D003F58063984210D058
S21400354003F5806398420CD003F53053984208D0B8
S21400355003F58063984204D0214840F2FD2120F014
S21400356075F92046FFF780FFAB7C1BB1236843F05C
S21400357080432360EB7C1BB12B7D43F08003A36567
S2140035802A8A6B7B1343EA89134363602B7BD5E956
S21400359001122046FFF78EFE6B7D1BB1236843F4B5
S2140035A080332360AB7D1BB1236843F40043236064
S2140035B0EB7D2A7E1B07120502F4E00203F0E043CF
S2140035C013432366636F23F030036367626F6B7E7B
S2140035D0134363672B78E36038BD00BF00000140EB
S2140035E061C8020038B5314B984204460D4618D0E3
S2140035F003F58063984214D003F58063984210D098
S21400360003F5806398420CD003F58063984208D097
S21400361003F58063984204D0254840F2693120F0D3
S21400362015F92046FFF720FFA97B2A8A2368002980
S21400363042F0010214BF4FF48061002113430B4394
S2140036402A7D23602368002A14BF4FF00052002210
S21400365013432360AB7C1BB1EB7C43F08003A36574
S2140036602B7B43F480536360D5E901122046FFF7B5
S2140036709BFE6B7B0BB11023E3606B7D1BB1236855
S21400368043F480332360AB7D1BB1236843F40043CF
S2140036902360EB7D2A7E1B07120503F0E04302F44D
S2140036A0E002134323662B78E36038BD0000014038
S2140036B061C8020013B500230C4601220B2103202B
S2140036C0FFF710FC0023042207210520FFF70AFC61
S2140036D00023042206210520FFF704FC0023042211
S2140036E008210520FFF7FEFB002301220921032005
S2140036F0FFF7F8FB0023012209210520FFF7F2FB64
S214003700002301220C210320FFF7ECFB144B154A83
S214003710C3F80C2C1122C3F8002C0D21C3F8002C82
S214003720032000230422FFF7DDFB002304220E21E2
S2140037300320FFF7D7FB012304220A210820FFF706
S214003740D1FB0721012308460422FFF7CBFB01AA81
S21400375000211E2003F0BAFB0023237002B010BD28
S214003760004002400000010138B51848184C0D46CC
S2140037700121FDF7B3FF17480121FDF7AFFF1648FB
S2140037800121FDF7ABFFD4F890301B0701D420F0E1
S214003790FEFE002304220A210320FFF7A3FB236872
S2140037A043F4C05323604FF4A023C4F87431D4F814
S2140037B0703143F00403C4F87031084B4FF40072C4
S2140037C0C3F8102C00232B7038BD00BF4041050005
S2140037D000400E400035020000550A00004002403E
S2140037E0034B42781A70034B4FF000625A607047E2
S2140037F07112002000E100E007B521F012FB054B36
S21400380001AA1878012123F037FC21F00CFB03B045
S2140038105DF804FB71120020034B1B6813B10348CC
S21400382020F07BBE704700BFECC8020010C9020043
S2140038302DE9F84F834608B920F0A9FE424C227ABB
S214003840012A03D108228BF80020FEE7FF2A03D1C5
S21400385008228BF80020FEE7617A2068013120F00C
S2140038608CFDA17A81460131606820F086FD627A7F
S2140038704A45804603D208228BF80020FEE7A27A4B
S214003880824203D208228BF80020FEE70C22E16871
S2140038902E482F4E5B4600F02BFB9BF80020306036
S2140038A00546002A4ED101220260227AE1682948A4
S2140038B002EB42025B46920000F01AFBA8609BF8FF
S2140038C00050002D3ED13268D2F808A0227AEFB21E
S2140038D0BA421BD82168DAF800004A4620F05DFD9F
S2140038E03268616890684246806820F056FD346809
S2140038F01948A2684FF0004151601168174A1160DC
S2140039005A46002100F0F6F960601BE00C23627A4C
S214003910E16813485F435B4600F0EAFA4AF807009E
S2140039209BF8002072B93268E16892680D48174427
S2140039305B46A27A00F0DCFAB8609BF800200135FE
S214003940002AC0D0BDE8F88F401000201CC9020035
S214003950003A002028C9020072C90200043A00207A
S2140039603DC9020058C902002DE9F04F814685B0D6
S2140039708B4614460AB920F00AFE3C4D697A484642
S214003980013120F0FAFCA97A07460131584620F0AA
S214003990F4FC6B7ABB42804602D208232370FEE713
S2140039A0AB7A834202D208232370FEE7DFF8C0A07A
S2140039B0DAF80000002240682346114620F02EF96F
S2140039C02678002E50D1DAF800202B7A12689A4218
S2140039D048D3112323703546DAF8003003A9586817
S2140039E020F0A1F89DF80C300BB120F0D0FD284651
S2140039F005B0BDE8F08F02FB06F04946185820F0E7
S214003A001CFD0C2218B9152323700546E4E7013681
S214003A10DAF8000001688368B142ECD802FB01F6D0
S214003A2001319A190160A87A009208F101086A7AB1
S214003A300193804507F1010728BF8046BA4228BF98
S214003A403A469859494620F0A8FC009B424698689A
S214003A50594620F0A2FC009B00225A60019B9D590B
S214003A602270B9E70C22D3E70025C0E740100020FB
S214003A70003A00202DE9F74F8046894614460AB9D9
S214003A8020F085FD264D404620F083FC6B7A984258
S214003A9003D90E232370002539E0484620F079FC30
S214003AA0AB7A9842F5D81F4E30680022406823460D
S214003AB0114620F0B3F82778002FECD1BA464FF025
S214003AC00C0B326813685FFA8AF5AB4212D993681A
S214003AD00BFB05F54146585920F0AFFC0AF1010AE8
S214003AE00028EED133689B682B444946986820F03E
S214003AF0A4FC80B10E27002533682770586801A9FA
S214003B0020F011F89DF804300BB120F040FD284657
S214003B1003B0BDE8F08F33689B685D59ECE700BFE3
S214003B2040100020003A0020094B012210B51A7000
S214003B30044608B920F02BFD0023237000F0C8F9D6
S214003B4020F013F92046BDE8104000F02FBB00BF60
S214003B5027560020014B1868704700BF083A00201F
S214003B602DE9FF41044608B920F011FD002323701B
S214003B70204601F057F923782BB1204604B0BDE863
S214003B80F04101F017BD2B4E3368002BF5D1FFF73F
S214003B90E1FF234601460546B422274800F0A8F96F
S214003BA0237830600146002BE7D14FF0FF3804271A
S214003BB0CDE9013821480394342300972A4600F0C3
S214003BC0CDF92378002BD8D131681D48CDE9007394
S214003BD0CDE9028428232A46243100F0BFF9237851
S214003BE0002BCAD131681748CDE90073CDE90284AD
S214003BF038232A466C3100F0B1F92378002BBCD16B
S214003C0031681148CDE90073CDE9028401232A46C4
S214003C10903100F0A3F92378002BAED131680B4821
S214003C20CDE90073CDE9028424232A46483100F00A
S214003C3095F9A2E70C3A002082C9020094C9020056
S214003C40A3C90200B0C90200BDC90200CFC9020064
S214003C502DE9FF410A9E07460C4690461D460EB9C2
S214003C6020F095FCB8F13F0F02D808233370FEE72A
S214003C7015B107233370FEE71B4B1B6843B930466C
S214003C80FFF76EFF33781BB1002004B0BDE8F0816B
S214003C90FFF760FF4FEA88020146C4B90823039085
S214003CA0CDE90046114800F03DF93378002BEBD102
S214003CB00399054633460E48E82200F019F9337892
S214003CC0002BE1D1C0E93758C0F8E470DDE714F006
S214003CD0070024F0070518BF082005441444641B99
S214003CE04FEA9408E6E700BF0C3A0020DCC9020061
S214003CF0E9C902002DE9F34180460E4615460AB989
S214003D0020F045FC164F3B6843B92846FFF728FFCE
S214003D102B781BB1002002B0BDE8F0813868294638
S214003D2020F0E6F92B780446002BF3D12A464146CC
S214003D3001F0F4FF2B783BB916B1337803F001039A
S214003D4084F830302046E6E7386801AA214620F09D
S214003D5035FA9DF804300BB120F019FC0024F1E789
S214003D600C3A002013B5044600B9FEE701AA01216B
S214003D7002F020F89DF804300BB120F008FC064B4A
S214003D8001AA1868214620F019FA9DF804300BB1F4
S214003D9020F0FDFB02B010BD0C3A0020F7B5074638
S214003DA00D4614460AB920F0F2FB15B1072323701E
S214003DB0FEE7144E33683BB92046FFF7D1FE237862
S214003DC013B1002003B0F0BD30682146243020F047
S214003DD08FF922780546002AF3D12346394602F0A9
S214003DE011FB23785BB1306801AA2946243020F005
S214003DF0E5F99DF804300BB120F0C9FB00252846F4
S214003E00E0E700BF0C3A002013B5044600B9FEE711
S214003E1001AA012102F046FB9DF804300BB120F008
S214003E20B6FB074B186801AA2146243020F0C6F9D5
S214003E309DF804300BB120F0AAFB02B010BD00BF05
S214003E400C3A002010B504461FF0CCFD024B1C6057
S214003E50BDE810401FF0CCBD103A002010B51FF092
S214003E60C1FD074B07491A6843F2390401FB0244B7
S214003E7024F000441C601FF0BBFD204610BD00BFB0
S214003E80103A00206D4EC641034A43F2390302FB46
S214003E90003020F0004070476D4EC64170B50546B4
S214003EA00E461FF09FFD094B1A6814462CB9EA60AF
S214003EB01D601FF09DFD347005E0AC4204D11FF07C
S214003EC097FD1523337070BDE468EFE7143A0020C1
S214003ED007B5064801A9FFF7E1FF9DF804300BB1CE
S214003EE020F055FB03B05DF804FB00BF5010002027
S214003EF030B50C4685B011461D461BB9039220F01E
S214003F0046FB0399064801950023009304220123EB
S214003F10002C18BF20461FF02BFF05B030BD00BF99
S214003F205010002073B5DDE906650C4611461A46AA
S214003F302DB9CDE9001320F02AFBDDE90012064872
S214003F400123002C18BF2046CDE9066502B0BDE867
S214003F5070401FF00DBF00BF501000202DE9F34148
S214003F60DDE90A8615460C461A46DDE908372EB9FD
S214003F70CDE9002320F00BFBDDE9002314B90A236A
S214003F803370FEE70021C4E907112170064908973F
S214003F90002D18BF29462046CDE9098602B0BDE8A7
S214003FA0F0411FF039BF00BF501000202DE9F34745
S214003FB0DDE90E961546DDE90C8A1A460C46DDE963
S214003FC00A372EB9CDE9002320F0E1FADDE9002317
S214003FD014B90A233370FEE70221217007490A97B5
S214003FE0002D18BF29462046C4E907A9CDE90B864F
S214003FF002B0BDE8F0471FF00FBF00BF5010002012
S2140040002DE9F04F85B0074691469846009109B9CC
S21400401003AB0093009B1F600E9B13B90DF10B03BF
S2140040200E930E9A00231370002F00F09E80B9F1B5
S214004030010F00F09C80B9F1240F00F298803878C8
S2140040401FF083FE3C46012822D023782B2B24D059
S2140040502D2B24D04FF00008B9F1080F237825D077
S214004060B9F1100F4BD0B9F1000F5FD1302B56D1FC
S214004070637803F0DF03582B04F1010653D1A078D0
S2140040801FF055FE012800D1A61C4FF0100910E0C5
S21400409014F8010F1FF059FED5E70134DAE7B8F13E
S2140040A0010F0CBF01344FF00108D5E7302B3DD18E
S2140040B0661C4FF0000AD346019616F8015B2846A8
S2140040C01FF01CFE01283ED128461FF02AFE0128BC
S2140040D02ED1303DEDB2A94535D9BAF1000FEBD15E
S2140040E0244B53F8291059452AD30BFB09F3EB1838
S2140040F09B462CBF4FF0010A4FF0000ADCE7302B3E
S21400410014D1637803F0DF03582B04F10106D0D1F5
S214004110A0781FF00CFE0128CBD1A61CC9E72646C6
S2140041204FF00A09C5E74FF00809C2E72646C0E780
S21400413028461FF0F0FD01280CBF573D373DC9E764
S2140041404FF0010AB8E7019BBAF1010F08BF4FF024
S214004150FF3B9C4218BF1F46009B1F600E9B83F8C8
S2140041600080584605B0BDE8F08FBB46F9E79B4691
S214004170F7E700BFFCC90200F8B50F2313700A4B1F
S2140041801B681C6806460F46154654B160683946DB
S214004190B047012803D100232B702046F8BD2468C1
S2140041A0F3E70024F9E700BF183A0020F0B504460C
S2140041B085B008B920F0EBF9234E73680027277006
S2140041C0002B3ED0394602201FF065FC39460546D6
S2140041D003201FF060FC2840C5B2394604201FF0BB
S2140041E05AFC2840012802D006232370FEE7FFF77A
S2140041F0B1FC2346014605462C221448144FFFF70F
S21400420077FE23783860E3B97368029333680193C6
S2140042100423011D00930F48039408232A46FFF742
S2140042209DFE217869B90C483D682246FFF762FD7D
S214004230A86223782BB9386805B0BDE8F0401FF0B7
S21400424006BC05B0F0BD00BF6410002090CA020096
S214004250183A0020A4CA0200BCCA0200F7B50546F8
S2140042600C4609B920F093F915B90A232370FEE726
S214004270174E306800222346806A11461FF0CEFC97
S2140042802378A3B9696813482246FFF775FF237899
S2140042900F2B0ED015232370336801A9986A1FF0E0
S2140042A042FC9DF8043013B1227802B9237003B0A3
S2140042B0F0BD3068214604301FF01AFF277801460B
S2140042C0002FE9D1456030681FF0C4FB2770E3E794
S2140042D0183A002009450200F7B505460E46144672
S2140042E00AB920F054F915B90A232370FEE7114FD6
S2140042F0386800222346806A11461FF08FFC237818
S214004300ABB9284622463146FFF736FF054600B1D0
S21400431045683B6801A9986A1FF005FC9DF80430C3
S21400432013B1227802B92370284603B0F0BD0025E9
S214004330FAE700BF183A002038B505460C4609B91A
S21400434020F025F915B90A232370FEE722462946F0
S2140043500248BDE83840FFF7BFBF00BF094502006E
S21400436037B51446094A01ABD2880020FFF7C0FDD6
S2140043709DF8045020603DB9054920F022F8C4E9B4
S2140043800155012003B030BD0020FBE76C10002073
S21400439098E602000A4B1B6870B59C6A06460CB984
S2140043A0204670BD65686B680BB9A468F7E7296896
S2140043B0304620F042F808B10835F4E76868F0E7C0
S2140043C01C3A0020F0B5002187B0044602201FF0FA
S2140043D062FB0021054603201FF05DFB2840C5B2A6
S2140043E0002104201FF057FB2840012802D0062396
S2140043F02370FEE71F4D2048A968204E234638222A
S214004400FFF776FD237830600746002B2FD1AA8869
S214004410A9681B4823469200FFF76AFDF8622378D6
S2140044202BBBEA88A9681648376823460432FFF78C
S2140044305FFD38632378D3B93168124881F8343089
S2140044408B62CDE90434104B03936B8802932B8860
S214004450019304230093AA680C23FFF7A7FD217895
S21400446029B90A4835682246FFF744FC686207B057
S214004470F0BD00BF6C100020CECA02001C3A00201F
S214004480E0CA0200F4CA0200614300000ACB020040
S2140044902DE9F34706460F4614460AB920F077F88A
S2140044A017B90A232370FEE77B6813B934232370F9
S2140044B0FEE766B90026DFF830812146D8F800000E
S2140044C01FF016FE2378054683B1112307E0304619
S2140044D01FF05FFF434BDB88834204D8082323701A
S2140044E002B0BDE8F0870028E4D0E4E70EBBD0F8C1
S2140044F00090B9F1000F00D1FEE73968A1B10B4674
S2140045001E4613F8012B5F2A01D0002AF8D1354B3E
S214004510761ADA88B3B29A4230D9B6B232464846EC
S2140045201FF03BFF08B9FEE7FEE7002309F8063058
S2140045302E68D8F8000000222346406A11461FF075
S2140045406DFB2378E3B9D8F80030D3F828903146CD
S214004550B9F1000F1DD128681FF033FFD8F80030DE
S2140045606F609A6A586AAA6021469D621FF0DBFA5D
S2140045702378002BB4D020F00AF8B1E70823237084
S214004580D8F8000001AA29461FF018FE9DF804304E
S214004590EFE7D9F800001FF050FFD9F80430BB420F
S2140045A010D078B107F1080A5AF8043C13B9D9F8C4
S2140045B00890CCE75AF8080CFFF7ECFE0AF1080A58
S2140045C00028F1D015232370D8F8003001A9586AC6
S2140045D01FF0A9FA9DF80430002BD1D01FF0D7FFAA
S2140045E0CEE700BF6C1000201C3A00202DE9F74FE4
S2140045F004460F4690461E460BB91FF0C8FF14B976
S2140046000A233370FEE7DFF8BC90D9F800000022DA
S214004610406A334611461FF001FB3578002D47D11E
S214004620D9F800B0234ADBF82C109288334620468F
S2140046301FF07FFF33788246002B37D1B0B9342382
S2140046403370D8F804201C482421B8475446D9F8BB
S214004650003001A9586A1FF066FA9DF804300BB1C5
S2140046601FF095FF204603B0BDE8F08FDBF82C3036
S2140046701868FFF78FFE044638B90F233370D8F852
S21400468004200E481F21B847E1E7D9F8001043463A
S214004690C96A3A465046A047431C0446D7D133233E
S2140046A03370D8F8042006482C21ECE72C46CEE7D9
S2140046B00024D7E76C1000201ACB02003ECB020085
S2140046C05DCB02001C3A0020024B00221A601AF052
S2140046D01FBA00BF203A002000B9FEE7044B1B6853
S2140046E0002B14BF0022092202701846704700BF34
S2140046F0203A0020014B1860704700BF203A002087
S2140047002DE9FF41466DF388DB0605460C4602D0D0
S21400471009230B70FEE7338913B109230B70FEE7FC
S214004720F78A17B109230B70FEE7036E13B90A2345
S2140047300B70FEE7D0F8508040783B463A4664213E
S21400474022F0A7F840F2E953984202D809232370D2
S214004750FEE703AB009339461948019420236822EC
S214004760FFF7E0FB0746A86530B3D8F800302146CF
S214004770284698472378FBB9D8F8083021462846BB
S21400478098472378C3B9D8F8043021462846984776
S21400479023788BB9B28CB1690A482346D200FFF75A
S2140047A0A7FB386023783BB9F28CB16906482346EC
S2140047B0D200FFF79DFB786004B0BDE8F08100BF33
S2140047C089CB02009ACB0200A6CB02002DE9F04F5F
S2140047D0D0E915638DB00F460593F18C036D0693F3
S2140047E00546B46A22F00DFE00233B708DF8243097
S2140047F006238DF82730687809AB0DF127020AA941
S21400480022F08FFC9DF82430DBB1002309AA0AA908
S21400481006F130008DF8243021F093FE9DF8243008
S214004820002B40F08A8009AB687806220AA922F09D
S21400483094FC9DF824305BB109233B700DB0BDE8B5
S214004840F08F687809AA0AA922F0A0FC0128DCD11A
S214004850D5E915B80A9BC4F88830BDF82C30C4F8E2
S2140048608C30DBF828300793BBF82430D8F800608B
S21400487003F10053013BC8E9026606EBC3034FF0A1
S2140048800009C8F81030CA46BBF824201FFA89F37E
S2140048909A4254D8079AD8F8083093613B78002B90
S2140048A0CCD1059A9384D5E91531D88C4A68D3F8CB
S2140048B028C00A6200F10053013B02EBC303C1E9C2
S2140048C00522CB6102EBC00011464FF0004E884235
S2140048D057D1CCF81C206423059A2366002382F85F
S2140048E02630636A4FF0FF3363622362636182237C
S2140048F0A3620123E360636843F4003343F0C0031C
S2140049006360636843F4806343F003036360226973
S214004910214B13432361236923F080032361BFF3F4
S2140049204F8F236843F01C032360BFF34F8F069B13
S21400493039461B682846984780E725237DE7C6F852
S21400494004A00023CDE902A7CDE900AA40F2EA526E
S2140049506421284607F0A6FA3B78002B7FF46EAF5A
S2140049603060336823F001033360D8F810309E427D
S21400497002BF336843F00203336009F101090836C9
S21400498082E78B42C1F804E002BF5E6846F08046CC
S2140049905E6008319BE700BF1F0818012DE9FF473E
S2140049A0036E1D78FF2DD0E912A780460C4645D130
S2140049B04FF0000900945FFA89F503AB7E6A022285
S2140049C029464046B047237853B109F10109B9F1A9
S2140049D0200FEFD14D460F2323701FF0D8FD22E0A5
S2140049E000940DF10E037E6A032229464046B04726
S2140049F02378002BE9D1BDF80C301BB143F6FF72CB
S214004A0093426BD1BDF80E100029DED043F6FF723C
S214004A1083B99142D9D0BDF80E204FF6FF739A4263
S214004A20D3D01F2DD7D08AF80650237843B104B0D0
S214004A30BDE8F08793424AD19942EBE78AF80650E0
S214004A4000940022BE6A4FF4004329464046B04711
S214004A502278002AEBD100940DF10E037E6A2946D7
S214004A604046B0472378002BE1D1BDF80E30DFF882
S214004A7080A003EA0A03ADF80E304FF00309BDF834
S214004A800E30B3F5004F1ED1B9F1000F02D122232C
S214004A902370CCE702201FF021F900940DF10E03DD
S214004AA07E6A002229464046B0472378002BBED1B6
S214004AB0BDF80E3009F1FF390AEA0303ADF80E30EF
S214004AC01FFA89F9DBE7B9F1000FB0D1DFE74FF63F
S214004AD0FF718B429FD093429DD0A2E74FF6FF72A4
S214004AE093429ED1BDF80E30002B94D16DE700BFE7
S214004AF00080FFFF07B5104B1B78012B07D1FDF791
S214004B0019FEB0B94FF0FF3003B05DF804FB01A802
S214004B1000F02AFA9DF804100029F3D1012001AA1A
S214004B2000F098FD9DF80400003818BF01204042B0
S214004B30EAE76FF00500E7E730560220084B1878E2
S214004B4001280AD1074B1B78012B07D1064B1B788F
S214004B50002B14BF0320022070470020704700BFC0
S214004B602D560220305602203156022007B5FDF79A
S214004B70E1FD48B9074B1B78012B02D001A800F0D5
S214004B8077F94FF0FF3001E06FF0050003B05DF8F5
S214004B9004FB00BF3056022037B50546FDF7CAFDB8
S214004BA018B10024204603B030BDC5B934201DF02E
S214004BB0F7FA04460028F4D001231A4980F830306A
S214004BC001AA204601F0AAF89DF80430FBB194F83B
S214004BD03030012BE5D120461DF0EAFAE1E7AC685B
S214004BE074B934201DF0DCFA04460028D9D001231D
S214004BF084F8303029680B4B002908BF1946DFE7D8
S214004C00EB68332BCDD914F00303F1D0C9E735B1E7
S214004C106B68DB0703D5012384F83130C2E7002335
S214004C20FAE700BFA3CC020073B504460E4615464D
S214004C30FDF780FD18B10024204602B070BD002CA0
S214004C40F9D0D5B930201DF0ABFA04460028F2D0D2
S214004C500123164980F8283001AB3246204601F081
S214004C60D1FB9DF80430002BE6D094F82830012BB9
S214004C70E1D120461DF09CFADDE7AC6874B930201F
S214004C801DF08EFA04460028D5D0012384F828307B
S214004C902968064B002908BF1946DDE7EB682F2B6D
S214004CA0C9D914F00303F1D0C5E700BFF4CB020066
S214004CB02DE9F04F8DB081468A461646FDF73AFD3F
S214004CC008B1002440E0B9F1000FFAD0002E3FD121
S214004CD04FF49E701DF064FA04460028F1D00126B9
S214004CE080F834614FF480601DF05AFA05460028BB
S214004CF0E7D0434F84F835614FF480681F260DF1E6
S214004D002C0B00223F495B4604F1DC0000F0AAFEB3
S214004D109DF82C20002A52D10723CDE906233A4BD2
S214004D20CDF820B003EA9803CDE90223CDE90422AA
S214004D305346CDE900654A463946204601F0AAFEAC
S214004D409DF82C30002B3AD120460DB0BDE8F08FF0
S214004D50B468E4B94FF49E701DF022FA04460028A9
S214004D60AFD0012384F83431D6F81480B8F1000FA0
S214004D702DD14FF480601DF013FA054678B994F8EB
S214004D803431012B9DD120461DF012FA99E7F368C5
S214004D90B3F59E7F95D314F00303E3D091E7012388
S214004DA084F835314FF480683768154BB669002FA4
S214004DB008BF1F46FEB1731C1FD0372E17DD94F8B0
S214004DC03531012BDBD128461DF0F2F9D7E73569DE
S214004DD04DB940461DF0E4F905460028CFD0012322
S214004DE084F83531E0E715F00703F9D0C7E7C6F1D8
S214004DF03706F6B283E71F2681E740267FE700BF27
S214004E00FECB020008CC0200FEFFFF3F034B1B78E0
S214004E10012B06BF024B1868002070473056022050
S214004E209C3F002070B5044608B91FF0B0FBFDF7A4
S214004E3081FC054610B120232370FEE70A4B1B7841
S214004E40012B02D00223237070BD084E3378F92B55
S214004E5001D91E23F7E71EF0C5FD33780133337002
S214004E601EF0C6FD2570EFE73056022031560220B0
S214004E7070B5044608B91FF08AFB184B1E78012E41
S214004E8002D013232370FEE7154B1B88022B02D893
S214004E9009232370FEE7134D2B7813B11F232370CD
S214004EA0FEE71EF0A8FD10B11F232370FEE701F0F9
S214004EB0C5F80D4B0D4A18700D4B2E7018700C234C
S214004EC058430C4B1B5813600B4A136001F0DAFB77
S214004ED019F048FEBDE870401FF059BB2D56022061
S214004EE0DE550020305602202F560220A03F00201C
S214004EF02E560220B43B00209C3F002030B1436871
S214004F00C1F8D8308368DB68C361704791F83030E9
S214004F10022B03D0072B05D0034B00E0034BC1F850
S214004F20D8307047024BFAE7ECEF020018CC0200CC
S214004F30D2DA0200044BC1F8D83018B1826802B148
S214004F40D368C361704700BFECEF0200054B4022F8
S214004F500021013AC3E90011198103F10C03F8D1CD
S214004F60704700BFB43B002070B5044608B91FF078
S214004F700EFB944D6A68D2B12B68934E4BB923460C
S214004F80296B92489200FEF7B3FF306023780BB18E
S214004F9070BD33608E4B32681A608E4A6B68136041
S214004FA08D498E4A9B0013600A6813440B602A8959
S214004FB0B2B12346296B8A481201FEF799FF894B46
S214004FC018602378002BE3D1874B884A18602B891A
S214004FD013808149864A1B0113600A6813440B60DC
S214004FE06A69002A27D02B69824E002B5BD12346A4
S214004FF0296B81489200FEF77BFF30602378002BF8
S214005000C6D17E4B2A7E1A707D4BEA691A607D4BAC
S21400501032681A606B69EA6864215A43B2FBF1F29F
S21400502079490A60794A6C491360794A9B00136093
S2140050300A6813440B606A6A002A28D02B6A754EE9
S214005040002B32D12346296B73489200FEF750FF9F
S21400505030602378002B9BD1704B95F828201A706F
S2140050606F4B32681A606B6AEA6864215A43B2FB77
S214005070F1F26C490A606C4AE96A13606B4A9B005D
S21400508013606B4A116054490A6813440B60694EFA
S2140050906B6B336019F018FE1BF0A0FB054630B1B1
S2140050A00123237074E73360ABE73360D4E71BF06B
S2140050B065FC3668604BB0420246186002D209238F
S2140050C02370FEE76DD02B46002001211CF0AEFEBB
S2140050D070435A4BB6F57A7F186008D932460023DB
S2140050E0002001211CF0A2FE4FF47A754543544B74
S2140050F0544A1D6000231370534A1370534A1360BA
S214005100534A1360534A1370534A1370534A204647
S214005110137001F0D3FE0A23B0FBF3F0504B186077
S214005120217800297FF434AF2A4B1A68002A3AD136
S2140051304C4B00251D7000F079FFFFF707FF4A4B28
S2140051401D604A4B1D80294B1B88002B33D1484AD3
S21400515000231360474A1380474A1360474A138068
S214005160474A1360474A2046138001F063FC2378C1
S214005170002B7FF40DAF204601F050FA2378002B69
S2140051807FF406AF204601F08FFF2378002B7FF4D4
S214005190FFAE00F00BFB1FF043FE3B4B01221A70E4
S2140051A0F6E6284695E70A4B18680028C0D0920015
S2140051B026F015FFBCE7204600F090FC2378002B75
S2140051C0C5D0E5E678100020283A00201FCC020063
S2140051D02C3A0020303A0020243A0020343A0020AE
S2140051E032CC0200383A00203C3A0020CE5500204F
S2140051F0403A0020483A002044CC020028560220BC
S214005200443A00204C3A0020503A0020543A0020FD
S214005210583A0020643A00205DCC0200295602204D
S214005220683A00206C3A0020703A0020743A002059
S214005230603A00205C3A0020A43A00207C3A002025
S214005240783A002030560220315602209C3F00203B
S214005250A03F00202E5602202F5602203256022053
S214005260B43E0020355602209C3B0020D25500203C
S214005270AC3B0020D4550020B03B0020D655002083
S214005280B83E0020D85500202D56022090F8333026
S2140052900B490C22534330B5CA58CC1832B90125F5
S2140052A02581C0E90422C850606030BD25890135DB
S2140052B025810024026144615061C850F5E700BFB3
S2140052C0B43B002090F833200B490C235A4330B5EA
S2140052D08C588B1834B901251D81C0E904448850C8
S2140052E0586030BD1A8901321A81002202615A685C
S2140052F042611061F4E700BFB43B002010B50446DD
S21400530090F8330000F0AAFE084B94F833201B7880
S2140053109A42204606D1FFF7D5FF2046BDE810404A
S21400532026F0F1BDFFF7B2FFF7E700BF2E560220CA
S21400533070B50446D4E9043590F83300124A0C21BF
S214005340BDB973B94143551853502B816B6000F0BB
S2140053509BFE0023C4E904332046BDE8704026F0D7
S214005360EBBD484316183189013931815D61135010
S214005370EFE701FB00221189013911812B610BB97E
S2140053805560E6E75D61E4E7B43B002013B50446EC
S21400539070B1084B1B78012B0AD10023CDE90033EE
S2140053A0054A816F0346054826F0F1FC044B1C6055
S2140053B002B010BD325602200D560000843A00207E
S2140053C0803A0020F8B50446A8B1114B1B78012B93
S2140053D011D1456F0F4E7DB90F4B1F681BF0CEFAEB
S2140053E032682B46511E0D461946E7FB00512846EB
S2140053F01CF01CFDA067F8BD1BF0C0FA3268002345
S214005400511E0E461946E5FB00613046F0E700BF28
S214005410325602205C3A0020B43E00202DE9F347C5
S2140054205A4B1B78012B00D0FEE7594B93F80080AF
S214005430B8F1000F40F08A801EF0D4FA554F564C53
S21400544097F800A0DFF86091544D064600F0F6FD90
S2140054504028034638707CD00C20DFF85081434348
S214005460BAF1400F58F80330236003D101F0FCF97D
S214005470AFF3008020682A6899F8003090420DD17A
S21400548033B1836F0BB9FFF79DFF2068FFF77EFFF0
S214005490304602B0BDE8F0471EF0AABA1BB3DFF8EC
S2140054A01091D9F800309B6FEBB13D4801A91BF075
S2140054B013FA30B9D9F80030019A39489A671BF0C8
S2140054C0C7F9D9F800309A6F6AB993F8330000EB41
S2140054D0400008EB80001FF09EFD3B780C225343F3
S2140054E058F8033023602268D2F8AC300133C2F893
S2140054F0AC302C4A1368013313603B78402B3AD00B
S2140055002B682268934215D0A3B119F019FB2B68BB
S214005510D3F8B430984226D319F012FB2B68D3F890
S214005520B430C01A2A68D2F8B830C2F8B0001844AE
S214005530C2F8B800246819F003FBC4F8B40019F0E8
S21400554050FB30461EF054FABFF36F8F02B0BDE832
S214005550F08799F80030C4F80080002BC9D01048B6
S2140055601BF076F9C5E719F0EBFA2B68D3F8B420F0
S214005570D2431044D6E701F06FF92C681CB119F03D
S214005580DFFAC4F8B400AFF30080D8E73056022044
S214005590315602202F560220A03F00209C3F0020BC
S2140055A0843A0020A43F002032560220B43B00205C
S2140055B0803A002070B5044608B91EF0E8FFFDF7F3
S2140055C0B9F810B120232370FEE70E4B1B78012B91
S2140055D002D00223237070BD0B4E33780BB91F2305
S2140055E0F8E71EF0FFF93578013DEDB235701DB1D4
S2140055F01EF0FEF92D23EDE71EF0FAF9FFF70EFF79
S2140056002570E8E7305602203156022038B50E4B9A
S2140056101B78012B0D4616D11EF0E4F90023AB676C
S2140056200A4B1B6893F833300446094803EB4303E0
S21400563000EB83001FF0EFFC20461EF0D9F9BDE812
S2140056403840FFF7EBBE38BD32560220803A0020C5
S214005650B43B00202DE9F04105460E4614460AB933
S2140056601EF095FF002323701EF0BCF9DFF878804B
S2140056700746E6B1C8F80060174B012D1A781FD010
S214005680012A0FD1154C16482168002578311D7067
S2140056901BF022F908B123689D6711481BF0D8F863
S2140056A0002323603846BDE8F0411EF0A1B920462D
S2140056B001F004FC0A23B0FBF3F0C8F80000DBE7B7
S2140056C0002AEFD1074C1D702068FFF77BFE20688C
S2140056D0FFF75CFEE6E700BF32560220803A002065
S2140056E0843A00209C3F0020B43E0020F7B50446D4
S2140056F00D4611B31BF042F9114B1A680026571ECF
S21400570046F1FF31E5FB0071334638461CF08EFB50
S214005710CDE9006601460B4A234604F1540026F004
S21400572036FB08B11EF033FF0323204684F83230E0
S21400573003B0BDE8F040FFF7FBBD0223F5E700BF6E
S2140057405C3A00204350020037B5144D0B46114614
S2140057502A6882F83030002382F83130104A1278F6
S21400576004463AB10F4A10481268019193671BF03D
S2140057706FF801992868FFF7B9FF64B1296804F14A
S2140057800800CC621FF05EFB2968204603B0BDE827
S2140057903040FFF7B3BB2B68DC62F5E79C3F002088
S2140057A032560220803A0020843A0020774B1B783D
S2140057B082B0DBB28DF80530754B1B68DBB28DF816
S2140057C00730744B1B78DBB28DF80530724B1B78B4
S2140057D0DBB28DF80530714B1B68DBB28DF80730F5
S2140057E06F4B1B6ADBB28DF807306E4B1B78DBB253
S2140057F08DF805306C4B1B78DBB28DF805306B4BA3
S2140058001B88DBB28DF80630694B1B88DBB28DF83F
S2140058100630684B1B78DBB28DF80530664B1B886C
S214005820DBB28DF80630654B1B88DBB28DF8063090
S214005830634B1B88DBB28DF80630624B93F828303A
S214005840DBB28DF80730604B1B78DBB28DF8053085
S2140058505E4B1B88DBB28DF806305D4B1B88DBB2D7
S2140058608DF806305B4B1B88DBB28DF806305A4B42
S2140058701B88DBB28DF80630584B1B88DBB28DF8E0
S2140058800630574B1B88DBB28DF80630554B5B8DC8
S214005890DBB28DF80730544B1B78DBB28DF8053041
S2140058A0524B1B88DBB28DF80630514B1B78DBB2AF
S2140058B08DF806304F4B1B6ADBB28DF807304E4B27
S2140058C01B78DBB28DF805304C4B1B88DBB28DF8AD
