:1000000000100020551D00006D8600006D86000068
:100010006D8600006D8600006D8600006D86000014
:100020006D8600006D8600006D8600006D86000004
:100030006D8600006D8600006D8600006D860000F4
:100040006D8600006D8600006D8600006D860000E4
:100050006D8600006D8600006D8600006D860000D4
:100060006D8600006D8600006D8600006D860000C4
:10007000294F00006D8600006D8600006D8600002F
:100080006D8600006D8600006D8600006D860000A4
:100090006D860000612400006D8600006D86000002
:1000A0006D8600006D8600006D8600006D86000084
:1000B0006D8600006D8600006D8600006D86000074
:1000C0006D8600006D8600006D8600006D86000064
:1000D0006D8600006D8600006D8600006D86000054
:1000E0006D8600006D8600006D8600006D86000044
:1000F0006D8600006D8600006D8600006D86000034
:100100006D8600006D8600006D8600006D86000023
:100110006D8600006D8600006D8600006D86000013
:100120006D8600006D8600006D8600006D86000003
:100130006D8600006D860000091C00001D86000011
:10014000013800D0FCE770472DE9F04F1F4600232F
:10015000044688464FF0000A4FF0000B2DED028B4D
:100160009DB018939F4B13921B681846059308F097
:10017000ACFD0546CDF85C80179B1A782B2A4ED033
:100180003BD80D2A34D8082A34D8002A3ED0002380
:100190000A93179E3378302B40F0B080737803F0C9
:1001A000DF03582B68D10A9B17A9029720460193B9
:1001B00018AB8D4A009319AB06F078FA10F00707D8
:1001C000054605D0062F2CD10136002317960A9339
:1001D000139B002B40F08E850A9BEBB152460BF12E
:1001E000004343EC102B1DB0BDEC028BBDE8F08F3B
:1001F000202ACCD101331793BEE72D2AC7D1012283
:100200000A925A1C17925B78002BC2D1139BCDF82F
:100210005C80002B40F06C8552465B46E1E7002293
:10022000EEE7189A3AB135211AA809F048F818995A
:10023000204606F00DFD013F042F06D8DFE807F049
:100240000A0314170A00DDE91AAB2807C0D54BF0E2
:10025000004BBDE7DDE91AA3199A23F4801302F2DB
:10026000334243EA025BF0E7DFF880B1EDE76FF07D
:10027000004B4FF0FF3AE8E7179B5A1C17925B7848
:10028000302BF9D0002BA3D001234FF000090493A9
:100290000A22179B4F46CDF81C90089317980678B2
:1002A000A6F13003D9B209292AD92A46059909F0BD
:1002B00027F9A0B3002032463D4603460590652A43
:1002C00001D0452A18D11DB9049A02439ED00025B9
:1002D000DDF85C8008F10102179298F801202B2AC2
:1002E00075D02D2A7BD04FF0000CA2F130010929E6
:1002F00040F28280CDF85C8000269DE00023C4E7B8
:10030000082F00F1010007F10107D4BF079902FB94
:1003100009391790DCBF02FB01330793BEE7179B37
:100320005A1917925A5D002F36D03D460590A2F11A
:100330003003092B12D90123C1E7179B01305A1C46
:1003400017925A78302AF8D0A2F13103082B00F224
:10035000D68405900020179B05460893303A00F19B
:10036000010313D0059900EB050E19442B460591A6
:100370000A21734512D12B180135082B05441CDCCA
:1003800007990A2303FB012307930023179A1846B2
:10039000511C17915278CAE73846D3E7082B04DC82
:1003A000079E4E4307960133E3E703F1010CBCF1CE
:1003B000100FD8BF01FB09F9F5E7102DDCBF0A23A8
:1003C00003FB0929E1E70023059301237CE74FF0B4
:1003D000000C08F10202179298F8022085E74FF00E
:1003E000010CF6E7849F0000949D00000000F07F60
:1003F000179A511C17915278302AF9D0A2F1310185
:1004000008293FF679AFA2F1300E179A0692179A93
:10041000511C17915278A2F13006092E37D9069E49
:10042000891B44F61F66082902DC7645A8BF76467C
:10043000BCF1000F00D07642002D4DD1049901434C
:100440007FF4C6AE002B7FF4E1AE692A27D024DC0E
:10045000492A24D04E2A7FF4D9AE9F4917A808F024
:1004600098FD00283FF4D2AE179B1B78282B2DD186
:100470001AAA9A4917A808F0A0FD052826D11B9BA7
:10048000DDF868A043F0FF4B4BF4E00BA0E60A2137
:1004900001FB0E2EAEF1300EB9E76E2ADBE7904974
:1004A00017A808F076FD00283FF4B0AE179B17A8F8
:1004B0008C49013B179308F06CFD10B9179B013371
:1004C0001793DFF830B24FF0000A81E6864801F05A
:1004D0002BFA5BEC10AB7BE6059B002F08BF2F4689
:1004E000102D0798A6EB0303A846A8BF4FF01008ED
:1004F000069307F06FFC092D82468B4613DD7B4B7C
:1005000003EBC80353E9122307F0DEFC82468B4657
:10051000484607F05FFC02460B465046594607F036
:100520001DFB82468B460F2D38DC069B002B3FF4CB
:100530004FAE24DD162B0BDC6C49524601EBC30198
:100540005B46D1E9000107F0BFFC82468B463FE6DF
:10055000C5F12503069A934220DBC5F10F05634CD4
:1005600052465B4604EBC501D1E9000107F0ACFC43
:10057000069B5D1B04EBC504D4E90023E3E7069B5F
:1005800016330BDB059B504659469E1B574B03EB1E
:10059000C606D6E9002307F0C1FDD6E7A5EB08089B
:1005A000069B9844B8F1000F74DD18F00F030AD0D1
:1005B0004E49524601EBC3015B46D1E9000107F009
:1005C00083FC82468B4638F00F084FD0B8F59A7FEF
:1005D00022DD00252E46079505952223DFF814B16C
:1005E0004FF0000A2360079B002B3FF4F1AD1899F0
:1005F000204606F02DFB0599204606F029FB3146E2
:10060000204606F025FB0799204606F021FB2946E7
:10061000204606F01DFBDBE5354B4FEA2818504617
:100620005946049300239946B8F1010F21DC0BB120
:1006300082468B462E4BABF1547B524603EBC909E5
:100640005B46D9E9000107F03FFC2A4B0A46824687
:100650000B4029498B42BCD8A1F580118B4286BF43
:10066000DFF898B04FF0FF3A02F1547B0023049377
:1006700083E018F0010F05D0049BD3E9002307F0B5
:1006800023FC0123049A09F101094FEA68080832A2
:100690000492C9E7EAD0C8F1000818F00F020AD0A6
:1006A000124B5046594603EBC203D3E9002307F02F
:1006B00035FD82468B465FEA2818D7D0B8F11F0F68
:1006C0001EDD00252E460795059522234FF0000AD2
:1006D0004FF0000B236086E7659D0000A89D000099
:1006E0005D9D0000EB9D0000D096000040A0000042
:1006F00018A000000000F07F0000A07CFFFFEF7F4B
:1007000018F0100350465946DFF8A89318BF6A2323
:100710000493002318F0010F04D0D9E9002307F057
:10072000D3FB01235FEA680809F10809F2D10BB194
:1007300082468B46049BC3B1CBF30A525946C2F1A1
:100740006B03002B11DD1F2B40F32181342B4FF065
:10075000000ADBBFC2F14B024FF0FF334FF05C7B6E
:1007600003FA02F2D8BF02EA010B0022002350462E
:10077000594607F011FE0028A3D1079B3A46089975
:10078000204600932B4606F0CDFA079000283FF450
:1007900020AF059B00259E1B069B002BB4BF334654
:1007A00000232E460C93069B23EAE3731293079BC8
:1007B0002046596806F00CFA059000283FF40DAF6A
:1007C000079B0C301A6903F10C010232920008F009
:1007D00057F91AAA19A920464BEC10AB06F07EFD7A
:1007E00018904BEC18AB00283FF4F7AE01212046DF
:1007F00006F0E2FA064600283FF4EFAE199B049992
:10080000002BA3EB0108A9BF0C9A129A03EB020973
:10081000129FB8BFD71A1A9AA14B9044B8BFDDF8FF
:100820003090C2F1360208F1FF38984580F2C3805B
:10083000A3EB080301211F2BA2EB030200F3AE8000
:1008400001FA03F30D930023089309EB0208049BBC
:100850001744C1451F444B46A8BF4346BB42A8BFEF
:100860003B46002BC2BFA8EB0308FF1AA9EB030904
:100870000C9B002B17DD31461A46204606F05AFB2A
:10088000064600283FF4A9AE0146189A204606F015
:10089000A9FA0B9000283FF4A0AE1899204606F064
:1008A000D7F90B9B1893B8F1000F00F38980069BD2
:1008B000002B08DD129A2046059906F03BFB0590B7
:1008C00000283FF48AAE002F08DD3A4605992046FD
:1008D00006F08AFB059000283FF47FAEB9F1000FC7
:1008E00008DD31464A46204606F07EFB06460028D3
:1008F0003FF473AE059A2046189906F0E5FB0546CD
:1009000000283FF46AAEC36831460B930023C360EE
:1009100008F086FC00285DDA0B9B53EA0A037FD1BE
:10092000CBF31303002B7BD12BF000431B0D1B05D6
:10093000B3F1D66F74D96B6913B92B69012B6FDDD5
:1009400029460122204606F04FFB3146054608F0B5
:1009500067FC002864DD04995B46524A00297FD079
:1009600002EA0B01B1F1D66F7ADCB1F15C7F7FF75F
:10097000ACAE4D4B50465946002207F0A5FA0B4647
:1009800082468B46034304BF222323602FE64FF0A9
:10099000FF3202FA03F303EA0A0AE6E6C8F17F48E7
:1009A0000D9108F57F0808F57B4808F1E20801FA87
:1009B00008F3089349E70023089301230D9344E7C4
:1009C00042461899204606F00FFB189000287FF445
:1009D0006EAF02E65F466FD10B9ACBF3130342B3BF
:1009E000324A934228D1049B5146EBB12D4B4FF034
:1009F000FF323B40B3F1D46F19D81B0DC3F16B0329
:100A000002FA03F3994217D1294B9F4202D10131D7
:100A10003FF4E3AD234B4FF0000A3B4003F5801B4E
:100A2000049B002BA5D1E2E54FF0FF33EAE7134624
:100A3000E8E753EA0A038ED0089BDBB13B42EFD0D4
:100A40000B9B5046049A5946C3B108F046F902463A
:100A50000B4651EC180B07F081F882468B46DFE716
:100A600013404FF0FF3AA3F580136FEA135B6FEA70
:100A70000B5BD5E70D9B13EA0A0FE0E708F02DF9B1
:100A800002460B4651EC180B07F066F800220023D3
:100A900082468B4607F080FC0028C1D015E600BFD7
:100AA00002FCFFFF0000F07F00005039FFFF0F0045
:100AB000FFFFEF7FC09D00003146284608F0CCFBC9
:100AC00000224FF0804310EE100A59EC108B49467B
:100AD00007F076FC00287AD00B9B002B4AD000222E
:100AE000934B4FF00008DFF84892CDE90823914B73
:100AF0003B400D930D9A904B9A4240F0B080A7F185
:100B0000547BDDE908014BEC10ABCDE9080106F0A0
:100B10006BFBDDE9080153EC102B07F0D5F95246C9
:100B20005B4607F01BF80B4682498246834A194010
:100B3000914260D918EE903A02F15472934204D176
:100B400018EE103A01333FF448ADDFF8FCB14FF036
:100B5000FF3A1899204606F07BF80599204606F0E2
:100B600077F83146204606F073F82946204606F00D
:100B70006FF81CE6BAF1000F1BD1CBF31303F3B9E6
:100B800000226B4B4046494607F010FCD0B9404666
:100B9000494600226A4B07F097F98046894609F1D9
:100BA0000043CDF850801593DDE91423CDE90823E7
:100BB0009DE7BAF1010F02D1002F3FF486AD00226C
:100BC000604B8EE74FF00008DFF87491E7E75C4B6D
:100BD00040464946002207F077F90B9B804689463C
:100BE00033B901F100430E900F93DDE90E23DDE7E9
:100BF000CDE90E89F9E703F1547B049B002BA8D1C2
:100C00002BF000430D9A1B0D1B059A42A1D14046C3
:100C1000494607F0A1FC07F029F902460B46404679
:100C2000494606F099FFCBF313030B9A804643EA3B
:100C30000A038946134355D035A3D3E9002307F0AF
:100C4000B5FB00287FF4D3AC4046494632A3D3E934
:100C5000002307F0C9FB00283FF47BAFC7E4049BE7
:100C600033B30D9BB3F1D46F22D8404649462CA331
:100C7000D3E9002307F0A4FBA0B14946404607F0A2
:100C8000FBFB012838BF012007F0A4F80B9B80462E
:100C9000894623BB01F1004310901193DDE9102335
:100CA000CDE90823099B0D9A03F1D6639B1A09939A
:100CB000B0EE480AF0EE680ADDE90801CDE9080166
:100CC00006F092FADDE9080153EC102B07F0FCF86E
:100CD00053EC182B06F042FF82468B468DE7CDE998
:100CE0001089DBE710A3D3E9002307F05FFBB2E72D
:100CF00000230A93179B139A1360FFF76DBA652AB6
:100D00003FF461AB452A3FF45EAB0123FFF796BB8E
:100D10009535A094FFFFDF3F35E5AF350000E03F9C
:100D20000000C0FFFFFFDF419535A094FFFFCF3FDC
:100D30000000F03F0000F07F0000E07FFFFF9F7C9D
:100D40000000E03F0000F0BFFFFFEF7F0000000069
:100D50002DE9F04F456A044610EE10AA2DED048BE4
:100D600093B057EC106BDDF88080BB46069109927A
:100D70000C9375B9102005F023FF0246606220B97C
:100D8000A74BEA21A74806F037FEC0E901550560E8
:100D9000C560636A196851B15A68012320469340BF
:100DA0004A608B6005F054FF636A00221A603B1EA4
:100DB000ADBF0023012223F0004BC8F800309A4B4E
:100DC000B8BFC8F8002033EA0B031BD142F20F73FF
:100DD0000C9A1360CBF31303334300F08F85219BF0
:100DE00063B9924B22E0924B01930833219A13602E
:100DF000019813B0BDEC048BBDE8F08F8B4B0193D1
:100E00000333F3E7002200235046594607F0C4FAA3
:100E100080464BEC19AB58B101230C9A1360219B0F
:100E2000002B00F0688583481860431E0193DFE7BC
:100E3000CBF30A5510AA11A920464BEC10AB06F0D3
:100E40004DFA08EE100A002D00F0828019EE903A5B
:100E50005646A5F2FF35CDF83880C3F3130343F0AF
:100E60007F5747F440170022734B3046394606F04F
:100E700073FE65A3D3E9002307F026F864A3D3E942
:100E8000002306F06BFE06460F46284606F0B2FF2A
:100E900061A3D3E9002307F017F802460B4630465A
:100EA000394606F05BFE06460F4607F0BDFA002203
:100EB000009000233046394607F078FA50B1009888
:100EC00006F098FF32463B4607F066FA10B9009BE1
:100ED000013B0093009B162B59D8009A574B03EB0C
:100EE000C20351EC190BD3E9002307F05FFA002885
:100EF0004FD0009B013B009300230B93109B5D1B85
:100F00006B1E059349BFC5F1010300230493002321
:100F100054BF04930593009B002B3CDB059B009A78
:100F200013440A92059300230793069B092B00F2B2
:100F30008980052BC5BF043B002501250693069B30
:100F4000023B032B00F28980DFE803F02E3B395A85
:100F5000DDE910531D4405F23243202BC6BFC3F117
:100F6000400305F21240C3F1200305F1FF35C5BF70
:100F70000BFA03F326FA00F006FA03F0184306F022
:100F800029FF01230646A1F1F8770E936BE70123B1
:100F9000B3E70B90B2E7049B009A9B1A0493534269
:100FA000079300230A93C0E700230893099B002BB3
:100FB00056DC01231A46CDE9023309920CE00123E5
:100FC000F3E70023099A0893009B1344029301332B
:100FD000012B0393B8BF01230022606A4260042200
:100FE00002F1140641689E423ED9204605F0F0FD0C
:100FF000019000283CD1124B02464FF4D571C1E656
:101000000123DFE7AFF3008061436F63A787D23F1F
:10101000B3C8608B288AC63FFB799F501344D33FE7
:10102000F59D00000C9E00000000F07FF19D000087
:10103000E89D0000699D00000000F83F40A000000E
:101040008A9E000001250023089506934FF0FF3388
:101050000022CDE902331223AFE701230893F5E71D
:10106000099BCDE90233B7E7013152004160B7E790
:10107000636A019A1A60039B0E2B00F29D80002D7B
:1010800000F09A80009B002B32DD03F00F03B64A7C
:1010900002EBC303D3E90089009BD8054FEA23176D
:1010A00016D5B24B07F00F070325D3E9082351ECFF
:1010B000190B07F033F882468B46AC4E57B94246BF
:1010C0004B465046594607F029F882468B4628E0A1
:1010D0000225F2E7F90708D5404649460135D6E929
:1010E000002306F0F1FE804689467F100836E5E7CA
:1010F00000F09B80009B02259C4F5E429A4B06F0BD
:101100000F02361103EBC20351EC190BD3E9002394
:1011100006F0DAFE002382468B46002E7AD1002BA1
:10112000D3D10B9B002B00F082800022904B5046C5
:10113000594607F03BF9002879D0039B002B76D065
:10114000029B002B36DD009B5046594600225F1E55
:10115000884B06F0B9FE013582468B46029E284632
:10116000D04606F047FE52465B46D94606F0ACFE36
:101170000022814B06F0F2FC8246A1F1507B002E4A
:1011800058D100227D4B4046494606F0E5FC5246C8
:101190005B468046894607F027F9002840F0938295
:1011A00052460BF100434046494607F0FFF800283D
:1011B00040F087825BEC19AB119B002BC0F2488199
:1011C000009A0E2A00F34481674B03EBC203D3E974
:1011D0000089099B002B80F2D580039B002B00F334
:1011E000D18040F06D820022644B4046494606F0B3
:1011F0006BFE52465B4607F0EDF8039E374600282B
:1012000040F043823123019D05F8013B009B0133EF
:1012100000933EE2F20705D50135D7E9002306F039
:1012200053FE01237610083777E7022579E7009F00
:10123000039E94E701994C4B314403EBC6030D9197
:10124000089953E90223002943D000204C4906F0B5
:1012500065FF52465B4606F07FFC019D82468B4649
:101260004946404607F0E0F8064606F0C3FD024650
:1012700030360B464046494606F06EFC52465B4609
:1012800005F8016B8046894607F090F8002863D185
:1012900042464B460020364906F05EFC52465B460D
:1012A00007F084F8002840F0B5800D9B9D4281D066
:1012B0000022304B5046594606F006FE0022824678
:1012C0008B46404649462B4B06F0FEFD804689463C
:1012D000C6E75046594606F0F7FD0D9B82468B4601
:1012E000019D0F934946404607F09EF8064606F0DA
:1012F00081FD02460B4640464946303606F02CFC3E
:101300000D9B05F8016B80469D4289464FF0000217
:1013100024D11B4B5046594606F020FC02460B4692
:101320004046494607F060F8002873D152465B46B4
:101330000020134906F010FC02460B464046494681
:1013400007F034F800283FF435AF0F9D6B1E0F9364
:1013500015F8013C302BF8D0009749E0054B06F01A
:10136000B3FD80468946BDE740A0000018A00000FC
:101370000000F03F0000244000001C40000014402A
:101380000000E03F56465F46019D42464B463046D0
:10139000394606F0C3FE07F047F8824606F02AFDFC
:1013A00042464B4606F090FD024630460AF13006B2
:1013B0000B46394606F0D0FB05F8016B019E02464C
:1013C000039F0B46AE1BB74235D106F0C7FB424622
:1013D0004B4606460F4607F007F8D0B942464B4643
:1013E0003046394606F0D8FF10B11AF0010F10D17F
:1013F000204618EE101A05F02BFC002300982B70E5
:1014000001300C9B1860219B002B3FF4F1AC1D6058
:10141000EEE4009F2B461D4613F8012D392A06D114
:10142000019A9A42F7D13022019901370A701A784D
:1014300001321A7090E70022A44B06F045FD00220D
:10144000002306460F4606F0A7FF00289DD0CFE7F1
:10145000089A002A00F0D580069A012A00F3B98084
:101460000E9A002A00F0B18003F23343079E049DD8
:10147000049A012120461A440492059A1A440592BE
:1014800005F09AFC0746002D0CDD059B002B09DDBD
:10149000AB42049AA8BF2B46D21AED1A0492059AC1
:1014A000D31A0593079B1BB3089B002B00F0AD805C
:1014B000002E13DD39463246204605F03BFD18EE7E
:1014C000102A01460746204605F08CFC804618EE9F
:1014D000101A204608EE108A05F0BAFB079B9A1BEB
:1014E00006D018EE101A204605F024FD08EE100A6A
:1014F0000121204605F060FC0A9B0646002B40F3C4
:1015000086801A460146204605F014FD069B0646D5
:10151000012B7FDD4FF00008336906EB8303186968
:1015200007F02FFEC0F12000059B184410F01F00AB
:1015300000F09180C0F12003042B40F38980C0F1BA
:101540001C00049B054403440493059B034405933A
:10155000049B002B07DD18EE101A1A46204605F0F2
:1015600043FD08EE100A059B002B05DD31461A46A7
:10157000204605F039FD06460B9B002B6DD0314609
:1015800018EE100A07F04CFE002866DA009B18EEF1
:10159000101A0A222046013B0093002305F07AFB33
:1015A000089B08EE100A002B00F0AF81002339469B
:1015B0000A22204605F06EFB029B0746002B00F333
:1015C0008D80069B022B50DC88E0109BC3F1360314
:1015D0004CE7039B5E1E079BB342B7BF079B9E1B56
:1015E0000796F21ABFBF0A9B00269B180A93039B1B
:1015F000002BB7BFDDE90323DDE903359D1A002386
:1016000036E7079E049D089F3DE7079A69E7069B1A
:10161000012B18DCBAF1000F15D1CBF3130393B9EA
:101620002BF000431B0D1B0583B1049B4FF00108F9
:1016300001330493059B013305930A9B002B7FF430
:101640006BAF012070E74FF00008F6E79846F4E72B
:101650003FF47EAF18461C3073E7039B002B37DC4A
:10166000069B022B34DD039B0293029B6BB9314630
:101670000522204605F00EFB0146064618EE100A2C
:1016800007F0CEFD00283FF7BDAD099B019DDB4370
:1016900000934FF000083146204605F0D9FA002F9C
:1016A0003FF4A6AEB8F1000F05D0B84503D04146CF
:1016B000204605F0CDFA3946204605F0C9FA97E6EE
:1016C00000263746E1E7009737469BE500002440B7
:1016D000089B002B00F0CA80039B0293002D05DDC0
:1016E00039462A46204605F07FFC0746B8F1000F30
:1016F0005BD07968204605F06BFA054628B9874B20
:10170000024640F2EA21FFF73DBB3A6907F10C01BE
:101710000C300232920007F0B3F90122294620462C
:1017200005F062FC019BB846074603F10109DDE9BB
:101730000123134405930AF001030493314618EE84
:10174000100A07F0E8FA4146029000F1300A18EE5C
:10175000100A09F1FF3B07F063FD3A46039031465A
:10176000204605F0B1FCC268054602BB014618EEF2
:10177000100A07F055FD024629462046079205F05B
:1017800067FA4D46DDE9063243EA0201049B0B434A
:101790000FD1BAF1390F2AD0039B002B02DD029B37
:1017A00003F1310A8BF800A075E73846BAE7012249
:1017B000E2E7039B002B04DB06990B4304990B43E0
:1017C00022D1002AEEDD18EE101A0122204605F083
:1017D0000BFC314608EE100A07F022FD002803DC5E
:1017E000E0D11AF0010FDDD0BAF1390FD7D139238A
:1017F0008BF800302B461D46013B15F8012C392A89
:1018000070D001321A7046E7002A07DDBAF1390FAD
:10181000EDD00AF101038BF800303CE7059B09F895
:1018200001AC994546D018EE101A00230A22204632
:1018300005F030FAB84508EE100A4FF000034FF0FB
:101840000A024146204606D105F024FA80460746A2
:1018500009F1010972E705F01DFA394680460023B7
:101860000A22204605F016FA0746F1E7039B029389
:10187000019D314618EE100A07F04DFA019B00F168
:10188000300A05F801ABEA1A029B934209DD18EE13
:10189000101A00230A22204605F0FCF908EE100A6F
:1018A000E7E7029B4FF00008002BCCBF1D46012547
:1018B000019B1D4418EE101A0122204605F094FBEE
:1018C000314608EE100A07F0ABFC002892DC02D18A
:1018D0001AF0010F8ED12B461D4613F8012D302A28
:1018E000FAD0D8E6019A9A4285D1009B0133009341
:1018F00031231370CFE60A4BFFF798BA219B002BD8
:101900007FF471AA074BFFF791BA029B002BAFDC63
:10191000069B022B3FF7A9AEAAE700BF8A9E0000F4
:10192000689D0000E89D00009FED010B704700BF1F
:10193000000000000000F87F10B5054C237833B993
:10194000044B13B1044800E000BF0123237010BD15
:10195000181200200000000064A1000008B5034B2D
:101960001BB10349034800E000BF08BD00000000B0
:101970001C12002064A10000A3F5803A704700BF4C
:10198000174B002B08BF134B9D46FFF7F5FF0021B7
:101990008B460F461348144A121A07F07EF80E4B76
:1019A000002B00D098470D4B002B00D0984700200B
:1019B000002104000D000D48002802D00C4800E072
:1019C00000BF03F09BFC2000290006F0FFFD03F0A0
:1019D00081FC00BF000008000000000000000000C3
:1019E0000010002018120020141500200000000034
:1019F0000000000011B90122014B1A70704700BFAE
:101A0000E6140020014804F091BA00BF609600007F
:101A1000002313B50C4C0D480093237010220C4B7F
:101A20000C49006800F098FF18B161210A4806F0DF
:101A300026FE2378002BFCD00649084802B0BDE8FA
:101A4000104004F0EDB900BFE614002000100020A3
:101A5000F5190000D614002097960000B3960000F8
:101A600010B5234C01F032FB01F01EFD236F23F073
:101A7000070343F00303236706F055FE1D4B0020C8
:101A80009B6A9B075EBF01221B4B9A62D4F82031F0
:101A900023F0030343F00203C4F82031D4F82431C7
:101AA00023F0070343F00203C4F82431D4F8403193
:101AB00023F0030343F00203C4F84031D4F860314B
:101AC00023F0030343F00203C4F86031D4F840323A
:101AD00023F0030343F00203C4F84032D4F8003289
:101AE00023F0070343F00203C4F8003210BD00BF27
:101AF0000080005000C0005000E0005008B5134BBB
:101B00001B68C3F30743012B0ED1114B04205A6EFF
:101B10004FF480230F49520358BF0F4A4B6601F51B
:101B20001041086258BF536602F0A4FB06F097FD0F
:101B300002F032FB02F052FB02F086FBFFF790FF4F
:101B400002F03AFBBDE8084006F07EBD0080E00FE1
:101B5000008000500090005000A0005030B5234D90
:101B60009DB009AC0FCD0FC495E80F0084E80F00BD
:101B70002422002112A806F090FF1D4B012411938E
:101B800038231393052315930623179308231993DA
:101B900007231B9303231022002105A88DF8494039
:101BA0008DF8483006F079FF4FF4801C114B124835
:101BB000CDE903C33E238DF814303F238DF8153053
:101BC0000E4B09AA0693202307930D4B03A90093FC
:101BD00011AB8DF8214002F083FB044618B1792146
:101BE000084806F04CFD20461DB030BD00970000AF
:101BF0000000035A3400035A98120020E714002012
:101C000034120020D1960000014806F080BE00BFCB
:101C100098120020024B0349186800F06FBD00BF06
:101C200000100020041000201022014B1A617047A0
:101C300000D003501022014B1A61704700E003509E
:101C4000F0B5404D89B001AC0FCD0FC495E8070049
:101C500084E80700012401213A2001F07FF83A4F7F
:101C60000121282001F07AF8384B384601A9039366
:101C70008DF8124002F022FA2346042200210220AD
:101C800001F088FF224621460023022001F082FF56
:101C9000022123460846042201F07CFF0422234649
:101CA0001146002001F076FF4FF00213284D022666
:101CB000C5F83036A3F58033C5F82C361C23C5F89B
:101CC00034664FF44870C5F81C3603F047F9142009
:101CD000FFF7B0FF03F042F92320FFF7A5FF03F061
:101CE0003DF9B9213846FFF7A5FF06F083FDFFF760
:101CF0009BFF002330461A46194601F04BFF002394
:101D000021461A46304601F045FF2346314630460B
:101D1000002201F03FFF002223461046042101F07B
:101D200039FF384602F08EF900212820C5F8301618
:101D3000C5F82C16C5F83416C5F81C1601F00EF8B7
:101D400009B0F0BD2097000000C0055000127A00D5
:101D500000C0035008B500F02DF8124B12498B4219
:101D600012D30020114B12498B4218D3FFF708FE03
:101D7000186850F82240586840F8224001329868AC
:101D80008242F5D30C33EAE70022F8E71C6844F8F6
:101D9000220001325C68A242F8D30833E4E7002253
:101DA000F8E700BF6CA1000078A1000078A1000056
:101DB00078A100004FF400414FF0FF30124B134A5E
:101DC00010B59A60D3F8882042F47002C3F88820D6
:101DD0000F4A916601F1884101F5005210664FF6F5
:101DE000DF7050660220C3F8D000BFF34F8FBFF3FF
:101DF0006F8F08244FF440330648C0F88041D36009
:101E000004600B6110BD00BF00ED00E000000000A9
:101E10000090005000E100E0014B1868704700BFDF
:101E200028100020084B1B6F03F00703022B04D07F
:101E3000032B05D0012B05D0FEE7044B1868704733
:101E4000034BFBE703487047008000502810002038
:101E50002C100020002D310108B5FFF7E3FF054BE2
:101E60001B6FC3F303330133B0FBF3F0024B186075
:101E700008BD00BF008000502410002000487047BB
:101E800000B4C404014B1868704700BF2C10002038
:101E9000054B1860054B1B6F03F00703032B01D1A3
:101EA000FFF7DABF704700BF2C1000200080005001
:101EB00000487047002D3101014B1868704700BF82
:101EC0003010002005490A681318054883428CBF6A
:101ED0004FF0FF320B601046704700BF34100020F7
:101EE0000080002008B501213A2000F037FF0321CF
:101EF00001230422002001F04DFE002006F071FCB9
:101F00000122214B4FF46070C3F8442400F050FFCD
:101F10001E4B00F5D520D3F8F02000F2FC4042F033
:101F20000102C3F8F020D3F8FC2042F08072C3F81D
:101F3000FC20174AA3F55D431A60164B0222B0FB42
:101F4000F3F0154B01381861C3F8F0204FF480729C
:101F5000C3F804234FF06043104A0020C3F8B02FA9
:101F60000F4AC3F8802ED3F8002E42F48072C3F8D3
:101F7000002EFF2283F82020D3F8002E22F4807256
:101F8000C3F8002E08BD00BF00D0035000ED00E0F4
:101F9000FF030040F8590D00000004E055CEACC529
:101FA000090001002DE9F04F9A46564B85B01B7889
:101FB00006460F461546DDF83C909DF844B0DDF826
:101FC0005080002B00F08D80072A00F28C800E9B41
:101FD000002B00F08880B9F1000F00F08480129B84
:101FE000B3F5006F7FDC012802D1109B002B7AD063
:101FF000454B03EB05131B7B002B76D0434C102283
:102000000021684606F049FD04EB45141022002F1C
:1020100059D13946204606F040FD43F21003638053
:10202000BBF1000F03D1E37843F00303E370374AB9
:102030000E9B02EB451CCCE90193129B6901013B0D
:10204000C3F30A009DF84C30012E03F003034FEA5E
:10205000836343EA001E53582D48CDF800A000EAE0
:1020600003004EEA0003535041D113230CF1100E2C
:10207000CCF80C309CE80F008EE80F006FF00301E5
:10208000DCF81C20109B61F39F02012FCCF81C2070
:10209000CCF8143003D1CCF81890CCF804300027D9
:1020A000194A290102EB051342F80180159A2846C6
:1020B0005A60694622469F605E7301F045FE3846CD
:1020C00005B0BDE8F08F0021204606F0E6FC4FF495
:1020D00044736380BBF1000FA9D1E37843F0300370
:1020E000A4E70C48ECE70C48EAE70C48E8E7B8F14D
:1020F000000FD4D19CF8023068F304138CF802303E
:10210000CDE700BF0715002034130020B4130020D2
:102110000F80FFF3028000F0018000F0078000F0E4
:1021200038B5124B05461B78DBB1E0B106F017FB62
:102130000F4A00231146147B54B92B6001251A0164
:1021400001EB03131D738C5006F00FFB204638BDC6
:102150000133082B02F11002EDD106F006FB054811
:10216000F5E70548F3E70548F1E700BF071500204C
:1021700034130020048000F0028000F0018000F0A1
:1021800013B506F0ECFA00230B4A147B7CB901333B
:10219000082B02F11002F8D1019001F04BFD074B22
:1021A00001981C7006F0E1FA204602B010BD06F05E
:1021B000DCFA0348F9E700BF3413002007150020BC
:1021C000058000F00D4B10B51B78044693B107282D
:1021D00012D806F0C4FA0A4B03EB04131A7B2AB197
:1021E00000241C7306F0C1FA204610BD06F0BDFAAB
:1021F0000448FAE70448F8E70448F6E70715002022
:1022000034130020068000F0028000F0018000F00E
:10221000154B13B51868002301908DF8043006F0B3
:102220009EFA124B1C7824B106F09FFA104802B0B7
:1022300010BD01221A7006F098FA0E4B01A81C730B
:102240001C7783F82C4083F83C4083F84C4083F89B
:102250005C4083F86C4083F87C4008238DF807309D
:1022600001F028FD2046E2E73C970000071500201A
:10227000038000F0341300200A4A08B512785AB1DE
:1022800007280BD8084A02EB00131B7B43B100213F
:1022900001F0EEFC002008BD0448FCE70448FAE722
:1022A0000448F8E70715002034130020028000F0EE
:1022B000018000F0078000F00A4A08B512785AB190
:1022C00007280BD8084A02EB00131B7B43B10121FE
:1022D00001F0CEFC002008BD0448FCE70448FAE702
:1022E0000448F8E70715002034130020028000F0AE
:1022F000018000F0078000F00A4A08B5127852B158
:1023000007280AD8084A02EB00131B7B3BB101F0F7
:102310009BFD002008BD0548FCE70548FAE7054895
:10232000F8E700BF0715002034130020028000F0FA
:10233000018000F0078000F00D4B1B7893B1072857
:1023400012D889B10B4B03EB00131B7B73B10A4B03
:10235000DA6A012303FA00F010401ABF00200B7064
:102360000870704705487047054870470548704732
:10237000071500203413002000000450028000F0F4
:10238000018000F0078000F00D4B1B7893B1072807
:1023900012D889B10B4B03EB00131B7B73B10A4BB3
:1023A0001A6D012303FA00F010401ABF00200B70D1
:1023B00008707047054870470548704705487047E2
:1023C000071500203413002000000450028000F0A4
:1023D000018000F0078000F00B4A10B512780C461F
:1023E00062B107280CD859B1084A02EB00131B7BD5
:1023F00043B101F045FD2070002010BD0448FCE70A
:102400000448FAE70448F8E70715002034130020D1
:10241000028000F0018000F0078000F00B4A10B548
:1024200012780C4662B107280CD859B1084A02EB61
:1024300000131B7B43B101F045FD2060002010BD5F
:102440000448FCE70448FAE70448F8E707150020C9
:1024500034130020028000F0018000F0078000F0BB
:102460002DE9F843174B1F6D5B6D1F4000D5FEE74C
:1024700001260025144CDFF85480DFF854903742D1
:1024800017D02368C8F850609BB1A1682846013175
:102490006268A1609847637B012B0AD148B909EBB8
:1024A00045131A7B60F341021A731A7F60F34102ED
:1024B0001A770135082D4FEA460604F11004DED1E3
:1024C000BDE8F883000004503413002000200450BD
:1024D000B413002038B5144606F041F90023A36474
:1024E00084F84C302364237F0546012B03D104F18B
:1024F000600002F075FB636B1BB100212046E26BAC
:102500009847284606F031F9A36D002B03DCBB2168
:10251000034806F0B4F8A36D0120013BA36538BD64
:1025200040970000F8B50446194F94F8445094F8C9
:1025300045601DB3012D24D0022D24D0032D03D1DD
:102540000F22F240D20704D440F2CF31384606F0D1
:1025500096F83023142213FB052303F1A04303F55F
:1025600070331B68F340DB0703D494F84C30002B26
:10257000DBD194F84C3043B9A06CF8BD40F2FF12A7
:10258000DFE71F22DDE7FF22DBE70020F5E700BFE2
:102590009597000013B591F84C300C46012B1ED1D5
:1025A000A06A0DF10601FFF7C7FE9DF80630C3B122
:1025B000A06AFFF7A1FE606AFFF79EFEA06A04F121
:1025C0004001FFF72BFF00230C4984F84C30636B6C
:1025D000A16423B1D4E90F02821A2046984702B0C1
:1025E00010BD606A0DF10701FFF7CEFE9DF80730C0
:1025F000002BF4D1E36B2364E5E700BF052000F076
:1026000038B50546B0B1B9B1B2B1B2F5006F13DC5F
:1026100006F0A5F895F84C3003F0FF041BB106F066
:10262000A4F8064838BD012385F84C3006F09DF823
:102630002046F7E70248F5E70248F3E7032000F0F9
:10264000012000F0022000F0F0B51746002243639D
:1026500090F85C30044687B080F85420C76333BBE1
:102660004FF4406346690568092E6B6121D9012644
:1026700005F12C034435A26DA06A0132A265134A0C
:102680000494CDE902620122019700920A46216B6F
:1026900006F01CF800232A46CDE903330093CDE968
:1026A0000176E16A606A04F1180305F0F5FF07B0EE
:1026B000F0BDA6F109020BBF05F1200305F12403CB
:1026C00038353C3556425641D5E700BFD524000089
:1026D00010B586B00446084605A9039202F0C4FA74
:1026E00038B9CDE90000039B2046034A059906F05E
:1026F0006CF906B010BD00BF952500002DE9F04132
:1027000004468B4F8AB003AE0D460FCF0FC697E835
:10271000070086E80700002C00F008811DB98548F5
:102720000AB0BDE8F08184220021204606F0B5F908
:102730002B68814A934240F0B180282222654FF4F1
:1027400080224FF000087D4FC4E90B7226462F46C9
:1027500046F8043B0FCF0FC697E80F0086E80F003E
:102760006B7E012B08BF8DF81A30AB7E33B1012B85
:1027700040F0A2804FF40073ADF81C302B7E012195
:10278000012B03BF00238DF819304FF4E133EB68C0
:102790003A20059300F0E2FA0121206D00F0DEFA04
:1027A0002B691A1F0C2ABAD8033B286803A98DF895
:1027B000183001F083FCAB6923F47F0323F47F43DB
:1027C00023B92268936843F4803393602B7A287985
:1027D000697940EA03406B7AAA7941EA0341AB7A0E
:1027E000EE7E42EA0342564B4FEA48184344002E1D
:1027F0006DD11D26C3F81C66C3F83406C3F82C1629
:10280000C3F83026E97AEA7942EA0142C3F8202681
:10281000E37BE27A84F84530237F207A677AA57AD1
:10282000217B94F80D80A67B84F84420002B58D19E
:102830000422019301F0AEF9019B01224146384682
:1028400001F0A8F9A27F3146012A8CBF0123019B28
:102850000422284601F09EF9E37F3BB901230422BC
:1028600094F8451094F8440001F094F905F077FFCE
:10287000344B1A78002A4ED101221A7005F075FFE8
:1028800002F074F9FFF7C4FC002104F12400FFF703
:1028900047FC0146002841D02B4841E72B4A934290
:1028A0007FF43DAF292222654FF4A02228484FF043
:1028B0000108C4E90B0249E7022B02D14FF48073EF
:1028C0005AE7032B7FF42BAF4FF4407354E71C25DA
:1028D000C3F81C56C3F83406C3F82C16C3F83026C8
:1028E00096E70023012201F055F900230422414616
:1028F000384601F04FF9A37F0222012B94BF002339
:1029000001233146284601F045F9E37F002BADD184
:1029100001230222A4E705F028FFB3E704F1280011
:10292000FFF7FEFB00283FF4FBAEB5E70948F7E6EA
:10293000E4970000022000F000C0055002000400EF
:1029400000C0035008150020092000F000000650C8
:1029500002000500012000F02DE9F8439846037FAE
:1029600004460E461746DDF8209003B3FFF748FEF5
:10297000054690B9B9F1000F05D02246494604F149
:102980006000FFF7A5FE94F82030012B08D04346E5
:102990003A4631462046FFF757FE2846BDE8F88301
:1029A0002046FFF7BFFD0028F1D00546F5E7014DB1
:1029B000F3E700BF082000F0044BD3F88420D206D0
:1029C000FBD4D3F88400C0F381107047004000505E
:1029D00038B5124B0546D3F820310C4603F00303FB
:1029E000022B0BD0032B0DD0012B0FD1FFF714FAC4
:1029F000052305B1286004B1236038BDFFF742FA12
:102A00000323F6E7FFF754FA0223F2E7044841F202
:102A1000711105F034FE00231846EAE700800050EB
:102A200000980000F7B50027114B0197D3F88041BB
:102A3000064604F00304012C0D4608D0022C12D0E7
:102A400041F2BE210B4805F01AFE3C4604E039462F
:102A500001A8FFF7BDFF0F240EB1019B336005B144
:102A60002C6003B0F0BDFFF723FA0190F4E700BF3C
:102A7000008000500098000038B5194B0546D3F887
:102A800024310C4603F00703013B052B20D8DFE877
:102A900003F0030F171B0B13FFF7BEF9052305B156
:102AA000286004B1236038BDFFF7B6F90623F6E7C6
:102AB000FFF7E8F90323F2E7FFF7E4F90423EEE771
:102AC000FFF7F6F90223EAE705F0D1FD0723E6E771
:102AD000044840F6C76105F0D2FD00231846DEE742
:102AE000008000500098000038B5124B0546D3F81E
:102AF00040310C4603F00303022B0BD0032B0DD007
:102B0000012B0FD105F0B5FD092305B1286004B1F3
:102B1000236038BDFFF7D0F90823F6E705F0ACFDD8
:102B20000B23F2E7044841F29F1105F0A8FD0023B2
:102B30001846EAE7008000500098000038B5154BB1
:102B40000546D3F800320C4603F00703013B032B84
:102B500018D8DFE803F0020A0E1205F08AFD0923F7
:102B600005B1286004B1236038BDFFF7A5F908233B
:102B7000F6E705F081FD0B23F2E7FFF76DF90E2371
:102B8000800AEDE7044841F2743105F078FD002336
:102B90001846E5E7008000500098000038B5124B59
:102BA0000546D3F840320C4603F00303022B0BD04A
:102BB000032B0DD0012B0FD105F05BFD092305B1CF
:102BC000286004B1236038BDFFF776F90823F6E7E3
:102BD00005F052FD0B23F2E7044841F2073105F0FE
:102BE0004EFD00231846EAE70080005000980000E0
:102BF00038B5124B0546D3F860310C4603F0030399
:102C0000022B0BD0032B0DD0012B0FD105F031FD82
:102C1000092305B1286004B1236038BDFFF74CF9E2
:102C20000823F6E705F028FD0B23F2E7044841F2FC
:102C3000CD1105F024FD00231846EAE7008000507E
:102C40000098000010B40F4C0B46D4F8204204F05A
:102C50000304012C0ED0022C10D008B10021016019
:102C60000BB100221A6040F6F16107485DF8044B91
:102C700005F005BD5DF8044BFFF7AABE5DF8044BF7
:102C8000FFF732BF0080005000980000B0F5207FB1
:102C900010B534D009D8B0F5007F2AD003D898B148
:102CA000B0F5C07F10D0002421E0B0F5607FFAD1EC
:102CB000154BD3F88030C3F301149B0617D5032CB2
:102CC00015D04FF421710FE00F4B1C6F230B13F045
:102CD0000E0FC4F303340AD0032C08D0072C06D0FF
:102CE0000F2C04D04FF41D71084805F0C8FC601C7F
:102CF00010BD054BD3F89040C4F30464F7E7024BD2
:102D00001C6FC4F38024F2E700800050009800009C
:102D10004FF400320E4B10B504469A660020FFF7C0
:102D2000B5FF41F6713260430A4C0B4BA0428CBF99
:102D30004FF480100020D969DA639A6822F44012B7
:102D400002439A60CA0344BF0022DA6310BD00BF89
:102D500000900050005A62020000035070B546090E
:102D600004460D460FD140F21B310D4805F087FC9B
:102D7000334604F01F0485B103F58053012000FAA7
:102D800004F41C6070BD012E05D0064B064A022ECD
:102D900018BF1346EDE7054BEBE703F50053EDE7EE
:102DA00000980000688000506082005064800050ED
:102DB000002330B5802885B00446019374D02AD80A
:102DC000002877D0A0F12004412C32D8412C30D8F3
:102DD000DFE804F070737073868686867373903FA5
:102DE000A6653F7373732F2F2F2F2F2F8B5773735E
:102DF00073B0AB732F2F2F2F2F2F2F2F2F2F2F2F5E
:102E00002F702F707070862F2F2F2F2F2F2F2F2F77
:102E10002F2F2F2F7070B0F5806F61D024D8B0F5B0
:102E2000007F54D00BD8B0F5807F68D0B0F5C07F5C
:102E300040D04FF48F61424805F021FC37E0B0F5F7
:102E4000607F44D0F5D8B0F5207F36D0B0F5407F14
:102E5000EFD1FFF701F804464FF42070FFF716FF9B
:102E6000B4FBF0F0400821E0B0F5C06F58D00DD8A9
:102E7000B0F5A06F39D0B0F5B06F3BD0B0F5906F22
:102E8000D7D1002101A8FFF7F7FD10E0B0F5E06F02
:102E90004BD0B0F5F06F4DD0B0F5D06FC9D1002157
:102EA00001A8FFF74BFE02E0FEF7BCFF019001987E
:102EB00005B030BDFEF7D0FFF8E7FEF7CDFF0446C2
:102EC0004FF42070FFF7E2FEB4FBF0F0EEE7FEF700
:102ED000A9FF05462046FFF7D9FEB5FBF0F0E5E770
:102EE000002101A8FFF774FDE1E7002101A8FFF729
:102EF000A9FEDCE7002101A8FFF794FDD7E70293C4
:102F00004FF0E0231B695B0705D5FEF7A5FF029094
:102F1000029B0193CBE703A902A8FFF7E5FDF7E7C2
:102F2000002101A8FFF7E0FDC1E7002101A8FFF79C
:102F300035FEBCE7002101A8FFF75AFEB7E700BF46
:102F40000098000008B58020FFF732FF034B98423D
:102F50009EBF4FF48032024B1A6708BD005A6202CE
:102F600000A000501FB50023B0F5807F01937FD0F3
:102F700027D8382800F09C800BD82438092810D88E
:102F800009280ED8DFE800F06F6F6F6F0D0D670D29
:102F90003685522867D007D83D283AD03E2800F021
:102FA0008C8040F2595152E08028FAD1454B1B6F7A
:102FB00003F00703013B032B47D8DFE803F044414C
:102FC0003F75B0F5D06F64D019D8B0F5A06F6FD051
:102FD0000AD8B0F5806F46D0B0F5906FE1D10020EF
:102FE00001A9FFF749FD3AE0B0F5B06F33D0B0F575
:102FF000C06FD6D1002001A9FFF776FD2FE0B0F514
:10300000006FECD00AD8B0F5E06F56D0B0F5F06F95
:10301000C7D1002001A9FFF7EBFD20E0B0F5086F54
:10302000BFD1284BD3F8003103F00303022B35D076
:10303000032B37D0012B39D1FEF724FF032300E007
:10304000052301930BE00223FBE740F2AA411E484F
:1030500005F015FB03E0002001A9FFF7E3FC019850
:1030600005B05DF804FB002001A9FFF7B1FCF6E70D
:1030700002934FF0E0231B695B0705D5FEF7ECFEDA
:103080000C230393039BDCE703A902A8FFF72CFDA5
:10309000F8E7002001A9FFF751FDE0E7FEF70CFF7C
:1030A0000823CEE705F0E3FA0723CAE70123C8E7C0
:1030B000002001A9FFF7C6FDD1E7002001A9FFF715
:1030C0006DFDCCE700800050009800004FF4002216
:1030D000034B5A66012203F580439A62704700BF92
:1030E00000900050036870B50F2B044604D940F6D9
:1030F000F2216E4805F0C3FA63680F2B04D940F63D
:10310000F5216A4805F0BBFAA3680F2B04D940F6F5
:10311000F821664805F0B3FA237B0F2B04D940F65B
:10312000FB21624805F0ABFA637B0F2B04D940F614
:10313000FE215E4805F0A3FAA37B3F2B04D940F69D
:1031400001315A4805F09BFAE37B3F2B04D940F646
:103150000431564805F093FA2369032B04D940F64D
:103160000731524805F08BFA6369032B04D940F606
:103170000A314E4805F083FAE369012B04D940F681
:103180000D314A4805F07BFA8020FFF7EBFE03285B
:1031900000F082804FF40022454B02215A6645F62A
:1031A0000E03444AC2F88030434B9962012103F573
:1031B00080539962936DD903FCD4D4E900131B05A5
:1031C00043EA0163E17B94F822500B43217B94F89E
:1031D000236043EA0143617B43EA0133A17B43EA75
:1031E000811313619169D4E904031B0643EA8063E8
:1031F00001F000410B43A17EE07E0B43217E43EAB8
:103200000143617E43EA01239361E369126A002B63
:103210000CBF0021082122F00D0242EA030242EA1B
:103220008002244B42EA01021A6294F820204FEAFD
:10323000421232D1986A94F8211020F0330042EA09
:103240000112024342F001029A621C4A996D32EA6D
:103250000101FBD1022218498A621A659A6D520057
:10326000FCD41869A26820F4700040EA02504FF0C4
:1032700000421861104B9A611DB9022203F5805378
:103280009A6216B901220E4B9A6294F824301BB14F
:10329000084B0C4AC3F8802070BD996A21F03301B5
:1032A00031430A4342EA4502EEE700BF00980000BE
:1032B0000090005000C0005000D0005003000140BA
:1032C00000E00050F1A7FFFF014B93F900007047A9
:1032D00009150020436810B5072B044604D940F6B1
:1032E00014512A4805F0CBF9A368032B04D940F602
:1032F0001651264805F0C3F92378032B04D940F66C
:103300001851224805F0BBF994F90130002B04DA7A
:1033100040F61A511D4805F0B2F94FF480011C4ADD
:10332000637851664FF4D151022002F5B8325162F0
:1033300018494F2B48604FF0010028BF4F2301F57B
:10334000805148601169C903FCD4217843EA012304
:103350005361D4E901131B0143EA0123617B0B4351
:10336000217B43EA41039360E37BA17B1B0143EA9A
:103370004113617C0B43217C43EA41035360A37CEE
:1033800013B16FF4D153536210BD00BF0098000019
:103390000090005000100250014B1880704700BF91
:1033A00008120020B0F5207F10B565D00ED8B0F51A
:1033B000007F4FD003D800B3B0F5C07F1DD040F2DE
:1033C000FE21BDE81040344805F059B9B0F5607FE2
:1033D000F5D14C1E012C06D9042904D040F2E1217C
:1033E0002D4805F04CF92D4AD2F8803023F03003F7
:1033F00043EA0413C2F8803010BD102901F1FF34F4
:1034000004D8274B23FA01F1CB0704D440F2B521AD
:10341000214805F034F905F073F905F07FF94FF410
:103420008031204B1D4A1967136F23F4704343EA20
:1034300004331367FEF710FD0446FFF7BDFAC0F131
:103440000201204605F064F900F03EF8BDE81040A6
:10345000FFF778BD4C1E1F2C04D940F2F2210E4814
:1034600005F00DF90D4BD3F8901021F0F85141EA19
:103470000461C3F89010BFE74C1E012C04D94FF42F
:103480003E71054805F0FBF8044B196F21F480618B
:1034900041EA84211967AFE70098000000800050DE
:1034A000160101000090005008B50121022000F033
:1034B00027F805F025F905F031F94FF48032014B7A
:1034C0001A6708BD0090005008B54FF4C070FFF7B0
:1034D0006FFCBDE80840044988428CBF02210121ED
:1034E0004FF42070FFF75EBF80F0FA02034A0179C3
:1034F000D36E23F030030B43D36670470040005077
:103500002DE9F0410446264BD3F88420D006FBD4A5
:10351000D3F88430C3F381139C423ED0FEF782FC83
:10352000012C05460BD11F4B984204D940F23C7147
:103530001D4805F0A4F80121284605F0E9F805F03A
:1035400007F94FF00072194B07465A66204605F0FE
:103550000FF94FF48063124E621E9340DFF84880EB
:103560003367736E9A0103D4D6F884309B060AD56C
:10357000384605F0F1F8022C0FD12846BDE8F0419D
:10358000002105F0C5B8D6F884309906E9D540F297
:103590004A71404605F073F8E3E7BDE8F08100BFEB
:1035A00000400050005A62024E9800000060005037
:1035B00007B518B90191FEF735FC0199064B1B7848
:1035C00043B1064B984205D8012003B05DF804EBE7
:1035D000FFF796BF0220F8E70A150020005A6202A2
:1035E0004FF0004210B501244AF6CD31154B5A6612
:1035F000154A03F50B2354605A6C1964224088B9AC
:10360000996811F0010F114903D08C60D86AC00786
:10361000FCD501234B6012B10D4B0E4A1A6405F024
:10362000A8F810BDD96A0907FCD42021074B5962BC
:103630000121A3F58053996005494B6A9B06FCD58F
:10364000E9E700BF009000500050095000600950A9
:10365000004009503254FFFF4FF0004238B5194B7B
:10366000194C5A66012203F50C235A604AF6CD33F1
:10367000656C23644378154093401343134AD36326
:10368000A368827823F0740343EA0213C278002A05
:1036900014BF042200221343A3600279837943EA12
:1036A000022323614279C37943EA022363610078EC
:1036B000FFF796FF0DB1064B236405F05AF8012081
:1036C00038BD00BF0090005000400950004000503D
:1036D0003254FFFF10B5044605F050F8002341F2C4
:1036E00002020849E360A360226104F50052E3612D
:1036F0006361A36123626362E362A3645164A362B2
:1037000010BD00BF7F370C0138B5154B04469842F9
:103710000D4604D040F26511124804F0B0FF25B9FF
:103720002046BDE8384005F029B8012204F5805351
:103730005A6040F2FF71204605F00F0205F01AF8BA
:103740002263782105F016F805F001036A0748BFE7
:1037500043F00203226C02F003029A42FAD138BD10
:103760000000035A9C980000F8B506460C46174620
:1037700022B940F22321414804F081FF404B9E4290
:1037800078D040F226213D4804F079FF44B940F258
:1037900075313A4804F073FF2046FFF709FB0446F1
:1037A0007368012B04D04FF41671344804F067FF9E
:1037B000B16801F0E001402946D009D8B9B120290B
:1037C00038D040F29A21BDE8F8402C4804F057BFA9
:1037D000602945D08029F4D107EB4703A34204D9DF
:1037E0004FF42571254804F04AFF012308E0B7EBA8
:1037F000141F04D94FF42071204804F040FF102317
:103800007B436401B4FBF3F31E4D203BB5EBC30FC8
:103810004FEAC30404D240F2A521184804F02FFF58
:1038200030462C40012104F0A5FFB462BDE8F84009
:1038300004F0A0BFB7EBD40F04D940F285210F48A4
:1038400004F01DFF0823DBE70625B4FBF5F3BB42BC
:1038500004D240F28A21094804F011FF2B46CFE739
:10386000B7EB940F04D940F28F21044804F007FF0E
:103870000423C5E7002C93D138248DE79C980000E1
:103880000000035AF8FF7F00436870B504460D46F8
:1038900016461BB140F2FF7104F06CFF2046FFF7A3
:1038A00019FFE9896B7B22690B43298A22F44C5268
:1038B0000B4322F0030213432361A2682B7B297E72
:1038C00022F0804222F0E2020B4313436A69134361
:1038D000A360AB681BB9A36843F00043A360EB6926
:1038E000002B52D0A268197A42EA8152A260A268E3
:1038F000997A42EA4142A2609A88A16802F4C042E1
:103900000A43A260A268597842EA8102A260A268D2
:10391000597B42EAC102A260A268997B42EA011285
:10392000A260A268997842EA8122A260DA79997944
:10393000520242EA8122E2601A7802F0FD01012976
:1039400008BFE168A2F1020204BF41F00401E16096
:10395000012A4FF0010294BF20492149C1F8C0203B
:103960005A7A04F580510A621AB1E26842F40062A0
:10397000E260DA7A4AB1E26842F40042E2601B7B1C
:10398000184A03F00F03C2F8803036B196F82030A1
:1039900004F58051ABB101238B6105212046FFF76F
:1039A000B3FEAA681AB120466968FFF7DDFE20461B
:1039B0002978FFF7A9FE236CDB4313F4405FFAD1AB
:1039C00070BD626996F8223096F8210022F0090253
:1039D0000343134343F001034B61DEE700D403507C
:1039E00000E403500090035038B52A4B0546984236
:1039F0000C4640D08A21284804F041FE34B98C217D
:103A0000254804F03CFE234B9D4236D09E2122489F
:103A100004F035FE637B032B03D9AA211E4804F072
:103A20002EFE237B802B03D0AC211B4804F027FE05
:103A30006369B3F1804F03D0AE21174804F01FFE35
:103A4000238A23F400539BB2B3F5805F03D0B021E7
:103A5000114804F014FEA368013BB3F5165F03D3CD
:103A6000B2210D4804F00BFE21462846BDE838403F
:103A70000022FFF709BF0029C1D03820FFF772FAF2
:103A800008380828C2D840F20B1323FA00F0C30705
:103A9000BCD5BFE70000035A9C98000038B5114B15
:103AA000054698420C4603D070210F4804F0E7FD0C
:103AB0001CB972210C4804F0E2FD237B802B03D15A
:103AC0007621094804F0DBFD637B032B03D97921C0
:103AD000054804F0D4FD21462846BDE838400022C0
:103AE000FFF7D2BE0000035A9C98000038B50D467F
:103AF0000446D8B101281CD002281CD0032803D1C9
:103B00000F23EB40DB0704D440F22D410B4804F0B7
:103B1000B6FD3020012141F21003444304F1A044DA
:103B200001FA05F504F57034E55038BD40F2FF1395
:103B3000E7E71F23E5E7FF23E3E700BF95970000D2
:103B400038B50D460446D8B101281CD002281CD037
:103B5000032803D10F23EB40DB0704D440F2FE31EE
:103B60000B4804F08CFD3020012142F21003444345
:103B700004F1A04401FA05F504F57034E55038BDB0
:103B800040F2FF13E7E71F23E5E7FF23E3E700BF6A
:103B900095970000F8B50D4616461F46044660B3DB
:103BA00001282DD002282DD0032803D10F22EA406E
:103BB000D30704D44FF4B0711B4804F060FD26B164
:103BC0002946204607B3FFF791FF04EB4403072D76
:103BD0004FF00F014FEA031319D8A80006FA00F2BC
:103BE00081401248184404F0EBFDE6B9294620460E
:103BF000AFB1BDE8F840FFF779BF40F2FF12D6E75A
:103C00001F22D4E7FF22D2E7FFF79AFFDDE7A5F1F5
:103C10000800800006FA00F281400548E2E7BDE8AE
:103C2000F840FFF78DBFF8BDED98000004C00350C9
:103C30000CC003504FF400120B4B10B5C3F880209A
:103C4000BFF34F8FBFF36F8F0024FF22074B214636
:103C50005C6520209A625C60FFF780F82146BDE831
:103C600010402120FFF77AB800E100E00000045086
:103C7000072838B504460D4603DD7721094804F0CE
:103C8000FEFC1F2C03D99121074804F0F8FC074BD8
:103C9000074A0120002D18BF134600FA04F41C60E7
:103CA00038BD00BF3C9900008B99000040100450C3
:103CB0004020045010B5044618B991211F4804F063
:103CC000DEFC23781B0613F0604F03D092211B48C3
:103CD00004F0D5FCE3780F2B03D9A321174804F097
:103CE000CEFC01212020FFF739F801212120FFF728
:103CF00035F80122124B5A60227812069A606178D8
:103D0000A27842EA01429A61FF229A6200229A63F3
:103D10001A644FF000425A654FF0FF324FF4001121
:103D200003F500531A65074AC2F88011E3781B01B6
:103D3000DBB282F81533116010BD00BF3C99000062
:103D40000000045000E100E02DE9F0410126C3B27B
:103D5000072805460C46904606FA03F603DDEC21DB
:103D6000354804F08CFC1CB9ED21334804F087FC85
:103D7000236823F47C1323F00F031BB1F0212E489A
:103D800004F07DFCA37A1B0413F47C0F04D040F2F2
:103D90000911294804F073FCE37A1B0513F07E6FC8
:103DA00004D040F20B11244804F069FC237B5B052E
:103DB00013F0FE5F04D040F20D111F4804F05FFCC9
:103DC00030201E4A637B166521681D4F02F50052A4
:103DD00042F8251000FB05752B66E37AA27A1B05D5
:103DE00043EA0243227B43EA425328F00302EB6595
:103DF0002A6704F0B4FC7B6D33437B65237A13B1EF
:103E00003B6C33433B64637A13B1BB6B3343BB639B
:103E10002279A37943EA0243084A93616179E379FD
:103E200043EA014307498B61054B56639E64BDE835
:103E3000F04104F09ABC00BF3C99000000200450FF
:103E4000000004500010045010B50124C3B207282C
:103E500004FA03F404DD40F29711074804F00FFC64
:103E600004F07DFC054B5A6D22EA04025A659C62FF
:103E7000BDE8104004F079BC3C99000000000450FB
:103E800010B50124C3B2072804FA03F404DD40F29C
:103E9000B5110A4804F0F3FB04F061FC084BDA6A40
:103EA000224209D15B6B34EA03030CBF01240024D6
:103EB00004F05BFC204610BD0024F9E73C990000AB
:103EC00000000450F8B50125C3B20728044605FADE
:103ED00003F504DD4FF4EE710C4804F0D0FB04F060
:103EE0003EFC30220A4B1E6D5F6B02FB04335C6E9E
:103EF00004F03BFC3D4206D1C4F30A1008B9354238
:103F000000D10130F8BD0020FCE700BF3C99000063
:103F100000000450022838B505460C4603D94C2150
:103F20000C4804F0ACFBE378627821785B0143EA4B
:103F3000820322790B4343EA02130C226A4302F103
:103F4000B0421363012902BFA278034B43F8252036
:103F500038BD00BFD9990000E880035008B54FF084
:103F6000B0435A6802B960B15B680BB104F03AFC27
:103F70004FF0B04130B10120074B586004F032FCE3
:103F8000C86008BD04F02EFC0223CB6004F02AFCBC
:103F90000122024B5A60F4E700100058002000583C
:103FA0004FF0B0435B6870B50BB104F01BFC01210E
:103FB000104B4578596083780679002BC37814BF7D
:103FC00002240024002B14BF042200224379DB00CA
:103FD00043EA06132B43234313434FF0B04293604D
:103FE000054B59600378002B14BF0B460223D360A6
:103FF00070BD00BF002000580010005870B5064684
:104000000C46154622B940F28E210C4804F037FBCD
:1040100024B94FF42070FEF7CBFE04466D00013C3E
:10402000B4FBF5F4064B250213EA042304D040F256
:10403000B321024804F023FBF56170BD289A00000B
:10404000070080FF194B10B59842044608D003F5CD
:104050008043984204D040F24241154804F00FFBDF
:10406000012204F580535A6040F6AA6341F205022A
:10407000636100230F49A360E365E26004F5005229
:104080002361E361E36491640849A3658C4202D033
:104090000948844207D18C42236502D0064B9C42DA
:1040A00001D1002363650123536010BD00C005509A
:1040B000289A0000FFFF01000000065038B5334B7E
:1040C000044698420D4608D003F58043984204D038
:1040D00040F269312E4804F0D2FA2046FFF7B2FFD1
:1040E0000122A97B04F580535A602A8AA36800291B
:1040F00014BF4FF48061002142F0010213432A7D76
:104100000B43002A14BF4FF000520022A360A368A3
:104110001343A360AB7C5BB11C4AEB7C94422DD172
:10412000A2F51032C2F88C31E36D43F08003E365F1
:104130002B7B2046D5E9011243F48053E360FFF75F
:104140005DFF6B7B0BB1102363616B7D1BB1A368BB
:1041500043F48033A360AB7D1BB1A36843F40043F9
:10416000A360EB7D2A7E1B07120503F0E04302F4F7
:10417000E0021343A3652B78636138BD054A94427E
:1041800004BFA2F52032C2F89C31CDE700C0055033
:10419000289A00000000065007B56B46054A1068D3
:1041A000516803C36846FFF757FA002003B05DF873
:1041B00004FB00BF789A000013B50024064A684645
:1041C000536F43F00103536700948DF80440FFF7E9
:1041D0008DF9204602B010BD0040005030B58BB0C4
:1041E0006C46154D0FCD0FC40FCD0FC495E80300DD
:1041F00084E80300114BD3F84C21120314D4D3F8F4
:104200005041E4B28DF81940FFF75EF8204480F386
:1042100008008DF818000A48FDF73AFE6846FEF7D8
:1042200061FF00200BB030BD064B1C884FF6FF73BA
:104230009C4208BF7824E5E7809A00000080E00FE8
:1042400000F049020001E00F30B5094D87B001AC24
:104250000FCD0FC42B6801A8236025238DF80530EE
:10426000FFF738F86420FFF797F8002007B030BD5B
:10427000A89A00006FF00402502110B50A480B4CB8
:1042800012F0800FD3B21BBF03F00F03043BA3183F
:104290001B1802F101020CBF83F800131976402AA3
:1042A000EED1002010BD00BF00ED00E000E100E015
:1042B00010B5044604F04CFA024B1C6004F04CFAB2
:1042C000002010BDB414002010B504F041FA034BD7
:1042D0001C6804F041FA204610BD00BFB414002051
:1042E0002DE9F0438BB01C4606AB064689461846BE
:1042F000904600211022129D04F0CFFB2279034644
:104300000AB18DF818200127C8F81C3063793046AF
:10431000002B14BF3B460223CDE90333644B4A46CE
:104320000293644B2946019300230093624B8DF85E
:104330001E7000F0DFFA0646002840F09280A36865
:104340003946EB63A3693A20EB64237DDFF874916F
:1043500085F8483023696B64237B85F84030236AF5
:104360006B65237F85F85030A36AEB6594F82430A1
:1043700085F858302368AB63FEF7F0FC3B46042217
:104380002169207BFFF706FC3B460222A169207DC4
:10439000FFF700FC88F8006085F860603946A06887
:1043A000FEF7DCFC6379394633BB4FF4C060FEF79F
:1043B000D5FCD9F82032414623F0030343F0020331
:1043C0002068C9F82032FFF70FFB02223B4B21691E
:1043D000C3F8C020227B42EA0142C3F8D020A16981
:1043E000227D42EA0142C3F8CC202379032B5DD819
:1043F000DFE803F02E193B544FF48060FEF7AEFC6B
:10440000D9F82032414623F0030343F00103C9F8F1
:1044100020322068FFF742FB95F8603043F0040338
:1044200085F86030D1E7002795F8603043F001034C
:1044300085F8603000230222216A207FFFF7AAFB63
:10444000226A237F43EA02431D4AC2F8C43097B967
:104450000422AB6B052103F5805320689A64FFF7B3
:1044600053F930460BB0BDE8F08395F8603043F067
:10447000020385F8603000230422A16A94F8240026
:10448000FFF788FB01230E4AA16AC2F8C03094F8F6
:10449000243043EA0143C2F8C830D9E795F86030C8
:1044A000012743F0030385F86030C3E72326D8E7EC
:1044B00063880000D38800000389000000C4035013
:1044C00000D403500080005010B50020144604F0C2
:1044D0009BF918B1BF21024804F0D1F8204610BD65
:1044E000BC9A0000034B022218680023806819461A
:1044F00001F024BD38100020302238B5037A04467C
:10450000534303F1A04303F58023DD6ED0E9032379
:1045100013449D4201D8AA4204D94FF43E71054884
:1045200004F0ADF8D4E9030303449D4218BF2846C4
:1045300038BD00BF299B000030B51446054687B042
:104540001046FFF7D9FF6369024683423CBFD4E9B6
:1045500003315B181B1AABB11249284603910021A5
:10456000CDE90131012304940093D4E9001304F050
:10457000ADF820B14FF434710B4804F080F80020FE
:1045800007B030BD0122627694F82D20002AF6D0C3
:1045900084F835301321E369204698472046636A42
:1045A0009847ECE739450000299B00002DE9F047CA
:1045B00088B0044688461746994604F0D0F88246EB
:1045C000002F00F0AB80237E03F0FF02002B00F0F1
:1045D000DE802046FFF790FF63690546984206D1CA
:1045E000637E23B940F27F316A4804F048F8666977
:1045F000B5429CBFD4E90352AD18AD1BBD4228BFE4
:104600003D4604F0ACF894F82D300646002B40F0FF
:1046100096802A464046616904F032FA63692F4663
:104620002B4463612CE06069037803F0FD011129DC
:1046300040F08280216B884205D1A3F111014B42E9
:104640004B4184F83430013F6369216B01328B4266
:1046500003F1010308BF236363619542E3D1D4E909
:104660000323216B1344994208BF2263216B8A42C2
:1046700001D88B4204D84FF46D71464803F0FFFF18
:10468000D4E9032361691344994208BF62616169F7
:104690008A4201D88B4204D84FF471713D4803F02F
:1046A000EEFF0023207A6376FDF7E6FD20B140F2AD
:1046B0001131384803F0E3FF2046FFF71DFF63691F
:1046C00083423FD10023E568237694F82D3065615D
:1046D00003B125632046636A98472F4B2A4603930C
:1046E000002302932369216801930123207A009318
:1046F0000494636803F0EAFF20B140F22D312548AD
:1047000003F0BDFF207AFDF7D7FD20B140F2513113
:10471000204803F0B4FF304604F027F85046C9F8AB
:10472000007004F022F8D9F80030002B0CBF1B20D9
:10473000002008B0BDE8F08708F8013B84E72F4669
:1047400000228AE70123207A23760DF11E01FDF76E
:1047500043FE20B14FF450710E4803F090FF9DF8D6
:104760001E30002BCED0207A0DF11F01FDF70CFE7C
:1047700020B140F24631074803F081FF9DF81F1039
:104780000029BFD12246207AFFF7D6FEBAE71746A6
:10479000C4E700BF299B00003945000070B50446FE
:1047A0000568FFF791FD844202D10020FFF780FDEC
:1047B00095F93630002B11DB012203F01F015B0954
:1047C0009B0003F160438A4003F56143C3F88021F5
:1047D000C3F88020BFF34F8FBFF36F8F287AFDF7A8
:1047E0008BFD20B14FF4ED71104803F048FF287A9B
:1047F000FDF7E8FC20B14FF4EF710C4803F03FFFE8
:10480000FDF7BEFC38B10A4B984204D04FF4F17169
:10481000064803F034FF00232846C4E90033C4E906
:104820000433A360AB6ABDE870401847299B0000C1
:10483000058000F02DE9F84304460D4690F82C80E1
:10484000DFF8AC908E18B54228D094F82D3083B1A3
:1048500003F085FF237E07461BBB226B63699A42E8
:1048600004D040F2F911484603F009FF384603F03E
:104870007CFF94F83430002BE5D0B8F1000F06D05F
:104880002B780A2B03D10D212046E3699847204657
:10489000E36915F8011B98470028D4D00020BDE833
:1048A000F8832046FFF728FEE1680138884238BFC8
:1048B0002069D4F830C03CBF00F1FF3040180346F7
:1048C0009C450BD013F80129112A01D0132A07D1D6
:1048D000A2F111035A425A4184F834202063C5E7FB
:1048E000994282BF236903F1FF335B18E8E700BFF9
:1048F000299B0000F0B50C460646154687B03822C5
:10490000002120461F4604F0C8F895E80300002364
:104910002A692376EB6884E80300C4E904232A7D2E
:10492000E36084F82C20AA7D2363012384F83430CB
:1049300084F835300C9B84F82D2023620D9BE761B1
:1049400063620E9BA3622B7A84F83630204B34606E
:104950007360204BB360204B3361204B7361204B5D
:10496000F360FDF755FC30B11E4B984203D0102484
:10497000204607B0F0BD002104F10800FDF7D0FB90
:104980000028F4D10127184B0494CDE902032369D0
:10499000009701936368E2682168207A03F096FE2D
:1049A00004460028E3D195F90830002B0BDB03F017
:1049B0001F025B099B0003F16043974003F56143CD
:1049C000C3F880711F603046FFF772FCD0E700BF6C
:1049D00035480000AD450000BF890000C5890000D2
:1049E0009D470000038000F03945000030B50F4CB2
:1049F00041612368ABB92060836011E0891A9A682D
:104A00001D4641612AB113465A698A42F6D955B109
:104A10001A461346A860836013B15A69511A596146
:104A200030BD0025F0E72060F5E700BFC41400208A
:104A300010B503F0F0FF0A4C0A4B19682368C31A3B
:104A400001B10BB9206010BD4A699A423ABF9B1A66
:104A50000022D21A4A6128BF00238968F0E700BF0C
:104A6000B8140020C414002038B5134D2B685B69BE
:104A700093B1124A022014681C4403F0D3FF20466D
:104A800000F000FA00230E492A680B70D0888007D6
:104A900009D501230B7038BD022003F0C3FF0220AB
:104AA00000F03AFAEEE79268002AF4D05069034425
:104AB000012BEBD9EFE700BFC4140020B81400208D
:104AC0000C15002070B516469DF81420C0E9033679
:104AD0000271049ABDF818300260002204460D46A7
:104AE0008260C38006BB03F096FF2844A0613DB9F5
:104AF000E368656113B120462168984796B1354651
:104B000003F026FE0646FFF793FF29462046FFF7EF
:104B10006DFF074B1B68A34201D1FFF7A5FF30468D
:104B200003F01AFE002070BD03F075FF3044DDE78E
:104B3000C414002000220C490B687BB183420AD1C7
:104B400083687AB1936083681BB15A6941690A44EA
:104B50005A61002070471A469B68EEE70028EFD0A4
:104B6000022070470B60EEE7C414002070B503F01C
:104B7000F6FD144E05463478FCB9134B1C60134BFC
:104B80001C60134B1C8000F039F9012003F04AFF30
:104B900003F054FF0F4B0246186020B9284603F07B
:104BA000E4FD232070BD234640F2E7310A4800F0BF
:104BB00001FA0A4B186001233370284603F0D5FD33
:104BC0000020EFE70B150020C4140020B8140020CB
:104BD000D4140020C014002018FCFFFFBC140020D7
:104BE0002DE9F0410546F8B103F0B2FD0F4F06463E
:104BF000FFF71EFF2846D7F80080FFF79BFF04460B
:104C000028B1304603F0A8FD2046BDE8F081A84554
:104C10003B6803D123B1FFF727FFF2E7002BF0D168
:104C2000022000F061F9ECE72224EDE7C414002033
:104C300038B50C46054698B191B100230B7003F0CE
:104C40008EFD0121074B1B680BB122781AB103F0CE
:104C50008CFD002038BDAB4214BF9B682170F3E788
:104C60002220F7E7C41400200C4B70B51B680D46DA
:104C7000834211D340F2E73100248C462146084B91
:104C80004FF47A721E680023E0FB06C1604600F014
:104C900091F92860204670BD2120FCE7BC1400205B
:104CA000C0140020C2072DE9F84F04460BD54F4A27
:104CB000138801339BB21380FFF7BAFE4C4B1B687D
:104CC0000BB1FFF7D1FEA30740F18E8003F047FD43
:104CD0004FF0000A05465646FFF7AAFED046444F5D
:104CE000DFF814913C680CB163698BB10022414B31
:104CF000012E1A7003D1BAF1020F08BF1E70002CEA
:104D000062D0FFF7B1FE2846BDE8F84F03F02DBD95
:104D100023461A792179914288BF1C469B6813B1BA
:104D20005A69002AF5D0284603F01FFDD4F810A0D8
:104D3000BAF1000F4CD003F06EFEA269851AEB1792
:104D4000AA4578EB030344DA236913440122A361E3
:104D500023691BB312BBEB17BAEB050563EB4303E7
:104D6000002B04DA4FF4A461484603F088FCA38BBF
:104D700033B1E28B13449BB2B3F57A7F1CD2E38349
:104D800003F0EDFC824629462046FFF72FFEA3697B
:104D9000226950461344A36103F0E7FCE368B4F8CA
:104DA00006A0013613B120462168984703F0D7FCCE
:104DB0000546FFF73DFE95E7A3F57A73E383A36904
:104DC000013D013BA361DBE7022000F08DF89AE78B
:104DD000554603F0C4FC83462046FFF7ABFE584619
:104DE00003F0C3FC0022B3E7BDE8F88FD414002021
:104DF000C41400200D1500208C9B00001FB500245A
:104E00001D4B012118689A880290D3F806009B7AFE
:104E100000903E20ADF80C208DF80430FDF79EFF89
:104E20008DF8084003F0F5FD8DF80C0002A8FFF79F
:104E3000B7F8694601208DF80040FFF76BF84FF096
:104E4000B04240F2FF31936923F47F7323F00303F0
:104E500093610A4B5961936A13F00803FBD1136203
:104E60000120FFF77BF84FF48052054BC3F88021F7
:104E70001A6004B010BD00BFEE9B00000020005877
:104E800000E100E010B5044603F062FC4FF0B042D0
:104E9000936A1907FCD4136A116C5269520604D440
:104EA000CA1A032A01D88B420ED1E21A022A98BFED
:104EB000DC1CB4F1FF3F38BF013C4FF0B0431C6431
:104EC0009A6942F040029A6103F046FC054A137861
:104ED0003BB14FF0B041CB6B43F00203CB630023F7
:104EE000137010BD0A120020820700F001030AD5DA
:104EF0000121084A43F0400311704FF0B041CA6BE2
:104F000022F00302CA634FF0B0418A6922EA030328
:104F10008B6170470A120020830742BF4022014B79
:104F20005A6170470010005810B503F018FC4FF09C
:104F3000B04304465B695A06074A03F0010003F0D8
:104F4000510348BF40F002005361FFF7ABFE20461B
:104F5000BDE8104003F009BC0020005810B504461D
:104F6000FCF77AFF4FF47A729042B0FBF2F105D26F
:104F70003621BDE810400C4803F081BB0B4BB3FB5E
:104F8000F1F30B49884201D93C21F2E702FB04F01E
:104F9000B0FBF3F0022806D9BDE810400323B0FBB4
:104FA000F3F0FBF7CDB810BDF99B000040420F00B5
:104FB000E7CD9A3B53B94AB9002908BF00281CBF66
:104FC0004FF0FF314FF0FF3000F082B9ADF1080C27
:104FD0006DE904CE00F006F8DDF804E0DDE9022317
:104FE00004B070472DE9F04F099D04460F46002B91
:104FF00048D18A42944661D9B2FA82F343B1C3F1EF
:1050000020019F4002FA03FC9C4020FA01F10F436B
:105010004FEA1C411FFA8CFE220CB7FBF1F601FB94
:10502000167706FB0EF042EA0742904208D91CEBC5
:10503000020206F1FF3702D2904200F237813E466B
:10504000121AA4B2B2FBF1F001FB102200FB0EFE1B
:1050500044EA0244A64508D91CEB040400F1FF32DF
:1050600002D2A64500F21C81104640EA0640A4EB9D
:105070000E0400261DB1DC400023C5E90043314683
:10508000BDE8F08F8B4209D9002D00F0FD8000268D
:10509000C5E9000130463146BDE8F08FB3FA83F62A
:1050A000002E4BD18B42C0F0F280824240F2EF8062
:1050B0003046002DE3D0C5E90047E0E702B9FFDE46
:1050C000B2FA82F3002B40F09D80891A4FEA124E0B
:1050D00097B20126200CB1FBFEF20EFB121140EA42
:1050E000014107FB02F088420FD91CEB010102F1DC
:1050F000FF382CBF4FF001094FF00009884203D957
:10510000B9F1000F00F0CF804246091AA4B2B1FBFA
:10511000FEF00EFB101100FB07F744EA0144A74222
:1051200008D91CEB040400F1FF3102D2A74200F2BF
:10513000B4800846E41B40EA02409BE7C6F1200722
:10514000B34001FA06F422FA07FCF940B2404CEAF7
:10515000030C20FA07F34FEA1C491C431FFA8CFE8C
:1051600000FA06F3200CB1FBF9F809FB181140EA2C
:10517000014108FB0EF088420FD91CEB010108F138
:10518000FF3A2CBF4FF0010B4FF0000B884203D9C0
:10519000BBF1000F00F08D80D046091AA4B2B1FB1C
:1051A000F9F009FB101100FB0EFE44EA01418E45A7
:1051B00007D91CEB010100F1FF3401D28E457FD8E5
:1051C000204640EA0840A1EB0E01A0FB02984145B1
:1051D0004C46C64602D306D14B4504D20138B9EB42
:1051E000020468EB0C0E002D70D01A1B61EB0E014F
:1051F00022FA06F301FA07F7F14000261F43C5E93A
:1052000000713CE702FA03FCC3F1200001FA03F24B
:1052100021FA00F64FEA1C4E24FA00F11FFA8CF72F
:105220009C401143B6FBFEF00A0C0EFB106642EAEE
:10523000064200FB07F696420ED91CEB020200F173
:10524000FF382CBF4FF001094FF00009964202D9F8
:10525000B9F1000F31D04046921B89B2B2FBFEF685
:105260000EFB162241EA024106FB07F28A4207D9E9
:105270001CEB010106F1FF3801D28A4223D84646D1
:10528000891A46EA004625E72E462846F7E6841A9C
:1052900061EB030301201F460BE76444023849E732
:1052A00064440238E1E6023A61442EE7023E624479
:1052B000C6E6A8F1020861446FE702386244CBE712
:1052C000023861447DE7023E6144D9E72E46D6E6C6
:1052D000704700BF08B5074B044613B1002100E03A
:1052E00000BF054B1868836A03B19847204603F056
:1052F00049FB00BF00000000549D000070B50D4D3B
:1053000000260D4C641BA410A64209D10B4D0026AB
:105310000B4C04F099F9641BA410A64205D170BD92
:1053200055F8043B01369847EEE755F8043B013643
:105330009847F2E7101200201012002010120020EF
:10534000141200202DE9F04F2DED028B8DB00C468C
:1053500016461F46DDF86080054601F0EDFBD0F8EB
:1053600000A0504603F0B1FC002394F818B008EEFA
:10537000100A0A9323680593D8F80030073323F006
:10538000070303F10802C8F80020D3E90023C4E9A9
:105390001223D4E912894FF0FF3229F00043CDF8EF
:1053A000188007939E4BDDE9060103F027F888BBC0
:1053B0004FF0FF329A4BDDE9060103F001F848BBDC
:1053C000002200234046494602F0F0FF10B12D2391
:1053D00084F84330934B9448BBF1470F94BF9846F1
:1053E000804603234FF000092361059B23F004024C
:1053F000226033460BAA21462846009703F0F5FBAE
:10540000013040F090804FF0FF300DB0BDEC028BCA
:10541000BDE8F08F42464B464046494602F0EEFF5B
:1054200040B14B468148002BBCBF2D2384F843304C
:105430007F4BD1E70BF0DF02636806925A1C3FD125
:1054400006236360059B2846616843F4806200235D
:1054500003930AAB2260CDE901B309AB49EC108B91
:1054600000930DF1230303F020FB069B804609996E
:10547000472B08D1C81C02DB6368994241DDABF1C0
:10548000020B5FFA8BFBBBF1650F20D801395A463E
:1054900004F15000099103F06AFB0A9A814613183F
:1054A000012A236102DC2268D20701D5013323617E
:1054B0009DF82330002B9CD02D2384F8433098E7AF
:1054C000069A472ABED1002BBCD10123B9E7BBF114
:1054D000660F18D1002963680BDD216113B92268BA
:1054E000D00702D501330B4423614FF00009A165B9
:1054F000DEE713B92268D20701D50233F4E70123AE
:10550000F2E74FF0670B0A9B994205DB23682161A4
:10551000D807EAD54B1CE7E70029D4BFC1F1020246
:1055200001221344E0E723685A0507D42369424661
:1055300031462846B84701302CD164E7BBF1650FEE
:1055400040F2E08000220023D4E9120102F024FF9F
:10555000002834D00123374A31462846B847013065
:105560003FF451AFDDE909239A4202DB2368D807F3
:1055700010D518EE103A524631462846B847013049
:105580003FF441AF4FF0000804F11A090A9B013BB8
:10559000434509DC23689B0700F10581E0680B9B0C
:1055A0009842B8BF184630E701234A46314628469C
:1055B000B84701303FF427AF08F10108E6E7099B3F
:1055C000002B39DC01231B4A31462846B8470130FD
:1055D0003FF419AFDDE90923134302D12368D9074A
:1055E000D8D518EE103A524631462846B847013011
:1055F0003FF409AF4FF0000904F11A0A099B5B421E
:105600004B4501DC0A9B92E701235246314628466E
:10561000B84701303FF4F7AE09F10109EEE700BFEA
:10562000FFFFEF7F589D00005C9D0000649D00001F
:10563000609D0000689D00000A9AA36D9A42A8BF71
:105640001A46002A914637DC4FF0000B29EAE97927
:1056500004F11A02A36D0593A3EB09035B4533DC48
:10566000DDE909239A423BDB2368DA0738D40A9B39
:10567000059A09999A1AA3EB01099145A8BF914689
:10568000B9F1000F35DC4FF0000829EAE97904F19F
:105690001A0ADDE909239B1AA3EB090343457FF7A7
:1056A00079AF0123524631462846B84701303FF4CE
:1056B000AAAE08F10108ECE71346314642462846F7
:1056C000B8470130C0D19EE60123314628460592F5
:1056D000B84701303FF497AE0BF1010B059AB9E7DB
:1056E00018EE103A524631462846B8470130BED12E
:1056F00089E6059A4B46314628464244B847013070
:10570000C1D180E60A9A012A01DCDB0738D50123E2
:10571000424631462846B84701303FF474AE18EE91
:10572000103A524631462846B84701303FF46BAE36
:1057300000220023D4E9120102F02EFED8B90A9B00
:1057400008F10102013B31462846B84701300ED12D
:1057500059E60123524631462846B84701303FF406
:1057600052AE08F101080A9B013B4345F1DC4B4670
:1057700004F15002DCE64FF0000804F11A0AF2E7E7
:1057800001234246DFE701234A4631462846B8470F
:1057900001303FF438AE08F10108E3680B995B1A59
:1057A0004345F0DCFAE64FF0000804F11909F4E78C
:1057B0002DE9FF470F7E914680460C46782F9A468A
:1057C0000C9D01F1430207D8622F0AD8002F00F088
:1057D000D880582F00F0A38004F1420584F842706D
:1057E0003AE0A7F16303152BF6D801A151F823F095
:1057F000495800005D580000D9570000D9570000F3
:10580000D9570000D95700005D580000D957000053
:10581000D9570000D9570000D95700006959000036
:105820008D5800004B590000D9570000D95700008F
:105830008B590000D95700008D580000D95700003F
:10584000D9570000535900002B681A1D1B682A60A5
:1058500004F1420584F842300123A3E0206829685E
:10586000060601F104030AD50E682B60002E03DA48
:105870002D23764284F843305E480A2319E00E68EF
:1058800010F0400F2B6018BF36B2EFE72B6820688E
:10589000191D2960010601D51E6802E04606FBD5E8
:1058A0001E886F2F53480CBF08230A23002184F859
:1058B00043106568002DA560A2BF216821F0040196
:1058C00021600EB9002D4DD01546B6FBF3F103FB58
:1058D0001167C75D05F8017D37460E46BB42F4D916
:1058E000082B0BD12368DE0708D52369616899422C
:1058F000DEBF302305F8013C05F1FF35521B226164
:105900004B4603AA21464046CDF800A003F06DF9AE
:1059100001304CD14FF0FF3004B0BDE8F08735487E
:1059200081F845702968236851F8046B29601D06C9
:1059300014D5DF0744BF43F0200323601EB923685A
:1059400023F0200323601023B0E7236843F02003F3
:1059500023607823284884F84530E3E7590648BF98
:10596000B6B2E6E71546BBE72B682668181D6169E5
:10597000286035061B6801D5196002E07006FBD56A
:105980001980002315462361BAE72B6800211A1DF0
:105990002A601D686268284603F0E5FB08B1401BD9
:1059A000606063682361002384F84330A8E72369BB
:1059B0002A4649464046D0470130ABD023689B0772
:1059C00013D4E068039B9842B8BF1846A4E70123AC
:1059D000324649464046D04701309BD00135E36806
:1059E00003995B1AAB42F2DCEBE7002504F11906E0
:1059F000F5E700BF6A9D00007B9D00002DE9F04F98
:105A000087B017468B46804603930C468B685A1E18
:105A1000B2F5AE7F8BBF6FF4AE7500235B190293B6
:105A20004FF0000584BF029340F25D13AA46A946D9
:105A300088BF8B600B68019543F4F0634BF81C3B07
:105A40005E46CDE90455A26852B13B681B784E2BE7
:105A500064D8402B3CD8A3F12B01C8B20E283AD908
:105A6000B9F1000F03D0236823F4807323600AF197
:105A7000FF3ABAF1010F00F213815E4500F2058191
:105A80000125284607B0BDE8F08FA3F161020D2A79
:105A9000E6D801A151F822F0D75B0000615A00005E
:105AA000615A0000615A0000375C00000F5C000082
:105AB000615A0000615A0000E55B0000615A000075
:105AC000615A0000615A0000615A00009D5B0000AD
:105AD000A3F14102DBE70E29C2D801A050F821F062
