S01400006D69637269756D6F735F6E65742E73333762
S21400000000100020150C000037D7010037D701007C
S21400001037D7010037D7010037D7010037D701009F
S21400002037D7010037D7010037D7010037D701008F
S21400003037D7010037D70100EB99010037D7010009
S21400004037D7010037D70100E513000037D7010086
S21400005037D7010037D7010037D7010037D701005F
S21400006037D7010037D7010037D7010037D701004F
S21400007037D7010037D7010037D7010037D701003F
S21400008037D7010037D7010037D7010037D701002F
S21400009037D7010037D7010037D7010037D701001F
S2140000A037D7010037D7010037D7010037D701000F
S2140000B037D7010037D7010037D70100E5AF010079
S2140000C037D7010037D7010037D7010037D70100EF
S2140000D037D7010037D7010037D7010001060000E7
S2140000E013D6010037D7010037D7010037D70100F4
S2140000F037D7010037D7010037D7010037D70100BF
S21400010037D7010037D7010037D7010037D70100AE
S21400011037D7010037D7010037D7010037D701009E
S21400012037D7010037D7010037D701002537000041
S21400013037D7010037D7010037D7010037D701007E
S21400014037D7010037D7010037D7010037D701006E
S214000150000000000000000000000000000000009A
S214000160013800D0FCE770470000000000000000E7
S21400017001F0FF01102A2BDB10F0070F08D010F853
S214000180013B013A8B422DD010F0070F42B3F6D157
S214000190F0B441EA012141EA014122F007047FF070
S2140001A000070023F0E80256083C85EA010586EAC7
S2140001B0010685FA47F5A3FA87F586FA47F6A5FA03
S2140001C087F68EB9EED1F0BC01F0FF0102F007020F
S2140001D032B110F8013B013A83EA010313B1F8D1BA
S2140001E00020704701387047002D06BF354603389B
S2140001F0073815F0010F07D1013015F4807F02BFD4
S214000200013015F4C03F0130F0BC0138704700BF24
S2140002102DE9F04F9FED5C7B89B08DED007B0023D0
S2140002200B701F466D461E4698464FF00A0C4FF060
S214000230FF398646E0B110F8014B6CB9C6B1337889
S2140002402E2B15D0DDE900450B782046032B0FD862
S214000250DFE803F0393E54722E2C23D0A4F1300B85
S2140002605FFA8BF6092E03D80133DBB20A2B05D9C9
S21400027080231370002009B0BDE8F08F2E686C68EC
S214000280A6FB0CA60CFB04661FFA8BF41AEB040400
S21400029046F10006A145C5E9004678EB0604E7D31B
S2140002A07646C6E7002EE3D033782E2BE0D0013713
S2140002B0FFB2032FDCD80B78013385ED027B0B7081
S2140002C008350023ECE7002DD2D100231370D2E7C7
S2140002D0FF2CDDE90231CBD8B3F1807F71F100014C
S2140002E0C6D21A0244EA036002F47F0242EA00041D
S2140002F0180A00F47F40204300BABCE7029D039B27
S21400030004990598B5F5807F73F100032CBF01238F
S2140003100023B1F5803F70F1000028BF43F00103D1
S214000320002BA5D1FF2CA3D8080640EA05200443DD
S214000330080200F47F00DEE70298039D0499059EFC
S214000340069BB0F5807F75F100052CBF01250025C2
S214000350B1F5807F76F10006079E28BF45F00105BF
S214000360B3F5807F76F1000628BF45F00105002D25
S2140003707FF47EAFFF2C3FF67BAF090441EA0020F6
S214000380204340EA0360B7E70000000000000000DA
S21400039010B5054C237833B9044B13B10448AFF3BA
S2140003A000800123237010BDB02000200000000054
S2140003B02062020008B5034B1BB103490348AFF3A4
S2140003C0008008BD00000000B4200020206202006B
S2140003D0A3F5803A704700BF174B002B08BF134B9E
S2140003E09D46FFF7F5FF00218B460F461348144A3B
S2140003F0121A23F061FD0E4B002B00D098470D4BD0
S214000400002B00D098470020002104000D000D4866
S214000410002802D00C48AFF300801BF0E9FF200054
S214000420290000F01BF91BF0CFFF00BF00000800FA
S214000430000000000000000000100020B020002097
S214000440607A0220000000000000000038B502F0CC
S21400045059F81248124C012101F0D6F80122114633
S214000460002001F0BBFF022501221146C4F880508F
S214000470002001F0B3FF01221146C4F8845000208A
S21400048001F0ACFF0122C4F88C501146002001F0A8
S214000490A5FFC4F88850002038BD00BF30053E00D8
S2140004A000400E4008B54FF0804301225A6403F521
S2140004B064231E49D3F8B02042F00102C3F8B020EE
S2140004C0D3F8E02042F00802C3F8E0204A6B42F47A
S2140004D080524A63D3F8E02022F00802C3F8E020F6
S2140004E0D3F8B02022F00102C3F8B020104AD2F8A8
S2140004F0A43143F4F843C2F8A43119F009FD00F022
S21400050039FA19F0A9FC19F0EFFC19F0BBFCFFF75B
S2140005109DFF23F00CFB00F01FFA1BF0A9FB03F075
S214000520EFFCBDE8084003F001BF00BF00400540F7
S21400053000300E4030B5214D0FCD97B00FAC0FC434
S21400054095E807001E4B84E807001E4A1E49CDE9C1
S21400055003231E4B059303F1042306930423CDE9DE
S2140005600713102200210BA823F0A6FC184B4FF40B
S2140005708010CDE9090327238DF82C3028238DF829
S2140005802D30144B0C9320230D9301238DF8393016
S214000590114B0093114803AB0FAA09A91AF0CAF829
S2140005A0044618B10E4888211DF0CCF800214FF4FF
S2140005B0E1301DF091F8204617B030BDE44202004D
S2140005C000B20400001001400004040407040705FC
S2140005D01C100140A84B0020CC200020BC2100208D
S2140005E0B442020008B5FFF7A5FF28B1BDE80840F1
S2140005F00248B8211DF0A6B808BD00BFB4420200EC
S21400060001481AF04FB900BFBC21002001481DF078
S214000610C3B800BF0043020007B51CF0FCFF03F0A0
S21400062091F80C480C4C1CF07DF823F035FC1BF0C0
S214000630CFFC20461DF0B3F800F07AF801AA00219E
S2140006404FF47A7005F022FF9DF80430002BF0D0AE
S214000650FEE700BF184302000043020000B58DB05D
S21400066023F05EFB00F042F80BAB08930222002357
S214000670CDE906324FF400713322CDE902210A4A51
S21400068001921522CDE9043300920849084A094828
S21400069005F0E0FC9DF82C3003B1FEE723F04DFB9F
S2140006A001200DB05DF804FBDC2100202E43020083
S2140006B019060000DC29002037B50D46044623F055
S2140006C003FC00230246CDE900532146024823F0EE
S2140006D0DFF903B030BD00BFC02A0020024B4FF444
S2140006E000629A61704700BF0080084013B5002082
S2140006F019F01AFB00B1FEE70A4819F083FB04461E
S21400070000B1FEE7034604220B2102F081FBCDE98F
S2140007100044054A054823464FF4FA711AF0C4FA15
S21400072002B010BDC02A0020DD060000EC2A002022
S2140007302DE9F0417B489EB023F07DF87A49794850
S21400074023F0E2F979480021FFF7B6FF78497548AB
S21400075023F0DAF906238DF80F300DF10F0203AB04
S21400076004A901200BF032FE9DF80C20002A40F070
S2140007709A8003AB009304A801230EA91EF01CFD6B
S2140007800EA80A21FFF798FF0EA901200BF02CFFF8
S2140007909DF838300246002B40F08780654B66484F
S2140007A0002A08BF18461421FFF786FF042303A972
S2140007B001208DF80F300BF017FF044640B903AB4D
S2140007C00DF10F0204A901200DF040F800286ED1AB
S2140007D0042303A901208DF80F300BF005FF044613
S2140007E080B903AB0DF10F020EA901200EF0B8FD83
S2140007F040B1DFF830810EAE282527469DF80F3031
S2140008009C4268DB002110220FA80E9123F054FBB7
S2140008104A484B49D0F818210B68D0F81CC1D0F8CC
S21400082020E1D0F82471D0F82861D0F82C51D0F807
S21400083030411A4462440EEB02033B4433442B44DB
S2140008402344404C0B60D0F868112268D0F86CE165
S214000850D0F870C1D0F87471D0F87861D0F87C51B7
S214000860D0F8800111440EEB010262443A4432444F
S2140008702A44024422601421334A0EA81CF030F8A1
S2140008800EA86E21FFF718FF2368304A14210EA821
S2140008901CF026F878210EA8FFF70EFF1EB0BDE864
S2140008A0F04119F06BBA2A486BE72A487BE79DF8B7
S2140008B00F30002B8CD003AB049822460EA91EF0F6
S2140008C0C7FC9DF80C300BB11DF0E1FB1E210EA8F5
S2140008D0FFF7F2FE7CE703AB009300231A4604A959
S2140008E030461EF0ECFC9DF80C300BB11DF0CFFB33
S2140008F00023142204A9CDE90057404623F0C8F887
S21400090004A823F0E1FA05F10A030093A0F114020B
S2140009100197002309A9404623F0BAF8143501349C
S21400092010366BE7C02A0020C45502005E43020062
S214000930945202004C43020054430200004002401E
S214000940BC2A0020B82A00206D4302007C43020027
S214000950B15E02004143020008B50548012100F0DF
S21400096053FE1CF03DFEBDE808401CF073BE00BF01
S21400097000550A000148012100F046BE00550A0055
S2140009802DE9F0431F4E0446894690460FCE89B0A7
S21400099001AD0FC596E8070085E8070025681A48E8
S2140009A06E6FAF6F012100F02FFE6068012100F02E
S2140009B02BFE617B207B0023042202F029FA617A59
S2140009C0207A0422002302F023FA0123284601A9F4
S2140009D08DF81230CDF80C90ADF8148002F098FD2A
S2140009E0237CA27B1B0643EA022307F0070706F0D8
S2140009F001063B4346F00A060020AB676E6709B067
S214000A00BDE8F0838C43020000550A0013B5044687
S214000A101AF026F9247B00230122CDE90032640077
S214000A20034AB0FBF4F1034823F02CF902B010BDE2
S214000A30390A00000C2B0020024B4FF400629A612A
S214000A40704700BF0080084073B50E4B0E4E4FF443
S214000A508045DD660446407B1AF0E8FA042302224D
S214000A600DF106013046ADF806301CF044FE304667
S214000A701CF052FEA07B1AF0D9FA044B0020DD666B
S214000A8002B070BD008008460010002000800844B8
S214000A9070B5064601211248124C00F0B5FDB1684B
S214000AA011480022FFF76CFF002304220E210220CB
S214000AB002F0AEF9002304220B211846354602F058
S214000AC0A7F90FCD0FC42B682360084B01223046D0
S214000AD01A70FFF79BFF3046FFF7B6FF002070BD89
S214000AE000550A002C2B002000100020C84B0020C8
S214000AF02DE9F04F0788994603795F43344B541C21
S214000B004FF48042DA661FFA84FA85B00646407BC8
S214000B108846FF101AF08AFAC4F34E0453461F2282
S214000B202CBB93401B0C43F001032A48ADF80E3053
S214000B3002220DF10E011CF0DEFDDFF898B009F17F
S214000B40FF3301930AF1010A4C4517D121481CF0E6
S214000B50E3FDB07B1AF06AFA1F4B1E484FF4804242
S214000B60DA661CF0DEFD002005B0BDE8F08F04F06C
S214000B70010141EA4303013A6408D1E741463A4697
S214000B8058461CF0B8FD019BA342B8440BD14FF663
S214000B90FF72ADF80E2002220DF10E0158461CF031
S214000BA0AAFD0134D0E70AEB040295B21F21C2F376
S214000BB04E0232B98D402D0C45F03F05ADF80E5073
S214000BC0E9E702F0010040EA450501395208F0E77E
S214000BD0008008460010002000800844034B0448AC
S214000BE01B78002B08BF0020704700BFC84B0020B2
S214000BF02C2B002030B5064D0FCD87B001AC0FC4AE
S214000C002B68236001A8FFF743FF07B030BD00BF85
S214000C10A843020008B500F093F8124B12498B4225
S214000C2012D3124B124900208B4218D3FFF7D4FB85
S214000C30186850F82240586840F8224001329868F8
S214000C408242F5D30C33EAE70022F8E71C6844F842
S214000C50220001325C68A242F8D30833E4E700229F
S214000C60F8E700BF28620200346202003462020025
S214000C70346202000048704700A24A04174AD2F8BD
S214000C80943003F00703023B042B1FD8DFE803F081
S214000C900620031A0800124B1B680AE0114BFBE7FC
S214000CA09368C3F30443073B072B14D80E4A52F845
S214000CB023300A4AD2F80001C0F304200130B3FB07
S214000CC0F0F07047094B1B685B08F2E7074BE3E759
S214000CD04FF40043EDE70023EBE700BF00400E4073
S214000CE02010002018100020BC4302001C1000201A
S214000CF008B5FFF7C3FF054BD3F80831C3F3082345
S214000D000133B0FBF3F0024B186008BD00400E4004
S214000D1014100020014B1868704700BF1810002000
S214000D20054B1860054BD3F8943003F00703022BED
S214000D3001D1FFF7DDBF70471810002000400E40BD
S214000D40044B054A9A60D3F8882042F47002C3F830
S214000D508820704700ED00E000000000014B186896
S214000D60704700BF2010002005490A681318054880
S214000D7083428CBF4FF0FF320B601046704700BFB7
S214000D80241000200000082008B52948012100F0A2
S214000D903BFC012304220221052002F039F8002042
S214000DA002F020F8234B0122C3F810281146042035
S214000DB001F014FB204801F033F9204BD3F8F02063
S214000DC042F00102C3F8F020D3F8FC2042F0807213
S214000DD0C3F8FC20A3F55D43194A1A6000F5D52038
S214000DE0184B00F2FC40B0FBF3F0174B0138022220
S214000DF01861C3F8F0204FF48072C3F804234FF054
S214000E006043124AC3F8B02F114AC3F8802ED3F8B5
S214000E10002E42F48072C3F8002EFF2283F82020B2
S214000E20D3F8002E22F48072C3F8002E002008BDEE
S214000E3000550A000080104306000E0000ED00E09A
S214000E40FF030040F8590D00000004E055CEACC585
S214000E50090001004FF0604330B5D3F8802ED2076A
S214000E6015D501240B4D8440D5F8FC2042F0807245
S214000E70C5F8FC20D3F8002E2243C3F8002E53F802
S214000E802020002AF0D003F82010002030BD1120CA
S214000E90FCE700BF00ED00E0082838B504460D4624
S214000EA004D84FF6FF73CB40DB0704D4084840F263
S214000EB0FE311CF047FC30230C2013FB040000F12D
S214000EC08840012100F5082001FA05F5056038BDC7
S214000ED0DC430200082838B504460D4604D84FF611
S214000EE0FF73CB40DB0704D4084840F22D411CF0CA
S214000EF029FC30230C2013FB040000F18C40012158
S214000F0000F5082001FA05F5056038BDDC4302004F
S214000F1010B501210446094800F076FB0848012177
S214000F2000F072FBA37820786178B3FA83F35B094C
S214000F30042201F06DFF002010BD00BF40410500F7
S214000F4000550A0038B504784578082C04D84FF6C2
S214000F50FF73EB40DB0704D407484FF489611CF0AD
S214000F60F1FB3023634303F18043012203F508239A
S214000F70AA409A6138BD00BFDC43020070B506780F
S214000F804478082E054604D84FF6FF72E240D30791
S214000F9004D40C484FF483611CF0D4FB30230C229D
S214000FA013FB062303F1067303F5004304EBC304A7
S214000FB0A400AB782068C0B213B9B0FA80F040093C
S214000FC070BD00BFDC4302002DE9F04F9A46554B3A
S214000FD085B01B78DDF83C909DF844B0DDF8508075
S214000FE006460F461546002B00F08B80172A00F2A7
S214000FF08A800E9B002B00F08680B9F1000F00F06F
S2140010008280129BB3F5006F7DDC012802D1109B15
S214001010002B78D0444B03EB05131B7B002B74D0BE
S214001020424C10220021684622F046FF04EB45148D
S2140010301022002F57D13946204622F03DFF43F2BA
S21400104010036380BBF1000F03D1E37843F0030382
S214001050E370364A0E9BCDF800A002EB451CCCE9A7
S2140010600193129B013BC3F30A009DF84C306901C3
S21400107003F003039B0643EA001E53582C4818400F
S2140010804EEA0003012E535041D11323CCF80C3006
S2140010909CE80F000CF1100E8EE80F00DCF81C2008
S2140010A0109BCCF814306FF0030161F39F02012F00
S2140010B0CCF81C2003D1CCF81890CCF804301A4A8F
S2140010C0290102EB051342F801800027159A5A60A1
S2140010D028469F605E732246694601F04FFF3846F9
S2140010E005B0BDE8F08F0021204622F0E5FE4FF463
S2140010F044736380BBF1000FABD1E37843F0300359
S214001100A6E70C48ECE70C48EAE70C48E8E7B8F135
S214001110000FD4D19CF8023068F304138CF8023028
S214001120CDE700BFC94B0020402B0020C02C00207C
S2140011300F80FFF3028000F0018000F0078000F0CF
S21400114038B5124B1B780546DBB1E0B11CF074FBDA
S2140011500F4A00231146147B54B92B601A0101EB89
S214001160031301258C501D731CF06CFB204638BD04
S2140011700133182B02F11002EDD11CF063FB054879
S214001180F5E70548F3E70548F1E700BFC94B00203F
S214001190402B0020048000F0028000F0018000F068
S2140011A013B51CF049FB0C4A0023147B7CB90133B1
S2140011B0182B02F11002F8D1019001F06FFE074BD8
S2140011C001981C701CF03EFB204602B010BD1CF0BF
S2140011D039FB0348F9E700BF402B0020C94B00202D
S2140011E0058000F00D4B1B7810B5044693B1172808
S2140011F012D81CF021FB0A4B03EB04131A7B2AB10E
S21400120000241C731CF01EFB204610BD1CF01AFBAD
S2140012100448FAE70448F8E70448F6E7C94B002014
S214001220402B0020068000F0028000F0018000F0D5
S21400123013B5134B1868019000238DF804301CF08A
S214001240FBFA104B1C7824B11CF0FCFA0E4802B0D6
S21400125010BD01221A701CF0F5FA0C4A23462146EE
S2140012600133182B117302F11002F9D104230DEB90
S21400127003008DF8073001F041FE0020E7E700BFCD
S2140012802A440200C94B0020038000F0402B0020B7
S2140012900A4A127808B55AB117280BD8084A02EB42
S2140012A000131B7B43B1002101F00CFE002008BD9B
S2140012B00448FCE70448FAE70448F8E7C94B00206E
S2140012C0402B0020028000F0018000F0078000F034
S2140012D00A4A127808B55AB117280BD8084A02EB02
S2140012E000131B7B43B1012101F0ECFD002008BD7B
S2140012F00448FCE70448FAE70448F8E7C94B00202E
S214001300402B0020028000F0018000F0078000F0F3
S2140013100A4A127808B552B117280AD8084A02EBCA
S21400132000131B7B3BB101F0AFFE002008BD054853
S214001330FCE70548FAE70548F8E700BFC94B002078
S214001340402B0020028000F0018000F0078000F0B3
S2140013500D4B1B7893B1172812D889B10B4B03EBB2
S21400136000131B7B73B10A4B1A6E012303FA00F0BD
S21400137010401ABF00200B70087070470548704771
S2140013800548704705487047C94B0020402B002091
S21400139000200040028000F0018000F0078000F08E
S2140013A00B4A127810B50C4662B117280CD859B102
S2140013B0084A02EB00131B7B43B101F085FE207048
S2140013C0002010BD0448FCE70448FAE70448F8E7A4
S2140013D0C94B0020402B0020028000F0018000F066
S2140013E0078000F02DE9F843DFF86480D8F86070D5
S2140013F0D8F86C301F4000D5FEE7144CDFF8549048
S21400140001260025374217D02368C8F868609BB1CC
S214001410A16862680131A16028469847637B012B6A
S2140014200AD148B909EB45131A7B60F341021A73D7
S2140014301A7F60F341021A770135182D4FEA4606E7
S21400144004F11004DED1BDE8F88300BF402B002075
S21400145000200040C02C00200C4B984210D90C4BAA
S214001460984210D9022201230A490B640A49D1F88E
S214001470003123F0407343EA0263C1F8003170473D
S21400148000221346F0E70122FBE700BF0048E80110
S2140014900090D0030000C84300400E4038B54FF01F
S2140014A0804300225B68104BC9B21C461D798D42F2
S2140014B002D11D68854213D20132072A03F10803C0
S2140014C0F4D10A4841F2DD711CF03CF903224FF0DA
S2140014D080414B6823F0407343EA02634B6038BD9B
S2140014E004EBC2025279F2E7544502002E44020091
S2140014F01F2810B5044604D903484FF4B6711CF0F3
S21400150021F90120A04010BD7B440200044BDB6B98
S2140015105B0604D4034AD2F8C830002BFBD17047D0
S21400152000300E400000C64308B5FFF7EFFF024B41
S2140015305868C0F3014008BD00300E40044BD3F895
S2140015404421D20703D4D3F840211042FBD1704780
S21400155000400E40B0F5004F38B5054604D30C48A1
S21400156040F64A611CF0EEF86C1C14BFB4FA84F422
S2140015702024C4F11F042046FFF7BAFF0138A84212
S21400158004D0034840F651611CF0DCF8204638BD14
S214001590CC4402004FF0804341F6713270B51E6CA9
S2140015A01A6405460C46FFF779FF134A134B022CC4
S2140015B008BF13469D42124AB6B209D94FF08C4373
S2140015C0C3F800210F4A954207D84FF0884306E03B
S2140015D04FF08843C3F80021F7E7002CF5D14FF40D
S2140015E080521A6041F671339E421EBF4FF0804310
S2140015F000221A6470BD00BF0024F40080D54302A8
S2140016000202020080F0FA02C0F30322013A38B563
S21400161003460E2A3AD8DFE802F040433939081B61
S2140016201E212536292E391833001F4C0020C3F3FF
S214001630043508B1FFF782FF04F1424404F5801434
S21400164005EBC404A400216038BD184C0020EEE76A
S214001650174C0120EBE7174C1020E8E7164C4FF428
S2140016608070E4E7154C4FF48030E0E7144C81F0CE
S21400167001010020DBE7134C81F001010020D6E7D2
S214001680114C0020D3E7114C0020D0E7BDE83840CD
S2140016900F4841F679511CF055B80E4C0020C6E7AD
S2140016A00D4C0020C3E700BFB0400E40C4400E40C3
S2140016B0E0400E40E8400E40EC400E40F0400E4049
S2140016C060410E4064410E40F0410E4050410E40D5
S2140016D02E44020000400E40C0400E4008B5C0F345
S2140016E00313013B0B2B00F2AB80DFE803F0060C84
S2140016F0101A2024282C668692A5534BD3F8000196
S214001700C0F3042008BD504BD3F81401F8E74E4B45
S214001710D3F80001C0F301600130FFF7E9FE01389D
S214001720F0E7494BD3F80C01C0F30820EAE7464B34
S214001730D3F81801F8E7444BD3F81C01F4E7424B02
S214001740D3F80801F0E7414B98422AD00ED8A3F50B
S214001750BA2398422BD003F57033984215D041F641
S2140017601D713B481BF0EEFF0020CBE7394B98423B
S21400177005D0394B98420ED0384B9842EFD1324BB9
S214001780D3F82001C0F30230C7E72F4BD3F820016F
S21400179000F00F00C1E72C4BD3F82001C0F3012066
S2140017A0BBE7294BD3F82001C0F30310B5E7264B5F
S2140017B0D3F82001C0F30340AFE7294B98420CD082
S2140017C003F5A11398420ED0264B984212D11E4B19
S2140017D0D3F8280100F003009FE71B4BD3F828013D
S2140017E0C0F3011099E7184BD3F82801C0F3013075
S2140017F0043092E741F64171B3E71B4B984205D19E
S214001800114BD3F8300100F003007BE741F650712E
S214001810A7E7164B984205D0154B984206D041F6DE
S21400182068719EE7084BD3F85C01ECE7064BD3F8EB
S2140018305C01C0F3014065E7034BD3F8040173E78E
S21400184041F675718DE700BF00400E408016180007
S2140018502E44020000362C0080262E0080002A002F
S21400186090171C0090071A00A0091400B800320058
S214001870B9003400C0F30313013B10B50C460B2B24
S21400188000F21882DFE813F00C0034004500600018
S214001890740088009C00BC006101CE01DA010202DF
S2140018A01F2904D9C44841F69E711BF04BFF1BF05C
S2140018B0A5FFC248FFF7D0FD00F00AFAC04BD3F8E8
S2140018C0001121F4F85141EA0424C3F80041FFF75F
S2140018D00FFA0446FFF728FE01462046FFF75AFE99
S2140018E0FFF7CCF9FFF7B8FDBDE8104000F006BAE8
S2140018F01F2904D9B04841F6B4711BF023FFB04B42
S214001900D3F8141121F4F85141EA0424C3F8144121
S21400191010BD4B1EB3F5004F0DD2B4FA84F1A84BA0
S214001920D3F80041C1F11F0124F0407444EA016479
S214001930C3F80041ECE7A34840F65A511BF002FFFB
S214001940002CEAD12021EAE7B1F5007F04D39A48BB
S21400195041F6C1711BF0F6FE994BD3F80C1121F439
S214001960FF3121F4807141EA0421C3F80C11CFE75E
S214001970B1F5007F04D3904841F6C8711BF0E2FE33
S2140019808F4BD3F8181121F4FF3121F4807141EA0E
S2140019900421C3F81811BBE7B1F5007F04D38648CD
S2140019A041F6D0711BF0CEFE854BD3F81C1121F406
S2140019B0FF3121F4807141EA0421C3F81C11A7E726
S2140019C0B1F5007F04D37C4841F6D7711BF0BAFE10
S2140019D01BF014FF7A4BD3F8081121F4FF3121F4E1
S2140019E0807141EA0421C3F80811FFF781F9044623
S2140019F0FFF79AFD01462046BDE81040FFF7CABD36
S214001A00714B984274D010D8704B984246D0704BA9
S214001A10984257D0A3F57033984226D042F253012D
S214001A20BDE8104064481BF08DBE6A4B984205D056
S214001A30694B984273D0694B9842EFD1B4F5004F8A
S214001A4004D95D4842F245011BF07CFE2046FFF7B4
S214001A5081FD01460420FFF771FD594AD2F8203176
S214001A6023F4E04343EA013315E0B1F5004F04D90F
S214001A70514841F6E9711BF065FE2046FFF76AFD06
S214001A8001460420FFF75AFD4D4AD2F8203123F4D0
S214001A90702343EA0143C2F8203139E7022904D90A
S214001AA041F6FA7144481BF04DFE4FF48020FFF7D4
S214001AB045FD434BD3F8301121F003010C43C3F826
S214001AC0304125E7B1F5004F04D93B4842F21701F3
S214001AD01BF038FE2046FFF73DFD01460420FFF7C9
S214001AE02DFD374AD2F8203123F00F030B43D2E7FF
S214001AF0B1F5004F04D9304842F226011BF022FE11
S214001B002046FFF727FD01460420FFF717FD2C4A65
S214001B10D2F8203123F0F00343EA0113BBE708298B
S214001B2004D9254842F235011BF00CFE2046FFF78B
S214001B3011FD01460420FFF701FD214AD2F82031AD
S214001B4023F4407343EA0123A5E7254B98421DD0B2
S214001B5003F5A113984247D0224B98425FD108293B
S214001B6004D9154842F25C011BF0ECFD2046FFF755
S214001B70F1FC01464020FFF7E1FC114AD2F828317B
S214001B8023F003030B43C2F82831C1E6082904D921
S214001B90094842F26B011BF0D5FD2046FFF7DAFC40
S214001BA001464020FFF7CAFC054AD2F8283123F048
S214001BB0300343EA0113E6E72E4402000148E80139
S214001BC000400E40CC44020080161800A009140005
S214001BD08006160000362C0080262E0080002A0084
S214001BE090171C0090071A00A1F10F03702B04D960
S214001BF0324842F27A011BF0A5FD2046FFF7AAFC08
S214001C0001464020FFF79AFC2D4AD2F828010439F5
S214001C1020F4405040EA0130C2F8280178E642F24B
S214001C208901FDE6274B984205D102297FF63DAF94
S214001C3042F2930136E742F2A301F1E6224B9842C4
S214001C4005D0224B984212D042F2BC01E8E60329A6
S214001C5004D91A4842F2AE011BF074FD184BD3F8B3
S214001C605C1121F003010C43C3F85C4150E60329E4
S214001C7004D9124842F2B6011BF064FD104BD3F8AB
S214001C805C1121F4403141EA0444EDE7B1F5007FF0
S214001C9004D30A4842F2C4011BF054FD084BD3F8A3
S214001CA0041121F4FF3121F4807141EA0421C3F8C4
S214001CB004112DE642F2CB01B2E600BF2E4402002C
S214001CC000400E40A0091400B8003200B9003400ED
S214001CD008B507480321FFF7CDFD06480321FFF7A7
S214001CE0C9FDBDE8084004480321FFF7C3BD00BF97
S214001CF040410500504107006041090037B5FEF736
S214001D00BDFF0446FFF710FC022817D1194B1A48EE
S214001D101A491C449C42B4FBF1F188BF01F1FF3123
S214001D200191FFF7A7FD01991548FFF7A3FD01995B
S214001D30144803B0BDE83040FFF79CBD124B134D6E
S214001D400D48E2189A42B2FBF5F588BF05F1FF355B
S214001D502946FFF78FFD0B482946FFF78BFD0C4BF6
S214001D600C4907481C449C42B4FBF1F188BF01F1C2
S214001D70FF31DEE7FF2C310140410500002D310127
S214001D8050410700604109007FF0FA0280F0FA0235
S214001D90FFA14A0400A24A0400F00F00013808B56B
S214001DA00B2879D8DFE800F006111B2F2539784379
S214001DB0515F6B6F414BD3F8943003F00703023B3F
S214001DC0052B76D83E4AD05C30E03C4BD3F88030CA
S214001DD003F00703013B032B6DD83A4AF3E7374B72
S214001DE0D3F8843003F00703013B032B63D8364A4D
S214001DF0E9E7324BD3F8883003F00703013B032BA7
S214001E0059D8324ADFE72D4BD3F88C3003F007035E
S214001E10013B032B4FD82E4AD5E7284B1B6F13F0F8
S214001E20030340D0012B14BF0120092008BD234B1B
S214001E30D3F85C3103F03003202B36D0302B36D06D
S214001E40102B14BF01200720F0E71C4BD3F85C31A1
S214001E5003F44013B3F5001F27D0B3F5401F26D078
S214001E60B3F5801FEDE7154BD3F8600100F00300D3
S214001E70431E022B1DD800EB40000130D6E70F4B67
S214001E80D3F86401F2E70D4BD3F8F03103F0070303
S214001E90052B10D80F4A96E70F4842F2CA211BF0CE
S214001EA051FC0020C2E70720C0E70420BEE7082058
S214001EB0BCE70520BAE70120B8E700BF00400E40A7
S214001EC01C4502002245020026450200224502006B
S214001ED0224502002A4502002E44020038B5314B46
S214001EE0984205460BD01ED82F4B984207D02F4B52
S214001EF09D4204D02E4841F6DC011BF023FC284608
S214001F00FFF74AFF274B9D42044625D00DD8264BA7
S214001F109D4211D0254B9D421AD0254841F60B1103
S214001F201BF010FC0DE0234BE2E7224B9D42F4D160
S214001F30214BD3F8884002E01F4BD3F8804004F0D2
S214001F400704042C27D8DFE804F0240B0F1713002F
S214001F50194BD3F88440F2E7174BD3F88C40EEE7E2
S214001F60BDE838401BF0E8BBBDE83840FEF7F6BEDB
S214001F70BDE838401BF0E3BBFEF780FE0E4B044680
S214001F80D3F80001C0F301600130FFF7B1FAB4FBEB
S214001F90F0F4204638BD064841F65D111BF0D2FB32
S214001FA00024F6E70400220002001E0003002000C2
S214001FB02E4402000500240000400E40012808B50B
S214001FC014BF12481248FFF7E7FE0138072816D854
S214001FD0DFE800F01A1515071515040B0D4B1868E9
S214001FE008BDBDE80840FEF795BEFEF747FE0A4B63
S214001FF0D3F80031C3F3042303FB0000F0E70748DF
S21400200041F2D6611BF09EFB0020E9E7B8003200E3
S214002010B90034002810002000400E402E44020074
S21400202038B500F47813B3F5E01F054600F0FC80E1
S2140020304CD8B3F5602F00F0108123D8B3F5C02F2D
S21400204000F0A1800DD8B3F5003F00F0A880B3F5EE
S214002050802F00F08D80002B00F0078141F6A961EB
S21400206009E1B3F5202F00F09480B3F5402F00F07F
S2140020709C80B3F5002FF1D1FEF700FEB14BD3F8EC
S2140020801C317AE0B3F5B01F00F0AA800DD8B3F586
S214002090901F00F09280B3F5A01F00F09880B3F573
S2140020A0801FDBD1A84B18686CE0B3F5C01F00F0AA
S2140020B0A580B3F5D01FD1D1A448FFF70FFFA14BE1
S2140020C00446D3F8280100F0030092E0B3F5401F61
S2140020D000F0B48024D8B3F5201F00F0BA800FD8E3
S2140020E0B3F5001F00F09E80B3F5101F00F0B3801C
S2140020F0B3F5F01FB2D19648BDE83840FFF7EEBE04
S214002100B3F5281F00F08480B3F5381FA6D1904899
S214002110FFF7E4FE8B4BD3F82031C3F3012354E0E2
S214002120B3F5601F00F0CF8013D8B3F5501F00F052
S214002130A780B3F5581F00F0AC80B3F5481F8DD1CB
S2140021400020FFF73BFF7F4BD3F85C3103F003031F
S21400215015E0B3F5681F00F0D080B3F5781F7FF464
S2140021607DAFFEF78BFD044628461BF059FB42E088
S214002170FEF784FD734BD3F80C31C3F30823013309
S214002180B0FBF3F038BDFEF779FD6E4BD3F818318F
S214002190F3E7FEF773FD6B4BD3F80431EDE7FEF77C
S2140021A06DFD684BD3F80831E7E7FEF767FD654B32
S2140021B0D3F81431C3F30423E1E76548FFF78EFE36
S2140021C0604BD3F82031C3F30343D840DAE76148C5
S2140021D0FFF784FE5B4BD3F8303103F00303F4E7DC
S2140021E05B48FFF77BFE574B0446D3F8200100F010
S2140021F00F00FFF77DF9B4FBF0F0C3E75448FFF794
S2140022006DFE504B0446D3F82001C0F30310F0E7F0
S2140022104F48FFF763FE4B4B0446D3F82001C0F34C
S2140022200230E6E7494867E74848FFF757FE454B60
S2140022300446D3F82801C0F30110DAE74348FFF755
S2140022404DFE404B0446D3F82801C0F3013004305D
S214002250CFE7414850E73F484EE74048FFF79CFD30
S21400226007283FF41FAF092803D1BDE83840FEF722
S21400227005BD41F29F613A481BF064FA002081E7F1
S2140022800120FFF79BFE2F4BD3F85C31C3F30143CD
S21400229075E73448FFF780FD0438062810D801A3F8
S2140022A053F820F01923000029230000C122000063
S2140022B0A5200000C1220000C12200001523000056
S2140022C04FF4B851D7E72848FFF766FD04380628CC
S2140022D010D801A353F820F019230000292300008A
S2140022E0F5220000A5200000F5220000F5220000DF
S2140022F01523000041F23271BDE71C48FFF74CFD84
S214002300023809281AD8DFE800F01115070F191946
S2140023101919050B164BC6E6BDE83840FEF7FABCA1
S214002320FEF7F8FC40002DE7124BBCE6BDE838404F
S214002330FEF714BDBDE838401BF0FEB941F28971C6
S21400234099E700BF00400E40281000200300200040
S21400235002001E00050024000400220006000E00F5
S2140023602E4402000A7B36000B7C38000C7F3A00B5
S2140023702C1000201C100020014B1880704700BF56
S21400238032110020014B1880704700BF301100202A
S214002390022838B50C4604D00D4842F6FC411BF026
S2140023A0D1F90C4D6B6AC3F30113012B0DD064B148
S2140023B0074842F617511BF0C5F9074BD5F8902091
S2140023C033EA0202FAD1012038BD4FF48003F5E764
S2140023D02E44020000400E40FF3F473A05282DE9F4
S2140023E0F04704460F4691461FD83E4B3E4A13F828
S2140023F000A03E4B13F80080F1B93D4B33F8103087
S2140024001366012303FA08F8D2F8903013EA080F8F
S214002410FAD1B9F1000F61D00125334A05FA0AF561
S214002420D2F890302B42FBD158E0BDE8F047314857
S21400243042F6C8311BF086B92F4B022833F81060DD
S2140024404ED1536AC3F30113012B49D12B4BDB6BDF
S2140024505B0504D4274842F6D7311BF073F9224AAD
S214002460536A03F00303032B05D1536A23F03003AA
S21400247043F020035362224D1B4BA8441E664FEACE
S2140024808808D8F80030002BFBD0B9F1000F25D013
S2140024905544AD002B68002BFCD0022C1ED1EFB1AA
S2140024A0114B5B6A03F00303032B03D00021204685
S2140024B0FFF76EFF0F4842F65A411BF043F9012220
S2140024C000210220FFF78AFF0A4842F6E4411BF08B
S2140024D039F9054B1E662B68002BFCD0BDE8F0874B
S2140024E00027C8E73045020000400E40364502008F
S2140024F0484502002E4402003C45020000300E40D3
S2140025008004F21038B5FEF705FC0021044600F002
S214002510C1F91448FEF7A0FF012211460220FFF77A
S2140025205DFF1BF06BF9FFF7D3FB0CB1FEF7EEFF78
S2140025300D4B02225A67FEF7A1FBFEF78DFFFEF752
S214002540D7FB0546FEF7F0FF01462846FFF722F8C0
S2140025501CB90121204600F09DF9BDE83840FFF780
S214002560CDBB00BF0148E80100400E4038B5044628
S2140025701120FFF711FC042804D11F4842F63C2125
S2140025801BF0E0F8012200210220FFF727FFE37A84
S214002590022B2AD8194AD25C194D6B6A23F0030322
S2140025A013436B62FEF7B6FB164B2288984294BF25
S2140025B0082000206B6A23F008031843A38868628B
S2140025C043EAC223EB622B6BE2881B0D1B05134309
S2140025D0628843EAC2232B63637A227A1B0143EAAA
S2140025E00233A27A13436B6338BD034842F6502188
S2140025F01BF0A8F80022CFE72E440200194502007F
S21400260000400E4040787D0170B505461120FFF76A
S214002610C3FB022804D10F4842F6FA211BF092F8B9
S2140026200D4E0E4BB26B2C7813401C436B7844EA6D
S214002630C324AB7844EA0364EB7844EA0324B36B20
S214002640A34205D0002101220846FFF7C7FEB46367
S21400265070BD00BF2E44020000400E4080E4FFF82C
S214002660034B5868C0F30800003818BF01207047B5
S21400267000ED00E0034BD86B80F04000C0F3801004
S214002680704700BF00300E4038B542EA0323B3F56A
S214002690007F05460C463ED019D8B3F5807F36D06D
S2140026A00AD883B3012B21D01F4840F63C211BF0EB
S2140026B049F8002213461FE040F201129342F3D17C
S2140026C01A4BD3F824321A0EC3F3074314E0B3F5BB
S2140026D0407F24D040F20132934210D040F20122D3
S2140026E09342E1D1114BD3F8283202E00F4BD3F8D6
S2140026F02432C3F30722DBB22B60226038BD0B4BBB
S214002700D3F82832DFE7094BD3F81C32F1E7074B42
S214002710D3F81C32D7E7054BD3F82032E9E7034B52
S214002720D3F82032CFE700BF8C4502000081E00FCF
S21400273008B5FFF79FFF20B1024AD2F8C830002B39
S214002740FBD108BD0000C6431A4B022810B5D3F8CB
S21400275030320C4612D0032813D0012814BFDBB247
S214002760C3F307231B0323F47042ECB95AB140F6B7
S214002770CB1111481AF0E6FF002010BDC3F3074343
S214002780F0E71B0EEEE70D49CA6E22F470421343C3
S214002790CB660120F1E70949D1F8EC2022F470421B
S2140027A01343C1F8EC30F4E7002AF4D040F6D71112
S2140027B0DFE700BF0081E00F8C45020000300E40CE
S2140027C00378134A002B437870B514BF04260026FE
S2140027D0002B8378946914BF02250025002B03790B
S2140027E024F03F0443EA0403C47814BF0821002100
S2140027F0012C08BF43F0010333432B430B43936183
S2140028001368417923F4403343EA0143136070BDF3
S21400281000300E40F8B504460F46FFF72BFF78B39E
S214002820FFF786FF174B5B68C3F301439C4227D034
S214002830154BD3F80061FEF721FA022C05460FD19E
S214002840124BC6F3042606FB00069E4204D9104827
S21400285040F262711AF076FF02212846FEF79AFED1
S214002860C4F1020210239340064A13610FB1FFF72A
S2140028705FFF2CB921462846BDE8F840FEF78ABE21
S214002880F8BD00BF00300E4000400E40002D310164
S2140028908C45020013B50246FFF7ECFEC8B152B9EC
S2140028A00D4B0191D3F80041FEF7E8F9C4F304227A
S2140028B0019902FB0002094B1B7843B1084B9A4270
S2140028C005D8022002B0BDE81040FFF7A3BF0020E5
S2140028D0F8E702B010BD00BF00400E40CA4B002013
S2140028E0002D3101174B4AF6E85210B5596B5A6362
S2140028F09A6FD407FCD41B6C13F003031EBF124A56
S2140029000124C2F8B44A834216D00E4B9A6FD207FF
S214002910FCD41A6C22F0030202431A649A6F12F077
S2140029200102FBD10038084C18BF01200129C4F869
S214002930B40A08BF5A6303E010B9034BC3F8B40ADD
S21400294010BD00BF00300E400000C6432DE9F04F1A
S214002950A0F5E16389B00024B3F5966FCDE9024493
S214002960CDE90444CDE9064406468A46934605D991
S21400297040F6C53155481AF0E5FEA3E0B0F5E16F24
S214002980534B8CBF0122002249D1D3F81832C3F32F
S2140029900721DBB2079104934FF416754FF4966740
S2140029A048E0BBF1000F0ED0D9F85C2022F4FE42BE
S2140029B022F00202B6F5E16F42EA012218BF0220B9
S2140029C00243C9F85C20BAF1000F26D02046002149
S2140029D0FFF7BAFE044610B940F62241CAE70121C5
S2140029E04046FFF7B1FE044610B940F62A41C1E75B
S2140029F0384A536EBD4238BF3D4623F4FF73E72D79
S214002A0023F0010328BFE725B6F5E16F18BF43F0B2
S214002A10010343EA4503536654E0012452E0D3F829
S214002A201832190EC3F30743079104934FF49665C3
S214002A304FF4E167DFF89C90D9F84C400192C4F35C
S214002A400174234605A902A8FFF71EFED9F8EC304C
S214002A50019AC3F30128434606A903A8FFF714FE0C
S214002A60049BF01B079FF91A4143B1FBF5F2991836
S214002A702CBF012300238F421ED3EBB9069A039F77
S214002A80D31B4343B3FBF5F3FF182CBF01230023EE
S214002A90BA4211D383B9059B029AA3EB020C00FB42
S214002AA00CF0B0FBF5F555192CBF01200020AB4209
S214002AB002D300283FF475AF044840F613411AF0DD
S214002AC041FE0024204609B0BDE8F08F8C45020088
S214002AD00081E00F00300E40334A08B5136FD16C0A
S214002AE011F0010F03F0060344D0002B42D0132848
S214002AF057D9143813288CBF102308232A49013BC2
S214002B00CA6C180322F47F4240EA03231343CB64C3
S214002B10264BCA6C1B88C2F303222833013202EB11
S214002B20820003EB5303B3FBF0F3C86C013B072BA7
S214002B3028BF072320F0EE6040EA036343F48013C7
S214002B40CB641B4BB3F90030002B12DB03F12800DB
S214002B50C0F34E030344500800EB4202B3FBF2F20C
S214002B600B6D072A28BF072223F0700343EA0212E0
S214002B700A6508BDD16C01F00101194304D109288A
S214002B800FD90A380928B6E7D26CD20702D50BB996
S214002B902728B0E7074840F668411AF0D3FD00231F
S214002BA0ACE70423AAE700BF00300E406E4B0020BF
S214002BB0704B00208C4502000C4BD3F8803910B5C2
S214002BC0044633B9012804D9094840F686411AF06C
S214002BD0B9FD084A136F23F0070323431367064B18
S214002BE0BDE810401888FFF777BF00BF0000C64357
S214002BF08C45020000300E406C4B002038B503892F
S214002C00C82B044604D9514840F66A211AF09AFDAA
S214002C10A28823899A4204D94C4840F66B211AF0C0
S214002C2091FDB4F90C30C82B04DD484840F66C2101
S214002C301AF088FD6378012B55D1A388C82B04D9D8
S214002C404FF4276141481AF07DFDE28842F2107386
S214002C509A4204D93D4840F67D211AF073FDE38878
S214002C604A2B48D9B3F5FA7F47D340F6C3129342AE
S214002C7094BF4FF000524FF040523549B4F90C0063
S214002C80CB6C23F0405323F001030028A8BF43F089
S214002C9001031343CB64D1F8EC30A28843F44073AD
S214002CA0C1F8EC302B4B1A80CB6E43F08073CB66AA
S214002CB0294BD3F8800900B10420FFF77DFF274B8E
S214002CC021891980264BB4F90C20A0881A80FFF7BA
S214002CD003FFA37BA3B1012B23D01C4840F67C1135
S214002CE01AF030FD0FE0022BAFD1A3880A2BACD927
S214002CF040F67521A6E70022BFE74FF08052BCE7FA
S214002D00134B184A9A65012260881146FFF71EFE8B
S214002D10054648B90D4840F6B4211AF013FD28467A
S214002D2038BD0B4B104AEDE7094AD36B43F480637A
S214002D30D3636078FFF7D6FDA37AA3F1200253424F
S214002D405341054AC2F89437E9E700BF8C450200B4
S214002D5000300E406C4B00200000C6436E4B002037
S214002D60704B002077402057372110B7082838B519
S214002D7004460D4604D84FF6FF73CB40DB0704D459
S214002D80084840F22D411AF0DDFC30230C2013FBDE
S214002D90040000F18C40012100F5082001FA05F539
S214002DA0056038BDDC430200082838B504460D46E9
S214002DB004D84FF6FF73CB40DB0704D4084840F234
S214002DC0FE311AF0BFFC30230C2013FB040000F188
S214002DD08840012100F5082001FA05F5056038BD98
S214002DE0DC430200072810B5044603D906485221E2
S214002DF01AF0A8FC054AD2F8443423F00303234310
S214002E00C2F8443410BD00BFD94502000080084017
S214002E100828F8B505460C4616461F4604D84FF651
S214002E20FF73CB40DB0704D419484FF4B0711AF097
S214002E3089FC26B121462846CFB1FFF797FF05EB60
S214002E404503072C4FEA03134FF00F0112D8A000DA
S214002E5006FA00F281400F4818441AF003FDAEB996
S214002E602146284677B1BDE8F840FFF77FBFFFF759
S214002E709BFFE4E7A4F10800800006FA00F2814018
S214002E800548E9E7BDE8F840FFF78EBFF8BD00BF8C
S214002E90D94502000480084008800840074B0422F9
S214002EA0C3F88020BFF34F8FBFF36F8F044B002112
S214002EB0D9664FF4EA401962FEF7A6BB00E100E0CF
S214002EC000200040172838B505460C4603DD0848A4
S214002ED077211AF037FC1F2D84F0010403D905482A
S214002EE091211AF02FFC044B2B449B001C6038BD2C
S214002EF02746020075460200A001811010B5044660
S214002F0018B91B4891211AF01DFC23781B0613F0F4
S214002F10604F03D0164892211AF014FCE378072B72
S214002F2003D91348A3211AF00DFC01214FF4EA40FF
S214002F30FEF76AFBB4F8013022785BBA9BB243EA2C
S214002F4002630C4A136000231362D36253634FF08C
S214002F500043D3664FF0FF339366074A0421C2F856
S214002F608011E3785B01DBB282F80233116010BD9A
S214002F70274602000020004000E100E02DE9F04175
S214002F80C3B20126172805460C46904606FA03F6F5
S214002F9003DD3A48EC211AF0D5FB1CB93748ED2181
S214002FA01AF0D0FB236823F47C1323F00F031BB125
S214002FB03248F2211AF0C6FBA37A1B0413F47C0FE6
S214002FC004D02E4840F209111AF0BCFBE37A1B0528
S214002FD013F07E6F04D0294840F20B111AF0B2FBB2
S214002FE0237B5B0513F0FE5F04D0244840F20D11EE
S214002FF01AF0A8FB224F637BBE66302000FB0570EC
S2140030002268C0F88020C0F88830E37AA27A1B05D0
S21400301043EA0243227B43EA425328F00302C0F805
S2140030208430C0F898201AF007FCFB6E3343FB662A
S214003030237A13B17B6B33437B63637A13B1FB6AEA
S2140030403343FB620E4B1A68237923B1DB431B0222
S21400305063F47F431A4063790BB142EA0322A379F3
S2140030600BB122EA0302E3791A43054B1A60054ABC
S2140030709662DE63BDE8F0411AF0E4BB2746020024
S214003080002000400020004410B5C3B201241728D9
S21400309004FA03F404DD094840F297111AF052FBD3
S2140030A01AF0CAFB064AD36E23EA0403D366054B1E
S2140030B01C62BDE810401AF0C5BB00BF27460200E0
S2140030C0002000400020004410B5C3B20124172899
S2140030D004FA03F404DD0B4840F2B5111AF032FB93
S2140030E01AF0AAFB084B1A6A224209D19B6A34EAF4
S2140030F003030CBF012400241AF0A4FB204610BDD5
S2140031000024F9E72746020000200040022838B5D0
S21400311004460D4603D911484C211AF013FB6B796F
S2140031201F2B03D90D484F211AF00CFBAB786A7899
S2140031309B0143EA82032A781343EA7843EA0213A0
S2140031402A7943EAC2236A7943EA0233AA79043425
S21400315043EA42432401024A135138BDC2460200E4
S21400316000200640014B1860704700BF0000C442B4
S214003170427801790378002A827870B514BF042655
S2140031800026002AC27814BF10250025002A42799E
S2140031904FEA023242EA012242EA0302837942EA15
S2140031A08332C37914BF20240024002B037A42EA1A
S2140031B0034343EA0603427A43EA050314BF4FF487
S2140031C0004100212343002A14BF4FF4003200229E
S2140031D00B431343014A136070BD00BF0020064036
S2140031E02DE9F04180460C461F46164622B9344863
S2140031F04FF4A1711AF0A6FA3CB9324B98450CBFB1
S21400320031483248FEF70CFF0446402F4BD009D811
S214003210A7B1202F3DD0BDE8F041294840F28911E2
S2140032201AF090BA602FF6D1B6EB940F04D9244862
S21400323040F283111AF086FA042108E0B6EB141F58
S21400324004D91F484FF4BA711AF07CFA10214E4385
S21400325071081F4D01EB4414B4FBF6F6203EB5EBA7
S214003260C60F4FEAC60404D215484FF4D0711AF0C0
S21400327069FAD8F8003023F06003C8F80030D8F8B0
S21400328000302C401F43C8F80070C8F81440BDE852
S214003290F081B6EBD40F04D9094840F279111AF040
S2140032A051FA0821D3E70625B4FBF5F3B34204D25E
S2140032B003484FF4BF711AF045FA2946C7E700BF26
S2140032C01047020000080140504107004041050039
S2140032D0F8FF7F0070B506460C46154622B90F4823
S2140032E040F28E211AF02EFA3CB90D4B9E420CBFCE
S2140032F00C480D48FEF794FE04460C4B6D00013C4E
S214003300B4FBF5F413EA04234FEA042504D003487B
S21400331040F2B3211AF016FA756170BD104702002C
S214003320000801405041070040410500070080FFAB
S21400333038B5164B984204460D4620D003F58063F8
S21400334098421CD003F58063984218D003F580633A
S214003350984214D003F58063984210D003F580633A
S21400336098420CD003F53053984208D003F580639A
S214003370984204D006484FF433711AF0E3F9EB4351
S2140033805B0003F00A03E360E56038BD000001401F
S2140033901047020038B5254B254D984204461ED0EE
S2140033A0A8421CD003F50063984218D003F580634A
S2140033B0984214D003F58063984210D003F58063DA
S2140033C098420CD003F53053984208D003F580633A
S2140033D0984204D0174840F242411AF0B3F940F63A
S2140033E0AA63E36041F20502002323606260124A8A
S2140033F0A3606361E364A2640C4A23669442636735
S214003400A367E36703D002F50062944200D1236508
S2140034100023AC42A36506D0084A944203D002F5C6
S2140034208062944200D1E36538BD00BF00000140D1
S2140034300004014010470200F9FF0100000C0140A3
S21400344038B5314B984204460D4620D003F58063CC
S21400345098421CD003F58063984218D003F5806329
S214003460984214D003F58063984210D003F5806329
S21400347098420CD003F53053984208D003F5806389
S214003480984204D0214840F2FD211AF05BF920460C
S214003490FFF780FFAB7C1BB1236843F080432360BB
S2140034A0EB7C1BB12B7D43F08003A3652A8A6B7BE4
S2140034B01343EA89134363602B7BD5E90112204648
S2140034C0FFF78EFE6B7D1BB1236843F480332360C9
S2140034D0AB7D1BB1236843F400432360EB7D2A7E5B
S2140034E01B07120502F4E00203F0E04313432366D1
S2140034F0636F23F030036367626F6B7E134363670B
S2140035002B78E36038BD00BF000001401047020082
S21400351038B5314B984204460D4618D003F5806303
S214003520984214D003F58063984210D003F5806368
S21400353098420CD003F58063984208D003F5806368
S214003540984204D0254840F269311AF0FBF820462C
S214003550FFF720FFA97B2A8A2368002942F0010290
S21400356014BF4FF48061002113430B432A7D236070
S2140035702368002A14BF4FF0005200221343236032
S214003580AB7C1BB1EB7C43F08003A3652B7B43F441
S21400359080536360D5E901122046FFF79BFE6B7BE4
S2140035A00BB11023E3606B7D1BB1236843F48033BB
S2140035B02360AB7D1BB1236843F400432360EB7D9F
S2140035C02A7E1B07120503F0E04302F4E0021343D1
S2140035D023662B78E36038BD0000014010470200E8
S2140035E013B500230C4601220B210320FFF710FC25
S2140035F00023042207210520FFF70AFC00230422EB
S21400360006210520FFF704FC0023042208210520DC
S214003610FFF7FEFB0023012209210320FFF7F8FB3A
S2140036200023012209210520FFF7F2FB00230122D7
S2140036300C210320FFF7ECFB144B154AC3F80C2CA7
S2140036401122C3F8002C0D21C3F8002C0320002300
S2140036500422FFF7DDFB002304220E210320FFF7E0
S214003660D7FB012304220A210820FFF7D1FB0721FC
S214003670012308460422FFF7CBFB01AA00211E20E7
S21400368002F004FF0023237002B010BD0040024089
S2140036900000010138B51848184C0D460121FDF709
S2140036A0B3FF17480121FDF7AFFF16480121FDF7CC
S2140036B0ABFFD4F890301B0701D41AF0E8FC0023C7
S2140036C004220A210320FFF7A3FB236843F4C05318
S2140036D023604FF4A023C4F87431D4F8703143F05B
S2140036E00403C4F87031084B4FF40072C3F8102C72
S2140036F000232B7038BD00BF4041050000400E403F
S2140037000035020000550A0000400240034B427894
S2140037101A70034B4FF000625A6070475D1100202C
S21400372000E100E007B51BF0E0F8054B01AA1878A9
S21400373001211CF02CFA1BF0DAF803B05DF804FB4C
S2140037405D110020034B1B6813B103481AF093BCAD
S214003750704700BFB8470200DC4702002DE9F84F6B
S214003760834608B91AF093FC424C227A012A03D108
S21400377008228BF80020FEE7FF2A03D108228BF8E8
S2140037800020FEE7617A206801311AF028FCA17A51
S2140037908146013160681AF022FC627A4A4580460A
S2140037A003D208228BF80020FEE7A27A824203D2D8
S2140037B008228BF80020FEE70C22E1682E482F4EE8
S2140037C05B4600F04BFA9BF8002030600546002A66
S2140037D04ED101220260227AE168294802EB4202B9
S2140037E05B46920000F03AFAA8609BF80050002D65
S2140037F03ED13268D2F808A0227AEFB2BA421BD87D
S2140038002168DAF800004A461AF0F5FB326861686B
S2140038109068424680681AF0EEFB34681948A26841
S2140038204FF0004151601168174A11605A46002156
S21400383000F016F960601BE00C23627AE16813481A
S2140038405F435B4600F00AFA4AF807009BF8002040
S21400385072B93268E16892680D4817445B46A27AEE
S21400386000F0FCF9B8609BF800200135002AC0D0B3
S214003870BDE8F88F30100020E8470200C02F002077
S214003880F44702003E480200C42F00200948020008
S21400389024480200094B012210B51A70044608B9E4
S2140038A01AF0F5FB0023237000F0C8F91AF042F96D
S2140038B02046BDE8104000F049BA00BFCB4B0020C0
S2140038C0014B1868704700BFC82F00202DE9FF4144
S2140038D0044608B91AF0DBFB00232370204600F0EC
S2140038E00FFE23782BB1204604B0BDE8F04101F06E
S2140038F0C7B92B4E3368002BF5D1FFF7E1FF2346FF
S21400390001460546B422274800F0A8F9237830601F
S2140039100146002BE7D14FF0FF380427CDE90138E8
S21400392021480394342300972A4600F0CDF92378E3
S214003930002BD8D131681D48CDE90073CDE902844B
S21400394028232A46243100F0BFF92378002BCAD159
S21400395031681748CDE90073CDE9028438232A463A
S2140039606C3100F0B1F92378002BBCD131681148D6
S214003970CDE90073CDE9028401232A46903100F098
S214003980A3F92378002BAED131680B48CDE900733C
S214003990CDE9028424232A46483100F095F9A2E7AF
S2140039A0CC2F00204E480200604802006F480200FC
S2140039B07C480200894802009B4802002DE9FF412E
S2140039C00A9E07460C4690461D460EB91AF05FFB47
S2140039D0B8F13F0F02D808233370FEE715B107236E
S2140039E03370FEE71B4B1B6843B93046FFF76EFF8C
S2140039F033781BB1002004B0BDE8F081FFF760FF0C
S214003A004FEA88020146C4B908230390CDE9004670
S214003A10114800F03DF93378002BEBD103990546A9
S214003A2033460E48E82200F019F93378002BE1D12E
S214003A30C0E93758C0F8E470DDE714F0070024F05A
S214003A40070518BF082005441444641B4FEA940871
S214003A50E6E700BFCC2F0020A8480200B5480200C9
S214003A602DE9F34180460E4615460AB91AF00FFBBB
S214003A70164F3B6843B92846FFF728FF2B781BB143
S214003A80002002B0BDE8F081386829461AF015FA21
S214003A902B780446002BF3D12A46414601F058FC09
S214003AA02B783BB916B1337803F0010384F8303035
S214003AB02046E6E7386801AA21461AF064FA9DF81F
S214003AC004300BB11AF0E3FA0024F1E7CC2F002003
S214003AD013B5044600B9FEE701AA012101F084FCF3
S214003AE09DF804300BB11AF0D2FA064B01AA1868FA
S214003AF021461AF048FA9DF804300BB11AF0C7FABE
S214003B0002B010BDCC2F0020F7B507460D46144670
S214003B100AB91AF0BCFA15B107232370FEE7144E53
S214003B2033683BB92046FFF7D1FE237813B1002057
S214003B3003B0F0BD3068214624301AF0BEF9227872
S214003B400546002AF3D12346394601F075FF23784F
S214003B505BB1306801AA294624301AF014FA9DF8A1
S214003B6004300BB11AF093FA00252846E0E700BFB0
S214003B70CC2F002013B5044600B9FEE701AA0121A8
S214003B8001F0AAFF9DF804300BB11AF080FA074B3B
S214003B90186801AA214624301AF0F5F99DF8043079
S214003BA00BB11AF074FA02B010BD00BFCC2F002083
S214003BB010B5044619F040FE024B1C60BDE81040EC
S214003BC019F040BED02F002010B519F035FE074B77
S214003BD007491A6843F2390401FB024424F0004402
S214003BE01C6019F02FFE204610BD00BFD02F00200D
S214003BF06D4EC641034A43F2390302FB003020F003
S214003C00004070476D4EC64170B505460E4619F029
S214003C1013FE094B1A6814462CB9EA601D6019F0A9
S214003C2011FE347005E0AC4204D119F00BFE1523EA
S214003C30337070BDE468EFE7D42F002007B5064860
S214003C4001A9FFF7E1FF9DF804300BB11AF01FFA47
S214003C5003B05DF804FB00BF4010002030B50C46F2
S214003C6085B011461D461BB903921AF010FA039947
S214003C70064801950023009304220123002C18BF58
S214003C80204619F05AFF05B030BD00BF4010002096
S214003C9073B5DDE906650C4611461A462DB9CDE921
S214003CA000131AF0F4F9DDE9001206480123002C8F
S214003CB018BF2046CDE9066502B0BDE8704019F091
S214003CC03CBF00BF401000202DE9F341DDE90A8625
S214003CD015460C461A46DDE908372EB9CDE900230D
S214003CE01AF0D5F9DDE9002314B90A233370FEE78C
S214003CF00021C4E90711217006490897002D18BF56
S214003D0029462046CDE9098602B0BDE8F04119F003
S214003D1068BF00BF40100020F8B50F2313700A4B91
S214003D201B681C6806460F46154654B1606839463F
S214003D30B047012803D100232B702046F8BD246825
S214003D40F3E70024F9E700BFD82F0020F0B50446BB
S214003D5085B008B91AF09BF9234E736800272770C0
S214003D60002B3ED03946022019F0BFFD39460546E5
S214003D70032019F0BAFD2840C5B23946042019F0D0
S214003D80B4FD2840012802D006232370FEE7FFF783
S214003D9097FD2346014605462C221448144FFFF78C
S214003DA05DFF23783860E3B9736802933368019344
S214003DB00423011D00930F48039408232A46FFF7A7
S214003DC083FF217869B90C483D682246FFF748FE14
S214003DD0A86223782BB9386805B0BDE8F04019F022
S214003DE060BD05B0F0BD00BF54100020C8480200FA
S214003DF0D82F0020DC480200F4480200F7B505463C
S214003E000C4609B91AF043F915B90A232370FEE7E0
S214003E10174E306800222346806A114619F01AFEB3
S214003E202378A3B9696813482246FFF775FF2378FD
S214003E300F2B0ED015232370336801A9986A19F04A
S214003E408EFD9DF8043013B1227802B9237003B0BA
S214003E50F0BD3068214604301AF02FF82778014666
S214003E60002FE9D14560306819F01EFD2770E3E7A2
S214003E70D82F002065E00100F7B505460E4614462B
S214003E800AB91AF004F915B90A232370FEE7114F90
S214003E90386800222346806A114619F0DBFD237835
S214003EA0ABB9284622463146FFF736FF054600B135
S214003EB045683B6801A9986A19F051FD9DF80430E1
S214003EC013B1227802B92370284603B0F0BD00254E
S214003ED0FAE700BFD82F002038B505460C4609B9CA
S214003EE01AF0D5F815B90A232370FEE722462946AC
S214003EF00248BDE83840FFF7BFBF00BF65E00100DD
S214003F00024B00221A6015F0FDBC00BFDC2F00201B
S214003F1000B9FEE7044B1B68002B14BF00220922E1
S214003F2002701846704700BFDC2F0020014B186057
S214003F30704700BFDC2F00202DE9FF41466DF38857
S214003F40DB0605460C4602D009230B70FEE73389D4
S214003F5013B109230B70FEE7F78A17B109230B701C
S214003F60FEE7036E13B90A230B70FEE7D0F8508005
S214003F7040783B463A4664211BF035FA40F2E95356
S214003F80984202D809232370FEE703AB0093394614
S214003F901948019420236822FFF77AFE0746A86591
S214003FA030B3D8F800302146284698472378FBB926
S214003FB0D8F808302146284698472378C3B9D8F859
S214003FC0043021462846984723788BB9B28CB169CD
S214003FD00A482346D200FFF741FE386023783BB9F3
S214003FE0F28CB16906482346D200FFF737FE7860A8
S214003FF004B0BDE8F08100BF064902001749020080
S214004000234902002DE9F04FD0E915638DB00F4625
S2140040100593F18C036D06930546B46A1BF07CFF8E
S21400402000233B708DF8243006238DF827306878FF
S21400403009AB0DF127020AA91BF0FEFD9DF82430FE
S214004040DBB1002309AA0AA906F130008DF8243056
S2140040501BF044F89DF82430002B40F08A8009AB12
S214004060687806220AA91BF003FE9DF824305BB18F
S21400407009233B700DB0BDE8F08F687809AA0AA93D
S2140040801BF00FFE0128DCD1D5E915B80A9BC4F851
S2140040908830BDF82C30C4F88C30DBF82830079315
S2140040A0BBF82430D8F8006003F10053013BC8E9A0
S2140040B0026606EBC3034FF00009C8F81030CA4684
S2140040C0BBF824201FFA89F39A4254D8079AD8F8E6
S2140040D0083093613B78002BCCD1059A9384D5E9C0
S2140040E01531D88C4A68D3F828C00A6200F100530C
S2140040F0013B02EBC303C1E90522CB6102EBC00022
S21400410011464FF0004E884257D1CCF81C2064234D
S214004110059A2366002382F82630636A4FF0FF3341
S2140041206362236263618223A3620123E3606368A0
S21400413043F4003343F0C0036360636843F4806372
S21400414043F0030363602269214B13432361236911
S21400415023F080032361BFF34F8F236843F01C03D3
S2140041602360BFF34F8F069B39461B682846984747
S21400417080E725237DE7C6F804A00023CDE902A743
S214004180CDE900AA40F2EA526421284604F06CFE0B
S2140041903B78002B7FF46EAF3060336823F001036A
S2140041A03360D8F810309E4202BF336843F00203F3
S2140041B0336009F10109083682E78B42C1F804E052
S2140041C002BF5E6846F080465E6008319BE700BF2F
S2140041D01F0818012DE9FF47036E1D78FF2DD0E953
S2140041E012A780460C4645D14FF0000900945FFAAE
S2140041F089F503AB7E6A022229464046B0472378FB
S21400420053B109F10109B9F1200FEFD14D460F2343
S214004210237019F03CFF22E000940DF10E037E6A35
S214004220032229464046B0472378002BE9D1BDF843
S2140042300C301BB143F6FF7293426BD1BDF80E10E3
S2140042400029DED043F6FF7283B99142D9D0BDF87B
S2140042500E204FF6FF739A42D3D01F2DD7D08AF880
S2140042600650237843B104B0BDE8F08793424AD1A4
S2140042709942EBE78AF8065000940022BE6A4FF493
S214004280004329464046B0472278002AEBD10094E6
S2140042900DF10E037E6A29464046B0472378002B70
S2140042A0E1D1BDF80E30DFF880A003EA0A03ADF8CE
S2140042B00E304FF00309BDF80E30B3F5004F1ED197
S2140042C0B9F1000F02D122232370CCE7022019F0A7
S2140042D021FC00940DF10E037E6A0022294640461A
S2140042E0B0472378002BBED1BDF80E3009F1FF3958
S2140042F00AEA0303ADF80E301FFA89F9DBE7B9F1D5
S214004300000FB0D1DFE74FF6FF718B429FD093428C
S2140043109DD0A2E74FF6FF7293429ED1BDF80E30B5
S214004320002B94D16DE700BF0080FFFF07B5104B50
S2140043301B78012B07D1FEF793F9B0B94FF0FF3089
S21400434003B05DF804FB01A800F07CF99DF80410AA
S2140043500029F3D1012001AA00F0E2FC9DF8040038
S214004360003818BF01204042EAE76FF00500E7E793
S214004370D44B0220084B187801280AD1074B1B782B
S214004380012B07D1064B1B78002B14BF03200220FD
S21400439070470020704700BFD14B0220D44B02204C
S2140043A0D54B022007B5FEF75BF948B9074B1B78DB
S2140043B0012B02D001A800F0C9F84FF0FF3001E051
S2140043C06FF0050003B05DF804FB00BFD44B02207D
S2140043D037B50546FEF744F918B10024204603B069
S2140043E030BDC5B9342018F027F804460028F4D0AC
S2140043F001231A4980F8303001AA204600F0A8FFB1
S2140044009DF80430FBB194F83030012BE5D12046FE
S21400441018F01AF8E1E7AC6874B9342018F00CF814
S21400442004460028D9D0012384F8303029680B4B85
S214004430002908BF1946DFE7EB68332BCDD914F007
S2140044400303F1D0C9E735B16B68DB0703D5012359
S21400445084F83130C2E70023FAE700BF0B4A0200B7
S21400446073B504460E461546FEF7FAF818B1002452
S214004470204602B070BD002CF9D0D5B9302017F018
S214004480DBFF04460028F2D00123164980F82830C6
S21400449001AB3246204601F0CFFA9DF80430002BDF
S2140044A0E6D094F82830012BE1D1204617F0CCFF57
S2140044B0DDE7AC6874B9302017F0BEFF044600286C
S2140044C0D5D0012384F828302968064B002908BF78
S2140044D01946DDE7EB682F2BC9D914F00303F1D09A
S2140044E0C5E700BF70490200034B1B78012B06BFCF
S2140044F0024B186800207047D44B02205835002025
S21400450070B5044608B919F0C2FDFEF7A9F80546CD
S21400451010B120232370FEE70A4B1B78012B02D034
S2140045200223237070BD084E3378F92B01D91E2361
S214004530F7E719F081F933780133337019F082F90F
S2140045402570EFE7D44B0220D54B022070B5044609
S21400455008B919F09CFD184B1E78012E02D01323C3
S2140045602370FEE7154B1B88022B02D80923237005
S214004570FEE7134D2B7813B11F232370FEE719F0C7
S21400458064F910B11F232370FEE701F071F80D4B9C
S2140045900D4A18700D4B2E7018700C2358430C4B98
S2140045A01B5813600B4A136001F086FB15F0D4F914
S2140045B0BDE8704019F06BBDD14B0220824B002045
S2140045C0D44B0220D34B02205C350020D24B022075
S2140045D0703100205835002030B14368C1F8D8301B
S2140045E08368DB68C361704791F83030022B03D0D4
S2140045F0072B05D0034B00E0034BC1F8D8307047BB
S214004600024BFAE7F0610200804902009650020071
S214004610044BC1F8D83018B1826802B1D368C361C0
S214004620704700BFF0610200054B40220021013AAE
S214004630C3E90011198103F10C03F8D1704700BFDC
S2140046407031002070B5044608B919F020FD944D6D
S2140046506A68D2B12B68934E4BB92346296B9248B1
S2140046609200FFF7FBFA306023780BB170BD336021
S2140046708E4B32681A608E4A6B6813608D498E4A7C
S2140046809B0013600A6813440B602A89B2B1234664
S214004690296B8A481201FFF7E1FA894B18602378E4
S2140046A0002BE3D1874B884A18602B8913808149F9
S2140046B0864A1B0113600A6813440B606A69002A65
S2140046C027D02B69824E002B5BD12346296B81486D
S2140046D09200FFF7C3FA30602378002BC6D17E4BDA
S2140046E02A7E1A707D4BEA691A607D4B32681A6022
S2140046F06B69EA6864215A43B2FBF1F279490A60B1
S214004700794A6C491360794A9B0013600A6813441F
S2140047100B606A6A002A28D02B6A754E002B32D1AD
S2140047202346296B73489200FFF798FA3060237887
S214004730002B9BD1704B95F828201A706F4B32686F
S2140047401A606B6AEA6864215A43B2FBF1F26C495C
S2140047500A606C4AE96A13606B4A9B0013606B4AF6
S214004760116054490A6813440B60694E6B6B3360E2
S21400477015F0A4F916F0A4F9054630B1012323700C
S21400478074E73360ABE73360D4E716F069FA36684F
S214004790604BB0420246186002D209232370FEE73F
S2140047A06DD02B460020012117F08CFC70435A4B2D
S2140047B0B6F57A7F186008D932460023002001211A
S2140047C017F080FC4FF47A754543544B544A1D60ED
S2140047D000231370534A1370534A1360534A1360EE
S2140047E0534A1370534A1370534A2046137001F00D
S2140047F045FE0A23B0FBF3F0504B186021780029E1
S2140048007FF434AF2A4B1A68002A3AD14C4B002565
S2140048101D7000F025FFFFF707FF4A4B1D604A4B4F
S2140048201D80294B1B88002B33D1484A0023136078
S214004830474A1380474A1360474A1380474A136023
S214004840474A2046138001F0D5FB2378002B7FF4DF
S2140048500DAF204601F0FCF92378002B7FF406AF5D
S214004860204601F001FF2378002B7FF4FFAE00F016
S21400487003FB1AF039F83B4B01221A70F6E628467D
S21400488095E70A4B18680028C0D092001FF014FB6A
S214004890BCE7204600F03CFC2378002BC5D0E5E6BC
S2140048A05C100020E42F002087490200E82F00203B
S2140048B0EC2F0020E02F0020F02F00209A49020065
S2140048C0F42F0020F82F0020724B0020FC2F002031
S2140048D004300020AC490200CC4B022000300020FF
S2140048E0083000200C30002010300020143000204B
S2140048F020300020C5490200CD4B02202430002085
S214004900283000202C300020303000201C300020C2
S214004910183000206030002038300020343000206E
S214004920D44B0220D54B0220583500205C350020A1
S214004930D24B0220D34B0220D64B022070340020EC
S214004940D94B022058310020764B002068310020D9
S214004950784B00206C3100207A4B00207434002005
S2140049607C4B0020D14B022090F833300B490C22B0
S214004970534330B5CA58CC1832B901252581C0E951
S2140049800422C850606030BD258901352581002489
S214004990026144615061C850F5E700BF70310020E5
S2140049A090F833200B490C235A4330B58C588B189B
S2140049B034B901251D81C0E904448850586030BDD3
S2140049C01A8901321A81002202615A684261106116
S2140049D0F4E700BF7031002010B5044690F83300AD
S2140049E000F056FE084B94F833201B789A42204677
S2140049F006D1FFF7D5FF2046BDE810401FF01ABAD3
S214004A00FFF7B2FFF7E700BFD24B022070B50446AF
S214004A10D4E9043590F83300124A0C21BDB973B9B5
S214004A204143551853502B816B6000F047FE00231E
S214004A30C4E904332046BDE870401FF014BA48436A
S214004A4016183189013931815D611350EFE701FB9A
S214004A5000221189013911812B610BB95560E6E7F7
S214004A605D61E4E77031002013B5044670B1084B71
S214004A701B78012B0AD10023CDE90033054A816F4C
S214004A80034605481FF01AF9044B1C6002B010BD1F
S214004A90D64B0220D94C0000403000203C3000208D
S214004AA0F8B50446A8B1114B1B78012B11D1456F00
S214004AB00F4E7DB90F4B1F6816F0D2F832682B46A2
S214004AC0511E0D461946E7FB0051284617F0FAFA24
S214004AD0A067F8BD16F0C4F832680023511E0E46D3
S214004AE01946E5FB00613046F0E700BFD64B0220D2
S214004AF018300020703400202DE9F743564B1B7801
S214004B00012B00D0FEE7554B93F80080B8F1000F5C
S214004B1040F0888018F090FE514F524C97F8009065
S214004B20514D064600F0A4FD4028034638707CD060
S214004B300C20DFF844814343B9F1400F58F80330A6
S214004B40236003D101F0AAF9AFF3008020682A6839
S214004B50464B90421B780DD133B1836F0BB9FFF7EC
S214004B609FFF2068FFF780FF304603B0BDE8F043A4
S214004B7018F068BE1BB3DFF80491D9F800309B6FBD
S214004B80EBB13B4801A916F019F830B9D9F8003056
S214004B90019A37489A6715F0CDFFD9F800309A6F1A
S214004BA06AB993F8330000EB400008EB800019F078
S214004BB096FF3B780C22534358F803302360226854
S214004BC0D2F8AC300133C2F8AC302A4A136801334D
S214004BD013603B78402B33D02B682268934215D065
S214004BE0A3B114F0A7FE2B68D3F8B43098421FD3B5
S214004BF014F0A0FE2B68D3F8B430C01A2A68D2F896
S214004C00B830C2F8B0001844C2F8B800246814F0EF
S214004C1091FEC4F8B40014F0DEFE304618F012FE22
S214004C20BFF36F8F03B0BDE8F083C4F80080CCE715
S214004C3014F080FE2B68D3F8B420D2431044DDE78E
S214004C4001F024F92C681CB114F074FEC4F8B4000A
S214004C50AFF30080DFE700BFD44B0220D54B022025
S214004C60D34B02205C35002058350020D64B02205E
S214004C704030002060350020703100203C3000209D
S214004C8070B5044608B919F002FAFDF7E9FC10B150
S214004C9020232370FEE70E4B1B78012B02D0022345
S214004CA0237070BD0B4E33780BB91F23F8E718F04E
S214004CB0C3FD3578013DEDB235701DB118F0C2FD6B
S214004CC02D23EDE718F0BEFDFFF716FF2570E8E789
S214004CD0D44B0220D54B022038B50E4B1B78012B47
S214004CE00D4616D118F0A8FD0023AB670A4B1B68CB
S214004CF093F833300446094803EB430300EB830084
S214004D0019F0EDFE204618F09DFDBDE83840FFF78F
S214004D10F3BE38BDD64B02203C3000207031002058
S214004D202DE9F04105460E4614460AB919F0AFF9CA
S214004D300023237018F080FDDFF878800746E6B180
S214004D40C8F80060174B012D1A781FD0012A0FD122
S214004D50154C16482168002578311D7015F02EFF79
S214004D6008B123689D67114815F0E4FE0023236010
S214004D703846BDE8F04118F065BD204601F07EFBE0
S214004D800A23B0FBF3F0C8F80000DBE7002AEFD1F7
S214004D90074C1D702068FFF783FE2068FFF764FE4F
S214004DA0E6E700BFD64B02203C3000204030002013
S214004DB05835002070340020F7B504460D4611B370
S214004DC015F04EFF114B1A680026571E46F1FF31AC
S214004DD0E5FB00713346384617F074F9CDE90066F6
S214004DE001460B4A234604F154001EF067FF08B143
S214004DF019F04DF90323204684F8323003B0BDE89D
S214004E00F040FFF703BE0223F5E700BF183000208E
S214004E100BEB010037B5144D0B4611462A6882F895
S214004E203030002382F83130104A127804463AB106
S214004E300F4A104812680191936715F07BFE01999E
S214004E402868FFF7B9FF64B1296804F10800CC624E
S214004E5019F05CFD2968204603B0BDE83040FFF736
S214004E60BBBB2B68DC62F5E758350020D64B02202A
S214004E703C30002040300020774B1B7882B0DBB2FD
S214004E808DF80530754B1B68DBB28DF80730744B18
S214004E901B78DBB28DF80530724B1B78DBB28DF8D1
S214004EA00530714B1B68DBB28DF807306F4B1B6A01
S214004EB0DBB28DF807306E4B1B78DBB28DF8053011
S214004EC06C4B1B78DBB28DF805306B4B1B88DBB266
S214004ED08DF80630694B1B88DBB28DF80630684BC0
S214004EE01B78DBB28DF80530664B1B88DBB28DF87D
S214004EF00630654B1B88DBB28DF80630634B1B888B
S214004F00DBB28DF80630624B93F82830DBB28DF8B2
S214004F100730604B1B78DBB28DF805305E4B1B8884
S214004F20DBB28DF806305D4B1B88DBB28DF80630A1
S214004F305B4B1B88DBB28DF806305A4B1B88DBB206
S214004F408DF80630584B1B88DBB28DF80630574B71
S214004F501B88DBB28DF80630554B5B8DDBB28DF8C7
S214004F600730544B1B78DBB28DF80530524B1B884C
S214004F70DBB28DF80630514B1B78DBB28DF806306D
S214004F804F4B1B6ADBB28DF807304E4B1B78DBB2FB
S214004F908DF805304C4B1B88DBB28DF806304B4B3A
S214004FA01B88DBB28DF80630494B1B68DBB28DF8E8
S214004FB00730484B1B78DBB28DF80630464B1B7823
S214004FC0DBB28DF80530454B1B78DBB28DF805302B
S214004FD0434B1B78DBB28DF80530424B1B78DBB2B7
S214004FE08DF80530404B1B78DBB28DF805303F4B13
S214004FF01B78DBB28DF805303D4B1B88DBB28DF895
S21400500006303C4B1B78DBB28DF805303A4B1B88DC
S214005010DBB28DF80630394B1B88DBB28DF80630D4
S214005020374B1B78DBB28DF80530364B1B88DBB26E
S2140050308DF80630344B9B8CDBB28DF80730334B43
S2140050401B88DBB28DF806309DF805309DF80630DB
S2140050509DF8073002B070475F11002094100020C2
S2140050605E110020CE4B02209810002064300020F5
S21400507060110020CF4B0220341100203611002092
S214005080611100203C110020381100203A11002048
S2140050908C300020621100203E11002040110020BC
S2140050A04211002044110020461100204811002023
S2140050B0BC300020631100204A110020641100203B
S2140050C0EC300020651100204E1100204C1100200D
S2140050D09C10002068110020661100206711002037
S2140050E0691100206A110020D04B02206B110020AD
S2140050F0521100206C110020501100205411002085
S2140051006D11002056110020143100205811002087
S214005110124BF0B51C68124B1E880025721E04F157
S214005120100192B22B46AFB2BA420DD8110104EB71
S2140051300212635053601381D3600A4A146096804B
S214005140D38013810370F0BD41E9041321F8083CB5
S21400515041F8043C01351031E5E700BFF82F002088
S214005160724B00205C3100202DE9F74F0C9D06465F
S214005170894692461C460DB918F089FF304616F04F
S214005180DBF8534601464A462C2016F0B5FAFDF7E2
S21400519067FA10B120232B70FEE716B90A232B708E
S2140051A0FEE7CAF30E0313B108232B70FEE732683E
S2140051B0524B9A4202D00C232B70FEE70FFA8AFA63
S2140051C0BAF1000F05DB18F040FB10B11F232B705F
S2140051D0FEE74B4B93F80080B8F1010F17D118F09B
S2140051E02BFB96F82830DFF820B10746A3B9DBF88A
S2140051F00030736286F828800CB1F26A22609A6BDF
S214005200326238469E6318F01DFB002300E002233E
S2140052102B7003B0BDE8F08FD6F82480DBF80020B2
S214005220904510D1FF2B03D118F00CFB1E23EFE79F
S214005230013386F828300CB1F36A2360384618F03C
S21400524001FB2323E4E7BAF1000F06DA18F0FAFAB6
S2140052500CB1002323601D23DAE72A4B1B7833B1F9
S21400526018F0F0FA0CB1002323602D23D0E792F853
S214005270331098F833308B420BD9404600F0C6FF07
S214005280404616F059F898F8332001462D2016F0BF
S214005290EFF94A4604213046FFF7BCFD384618F0C1
S2140052A0D1FAFFF729FC18F0C7FADBF8003093F8BC
S2140052B03120032A1CD8DFE802F0020C16110CB1CC
S2140052C05B6C236000232B7003B0BDE8F04F18F032
S2140052D0B9BA0CB15B6C23602123F4E70CB1002350
S2140052E023602223EFE70CB15B6C23603123EAE7EF
S2140052F0019018F0CCFE0198E6E700BF4D555458D3
S214005300D44B0220D54B022058350020064B0360B4
S214005310064B43600023C0E9083380F82830C36298
S214005320083019F0EEBA00BF4E4F4E45DF49020076
S214005330054B064AC36100234361136883610BB9BA
S214005340106070475861FBE7F0610200683100208A
S2140053502DE9F04104460F4615460AB918F097FEA7
S214005360FDF77EF9064610B120232B70FEE714B930
S2140053700A232B70FEE718F05FFA3022314680468B
S21400538020461EF099FD0C4B04F10800C4E90037D6
S21400539019F0B7FA2046FFF7CBFF084A1388013307
S2140053A0138021463A46292016F0DAFC404618F0CB
S2140053B049FA2E70BDE8F0814D555458784B0020C0
S2140053C0D0E9052332B907490B6003B15A610023BF
S2140053D08361704793610BB9436170475A6100233C
S2140053E08361F9E7683100202DE9F84304460F464B
S2140053F015460AB918F04BFE204615F09DFF3A46B2
S21400540001462A2016F034F9FDF72AF9064610B1AF
S21400541020232B70FEE714B90A232B70FEE72268C0
S214005420384B9A4202D00C232B70FEE7364B1B7883
S214005430012B05D002232B7007463846BDE8F883BB
S21400544018F0FAF9804637B1012F1FD018F0FAF994
S21400545008232B70FEE7A3689BB92046FFF7B0FF32
S2140054602A4A606A1388013B138010B1214619F05E
S214005470B7FB2046FFF74AFF404618F0E3F9002343
S21400548002E018F0DFF92E232B70D6E714F052FA5C
S2140054908146A068B7B2013670BB2046FFF790FF82
S2140054A01A4A666A1388013B1380E6B121463046E5
S2140054B019F096FB96F8341096F833308B4212D0DB
S2140054C0304619F099FB814228BF0146C9B23046E2
S2140054D000F09CFE304615F02FFF96F8332001466C
S2140054E02E2016F0C5F82046FFF710FF404618F0AD
S2140054F0A9F9FFF701FBC2E70222494619F059FA5B
S214005500C7E700BF4D555458D44B0220784B0020B7
S2140055102DE9F04F044685B00F4615460AB918F037
S214005520B6FD204615F008FF3A4601462B2016F039
S2140055309FF8FDF795F810B120232B70FEE714B9FD
S2140055400A232B70FEE7C7F30E0313B108232B7054
S214005550FEE722683E4B9A4202D00C232B70FEE7F1
S2140055603C4B1B78012B02D002232B702BE0DFF87C
S214005570EC9018F061F9626AD9F800309A428046D9
S21400558003D018F05FF91B23EFE714F0D3F994F873
S2140055902830E062013BDBB2824684F8283023B133
S2140055A0404618F04FF92323DFE7D9F800002146DC
S2140055B019F016FBA6684EB9666284F82860404665
S2140055C018F040F92E7005B0BDE8F08FD9F800103D
S2140055D091F8333091F834B003935B4520D00846F9
S2140055E019F00AFB584528BF5846039BC6B2B3427B
S2140055F016D20846FFF70AFAD9F8000080F833609A
S21400560015F09AFE324601462E2016F031F8304646
S21400561000F03EF8D9F80000FFF7C2F90E4B1E70F6
S214005620A1686162012384F828308B6B2362002313
S2140056308C631A462046CDF800A019F0FFF94046C4
S21400564018F000F93B0401D4FFF756FA00238CE764
S2140056504D555458D44B0220D24B022058350020CA
S214005660024B0022C3E90022704700BF44310020ED
S21400567008B5064B186828B9586814F061F9203048
S214005680C0B208BD14F05CF9FAE700BF4431002050
S2140056901F28094A07D84FF0004323FA00F0136882
S2140056A00343136070470123C0F13F0003FA00F084
S2140056B05368184350607047443100201F280A4B37
S2140056C008D84FF0004222FA00F01A6822EA0002D8
S2140056D01A6070470122C0F13F0002FA00F05A68D3
S2140056E022EA00025A607047443100202DE9F34751
S2140056F00A9D0646884617461C460DB918F0C7FC94
S214005700304615F019FE0FFA87F901463B46424629
S214005710322015F0F1FFB9F1000F03DA4EB90A2373
S2140057202B70FEE7FCF79CFF0028F7D020232B7099
S214005730FEE7C7F30E0717B108232B70FEE73268A3
S2140057403A4B9A4202D00C232B70FEE7B9F1000FB9
S21400575005DB18F07AF810B11F232B70FEE7344BE8
S2140057601B78012B10D118F067F8376A824697B17C
S214005770013F37620CB1736A23605046376A18F0EF
S21400578061F800232B7002E002232B7000273846B6
S21400579002B0BDE8F087B9F1000F07DA04B1276060
S2140057A05046376A18F04EF81D23EBE7214B1B785E
S2140057B033B104B12760504618F044F82D23E1E7D2
S2140057C0424606213046FFF725FB504618F03AF8C9
S2140057D0FFF792F918F030F8174B1B6893F8312052
S2140057E0032A1BD8DFE802F0020B15100CB15B6C25
S2140057F0236000232B70376A18F024F8C7E70CB133
S2140058005B6C23602123F5E70CB100232360222381
S214005810F0E70CB15B6C23603123EBE7019018F0E6
S21400582011F818F034FC0198E5E700BF53454D41E8
S214005830D44B0220D54B0220583500202DE9F843E2
S21400584007460E4614460AB918F021FCFCF708FF76
S21400585010B120232370FEE717B90A232370FEE752
S21400586047F6FF65354002D008232370FEE73A6806
S214005870174B9A4202D00C232370FEE7154B1B7879
S214005880012B04D0022323702846BDE8F88317F0C6
S214005890D3FFBB6880461BB917F0D4FF2423F2E77A
S2140058A014F048F88146B86840B10122494619F01C
S2140058B080F80135B6F5807FADB2F4D0404617F0DB
S2140058C0C1FF330401D4FFF717F90023DBE700BF5D
