S0130000434C495F45746865726E65742E7333376B
S11300000010002081630000B1B00000B1B0000016
S1130010B1B00000B1B00000B1B00000B1B0000058
S1130020B1B00000B1B00000B1B00000B1B0000048
S1130030B1B00000B1B00000B1B00000B1B0000038
S1130040B1B00000B1B0000031610000B1B00000F7
S1130050B1B00000B1B00000096700000DB10000AC
S1130060B1B00000B1B00000B1B00000B1B0000008
S1130070B1B00000B1B00000B1B00000B1B00000F8
S1130080B1B00000B1B00000B1B00000B1B00000E8
S1130090B1B00000B1B00000B1B00000B1B00000D8
S11300A0B1B00000B1B00000B1B00000B1B00000C8
S11300B0B1B00000B1B00000B1B000003D1F0000BD
S11300C0B1B00000B1B00000B1B00000B1B00000A8
S11300D0B1B00000B1B00000B1B00000B1B0000098
S11300E0B1B00000B1B00000B1B00000B1B0000088
S11300F0B1B00000B1B00000B1B00000B1B0000078
S1130100B1B00000B1B00000B1B00000B1B0000067
S1130110B1B00000B1B00000B1B00000B1B0000057
S1130120B1B00000B1B00000B1B00000B1B0000047
S1130130013800D0FCE77047000000000000000018
S113014001F0FF01102A2BDB10F0070F08D010F884
S1130150013B013A8B422DD010F0070F42B3F6D188
S1130160F0B441EA012141EA014122F007047FF0A1
S113017000070023F0E80256083C85EA010586EAF8
S1130180010685FA47F5A3FA87F586FA47F6A5FA34
S113019087F68EB9EED1F0BC01F0FF0102F0070240
S11301A032B110F8013B013A83EA010313B1F8D1EB
S11301B00020704701387047002D06BF35460338CC
S11301C0073815F0010F07D1013015F4807F02BF05
S11301D0013015F4C03F0130F0BC0138704700BF56
S11301E02DE9F04F2DED048B9DB01F46002318938D
S11301F0A14B13921B6805930446184688460BF0DE
S1130200FCF84FF0000A05464FF0000BCDF85C8077
S1130210179B1A782B2A4CD039D80D2A32D8082AA1
S113022032D8002A3CD000230A93179E3378302B0F
S113023040F0AE80737803F0DF03582B66D10A9B3D
S1130240019318AB029700938C4A19AB17A9204667
S113025008F008FE10F00707054605D0062F2AD13E
S11302600136002317960A93139B002B40F08485D4
S11302700A9BDBB150460BF100411DB0BDEC048B71
S1130280BDE8F08F202ACED101331793C0E72D2A81
S1130290C9D101220A925A1C17925B78002BC4D14F
S11302A0139BCDF85C80002B40F064855046594682
S11302B0E3E70022EEE7189A3AB135211AA80BF0C9
S11302C097FB1899204609F09FF8013F042F06D8A0
S11302D0DFE807F00A0314170A00DDE91AAB280760
S11302E0C2D54BF0004BBFE7DDE91AA3199A23F4FA
S11302F0801302F2334243EA025BF0E7DFF880B195
S1130300EDE76FF0004B4FF0FF3AE8E7179B5A1CFC
S113031017925B78302BF9D0002BA5D001234FF036
S113032000090493179B0893CDF81C904F460A22AA
S113033017980678A6F13003D9B209292AD9059964
S11303402A460BF062F898B3002032463D460590E9
S11303500346652A01D0452A18D11DB9049A0243DF
S11303609ED00025DDF85C8008F10102179298F810
S113037001202B2A75D02D2A7BD04FF0000CA2F13E
S11303803001092940F28280CDF85C8000269DE08E
S11303900023C4E7082FD8BF079900F10100DABF92
S11303A002FB0133079302FB093901371790BFE7BA
S11303B0179B5A1917925A5D002F37D005903D4666
S11303C0A2F13003092B12D90123C2E7179B5A1C4F
S11303D017925A780130302AF8D0A2F13103082B51
S11303E000F2CF84179B0590002008930546303A0D
S11303F000F1010314D00599194405912B4600EB33
S1130400050E0A21734513D12B18082B05F101059C
S113041005441CDC07990A2303FB012307930023EB
S1130420179A511C179152781846C9E73846D2E7F3
S1130430082B04DC079E4E4307960133E2E703F1E1
S1130440010CBCF1100FD8BF01FB09F9F5E7102D21
S1130450DCBF0A2303FB0929E1E7002305930123F9
S11304607CE74FF0000C08F10202179298F8022082
S113047085E74FF0010CF6E7C4DD0000D4DB000093
S11304800000F07F179A511C17915278302AF9D046
S1130490A2F1310108293FF679AFA2F1300E179A83
S11304A00692179A511C17915278A2F13006092E20
S11304B037D9069E891B082944F61F6602DC764557
S11304C0A8BF7646BCF1000F00D07642002D4DD176
S11304D0049901437FF4C8AE002B7FF4E1AE692A8E
S11304E027D024DC492A24D04E2A7FF4D9AE9E4951
S11304F017A80BF0FAF800283FF4D2AE179B1B782C
S1130500282B2DD199491AAA17A80BF002F905280E
S113051026D11B9BDDF868A043F0FF4B4BF4E00BA6
S1130520A2E60A2101FB0E2EAEF1300EB9E76E2AC7
S1130530DBE78F4917A80BF0D8F800283FF4B0AEDA
S1130540179B8C49013B17A817930BF0CEF810B9F1
S1130550179B01331793DFF82CB24FF0000A83E6A0
S1130560854809F0FBFD82468B467DE6059B07988E
S1130570F31A002F08BF2F46102D0693A846A8BFD4
S11305804FF0100806F0E8FC092D82468B4613DD77
S11305907A4B03EBC80353E9122306F057FD824656
S11305A048468B4606F0D8FC02460B465046594650
S11305B006F096FB82468B460F2D36DC069B002BFD
S11305C03FF452AE22DD162B09DC6C4901EBC3016A
S11305D0D1E9000152465B4606F038FDC3E7069AAE
S11305E0C5F12503934220DB644CC5F10F0504EBF0
S11305F0C50152465B46D1E9000106F027FD069B82
S11306005D1B04EBC504D4E90023E5E7069B163320
S11306100BDB059B9E1B594B03EBC606D6E9002357
S11306205046594606F03CFE9DE7069AA5EB0803A2
S113063003EB0208B8F1000F74DD18F00F030AD0C1
S11306404E4901EBC30152465B46D1E9000106F075
S1130650FDFC82468B4638F00F084FD0B8F59A7FE0
S113066022DD0025A946079505952223DFF814B15C
S113067023604FF0000A079B002B3FF4F5AD189957
S1130680204608F0C1FE0599204608F0BDFE494603
S1130690204608F0B9FE0799204608F0B5FE294621
S11306A0204608F0B1FEDFE5354B049300234FEA02
S11306B02818504659469946B8F1010F21DC0BB170
S11306C082468B462E4BABF1547B03EBC909524651
S11306D05B46D9E9000106F0B9FC2A4B0A460B40F7
S11306E029498B428246BCD8A1F580118B4286BF32
S11306F0DFF898B04FF0FF3A02F1547B00230493E3
S113070083E018F0010F05D0049BD3E9002306F021
S11307109DFC0123049A083209F101094FEA680893
S11307200492C9E7EAD0C8F1000818F00F020AD011
S1130730124B03EBC20350465946D3E9002306F09B
S1130740AFFD82468B465FEA2818D7D0B8F11F0F59
S11307501EDD0025A9460795059522234FF0000AC2
S11307604FF0000B236086E7A5DB0000E8DB000008
S11307709DDB00002BDC0000BDC0000080DE00001B
S113078058DE00000000F07F0000A07CFFFFEF7F38
S113079018F0100318BF6A23DFF8AC930493504693
S11307A05946002318F0010F04D0D9E9002306F0BC
S11307B04DFC01235FEA680809F10809F2D10BB185
S11307C082468B46049BC3B1CBF30A52C2F16B033E
S11307D0002B594611DD1F2B40F32181342BDEBF42
S11307E0C2F14B024FF0FF3303FA02F24FF0000A5A
S11307F0CCBF4FF05C7B02EA010B00220023504681
S1130800594609F01DFE0028A3D1079B00930899BF
S11308102B463A46204608F05FFE079000283FF436
S113082020AF059B9E1B069B002BB4BF33460023C1
S11308300C93069B002523EAE3731293A946079BB6
S11308402046596808F0A0FD059000283FF40DAF3C
S1130850079B1A69023203F10C0192000C300AF072
S11308607EFC1AAB019319AB009352465B462046BB
S113087009F00AF94BEC18AB189000283FF4F5AED8
S11308800121204608F072FE814600283FF4EDAEB7
S1130890199E1A9A002EABBF0C9B129B129FDDF877
S11308A03080ACBF06EB03089F1B049BF61A16446A
S11308B0A04B013E9E42C2F1360280F2C3809B1BD4
S11308C01F2BA2EB03024FF0010100F3AF8001FAEA
S11308D003F30D930023089308EB0206049BB04531
S11308E017441F444346A8BF3346BB42A8BF3B46F8
S11308F0002BC2BFF61AFF1AA8EB03080C9B002BAF
S113090017DD49461A46204608F0F0FE81460028C5
S11309103FF4ABAE0146189A204608F03DFE0B901A
S113092000283FF4A2AE1899204608F06DFD0B9BF9
S11309301893002E00F38B80069B002B08DD129A7F
S11309400599204608F0D2FE059000283FF48DAEAC
S1130950002F08DD05993A46204608F021FF05904E
S113096000283FF482AEB8F1000F08DD4946424644
S1130970204608F015FF814600283FF476AE059A1C
S11309801899204608F07CFF054600283FF46DAE18
S1130990C3680B930023C36049460AF0DFFF0028B5
S11309A05FDA0B9B53EA0A0340F08380CBF3130313
S11309B0002B7ED12BF000431B0D1B05B3F1D66F2A
S11309C077D96B6913B92B69012B72DD2946012292
S11309D0204608F0E5FE494605460AF0BFFF002818
S11309E067DD0499544A5B46002900F0838002EADB
S11309F00B01B1F1D66F7DDCB1F15C7F7FF7ADAE59
S1130A004E4B50465946002206F020FB0B4603434A
S1130A1008BF222382468B4608BF23602FE64FF08F
S1130A20FF3202FA03F303EA0A0AE6E6C6F17F4656
S1130A3006F57F0606F57B46E23601FA06F30893CF
S1130A400D9149E70023089301230D9344E7189976
S1130A503246204608F0A4FE189000287FF46CAFBC
S1130A6003E6D84672D10B9ACBF3130352B3344A3C
S1130A7093422AD1049B5146FBB12F4B0BEA03034B
S1130A80B3F1D46F4FF0FF321AD81B0DC3F16B03CF
S1130A9002FA03F3994218D12A4B984502D1013145
S1130AA03FF4E3AD244B08EA030303F5801B4FF046
S1130AB0000A049B002BA3D1E1E54FF0FF33E9E7E3
S1130AC01346E7E753EA0A038BD0089BE3B113EA22
S1130AD0080FEED00B9B049A50465946C3B10AF056
S1130AE0A8FC02460B4651EC180B06F0F9F88246B6
S1130AF08B46DEE71340A3F580136FEA135B6FEABE
S1130B000B5B4FF0FF3AD4E70D9B13EA0A0FE0E7C3
S1130B100AF08FFC02460B4651EC180B06F0DEF887
S1130B200022002382468B4609F08AFC0028C0D0AC
S1130B3013E600BF02FCFFFF0000F07F0000503905
S1130B40FFFF0F00FFFFEF7F00DC0000494628464F
S1130B500AF020FF00224FF0804306460F4609F0BA
S1130B6083FC002879D00B9B002B4BD0924B0022A6
S1130B70CDE90823904F0026904B08EA03030D9318
S1130B800D9A8F4B9A4240F0B0809DED087BA8F1FE
S1130B90547B50465946B0EE479AF0EE679A08F0F7
S1130BA0F9FE02460B4651EC190B06F04FFA524679
S1130BB05B4606F095F80B468049824A19409142FB
S1130BC082465ED918EE903A02F15472934204D1EF
S1130BD018EE103A01333FF448ADDFF8F4B14FF0AA
S1130BE0FF3A1899204608F00FFC0599204608F0B2
S1130BF00BFC4946204608F007FC2946204608F02D
S1130C0003FC1CE6BAF1000F1AD1CBF31303F3B9BA
S1130C10694B00223046394609F01CFCD0B93046F5
S1130C203946694B002206F011FA06460F4607F1D1
S1130C30004314961593DDE91423CDE908239BE7BB
S1130C40BAF1010F03D1BBF1000F3FF486AD5F4B46
S1130C5000228DE75C4F0026E9E75B4B30463946BE
S1130C60002206F0F3F90B9B06460F4633B901F157
S1130C7000430E900F93DDE90E23DEE7CDE90E6706
S1130C80F9E703F1547B049B002BAAD12BF000431A
S1130C900D9A1B0D1B059A42A3D13046394609F023
S1130CA05FFC06F0A5F902460B463046394606F0CD
S1130CB015F80B9ACBF3130343EA0A0313430646CE
S1130CC00F4651D034A3D3E9002309F0C3FB002815
S1130CD07FF4D5AC32A3D3E900233046394609F07A
S1130CE0D7FB00283FF47DAFC9E4049B33B30D9BCD
S1130CF0B3F1D46F22D82CA3D3E90023304639466C
S1130D0009F0B2FBA0B13946304609F009FC0128CC
S1130D1038BF012006F020F90B9B06460F4603BBA3
S1130D2001F1004310901193DDE91023CDE908236C
S1130D30099B0D9A03F1D6639B1A099351EC180B86
S1130D40DDE908AB08F026FE02460B46504659463C
S1130D5006F07CF953EC182B05F0C2FF82468B4653
S1130D6091E7CDE91067DFE711A3D3E9002309F088
S1130D7071FBB6E700230A93139A179B1360FFF7DE
S1130D8077BA652A3FF469AB452A3FF466AB012381
S1130D90FFF79EBBAFF300809535A094FFFFDF3FC4
S1130DA035E5AF350000E03F0000C0FFFFFFDF4145
S1130DB09535A094FFFFCF3F0000F03F0000F07F87
S1130DC00000E07FFFFF9F7C0000E03F0000F0BFD9
S1130DD0FFFFEF7F000000002DE9F04F2DED048BA5
S1130DE0456A93B00446DDF88C8016461F46924649
S1130DF09B4675B9102008F0BFFA0246606220B91C
S1130E00A94BEA21A94809F0D1F9C0E901550560C7
S1130E10C560636A196851B15A684A6001239340F6
S1130E208B60204608F0F0FA636A00221A603B1EC9
S1130E30AABF002323F0004BC8F800309C4BBCBF72
S1130E400122C8F8002033EA0B031BD1229A42F294
S1130E500F731360CBF31303334300F09685249B85
S1130E6063B9944B22E0944B04930833249A13609F
S1130E70049813B0BDEC048BBDE8F08F8D4B049344
S1130E800333F3E7002200235046594609F0D8FA09
S1130E904BEC19AB804658B1229A01231360249B72
S1130EA0002B00F06F8585481860431E0493DFE72C
S1130EB010AB019311AB009352465B46204608F0F9
S1130EC0E3FDCBF30A5508EE100A002D00F08480F0
S1130ED019EE903AC3F3130343F07F57564647F491
S1130EE04017A5F2FF35CDF83880754B0022304607
S1130EF0394605F0F3FE66A3D3E9002306F0A6F80D
S1130F0065A3D3E9002305F0EBFE064628460F4609
S1130F1006F032F862A3D3E9002306F097F80246FC
S1130F200B463046394605F0DBFE06460F4609F00F
S1130F30CFFA0022039000233046394609F08AFA9A
S1130F4050B1039806F018F832463B4609F078FA97
S1130F5010B9039B013B0393039B162B5AD8039AA6
S1130F60584B03EBC203D3E9002351EC190B09F0EE
S1130F7071FA002850D0039B013B039300230C9388
S1130F80109B5D1B6B1E089345BFC5F101030793BE
S1130F90002300234CBF08930793039B002B3DDBE6
S1130FA0089B039A0B921344089300230993209BF4
S1130FB0092B00F28B80052BC4BF043B2093209B9C
S1130FC0A3F10203CCBF00250125032B00F2898085
S1130FD0DFE803F02D3A3859DDE910531D4405F2DA
S1130FE03243202BC1BFC3F1400305F212400BFA78
S1130FF003F326FA00F0DABFC3F1200306FA03F084
S1131000184305F0A9FF01230646A1F1F877013D35
S11310100E936AE70123B2E70C90B1E7079B039AAA
S11310209B1A07935342099300230B93BFE70023B2
S11310300A93219B002B57DC0123CDE905331A4683
S113104021920CE00123F3E70023219A0A93039BE6
S1131050134405930133012B0693B8BF0123606A3F
S113106000224260042202F114069E4241683FD9E4
S1131070204608F089F9049000283DD1124B02461D
S11310804FF4D571BEE60123DFE700BFAFF3008064
S113109061436F63A787D23FB3C8608B288AC63F7A
S11310A0FB799F501344D33F35DC00004CDC000037
S11310B00000F07F31DC000028DC0000A9DB000028
S11310C00000F83F80DE0000CADC00000125002398
S11310D020930A954FF0FF33CDE905330022122304
S11310E0AEE701230A93F5E7219BCDE90533B6E783
S11310F0013141605200B6E7636A049A1A60069BA4
S11311000E2B00F29D80002D00F09A80039B002B93
S113111032DDB74A03F00F0302EBC303D3E90089BE
S1131120039BD8054FEA231716D5B24B51EC190B84
S1131130D3E9082306F0B4F807F00F0782468B467C
S11311400325AC4E57B942464B465046594606F025
S1131150A7F882468B4628E00225F2E7F90708D56E
S113116040464946D6E9002305F070FF0135804624
S113117089467F100836E5E700F09B80039B9D4F6E
S11311805E429B4B06F00F0203EBC203D3E900233C
S113119051EC190B05F05AFF361182468B46002399
S11311A00225002E7AD1002BD3D10C9B002B00F00A
S11311B08280914B00225046594609F04BF9002891
S11311C079D0069B002B76D0059B002B36DD039B44
S11311D0504659465F1E0022884B05F037FF059E96
S11311E082468B460135284605F0C6FE52465B46CC
S11311F005F02CFF824B002205F072FDD046D94643
S11312008246A1F1507B002E58D17E4B00224046ED
S1131210494605F063FD52465B468046894609F01F
S113122037F9002840F0958252460BF100434046BE
S1131230494609F00FF9002840F089825BEC19ABAC
S1131240119B002BC0F24881039A0E2A00F34481BB
S1131250674B03EBC203D3E90089219B002B80F287
S1131260D580069B002B00F3D18040F06F82654B44
S113127000224046494605F0E9FE52465B4609F025
S1131280FDF8069E3746002840F04582049D312330
S113129005F8013B039B0133039340E2F20705D5B4
S11312A0D7E9002305F0D2FE013501237610083773
S11312B077E7022579E7039F069E94E704994C4B50
S11312C031440D910A9903EBC60353E90223002923
S11312D043D04D49002005F0E3FF52465B4605F03C
S11312E0FDFC049D82468B464946404609F0F0F8D1
S11312F0064605F041FE02460B464046494605F0C7
S1131300EDFC303605F8016B52465B468046894653
S113131009F0A0F8002863D142464B463649002024
S113132005F0DCFC52465B4609F094F8002840F0D6
S1131330B5800D9B9D4281D0304B002250465946CA
S113134005F084FE2D4B82468B46404649460022DA
S113135005F07CFE80468946C6E75046594605F0AE
S113136075FE0D9B049D0F9382468B46494640466D
S113137009F0AEF8064605F0FFFD303602460B468E
S11313804046494605F0AAFC05F8016B0D9B9D42B9
S1131390804689464FF0000224D11B4B50465946E3
S11313A005F09EFC02460B464046494609F070F89B
S11313B0002873D152465B461349002005F08EFC89
S11313C002460B464046494609F044F800283FF4DB
S11313D035AF0F9D6B1E0F9315F8013C302BF8D0E1
S11313E0039749E0054B05F031FE80468946BDE789
S11313F080DE000058DE00000000F03F00002440C2
S113140000001C40000014400000E03F049D5646CC
S11314105F4642464B463046394605F041FF09F0E7
S113142057F8824605F0A8FD42464B4605F00EFEED
S113143002460B46304639460AF1300605F04EFCAA
S113144005F8016B049E069FAE1BB74202460B468D
S113145035D105F045FC42464B4606460F4609F099
S113146017F8D0B942464B463046394608F0E8FFF3
S113147010B11AF0010F10D1204618EE101A07F01F
S1131480C3FF002303982B70229B01301860249B18
S1131490002B3FF4EDAC1D60EAE4039F2B461D4690
S11314A013F8012D392A06D1049A9A42F7D10499E6
S11314B0302201370A701A7801321A7090E7A64B6D
S11314C0002205F0C3FD0022002306460F4608F063
S11314D0B7FF00289DD0CFE70A9A002A00F0D780F2
S11314E0209A012A00F3BA800E9A002A00F0B280F2
S11314F003F23343099E079D079A1A440792089AF8
S113150001211A442046089208F030F80746002DBD
S11315100CDD089B002B09DDAB42079AA8BF2B46C4
S1131520D21A0792089AED1AD31A0893099B1BB38F
S11315300A9B002B00F0AF80002E13DD39463246A3
S1131540204608F0D3F818EE102A01460746204634
S113155008F022F818EE101A8046204607F054FFCF
S113156008EE108A099B9A1B06D018EE101A204622
S113157008F0BCF808EE100A0121204607F0F6FF37
S11315800B9B002B064640F388801A4601462046F2
S113159008F0ACF8209B012B064640F381804FF005
S11315A00008336906EB830318690AF088F9C0F16F
S11315B02000089B184410F01F0000F09280C0F136
S11315C02003042B40F38A80C0F11C00079B0344D2
S11315D00793089B034405440893079B002B07DDEE
S11315E018EE101A1A46204608F0DAF808EE100A27
S11315F0089B002B05DD31461A46204608F0D0F83A
S113160006460C9B002B6ED018EE100A31460AF0E9
S1131610A5F9002867DA039B013B18EE101A03931F
S11316200A220023204607F011FF0A9B08EE100A45
S1131630002B00F0B181002339460A22204607F02E
S113164005FF059B002B074600F38E80209B022B91
S113165051DC89E0109BC3F136034BE7069B5E1E09
S1131660099BB342BFBF099B0996F21A0B9BB6BFF5
S11316709B189E1B0B93069BB8BF0026002BB7BF7D
S1131680DDE90623DDE906359D1A002334E7099ECA
S1131690079D0A9F3BE7099A67E7209B012B18DC0B
S11316A0BAF1000F15D1CBF3130393B92BF0004318
S11316B01B0D1B0583B1079B01330793089B013363
S11316C008934FF001080B9B002B7FF46AAF0120B5
S11316D06FE74FF00008F6E79846F4E73FF47DAF74
S11316E018461C3072E7069B002B37DC209B022B2C
S11316F034DD069B0593059B6BB9314605222046D4
S113170007F0A4FE0146064618EE100A0AF026F970
S113171000283FF7BBAD219B049DDB4303934FF0AF
S113172000083146204607F06FFE002F3FF4A4AEB8
S1131730B8F1000F05D0B84503D04146204607F064
S113174063FE3946204607F05FFE95E600263746DD
S1131750E1E70397374699E5000024400A9B002BF4
S113176000F0CA80069B0593002D05DD39462A4604
S1131770204608F015F80746B8F1000F5BD07968E9
S1131780204607F001FE054628B9874B024640F281
S1131790EA21FFF737BB3A690232920007F10C01E4
S11317A00C3009F0DCFC01222946204607F0F8FF42
S11317B0049B03F10109DDE90423134408930AF0AF
S11317C00103B84607930746314618EE100A09F09C
S11317D053FE4146059000F1300A18EE100A0AF053
S11317E0BDF83A4606903146204608F049F8C268EA
S11317F009F1FF3B054602BB014618EE100A0AF048
S1131800ADF8024629462046099207F0FDFD209BCB
S1131810099A43EA0201079B0B434D460FD1BAF1E3
S1131820390F2AD0069B002B02DD059B03F1310AF8
S11318308BF800A075E73846BAE70122E2E7069B79
S1131840002B04DB20990B4307990B4322D1002A78
S1131850EEDD18EE101A0122204607F0A1FF3146F2
S113186008EE100A0AF07AF8002803DCE0D11AF036
S1131870010FDDD0BAF1390FD7D139238BF80030FD
S11318802B461D46013B15F8012C392A71D0013233
S11318901A7046E7002A07DDBAF1390FEDD00AF1D4
S11318A001038BF800303CE7089B09F801AC99452B
S11318B047D018EE101A00230A22204607F0C6FD6E
S11318C0B84508EE100A4FF000034FF00A024146F3
S11318D0204606D107F0BAFD8046074609F1010902
S11318E072E707F0B3FD3946804600230A222046FA
S11318F007F0ACFD0746F1E7069B0593049D18EE3F
S1131900100A314609F0B8FD00F1300A049B05F8CD
S113191001ABEA1A059B934209DD18EE101A002365
S11319200A22204607F092FD08EE100AE7E7059B1D
S1131930002BC8BF1D46049BD8BF01251D444FF092
S1131940000818EE101A0122204607F029FF31463C
S113195008EE100A0AF002F8002891DC02D11AF00D
S1131960010F8DD12B461D4613F8012D302AFAD0D4
S1131970D7E6049A9A4284D1039B0133039331231B
S11319801370CEE6094BFFF791BA249B002B7FF42A
S11319906AAA074BFFF78ABA059B002BAEDC209B93
S11319A0022B3FF7A8AEA9E7CADC0000A8DB0000C1
S11319B028DC000010B5054C237833B9044B13B16F
S11319C00448AFF300800123237010BD701400207D
S11319D000000000A4DF000008B5034B1BB103495D
S11319E00348AFF3008008BD000000007414002019
S11319F0A4DF0000A3F5803A704700BF174B002B0B
S1131A0008BF134B9D46FFF7F5FF00218B460F4699
S1131A101348144A121A09F0CAFB0E4B002B00D0CB
S1131A2098470D4B002B00D098470020002104005C
S1131A300D000D48002802D00C48AFF3008005F0DB
S1131A40FDFE2000290009F080FB05F0E3FE00BF45
S1131A50000008000000000000000000001000204A
S1131A6070140020E81A00200000000000000000AC
S1131A7010B5044604F0F2FC4FF47A729042B0FBC5
S1131A80F2F105D23621BDE810400B4809F0D9BA6D
S1131A900A4BB3FBF1F30A49884201D93C21F2E72E
S1131AA002FB04F0B0FBF3F0032804D9BDE81040B6
S1131AB08008FEF73DBB10BD5CBD000040420F0036
S1131AC0E7CD9A3B30B50F4C41612368ABB9206038
S1131AD0836011E0891A9A6841611D462AB1134650
S1131AE05A698A42F6D955B11A46A86013468360EA
S1131AF013B15A69511A596130BD0025F0E72060CD
S1131B00F5E700BF9814002010B500F0B5F90A4CB1
S1131B100A4B19682368C31A01B10BB9206010BDC0
S1131B204A699A422EBFD21A9B1A00224A6128BFE0
S1131B3000238968F0E700BF8C140020981400206B
S1131B4038B5134D2B685B6993B1124A14680220AF
S1131B501C4400F0C5F9204600F094F90E492A68A7
S1131B6000230B70D088800709D501230B7038BD82
S1131B70022000F0B5F9022000F0D8F9EEE79268EF
S1131B80002AF4D050690344012BEBD9EFE700BFDE
S1131B90981400208C140020A51A00200C490B680E
S1131BA000227BB183420AD183687AB1936083684F
S1131BB01BB15A6941690A445A61002070471A46A8
S1131BC09B68EEE70028EFD0022070470B60EEE739
S1131BD09814002070B5154E09F0BFF93478054605
S1131BE0FCB9134B1C60134B1C60134B1C8000F09E
S1131BF0FFF8012000F074F900F0B8F90F4B024629
S1131C00186020B9284609F0AEF9232070BD234698
S1131C100B4840F2E73105F07BFC0A4B18600123C6
S1131C203370284609F09FF90020EFE7A41A00203A
S1131C30981400208C1400209C1A00209414002076
S1131C4018FCFFFF901400202DE9F0410546F8B17F
S1131C5009F07CF90F4F0646FFF756FF2846D7F8E0
S1131C600080FFF79BFF044628B1304609F072F963
S1131C702046BDE8F081A8453B6803D123B1FFF7B6
S1131C805FFFF2E7002BF0D1022000F037F9ECE718
S1131C902224EDE798140020C2072DE9F84F0446EA
S1131CA00BD54F4A138801339BB21380FFF72CFFE7
S1131CB04C4B1B680BB1FFF743FFA30740F18E8029
S1131CC009F04BF90546FFF71FFF4FF0000A454F97
S1131CD0DFF818915646D0463C680CB163698BB165
S1131CE0414B0022012E1A7003D1BAF1020F08BF32
S1131CF01E70002C62D0FFF723FF2846BDE8F84F82
S1131D0009F031B923461A792179914288BF1C46DA
S1131D109B6813B15A69002AF5D0284609F023F9C3
S1131D20D4F810A0BAF1000F4CD000F0A5F8A269C5
S1131D30851AEB17AA4578EB030344DA23691344A5
S1131D40A361012223691BB312BBEB17BAEB050590
S1131D5063EB4303002B04DA4FF4A461484609F013
S1131D6070F9A38B33B1E28B13449BB2B3F57A7F42
S1131D701CD2E38309F0F1F8294682462046FFF796
S1131D80A1FEA36922691344A361504609F0EBF84C
S1131D90E368B4F806A0013613B1216820469847D9
S1131DA009F0DBF80546FFF7AFFE95E7A3F57A7374
S1131DB0E383A369013B013DA361DBE7022000F05B
S1131DC09DF89AE7554609F0C8F883462046FFF780
S1131DD0E5FE584609F0C7F80022B3E7BDE8F88FDE
S1131DE09C1A002098140020A61A0020B6BD0000FA
S1131DF010B51D4B86B01868596803AA03C2198927
S1131E00D3F80A0011800024DA8901901B7C17485A
S1131E10ADF8082001218DF80A3001F049FA8DF857
S1131E200C4008F0EBFB8DF8100003A803F01CF83D
S1131E3001A901208DF8044002F0E4FF0C4A536A22
S1131E4023F4FF6323F00703536240F2FF7313622A
S1131E500120946003F002F8064B4FF00042C3F8EF
S1131E6080211A6006B010BD18BE0000A00914003D
S1131E700020064000E100E0014B9868704700BF75
S1131E800020064010B5044609F060F8124A936831
S1131E90516D9269520704D4CA1A032A01D88B429D
S1131EA00DD1E21A022A98BFDC1C0B4BB4F1FF3FA0
S1131EB038BF013C5C655A6A42F004025A6209F078
S1131EC049F8064A137833B103490B6D43F0020312
S1131ED00B650023137010BD002006403A14002047
S1131EE08207054A00F00103516A48BF43F0040326
S1131EF00B435362704700BF00200640820700F086
S1131F00010309D5074A0121117007490A6D22F01E
S1131F10030243F004030A6503494A6A22EA0303FD
S1131F204B6270473A14002000200640830742BFEA
S1131F30014B0422DA6170470020064010B509F015
S1131F400CF8094A93690446590703F0010003F0A9
S1131F50070348BF40F002001362FFF79DFE2046CE
S1131F60BDE8104008F0FFBF0020064008B5044853
S1131F7001F0BAFE034608F041FB23FA00F008BD65
S1131F80A009140010B5044608F0E0FF024B1C60E1
S1131F9008F0E0FF002010BD9C14002010B508F0EC
S1131FA0D5FF034B1C6808F0D5FF204610BD00BFC9
S1131FB09C14002010B50020144608F021FB18B131
S1131FC00248BF2109F03DF8204610BD29BE00009B
S1131FD0034B1868002380680222194606F04ABAA7
S1131FE06812002038B5037A3022534303F180434A
S1131FF003F500530446D3F89450D0E90323134463
S11320009D4201D8AA4204D905484FF43E7109F013
S113201018F8D4E9030303449D4218BF284638BD89
S113202096BE000030B5144687B005461046FFF74B
S1132030D9FF636983423CBFD4E903315B181B1A9F
S11320400246ABB1124903910021CDE901310123CC
S113205000930494D4E90013284608F0B7FF20B194
S11320600C484FF4347108F0ECFF002007B030BD89
S11320700122627694F82D20002AF6D084F83530B7
S11320801321E36920469847636A20469847ECE7A2
S11320902520000096BE00002DE9F04788B00446D4
S11320A088461746994608F058FF8246002F00F0EC
S11320B0AB80237E03F0FF02002B00F0DE8020467D
S11320C0FFF790FF63699842054606D1637E23B902
S11320D06B4840F27F3108F0B4FF6669B5429CBF9B
S11320E0D4E90352AD18AD1BBD4228BF3D4608F0EC
S11320F034FF94F82D300646002B40F09680616939
S11321002A46404609F02BF863692B4463612F4645
S11321102CE06069037803F0FD01112940F082800E
S1132120216B884205D1A3F111014B424B4184F844
S11321303430013F6369216B8B4203F1010308BF13
S11321402363636101329542E3D1D4E90323216B14
S11321501344994208BF2263216B8A4201D88B42FF
S113216004D847484FF46D7108F06BFFD4E903239A
S113217061691344994208BF626161698A4201D866
S11321808B4204D83E484FF4717108F05AFF002383
S1132190207A637603F022FF20B1394840F21131EE
S11321A008F04FFF2046FFF71DFF636983423FD1CC
S11321B00023237694F82D30E568656103B1256327
S11321C0636A204698472F4B0393002302932369A5
S11321D001930123009321686368207A04942A46BA
S11321E008F0F4FE20B1264840F22D3108F029FF12
S11321F0207A03F013FF20B1214840F2513108F056
S113220020FF304608F0AFFE5046C9F8007008F0D1
S1132210AAFED9F80030002B0CBF1B20002008B008
S1132220BDE8F08708F8013B84E72F4600228AE7DF
S11322300123207A23760DF11E0103F057FF20B10C
S11322400F484FF4507108F0FCFE9DF81E30002B2F
S1132250CED0207A0DF11F0103F020FF20B10848F1
S113226040F2463108F0EDFE9DF81F100029BFD161
S1132270207A2246FFF7D6FEBAE71746C4E700BF26
S113228096BE00002520000070B504460568FFF7DF
S113229085FE844202D10020FFF774FE95F93630A2
S11322A0002B11DB03F01F015B099B0003F160436A
S11322B003F5614301228A40C3F88021C3F88020DA
S11322C0BFF34F8FBFF36F8F287A03F0C7FE20B19F
S11322D011484FF4ED7108F0B4FE287A03F028FE9B
S11322E020B10D484FF4EF7108F0ABFE03F0FEFD92
S11322F038B10A4B984204D007484FF4F17108F002
S1132300A0FE0023C4E90033C4E90433A3602846D3
S1132310AB6ABDE87040184796BE0000058000F027
S11323202DE9F84390F82C80DFF8AC9004460D4674
S11323308E18B54228D094F82D3083B108F00DFEE4
S1132340237E07461BBB226B63699A4204D040F28A
S1132350F911484608F075FE384608F004FE94F872
S11323603430002BE5D0B8F1000F06D02B780A2BBF
S113237003D1E3690D2120469847E36915F8011B51
S1132380204698470028D4D00020BDE8F883204692
S1132390FFF728FEE168D4F830C0013888423EBF18
S11323A0206900F1FF30401803469C450BD013F818
S11323B00129112A01D0132A07D1A2F111035A428B
S11323C05A4184F834202063C6E7994282BF2369C6
S11323D003F1FF335B18E8E796BE0000F0B50C4646
S11323E00646154687B03822002120461F4608F0CD
S11323F0DEFE002395E803002A692376EB68E36098
S1132400C4E904232A7D84F82C20AA7D23630123B4
S113241084F8343084F835300C9B236284E803005C
S11324200D9B63620E9B84F82D20E761A3622B7AD7
S113243084F83630204B7360204BB360204B3361FB
S1132440204B7361204B3460F36003F097FD30B18F
S11324501E4B984203D01024204607B0F0BD002143
S113246004F1080003F012FD0028F4D1184B049481
S1132470CDE9020301272369019300976368E268A9
S11324802168207A08F0A2FD04460028E3D195F9DA
S11324900830002B0BDB03F01F025B099B0003F1E8
S11324A0604303F561439740C3F880711F60304671
S11324B0FFF768FDD0E700BF21230000992000004A
S11324C0B7A60000BDA6000089220000038000F02A
S11324D0252000002DE9F04186B01C46524B0C9D8E
S11324E00293524B0193012600230093CDE9036626
S11324F04F4B90460A462946FFF770FF07460028CF
S113250056D12368AB636368EB63637A85F8413023
S1132510237A85F84030E37A85F84330A37A85F846
S11325204230637B85F84530237B85F84430E37B78
S113253085F84730A37B85F846303E48314600F0A5
S1132540B7FE3D48314600F0B3FE617A207A334647
S1132550042202F0D5FA33460222E17AA07A02F08C
S1132560CFFA6068314600F0A3FE88F80070414657
S1132570206802F0DFFD2268536F43F003035367C2
S1132580936FA17C23F4E06323F007030B43617C86
S113259043EA012303219367516785F8487098F84B
S11325A01930202B2CD007D803B3102B09D02327A4
S11325B0384606B0BDE8F081302BF8D185F84810D4
S11325C002E085F848603E4600230222617B207BBE
S11325D002F096FA2368E27CDA675A6E42F004024B
S11325E05A665A6F42F010025A6766B9AA6B20689D
S11325F0D36C43F00403D364052102F015FDD7E73F
S1132600022385F84830E17BA07B0023042202F0FA
S113261077FA2368217DDA6F42EA0122DA675A6F7A
S113262042F020025A67E1E7CFA60000C3A60000EB
S113263047A700004041050000450A007FB5094B4B
S11326406A4603F11006154618685968144603C40F
S11326500833B3422246F7D1284602F035F9002068
S113266004B070BDFABE00001FB5124A106851686C
S113267001AB03C3906818600F4BD3F8B420120366
S11326800FD4D3F8B830C3F308030C48ADF80630C0
S113269003F0FCFE01A801F0D9FD002005B05DF8AF
S11326A004FB074B1B884FF6FF72934208BF842339
S11326B0EBE700BF0ABF00000081E00F80F0FA02E0
S11326C00001E00F07B5084B18680190462301A8E4
S11326D08DF8043001F008FE642001F0C3FC0020F2
S11326E003B05DF804FB00BF16BF000010B50C4832
S11326F00C4C6FF00402A02112F0800FD3B21BBF68
S113270003F00F03043BA3181B1802F101020CBFD2
S113271083F8001319763C2AEED1002010BD00BFC7
S113272000ED00E000E100E010B54FF42F72044624
S1132730002108F03CFD8023C4F88C30054BC4F81C
S11327408430012384F8883004F19C00BDE81040F3
S113275008F078BCBDC0000010B5D0F8A0400A460F
S113276074B908F0F5F9044640B12D2896BF074B1B
S1132770074953F82010074808F03AFB204610BDDB
S1132780D0F8A4101046A0470024F7E778BF000053
S11327901ABF00009DDF000090F8803070B5044639
S11327A00BB1002070BD08F01EF80028F9D10123F8
S11327B084F8803094F8883033B184F88800D4F8F1
S11327C08410164808F014FB4FF0FF36D4F8B452C6
S11327D06A1C1CD0C4F8B462204608F001F8E9B2BF
S11327E0204600F0A5FB0028F0D0204607F0FDFFAE
S11327F094F8880038B1D4F88410084808F0F8FA3E
S1132800002084F88800002384F88030CAE708F0A8
S1132810D4FA431C0546DFD10120F4E7B6C000001A
S1132820F8B50B78302B05460E46174604D14B7885
S113283003F0DF03582B12D02A49721E12F8014FFD
S1132840002C39D10A222146304606F025F8202DE5
S113285003460A4635D1631A5842584118E04A1CC7
S1132860204912F8013FA3B9304608F0C6FD1E4BBB
S11328702B40032BA0F1020015D16B1C48BF2B1D6C
S11328809B1083420BD1B07837288CBF00200120E5
S1132890F8BD5B5C13F04403E3D11846F8E7CCBF02
S11328A001200020F4E7002DB8BF0335B0EBA50FDD
S11328B0D4BF01200020EBE7635C13F00403BDD117
S11328C0EBE727B1084302D0013B61F1000201208C
S11328D000FA05F5013D1D40002A08BF9D4218BFBE
S11328E00020D5E791DA00000300008070B503787A
S11328F07B2B16D10C4E05460221002215F8014F00
S11329007D2C05D1435C63B9D04300F0010070BD58
S1132910A35D13F0440302D001320131EEE7202C11
S1132920FBD00020F3E700BF91DA000070B5064643
S11329300D4608F062FD0446304608F059FA044E8C
S1132940AC4200D370BD304608F052FA0134F7E7C8
S1132950B9C700002DE9F84F044602215048FFF79B
S1132960E5FF1E212068FFF7E1FF6368586808F05F
S11329703FFA4C4808F03CFA67683B7BFD2B12D8C1
S1132980D7F80880DFF81891DFF878A1DFF850B1A4
S1132990404608F032FD0C3705464FF0FF3617F875
S11329A0013BFF2B01D1BDE8F88F212B17D8212B38
S11329B033D8DFE803F06D736F11181A1C1E32321E
S11329C032323232323220222426282A2C2E32323B
S11329D03232323232326930334C1DB31FE0FE2BB7
S11329E05AD0324CF9E7324CF7E7324CF5E7324C27
S11329F0F3E7324CF1E7324CEFE7324CEDE7324C7F
S1132A00EBE7324CE9E7324CE7E7324CE5E7324C8E
S1132A10E3E7324CE1E7324CDFE7244C05B1013601
S1132A20202BBCD002214846FFF780FF1E214846D8
S1132A30FFF77CFF504608F0DBF95946204608F0C2
S1132A40CAFC2849002818BF2146274808F0D0F9B5
S1132A503B78202B02D12B2008F0BEF9234808F044
S1132A60C7F94DB118F806301F2B05D018F8060029
S1132A701F2801D0AE4203DB0A4808F0B9F98EE7FB
S1132A8008F0AAF90136F1E7002D88D0184CC6E702
S1132A90184CA2E7184CA0E7184C9EE7184C9CE78A
S1132AA0BDC0000069C7000046C0000030C000007F
S1132AB09BC000004CC000008DC0000089C0000015
S1132AC080C0000076C000006CC0000081C000001F
S1132AD077C000006DC0000062C000005BC0000051
S1132AE052C0000043C00000B6C00000A3C00000F4
S1132AF038C0000045C000004BC0000094C0000076
S1132B009AC00000A1C000002DE9F04F95B0054621
S1132B1088469146049308F070FC1E9F049B07901E
S1132B2000261E600CAA3E600BA9284608F081F915
S1132B300446002840F0C2800C9808F05EFC049B18
S1132B4001941860D5F89C3003932646039B1BB967
S1132B50204615B0BDE8F08F039B9B680293002BC1
S1132B6077D02E4416F8013B202B13D000260C23DB
S1132B70029A734302EB030BD158002964D00B9BD8
S1132B80019A069393425FDB9BF8083033B106F158
S1132B90010A3FE03B6801333B60E3E73B68D5F85B
S1132BA094200591D21A049B1A60019B14A800EB8F
S1132BB0830353F8203C0993184608F026FC824608
S1132BC00028E4D105990891084608F016FCDBF8C2
S1132BD00430059393F80CC0D7F800B0BCF1FE0F95
S1132BE0DDE9081302461AD1069800F1FF3E019868
S1132BF0864514D0059A18461268029208F0FDFB27
S1132C000BF1010B584438603B68EA5C22B1019B2C
S1132C10013301935646AAE701333B60F4E7D5F844
S1132C2094300991A3EB0B039342089221DC4046B4
S1132C3008F0E3FB089A099910447B280DD9204A2F
S1132C404946404608F021FA079BEA182B4693426E
S1132C502DD1039B1B68039378E70A4640464946F7
S1132C6008F013FA174A49464046013408F00DFAB1
S1132C708DE7BCF1FE0F8AD1069B019A013B93427A
S1132C8085D1059BD3F800A05AF80C2B22B9079BD9
S1132C903B60049B1A60D7E74946404608F0F5F9C3
S1132CA0084A4946404608F0F0F90134ECE719783F
S1132CB011B94FF0200119700133C8E7344647E7D2
S1132CC0A6C00000B9C700002DE9F04786B0DDE9D1
S1132CD00EA800241C60064689468AF80040116844
S1132CE0154888F8004017461D468DF8174003F034
S1132CF025FB18B92B6801332B600124D6F89C609E
S1132D00002036B914B1012388F8003006B0BDE8BC
S1132D10F087B06868B14B46CDE902A8CDE90075EB
S1132D200DF11702002107F0B0FE9DF81730002BBB
S1132D30E8D13668E5E700BFABC000002DE9F047F5
S1132D400026ADF5447D04467C22314605A80DF1EC
S1132D500808049608F02BFACDF8008003AB802213
S1132D6004A92046FFF7D0FE01283ED104A808F0AC
S1132D7044FB0399D8F80030471A0B44234427EA4C
S1132D80E777054604A801443A46184608F0E7F9EF
S1132D90C655D4F89060039BD8F80010D4F890205E
S1132DA01944B14212DCD4F89410E81A0244C4F86D
S1132DB09020014404AAC4F89410D41825182B1B9D
S1132DC0002B0DDC0DF5447DBDE8F087A05C08F018
S1132DD003F8D4F890300133C4F890300136DAE7C0
S1132DE014F8010B07F0F8FFE9E7EBDD24AD8022CE
S1132DF03146284608F0DBF944AB4FF4007218461C
S1132E00314608F0D4F90DF1100A034652464FF04A
S1132E10010912F8017B002F48D143F8296004A866
S1132E2008F0EBFA29463B461AF8016B44AF57F811
S1132E30042B824243D10133994501F8016BF3DA43
S1132E40D4F89060039BB34242DC374A37482346A8
S1132E5004A907F0CDFF284608F0CFFA039ED8F85E
S1132E60007035443744861B26EAE672E31917449A
S1132E70E01904F1900188424FD904F198018B4282
S1132E804BD26A1E184699190B1A002B39DD12F819
S1132E90013F00F8013BD4F890300133C4F890307E
S1132EA0D4F894300133C4F89430EDE7202F06F1C0
S1132EB0010604BF43F8296009F10109A9E70DF1EE
S1132EC0100C6244D25CB242B1D00022EA54B7E79B
S1132ED0D4F89030E05C07F07FFFD4F890300133F1
S1132EE0C4F890300136ADE7D4F890200132C4F82C
S1132EF09020D4F894200132C4F89420013B002B94
S1132F00F2DC0023E3552E44731B002B7FF75AAFEA
S1132F1015F8010B07F060FFF6E71846294608F09C
S1132F201EF93346EBE700BFBDC00000B0C000008F
S1132F302DE9F843D0E9245604460F46002294F8BC
S1132F409830012B06D10A2F06D1002084F898006E
S1132F50BDE8F88300F2A0801B2F03D1022384F87C
S1132F6098303BE0A7F10D0253425341082F84F8F7
S1132F70983035D1002D30DDB5420FD1384607F0F9
S1132F802BFF202007F028FF013D384607F024FFDF
S1132F9000236355013EC4E924561FE0FBDA05F122
S1132FA0FF38384607F018FF04EB0803A6EB0802C5
S1132FB06119184608F0E1F80022A25501464E486E
S1132FC007F016FF013E3546454501DC4546E2E77C
S1132FD0082007F001FF013DF6E7DCD10020B7E748
S1132FE07F2F1CD1002EF9DDB542F7DA6319691C75
S1132FF0721B2144184608F0C0F800220146A2556D
S11330003E4807F0F5FE0820013E07F0E5FEB54214
S1133010F9D1D4F89430013BC4F89430DEE70D2F95
S113302001D00A2F0AD10D2007F0D6FE0A2007F09E
S1133030D3FE0023C4E92433012089E7092F03D1F7
S11330402046FFF77BFEC9E7D4F88C30013BB3423E
S1133050C4DDB54204EB050805F101090CDB88F871
S11330600070D4F89430C4F890900133C4F89430CC
S1133070384607F0B1FEB1E7721B414604EB090084
S113308008F07BF8404607F0B3FE0820013E07F045
S1133090A3FEB542F9DDE2E7022B06D15B2F01D195
S11330A003235CE784F8982049E7032B96D1413F3A
S11330B084F89820032F91D8DFE807F002070A1557
S11330C00121204607F030FE88E74FF0FF31F8E792
S11330D0B54283DA605D07F07FFED4F890300133A7
S11330E0C4F890307AE7002D7FF778AF013DC4F83B
S11330F090500820BDE700BFB9C000007ADA000094
S11331000C4B984210D90C4B984210D9022201233F
S11331100A490B640A49D1F8003123F0407343EAA9
S11331200263C1F80031704700221346F0E7012220
S1133130FBE700BF0048E8010090D0030000C8434B
S113314000400E4038B54FF0804300225B68104BBE
S1133150C9B21C461D798D4202D11D68854213D225
S11331600132072A03F10803F4D10A4841F2147129
S113317007F067FF03224FF080414B6823F0407350
S113318043EA02634B6038BD04EBC2025279F2E7B2
S1133190ECC10000BEC000001F2810B5044604D9CD
S11331A003484FF4B67107F04CFF0120A04010BD56
S11331B00CC10000044BDB6B5B0604D4034AD2F859
S11331C0C830002BFBD1704700300E400000C643CE
S11331D008B5FFF7EFFF024B5868C0F3014008BD84
S11331E000300E40044BD3F84421D20703D4D3F863
S11331F040211042FBD1704700400E40B0F5004F13
S113320038B5054604D30C484FF4636107F019FF41
S11332106C1C14BFB4FA84F42024C4F11F042046A7
S1133220FFF7BAFF0138A84204D0034840F63761DB
S113323007F007FF204638BD5EC100004FF0804311
S113324041F6713270B51E6C1A6405460C46FFF7E0
S113325079FF134A134B022C08BF13469D42124AAE
S1133260B6B209D94FF08C43C3F800210F4A9542F6
S113327007D84FF0884306E04FF08843C3F8002195
S1133280F7E7002CF5D14FF480521A6041F6713300
S11332909E421EBF4FF0804300221A6470BD00BFDF
S11332A00024F40080D543020202020080F0FA02F6
S11332B0C0F30322013A38B503460E2A3DD8DFE8AD
S11332C002F043463C36081B1E212539292E3C18A2
S11332D03300204C0020C3F3043508B1FFF782FF0C
S11332E004F1424404F5801405EBC404A4002160F5
S11332F038BD194C0020EEE7184C0120EBE7184CC0
S11333001020E8E7174C4FF48070E4E7164C4FF4B4
S11333108030E0E7154C81F001010020DBE7144C1C
S113332081F001010020D6E7124C0020D3E7124CB3
S11333300020D0E7114C0020CDE7BDE8384010480C
S113334041F6B04107F07DBE0E4C0020C3E70E4CA1
S11333500020C0E7B0400E40C4400E40E0400E40A4
S1133360E8400E40EC400E40F0400E4060410E40FC
S113337064410E40F0410E4068410E4050410E4001
S1133380BEC0000000400E40C0400E4008B5C0F36F
S11333900313013B0B2B00F2AB80DFE803F0060CB8
S11333A0101A2024282C668692A5534BD3F80001CA
S11333B0C0F3042008BD504BD3F81401F8E74E4B7A
S11333C0D3F80001C0F301600130FFF7E5FE0138D6
S11333D0F0E7494BD3F80C01C0F30820EAE7464B69
S11333E0D3F81801F8E7444BD3F81C01F4E7424B37
S11333F0D3F80801F0E7414B98422AD00ED8A3F540
S1133400BA2398422BD003F57033984215D041F675
S113341054613B4807F015FE0020CBE7394B984236
S113342005D0394B98420ED0384B9842EFD1324BED
S1133430D3F82001C0F30230C7E72F4BD3F82001A3
S113344000F00F00C1E72C4BD3F82001C0F301209A
S1133450BBE7294BD3F82001C0F30310B5E7264B93
S1133460D3F82001C0F30340AFE7294B98420CD0B6
S113347003F5A11398420ED0264B984212D11E4B4D
S1133480D3F8280100F003009FE71B4BD3F8280171
S1133490C0F3011099E7184BD3F82801C0F30130A9
S11334A0043092E741F67861B3E71B4B984205D1AB
S11334B0114BD3F8300100F003007BE741F687613C
S11334C0A7E7164B984205D0154B984206D041F613
S11334D09F619EE7084BD3F85C01ECE7064BD3F8F9
S11334E05C01C0F3014065E7034BD3F8040173E7C3
S11334F041F6AC618DE700BF00400E408016180015
S1133500BEC0000000362C0080262E0080002A0059
S113351090171C0090071A00A0091400B80032008C
S1133520B9003400C0F30313013B10B50C460B2B58
S113353000F21882DFE813F00C003400450060004C
S1133540740088009C00BC006101CE01DA01020213
S11335501F2904D9C44841F6D56107F072FD07F06C
S1133560DEFCC248FFF7CCFD00F00AFAC04BD3F8EA
S1133570001121F4F85141EA0424C3F8004102F097
S11335806DFF0446FFF724FE01462046FFF756FE72
S113359002F02AFFFFF7B4FDBDE8104000F006BAC0
S11335A01F2904D9B04841F6EB6107F04AFDB04B3E
S11335B0D3F8141121F4F85141EA0424C3F8144156
S11335C010BD4B1EB3F5004F0DD2B4FA84F1A84BD5
S11335D0D3F80041C1F11F0124F0407444EA0164AE
S11335E0C3F80041ECE7A3484FF4546107F029FD08
S11335F0002CEAD12021EAE7B1F5007F04D39A48F0
S113360041F6F86107F01DFD994BD3F80C1121F434
S1133610FF3121F4807141EA0421C3F80C11CFE792
S1133620B1F5007F04D3904841F6FF6107F009FD2E
S11336308F4BD3F8181121F4FF3121F4807141EA42
S11336400421C3F81811BBE7B1F5007F04D3864801
S113365041F6077107F0F5FC854BD3F81C1121F4F2
S1133660FF3121F4807141EA0421C3F81C11A7E75A
S1133670B1F5007F04D37C4841F60E7107F0E1FCFC
S113368007F04DFC7A4BD3F8081121F4FF3121F4F3
S1133690807141EA0421C3F8081102F0DFFE0446F8
S11336A0FFF796FD01462046BDE81040FFF7C6BD72
S11336B0714B984274D010D8704B984246D0704BDE
S11336C0984257D0A3F57033984226D041F68A71B8
S11336D0BDE81040644807F0B4BC6A4B984205D07A
S11336E0694B984273D0694B9842EFD1B4F5004FBF
S11336F004D95D4841F67C7107F0A3FC2046FFF72E
S11337007DFD01460420FFF76DFD594AD2F82031B2
S113371023F4E04343EA013315E0B1F5004F04D943
S113372051484FF4F95107F08CFC2046FFF766FD31
S113373001460420FFF756FD4D4AD2F8203123F408
S1133740702343EA0143C2F8203139E7022904D93E
S113375041F63171444807F074FC4FF48020FFF7C0
S113376041FD434BD3F8301121F003010C43C3F85E
S1133770304125E7B1F5004F04D93B4841F64E717D
S113378007F05FFC2046FFF739FD01460420FFF7F0
S113379029FD374AD2F8203123F00F030B43D2E737
S11337A0B1F5004F04D9304841F65D7107F049FC8A
S11337B02046FFF723FD01460420FFF713FD2C4AA2
S11337C0D2F8203123F0F00343EA0113BBE70829C0
S11337D004D9254841F66C7107F033FC2046FFF705
S11337E00DFD01460420FFF7FDFC214AD2F82031EB
S11337F023F4407343EA0123A5E7254B98421DD0E7
S113380003F5A113984247D0224B98425FD108296F
S113381004D9154841F6937107F013FC2046FFF7CD
S1133820EDFC01464020FFF7DDFC114AD2F82831B7
S113383023F003030B43C2F82831C1E6082904D955
S1133840094841F6A27107F0FCFB2046FFF7D6FCBD
S113385001464020FFF7C6FC054AD2F8283123F080
S1133860300343EA0113E6E7BEC000000148E80163
S113387000400E405EC1000080161800A00914002C
S11338808006160000362C0080262E0080002A00B8
S113389090171C0090071A00A1F10F03702B04D994
S11338A0324841F6B17107F0CCFB2046FFF7A6FC85
S11338B001464020FFF796FC2D4AD2F8280104392E
S11338C020F4405040EA0130C2F8280178E64FF471
S11338D0FE51FDE6274B984205D102297FF63DAF04
S11338E041F6CA7136E741F6DA71F1E6224B9842A5
S11338F005D0224B984212D041F6F371E8E6032931
S113390004D91A4841F6E57107F09BFB184BD3F82C
S11339105C1121F003010C43C3F85C4150E6032918
S113392004D9124841F6ED7107F08BFB104BD3F824
S11339305C1121F4403141EA0444EDE7B1F5007F24
S113394004D30A4841F6FB7107F07BFB084BD3F81C
S1133950041121F4FF3121F4807141EA0421C3F8F8
S113396004112DE642F20201B2E600BFBEC000001F
S113397000400E40A0091400B8003200B900340021
S113398008B507480321FFF7CDFD06480321FFF7DB
S1133990C9FDBDE8084004480321FFF7C3BD00BFCB
S11339A040410500504107006041090037B502F06D
S11339B01BFD0446FFF70CFC022817D1194B1A48CB
S11339C01A491C449C42B4FBF1F188BF01F1FF3158
S11339D00191FFF7A7FD01991548FFF7A3FD019990
S11339E0144803B0BDE83040FFF79CBD124B134DA3
S11339F00D48E2189A42B2FBF5F588BF05F1FF3590
S1133A002946FFF78FFD0B482946FFF78BFD0C4B2A
S1133A100C4907481C449C42B4FBF1F188BF01F1F6
S1133A20FF31DEE7FF2C310140410500002D31015B
S1133A3050410700604109007FF0FA0280F0FA0269
S1133A40FFA14A0400A24A0400F00F00013808B59F
S1133A500C2800F28480DFE800F007121C30263ABC
S1133A60824452606C707900454BD3F8943003F073
S1133A700703023B052B7FD8424AD05C08BD404B6C
S1133A80D3F8803003F00703013B032B76D83E4A7A
S1133A90F3E73B4BD3F8843003F00703013B032BDC
S1133AA06CD83A4AE9E7364BD3F8883003F0070379
S1133AB0013B032B62D8364ADFE7314BD3F88C3015
S1133AC003F00703013B032B58D8324AD5E72C4BAC
S1133AD01B6F13F0030349D0012B14BF01200920ED
S1133AE0CCE7274BD3F85C3103F03003202B3FD0D5
S1133AF0302B3FD0102B14BF01200720BEE7204BF2
S1133B00D3F85C3103F44013B3F5001F30D0B3F5A0
S1133B10401F2FD0B3F5801FEDE7194BD3F8600198
S1133B2000F00300431E022B26D800EB40000130B6
S1133B30A4E7134BD3F86401F2E7114BD3F8F03147
S1133B4003F00703052B19D8134A96E70C4BD3F857
S1133B50683103F00303032B10D0104A8DE710489B
S1133B6042F2012107F06DFA002087E7072085E77C
S1133B70042083E7082081E705207FE701207DE713
S1133B8000400E40AFC10000B5C10000B9C1000043
S1133B90B5C10000B5C10000BDC10000C3C1000033
S1133BA0BEC0000038B5314B984205460BD01ED834
S1133BB02F4B984207D02F4B9D4204D02E4841F6FC
S1133BC0130107F03EFA2846FFF73EFF274B9D42BC
S1133BD0044625D00DD8264B9D4211D0254B9D423D
S1133BE01AD0254841F6420107F02BFA0DE0234B89
S1133BF0E2E7224B9D42F4D1214BD3F8884002E006
S1133C001F4BD3F8804004F00704042C27D8DFE8C6
S1133C1004F0240B0F171300194BD3F88440F2E778
S1133C20174BD3F88C40EEE7BDE8384007F041BAB3
S1133C30BDE8384002F048BCBDE8384007F03CBA63
S1133C4002F0D2FB0E4B0446D3F80001C0F301602E
S1133C500130FFF7A1FAB4FBF0F4204638BD064862
S1133C6041F6940107F0EDF90024F6E70400220080
S1133C7002001E0003002000BEC000000500240056
S1133C8000400E40012808B514BF12481248FFF73F
S1133C90DBFE0138072816D8DFE800F01A151507EF
S1133CA01515040B0D4B186808BDBDE8084002F05B
S1133CB0E7BB02F099FB0A4BD3F80031C3F30423AA
S1133CC003FB0000F0E7074841F20D6107F0B9F982
S1133CD00020E9E7B8003200B900340000100020E9
S1133CE000400E40BEC0000038B500F47813B3F5B0
S1133CF0E01F054600F000814CD8B3F5602F00F0BA
S1133D00148123D8B3F5C02F00F0A6800DD8B3F5E5
S1133D10003F00F0AD80B3F5802F00F09280002BBF
S1133D2000F00B814FF4EF510DE1B3F5202F00F0BB
S1133D309980B3F5402F00F0A180B3F5002FF1D1A5
S1133D4002F052FBB74BD3F81C317FE0B3F5B01F40
S1133D5000F0AF800DD8B3F5901F00F09780B3F555
S1133D60A01F00F09D80B3F5801FDBD1AE4B186817
S1133D7071E0B3F5C01F00F0AA80B3F5D01FD1D114
S1133D80AA48FFF70FFFA74B0446D3F8280100F019
S1133D90030097E0B3F5481F00F0DA8029D8B3F5A3
S1133DA0201F00F0BE800FD8B3F5001F00F0A280E2
S1133DB0B3F5101F00F0B780B3F5F01FB2D19C48E3
S1133DC0BDE83840FFF7EEBEB3F5381F00F0898038
S1133DD0B3F5401F00F09A80B3F5281FA2D1944890
S1133DE0FFF7E0FE8F4B0446D3F82001C0F3023006
S1133DF068E0B3F5681F00F0E88013D8B3F5581FE6
S1133E0000F0AF80B3F5601F00F0C580B3F5501F1C
S1133E1088D10120FFF736FF824BD3F85C31C3F31E
S1133E20014315E0B3F5701F00F0EB80B3F5781F84
S1133E307FF478AF02F0D8FA0446284607F081F8F8
S1133E4042E002F0D1FA774BD3F80C31C3F30823E4
S1133E500133B0FBF3F038BD02F0C6FA714BD3F86E
S1133E601831F3E702F0C0FA6E4BD3F80431EDE7F2
S1133E7002F0BAFA6B4BD3F80831E7E702F0B4FA70
S1133E80684BD3F81431C3F30423E1E76848FFF720
S1133E9089FE644BD3F82031C3F30343D840DAE7F7
S1133EA06448FFF77FFE5F4BD3F8303103F0030320
S1133EB0F4E75F48FFF776FE5A4B0446D3F8200137
S1133EC000F00F00FFF768F9B4FBF0F0C3E75848BF
S1133ED0FFF768FE534B0446D3F82001C0F30310E8
S1133EE0F0E75348FFF75EFE4E4BD3F82031C3F39F
S1133EF00123D3E74D4863E74C48FFF753FE494B92
S1133F000446D3F82801C0F30110DBE74748FFF764
S1133F1049FE444B0446D3F82801C0F30130043071
S1133F20D0E745484CE743484AE74448FFF78CFD4F
S1133F3007283FF41BAF092803D1BDE8384002F03D
S1133F4053BA41F2D6513E4807F07BF8002082E78D
S1133F500020FFF797FE334BD3F85C3103F00303E3
S1133F6076E73848FFF770FD0438062810D801A317
S1133F7053F820F0154000001D400000913F000060
S1133F806D3D0000913F0000913F00002140000082
S1133F9041F23761D7E72C48FFF756FD043806286D
S1133FA010D801A353F820F0154000001D40000074
S1133FB0C53F00006D3D0000C53F0000C53F000047
S1133FC02140000041F26961BDE72048FFF73CFD54
S1133FD00238092812D8DFE800F0090D1D2111115B
S1133FE01111230502F04CFA400034E7BDE83840D3
S1133FF002F06ABABDE8384007F05BB84FF4B65136
S1134000A1E71348FFF720FD052807D00A2807D0A9
S1134010042823D1BDE8384002F032BA0D4BA6E69D
S11340200D4BA4E600400E400010002003002000C9
S113403002001E00050024000400220006000E00F9
S1134040BEC000000A7B36000B7C38000C7F3A00AF
S11340500D743C00141000200410002041F28F6104
S113406071E700BF014B1880704700BF381400206F
S1134070022838B50C4604D00D4842F6D63106F075
S1134080E0FF0C4D6B6AC3F30113012B0DD064B137
S1134090074842F6F13106F0D4FF074BD5F89020DB
S11340A033EA0202FAD1012038BD4FF48003F5E768
S11340B0BEC0000000400E40FF3F4F3A05282DE9E6
S11340C0F04704460F4691461FD83E4B3E4A13F82C
S11340D000A03E4B13F80080F1B93D4B33F810308B
S11340E01366012303FA08F8D2F8903013EA080F94
S11340F0FAD1B9F1000F61D00125334A05FA0AF566
S1134100D2F890302B42FBD158E0BDE8F04731485B
S113411042F6BB2106F095BF2F4B022833F81060FE
S11341204ED1536AC3F30113012B49D12B4BDB6BE3
S11341305B0504D4274842F6CA2106F082FF224ACE
S1134140536A03F00303032B05D1536A23F03003AE
S113415043F020035362224D1B4BA8441E664FEAD2
S11341608808D8F80030002BFBD0B9F1000F25D017
S11341705544AD002B68002BFCD0022C1ED1EFB1AE
S1134180114B5B6A03F00303032B03D00021204689
S1134190FFF76EFF0F4842F6473106F052FF012247
S11341A000210220FFF78AFF0A4842F6BE3106F0DA
S11341B048FF054B1E662B68002BFCD0BDE8F0873A
S11341C00027C8E7C6C1000000400E40CCC1000073
S11341D0DEC10000BEC00000D2C1000000300E40AD
S11341E08004F21038B502F04BF90021044600F0C7
S11341F0B7F91448FEF784FF012211460220FFF7A5
S11342005DFF06F08CFEFFF7BBFB0CB1FEF7D2FF9F
S11342100D4B02225A6702F0E7F8FEF771FF02F035
S11342201DF90546FEF7D4FF01462846FFF706F8B8
S11342301CB90121204600F093F9BDE83840FFF78E
S1134240B5BB00BF0148E80100400E4038B5044644
S11342501120FFF7F9FB042804D11F4842F64A1144
S113426006F0EFFE012200210220FFF727FFE37A88
S1134270022B2AD8194AD25C194D6B6A23F0030326
S113428013436B6202F0FCF8164B2288984294BFE9
S1134290082000206B6A23F008031843A38868628F
S11342A043EAC223EB622B6BE2881B0D1B0513430D
S11342B0628843EAC2232B63637A227A1B0143EAAE
S11342C00233A27A13436B6338BD034842F65E118E
S11342D006F0B7FE0022CFE7BEC00000ACC100006C
S11342E000400E4040787D0170B505461120FFF76F
S11342F0ABFB022804D10F4842F6082106F0A1FEC8
S11343000D4E0E4BB26B2C7813401C436B7844EA71
S1134310C324AB7844EA0364EB7844EA0324B36B24
S1134320A34205D0002101220846FFF7C7FEB4636B
S113433070BD00BFBEC0000000400E4080E4FFF826
S1134340034BD86B80F04000C0F38010704700BF6F
S113435000300E4038B542EA0323B3F5007F05462A
S11343600C463ED019D8B3F5807F36D00AD883B333
S1134370012B21D01F4840F6312106F062FE0022B5
S113438013461FE040F201129342F3D11A4BD3F8C3
S113439024321A0EC3F3074314E0B3F5407F24D04C
S11343A040F20132934210D040F201229342E1D113
S11343B0114BD3F8283202E00F4BD3F82432C3F365
S11343C00722DBB22B60226038BD0B4BD3F82832B6
S11343D0DFE7094BD3F81C32F1E7074BD3F81C3263
S11343E0D7E7054BD3F82032E9E7034BD3F8203263
S11343F0CFE700BF24C200000081E00F08B5FFF73B
S11344009FFF20B1024AD2F8C830002BFBD108BD6F
S11344100000C6431A4B022810B5D3F830320C46BC
S113442012D0032813D0012814BFDBB2C3F307232F
S11344301B0323F47042ECB95AB14FF41C611148C8
S113444006F0FFFD002010BDC3F30743F0E71B0E89
S1134450EEE70D49CA6E22F470421343CB66012085
S1134460F1E70949D1F8EC2022F470421343C1F872
S1134470EC30F4E7002AF4D040F6CC11DFE700BFBB
S11344800081E00F24C2000000300E400378134A7C
S1134490002B437870B514BF04260026002B8378C4
S11344A0946914BF02250025002B037924F03F04EE
S11344B043EA0403C47814BF08210021012C08BF77
S11344C043F0010333432B430B4393611368417956
S11344D023F4403343EA0143136070BD00300E40BF
S11344E0F8B504460F46FFF72BFF78B3FFF786FFB6
S11344F0174B5B68C3F301439C4227D0154BD3F899
S1134500006101F071FF022C05460FD1124BC6F376
S1134510042606FB00069E4204D9104840F2577157
S113452006F08FFD02212846FEF788FEC4F1020240
S113453010239340064A13610FB1FFF75FFF2CB9B4
S113454021462846BDE8F840FEF778BEF8BD00BF16
S113455000300E4000400E40002D310124C2000006
S113456013B50246FFF7ECFEC8B152B90D4B0191E9
S1134570D3F8004101F038FFC4F30422019902FB8F
S11345800002094B1B7843B1084B9A4205D802201C
S113459002B0BDE81040FFF7A3BF0020F8E702B067
S11345A010BD00BF00400E40A71A0020002D3101AD
S11345B0174B4AF6E85210B5596B5A639A6FD407F1
S11345C0FCD41B6C13F003031EBF124A0124C2F86F
S11345D0B44A834216D00E4B9A6FD207FCD41A6C9D
S11345E022F0030202431A649A6F12F00102FBD113
S11345F00038084C18BF01200129C4F8B40A08BFC8
S11346005A6303E010B9034BC3F8B40A10BD00BFEA
S113461000300E400000C6432DE9F04FA0F5E163E1
S113462089B00024B3F5966FCDE90244CDE9044482
S1134630CDE9064406468A46934605D940F6BA3182
S1134640554806F0FEFCA3E0B0F5E16F534B8CBF78
S11346500122002249D1D3F81832C3F30721DBB277
S1134660079104934FF416754FF4966748E0BBF135
S1134670000F0ED0D9F85C2022F4FE4222F0020290
S1134680B6F5E16F42EA012218BF02200243C9F8DD
S11346905C20BAF1000F26D020460021FFF7BAFEB5
S11346A0044610B940F61741CAE701214046FFF716
S11346B0B1FE044610B940F61F41C1E7384A536EB3
S11346C0BD4238BF3D4623F4FF73E72D23F00103B9
S11346D028BFE725B6F5E16F18BF43F0010343EAAD
S11346E04503536654E0012452E0D3F81832190EFE
S11346F0C3F30743079104934FF496654FF4E167BE
S1134700DFF89C90D9F84C400192C4F3017423461D
S113471005A902A8FFF71EFED9F8EC30019AC3F3ED
S11347200128434606A903A8FFF714FE049BF01BC7
S1134730079FF91A4143B1FBF5F299182CBF0123E5
S113474000238F421ED3EBB9069A039FD31B434326
S1134750B3FBF5F3FF182CBF01230023BA4211D396
S113476083B9059B029AA3EB020C00FB0CF0B0FB8F
S1134770F5F555192CBF01200020AB4202D30028C7
S11347803FF475AF044840F6084106F05AFC002493
S1134790204609B0BDE8F08F24C200000081E00F7C
S11347A000300E40334A08B5136FD16C11F0010F7D
S11347B003F0060344D0002B42D0132857D91438F1
S11347C013288CBF102308232A49013BCA6C180301
S11347D022F47F4240EA03231343CB64264BCA6C82
S11347E01B88C2F303222833013202EB820003EB5D
S11347F05303B3FBF0F3C86C013B072B28BF07231B
S113480020F0EE6040EA036343F48013CB641B4B57
S1134810B3F90030002B12DB03F12800C0F34E0380
S11348200344500800EB4202B3FBF2F20B6D072A7B
S113483028BF072223F0700343EA02120A6508BD69
S1134840D16C01F00101194304D109280FD90A38A8
S11348500928B6E7D26CD20702D50BB92728B0E7EE
S1134860074840F65D4106F0ECFB0023ACE7042367
S1134870AAE700BF00300E40A01A0020A21A0020B0
S113488024C200000C4BD3F8803910B5044633B968
S1134890012804D9094840F67B4106F0D2FB084AB6
S11348A0136F23F0070323431367064BBDE810403F
S11348B01888FFF777BF00BF0000C64324C200007A
S11348C000300E409E1A002038B50389C82B0446D8
S11348D004D9514840F65F2106F0B3FBA28823892E
S11348E09A4204D94C484FF4266106F0AAFBB4F965
S11348F00C30C82B04DD484840F6612106F0A1FBCA
S11349006378012B55D1A388C82B04D940F66521BF
S1134910414806F096FBE28842F210739A4204D9A9
S11349203D4840F6722106F08CFBE3884A2B48D9B7
S1134930B3F5FA7F47D340F6C312934294BF4FF0C6
S113494000524FF040523549B4F90C00CB6C23F0BF
S1134950405323F001030028A8BF43F0010313438D
S1134960CB64D1F8EC30A28843F44073C1F8EC3046
S11349702B4B1A80CB6E43F08073CB66294BD3F854
S1134980800900B10420FFF77DFF274B218919809E
S1134990264BB4F90C20A0881A80FFF703FFA37BF1
S11349A0A3B1012B23D01C4840F6711106F049FB3A
S11349B00FE0022BAFD1A3880A2BACD940F66A21B1
S11349C0A6E70022BFE74FF08052BCE7134B184A1A
S11349D09A65012260881146FFF71EFE054648B914
S11349E00D4840F6A92106F02CFB284638BD0B4B98
S11349F0104AEDE7094AD36B43F48063D3636078CC
S1134A00FFF7D6FDA37AA3F1200253425341054A8E
S1134A10C2F89437E9E700BF24C2000000300E401A
S1134A209E1A00200000C643A01A0020A21A0020EB
S1134A3077402057372110B7042838B504460D466F
S1134A4018D9052804D147F6FF73EB40DB0704D4DB
S1134A500A4840F22D4106F0F4FA30230C2013FBEF
S1134A60040000F18C40012100F5082001FA05F54D
S1134A70056038BD4FF6FF73E7E700BF72C2000060
S1134A80042838B504460D4618D9052804D147F63C
S1134A90FF73EB40DB0704D40A4840F2FE3106F012
S1134AA0D0FA30230C2013FB040000F188400121CC
S1134AB000F5082001FA05F5056038BD4FF6FF73CF
S1134AC0E7E700BF72C20000052838B504460D466A
S1134AD002D831F0011303D008487D2106F0B1FA61
S1134AE004EB4404200100F180402A464FF00111F8
S1134AF0BDE8384000F5082006F038BAC1C200000D
S1134B000428F8B504460D4616461F4629D905283B
S1134B1004D147F6FF73EB40DB0704D41A484FF483
S1134B20B07106F08EFA26B129462046E7B1FFF7A8
S1134B3083FF04EB4403072D4FEA03134FF00F01E7
S1134B4015D8A80006FA00F281401048184406F06F
S1134B500DFAC6B9294620468FB1BDE8F840FFF7E3
S1134B606BBF4FF6FF73D6E7FFF78AFFE1E7A5F1C6
S1134B700800800006FA00F281400548E6E7BDE837
S1134B80F840FFF77DBFF8BDC1C2000004800840B3
S1134B9008800840074B0422C3F88020BFF34F8FDE
S1134BA0BFF36F8F044B0021D9664FF4CA401962DA
S1134BB0FEF77EBB00E100E0002000400B2838B582
S1134BC005460C4603DD0848772106F03AFA1F2D06
S1134BD084F0010403D90548912106F032FA044B0C
S1134BE02B449B001C6038BD10C300005FC3000051
S1134BF0A001811010B5044618B91B48912106F094
S1134C0020FA23781B0613F0704F03D01648922124
S1134C1006F017FAE378072B03D91348A32106F00B
S1134C2010FA01214FF4CA40FEF742FBB4F80130F8
S1134C3022785BBA9BB243EA02630C4A13600023F6
S1134C401362D36253634FF00043D3664FF0FF33D4
S1134C509366074A0421C2F88011E3785B01DBB252
S1134C6082F80233116010BD10C300000020004020
S1134C7000E100E02DE9F041C3B201260B2805460E
S1134C800C46904606FA03F603DD3A48EC2106F09A
S1134C90D8F91CB93748ED2106F0D3F9236823F479
S1134CA07C1323F00F031BB13248F22106F0C9F93B
S1134CB0A37A1B0413F47C0F04D02E4840F209118C
S1134CC006F0BFF9E37A1B0513F07E6F04D0294880
S1134CD040F20B1106F0B5F9237B5B0513F0FE5F80
S1134CE004D0244840F20D1106F0ABF9224F637B47
S1134CF0BE66302000FB05702268C0F88020C0F832
S1134D008830E37AA27A1B0543EA0243227B43EA12
S1134D10425328F00302C0F88430C0F8982006F00B
S1134D201CF9FB6E3343FB66237A13B17B6B33436D
S1134D307B63637A13B1FB6A3343FB620E4B1A68DD
S1134D40237923B1DB431B0263F47F431A40637965
S1134D500BB142EA0322A3790BB122EA0302E379FD
S1134D601A43054B1A60054A9662DE63BDE8F041BA
S1134D7006F0F9B810C300000020004000200044F1
S1134D8010B5C3B201240B2804FA03F404DD094866
S1134D9040F2971106F055F906F0DFF8064AD36E93
S1134DA023EA0403D366054B1C62BDE8104006F0F9
S1134DB0DAB800BF10C30000002000400020004407
S1134DC010B5C3B201240B2804FA03F404DD0B4824
S1134DD040F2B51106F035F906F0BFF8084B1A6A2F
S1134DE0224209D19B6A34EA03030CBF0124002444
S1134DF006F0B9F8204610BD0024F9E710C30000FE
S1134E0000200040022838B504460D4603D9114855
S1134E104C2106F016F96B791F2B03D90D484F214D
S1134E2006F00FF9AB786A789B0143EA82032A788B
S1134E301343EA7843EA02132A7943EAC2236A79DC
S1134E4043EA0233AA79043443EA42432401024A7E
S1134E50135138BDADC3000000200640014B18605B
S1134E60704700BF0000C442427801790378002AE9
S1134E70827870B514BF04260026002AC27814BFB5
S1134E8010250025002A42794FEA023242EA012223
S1134E9042EA0302837942EA8332C37914BF2024AD
S1134EA00024002B037A42EA034343EA0603427ACE
S1134EB043EA050314BF4FF4004100212343002AB1
S1134EC014BF4FF4003200220B431343014A136012
S1134ED070BD00BF002006402DE9F04180460C461D
S1134EE01F46164622B934484FF4A17106F0A9F8BA
S1134EF03CB9324B98450CBF31483248FEF7F4FEBA
S1134F000446402F4BD009D8A7B1202F3DD0BDE88F
S1134F10F041294840F2891106F093B8602FF6D188
S1134F20B6EB940F04D9244840F2831106F089F8B3
S1134F30042108E0B6EB141F04D91F484FF4BA71DA
S1134F4006F07FF810214E4371081F4D01EB441405
S1134F50B4FBF6F6203EB5EBC60F4FEAC60404D206
S1134F6015484FF4D07106F06CF8D8F8003023F0EF
S1134F706003C8F80030D8F800302C401F43C8F84C
S1134F800070C8F81440BDE8F081B6EBD40F04D922
S1134F90094840F2791106F054F80821D3E70625B0
S1134FA0B4FBF5F3B34204D203484FF4BF7106F0E7
S1134FB048F82946C7E700BFFCC3000000080140C9
S1134FC05041070040410500F8FF7F0070B50646D8
S1134FD00C46154622B90F4840F28E2106F031F8EE
S1134FE03CB90D4B9E420CBF0C480D48FEF77CFEAD
S1134FF004460C4B6D00013CB4FBF5F413EA0423A6
S11350004FEA042504D0034840F2B32106F019F80E
S1135010756170BDFCC300000008014050410700E9
S113502040410500070080FF38B5144B9842044600
S11350300D461CD003F58063984218D003F58063B5
S1135040984214D003F58063984210D003F580632E
S113505098420CD003F54053984208D003F580637E
S1135060984204D006484FF4337105F0EAFFEB434D
S11350705B0003F00A03E360E56038BD0000014013
S1135080FCC3000038B5264B264D984204461AD07E
S1135090A84218D003F50063984214D003F5806346
S11350A0984210D003F5806398420CD003F5405326
S11350B0984208D003F58063984204D01A4840F21D
S11350C0424105F0BEFF40F6AA63E36041F20502E7
S11350D0002323606260154AA3606361E364A264F1
S11350E023666367A367E3670D4B9C4209D0AC4218
S11350F007D003F500639C4203D003F580639C4210
S113510001D1002323650023AC42A36506D0084ADD
S1135110944203D002F58062944200D1E36538BD25
S11351200000014000040140FCC30000F9FF01003D
S1135130000C014038B52F4B984204460D461CD054
S113514003F58063984218D003F58063984214D025
S113515003F58063984210D003F5806398420CD025
S113516003F54053984208D003F58063984204D075
S1135170214840F2FD2105F064FF2046FFF782FF3D
S1135180AB7C1BB1236843F080432360EB7C1BB1F1
S11351902B7D43F08003A3652A8A6B7B1343EA8942
S11351A0134363602B7BD5E901122046FFF794FE7D
S11351B06B7D1BB1236843F480332360AB7D1BB14B
S11351C0236843F400432360EB7D2A7E1B0712050A
S11351D002F4E00203F0E04313432366636F23F019
S11351E030036367626F6B7E134363672B78E360FE
S11351F038BD00BF00000140FCC3000038B52F4B90
S1135200984204460D4614D003F58063984210D0AA
S113521003F5806398420CD003F58063984208D06C
S113522003F58063984204D0254840F2693105F0C3
S113523008FF2046FFF726FFA97B2A8A2368002956
S113524042F0010214BF4FF48061002113430B4369
S11352502A7D23602368002A14BF4FF000520022E5
S113526013432360AB7C1BB1EB7C43F08003A36549
S11352702B7B43F480536360D5E901122046FFF78A
S1135280A5FE6B7B0BB11023E3606B7D1BB1236820
S113529043F480332360AB7D1BB1236843F40043A4
S11352A02360EB7D2A7E1B07120503F0E04302F422
S11352B0E002134323662B78E36038BD000001400D
S11352C0FCC3000003685A4A934230B540F0B280F0
S11352D0037A012B76D9022B72D0032B72D0042BC4
S11352E072D0052B14BFFF2202220A70427A012ACF
S11352F06ED9022A6AD0032A6AD0042A6AD0052AFF
S113530014BFFF2402248C70847A012C64D9A51E56
S1135310012D63D9042C63D0651F18BF4FF0FF35EE
S1135320EDB20D71C07A01285CD9851E012D5BD9BF
S113533004285BD0451F18BF4FF0FF35EDB28D71C7
S1135340002B55D0012B59D0022B53D0032B53D013
S1135350042B53D0053B18BF4FF0FF33DBB24B7027
S1135360002A4DD0012A4DD0022A4DD0032A4DD017
S1135370042A4DD0052A0CBF0123FF23CB70002C37
S113538048D0012C48D0022C48D0032C48D0042CFF
S113539048D0052C0CBF0C23FF234B71002843D0AD
S11353A0012800F05382022800F01781C31E012B4C
S11353B040F24E82052808BF0D2318BFFF2334E0B6
S11353C01A4692E7042290E701228EE714469AE7F0
S11353D0042498E7012496E70425A2E70225A0E720
S11353E001259EE70425AAE70225A8E70125A6E7EB
S11353F00A23B4E70B23B2E70D23B0E70723AEE794
S11354000B23BBE70623B9E70A23B7E70C23B5E769
S11354100823B3E70C23C0E70523BEE70923BCE751
S11354200F23BAE70D23B8E70D23CB71002030BD5D
S1135430000001406C4A934240F0D880047A002C6A
S113544000F08D80631E012B40F28580032C00F058
S11354508480042C00F08380052C00F08280A31F3C
S113546018BF4FF0FF33DBB20B70457A002D7ED0AE
S11354706B1E012B77D9032D77D0042D77D0052D02
S113548077D0AB1F18BF4FF0FF33DBB28B70827A3B
S1135490002A76D0012A6ED0022A6ED0D31E012BA8
S11354A06DD9052A6DD0062A0CBF0423FF230B7186
S11354B0C37A002B67D0012B67D0022B67D0D81E8C
S11354C0012866D9052B66D0062B14BFFF200120C6
S11354D0012C887161D9022C61D0032C61D0042C79
S11354E061D0052C61D0062C0CBF0E20FF20012DAD
S11354F048705CD9022D5CD0032D5CD0042D5CD0A7
S1135500052D5CD0062D0CBF0220FF20C870002A98
S113551057D0012A57D0022A57D0032A57D0042A39
S113552057D0052A57D0062A0CBF0522FF224A71FC
S1135530002B52D0012B00F08781022B4FD0032B7C
S113554000F08681042B4CD0052B00F07F81062BC4
S113555008BF022331E7032386E7052384E70223F8
S113556082E7234680E7032390E705238EE702239F
S11355708CE700238AE7032399E7052397E70223AF
S113558095E7012393E70120A2E70320A0E7052084
S11355909EE702209CE704209AE70020A7E7072063
S11355A0A5E70620A3E70120A1E702209FE7012049
S11355B0ACE70620AAE70720A8E70220A6E7002018
S11355C0A4E70722B3E70222B1E70022AFE70F22E4
S11355D0ADE70322ABE70B22A9E7082325E7012364
S11355E023E7002321E700BF00040140924A9342CD
S11355F040F0BE80027A002A74D0012A74D0931E2F
S1135600012B73D9042A73D0052A14BFFF23052361
S11356100B70457A002D6DD0012D6DD0AB1E012B82
S11356206CD9042D6CD0052D14BFFF2305238B707A
S1135630847A002C66D0012C66D0A31E012B65D978
S1135640042C65D0052C14BFFF2305230B71C37AEA
S1135650002B5FD0012B61D0022B5DD0032B5DD0DA
S1135660042B5DD0052B14BFFF2005208871002A70
S113567058D0012A58D0022A58D0032A58D0042AD4
S113568058D0053A18BF4FF0FF32D2B24A70002DFD
S113569052D0012D52D0022D52D0032D52D0042DC0
S11356A052D0052D0CBF0122FF22CA70002C4DD010
S11356B0012C4DD0022C4DD0032C4DD0042C4DD0B8
S11356C0052C0CBF0222FF224A71002B00F0088136
S11356D0012B45D0022B45D0032B45D0042B45D0BC
S11356E0052B6AE6022393E7134691E700238FE72D
S11356F005238DE702239AE72B4698E7002396E7D4
S1135700052394E70223A1E723469FE700239DE7AF
S113571005239BE70220A9E70020A7E70120A5E7CE
S11357200520A3E70222B1E70322AFE70722ADE792
S11357300D22ABE70622A9E70322B6E70422B4E769
S11357400822B2E70E22B0E70722AEE70422BBE745
S11357500522B9E70922B7E70F22B5E70822B3E724
S1135760062362E60A2360E60B235EE609235CE671
S1135770324A93426ED1027A002A48D0012A48D094
S1135780022A0CBF0123FF230B70447A002C42D061
S1135790012C42D0022C0CBF0123FF238B70857A8D
S11357A0002D3CD0012D3CD0022D14BFFF23032338
S11357B00B71C37A002B38D0012B34D0022B34D098
S11357C0032B14BFFF20022088712AB1012A2ED096
S11357D0022A0CBF0322FF224A7054B3013C012C5D
S11357E094BF0722FF22CA7055B3012D2AD0022D7F
S11357F00CBF0422FF224A7133B3012B26D0022BA3
S113580026D0033B18BF4FF0FF33DBB20DE613463F
S1135810BAE70423B8E72346C0E70423BEE72B46D0
S1135820C6E70323C4E70420CEE71846CCE70622E4
S1135830D2E70122D7E700BF00080140000C014075
S11358400222D8E70722D6E70323EEE50423ECE59A
S11358500E23EAE5244A934244D1057A002D31D03F
S1135860012D0CBF0323FF230B70447A002C2BD093
S1135870012C0CBF0323FF238B70827A32B3012ADD
S11358800CBF0323FF230B71C37A0BB3012B0CBF93
S11358900320FF208871EDB1012D0CBF0920FF20EA
S11358A04870CCB1012C0CBF0A20FF20C870AAB1EB
S11358B0012A0CBF0B22FF224A718BB1012B08BFB6
S11358C00C237AE50123CFE70123D5E70223DAE7A6
S11358D00220DFE70720E3E70820E7E70422EBE7FD
S11358E00523A2E50148A2E500100140022000F0D2
S11358F038B5144605F031FB0023636484F848305E
S1135900E363237E012B054603D104F15C00FCF71D
S11359109BF9236B1BB1A26B0021204698472846B4
S113592005F021FB636D002B03DC0448BB2105F06B
S113593088FB636D013B6365012038BD4CC40000E6
S113594038B50546B0B1B9B1B2B1B2F5006F13DCE8
S113595005F003FB95F8483003F0FF041BB105F094
S113596002FB064838BD012385F8483005F0FBFAF0
S11359702046F7E70248F5E70248F3E7032000F082
S1135980012000F0022000F02DE9F043036390F8B9
S113599058301746002287B00446884680F85020C5
S11359A0876343BB066905684FF44063092EEB60C7
S11359B024D905F1240301263C35626DE16A606A4D
S11359C0049401326265134A01974FF00009CDE94E
S11359D00262CDF8009004F1340205F0F7FA0123D5
S11359E00093CDE90399CDE90176A16A206A434683
S11359F02A4605F0D1FA07B0BDE8F083A6F1090202
S1135A000BBF05F1180305F11C033035343556423C
S1135A105641D2E7F1580000F0B59B4F04460D46BD
S1135A200FCF8DB005AE0FC697E8070086E80700D4
S1135A30002C00F027811DB9944D28460DB0F0BD0F
S1135A4080220021204605F0B2FB2B68904A934245
S1135A5040F0B2808F4AE2648F4AA2624FF440223F
S1135A6026462F46E26246F8043B0FCF0FC697E85E
S1135A70070086E807006B7D012B08BF8DF82230F4
S1135A80AB7D33B1012B40F0C0804FF40073ADF80F
S1135A9024302B7D8148012B0ABF0023AB688DF88D
S1135AA021304FF0010108BF4FF4E1330793FDF7B4
S1135AB0FFFB7B480121FDF7FBFBE06C0121FDF7B7
S1135AC0F7FBEB681A1F0C2AB6D8033B05A9286814
S1135AD08DF82030FFF792FB6B69216823F47F0374
S1135AE023F47F431BB90B6843F480330B60AA791A
S1135AF02B796879EE7D120642EA032303438A6F09
S1135B00002E40F08D8002F0F8321343EA7943EA24
S1135B1002438B670F234B67204603A9FFF7D2FB91
S1135B200546002889D19DF8123084F840309DF84C
S1135B30133084F84130237E9DF80C009DF80D103D
S1135B40002B75D104220193FEF7DAFF019B9DF827
S1135B500F109DF80E000122FEF7D2FFA27E9DF8E1
S1135B6011109DF81000012A94BF019B0123042207
S1135B70FEF7C6FFE37E3BB90123042294F84110EB
S1135B8094F84000FEF7BCFF05F0E7F9454B1A789E
S1135B90002A6BD101221A7005F0E5F9FCF71AF816
S1135BA000F0ECF9002104F1200000F06FF9014647
S1135BB000285ED03C4D40E73C4A934206D13C4A23
S1135BC0E2643C4AA2624FF4502249E73A4A9342C3
S1135BD006D13A4AE2643A4AA2624FF460223FE7AD
S1135BE0384A934206D1384AE264384AA2624FF4F2
S1135BF0702235E7364A93427FF41EAF354AE26499
S1135C00354AA2624FF480122AE7022B02D14FF4E4
S1135C1080733CE7032B7FF40FAF4FF4407336E7F8
S1135C2022F0072222F0070213438B670B2372E74B
S1135C302B460122FEF764FF9DF80F109DF80E001D
S1135C402B460422FEF75CFFA37E9DF811109DF8FD
S1135C501000012B94BF2B4601230222FEF750FFB4
S1135C60E37E002B90D10123022287E705F07BF924
S1135C7096E704F1240000F009F9054600283FF4F2
S1135C80DCAE97E7154DD8E6A4C40000022000F06E
S1135C90000001400002040001000C004041050026
S1135CA000450A00A81A0020092000F00004014061
S1135CB00012040001000D0000080140002206004B
S1135CC001000E00000C01400032040001000F002E
S1135CD0001001400042040001001000012000F007
S1135CE0F7B5047E0193012C05460E4617460CD0E9
