S0130000434C495F45746865726E65742E7333376B
S113000000100020152200003BA500003BA50000C5
S11300103BA500003BA500003BA500003BA500005C
S11300203BA500003BA500003BA500003BA500004C
S11300303BA500003BA500003BA500003BA500003C
S11300403BA500003BA50000612900003BA5000082
S11300503BA500003BA500005121000021A50000A4
S11300603BA500003BA500003BA500003BA500000C
S11300703BA500003BA500003BA500003BA50000FC
S11300803BA500003BA500003BA500003BA50000EC
S11300903BA500003BA500003BA500003BA50000DC
S11300A03BA500003BA500003BA500003BA50000CC
S11300B03BA500003BA500003BA500009D6B000094
S11300C03BA500003BA500003BA500003BA50000AC
S11300D03BA500003BA500003BA500003BA500009C
S11300E03BA500003BA500003BA500003BA500008C
S11300F03BA500003BA500003BA500003BA500007C
S11301003BA500003BA500003BA500003BA500006B
S11301103BA500003BA500003BA500003BA500005B
S11301203BA500003BA500003BA500003BA500004B
S1130130013800D0FCE77047000000000000000018
S113014001F0FF01102A2BDB10F0070F08D010F884
S1130150013B013A8B422DD010F0070F42B3F6D188
S1130160F0B441EA012141EA014122F007047FF0A1
S113017000070023F0E80256083C85EA010586EAF8
S1130180010685FA47F5A3FA87F586FA47F6A5FA34
S113019087F68EB9EED1F0BC01F0FF0102F0070240
S11301A032B110F8013B013A83EA010313B1F8D1EB
S11301B00020704701387047002D06BF35460338CC
S11301C0073815F0010F07D1013015F4807F02BF05
S11301D0013015F4C03F0130F0BC0138704700BF56
S11301E02DE9F04F2DED048B9DB01F46002318938D
S11301F0A14B13921B6805930446184688460BF0DE
S11302005BF84FF0000A05464FF0000BCDF85C8018
S1130210179B1A782B2A4CD039D80D2A32D8082AA1
S113022032D8002A3CD000230A93179E3378302B0F
S113023040F0AE80737803F0DF03582B66D10A9B3D
S1130240019318AB029700938C4A19AB17A9204667
S113025008F0BAFD10F00707054605D0062F2AD18D
S11302600136002317960A93139B002B40F08485D4
S11302700A9BDBB150460BF100411DB0BDEC048B71
S1130280BDE8F08F202ACED101331793C0E72D2A81
S1130290C9D101220A925A1C17925B78002BC4D14F
S11302A0139BCDF85C80002B40F064855046594682
S11302B0E3E70022EEE7189A3AB135211AA80BF0C9
S11302C0F6FA1899204609F051F8013F042F06D890
S11302D0DFE807F00A0314170A00DDE91AAB280760
S11302E0C2D54BF0004BBFE7DDE91AA3199A23F4FA
S11302F0801302F2334243EA025BF0E7DFF880B195
S1130300EDE76FF0004B4FF0FF3AE8E7179B5A1CFC
S113031017925B78302BF9D0002BA5D001234FF036
S113032000090493179B0893CDF81C904F460A22AA
S113033017980678A6F13003D9B209292AD9059964
S11303402A460AF0C1FF98B3002032463D46059084
S11303500346652A01D0452A18D11DB9049A0243DF
S11303609ED00025DDF85C8008F10102179298F810
S113037001202B2A75D02D2A7BD04FF0000CA2F13E
S11303803001092940F28280CDF85C8000269DE08E
S11303900023C4E7082FD8BF079900F10100DABF92
S11303A002FB0133079302FB093901371790BFE7BA
S11303B0179B5A1917925A5D002F37D005903D4666
S11303C0A2F13003092B12D90123C2E7179B5A1C4F
S11303D017925A780130302AF8D0A2F13103082B51
S11303E000F2CF84179B0590002008930546303A0D
S11303F000F1010314D00599194405912B4600EB33
S1130400050E0A21734513D12B18082B05F101059C
S113041005441CDC07990A2303FB012307930023EB
S1130420179A511C179152781846C9E73846D2E7F3
S1130430082B04DC079E4E4307960133E2E703F1E1
S1130440010CBCF1100FD8BF01FB09F9F5E7102D21
S1130450DCBF0A2303FB0929E1E7002305930123F9
S11304607CE74FF0000C08F10202179298F8022082
S113047085E74FF0010CF6E734DC000044DA0000B5
S11304800000F07F179A511C17915278302AF9D046
S1130490A2F1310108293FF679AFA2F1300E179A83
S11304A00692179A511C17915278A2F13006092E20
S11304B037D9069E891B082944F61F6602DC764557
S11304C0A8BF7646BCF1000F00D07642002D4DD176
S11304D0049901437FF4C8AE002B7FF4E1AE692A8E
S11304E027D024DC492A24D04E2A7FF4D9AE9E4951
S11304F017A80BF059F800283FF4D2AE179B1B78CD
S1130500282B2DD199491AAA17A80BF061F80528B0
S113051026D11B9BDDF868A043F0FF4B4BF4E00BA6
S1130520A2E60A2101FB0E2EAEF1300EB9E76E2AC7
S1130530DBE78F4917A80BF037F800283FF4B0AE7B
S1130540179B8C49013B17A817930BF02DF810B992
S1130550179B01331793DFF82CB24FF0000A83E6A0
S1130560854809F0ADFD82468B467DE6059B0798DC
S1130570F31A002F08BF2F46102D0693A846A8BFD4
S11305804FF0100806F09AFC092D82468B4613DDC5
S11305907A4B03EBC80353E9122306F009FD8246A4
S11305A048468B4606F08AFC02460B46504659469E
S11305B006F048FB82468B460F2D36DC069B002B4B
S11305C03FF452AE22DD162B09DC6C4901EBC3016A
S11305D0D1E9000152465B4606F0EAFCC3E7069AFD
S11305E0C5F12503934220DB644CC5F10F0504EBF0
S11305F0C50152465B46D1E9000106F0D9FC069BD1
S11306005D1B04EBC504D4E90023E5E7069B163320
S11306100BDB059B9E1B594B03EBC606D6E9002357
S11306205046594606F0EEFD9DE7069AA5EB0803F1
S113063003EB0208B8F1000F74DD18F00F030AD0C1
S11306404E4901EBC30152465B46D1E9000106F075
S1130650AFFC82468B4638F00F084FD0B8F59A7F2E
S113066022DD0025A946079505952223DFF814B15C
S113067023604FF0000A079B002B3FF4F5AD189957
S1130680204608F073FE0599204608F06FFE49469F
S1130690204608F06BFE0799204608F067FE2946BD
S11306A0204608F063FEDFE5354B049300234FEA50
S11306B02818504659469946B8F1010F21DC0BB170
S11306C082468B462E4BABF1547B03EBC909524651
S11306D05B46D9E9000106F06BFC2A4B0A460B4045
S11306E029498B428246BCD8A1F580118B4286BF32
S11306F0DFF898B04FF0FF3A02F1547B00230493E3
S113070083E018F0010F05D0049BD3E9002306F021
S11307104FFC0123049A083209F101094FEA6808E1
S11307200492C9E7EAD0C8F1000818F00F020AD011
S1130730124B03EBC20350465946D3E9002306F09B
S113074061FD82468B465FEA2818D7D0B8F11F0FA7
S11307501EDD0025A9460795059522234FF0000AC2
S11307604FF0000B236086E715DA000058DA00002A
S11307700DDA00009BDA000041D70000F0DC000035
S1130780C8DC00000000F07F0000A07CFFFFEF7FCA
S113079018F0100318BF6A23DFF8AC930493504693
S11307A05946002318F0010F04D0D9E9002306F0BC
S11307B0FFFB01235FEA680809F10809F2D10BB1D4
S11307C082468B46049BC3B1CBF30A52C2F16B033E
S11307D0002B594611DD1F2B40F32181342BDEBF42
S11307E0C2F14B024FF0FF3303FA02F24FF0000A5A
S11307F0CCBF4FF05C7B02EA010B00220023504681
S1130800594609F087FD0028A3D1079B0093089956
S11308102B463A46204608F011FE079000283FF484
S113082020AF059B9E1B069B002BB4BF33460023C1
S11308300C93069B002523EAE3731293A946079BB6
S11308402046596808F052FD059000283FF40DAF8A
S1130850079B1A69023203F10C0192000C300AF072
S1130860E5FB1AAB019319AB009352465B46204655
S113087009F0BCF84BEC18AB189000283FF4F5AE27
S11308800121204608F024FE814600283FF4EDAE05
S1130890199E1A9A002EABBF0C9B129B129FDDF877
S11308A03080ACBF06EB03089F1B049BF61A16446A
S11308B0A04B013E9E42C2F1360280F2C3809B1BD4
S11308C01F2BA2EB03024FF0010100F3AF8001FAEA
S11308D003F30D930023089308EB0206049BB04531
S11308E017441F444346A8BF3346BB42A8BF3B46F8
S11308F0002BC2BFF61AFF1AA8EB03080C9B002BAF
S113090017DD49461A46204608F0A2FE8146002813
S11309103FF4ABAE0146189A204608F0EFFD0B9069
S113092000283FF4A2AE1899204608F01FFD0B9B47
S11309301893002E00F38B80069B002B08DD129A7F
S11309400599204608F084FE059000283FF48DAEFA
S1130950002F08DD05993A46204608F0D3FE05909D
S113096000283FF482AEB8F1000F08DD4946424644
S1130970204608F0C7FE814600283FF476AE059A6B
S11309801899204608F02EFF054600283FF46DAE66
S1130990C3680B930023C36049460AF03EFF002856
S11309A05FDA0B9B53EA0A0340F08380CBF3130313
S11309B0002B7ED12BF000431B0D1B05B3F1D66F2A
S11309C077D96B6913B92B69012B72DD2946012292
S11309D0204608F097FE494605460AF01EFF002807
S11309E067DD0499544A5B46002900F0838002EADB
S11309F00B01B1F1D66F7DDCB1F15C7F7FF7ADAE59
S1130A004E4B50465946002206F0D2FA0B46034399
S1130A1008BF222382468B4608BF23602FE64FF08F
S1130A20FF3202FA03F303EA0A0AE6E6C6F17F4656
S1130A3006F57F0606F57B46E23601FA06F30893CF
S1130A400D9149E70023089301230D9344E7189976
S1130A503246204608F056FE189000287FF46CAF0A
S1130A6003E6D84672D10B9ACBF3130352B3344A3C
S1130A7093422AD1049B5146FBB12F4B0BEA03034B
S1130A80B3F1D46F4FF0FF321AD81B0DC3F16B03CF
S1130A9002FA03F3994218D12A4B984502D1013145
S1130AA03FF4E3AD244B08EA030303F5801B4FF046
S1130AB0000A049B002BA3D1E1E54FF0FF33E9E7E3
S1130AC01346E7E753EA0A038BD0089BE3B113EA22
S1130AD0080FEED00B9B049A50465946C3B10AF056
S1130AE007FC02460B4651EC180B06F0ABF88246A5
S1130AF08B46DEE71340A3F580136FEA135B6FEABE
S1130B000B5B4FF0FF3AD4E70D9B13EA0A0FE0E7C3
S1130B100AF0EEFB02460B4651EC180B06F090F877
S1130B200022002382468B4609F0F4FB0028C0D043
S1130B3013E600BF02FCFFFF0000F07F0000503905
S1130B40FFFF0F00FFFFEF7F70DA000049462846E1
S1130B500AF07FFE00224FF0804306460F4609F05C
S1130B60EDFB002879D00B9B002B4BD0924B00223D
S1130B70CDE90823904F0026904B08EA03030D9318
S1130B800D9A8F4B9A4240F0B0809DED087BA8F1FE
S1130B90547B50465946B0EE479AF0EE679A08F0F7
S1130BA0ABFE02460B4651EC190B06F001FA524615
S1130BB05B4606F047F80B468049824A1940914249
S1130BC082465ED918EE903A02F15472934204D1EF
S1130BD018EE103A01333FF448ADDFF8F4B14FF0AA
S1130BE0FF3A1899204608F0C1FB0599204608F001
S1130BF0BDFB4946204608F0B9FB2946204608F0CB
S1130C00B5FB1CE6BAF1000F1AD1CBF31303F3B909
S1130C10694B00223046394609F086FBD0B930468C
S1130C203946694B002206F0C3F906460F4607F120
S1130C30004314961593DDE91423CDE908239BE7BB
S1130C40BAF1010F03D1BBF1000F3FF486AD5F4B46
S1130C5000228DE75C4F0026E9E75B4B30463946BE
S1130C60002206F0A5F90B9B06460F4633B901F1A5
S1130C7000430E900F93DDE90E23DEE7CDE90E6706
S1130C80F9E703F1547B049B002BAAD12BF000431A
S1130C900D9A1B0D1B059A42A3D13046394609F023
S1130CA0C9FB06F057F902460B463046394605F0B3
S1130CB0C7FF0B9ACBF3130343EA0A031343064615
S1130CC00F4651D034A3D3E9002309F02DFB0028AB
S1130CD07FF4D5AC32A3D3E900233046394609F07A
S1130CE041FB00283FF47DAFC9E4049B33B30D9B63
S1130CF0B3F1D46F22D82CA3D3E90023304639466C
S1130D0009F01CFBA0B13946304609F073FB0128F9
S1130D1038BF012006F0D2F80B9B06460F4603BBF2
S1130D2001F1004310901193DDE91023CDE908236C
S1130D30099B0D9A03F1D6639B1A099351EC180B86
S1130D40DDE908AB08F0D8FD02460B46504659468B
S1130D5006F02EF953EC182B05F074FF82468B46EF
S1130D6091E7CDE91067DFE711A3D3E9002309F088
S1130D70DBFAB6E700230A93139A179B1360FFF775
S1130D8077BA652A3FF469AB452A3FF466AB012381
S1130D90FFF79EBBAFF300809535A094FFFFDF3FC4
S1130DA035E5AF350000E03F0000C0FFFFFFDF4145
S1130DB09535A094FFFFCF3F0000F03F0000F07F87
S1130DC00000E07FFFFF9F7C0000E03F0000F0BFD9
S1130DD0FFFFEF7F000000002DE9F04F2DED048BA5
S1130DE0456A93B00446DDF88C8016461F46924649
S1130DF09B4675B9102008F071FA0246606220B96A
S1130E00A94BEA21A94809F083F9C0E90155056015
S1130E10C560636A196851B15A684A6001239340F6
S1130E208B60204608F0A2FA636A00221A603B1E17
S1130E30AABF002323F0004BC8F800309C4BBCBF72
S1130E400122C8F8002033EA0B031BD1229A42F294
S1130E500F731360CBF31303334300F09685249B85
S1130E6063B9944B22E0944B04930833249A13609F
S1130E70049813B0BDEC048BBDE8F08F8D4B049344
S1130E800333F3E7002200235046594609F042FA9F
S1130E904BEC19AB804658B1229A01231360249B72
S1130EA0002B00F06F8585481860431E0493DFE72C
S1130EB010AB019311AB009352465B46204608F0F9
S1130EC095FDCBF30A5508EE100A002D00F084803E
S1130ED019EE903AC3F3130343F07F57564647F491
S1130EE04017A5F2FF35CDF83880754B0022304607
S1130EF0394605F0A5FE66A3D3E9002306F058F8A9
S1130F0065A3D3E9002305F09DFE064628460F4657
S1130F1005F0E4FF62A3D3E9002306F049F8024692
S1130F200B463046394605F08DFE06460F4609F05D
S1130F3039FA0022039000233046394609F0F4F9C7
S1130F4050B1039805F0CAFF32463B4609F0E2F976
S1130F5010B9039B013B0393039B162B5AD8039AA6
S1130F60584B03EBC203D3E9002351EC190B09F0EE
S1130F70DBF9002850D0039B013B039300230C931F
S1130F80109B5D1B6B1E089345BFC5F101030793BE
S1130F90002300234CBF08930793039B002B3DDBE6
S1130FA0089B039A0B921344089300230993209BF4
S1130FB0092B00F28B80052BC4BF043B2093209B9C
S1130FC0A3F10203CCBF00250125032B00F2898085
S1130FD0DFE803F02D3A3859DDE910531D4405F2DA
S1130FE03243202BC1BFC3F1400305F212400BFA78
S1130FF003F326FA00F0DABFC3F1200306FA03F084
S1131000184305F05BFF01230646A1F1F877013D83
S11310100E936AE70123B2E70C90B1E7079B039AAA
S11310209B1A07935342099300230B93BFE70023B2
S11310300A93219B002B57DC0123CDE905331A4683
S113104021920CE00123F3E70023219A0A93039BE6
S1131050134405930133012B0693B8BF0123606A3F
S113106000224260042202F114069E4241683FD9E4
S1131070204608F03BF9049000283DD1124B02466B
S11310804FF4D571BEE60123DFE700BFAFF3008064
S113109061436F63A787D23FB3C8608B288AC63F7A
S11310A0FB799F501344D33FA5DA0000BCDA00005B
S11310B00000F07FA1DA000098DA000019DA0000DD
S11310C00000F83FF0DC00003ADB000001250023BB
S11310D020930A954FF0FF33CDE905330022122304
S11310E0AEE701230A93F5E7219BCDE90533B6E783
S11310F0013141605200B6E7636A049A1A60069BA4
S11311000E2B00F29D80002D00F09A80039B002B93
S113111032DDB74A03F00F0302EBC303D3E90089BE
S1131120039BD8054FEA231716D5B24B51EC190B84
S1131130D3E9082306F066F807F00F0782468B46CA
S11311400325AC4E57B942464B465046594606F025
S113115059F882468B4628E00225F2E7F90708D5BC
S113116040464946D6E9002305F022FF0135804672
S113117089467F100836E5E700F09B80039B9D4F6E
S11311805E429B4B06F00F0203EBC203D3E900233C
S113119051EC190B05F00CFF361182468B460023E7
S11311A00225002E7AD1002BD3D10C9B002B00F00A
S11311B08280914B00225046594609F0B5F8002828
S11311C079D0069B002B76D0059B002B36DD039B44
S11311D0504659465F1E0022884B05F0E9FE059EE5
S11311E082468B460135284605F078FE52465B461A
S11311F005F0DEFE824B002205F024FDD046D946E0
S11312008246A1F1507B002E58D17E4B00224046ED
S1131210494605F015FD52465B468046894609F06D
S1131220A1F8002840F0958252460BF10043404655
S1131230494609F079F8002840F089825BEC19AB43
S1131240119B002BC0F24881039A0E2A00F34481BB
S1131250674B03EBC203D3E90089219B002B80F287
S1131260D580069B002B00F3D18040F06F82654B44
S113127000224046494605F09BFE52465B4609F073
S113128067F8069E3746002840F04582049D3123C6
S113129005F8013B039B0133039340E2F20705D5B4
S11312A0D7E9002305F084FE0135012376100837C1
S11312B077E7022579E7039F069E94E704994C4B50
S11312C031440D910A9903EBC60353E90223002923
S11312D043D04D49002005F095FF52465B4605F08A
S11312E0AFFC049D82468B464946404609F05AF8B5
S11312F0064605F0F3FD02460B464046494605F016
S11313009FFC303605F8016B52465B4680468946A1
S113131009F00AF8002863D142464B4636490020BA
S113132005F08EFC52465B4608F0FEFF002840F0B4
S1131330B5800D9B9D4281D0304B002250465946CA
S113134005F036FE2D4B82468B4640464946002228
S113135005F02EFE80468946C6E75046594605F0FC
S113136027FE0D9B049D0F9382468B4649464046BB
S113137009F018F8064605F0B1FD303602460B4672
S11313804046494605F05CFC05F8016B0D9B9D4207
S1131390804689464FF0000224D11B4B50465946E3
S11313A005F050FC02460B464046494608F0DAFF79
S11313B0002873D152465B461349002005F040FCD7
S11313C002460B464046494608F0AEFF00283FF46B
S11313D035AF0F9D6B1E0F9315F8013C302BF8D0E1
S11313E0039749E0054B05F0E3FD80468946BDE7D8
S11313F0F0DC0000C8DC00000000F03F00002440E6
S113140000001C40000014400000E03F049D5646CC
S11314105F4642464B463046394605F0F3FE08F037
S1131420C1FF824605F05AFD42464B4605F0C0FD19
S113143002460B46304639460AF1300605F000FCF8
S113144005F8016B049E069FAE1BB74202460B468D
S113145035D105F0F7FB42464B4606460F4608F0E9
S113146081FFD0B942464B463046394608F052FF18
S113147010B11AF0010F10D1204618EE101A07F01F
S113148075FF002303982B70229B01301860249B66
S1131490002B3FF4EDAC1D60EAE4039F2B461D4690
S11314A013F8012D392A06D1049A9A42F7D10499E6
S11314B0302201370A701A7801321A7090E7A64B6D
S11314C0002205F075FD0022002306460F4608F0B1
S11314D021FF00289DD0CFE70A9A002A00F0D78088
S11314E0209A012A00F3BA800E9A002A00F0B280F2
S11314F003F23343099E079D079A1A440792089AF8
S113150001211A442046089207F0E2FF0746002D05
S11315100CDD089B002B09DDAB42079AA8BF2B46C4
S1131520D21A0792089AED1AD31A0893099B1BB38F
S11315300A9B002B00F0AF80002E13DD39463246A3
S1131540204608F085F818EE102A01460746204682
S113155007F0D4FF18EE101A8046204607F006FF65
S113156008EE108A099B9A1B06D018EE101A204622
S113157008F06EF808EE100A0121204607F0A8FFD3
S11315800B9B002B064640F388801A4601462046F2
S113159008F05EF8209B012B064640F381804FF053
S11315A00008336906EB830318690AF0E7F8C0F111
S11315B02000089B184410F01F0000F09280C0F136
S11315C02003042B40F38A80C0F11C00079B0344D2
S11315D00793089B034405440893079B002B07DDEE
S11315E018EE101A1A46204608F08CF808EE100A75
S11315F0089B002B05DD31461A46204608F082F888
S113160006460C9B002B6ED018EE100A31460AF0E9
S113161004F9002867DA039B013B18EE101A0393C0
S11316200A220023204607F0C3FE0A9B08EE100A94
S1131630002B00F0B181002339460A22204607F02E
S1131640B7FE059B002B074600F38E80209B022BE0
S113165051DC89E0109BC3F136034BE7069B5E1E09
S1131660099BB342BFBF099B0996F21A0B9BB6BFF5
S11316709B189E1B0B93069BB8BF0026002BB7BF7D
S1131680DDE90623DDE906359D1A002334E7099ECA
S1131690079D0A9F3BE7099A67E7209B012B18DC0B
S11316A0BAF1000F15D1CBF3130393B92BF0004318
S11316B01B0D1B0583B1079B01330793089B013363
S11316C008934FF001080B9B002B7FF46AAF0120B5
S11316D06FE74FF00008F6E79846F4E73FF47DAF74
S11316E018461C3072E7069B002B37DC209B022B2C
S11316F034DD069B0593059B6BB9314605222046D4
S113170007F056FE0146064618EE100A0AF085F860
S113171000283FF7BBAD219B049DDB4303934FF0AF
S113172000083146204607F021FE002F3FF4A4AE06
S1131730B8F1000F05D0B84503D04146204607F064
S113174015FE3946204607F011FE95E60026374679
S1131750E1E70397374699E5000024400A9B002BF4
S113176000F0CA80069B0593002D05DD39462A4604
S1131770204607F0C7FF0746B8F1000F5BD0796831
S1131780204607F0B3FD054628B9874B024640F2D0
S1131790EA21FFF737BB3A690232920007F10C01E4
S11317A00C3009F043FC01222946204607F0AAFF29
S11317B0049B03F10109DDE90423134408930AF0AF
S11317C00103B84607930746314618EE100A09F09C
S11317D0B2FD4146059000F1300A18EE100A0AF0F5
S11317E01CF83A4606903146204607F0FBFFC268D3
S11317F009F1FF3B054602BB014618EE100A0AF048
S11318000CF8024629462046099207F0AFFD209BBA
S1131810099A43EA0201079B0B434D460FD1BAF1E3
S1131820390F2AD0069B002B02DD059B03F1310AF8
S11318308BF800A075E73846BAE70122E2E7069B79
S1131840002B04DB20990B4307990B4322D1002A78
S1131850EEDD18EE101A0122204607F053FF314640
S113186008EE100A09F0D9FF002803DCE0D11AF0D1
S1131870010FDDD0BAF1390FD7D139238BF80030FD
S11318802B461D46013B15F8012C392A71D0013233
S11318901A7046E7002A07DDBAF1390FEDD00AF1D4
S11318A001038BF800303CE7089B09F801AC99452B
S11318B047D018EE101A00230A22204607F078FDBC
S11318C0B84508EE100A4FF000034FF00A024146F3
S11318D0204606D107F06CFD8046074609F1010950
S11318E072E707F065FD3946804600230A22204648
S11318F007F05EFD0746F1E7069B0593049D18EE8D
S1131900100A314609F017FD00F1300A049B05F86E
S113191001ABEA1A059B934209DD18EE101A002365
S11319200A22204607F044FD08EE100AE7E7059B6B
S1131930002BC8BF1D46049BD8BF01251D444FF092
S1131940000818EE101A0122204607F0DBFE31468B
S113195008EE100A09F061FF002891DC02D11AF0A8
S1131960010F8DD12B461D4613F8012D302AFAD0D4
S1131970D7E6049A9A4284D1039B0133039331231B
S11319801370CEE6094BFFF791BA249B002B7FF42A
S11319906AAA074BFFF78ABA059B002BAEDC209B93
S11319A0022B3FF7A8AEA9E73ADB000018DA0000E3
S11319B098DA000010B5054C237833B9044B13B101
S11319C00448AFF300800123237010BD701400207D
S11319D00000000014DE000008B5034B1BB10349EE
S11319E00348AFF3008008BD000000007414002019
S11319F014DE0000A3F5803A704700BF174B002B9C
S1131A0008BF134B9D46FFF7F5FF00218B460F4699
S1131A101348144A121A09F031FB0E4B002B00D064
S1131A2098470D4B002B00D098470020002104005C
S1131A300D000D48002802D00C48AFF3008005F0DB
S1131A40AFFE2000290008F043FD05F095FE00BF1D
S1131A50000008000000000000000000001000204A
S1131A6070140020E81A00200000000000000000AC
S1131A70D0E9023253F822301B7813B9034806F038
S1131A80A3BC012B0CBF02480248F8E7F4BB0000DA
S1131A901ABC000049BC0000D0E9023253F82230DD
S1131AA01B7813B9024806F08FBC0248FBE700BF5D
S1131AB04DBC000049BC000008B5044806F084FC95
S1131AC0BDE80840002000F01FB900BF6FBC000053
S1131AD008B5044806F078FCBDE80840012000F091
S1131AE013B900BF8ABC00001FB5074A10685168CB
S1131AF0127A01AB03C301A904481A7006F0DEFB95
S1131B0005B05DF804FB00BFABBC0000A5BC000041
S1131B10014806F0D3BB00BFB4BC00000149024831
S1131B2006F0CCBBA41A0020D1BC00000149024835
S1131B3006F0C4BB3A140020FBBC0000D0E902321A
S1131B40024853F8221006F0B9BB00BF11BD0000D3
S1131B5008B5034806F0B2FBBDE8084008F0C2BC73
S1131B6026BD000008B5044806F02EFCBDE8084078
S1131B70032000F0D3B800BF48BD000008B50448F6
S1131B8006F022FCBDE80840032000F0E1B800BFE5
S1131B9054BD000008B5044806F016FCBDE8084032
S1131BA0012000F0FBB800BF64BD000008B5044884
S1131BB006F00AFCBDE80840002000F0EFB800BFC2
S1131BC072BD000038B50A480A4D06F0FDFB01203D
S1131BD000F0EEF81E24284605F004F8013CFAD182
S1131BE0054806F0F1FB2046BDE8384000F0E0B8B7
S1131BF081BD0000A08601009ABD0000D0E9023238
S1131C0053F8223010B51C8840F6B8339C421BD8D8
S1131C10204605F063F900220E4B05F0F3FA05F0B7
S1131C20D9FB0D4B186005F06BF902460B460B48C7
S1131C300B4906F09BFC09490A4806F03FFB204685
S1131C40BDE8104000F0BEB8BDE81040064806F0FC
S1131C50BBBB00BF000059408C140020A41A002014
S1131C60AABD0000AFBD000049BC0000D0E90232AB
S1131C7010B553F822400C49204609F013FB20B953
S1131C80BDE81040094806F019BB0949204609F08F
S1131C9009FB18B9BDE8104000F01EB9BDE81040BA
S1131CA0044806F091BB00BFDABD0000DEBD0000B1
S1131CB0F2BD000006BE000008B5012000F024F8C3
S1131CC0002000F02BF8002000F042F8002000F083
S1131CD065F8002000F076F8074B0849186808F00A
S1131CE0A7FE20B9064840F2051108F02DFCBDE816
S1131CF00840044806F068BB2812002000100020A9
S1131D000EBE000017BE000010B1034808F056BC18
S1131D10014808F056BC00BF08D00000012808B5EF
S1131D2004D1BDE80840084808F048BC20B906487A
S1131D30BDE8084008F045BC032804D1024808F077
S1131D4043FC0248F4E708BD20D0000068D000003E
S1131D50012808B504D10F48BDE8084008F02EBC9E
S1131D6020B90C48BDE8084008F02BBC03280FD16B
S1131D70084808F029FC074808F029FC012801D18B
S1131D800548E9E7034808F022FC08B90248E9E7F6
S1131D9008BD00BF68D0000020D0000010B1034887
S1131DA008F00CBC014808F00CBC00BF80D0000057
S1131DB010B1034808F002BC014808F002BC00BF9F
S1131DC098D0000030B58DB005AD044600211C222A
S1131DD0284609F053F96423B4FBF3F081B203FB02
S1131DE0104080B24B2859D101230B930A9310223F
S1131DF0002301209142A8BF45F8230003F1010309
S1131E00A8BF891A052B4FEA6202F3D1284B03F1CC
S1131E100C0207CA8DE807000ECB059808F045FBB5
S1131E20244B03F10C0207CA8DE807000ECB069879
S1131E3008F03BFB204B03F10C0207CA8DE80700B6
S1131E400ECB079808F031FB1C4B03F10C0207CAB8
S1131E508DE807000ECB089808F027FB184B03F118
S1131E600C0207CA8DE807000ECB099808F01DFB89
S1131E70144B03F10C0207CA8DE807000ECB0A9835
S1131E8008F013FB104B03F10C0207CA8DE807009E
S1131E900ECB0B9808F009FB0DB030BD322801D1F0
S1131EA00123A3E7192804BF01230B939FE700BF75
S1131EB050D0000038D0000010D10000F8D000004D
S1131EC0E0D00000C8D00000B0D0000001460148B6
S1131ED006F0F4B93AD700000148FFF7F7BF00BF96
S1131EE02AC3000011B9024B01221A70704700BFC7
S1131EF0BE1A002010B50C480C4C0D490068002394
S1131F00237010220B4B01F06FFA18B10A482321F9
S1131F1008F01AFB2378002BFCD0BDE810400449DC
S1131F20064806F0CBB900BF2C120020BE1A0020D0
S1131F30AE1A0020E51E000085CF00008ECF000001
S1131F4030B50A4C0A4B22680A4D1A6085B00A4B18
S1131F502B600A4B019304F095F82B68029001A9B9
S1131F602068039308F0D1FB05B030BD281200208F
S1131F70781A0020741A00201C120020ABCF000035
S1131F8038B5084D04F07EF82B680446D3F8B00247
S1131F9004F06CF8286808F0CCFB2046BDE8384013
S1131FA004F064B82812002038B502F0A9FA1248E7
S1131FB0124C012101F00AFB01221146002002F01B
S1131FC00BFA022501221146C4F88050002002F0C9
S1131FD003FA01221146C4F88450002002F0FCF9EF
S1131FE00122C4F88C501146002002F0F5F9C4F81F
S1131FF08850002038BD00BF30053E0000400E4030
S113200008B54FF0804301225A6403F564231B4949
S1132010D3F8B02042F00102C3F8B020D3F8E02096
S113202042F00802C3F8E0204A6B42F480524A634B
S1132030D3F8E02022F00802C3F8E020D3F8B0205F
S113204022F00102C3F8B0200D4AD2F8A43143F4BF
S1132050F843C2F8A43103F0EBFF00F0D5F803F025
S11320608FFF03F0A3FF03F0CFFFFFF79DFF08F0FE
S1132070D3FEBDE8084000F0BBB800BF00400540F7
S113208000300E4030B5234D0FCD97B00FAC0FC4C8
S113209095E80700204B84E80700204ACDE9032394
S11320A003F1C06303F204530593A3F10133A3F1D5
S11320B0021306936FF4A06103F17F430B4407936B
S11320C01022042300210BA8089308F0D7FF144B17
S11320D04FF44020CDE9090306238DF82C30072363
S11320E08DF82D300F4B0C9320230D9301238DF885
S11320F039300D4B00930D4803AB0FAA09A904F026
S11321005DFA044618B10A48852108F01DFA2046F4
S113211017B030BDECCF0000000204000000014005
S11321201C000140BF1A0020501700209C170020FB
S1132130BDCF000008B5FFF7A5FF28B1BDE80840F2
S11321400248972108F000BA08BD00BFBDCF0000C7
S1132150014808F018BF00BF9C17002008B51348B9
S113216008F029FA124808F026FA124808F023FA6F
S1132170114808F020FA114808F01DFA104808F038
S11321801AFA104808F017FA0F4808F014FA0F4822
S113219008F011FA0E4808F00EFA0E4808F00BFA8F
S11321A0BDE808400C4808F006BA00BF08D000009B
S11321B020D0000038D0000050D0000068D00000CB
S11321C080D0000098D00000B0D00000C8D000003B
S11321D0E0D00000F8D0000010D10000024B034909
S11321E0186800F09DBF00BF2C12002030120020A0
S11321F008B50448012101F0E9F9BDE8084008F0F8
S113220073B900BF00450A000148012101F0DEB99D
S113221000450A0008B500F093F8124B12498B42AE
S113222012D3124B124900208B4218D3FFF7E6FB5E
S1132230186850F82240586840F8224001329868E3
S11322408242F5D30C33EAE70022F8E71C6844F82D
S1132250220001325C68A242F8D30833E4E700228A
S1132260F8E700BF1CDE000028DE000028DE0000C6
S113227028DE00000048704700A24A04174AD2F83A
S1132280943003F00703023B042B1FD8DFE803F06C
S11322900620031A0800124B1B680AE0114BFBE7E7
S11322A09368C3F30443073B072B14D80E4A52F830
S11322B023300A4AD2F80001C0F304200130B3FBF2
S11322C0F0F07047094B1B685B08F2E7074BE3E744
S11322D04FF40043EDE70023EBE700BF00400E405E
S11322E0581200205012002028D10000541200205F
S11322F008B5FFF7C3FF054BD3F80831C3F3082330
S11323000133B0FBF3F0024B186008BD00400E40EF
S11323104C120020014B1868704700BF5012002077
S1132320054B1860054BD3F8943003F00703022BD8
S113233001D1FFF7DDBF70475012002000400E406E
S1132340044B054A9A60D3F8882042F47002C3F81B
S11323508820704700ED00E000000000014B186881
S1132360704700BF5812002038B504460D4601B12D
S113237018B90448372108F0E7F823682B60256072
S113238038BD00BF48D1000070B5D0B1C9B10E4E00
S1132390431E013913F8014FA25D02F00302012A22
S11323A011F8012FB55C05F00305204608BF04F1C0
S11323B02000012D08BF2032801A01D1002CE9D160
S11323C070BD0120FCE700BF04D9000005490A687C
S11323D01318054883428CBF4FF0FF320B60104640
S11323E0704700BF5C12002000000320042838B5A9
S11323F004460D4618D9052804D147F6FF73EB406F
S1132400DB0704D40A4840F2FE3108F09DF830237B
S11324100C2013FB040000F18840012100F5082082
S113242001FA05F5056038BD4FF6FF73E7E700BF15
S113243099D10000042838B504460D4618D905285A
S113244004D147F6FF73EB40DB0704D40A4840F29B
S11324502D4108F079F830230C2013FB040000F11F
S11324608C40012100F5082001FA05F5056038BD0E
S11324704FF6FF73E7E700BF99D1000010B50121C3
S11324800446094801F0A2F80848012101F09EF829
S1132490A37820786178B3FA83F35B09042202F00D
S11324A0A1FC002010BD00BF4041050000450A000A
S11324B038B504784578042C15D9052C04D147F691
S11324C0FF73EB40DB0704D408484FF4896108F03C
S11324D03BF83022544304F18044012304F50824DA
S11324E0AB40A36138BD4FF6FF73EAE799D1000012
S11324F070B506784478042E05461ED9052E04D1FD
S113250047F6FF72E240D30704D40D484FF48361C9
S113251008F01AF830230C2213FB062303F1067388
S113252003F5004304EBC304A400AB782068C0B2F5
S113253013B9B0FA80F0400970BD4FF6FF72E1E7BD
S113254099D100002DE9F04F9A46554B85B01B7880
S1132550DDF83C909DF844B0DDF8508006460F4607
S11325601546002B00F08B800B2A00F28A800E9B0C
S1132570002B00F08680B9F1000F00F08280129BDE
S1132580B3F5006F7DDC012802D1109B002B78D0BD
S1132590444B03EB05131B7B002B74D0424C1022DD
S11325A00021684608F06AFD04EB45141022002F50
S11325B057D13946204608F061FD43F21003638089
S11325C0BBF1000F03D1E37843F00303E370364A11
S11325D00E9BCDF800A002EB451CCCE90193129BA5
S11325E0013BC3F30A009DF84C30690103F0030377
S11325F09B0643EA001E53582C4818404EEA000339
S1132600012E535041D11323CCF80C309CE80F0019
S11326100CF1100E8EE80F00DCF81C20109BCCF897
S113262014306FF0030161F39F02012FCCF81C20DA
S113263003D1CCF81890CCF804301A4A290102EBE3
S1132640051342F801800027159A5A6028469F60B6
S11326505E732246694602F07FFC384605B0BDE849
S1132660F08F0021204608F009FD4FF44473638085
S1132670BBF1000FABD1E37843F03003A6E70C487D
S1132680ECE70C48EAE70C48E8E7B8F1000FD4D1CE
S11326909CF8023068F304138CF80230CDE700BFD5
S11326A0DF1A002034180020F41800200F80FFF3F4
S11326B0028000F0018000F0078000F038B5124B72
S11326C01B780546DBB1E0B107F0E8FF0F4A0023B1
S11326D01146147B54B92B601A0101EB0313012535
S11326E08C501D7307F0E0FF204638BD01330C2BDE
S11326F002F11002EDD107F0D7FF0548F5E70548D0
S1132700F3E70548F1E700BFDF1A00203418002082
S1132710048000F0028000F0018000F013B507F09F
S1132720BDFF0C4A0023147B7CB901330C2B02F14E
S11327301002F8D1019002F09FFB074B01981C7026
S113274007F0B2FF204602B010BD07F0ADFF03480A
S1132750F9E700BF34180020DF1A0020058000F0DC
S11327600D4B1B7810B5044693B10B2812D807F013
S113277095FF0A4B03EB04131A7B2AB100241C7344
S113278007F092FF204610BD07F08EFF0448FAE7D9
S11327900448F8E70448F6E7DF1A0020341800205C
S11327A0068000F0028000F0018000F013B5134BA6
S11327B01868019000238DF8043007F06FFF104B68
S11327C01C7824B107F070FF0E4802B010BD01223E
S11327D01A7007F069FF0C4A2346214601330C2B7B
S11327E0117302F11002F9D104230DEB03008DF8EB
S11327F0073002F071FB0020E7E700BFE8D10000DA
S1132800DF1A0020038000F0341800200A4A1278EE
S113281008B55AB10B280BD8084A02EB00131B7BEE
S113282043B1002102F03CFB002008BD0448FCE752
S11328300448FAE70448F8E7DF1A002034180020B7
S1132840028000F0018000F0078000F00A4A12784C
S113285008B55AB10B280BD8084A02EB00131B7BAE
S113286043B1012102F01CFB002008BD0448FCE731
S11328700448FAE70448F8E7DF1A00203418002077
S1132880028000F0018000F0078000F00A4A12780C
S113289008B552B10B280AD8084A02EB00131B7B77
S11328A03BB102F0DFFB002008BD0548FCE705480A
S11328B0FAE70548F8E700BFDF1A002034180020C3
S11328C0028000F0018000F0078000F00D4B1B78BF
S11328D093B10B2812D889B10B4B03EB00131B7B6C
S11328E073B10A4B1A6E012303FA00F010401ABFA9
S11328F000200B7008707047054870470548704702
S113290005487047DF1A00203418002000200040DA
S1132910028000F0018000F0078000F00B4A12787A
S113292010B50C4662B10B280CD859B1084A02EB19
S113293000131B7B43B102F0B5FB2070002010BDD7
S11329400448FCE70448FAE70448F8E7DF1A0020E3
S113295034180020028000F0018000F0078000F0AD
S11329602DE9F843DFF86480D8F86070D8F86C304B
S11329701F4000D5FEE7144CDFF8549001260025D3
S1132980374217D02368C8F868609BB1A1686268B1
S11329900131A16028469847637B012B0AD148B9CD
S11329A009EB45131A7B60F341021A731A7F60F333
S11329B041021A7701350C2D4FEA460604F1100442
S11329C0DED1BDE8F88300BF3418002000200040A9
S11329D0F418002003685A4A934230B540F0B2809C
S11329E0037A012B76D9022B72D0032B72D0042BDD
S11329F072D0052B14BFFF2202220A70427A012AE8
S1132A006ED9022A6AD0032A6AD0042A6AD0052A17
S1132A1014BFFF2402248C70847A012C64D9A51E6F
S1132A20012D63D9042C63D0651F18BF4FF0FF3507
S1132A30EDB20D71C07A01285CD9851E012D5BD9D8
S1132A4004285BD0451F18BF4FF0FF35EDB28D71E0
S1132A50002B55D0012B59D0022B53D0032B53D02C
S1132A60042B53D0053B18BF4FF0FF33DBB24B7040
S1132A70002A4DD0012A4DD0022A4DD0032A4DD030
S1132A80042A4DD0052A0CBF0123FF23CB70002C50
S1132A9048D0012C48D0022C48D0032C48D0042C18
S1132AA048D0052C0CBF0C23FF234B71002843D0C6
S1132AB0012800F05382022800F01781C31E012B65
S1132AC040F24E82052808BF0D2318BFFF2334E0CF
S1132AD01A4692E7042290E701228EE714469AE709
S1132AE0042498E7012496E70425A2E70225A0E739
S1132AF001259EE70425AAE70225A8E70125A6E704
S1132B000A23B4E70B23B2E70D23B0E70723AEE7AC
S1132B100B23BBE70623B9E70A23B7E70C23B5E782
S1132B200823B3E70C23C0E70523BEE70923BCE76A
S1132B300F23BAE70D23B8E70D23CB71002030BD76
S1132B40000001406C4A934240F0D880047A002C83
S1132B5000F08D80631E012B40F28580032C00F071
S1132B608480042C00F08380052C00F08280A31F55
S1132B7018BF4FF0FF33DBB20B70457A002D7ED0C7
S1132B806B1E012B77D9032D77D0042D77D0052D1B
S1132B9077D0AB1F18BF4FF0FF33DBB28B70827A54
S1132BA0002A76D0012A6ED0022A6ED0D31E012BC1
S1132BB06DD9052A6DD0062A0CBF0423FF230B719F
S1132BC0C37A002B67D0012B67D0022B67D0D81EA5
S1132BD0012866D9052B66D0062B14BFFF200120DF
S1132BE0012C887161D9022C61D0032C61D0042C92
S1132BF061D0052C61D0062C0CBF0E20FF20012DC6
S1132C0048705CD9022D5CD0032D5CD0042D5CD0BF
S1132C10052D5CD0062D0CBF0220FF20C870002AB1
S1132C2057D0012A57D0022A57D0032A57D0042A52
S1132C3057D0052A57D0062A0CBF0522FF224A7115
S1132C40002B52D0012B00F08781022B4FD0032B95
S1132C5000F08681042B4CD0052B00F07F81062BDD
S1132C6008BF022331E7032386E7052384E7022311
S1132C7082E7234680E7032390E705238EE70223B8
S1132C808CE700238AE7032399E7052397E70223C8
S1132C9095E7012393E70120A2E70320A0E705209D
S1132CA09EE702209CE704209AE70020A7E707207C
S1132CB0A5E70620A3E70120A1E702209FE7012062
S1132CC0ACE70620AAE70720A8E70220A6E7002031
S1132CD0A4E70722B3E70222B1E70022AFE70F22FD
S1132CE0ADE70322ABE70B22A9E7082325E701237D
S1132CF023E7002321E700BF00040140924A9342E6
S1132D0040F0BE80027A002A74D0012A74D0931E47
S1132D10012B73D9042A73D0052A14BFFF2305237A
S1132D200B70457A002D6DD0012D6DD0AB1E012B9B
S1132D306CD9042D6CD0052D14BFFF2305238B7093
S1132D40847A002C66D0012C66D0A31E012B65D991
S1132D50042C65D0052C14BFFF2305230B71C37A03
S1132D60002B5FD0012B61D0022B5DD0032B5DD0F3
S1132D70042B5DD0052B14BFFF2005208871002A89
S1132D8058D0012A58D0022A58D0032A58D0042AED
S1132D9058D0053A18BF4FF0FF32D2B24A70002D16
S1132DA052D0012D52D0022D52D0032D52D0042DD9
S1132DB052D0052D0CBF0122FF22CA70002C4DD029
S1132DC0012C4DD0022C4DD0032C4DD0042C4DD0D1
S1132DD0052C0CBF0222FF224A71002B00F008814F
S1132DE0012B45D0022B45D0032B45D0042B45D0D5
S1132DF0052B6AE6022393E7134691E700238FE746
S1132E0005238DE702239AE72B4698E7002396E7EC
S1132E10052394E70223A1E723469FE700239DE7C8
S1132E2005239BE70220A9E70020A7E70120A5E7E7
S1132E300520A3E70222B1E70322AFE70722ADE7AB
S1132E400D22ABE70622A9E70322B6E70422B4E782
S1132E500822B2E70E22B0E70722AEE70422BBE75E
S1132E600522B9E70922B7E70F22B5E70822B3E73D
S1132E70062362E60A2360E60B235EE609235CE68A
S1132E80324A93426ED1027A002A48D0012A48D0AD
S1132E90022A0CBF0123FF230B70447A002C42D07A
S1132EA0012C42D0022C0CBF0123FF238B70857AA6
S1132EB0002D3CD0012D3CD0022D14BFFF23032351
S1132EC00B71C37A002B38D0012B34D0022B34D0B1
S1132ED0032B14BFFF20022088712AB1012A2ED0AF
S1132EE0022A0CBF0322FF224A7054B3013C012C76
S1132EF094BF0722FF22CA7055B3012D2AD0022D98
S1132F000CBF0422FF224A7133B3012B26D0022BBB
S1132F1026D0033B18BF4FF0FF33DBB20DE6134658
S1132F20BAE70423B8E72346C0E70423BEE72B46E9
S1132F30C6E70323C4E70420CEE71846CCE70622FD
S1132F40D2E70122D7E700BF00080140000C01408E
S1132F500222D8E70722D6E70323EEE50423ECE5B3
S1132F600E23EAE5244A934244D1057A002D31D058
S1132F70012D0CBF0323FF230B70447A002C2BD0AC
S1132F80012C0CBF0323FF238B70827A32B3012AF6
S1132F900CBF0323FF230B71C37A0BB3012B0CBFAC
S1132FA00320FF208871EDB1012D0CBF0920FF2003
S1132FB04870CCB1012C0CBF0A20FF20C870AAB104
S1132FC0012A0CBF0B22FF224A718BB1012B08BFCF
S1132FD00C237AE50123CFE70123D5E70223DAE7BF
S1132FE00220DFE70720E3E70820E7E70422EBE716
S1132FF00523A2E50148A2E500100140022000F0EB
S113300038B5144607F04AFB0023636484F848305B
S1133010E363237E012B054603D104F15C0003F036
S113302043FC236B1BB1A26B002120469847284622
S113303007F03AFB636D002B03DC0448BB2107F067
S113304083FA636D013B6365012038BDECD1000058
S113305038B50546B0B1B9B1B2B1B2F5006F13DC01
S113306007F01CFB95F8483003F0FF041BB107F090
S11330701BFB064838BD012385F8483007F014FBD4
S11330802046F7E70248F5E70248F3E7032000F09B
S1133090012000F0022000F0F0B5036390F85830EE
S11330A01746002287B0044680F85020876333BB5C
S11330B0066905684FF44063092EEB6021D905F1D8
S11330C0240301263C35626D606A04940132626512
S11330D0124A0197CDE90262012200920A46E16A8E
S11330E007F0A4FA0023CDE903330093CDE9017678
S11330F0A16A206A04F114032A4607F07DFA07B096
S1133100F0BDA6F109020BBF05F1180305F11C037C
S11331103035343556425641D5E700BF0130000002
S1133120F0B59B4F04460D460FCF8DB005AE0FC6CC
S113313097E8070086E80700002C00F027811DB9F6
S1133140944D28460DB0F0BD80220021204607F0A2
S113315095FF2B68904A934240F0B2808F4AE26414
S11331608F4AA2624FF4402226462F46E26246F876
S1133170043B0FCF0FC697E8070086E807006B7D76
S1133180012B08BF8DF82230AB7D33B1012B40F009
S1133190C0804FF40073ADF824302B7D8148012B9F
S11331A00ABF0023AB688DF821304FF0010108BF3E
S11331B04FF4E133079300F009FA7B48012100F052
S11331C005FAE06C012100F001FAEB681A1F0C2AE1
S11331D0B6D8033B05A928688DF8203002F080F9A1
S11331E06B69216823F47F0323F47F431BB90B68C5
S11331F043F480330B60AA792B796879EE7D12064B
S113320042EA032303438A6F002E40F08D8002F0CC
S1133210F8321343EA7943EA02438B670F234B677F
S1133220204603A9FFF7D6FB0546002889D19DF85F
S1133230123084F840309DF8133084F84130237EF6
S11332409DF80C009DF80D10002B75D104220193FC
S113325001F0C8FD019B9DF80F109DF80E0001229E
S113326001F0C0FDA27E9DF811109DF81000012A06
S113327094BF019B0123042201F0B4FDE37E3BB91A
S11332800123042294F8411094F8400001F0AAFDAF
S113329007F004FA454B1A78002A6BD101221A7000
S11332A007F002FA03F0C6FAFFF780FA002104F1EE
S11332B02000FFF703FA014600285ED03C4D40E7AA
S11332C03C4A934206D13C4AE2643C4AA2624FF42F
S11332D0502249E73A4A934206D13A4AE2643A4ACA
S11332E0A2624FF460223FE7384A934206D1384A3B
S11332F0E264384AA2624FF4702235E7364A9342B8
S11333007FF41EAF354AE264354AA2624FF480125C
S11333102AE7022B02D14FF480733CE7032B7FF49E
S11333200FAF4FF4407336E722F0072222F0070272
S113333013438B670B2372E72B46012201F052FDE6
S11333409DF80F109DF80E002B46042201F04AFD53
S1133350A37E9DF811109DF81000012B94BF2B46FD
S11333600123022201F03EFDE37E002B90D10123D4
S1133370022287E707F098F996E704F12400FFF7A3
S11333809DF9054600283FF4DCAE97E7154DD8E6D5
S113339044D20000022000F00000014000020400BA
S11333A001000C004041050000450A00E01A00201D
S11333B0092000F0000401400012040001000D0087
S11333C0000801400022060001000E00000C01402C
S11333D00032040001000F0000100140004204000C
S11333E001001000012000F0F7B5047E0193012CC8
S11333F005460E4617460CD0FFF72AFE044628B9A8
S1133400019B3A4631462846FFF746FE204603B064
S1133410F0BD014CFAE700BF082000F00C4B9842C5
S113342010D90C4B984210D9022201230A490B648B
S11334300A49D1F8003123F0407343EA0263C1F82A
S11334400031704700221346F0E70122FBE700BF7A
S11334500048E8010090D0030000C84300400E403B
S113346038B54FF0804300225B68104BC9B21C464C
S11334701D798D4202D11D68854213D20132072A7B
S113348003F10803F4D10A4841F2147107F05CF81F
S113349003224FF080414B6823F0407343EA0263F8
S11334A04B6038BD04EBC2025279F2E78CD30000C2
S11334B060D200001F2810B5044604D903484FF415
S11334C0B67107F041F80120A04010BDAED2000053
S11334D0044BDB6B5B0604D4034AD2F8C830002BE0
S11334E0FBD1704700300E400000C64308B5FFF71B
S11334F0EFFF024B5868C0F3014008BD00300E4096
S1133500044BD3F84421D20703D4D3F8402110420A
S1133510FBD1704700400E40B0F5004F38B505466A
S113352004D30C484FF4636107F00EF86C1C14BF0D
S1133530B4FA84F42024C4F11F042046FFF7BAFF30
S11335400138A84204D0034840F6376106F0FCFF76
S1133550204638BD00D300004FF0804341F671325D
S113356070B51E6C1A6405460C46FFF779FF134AC2
S1133570134B022C08BF13469D42124AB6B209D916
S11335804FF08C43C3F800210F4A954207D84FF0FF
S1133590884306E04FF08843C3F80021F7E7002C86
S11335A0F5D14FF480521A6041F671339E421EBF2A
S11335B04FF0804300221A6470BD00BF0024F40061
S11335C080D543020202020080F0FA02C0F3032213
S11335D0013A38B503460E2A3DD8DFE802F04346E7
S11335E03C36081B1E212539292E3C183300204C5B
S11335F00020C3F3043508B1FFF782FF04F142440D
S113360004F5801405EBC404A400216038BD194CF2
S11336100020EEE7184C0120EBE7184C1020E8E7F7
S1133620174C4FF48070E4E7164C4FF48030E0E719
S1133630154C81F001010020DBE7144C81F00101FD
S11336400020D6E7124C0020D3E7124C0020D0E72C
S1133650114C0020CDE7BDE83840104841F6B04198
S113366006F072BF0E4C0020C3E70E4C0020C0E7EA
S1133670B0400E40C4400E40E0400E40E8400E40D2
S1133680EC400E40F0400E4060410E4064410E405C
S1133690F0410E4068410E4050410E4060D200009F
S11336A000400E40C0400E4008B5C0F30313013B78
S11336B00B2B00F2AB80DFE803F0060C101A202479
S11336C0282C668692A5534BD3F80001C0F304203E
S11336D008BD504BD3F81401F8E74E4BD3F8000162
S11336E0C0F301600130FFF7E5FE0138F0E7494B14
S11336F0D3F80C01C0F30820EAE7464BD3F81801CD
S1133700F8E7444BD3F81C01F4E7424BD3F8080123
S1133710F0E7414B98422AD00ED8A3F5BA23984239
S11337202BD003F57033984215D041F654613B48D1
S113373006F00AFF0020CBE7394B984205D0394BFD
S113374098420ED0384B9842EFD1324BD3F8200137
S1133750C0F30230C7E72F4BD3F8200100F00F006D
S1133760C1E72C4BD3F82001C0F30120BBE7294B60
S1133770D3F82001C0F30310B5E7264BD3F820019A
S1133780C0F30340AFE7294B98420CD003F5A113D3
S113379098420ED0264B984212D11E4BD3F82801E2
S11337A000F003009FE71B4BD3F82801C0F301107E
S11337B099E7184BD3F82801C0F30130043092E79D
S11337C041F67861B3E71B4B984205D1114BD3F80E
S11337D0300100F003007BE741F68761A7E7164B51
S11337E0984205D0154B984206D041F69F619EE75A
S11337F0084BD3F85C01ECE7064BD3F85C01C0F34B
S1133800014065E7034BD3F8040173E741F6AC616B
S11338108DE700BF00400E408016180060D2000003
S113382000362C0080262E0080002A0090171C00F1
S113383090071A00A0091400B8003200B90034003F
S1133840C0F30313013B10B50C460B2B00F2188296
S1133850DFE813F00C0034004500600074008800B9
S11338609C00BC006101CE01DA0102021F2904D9C7
S1133870C44841F6D56106F067FE06F0F1FEC24881
S1133880FFF7CCFD00F00AFAC04BD3F8001121F485
S1133890F85141EA0424C3F80041FEF729FD044627
S11338A0FFF724FE01462046FFF756FEFEF7E6FC2E
S11338B0FFF7B4FDBDE8104000F006BA1F2904D993
S11338C0B04841F6EB6106F03FFEB04BD3F814115B
S11338D021F4F85141EA0424C3F8144110BD4B1EED
S11338E0B3F5004F0DD2B4FA84F1A84BD3F80041DC
S11338F0C1F11F0124F0407444EA0164C3F800419B
S1133900ECE7A3484FF4546106F01EFE002CEAD104
S11339102021EAE7B1F5007F04D39A4841F6F86123
S113392006F012FE994BD3F80C1121F4FF3121F467
S1133930807141EA0421C3F80C11CFE7B1F5007F8F
S113394004D3904841F6FF6106F0FEFD8F4BD3F897
S1133950181121F4FF3121F4807141EA0421C3F8E4
S11339601811BBE7B1F5007F04D3864841F607710F
S113397006F0EAFD854BD3F81C1121F4FF3121F444
S1133980807141EA0421C3F81C11A7E7B1F5007F57
S113399004D37C4841F60E7106F0D6FD06F060FEB5
S11339A07A4BD3F8081121F4FF3121F4807141EAF4
S11339B00421C3F80811FEF79BFC0446FFF796FDAB
S11339C001462046BDE81040FFF7C6BD714B984242
S11339D074D010D8704B984246D0704B984257D050
S11339E0A3F57033984226D041F68A71BDE81040A1
S11339F0644806F0A9BD6A4B984205D0694B9842C9
S1133A0073D0694B9842EFD1B4F5004F04D95D48A7
S1133A1041F67C7106F098FD2046FFF77DFD0146D6
S1133A200420FFF76DFD594AD2F8203123F4E04316
S1133A3043EA013315E0B1F5004F04D951484FF47E
S1133A40F95106F081FD2046FFF766FD014604208A
S1133A50FFF756FD4D4AD2F8203123F4702343EA90
S1133A600143C2F8203139E7022904D941F6317102
S1133A70444806F069FD4FF48020FFF741FD434BB5
S1133A80D3F8301121F003010C43C3F8304125E78A
S1133A90B1F5004F04D93B4841F64E7106F054FD90
S1133AA02046FFF739FD01460420FFF729FD374A78
S1133AB0D2F8203123F00F030B43D2E7B1F5004FC6
S1133AC004D9304841F65D7106F03EFD2046FFF70B
S1133AD023FD01460420FFF713FD2C4AD2F82031C0
S1133AE023F0F00343EA0113BBE7082904D925486E
S1133AF041F66C7106F028FD2046FFF70DFD0146E6
S1133B000420FFF7FDFC214AD2F8203123F440734E
S1133B1043EA0123A5E7254B98421DD003F5A113E1
S1133B20984247D0224B98425FD1082904D91548BE
S1133B3041F6937106F008FD2046FFF7EDFC0146BF
S1133B404020FFF7DDFC114AD2F8283123F00303AB
S1133B500B43C2F82831C1E6082904D9094841F6C3
S1133B60A27106F0F1FC2046FFF7D6FC0146402086
S1133B70FFF7C6FC054AD2F8283123F0300343EAA4
S1133B800113E6E760D200000148E80100400E405E
S1133B9000D3000080161800A00914008006160047
S1133BA000362C0080262E0080002A0090171C006E
S1133BB090071A00A1F10F03702B04D9324841F683
S1133BC0B17106F0C1FC2046FFF7A6FC0146402077
S1133BD0FFF796FC2D4AD2F82801043920F440500E
S1133BE040EA0130C2F8280178E64FF4FE51FDE6C0
S1133BF0274B984205D102297FF63DAF41F6CA71A1
S1133C0036E741F6DA71F1E6224B984205D0224BB1
S1133C10984212D041F6F371E8E6032904D91A4810
S1133C2041F6E57106F090FC184BD3F85C1121F0D5
S1133C3003010C43C3F85C4150E6032904D912483C
S1133C4041F6ED7106F080FC104BD3F85C1121F4C1
S1133C50403141EA0444EDE7B1F5007F04D30A485A
S1133C6041F6FB7106F070FC084BD3F8041121F403
S1133C70FF3121F4807141EA0421C3F804112DE6D7
S1133C8042F20201B2E600BF60D2000000400E40E2
S1133C90A0091400B8003200B900340008B5074880
S1133CA00321FFF7CDFD06480321FFF7C9FDBDE859
S1133CB0084004480321FFF7C3BD00BF404105008D
S1133CC0504107006041090037B5FEF7D7FA0446B2
S1133CD0FFF70CFC022817D1194B1A481A491C4447
S1133CE09C42B4FBF1F188BF01F1FF310191FFF770
S1133CF0A7FD01991548FFF7A3FD0199144803B0E6
S1133D00BDE83040FFF79CBD124B134D0D48E2183F
S1133D109A42B2FBF5F588BF05F1FF352946FFF756
S1133D208FFD0B482946FFF78BFD0C4B0C490748C8
S1133D301C449C42B4FBF1F188BF01F1FF31DEE782
S1133D40FF2C310140410500002D31015041070095
S1133D50604109007FF0FA0280F0FA02FFA14A04F0
S1133D6000A24A0400F00F00013808B50C2800F244
S1133D708480DFE800F007121C30263A8244526047
S1133D806C707900454BD3F8943003F00703023B81
S1133D90052B7FD8424AD05C08BD404BD3F8803015
S1133DA003F00703013B032B76D83E4AF3E73B4B72
S1133DB0D3F8843003F00703013B032B6CD83A4A51
S1133DC0E9E7364BD3F8883003F00703013B032BB4
S1133DD062D8364ADFE7314BD3F88C3003F007035F
S1133DE0013B032B58D8324AD5E72C4B1B6F13F0F9
S1133DF0030349D0012B14BF01200920CCE7274B32
S1133E00D3F85C3103F03003202B3FD0302B3FD06C
S1133E10102B14BF01200720BEE7204BD3F85C31E0
S1133E2003F44013B3F5001F30D0B3F5401F2FD077
S1133E30B3F5801FEDE7194BD3F8600100F00300E0
S1133E40431E022B26D800EB40000130A4E7134B9D
S1133E50D3F86401F2E7114BD3F8F03103F0070310
S1133E60052B19D8134A96E70C4BD3F8683103F0A5
S1133E700303032B10D0104A8DE7104842F20121AE
S1133E8006F062FB002087E7072085E7042083E72C
S1133E90082081E705207FE701207DE700400E40F0
S1133EA051D3000057D300005BD3000057D3000068
S1133EB057D300005FD3000065D3000060D2000038
S1133EC038B5314B984205460BD01ED82F4B98423B
S1133ED007D02F4B9D4204D02E4841F6130106F023
S1133EE033FB2846FFF73EFF274B9D42044625D06F
S1133EF00DD8264B9D4211D0254B9D421AD0254802
S1133F0041F6420106F020FB0DE0234BE2E7224B91
S1133F109D42F4D1214BD3F8884002E01F4BD3F8E3
S1133F20804004F00704042C27D8DFE804F0240BB5
S1133F300F171300194BD3F88440F2E7174BD3F84B
S1133F408C40EEE7BDE8384006F0F8BABDE83840EA
S1133F50FEF704BABDE8384006F0F3BAFEF78EF96E
S1133F600E4B0446D3F80001C0F301600130FFF7A3
S1133F70A1FAB4FBF0F4204638BD064841F694019A
S1133F8006F0E2FA0024F6E70400220002001E0014
S1133F900300200060D200000500240000400E4011
S1133FA0012808B514BF12481248FFF7DBFE013898
S1133FB0072816D8DFE800F01A1515071515040BA5
S1133FC00D4B186808BDBDE80840FEF7A3B9FEF71D
S1133FD055F90A4BD3F80031C3F3042303FB000063
S1133FE0F0E7074841F20D6106F0AEFA0020E9E778
S1133FF0B8003200B90034006012002000400E40C6
S113400060D2000038B500F47813B3F5E01F05461C
S113401000F000814CD8B3F5602F00F0148123D850
S1134020B3F5C02F00F0A6800DD8B3F5003F00F023
S1134030AD80B3F5802F00F09280002B00F00B814F
S11340404FF4EF510DE1B3F5202F00F09980B3F553
S1134050402F00F0A180B3F5002FF1D1FEF70EF947
S1134060B74BD3F81C317FE0B3F5B01F00F0AF803D
S11340700DD8B3F5901F00F09780B3F5A01F00F0A2
S11340809D80B3F5801FDBD1AE4B186871E0B3F5AA
S1134090C01F00F0AA80B3F5D01FD1D1AA48FFF702
S11340A00FFFA74B0446D3F8280100F0030097E064
S11340B0B3F5481F00F0DA8029D8B3F5201F00F0CB
S11340C0BE800FD8B3F5001F00F0A280B3F5101F17
S11340D000F0B780B3F5F01FB2D19C48BDE838407A
S11340E0FFF7EEBEB3F5381F00F08980B3F5401F2B
S11340F000F09A80B3F5281FA2D19448FFF7E0FEA0
S11341008F4B0446D3F82001C0F3023068E0B3F5C6
S1134110681F00F0E88013D8B3F5581F00F0AF8093
S1134120B3F5601F00F0C580B3F5501F88D101209E
S1134130FFF736FF824BD3F85C31C3F3014315E03C
S1134140B3F5701F00F0EB80B3F5781F7FF478AF00
S1134150FEF794F80446284606F094FA42E0FEF787
S11341608DF8774BD3F80C31C3F308230133B0FB3C
S1134170F3F038BDFEF782F8714BD3F81831F3E74A
S1134180FEF77CF86E4BD3F80431EDE7FEF776F8D2
S11341906B4BD3F80831E7E7FEF770F8684BD3F8B8
S11341A01431C3F30423E1E76848FFF789FE644B45
S11341B0D3F82031C3F30343D840DAE76448FFF768
S11341C07FFE5F4BD3F8303103F00303F4E75F481D
S11341D0FFF776FE5A4B0446D3F8200100F00F0097
S11341E0FFF768F9B4FBF0F0C3E75848FFF768FE3F
S11341F0534B0446D3F82001C0F30310F0E75348AF
S1134200FFF75EFE4E4BD3F82031C3F30123D3E70F
S11342104D4863E74C48FFF753FE494B0446D3F837
S11342202801C0F30110DBE74748FFF749FE444B80
S11342300446D3F82801C0F301300430D0E74548E0
S11342404CE743484AE74448FFF78CFD07283FF40E
S11342501BAF092803D1BDE83840FEF70FB841F27F
S1134260D6513E4806F070F9002082E70020FFF79F
S113427097FE334BD3F85C3103F0030376E73848F9
S1134280FFF770FD0438062810D801A353F820F076
S11342903143000039430000AD4200008940000072
S11342A0AD420000AD4200003D43000041F23761E1
S11342B0D7E72C48FFF756FD0438062810D801A389
S11342C053F820F03143000039430000E14200007C
S11342D089400000E1420000E14200003D4300004B
S11342E041F26961BDE72048FFF73CFD0238092827
S11342F012D8DFE800F0090D1D2111111111230559
S1134300FEF708F8400034E7BDE83840FEF726B869
S1134310BDE8384006F012B94FF4B651A1E713488E
S1134320FFF720FD052807D00A2807D0042823D149
S1134330BDE83840FDF7EEBF0D4BA6E60D4BA4E6F5
S113434000400E40601200200300200002001E0006
S1134350050024000400220006000E0060D20000C4
S11343600A7B36000B7C38000C7F3A000D743C004D
S1134370541200206412002041F28F6171E700BFE3
S1134380014B1880704700BF38140020022838B54C
S11343900C4604D00D4842F6D63106F0D5F80C4D43
S11343A06B6AC3F30113012B0DD064B1074842F6C5
S11343B0F13106F0C9F8074BD5F8902033EA020230
S11343C0FAD1012038BD4FF48003F5E760D2000034
S11343D000400E40FF3F4F3A05282DE9F0470446C0
S11343E00F4691461FD83E4B3E4A13F800A03E4B61
S11343F013F80080F1B93D4B33F8103013660123F4
S113440003FA08F8D2F8903013EA080FFAD1B9F198
S1134410000F61D00125334A05FA0AF5D2F890302D
S11344202B42FBD158E0BDE8F047314842F6BB21AE
S113443006F08AB82F4B022833F810604ED1536A25
S1134440C3F30113012B49D12B4BDB6B5B0504D464
S1134450274842F6CA2106F077F8224A536A03F045
S11344600303032B05D1536A23F0300343F02003E5
S11344705362224D1B4BA8441E664FEA8808D8F8A5
S11344800030002BFBD0B9F1000F25D05544AD000E
S11344902B68002BFCD0022C1ED1EFB1114B5B6AB0
S11344A003F00303032B03D000212046FFF76EFF24
S11344B00F4842F6473106F047F801220021022056
S11344C0FFF78AFF0A4842F6BE3106F03DF8054B75
S11344D01E662B68002BFCD0BDE8F0870027C8E7D8
S11344E068D3000000400E406ED3000080D300006B
S11344F060D2000074D3000000300E408004F2103B
S113450038B5FDF707FF0021044600F0B7F9144859
S1134510FEF784FF012211460220FFF75DFF06F03B
S11345209FF8FFF7BBFB0CB1FEF7D2FF0D4B022245
S11345305A67FDF7A3FEFEF771FFFDF7D9FE0546A6
S1134540FEF7D4FF01462846FFF706F81CB90121FF
S1134550204600F093F9BDE83840FFF7B5BB00BF33
S11345600148E80100400E4038B504461120FFF729
S1134570F9FB042804D11F4842F64A1105F0E4FF70
S1134580012200210220FFF727FFE37A022B2AD819
S1134590194AD25C194D6B6A23F0030313436B620F
S11345A0FDF7B8FE164B2288984294BF08200020DD
S11345B06B6A23F008031843A388686243EAC223A2
S11345C0EB622B6BE2881B0D1B051343628843EAE5
S11345D0C2232B63637A227A1B0143EA0233A27A51
S11345E013436B6338BD034842F65E1105F0ACFF1C
S11345F00022CFE760D200004ED3000000400E40FE
S113460040787D0170B505461120FFF7ABFB022809
S113461004D10F4842F6082105F096FF0D4E0E4BCB
S1134620B26B2C7813401C436B7844EAC324AB78F8
S113463044EA0364EB7844EA0324B36BA34205D051
S1134640002101220846FFF7C7FEB46370BD00BF16
S113465060D2000000400E4080E4FFF8034BD86BAA
S113466080F04000C0F38010704700BF00300E405F
S113467038B542EA0323B3F5007F05460C463ED025
S113468019D8B3F5807F36D00AD883B3012B21D053
S11346901F4840F6312105F057FF002213461FE062
S11346A040F201129342F3D11A4BD3F824321A0E7A
S11346B0C3F3074314E0B3F5407F24D040F2013242
S11346C0934210D040F201229342E1D1114BD3F82E
S11346D0283202E00F4BD3F82432C3F30722DBB2B3
S11346E02B60226038BD0B4BD3F82832DFE7094B2F
S11346F0D3F81C32F1E7074BD3F81C32D7E7054B4C
S1134700D3F82032E9E7034BD3F82032CFE700BFD8
S1134710C4D300000081E00F08B5FFF79FFF20B16C
S1134720024AD2F8C830002BFBD108BD0000C643B2
S11347301A4B022810B5D3F830320C4612D0032895
S113474013D0012814BFDBB2C3F307231B0323F4E4
S11347507042ECB95AB14FF41C61114805F0F4FEF3
S1134760002010BDC3F30743F0E71B0EEEE70D492D
S1134770CA6E22F470421343CB660120F1E7094963
S1134780D1F8EC2022F470421343C1F8EC30F4E782
S1134790002AF4D040F6CC11DFE700BF0081E00F1F
S11347A0C4D3000000300E400378134A002B437832
S11347B070B514BF04260026002B8378946914BFB7
S11347C002250025002B037924F03F0443EA040367
S11347D0C47814BF08210021012C08BF43F0010351
S11347E033432B430B4393611368417923F44033E0
S11347F043EA0143136070BD00300E40F8B504462F
S11348000F46FFF72BFF78B3FFF786FF174B5B6864
S1134810C3F301439C4227D0154BD3F80061FDF745
S11348202DFD022C05460FD1124BC6F3042606FBC0
S113483000069E4204D9104840F2577105F084FEE8
S113484002212846FEF788FEC4F102021023934099
S1134850064A13610FB1FFF75FFF2CB921462846C2
S1134860BDE8F840FEF778BEF8BD00BF00300E404A
S113487000400E40002D3101C4D3000013B50246A0
S1134880FFF7ECFEC8B152B90D4B0191D3F80041CA
S1134890FDF7F4FCC4F30422019902FB0002094B66
S11348A01B7843B1084B9A4205D8022002B0BDE8F8
S11348B01040FFF7A3BF0020F8E702B010BD00BF0F
S11348C000400E40E11A0020002D3101174B4AF63A
S11348D0E85210B5596B5A639A6FD407FCD41B6C19
S11348E013F003031EBF124A0124C2F8B44A8342E0
S11348F016D00E4B9A6FD207FCD41A6C22F0030226
S113490002431A649A6F12F00102FBD10038084C7A
S113491018BF01200129C4F8B40A08BF5A6303E090
S113492010B9034BC3F8B40A10BD00BF00300E40E9
S11349300000C6432DE9F04FA0F5E16389B00024DF
S1134940B3F5966FCDE90244CDE90444CDE90644BC
S113495006468A46934605D940F6BA31554805F0CD
S1134960F3FDA3E0B0F5E16F534B8CBF01220022AD
S113497049D1D3F81832C3F30721DBB2079104936A
S11349804FF416754FF4966748E0BBF1000F0ED054
S1134990D9F85C2022F4FE4222F00202B6F5E16F5F
S11349A042EA012218BF02200243C9F85C20BAF18E
S11349B0000F26D020460021FFF7BAFE044610B9A6
S11349C040F61741CAE701214046FFF7B1FE04460D
S11349D010B940F61F41C1E7384A536EBD4238BF93
S11349E03D4623F4FF73E72D23F0010328BFE72599
S11349F0B6F5E16F18BF43F0010343EA450353667C
S1134A0054E0012452E0D3F81832190EC3F30743DB
S1134A10079104934FF496654FF4E167DFF89C9097
S1134A20D9F84C400192C4F30174234605A902A8A5
S1134A30FFF71EFED9F8EC30019AC3F30128434670
S1134A4006A903A8FFF714FE049BF01B079FF91A9D
S1134A504143B1FBF5F299182CBF012300238F4287
S1134A601ED3EBB9069A039FD31B4343B3FBF5F361
S1134A70FF182CBF01230023BA4211D383B9059B2D
S1134A80029AA3EB020C00FB0CF0B0FBF5F55519F0
S1134A902CBF01200020AB4202D300283FF475AFA5
S1134AA0044840F6084105F04FFD0024204609B0B3
S1134AB0BDE8F08FC4D300000081E00F00300E4049
S1134AC0334A08B5136FD16C11F0010F03F00603DC
S1134AD044D0002B42D0132857D9143813288CBF44
S1134AE0102308232A49013BCA6C180322F47F428D
S1134AF040EA03231343CB64264BCA6C1B88C2F3DE
S1134B0003222833013202EB820003EB5303B3FB8D
S1134B10F0F3C86C013B072B28BF072320F0EE609D
S1134B2040EA036343F48013CB641B4BB3F90030B6
S1134B30002B12DB03F12800C0F34E03034450089A
S1134B4000EB4202B3FBF2F20B6D072A28BF0722E7
S1134B5023F0700343EA02120A6508BDD16C01F028
S1134B600101194304D109280FD90A380928B6E7E5
S1134B70D26CD20702D50BB92728B0E7074840F614
S1134B805D4105F0E1FC0023ACE70423AAE700BF84
S1134B9000300E409E1A0020A01A0020C4D300004A
S1134BA00C4BD3F8803910B5044633B9012804D925
S1134BB0094840F67B4105F0C7FC084A136F23F00F
S1134BC0070323431367064BBDE810401888FFF71B
S1134BD077BF00BF0000C643C4D3000000300E40BE
S1134BE09C1A002038B50389C82B044604D95148BF
S1134BF040F65F2105F0A8FCA28823899A4204D9D3
S1134C004C484FF4266105F09FFCB4F90C30C82BD6
S1134C1004DD484840F6612105F096FC6378012BD9
S1134C2055D1A388C82B04D940F66521414805F025
S1134C308BFCE28842F210739A4204D93D4840F654
S1134C40722105F081FCE3884A2B48D9B3F5FA7F39
S1134C5047D340F6C312934294BF4FF000524FF033
S1134C6040523549B4F90C00CB6C23F0405323F087
S1134C7001030028A8BF43F001031343CB64D1F818
S1134C80EC30A28843F44073C1F8EC302B4B1A800B
S1134C90CB6E43F08073CB66294BD3F8800900B107
S1134CA00420FFF77DFF274B21891980264BB4F997
S1134CB00C20A0881A80FFF703FFA37BA3B1012B6C
S1134CC023D01C4840F6711105F03EFC0FE0022B86
S1134CD0AFD1A3880A2BACD940F66A21A6E70022FB
S1134CE0BFE74FF08052BCE7134B184A9A65012284
S1134CF060881146FFF71EFE054648B90D4840F688
S1134D00A92105F021FC284638BD0B4B104AEDE7DC
S1134D10094AD36B43F48063D3636078FFF7D6FD0D
S1134D20A37AA3F1200253425341054AC2F89437AF
S1134D30E9E700BFC4D3000000300E409C1A0020F5
S1134D400000C6439E1A0020A01A00207740205776
S1134D50372110B7042838B504460D4618D905285C
S1134D6004D147F6FF73EB40DB0704D40A4840F252
S1134D702D4105F0E9FB30230C2013FB040000F166
S1134D808C40012100F5082001FA05F5056038BDC5
S1134D904FF6FF73E7E700BF99D10000042838B548
S1134DA004460D4618D9052804D147F6FF73EB4095
S1134DB0DB0704D40A4840F2FE3105F0C5FB30237A
S1134DC00C2013FB040000F18840012100F50820A9
S1134DD001FA05F5056038BD4FF6FF73E7E700BF3C
S1134DE099D100000428F8B504460D4616461F461E
S1134DF029D9052804D147F6FF73EB40DB0704D417
S1134E001A484FF4B07105F09FFB26B1294620469D
S1134E10E7B1FFF79FFF04EB4403072D4FEA0313A9
S1134E204FF00F0115D8A80006FA00F2814010488F
S1134E30184405F03CFCC6B9294620468FB1BDE8AC
S1134E40F840FFF787BF4FF6FF73D6E7FFF7A6FFDB
S1134E50E1E7A5F10800800006FA00F28140054868
S1134E60E6E7BDE8F840FFF799BFF8BD12D40000AB
S1134E700480084008800840074B0422C3F88020BF
S1134E80BFF34F8FBFF36F8F044B0021D9664FF4EC
S1134E90CA401962FEF79ABB00E100E0002000401E
S1134EA00B2838B505460C4603DD0848772105F084
S1134EB04BFB1F2D84F0010403D90548912105F013
S1134EC043FB044B2B449B001C6038BD61D40000A1
S1134ED0B0D40000A001811010B5044618B91B48D5
S1134EE0912105F031FB23781B0613F0704F03D09A
S1134EF01648922105F028FBE378072B03D91348C1
S1134F00A32105F021FB01214FF4CA40FEF75EFB0B
S1134F10B4F8013022785BBA9BB243EA02630C4ACC
S1134F20136000231362D36253634FF00043D366CC
S1134F304FF0FF339366074A0421C2F88011E378E7
S1134F405B01DBB282F80233116010BD61D4000052
S1134F500020004000E100E02DE9F041C3B2012649
S1134F600B2805460C46904606FA03F603DD3A483C
S1134F70EC2105F0E9FA1CB93748ED2105F0E4FA13
S1134F80236823F47C1323F00F031BB13248F2216E
S1134F9005F0DAFAA37A1B0413F47C0F04D02E482C
S1134FA040F2091105F0D0FAE37A1B0513F07E6F85
S1134FB004D0294840F20B1105F0C6FA237B5B05A7
S1134FC013F0FE5F04D0244840F20D1105F0BCFA42
S1134FD0224F637BBE66302000FB05702268C0F858
S1134FE08020C0F88830E37AA27A1B0543EA0243A2
S1134FF0227B43EA425328F00302C0F88430C0F80D
S1135000982005F04BFBFB6E3343FB66237A13B108
S11350107B6B33437B63637A13B1FB6A3343FB6279
S11350200E4B1A68237923B1DB431B0263F47F43DD
S11350301A4063790BB142EA0322A3790BB122EA45
S11350400302E3791A43054B1A60054A9662DE634C
S1135050BDE8F04105F028BB61D400000020004009
S11350600020004410B5C3B201240B2804FA03F451
S113507004DD094840F2971105F066FA05F00EFBCD
S1135080064AD36E23EA0403D366054B1C62BDE8CB
S1135090104005F009BB00BF61D4000000200040AF
S11350A00020004410B5C3B201240B2804FA03F411
S11350B004DD0B4840F2B51105F046FA05F0EEFAAE
S11350C0084B1A6A224209D19B6A34EA03030CBFD3
S11350D00124002405F0E8FA204610BD0024F9E775
S11350E061D4000000200040022838B504460D4673
S11350F003D911484C2105F027FA6B791F2B03D9EA
S11351000D484F2105F020FAAB786A789B0143EAF9
S113511082032A781343EA7843EA02132A7943EA9A
S1135120C2236A7943EA0233AA79043443EA424344
S11351302401024A135138BDFED400000020064069
S1135140014B1860704700BF0000C44242780179E7
S11351500378002A827870B514BF04260026002A3A
S1135160C27814BF10250025002A42794FEA023282
S113517042EA012242EA0302837942EA8332C37992
S113518014BF20240024002B037A42EA034343EA99
S11351900603427A43EA050314BF4FF40041002199
S11351A02343002A14BF4FF4003200220B4313435D
S11351B0014A136070BD00BF002006402DE9F04194
S11351C080460C461F46164622B934484FF4A17156
S11351D005F0BAF93CB9324B98450CBF3148324816
S11351E0FEF710FF0446402F4BD009D8A7B1202F5B
S11351F03DD0BDE8F041294840F2891105F0A4B939
S1135200602FF6D1B6EB940F04D9244840F28311F1
S113521005F09AF9042108E0B6EB141F04D91F48DD
S11352204FF4BA7105F090F910214E4371081F4DE7
S113523001EB4414B4FBF6F6203EB5EBC60F4FEA7F
S1135240C60404D215484FF4D07105F07DF9D8F89E
S1135250003023F06003C8F80030D8F800302C4048
S11352601F43C8F80070C8F81440BDE8F081B6EBDD
S1135270D40F04D9094840F2791105F065F90821E1
S1135280D3E70625B4FBF5F3B34204D203484FF445
S1135290BF7105F059F92946C7E700BF4DD5000095
S11352A0000801405041070040410500F8FF7F001D
S11352B070B506460C46154622B90F4840F28E21B9
S11352C005F042F93CB90D4B9E420CBF0C480D4809
S11352D0FEF798FE04460C4B6D00013CB4FBF5F45C
S11352E013EA04234FEA042504D0034840F2B3210F
S11352F005F02AF9756170BD4DD500000008014024
S11353005041070040410500070080FF38B5144BA9
S1135310984204460D461CD003F58063984218D089
S113532003F58063984214D003F58063984210D04B
S113533003F5806398420CD003F54053984208D09B
S113534003F58063984204D006484FF4337105F0A6
S1135350FBF8EB435B0003F00A03E360E56038BD50
S1135360000001404DD5000038B5264B264D98422B
S113537004461AD0A84218D003F50063984214D00A
S113538003F58063984210D003F5806398420CD0F3
S113539003F54053984208D003F58063984204D043
S11353A01A4840F2424105F0CFF840F6AA63E360A0
S11353B041F20502002323606260154AA360636121
S11353C0E364A26423666367A367E3670D4B9C42AF
S11353D009D0AC4207D003F500639C4203D003F527
S11353E080639C4201D1002323650023AC42A36562
S11353F006D0084A944203D002F58062944200D158
S1135400E36538BD00000140000401404DD50000B3
S1135410F9FF0100000C014038B52F4B98420446B7
S11354200D461CD003F58063984218D003F58063C1
S1135430984214D003F58063984210D003F580633A
S113544098420CD003F54053984208D003F580638A
S1135450984204D0214840F2FD2105F075F8204619
S1135460FFF782FFAB7C1BB1236843F080432360CA
S1135470EB7C1BB12B7D43F08003A3652A8A6B7BF5
S11354801343EA89134363602B7BD5E90112204659
S1135490FFF794FE6B7D1BB1236843F480332360D4
S11354A0AB7D1BB1236843F400432360EB7D2A7E6C
S11354B01B07120502F4E00203F0E04313432366E2
S11354C0636F23F030036367626F6B7E134363671C
S11354D02B78E36038BD00BF000001404DD50000CB
S11354E038B52F4B984204460D4614D003F580631B
S11354F0984210D003F5806398420CD003F5806382
S1135500984208D003F58063984204D0254840F2BD
S1135510693105F019F82046FFF726FFA97B2A8A8E
S11355202368002942F0010214BF4FF48061002176
S113553013430B432A7D23602368002A14BF4FF0D2
S11355400052002213432360AB7C1BB1EB7C43F07D
S11355508003A3652B7B43F480536360D5E9011278
S11355602046FFF7A5FE6B7B0BB11023E3606B7D38
S11355701BB1236843F480332360AB7D1BB12368E4
S113558043F400432360EB7D2A7E1B07120503F0DE
S1135590E04302F4E002134323662B78E36038BD52
S11355A0000001404DD5000010B54FF42F720446A1
S11355B0002105F063FD8023C4F88C30054BC4F84A
S11355C08430012384F8883004F19C00BDE8104045
S11355D004F0BBBF41D7000010B5D0F8A0400A4684
S11355E074B905F032FA044640B12D2896BF074B32
S11355F0074953F82010074805F077FB204610BDF3
S1135600D0F8A4101046A0470024F7E7FCD500000A
S11356109DD500000DDE000090F8803070B5044682
S11356200BB1002070BD05F05BF80028F9D101230F
S113563084F8803094F8883033B184F88800D4F842
S11356408410164805F051FB4FF0FF36D4F8B452DD
S11356506A1C1CD0C4F8B462204605F03EF8E9B2D6
S1135660204600F0A5FB0028F0D0204605F03AF8CB
S113567094F8880038B1D4F88410084805F035FB54
S1135680002084F88800002384F88030CAE705F0FD
S113569011FB431C0546DFD10120F4E73AD7000093
S11356A0F8B50B78302B05460E46174604D14B78D7
S11356B003F0DF03582B12D02A49721E12F8014F4F
S11356C0002C39D10A222146304603F097F8202DC8
S11356D003460A4635D1631A5842584118E04A1C19
S11356E0204912F8013FA3B9304605F0E5FD1E4BF1
S11356F02B40032BA0F1020015D16B1C48BF2B1DBE
S11357009B1083420BD1B07837288CBF0020012036
S1135710F8BD5B5C13F04403E3D11846F8E7CCBF53
S113572001200020F4E7002DB8BF0335B0EBA50F2E
S1135730D4BF01200020EBE7635C13F00403BDD168
S1135740EBE727B1084302D0013B61F100020120DD
S113575000FA05F5013D1D40002A08BF9D4218BF0F
S11357600020D5E704D900000300008070B5037859
S11357707B2B16D10C4E05460221002215F8014F51
S11357807D2C05D1435C63B9D04300F0010070BDAA
S1135790A35D13F0440302D001320131EEE7202C63
S11357A0FBD00020F3E700BF04D9000070B5064623
S11357B00D4605F081FD0446304605F096FA044E88
S11357C0AC4200D370BD304605F08FFA0134F7E7E0
S11357D0F9BC00002DE9F84F044602215048FFF7B8
S11357E0E5FF1E212068FFF7E1FF6368586805F0B4
S11357F07CFA4C4805F079FA67683B7BFD2B12D89C
S1135800D7F80880DFF81891DFF878A1DFF850B1F5
S1135810404605F051FD0C3705464FF0FF3617F8AA
S1135820013BFF2B01D1BDE8F88F212B17D8212B89
S113583033D8DFE803F06D736F11181A1C1E32326F
S113584032323232323220222426282A2C2E32328C
S11358503232323232326930334C1DB31FE0FE2B08
S11358605AD0324CF9E7324CF7E7324CF5E7324C78
S1135870F3E7324CF1E7324CEFE7324CEDE7324CD0
S1135880EBE7324CE9E7324CE7E7324CE5E7324CE0
S1135890E3E7324CE1E7324CDFE7244C05B1013653
S11358A0202BBCD002214846FFF780FF1E2148462A
S11358B0FFF77CFF504605F018FA5946204605F0DC
S11358C0F1FC2849002818BF2146274805F00DFAA5
S11358D03B78202B02D12B2005F0FBF9234805F05F
S11358E004FA4DB118F806301F2B05D018F806003D
S11358F01F2801D0AE4203DB0A4805F0F6F98EE713
S113590005F0E7F90136F1E7002D88D0184CC6E719
S1135910184CA2E7184CA0E7184C9EE7184C9CE7DB
S113592041D70000A9BC0000CAD60000B4D60000CC
S11359301FD70000D0D6000011D700000DD70000FB
S113594004D70000FAD60000F0D6000005D7000006
S1135950FBD60000F1D60000E6D60000DFD600003A
S1135960D6D60000C7D600003AD7000027D70000DB
S1135970BCD60000C9D60000CFD6000018D700005E
S11359801ED7000025D700002DE9F04F95B005463D
S113599088469146049305F08FFC1E9F049B079054
S11359A000261E600CAA3E600BA9284605F0BEF92D
S11359B00446002840F0C2800C9805F07DFC049B4E
S11359C001941860D5F89C3003932646039B1BB9B9
S11359D0204615B0BDE8F08F039B9B680293002B13
S11359E077D02E4416F8013B202B13D000260C232D
S11359F0029A734302EB030BD158002964D00B9B2A
S1135A00019A069393425FDB9BF8083033B106F1A9
S1135A10010A3FE03B6801333B60E3E73B68D5F8AC
S1135A2094200591D21A049B1A60019B14A800EBE0
S1135A30830353F8203C0993184605F045FC82463D
S1135A400028E4D105990891084605F035FCDBF8F7
S1135A500430059393F80CC0D7F800B0BCF1FE0FE6
S1135A60DDE9081302461AD1069800F1FF3E0198B9
S1135A70864514D0059A18461268029205F01CFC5B
S1135A800BF1010B584438603B68EA5C22B1019B7E
S1135A90013301935646AAE701333B60F4E7D5F896
S1135AA094300991A3EB0B039342089221DC404606
S1135AB005F002FC089A099910447B280DD9204A64
S1135AC04946404604F064FD079BEA182B4693427E
S1135AD02DD1039B1B68039378E70A464046494649
S1135AE004F056FD174A49464046013404F050FD7F
S1135AF08DE7BCF1FE0F8AD1069B019A013B9342CC
S1135B0085D1059BD3F800A05AF80C2B22B9079B2A
S1135B103B60049B1A60D7E74946404604F038FDD1
S1135B20084A4946404604F033FD0134ECE719784D
S1135B3011B94FF0200119700133C8E7344647E723
S1135B402AD70000F9BC00002DE9F04786B0DDE952
S1135B500EA800241C60064689468AF80040116895
S1135B60154888F8004017461D468DF81740FCF785
S1135B700BFC18B92B6801332B600124D6F89C6008
S1135B80002036B914B1012388F8003006B0BDE80E
S1135B90F087B06868B14B46CDE902A8CDE900753D
S1135BA00DF11702002104F0EDFE9DF81730002BD3
S1135BB0E8D13668E5E700BF2FD700002DE9F047AC
S1135BC00026ADF5447D04467C22314605A80DF13E
S1135BD00808049605F052FACDF8008003AB802241
S1135BE004A92046FFF7D0FE01283ED104A805F001
S1135BF063FB0399D8F80030471A0B44234427EA7F
S1135C00E777054604A801443A46184605F00EFA1B
S1135C10C655D4F89060039BD8F80010D4F89020AF
S1135C201944B14212DCD4F89410E81A0244C4F8BE
S1135C309020014404AAC4F89410D41825182B1BEE
S1135C40002B0DDC0DF5447DBDE8F087A05C05F06C
S1135C5040F8D4F890300133C4F890300136DAE7D4
S1135C6014F8010B05F035F8E9E7EBDD24AD8022EB
S1135C703146284605F002FA44AB4FF40072184648
S1135C80314605F0FBF90DF1100A034652464FF078
S1135C90010912F8017B002F48D143F8296004A8B8
S1135CA005F00AFB29463B461AF8016B44AF57F846
S1135CB0042B824243D10133994501F8016BF3DA95
S1135CC0D4F89060039BB34242DC374A37482346FA
S1135CD004A905F00AF8284605F0EEFA039ED8F860
S1135CE0007035443744861B26EAE672E3191744EC
