:100000000010002031060000BF1A0200BF1A0200D3
:10001000BF1A0200BF1A0200BF1A0200BF1A020074
:10002000BF1A0200BF1A0200BF1A0200BF1A020064
:10003000BF1A0200BF1A02002FE30100BF1A02001C
:10004000BF1A0200BF1A0200010E0000BF1A020010
:10005000BF1A0200BF1A0200BF1A0200BF1A020034
:10006000BF1A0200BF1A0200BF1A0200BF1A020024
:10007000BF1A0200BF1A0200BF1A0200BF1A020014
:10008000BF1A0200BF1A0200BF1A0200BF1A020004
:10009000BF1A0200BF1A0200BF1A0200BF1A0200F4
:1000A000BF1A0200BF1A0200BF1A0200BF1A0200E4
:1000B000BF1A0200BF1A0200BF1A0200B9F5010000
:1000C000BF1A0200BF1A0200BF1A0200BF1A0200C4
:1000D000BF1A0200BF1A0200BF1A0200F105000099
:1000E000031A0200BF1A0200BF1A0200BF1A020060
:1000F000BF1A0200BF1A0200BF1A0200BF1A020094
:10010000BF1A0200BF1A0200BF1A0200BF1A020083
:10011000BF1A0200BF1A0200BF1A0200BF1A020073
:10012000BF1A0200BF1A0200BF1A020015300000F9
:10013000BF1A0200BF1A0200BF1A0200BF1A020053
:10014000BF1A0200BF1A0200BF1A0200BF1A020043
:10015000000000000000000000000000000000009F
:1001600001F0FF01102A2BDB10F0070F08D010F868
:10017000013B013A8B422DD010F0070F42B3F6D16C
:10018000F0B441EA012141EA014122F007047FF085
:1001900000070023F0E80256083C85EA010586EADC
:1001A000010685FA47F5A3FA87F586FA47F6A5FA18
:1001B00087F68EB9EED1F0BC01F0FF0102F0070224
:1001C00032B110F8013B013A83EA010313B1F8D1CF
:1001D0000020704701387047002D06BF35460338B0
:1001E000073815F0010F07D1013015F4807F02BFE9
:1001F000013015F4C03F0130F0BC0138704700BF3A
:100200002DE9F04F9FED5C7B89B08DED007B0023E5
:100210000B701F466D461E4698464FF00A0C4FF075
:10022000FF398646E0B110F8014B6CB9C6B133789E
:100230002E2B15D0DDE900450B782046032B0FD877
:10024000DFE803F0393E54722E2C23D0A4F1300B9A
:100250005FFA8BF6092E03D80133DBB20A2B05D9DE
:1002600080231370002009B0BDE8F08F2E686C6801
:10027000A6FB0CA60CFB04661FFA8BF41AEB040415
:1002800046F10006A145C5E9004678EB0604E7D330
:100290007646C6E7002EE3D033782E2BE0D0013728
:1002A000FFB2032FDCD80B78013385ED027B0B7096
:1002B00008350023ECE7002DD2D100231370D2E7DC
:1002C000FF2CDDE90231CBD8B3F1807F71F1000161
:1002D000C6D21A0244EA036002F47F0242EA000432
:1002E000180A00F47F40204300BABCE7029D039B3C
:1002F00004990598B5F5807F73F100032CBF0123A5
:100300000023B1F5803F70F1000028BF43F00103E6
:10031000002BA5D1FF2CA3D8080640EA05200443F2
:10032000080200F47F00DEE70298039D0499059E11
:10033000069BB0F5807F75F100052CBF01250025D7
:10034000B1F5807F76F10006079E28BF45F00105D4
:10035000B3F5807F76F1000628BF45F00105002D3A
:100360007FF47EAFFF2C3FF67BAF090441EA00200B
:10037000204340EA0360B7E70000000000000000EF
:1003800010B5054C237833B9044B13B10448AFF3CF
:1003900000800123237010BDB02000200000000069
:1003A00010BC020008B5034B1BB103490348AFF36F
:1003B000008008BD00000000B420002010BC020036
:1003C000A3F5803A704700BF174B002B08BF134BB3
:1003D0009D46FFF7F5FF00218B460F461348144A50
:1003E000121A29F09AF90E4B002B00D098470D4BAA
:1003F000002B00D098470020002104000D000D487C
:10040000002802D00C48AFF3008020F01DFB200034
:10041000290029F042F920F003FB00BF000008008A
:10042000000000000000000000100020B0200020AC
:10043000644C0220000000000000000038B501F00C
:100440006FFD1248124C012100F0ECFD0122114613
:10045000002001F0D1FC022501221146C4F8805091
:10046000002001F0C9FC01221146C4F8845000208C
:1004700001F0C2FC0122C4F88C501146002001F0AA
:10048000BBFCC4F88850002038BD00BF30053E00DA
:1004900000400E4008B54FF0804301225A6403F536
:1004A00064231E49D3F8B02042F00102C3F8B02003
:1004B000D3F8E02042F00802C3F8E0204A6B42F48F
:1004C00080524A63D3F8E02022F00802C3F8E0200B
:1004D000D3F8B02022F00102C3F8B020104AD2F8BD
:1004E000A43143F4F843C2F8A4311EF055F800F0EB
:1004F00099F81DF0F5FF1EF03BF81EF007F8FFF726
:100500009DFF28F031FF00F07FF81FF071FE03F02F
:10051000E7FDBDE8084003F0F9BF00BF004005401B
:1005200000300E4030B5214D0FCD97B00FAC0FC449
:1005300095E807001E4B84E807001E4A1E49CDE9D6
:1005400003231E4B059303F1042306930423CDE9F3
:100550000713102200210BA829F0DFF8184B4FF4E5
:100560008010CDE9090327238DF82C3028238DF83E
:100570002D30144B0C9320230D9301238DF839302B
:10058000114B0093114803AB0FAA09A91EF016FCEA
:10059000044618B10E48882121F098FA00214FF442
:1005A000E13021F07DFA204617B030BDE09902001D
:1005B00000B2040000100140000404040704070511
:1005C0001C1001400C4B0020CC200020BC2100203E
:1005D000B099020008B5FFF7A5FF28B1BDE80840B3
:1005E0000248B82121F072BA08BD00BFB0990200DC
:1005F00001481EF09BBC00BFBC210020014821F037
:100600008FBA00BFFC99020008B50548012100F02F
:1006100009FD21F0DDF9BDE8084021F0FFB900BF78
:1006200000550A000148012100F0FCBC00550A00F9
:1006300008B500F093F8124B12498B4212D3124BBB
:10064000124900208B4218D3FFF7BEFE186850F8FD
:100650002240586840F82240013298688242F5D31F
:100660000C33EAE70022F8E71C6844F82200013264
:100670005C68A242F8D30833E4E70022F8E700BF41
:1006800018BC020024BC020024BC020024BC0200EE
:100690000048704700A24A04174AD2F8943003F089
:1006A0000703023B042B1FD8DFE803F00620031AE0
:1006B0000800124B1B680AE0114BFBE79368C3F379
:1006C0000443073B072B14D80E4A52F823300A4A3A
:1006D000D2F80001C0F304200130B3FBF0F0704702
:1006E000094B1B685B08F2E7074BE3E74FF4004355
:1006F000EDE70023EBE700BF00400E400C100020A8
:1007000004100020149A02000810002008B5FFF71A
:10071000C3FF054BD3F80831C3F308230133B0FB03
:10072000F3F0024B186008BD00400E40001000209E
:10073000014B1868704700BF04100020054B18607B
:10074000054BD3F8943003F00703022B01D1FFF7D8
:10075000DDBF70470410002000400E40044B054AE6
:100760009A60D3F8882042F47002C3F8882070475A
:1007700000ED00E000000000014B1868704700BF6A
:100780000C10002005490A681318054883428CBFE5
:100790004FF0FF320B601046704700BF1010002072
:1007A0000000082008B52948012100F03BFC012386
:1007B00004220221052002F039F8002002F020F87E
:1007C000234B0122C3F810281146042001F014FB2A
:1007D000204801F033F9204BD3F8F02042F0010219
:1007E000C3F8F020D3F8FC2042F08072C3F8FC205C
:1007F000A3F55D43194A1A6000F5D520184B00F2A5
:10080000FC40B0FBF3F0174B013802221861C3F82B
:10081000F0204FF48072C3F804234FF06043124A73
:10082000C3F8B02F114AC3F8802ED3F8002E42F43B
:100830008072C3F8002EFF2283F82020D3F8002E08
:1008400022F48072C3F8002E002008BD00550A0073
:100850000080104306000E0000ED00E0FF030040A2
:10086000F8590D00000004E055CEACC509000100A8
:100870004FF0604330B5D3F8802ED20715D5012450
:100880000B4D8440D5F8FC2042F08072C5F8FC2066
:10089000D3F8002E2243C3F8002E53F82020002A5C
:1008A000F0D003F82010002030BD1120FCE700BF7D
:1008B00000ED00E0082838B504460D4604D84FF690
:1008C000FF73CB40DB0704D4084840F2FE3121F02F
:1008D000FDF830230C2013FB040000F188400121B7
:1008E00000F5082001FA05F5056038BD349A0200CC
:1008F000082838B504460D4604D84FF6FF73CB40A0
:10090000DB0704D4084840F22D4121F0DFF8302302
:100910000C2013FB040000F18C40012100F508209D
:1009200001FA05F5056038BD349A020010B50121C1
:100930000446094800F076FB0848012100F072FBEC
:10094000A37820786178B3FA83F35B09042201F07D
:100950006DFF002010BD00BF4041050000550A009A
:1009600038B504784578082C04D84FF6FF73EB406F
:10097000DB0704D407484FF4896121F0A7F830233E
:10098000634303F18043012203F50823AA409A61DF
:1009900038BD00BF349A020070B506784478082E3E
:1009A000054604D84FF6FF72E240D30704D40C4842
:1009B0004FF4836121F08AF830230C2213FB0623C5
:1009C00003F1067303F5004304EBC304A400AB7802
:1009D0002068C0B213B9B0FA80F0400970BD00BF02
:1009E000349A02002DE9F04F9A46554B85B01B789A
:1009F000DDF83C909DF844B0DDF8508006460F4687
:100A00001546002B00F08B80172A00F28A800E9B7F
:100A1000002B00F08680B9F1000F00F08280129B5D
:100A2000B3F5006F7DDC012802D1109B002B78D03C
:100A3000444B03EB05131B7B002B74D0424C10225C
:100A40000021684628F069FE04EB45141022002FAF
:100A500057D13946204628F060FE43F210036380E8
:100A6000BBF1000F03D1E37843F00303E370364A90
:100A70000E9BCDF800A002EB451CCCE90193129B24
:100A8000013BC3F30A009DF84C30690103F00303F6
:100A90009B0643EA001E53582C4818404EEA0003B8
:100AA000012E535041D11323CCF80C309CE80F0099
:100AB0000CF1100E8EE80F00DCF81C20109BCCF817
:100AC00014306FF0030161F39F02012FCCF81C205A
:100AD00003D1CCF81890CCF804301A4A290102EB63
:100AE000051342F801800027159A5A6028469F6036
:100AF0005E732246694601F04FFF384605B0BDE8F7
:100B0000F08F0021204628F008FE4FF444736380E4
:100B1000BBF1000FABD1E37843F03003A6E70C48FC
:100B2000ECE70C48EAE70C48E8E7B8F1000FD4D14D
:100B30009CF8023068F304138CF80230CDE700BF54
:100B40002C4B0020DC2100205C2300200F80FFF3D1
:100B5000028000F0018000F0078000F038B5124BF1
:100B60001B780546DBB1E0B121F02AF80F4A0023DB
:100B70001146147B54B92B601A0101EB03130125B4
:100B80008C501D7321F022F8204638BD0133182BFC
:100B900002F11002EDD121F019F80548F5E70548FA
:100BA000F3E70548F1E700BF2C4B0020DC210020D3
:100BB000048000F0028000F0018000F013B520F006
:100BC000FFFF0C4A0023147B7CB90133182B02F180
:100BD0001002F8D1019001F06FFE074B01981C70D4
:100BE00020F0F4FF204602B010BD20F0EFFF0348D4
:100BF000F9E700BFDC2100202C4B0020058000F02D
:100C00000D4B1B7810B5044693B1172812D820F06D
:100C1000D7FF0A4B03EB04131A7B2AB100241C7381
:100C200020F0D4FF204610BD20F0D0FF0448FAE7A2
:100C30000448F8E70448F6E72C4B0020DC210020AC
:100C4000068000F0028000F0018000F013B5134B25
:100C50001868019000238DF8043020F0B1FF104B8C
:100C60001C7824B120F0B2FF0E4802B010BD012262
:100C70001A7020F0ABFF0C4A234621460133182B93
:100C8000117302F11002F9D104230DEB03008DF86A
:100C9000073001F041FE0020E7E700BF9A9A02000A
:100CA0002C4B0020038000F0DC2100200A4A12783F
:100CB00008B55AB117280BD8084A02EB00131B7B62
:100CC00043B1002101F00CFE002008BD0448FCE700
:100CD0000448FAE70448F8E72C4B0020DC21002008
:100CE000028000F0018000F0078000F00A4A1278CC
:100CF00008B55AB117280BD8084A02EB00131B7B22
:100D000043B1012101F0ECFD002008BD0448FCE7DF
:100D10000448FAE70448F8E72C4B0020DC210020C7
:100D2000028000F0018000F0078000F00A4A12788B
:100D300008B552B117280AD8084A02EB00131B7BEA
:100D40003BB101F0AFFE002008BD0548FCE70548B7
:100D5000FAE70548F8E700BF2C4B0020DC21002013
:100D6000028000F0018000F0078000F00D4B1B783E
:100D700093B1172812D889B10B4B03EB00131B7BDF
:100D800073B10A4B1A6E012303FA00F010401ABF28
:100D900000200B7008707047054870470548704781
:100DA000054870472C4B0020DC210020002000402B
:100DB000028000F0018000F0078000F00B4A1278FA
:100DC00010B50C4662B117280CD859B1084A02EB8D
:100DD00000131B7B43B101F085FE2070002010BD85
:100DE0000448FCE70448FAE70448F8E72C4B0020E5
:100DF000DC210020028000F0018000F0078000F07C
:100E00002DE9F843DFF86480D8F86070D8F86C30CA
:100E10001F4000D5FEE7144CDFF854900126002552
:100E2000374217D02368C8F868609BB1A168626830
:100E30000131A16028469847637B012B0AD148B94C
:100E400009EB45131A7B60F341021A731A7F60F3B2
:100E500041021A770135182D4FEA460604F11004B5
:100E6000DED1BDE8F88300BFDC2100200020004077
:100E70005C2300200C4B984210D90C4B984210D99F
:100E8000022201230A490B640A49D1F8003123F0F8
:100E9000407343EA0263C1F80031704700221346F1
:100EA000F0E70122FBE700BF0048E8010090D00313
:100EB0000000C84300400E4038B54FF08043002288
:100EC0005B68104BC9B21C461D798D4202D11D686A
:100ED000854213D20132072A03F10803F4D10A48EC
:100EE00041F2DD7120F0F2FD03224FF080414B68AA
:100EF00023F0407343EA02634B6038BD04EBC20247
:100F00005279F2E7D89B02009E9A02001F2810B582
:100F1000044604D903484FF4B67120F0D7FD0120F0
:100F2000A04010BDCD9A0200044BDB6B5B0604D4DD
:100F3000034AD2F8C830002BFBD1704700300E4076
:100F40000000C64308B5FFF7EFFF024B5868C0F337
:100F5000014008BD00300E40044BD3F84421D207B5
:100F600003D4D3F840211042FBD1704700400E401B
:100F7000B0F5004F38B5054604D30C4840F64A6139
:100F800020F0A4FD6C1C14BFB4FA84F42024C4F136
:100F90001F042046FFF7BAFF0138A84204D00348D7
:100FA00040F6516120F092FD204638BD369B02008C
:100FB0004FF0804341F6713270B51E6C1A640546DD
:100FC0000C46FFF779FF134A134B022C08BF134658
:100FD0009D42124AB6B209D94FF08C43C3F80021A2
:100FE0000F4A954207D84FF0884306E04FF08843F8
:100FF000C3F80021F7E7002CF5D14FF480521A60B6
:1010000041F671339E421EBF4FF0804300221A64A6
:1010100070BD00BF0024F40080D54302020202002C
:1010200080F0FA02C0F30322013A38B503460E2AD3
:101030003AD8DFE802F040433939081B1E21253633
:10104000292E391833001F4C0020C3F3043508B192
:10105000FFF782FF04F1424404F5801405EBC40459
:10106000A400216038BD184C0020EEE7174C012089
:10107000EBE7174C1020E8E7164C4FF48070E4E7DC
:10108000154C4FF48030E0E7144C81F00101002052
:10109000DBE7134C81F001010020D6E7114C002062
:1010A000D3E7114C0020D0E7BDE838400F4841F6A7
:1010B000795120F00BBD0E4C0020C6E70D4C0020EE
:1010C000C3E700BFB0400E40C4400E40E0400E40B9
:1010D000E8400E40EC400E40F0400E4060410E40B3
:1010E00064410E40F0410E4050410E409E9A020075
:1010F00000400E40C0400E4008B5C0F30313013B52
:101100000B2B00F2AB80DFE803F0060C101A202452
:10111000282C668692A5534BD3F80001C0F3042017
:1011200008BD504BD3F81401F8E74E4BD3F800013B
:10113000C0F301600130FFF7E9FE0138F0E7494BE9
:10114000D3F80C01C0F30820EAE7464BD3F81801A6
:10115000F8E7444BD3F81C01F4E7424BD3F80801FD
:10116000F0E7414B98422AD00ED8A3F5BA23984213
:101170002BD003F57033984215D041F61D713B48D2
:1011800020F0A4FC0020CBE7394B984205D0394B26
:1011900098420ED0384B9842EFD1324BD3F8200111
:1011A000C0F30230C7E72F4BD3F8200100F00F0047
:1011B000C1E72C4BD3F82001C0F30120BBE7294B3A
:1011C000D3F82001C0F30310B5E7264BD3F8200174
:1011D000C0F30340AFE7294B98420CD003F5A113AD
:1011E00098420ED0264B984212D11E4BD3F82801BC
:1011F00000F003009FE71B4BD3F82801C0F3011058
:1012000099E7184BD3F82801C0F30130043092E776
:1012100041F64171B3E71B4B984205D1114BD3F80E
:10122000300100F003007BE741F65071A7E7164B51
:10123000984205D0154B984206D041F668719EE75A
:10124000084BD3F85C01ECE7064BD3F85C01C0F324
:10125000014065E7034BD3F8040173E741F675716C
:101260008DE700BF00400E40801618009E9A0200D5
:1012700000362C0080262E0080002A0090171C00CB
:1012800090071A00A0091400B8003200B900340019
:10129000C0F30313013B10B50C460B2B00F2188270
:1012A000DFE813F00C003400450060007400880093
:1012B0009C00BC006101CE01DA0102021F2904D9A1
:1012C000C44841F69E7120F001FC20F05BFCC2484E
:1012D000FFF7D0FD00F00AFAC04BD3F8001121F45B
:1012E000F85141EA0424C3F80041FFF70FFA04461D
:1012F000FFF728FE01462046FFF75AFEFFF7CCF91C
:10130000FFF7B8FDBDE8104000F006BA1F2904D968
:10131000B04841F6B47120F0D9FBB04BD3F81411AA
:1013200021F4F85141EA0424C3F8144110BD4B1EC6
:10133000B3F5004F0DD2B4FA84F1A84BD3F80041B5
:10134000C1F11F0124F0407444EA0164C3F8004174
:10135000ECE7A34840F65A5120F0B8FB002CEAD144
:101360002021EAE7B1F5007F04D39A4841F6C17124
:1013700020F0ACFB994BD3F80C1121F4FF3121F490
:10138000807141EA0421C3F80C11CFE7B1F5007F69
:1013900004D3904841F6C87120F098FB8F4BD3F8E6
:1013A000181121F4FF3121F4807141EA0421C3F8BE
:1013B0001811BBE7B1F5007F04D3864841F6D07120
:1013C00020F084FB854BD3F81C1121F4FF3121F46C
:1013D000807141EA0421C3F81C11A7E7B1F5007F31
:1013E00004D37C4841F6D77120F070FB20F0CAFB93
:1013F0007A4BD3F8081121F4FF3121F4807141EACE
:101400000421C3F80811FFF781F90446FFF79AFD9C
:1014100001462046BDE81040FFF7CABD714B984217
:1014200074D010D8704B984246D0704B984257D029
:10143000A3F57033984226D042F25301BDE8104024
:10144000644820F043BB6A4B984205D0694B9842F0
:1014500073D0694B9842EFD1B4F5004F04D95D4881
:1014600042F2450120F032FB2046FFF781FD0146A4
:101470000420FFF771FD594AD2F8203123F4E043EC
:1014800043EA013315E0B1F5004F04D9514841F664
:10149000E97120F01BFB2046FFF76AFD014604209E
:1014A000FFF75AFD4D4AD2F8203123F4702343EA66
:1014B0000143C2F8203139E7022904D941F6FA7113
:1014C000444820F003FB4FF48020FFF745FD434BD9
:1014D000D3F8301121F003010C43C3F8304125E764
:1014E000B1F5004F04D93B4842F2170120F0EEFA63
:1014F0002046FFF73DFD01460420FFF72DFD374A4A
:10150000D2F8203123F00F030B43D2E7B1F5004F9F
:1015100004D9304842F2260120F0D8FA2046FFF7DD
:1015200027FD01460420FFF717FD2C4AD2F8203191
:1015300023F0F00343EA0113BBE7082904D9254847
:1015400042F2350120F0C2FA2046FFF711FD0146B4
:101550000420FFF701FD214AD2F8203123F4407323
:1015600043EA0123A5E7254B98421DD003F5A113BB
:10157000984247D0224B98425FD1082904D9154898
:1015800042F25C0120F0A2FA2046FFF7F1FC01468E
:101590004020FFF7E1FC114AD2F8283123F0030381
:1015A0000B43C2F82831C1E6082904D9094842F2A0
:1015B0006B0120F08BFA2046FFF7DAFC0146402051
:1015C000FFF7CAFC054AD2F8283123F0300343EA7A
:1015D0000113E6E79E9A02000148E80100400E4030
:1015E000369B020080161800A00914008006160021
:1015F00000362C0080262E0080002A0090171C0048
:1016000090071A00A1F10F03702B04D9324842F25F
:101610007A0120F05BFA2046FFF7AAFC0146402041
:10162000FFF79AFC2D4AD2F82801043920F44050E3
:1016300040EA0130C2F8280178E642F28901FDE66D
:10164000274B984205D102297FF63DAF42F2930124
:1016500036E742F2A301F1E6224B984205D0224B35
:10166000984212D042F2BC01E8E6032904D91A4894
:1016700042F2AE0120F02AFA184BD3F85C1121F0A7
:1016800003010C43C3F85C4150E6032904D9124816
:1016900042F2B60120F01AFA104BD3F85C1121F493
:1016A000403141EA0444EDE7B1F5007F04D30A4834
:1016B00042F2C40120F00AFA084BD3F8041121F4D5
:1016C000FF3121F4807141EA0421C3F804112DE6B1
:1016D00042F2CB01B2E600BF9E9A020000400E40EB
:1016E000A0091400B8003200B900340008B507485A
:1016F0000321FFF7CDFD06480321FFF7C9FDBDE833
:10170000084004480321FFF7C3BD00BF4041050066
:10171000504107006041090037B5FEF7BDFF0446A0
:10172000FFF710FC022817D1194B1A481A491C441C
:101730009C42B4FBF1F188BF01F1FF310191FFF749
:10174000A7FD01991548FFF7A3FD0199144803B0BF
:10175000BDE83040FFF79CBD124B134D0D48E21819
:101760009A42B2FBF5F588BF05F1FF352946FFF730
:101770008FFD0B482946FFF78BFD0C4B0C490748A2
:101780001C449C42B4FBF1F188BF01F1FF31DEE75C
:10179000FF2C310140410500002D3101504107006F
:1017A000604109007FF0FA0280F0FA02FFA14A04CA
:1017B00000A24A0400F00F00013808B50B2879D8C0
:1017C000DFE800F006111B2F25397843515F6B6F5E
:1017D000414BD3F8943003F00703023B052B76D836
:1017E0003E4AD05C30E03C4BD3F8803003F0070336
:1017F000013B032B6DD83A4AF3E7374BD3F88430DB
:1018000003F00703013B032B63D8364AE9E7324B69
:10181000D3F8883003F00703013B032B59D8324A31
:10182000DFE72D4BD3F88C3003F00703013B032B8C
:101830004FD82E4AD5E7284B1B6F13F0030340D037
:10184000012B14BF0120092008BD234BD3F85C31C4
:1018500003F03003202B36D0302B36D0102B14BFA2
:1018600001200720F0E71C4BD3F85C3103F4401350
:10187000B3F5001F27D0B3F5401F26D0B3F5801F66
:10188000EDE7154BD3F8600100F00300431E022B77
:101890001DD800EB40000130D6E70F4BD3F86401B0
:1018A000F2E70D4BD3F8F03103F00703052B10D806
:1018B0000F4A96E70F4842F2CA2120F007F90020AC
:1018C000C2E70720C0E70420BEE70820BCE70520E8
:1018D000BAE70120B8E700BF00400E409E9B02001F
:1018E000A49B0200A89B0200A49B0200A49B0200F0
:1018F000AC9B02009E9A020038B5314B98420546D7
:101900000BD01ED82F4B984207D02F4B9D4204D0AE
:101910002E4841F6DC0120F0D9F82846FFF74AFFAF
:10192000274B9D42044625D00DD8264B9D4211D011
:10193000254B9D421AD0254841F60B1120F0C6F8E0
:101940000DE0234BE2E7224B9D42F4D1214BD3F82B
:10195000884002E01F4BD3F8804004F00704042CB9
:1019600027D8DFE804F0240B0F171300194BD3F826
:101970008440F2E7174BD3F88C40EEE7BDE83840DF
:1019800020F09EB8BDE83840FEF7F6BEBDE838400E
:1019900020F099B8FEF780FE0E4B0446D3F8000104
:1019A000C0F301600130FFF7B1FAB4FBF0F4204658
:1019B00038BD064841F65D1120F088F80024F6E7AE
:1019C0000400220002001E00030020009E9A020074
:1019D0000500240000400E40012808B514BF12483D
:1019E0001248FFF7E7FE0138072816D8DFE800F0B5
:1019F0001A1515071515040B0D4B186808BDBDE821
:101A00000840FEF795BEFEF747FE0A4BD3F80031BB
:101A1000C3F3042303FB0000F0E7074841F2D6615B
:101A200020F054F80020E9E7B8003200B900340093
:101A30001410002000400E409E9A020038B500F4B9
:101A40007813B3F5E01F054600F0FC804CD8B3F5E1
:101A5000602F00F0108123D8B3F5C02F00F0A180D3
:101A60000DD8B3F5003F00F0A880B3F5802F00F04B
:101A70008D80002B00F0078141F6A96109E1B3F5E3
:101A8000202F00F09480B3F5402F00F09C80B3F538
:101A9000002FF1D1FEF700FEB14BD3F81C317AE0F4
:101AA000B3F5B01F00F0AA800DD8B3F5901F00F079
:101AB0009280B3F5A01F00F09880B3F5801FDBD1B2
:101AC000A84B18686CE0B3F5C01F00F0A580B3F513
:101AD000D01FD1D1A448FFF70FFFA14B0446D3F884
:101AE000280100F0030092E0B3F5401F00F0B4803D
:101AF00024D8B3F5201F00F0BA800FD8B3F5001F2B
:101B000000F09E80B3F5101F00F0B380B3F5F01F16
:101B1000B2D19648BDE83840FFF7EEBEB3F5281FB6
:101B200000F08480B3F5381FA6D19048FFF7E4FE9B
:101B30008B4BD3F82031C3F3012354E0B3F5601F7E
:101B400000F0CF8013D8B3F5501F00F0A780B3F595
:101B5000581F00F0AC80B3F5481F8DD10020FFF76F
:101B60003BFF7F4BD3F85C3103F0030315E0B3F583
:101B7000681F00F0D080B3F5781F7FF47DAFFEF7CB
:101B80008BFD0446284620F00FF842E0FEF784FD66
:101B9000734BD3F80C31C3F308230133B0FBF3F0DC
:101BA00038BDFEF779FD6E4BD3F81831F3E7FEF739
:101BB00073FD6B4BD3F80431EDE7FEF76DFD684B19
:101BC000D3F80831E7E7FEF767FD654BD3F814312A
:101BD000C3F30423E1E76548FFF78EFE604BD3F8BB
:101BE0002031C3F30343D840DAE76148FFF784FEAE
:101BF0005B4BD3F8303103F00303F4E75B48FFF7A6
:101C00007BFE574B0446D3F8200100F00F00FFF78E
:101C10007DF9B4FBF0F0C3E75448FFF76DFE504B7D
:101C20000446D3F82001C0F30310F0E74F48FFF754
:101C300063FE4B4B0446D3F82001C0F30230E6E7C5
:101C4000494867E74848FFF757FE454B0446D3F835
:101C50002801C0F30110DAE74348FFF74DFE404B7F
:101C60000446D3F82801C0F301300430CFE74148DF
:101C700050E73F484EE74048FFF79CFD07283FF4F8
:101C80001FAF092803D1BDE83840FEF705BD41F27A
:101C90009F613A481FF01AFF002081E70120FFF7FB
:101CA0009BFE2F4BD3F85C31C3F3014375E73448F7
:101CB000FFF780FD0438062810D801A353F820F060
:101CC000351D0000451D0000DD1C0000C11A00008C
:101CD000DD1C0000DD1C0000311D00004FF4B85178
:101CE000D7E72848FFF766FD0438062810D801A377
:101CF00053F820F0351D0000451D0000111D0000A7
:101D0000C11A0000111D0000111D0000311D00004E
:101D100041F23271BDE71C48FFF74CFD023809283B
:101D20001AD8DFE800F01115070F19191919050B5A
:101D3000164BC6E6BDE83840FEF7FABCFEF7F8FCE5
:101D400040002DE7124BBCE6BDE83840FEF714BD5D
:101D5000BDE838401FF0B4BE41F2897199E700BF79
:101D600000400E40141000200300200002001E005E
:101D7000050024000400220006000E009E9A0200C6
:101D80000A7B36000B7C38000C7F3A0018100020CC
:101D900008100020014B1880704700BF321200204D
:101DA000014B1880704700BF30120020022838B560
:101DB0000C4604D00D4842F6FC411FF087FE0C4D46
:101DC0006B6AC3F30113012B0DD064B1074842F6CF
:101DD00017511FF07BFE074BD5F8902033EA020223
:101DE000FAD1012038BD4FF48003F5E79E9A020036
:101DF00000400E40FF3F473A05282DE9F0470446D2
:101E00000F4691461FD83E4B3E4A13F800A03E4B6A
:101E100013F80080F1B93D4B33F8103013660123FD
:101E200003FA08F8D2F8903013EA080FFAD1B9F1A2
:101E3000000F61D00125334A05FA0AF5D2F8903037
:101E40002B42FBD158E0BDE8F047314842F6C8319B
:101E50001FF03CBE2F4B022833F810604ED1536A5E
:101E6000C3F30113012B49D12B4BDB6B5B0504D46E
:101E7000274842F6D7311FF029FE224A536A03F061
:101E80000303032B05D1536A23F0300343F02003EF
:101E90005362224D1B4BA8441E664FEA8808D8F8AF
:101EA0000030002BFBD0B9F1000F25D05544AD0018
:101EB0002B68002BFCD0022C1ED1EFB1114B5B6ABA
:101EC00003F00303032B03D000212046FFF76EFF2E
:101ED0000F4842F65A411FF0F9FD0122002102206D
:101EE000FFF78AFF0A4842F6E4411FF0EFFD054B79
:101EF0001E662B68002BFCD0BDE8F0870027C8E7E2
:101F0000B29B020000400E40B89B0200CA9B020038
:101F10009E9A0200BE9B020000300E408004F21028
:101F200038B5FEF705FC0021044600F0C1F914485D
:101F3000FEF7A0FF012211460220FFF75DFF1FF010
:101F400021FEFFF7D3FB0CB1FEF7EEFF0D4B022293
:101F50005A67FEF7A1FBFEF78DFFFEF7D7FB05469C
:101F6000FEF7F0FF01462846FFF722F81CB90121D1
:101F7000204600F09DF9BDE83840FFF7CDBB00BF1B
:101F80000148E80100400E4038B504461120FFF733
:101F900011FC042804D11F4842F63C211FF096FD95
:101FA000012200210220FFF727FFE37A022B2AD823
:101FB000194AD25C194D6B6A23F0030313436B6219
:101FC000FEF7B6FB164B2288984294BF08200020EB
:101FD0006B6A23F008031843A388686243EAC223AC
:101FE000EB622B6BE2881B0D1B051343628843EAEF
:101FF000C2232B63637A227A1B0143EA0233A27A5B
:1020000013436B6338BD034842F650211FF05EFD59
:102010000022CFE79E9A02009B9B020000400E40E8
:1020200040787D0170B505461120FFF7C3FB0228FB
:1020300004D10F4842F6FA211FF048FD0D4E0E4B19
:10204000B26B2C7813401C436B7844EAC324AB7802
:1020500044EA0364EB7844EA0324B36BA34205D05B
:10206000002101220846FFF7C7FEB46370BD00BF20
:102070009E9A020000400E4080E4FFF8034B58682F
:10208000C0F30800003818BF0120704700ED00E0E1
:10209000034BD86B80F04000C0F38010704700BF46
:1020A00000300E4038B542EA0323B3F5007F054601
:1020B0000C463ED019D8B3F5807F36D00AD883B30A
:1020C000012B21D01F4840F656211FF0FFFC0022B3
:1020D00013461FE040F201129342F3D11A4BD3F89A
:1020E00024321A0EC3F3074314E0B3F5407F24D023
:1020F00040F20132934210D040F201229342E1D1EA
:10210000114BD3F8283202E00F4BD3F82432C3F33B
:102110000722DBB22B60226038BD0B4BD3F828328C
:10212000DFE7094BD3F81C32F1E7074BD3F81C3239
:10213000D7E7054BD3F82032E9E7034BD3F8203239
:10214000CFE700BF109C02000081E00F08B5FFF749
:102150009FFF20B1024AD2F8C830002BFBD108BD46
:102160000000C6431A4B022810B5D3F830320C4693
:1021700012D0032813D0012814BFDBB2C3F3072306
:102180001B0323F47042ECB95AB140F6E511114833
:102190001FF09CFC002010BDC3F30743F0E71B0EAB
:1021A000EEE70D49CA6E22F470421343CB6601205C
:1021B000F1E70949D1F8EC2022F470421343C1F849
:1021C000EC30F4E7002AF4D040F6F111DFE700BF6D
:1021D0000081E00F109C020000300E400378134A8B
:1021E000002B437870B514BF04260026002B83789B
:1021F000946914BF02250025002B037924F03F04C5
:1022000043EA0403C47814BF08210021012C08BF4D
:1022100043F0010333432B430B439361136841792C
:1022200023F4403343EA0143136070BD00300E4095
:10223000F8B504460F46FFF72BFF78B3FFF786FF8C
:10224000174B5B68C3F301439C4227D0154BD3F86F
:102250000061FEF721FA022C05460FD1124BC6F39E
:10226000042606FB00069E4204D9104840F27C7109
:102270001FF02CFC02212846FEF79AFEC4F1020250
:1022800010239340064A13610FB1FFF75FFF2CB98B
:1022900021462846BDE8F840FEF78ABEF8BD00BFDB
:1022A00000300E4000400E40002D3101109C020015
:1022B00013B50246FFF7ECFEC8B152B90D4B0191C0
:1022C000D3F80041FEF7E8F9C4F30422019902FBB8
:1022D0000002094B1B7843B1084B9A4205D80220F3
:1022E00002B0BDE81040FFF7A3BF0020F8E702B03E
:1022F00010BD00BF00400E402D4B0020002D3101CD
:10230000174B4AF6E85210B5596B5A639A6FD407C7
:10231000FCD41B6C13F003031EBF124A0124C2F845
:10232000B44A834216D00E4B9A6FD207FCD41A6C73
:1023300022F0030202431A649A6F12F00102FBD1E9
:102340000038084C18BF01200129C4F8B40A08BF9E
:102350005A6303E010B9034BC3F8B40A10BD00BFC1
:1023600000300E400000C6432DE9F04FA0F5E163B8
:1023700089B00024B3F5966FCDE90244CDE9044459
:10238000CDE9064406468A46934605D940F6DF3134
:1023900055481FF09BFBA3E0B0F5E16F534B8CBF9A
:1023A0000122002249D1D3F81832C3F30721DBB24E
:1023B000079104934FF416754FF4966748E0BBF10C
:1023C000000F0ED0D9F85C2022F4FE4222F0020267
:1023D000B6F5E16F42EA012218BF02200243C9F8B4
:1023E0005C20BAF1000F26D020460021FFF7BAFE8C
:1023F000044610B940F63C41CAE701214046FFF7C8
:10240000B1FE044610B940F64441C1E7384A536E64
:10241000BD4238BF3D4623F4FF73E72D23F001038F
:1024200028BFE725B6F5E16F18BF43F0010343EA83
:102430004503536654E0012452E0D3F81832190ED4
:10244000C3F30743079104934FF496654FF4E16794
:10245000DFF89C90D9F84C400192C4F301742346F4
:1024600005A902A8FFF71EFED9F8EC30019AC3F3C4
:102470000128434606A903A8FFF714FE049BF01B9E
:10248000079FF91A4143B1FBF5F299182CBF0123BC
:1024900000238F421ED3EBB9069A039FD31B4343FD
:1024A000B3FBF5F3FF182CBF01230023BA4211D36D
:1024B00083B9059B029AA3EB020C00FB0CF0B0FB66
:1024C000F5F555192CBF01200020AB4202D300289E
:1024D0003FF475AF044840F62D411FF0F7FA002491
:1024E000204609B0BDE8F08F109C02000081E00F8B
:1024F00000300E40334A08B5136FD16C11F0010F54
:1025000003F0060344D0002B42D0132857D91438C7
:1025100013288CBF102308232A49013BCA6C1803D7
:1025200022F47F4240EA03231343CB64264BCA6C58
:102530001B88C2F303222833013202EB820003EB33
:102540005303B3FBF0F3C86C013B072B28BF0723F1
:1025500020F0EE6040EA036343F48013CB641B4B2E
:10256000B3F90030002B12DB03F12800C0F34E0357
:102570000344500800EB4202B3FBF2F20B6D072A52
:1025800028BF072223F0700343EA02120A6508BD40
:10259000D16C01F00101194304D109280FD90A387F
:1025A0000928B6E7D26CD20702D50BB92728B0E7C5
:1025B000074840F682411FF089FA0023ACE7042364
:1025C000AAE700BF00300E40DE4A0020E04A0020AB
:1025D000109C02000C4BD3F8803910B5044633B977
:1025E000012804D909484FF44A611FF06FFA084ADC
:1025F000136F23F0070323431367064BBDE8104016
:102600001888FFF777BF00BF0000C643109C020088
:1026100000300E40DC4A002038B50389C82B044640
:1026200004D9514840F684211FF050FAA28823892A
:102630009A4204D94C4840F685211FF047FAB4F974
:102640000C30C82B04DD484840F686211FF03EFAC6
:102650006378012B55D1A388C82B04D940F68A2171
:1026600041481FF033FAE28842F210739A4204D9CB
:102670003D4840F697211FF029FAE3884A2B48D9B4
:10268000B3F5FA7F47D340F6C312934294BF4FF09D
:1026900000524FF040523549B4F90C00CB6C23F096
:1026A000405323F001030028A8BF43F00103134364
:1026B000CB64D1F8EC30A28843F44073C1F8EC301D
:1026C0002B4B1A80CB6E43F08073CB66294BD3F82B
:1026D000800900B10420FFF77DFF274B2189198075
:1026E000264BB4F90C20A0881A80FFF703FFA37BC8
:1026F000A3B1012B23D01C4840F696111FF0E6F938
:102700000FE0022BAFD1A3880A2BACD940F68F2162
:10271000A6E70022BFE74FF08052BCE7134B184AF0
:102720009A65012260881146FFF71EFE054648B9EA
:102730000D4840F6CE211FF0C9F9284638BD0B4B95
:10274000104AEDE7094AD36B43F48063D3636078A2
:10275000FFF7D6FDA37AA3F1200253425341054A65
:10276000C2F89437E9E700BF109C020000300E4029
:10277000DC4A00200000C643DE4A0020E04A002078
:1027800077402057372110B7082838B504460D4642
:1027900004D84FF6FF73CB40DB0704D4084840F25F
:1027A0002D411FF093F930230C2013FB040000F19E
:1027B0008C40012100F5082001FA05F5056038BDBF
:1027C000349A0200082838B504460D4604D84FF65E
:1027D000FF73CB40DB0704D4084840F2FE311FF002
:1027E00075F930230C2013FB040000F1884001210F
:1027F00000F5082001FA05F5056038BD349A02009D
:10280000072810B5044603D9064852211FF05EF987
:10281000054AD2F8443423F003032343C2F8443476
:1028200010BD00BF3F9C0200008008400828F8B59A
:1028300005460C4616461F4604D84FF6FF73CB409C
:10284000DB0704D419484FF4B0711FF03FF926B1EB
:1028500021462846CFB1FFF797FF05EB4503072C2C
:102860004FEA03134FF00F0112D8A00006FA00F24E
:1028700081400F4818441FF0B9F9AEB921462846E7
:1028800077B1BDE8F840FFF77FBFFFF79BFFE4E7B4
:10289000A4F10800800006FA00F281400548E9E74B
:1028A000BDE8F840FFF78EBFF8BD00BF3F9C0200B7
:1028B0000480084008800840074B0422C3F88020A9
:1028C000BFF34F8FBFF36F8F044B0021D9664FF4D6
:1028D000EA401962FEF7A6BB00E100E000200040DC
:1028E000172838B505460C4603DD084877211FF048
:1028F000EDF81F2D84F0010403D9054891211FF044
:10290000E5F8044B2B449B001C6038BD6F9C020013
:102910009F9C0200A001811010B5044618B91B4805
:1029200091211FF0D3F823781B0613F0604F03D0DA
:10293000164892211FF0CAF8E378072B03D91348F1
:10294000A3211FF0C3F801214FF4EA40FEF76AFB10
:10295000B4F8013022785BBA9BB243EA02630C4AB6
:10296000136000231362D36253634FF00043D366B6
:102970004FF0FF339366074A0421C2F88011E378D1
:102980005B01DBB282F80233116010BD6F9C020064
:102990000020004000E100E02DE9F041C3B2012633
:1029A000172805460C46904606FA03F603DD3A481A
:1029B000EC211FF08BF81CB93748ED211FF086F889
:1029C000236823F47C1323F00F031BB13248F22158
:1029D0001FF07CF8A37A1B0413F47C0F04D02E485C
:1029E00040F209111FF072F8E37A1B0513F07E6FB5
:1029F00004D0294840F20B111FF068F8237B5B05D7
:102A000013F0FE5F04D0244840F20D111FF05EF871
:102A1000224F637BBE66302000FB05702268C0F841
:102A20008020C0F88830E37AA27A1B0543EA02438B
:102A3000227B43EA425328F00302C0F88430C0F8F6
:102A400098201FF0BDF8FB6E3343FB66237A13B169
:102A50007B6B33437B63637A13B1FB6A3343FB6263
:102A60000E4B1A68237923B1DB431B0263F47F43C7
:102A70001A4063790BB142EA0322A3790BB122EA2F
:102A80000302E3791A43054B1A60054A9662DE6336
:102A9000BDE8F0411FF09AB86F9C02000020004092
:102AA0000020004410B5C3B20124172804FA03F42F
:102AB00004DD094840F297111FF008F81FF080F874
:102AC000064AD36E23EA0403D366054B1C62BDE8B5
:102AD00010401FF07BB800BF6F9C02000020004038
:102AE0000020004410B5C3B20124172804FA03F4EF
:102AF00004DD0B4840F2B5111EF0E8FF1FF060F84E
:102B0000084B1A6A224209D19B6A34EA03030CBFBC
:102B1000012400241FF05AF8204610BD0024F9E7D4
:102B20006F9C020000200040022838B504460D4684
:102B300003D911484C211EF0C9FF6B791F2B03D913
:102B40000D484F211EF0C2FFAB786A789B0143EA23
:102B500082032A781343EA7843EA02132A7943EA84
:102B6000C2236A7943EA0233AA79043443EA42432E
:102B70002401024A135138BD049D02000020064082
:102B8000014B1860704700BF0000C44242780179D1
:102B90000378002A827870B514BF04260026002A24
:102BA000C27814BF10250025002A42794FEA02326C
:102BB00042EA012242EA0302837942EA8332C3797C
:102BC00014BF20240024002B037A42EA034343EA83
:102BD0000603427A43EA050314BF4FF40041002183
:102BE0002343002A14BF4FF4003200220B43134347
:102BF000014A136070BD00BF002006402DE9F0417E
:102C000080460C461F46164622B934484FF4A1713F
:102C10001EF05CFF3CB9324B98450CBF314832483E
:102C2000FEF70CFF0446402F4BD009D8A7B1202F48
:102C30003DD0BDE8F041294840F289111EF046BF61
:102C4000602FF6D1B6EB940F04D9244840F28311DB
:102C50001EF03CFF042108E0B6EB141F04D91F4806
:102C60004FF4BA711EF032FF10214E4371081F4D10
:102C700001EB4414B4FBF6F6203EB5EBC60F4FEA69
:102C8000C60404D215484FF4D0711EF01FFFD8F8C7
:102C9000003023F06003C8F80030D8F800302C4032
:102CA0001F43C8F80070C8F81440BDE8F081B6EBC7
:102CB000D40F04D9094840F279111EF007FF08210A
:102CC000D3E70625B4FBF5F3B34204D203484FF42F
:102CD000BF711EF0FBFE2946C7E700BF349D02000E
:102CE000000801405041070040410500F8FF7F0007
:102CF00038B5164B984204460D4620D003F5806344
:102D000098421CD003F58063984218D003F5806385
:102D1000984214D003F58063984210D003F5806385
:102D200098420CD003F53053984208D003F58063E5
:102D3000984204D006484FF433711EF0C7FEEB43AF
:102D40005B0003F00A03E360E56038BD000001406A
:102D5000349D020038B5254B254D984204461ED0BF
:102D6000A8421CD003F50063984218D003F5806395
:102D7000984214D003F58063984210D003F5806325
:102D800098420CD003F53053984208D003F5806385
:102D9000984204D0174840F242411EF097FE40F698
:102DA000AA63E36041F20502002323606260124AD5
:102DB000A3606361E364A2640C4A23669442636780
:102DC000A367E36703D002F50062944200D1236554
:102DD0000023AC42A36506D0084A944203D002F512
:102DE0008062944200D1E36538BD00BF000001401D
:102DF00000040140349D0200F9FF0100000C014075
:102E000038B5314B984204460D4620D003F5806317
:102E100098421CD003F58063984218D003F5806374
:102E2000984214D003F58063984210D003F5806374
:102E300098420CD003F53053984208D003F58063D4
:102E4000984204D0214840F2FD211EF03FFE20466A
:102E5000FFF780FFAB7C1BB1236843F08043236006
:102E6000EB7C1BB12B7D43F08003A3652A8A6B7B2F
:102E70001343EA89134363602B7BD5E90112204693
:102E8000FFF7BCFE6B7D1BB1236843F480332360E6
:102E9000AB7D1BB1236843F400432360EB7D2A7EA6
:102EA0001B07120502F4E00203F0E043134323661C
:102EB000636F23F030036367626F6B7E1343636756
:102EC0002B78E36038BD00BF00000140349D020054
:102ED00013B500230C4601220B210320FFF7A6FCAB
:102EE0000023042207210520FFF7A0FC0023042271
:102EF00006210520FFF79AFC002304220821052063
:102F0000FFF794FC0023012209210320FFF78EFC28
:102F10000023012209210520FFF788FC002301225C
:102F20000C210320FFF782FC144B154AC3F80C2C2C
:102F30001122C3F8002C0D21C3F8002C032000231C
:102F40000422FFF773FC002304220E210320FFF765
:102F50006DFC012304220A210820FFF767FC0721EA
:102F6000012308460422FFF761FC01AA00211E206C
:102F700003F084FB0023237002B010BD0040024028
:102F80000000010138B51848184C0D460121FEF724
:102F900049F817480121FEF745F816480121FEF7C8
:102FA00041F8D4F890301B0701D41FF0DCFB00235C
:102FB00004220A210320FFF739FC236843F4C0539D
:102FC00023604FF4A023C4F87431D4F8703143F077
:102FD0000403C4F87031084B4FF40072C3F8102C8E
:102FE00000232B7038BD00BF4041050000400E405B
:102FF0000035020000550A0000400240034B4278B1
:103000001A70034B4FF000625A6070475D12002047
:1030100000E100E007B51FF0D4FF054B01AA1878C6
:10302000012122F0F9F81FF0CEFF03B05DF804FB98
:103030005D120020034B1B6813B103481FF059BBFE
:10304000704700BFC09D0200E49D02002DE9F84FCB
:10305000834608B91FF087FB424C227A012A03D12C
:1030600008228BF80020FEE7FF2A03D108228BF804
:103070000020FEE7617A206801311FF066FAA17A2C
:103080008146013160681FF060FA627A4A458046E5
:1030900003D208228BF80020FEE7A27A824203D2F4
:1030A00008228BF80020FEE70C22E1682E482F4E04
:1030B0005B4600F02BFB9BF8002030600546002AA1
:1030C0004ED101220260227AE168294802EB4202D5
:1030D0005B46920000F01AFBA8609BF80050002DA0
:1030E0003ED13268D2F808A0227AEFB2BA421BD899
:1030F0002168DAF800004A461FF037FA3268616842
:103100009068424680681FF030FA34681948A26817
:103110004FF0004151601168174A11605A46002172
:1031200000F0F6F960601BE00C23627AE168134856
:103130005F435B4600F0EAFA4AF807009BF800207C
:1031400072B93268E16892680D4817445B46A27A0A
:1031500000F0DCFAB8609BF800200135002AC0D0EE
:10316000BDE8F88F1C100020F09D02005C260020B6
:10317000FC9D0200469E020060260020119E020077
:103180002C9E02002DE9F04F814685B08B461446F7
:103190000AB91FF0E8FA3C4D697A484601311FF040
:1031A000D4F9A97A0746013158461FF0CEF96B7A57
:1031B000BB42804602D208232370FEE7AB7A8342EB
:1031C00002D208232370FEE7DFF8C0A0DAF800007F
:1031D00000224068234611461EF008FE2678002E85
:1031E00050D1DAF800202B7A12689A4248D3112382
:1031F00023703546DAF8003003A958681EF07BFDCD
:103200009DF80C300BB11FF0AEFA284605B0BDE8B2
:10321000F08F02FB06F0494618581FF0FAF90C220D
:1032200018B9152323700546E4E70136DAF80000E3
:1032300001688368B142ECD802FB01F601319A19AA
:103240000160A87A009208F101086A7A019380452A
:1032500007F1010728BF8046BA4228BF3A4698596D
:1032600049461FF082F9009B4246986859461FF074
:103270007CF9009B00225A60019B9D592270B9E79E
:103280000C22D3E70025C0E71C1000205C2600209C
:103290002DE9F74F8046894614460AB91FF063FAB4
:1032A000264D40461FF05DF96B7A984203D90E23F4
:1032B0002370002539E048461FF053F9AB7A984255
:1032C000F5D81F4E306800224068234611461EF094
:1032D0008DFD2778002FECD1BA464FF00C0B3268E9
:1032E00013685FFA8AF5AB4212D993680BFB05F5B8
:1032F000414658591FF08DF90AF1010A0028EED114
:1033000033689B682B44494698681FF082F980B166
:103310000E27002533682770586801A91EF0EBFCC2
:103320009DF804300BB11FF01EFA284603B0BDE82B
:10333000F08F33689B685D59ECE700BF1C100020DC
:103340005C260020094B012210B51A70044608B90A
:103350001FF009FA0023237000F0C8F91EF0EDFDFC
:103360002046BDE8104000F02FBB00BF2E4B0020D0
:10337000014B1868704700BF642600202DE9FF410B
:10338000044608B91FF0EFF900232370204601F02E
:10339000A7F923782BB1204604B0BDE8F04101F035
:1033A00067BD2B4E3368002BF5D1FFF7E1FF2346B5
:1033B00001460546B422274800F0A8F9237830607A
:1033C0000146002BE7D14FF0FF380427CDE9013843
:1033D00021480394342300972A4600F0CDF923783E
:1033E000002BD8D131681D48CDE90073CDE90284A6
:1033F00028232A46243100F0BFF92378002BCAD1B4
:1034000031681748CDE90073CDE9028438232A4694
:103410006C3100F0B1F92378002BBCD13168114830
:10342000CDE90073CDE9028401232A46903100F0F2
:10343000A3F92378002BAED131680B48CDE9007396
:10344000CDE9028424232A46483100F095F9A2E709
:1034500068260020569E0200689E0200779E0200A9
:10346000849E0200919E0200A39E02002DE9FF416E
:103470000A9E07460C4690461D460EB91FF073F98A
:10348000B8F13F0F02D808233370FEE715B10723C8
:103490003370FEE71B4B1B6843B93046FFF76EFFE6
:1034A00033781BB1002004B0BDE8F081FFF760FF66
:1034B0004FEA88020146C4B908230390CDE90046CB
:1034C000114800F03DF93378002BEBD10399054604
:1034D00033460E48E82200F019F93378002BE1D189
:1034E000C0E93758C0F8E470DDE714F0070024F0B5
:1034F000070518BF082005441444641B4FEA9408CC
:10350000E6E700BF68260020B09E0200BD9E0200D4
:103510002DE9F34180460E4615460AB91FF023F9FE
:10352000164F3B6843B92846FFF728FF2B781BB19D
:10353000002002B0BDE8F081386829461EF0C0FEC8
:103540002B780446002BF3D12A46414601F0F8FFC0
:103550002B783BB916B1337803F0010384F830308F
:103560002046E6E7386801AA21461EF00FFF9DF8C5
:1035700004300BB11FF0F7F80024F1E768260020B3
:1035800013B5044600B9FEE701AA012102F024F8B0
:103590009DF804300BB11FF0E6F8064B01AA18683D
:1035A00021461EF0F3FE9DF804300BB11FF0DBF84E
:1035B00002B010BD68260020F7B507460D46144638
:1035C0000AB91FF0D0F815B107232370FEE7144E97
:1035D00033683BB92046FFF7D1FE237813B10020B2
:1035E00003B0F0BD3068214624301EF069FE227819
:1035F0000546002AF3D12346394602F015FB23780D
:103600005BB1306801AA294624301EF0BFFE9DF848
:1036100004300BB11FF0A7F800252846E0E700BFF3
:103620006826002013B5044600B9FEE701AA01216F
:1036300002F04AFB9DF804300BB11FF094F8074BE1
:10364000186801AA214624301EF0A0FE9DF804301F
:103650000BB11FF088F802B010BD00BF6826002033
:1036600010B504461EF0ACFA024B1C60BDE81040D9
:103670001EF0ACBA6C26002010B51EF0A1FA074B64
:1036800007491A6843F2390401FB024424F000445C
:103690001C601EF09BFA204610BD00BF6C26002067
:1036A0006D4EC641034A43F2390302FB003020F05D
:1036B000004070476D4EC64170B505460E461EF07F
:1036C0007FFA094B1A6814462CB9EA601D601EF097
:1036D0007DFA347005E0AC4204D11EF077FA152370
:1036E000337070BDE468EFE77026002007B5064828
:1036F00001A9FFF7E1FF9DF804300BB11FF033F88B
:1037000003B05DF804FB00BF2C10002030B50C4660
:1037100085B011461D461BB903921FF024F803998A
:10372000064801950023009304220123002C18BFB2
:1037300020461EF005FC05B030BD00BF2C10002057
:1037400073B5DDE906650C4611461A462DB9CDE97B
:1037500000131FF008F8DDE9001206480123002CD1
:1037600018BF2046CDE9066502B0BDE870401EF0E6
:10377000E7BB00BF2C1000202DE9F341DDE90A86EC
:1037800015460C461A46DDE908372EB9CDE9002367
:103790001EF0E9FFDDE9002314B90A233370FEE7C8
:1037A0000021C4E90711217006490897002D18BFB0
:1037B00029462046CDE9098602B0BDE8F0411EF059
:1037C00013BC00BF2C1000202DE9F347DDE90E9655
:1037D0001546DDE90C8A1A460C46DDE90A372EB992
:1037E000CDE900231EF0BFFFDDE9002314B90A2351
:1037F0003370FEE70221217007490A97002D18BF98
:1038000029462046C4E907A9CDE90B8602B0BDE8E8
:10381000F0471EF0E9BB00BF2C1000202DE9F04F4F
:1038200085B0074691469846009109B903AB0093CD
:10383000009B1F600E9B13B90DF10B030E930E9AA4
:1038400000231370002F00F09E80B9F1010F00F0EB
:103850009C80B9F1240F00F2988038781EF05DFB4F
:103860003C46012822D023782B2B24D02D2B24D08A
:103870004FF00008B9F1080F237825D0B9F1100FE7
:103880004BD0B9F1000F5FD1302B56D1637803F0E4
:10389000DF03582B04F1010653D1A0781EF02FFB53
:1038A000012800D1A61C4FF0100910E014F8010FF8
:1038B0001EF033FBD5E70134DAE7B8F1010F0CBF96
:1038C00001344FF00108D5E7302B3DD1661C4FF095
:1038D000000AD346019616F8015B28461EF0F6FA58
:1038E00001283ED128461EF004FB01282ED1303D90
:1038F000EDB2A94535D9BAF1000FEBD1244B53F8FD
:10390000291059452AD30BFB09F3EB189B462CBF12
:103910004FF0010A4FF0000ADCE7302B14D1637836
:1039200003F0DF03582B04F10106D0D1A0781EF07C
:10393000E6FA0128CBD1A61CC9E726464FF00A09B2
:10394000C5E74FF00809C2E72646C0E728461EF043
:10395000CAFA01280CBF573D373DC9E74FF0010AAD
:10396000B8E7019BBAF1010F08BF4FF0FF3B9C4243
:1039700018BF1F46009B1F600E9B83F800805846AF
:1039800005B0BDE8F08FBB46F9E79B46F7E700BFFF
:10399000D09E0200F8B50F2313700A4B1B681C68F9
:1039A00006460F46154654B160683946B0470128AF
:1039B00003D100232B702046F8BD2468F3E70024D0
:1039C000F9E700BF74260020F0B5044685B008B9B9
:1039D0001EF0C9FE234E736800272770002B3ED0CF
:1039E000394602201EF03FF93946054603201EF0F5
:1039F0003AF92840C5B2394604201EF034F928406F
:103A0000012802D006232370FEE7FFF7B1FC23460E
:103A1000014605462C221448144FFFF777FE237801
:103A20003860E3B973680293336801930423011D7E
:103A300000930F48039408232A46FFF79DFE217840
:103A400069B90C483D682246FFF762FDA8622378F9
:103A50002BB9386805B0BDE8F0401EF0E0B805B0FD
:103A6000F0BD00BF40100020649F020074260020BB
:103A7000789F0200909F0200F7B505460C4609B9F1
:103A80001EF071FE15B90A232370FEE7174E306849
:103A900000222346806A11461EF0A8F92378A3B9B4
:103AA000696813482246FFF775FF23780F2B0ED065
:103AB00015232370336801A9986A1EF01CF99DF83C
:103AC000043013B1227802B9237003B0F0BD30681E
:103AD000214604301EF0F4FB27780146002FE9D17F
:103AE000456030681EF09EF82770E3E774260020DA
:103AF000E1260200F7B505460E4614460AB91EF047
:103B000032FE15B90A232370FEE7114F38680022F0
:103B10002346806A11461EF069F92378ABB928461E
:103B200022463146FFF736FF054600B145683B683F
:103B300001A9986A1EF0DFF89DF8043013B12278CD
:103B400002B92370284603B0F0BD0025FAE700BF94
:103B50007426002038B505460C4609B91EF003FE50
:103B600015B90A232370FEE7224629460248BDE81C
:103B70003840FFF7BFBF00BFE126020037B514464B
:103B8000094A01ABD2880020FFF7C0FD9DF8045020
:103B900020603DB905491EF0FCFCC4E90155012037
:103BA00003B030BD0020FBE748100020D0B0020079
:103BB0000A4B1B6870B59C6A06460CB9204670BD5E
:103BC00065686B680BB9A468F7E7296830461EF092
:103BD00020FD08B10835F4E76868F0E77826002092
:103BE000F0B5002187B0044602201EF03CF8002109
:103BF000054603201EF037F82840C5B200210420F6
:103C00001EF031F82840012802D006232370FEE779
:103C1000234D2448A968244E23463822FFF776FD19
:103C2000237830600746002B38D1AA88A9681F483E
:103C300023469200FFF76AFDF8622378002B2DD10E
:103C4000EA88A9681948376823460432FFF75EFD01
:103C50003863237813BB3168154881F834308B62A0
:103C6000CDE90434134B03936B8802932B880193A3
:103C700004230093AA680C23FFF7A6FD217869B9F5
:103C80000D4835682246FFF743FC686223782BB95C
:103C9000204607B0BDE8F04000F018BA07B0F0BD0C
:103CA00048100020A29F020078260020B49F020046
:103CB000C89F02007D3B0000DE9F02002DE9F34714
:103CC00006460F4614460AB91EF04DFD17B90A23E1
:103CD0002370FEE77B6813B934232370FEE766B9CF
:103CE0000026DFF830812146D8F800001EF0E8FAFF
:103CF0002378054683B1112307E030461EF031FCDE
:103D0000434BDB88834204D80823237002B0BDE80C
:103D1000F0870028E4D0E4E70EBBD0F80090B9F1BA
:103D2000000F00D1FEE73968A1B10B461E4613F81B
:103D3000012B5F2A01D0002AF8D1354B761ADA8898
:103D4000B3B29A4230D9B6B2324648461EF00DFCA4
:103D500008B9FEE7FEE7002309F806302E68D8F818
:103D6000000000222346406A11461EF03FF82378E7
:103D7000E3B9D8F80030D3F828903146B9F1000FF4
:103D80001DD128681EF005FCD8F800306F609A6AD3
:103D9000586AAA6021469D621DF0ADFF2378002B72
:103DA000B4D01EF0E0FCB1E708232370D8F800007F
:103DB00001AA29461EF0EAFA9DF80430EFE7D9F887
:103DC00000001EF026FCD9F80430BB4210D078B1B8
:103DD00007F1080A5AF8043C13B9D9F80890CCE75F
:103DE0005AF8080CFFF7E4FE0AF1080A0028F1D09F
:103DF00015232370D8F8003001A9586A1DF07BFF05
:103E00009DF80430002BD1D01EF0ADFCCEE700BFF2
:103E100048100020782600202DE9F74F04460F4671
:103E200090461E460BB91EF09EFC14B90A2333704F
:103E3000FEE7DFF8BC90D9F800000022406A334664
:103E400011461DF0D3FF3578002D47D1D9F800B0C9
:103E5000234ADBF82C109288334620461EF055FC8E
:103E600033788246002B37D1B0B934233370D8F879
:103E700004201C482421B8475446D9F8003001A931
:103E8000586A1DF038FF9DF804300BB11EF06BFC32
:103E9000204603B0BDE8F08FDBF82C301868FFF740
:103EA00087FE044638B90F233370D8F804200E4833
:103EB0001F21B847E1E7D9F800104346C96A3A46DE
:103EC0005046A047431C0446D7D133233370D8F85B
:103ED000042006482C21ECE72C46CEE70024D7E747
:103EE00048100020EE9F020012A0020031A0020044
:103EF000782600202DE9F843104BDFF844801B683A
:103F00009C6A05460E460CB9BDE8F88367687B6875
:103F100008370BB9A468F6E757F8089C48461EF026
:103F200020FB726881B24846A84740461EF019FB44
:103F3000726881B24046A847E9E700BF78260020B2
:103F4000EAB0020038B505460C4609B91EF00BFC74
:103F50000E4BDB88AB4202D21E232370FEE71DF01E
:103F60002FFE0B4B1B6893F8342062B901221D6BA6
:103F700083F834201DF02AFE002D14BF00231B23DC
:103F80002370284638BD0025F4E700BF4810002004
:103F90007826002008B51DF013FE044B1B68002294
:103FA00083F83420BDE808401DF010BE78260020BC
:103FB00002282DE9F3410F4614461D4626D13D49FE
:103FC00078681EF026FB0646002839D13A481EF0D4
:103FD000C8FA6A6881B23848A04738481EF0C1FA6A
:103FE0006A6881B23548A04735481EF0BAFA6A6857
:103FF00081B23348A04731481EF0B3FA6A6881B2F3
:104000002E48A047304602B0BDE8F08101380128B3
:1040100010D929481EF0A5FA6A6881B22648A0473F
:1040200026481EF09EFA6A6881B22448A0474FF0E5
:10403000FF36E7E719461046FFF75CFF0026E1E789
:1040400078681EF08EFA043001A980B2FFF77AFF7B
:104050009DF804608046002EE9D179681EF099FA37
:10406000184940461EF0B2FA124940461EF0AEFA18
:1040700001AB2A4621464046FFF7CEFEFFF78AFFF6
:104080009DF804300F2B01D0112BBBD16A680E486C
:104090001921A0477E6830461EF063FA6A6881B233
:1040A0003046A04705481EF05CFA6A6881B20348B2
:1040B000A047C3E75DA0020060A00200EAB00200D2
:1040C0009BA00200E0BB0200E1A002000246024900
:1040D0000248FFF7F3BD00BF54100020FAA0020011
:1040E000024B00221A601AF0AFB800BF7C260020F5
:1040F00000B9FEE7044B1B68002B14BF0022092205
:1041000002701846704700BF7C260020014B1860E3
:10411000704700BF7C2600202DE9FF41466DF388E3
:10412000DB0605460C4602D009230B70FEE73389F7
:1041300013B109230B70FEE7F78A17B109230B703F
:10414000FEE7036E13B90A230B70FEE7D0F8508028
:1041500040783B463A46642120F06BFC40F2E9533C
:10416000984202D809232370FEE703AB0093394637
:104170001948019420236822FFF7E2FA0746A86550
:1041800030B3D8F800302146284698472378FBB949
:10419000D8F808302146284698472378C3B9D8F87C
:1041A000043021462846984723788BB9B28CB169F0
:1041B0000A482346D200FFF7A9FA386023783BB9B2
:1041C000F28CB16906482346D200FFF79FFA786067
:1041D00004B0BDE8F08100BFFDA002000EA1020006
:1041E0001AA102002DE9F04FD0E915638DB00F46FA
:1041F0000593F18C036D06930546B46A21F0D1F95D
:1042000000233B708DF8243006238DF82730687822
:1042100009AB0DF127020AA921F053F89DF82430CB
:10422000DBB1002309AA0AA906F130008DF8243079
:1042300020F057FA9DF82430002B40F08A8009AB1B
:10424000687806220AA921F058F89DF824305BB15D
:1042500009233B700DB0BDE8F08F687809AA0AA960
:1042600021F064F80128DCD1D5E915B80A9BC4F81F
:104270008830BDF82C30C4F88C30DBF82830079338
:10428000BBF82430D8F8006003F10053013BC8E9C3
:10429000026606EBC3034FF00009C8F81030CA46A7
:1042A000BBF824201FFA89F39A4254D8079AD8F809
:1042B000083093613B78002BCCD1059A9384D5E9E3
:1042C0001531D88C4A68D3F828C00A6200F100532F
:1042D000013B02EBC303C1E90522CB6102EBC00045
:1042E00011464FF0004E884257D1CCF81C20642371
:1042F000059A2366002382F82630636A4FF0FF3365
:104300006362236263618223A3620123E3606368C3
:1043100043F4003343F0C0036360636843F4806395
:1043200043F0030363602269214B13432361236934
:1043300023F080032361BFF34F8F236843F01C03F6
:104340002360BFF34F8F069B39461B68284698476A
:1043500080E725237DE7C6F804A00023CDE902A766
:10436000CDE900AA40F2EA526421284607F072F92A
:104370003B78002B7FF46EAF3060336823F001038D
:104380003360D8F810309E4202BF336843F0020316
:10439000336009F10109083682E78B42C1F804E075
:1043A00002BF5E6846F080465E6008319BE700BF52
:1043B0001F0818012DE9FF47036E1D78FF2DD0E976
:1043C00012A780460C4645D14FF0000900945FFAD1
:1043D00089F503AB7E6A022229464046B04723781E
:1043E00053B109F10109B9F1200FEFD14D460F2367
:1043F00023701EF0B8F922E000940DF10E037E6ADE
:10440000032229464046B0472378002BE9D1BDF866
:104410000C301BB143F6FF7293426BD1BDF80E1006
:104420000029DED043F6FF7283B99142D9D0BDF89E
:104430000E204FF6FF739A42D3D01F2DD7D08AF8A3
:104440000650237843B104B0BDE8F08793424AD1C7
:104450009942EBE78AF8065000940022BE6A4FF4B6
:10446000004329464046B0472278002AEBD1009409
:104470000DF10E037E6A29464046B0472378002B93
:10448000E1D1BDF80E30DFF880A003EA0A03ADF8F1
:104490000E304FF00309BDF80E30B3F5004F1ED1BA
:1044A000B9F1000F02D122232370CCE702201DF0C6
:1044B000FDFC00940DF10E037E6A00222946404661
:1044C000B0472378002BBED1BDF80E3009F1FF397B
:1044D0000AEA0303ADF80E301FFA89F9DBE7B9F1F8
:1044E000000FB0D1DFE74FF6FF718B429FD09342B0
:1044F0009DD0A2E74FF6FF7293429ED1BDF80E30D9
:10450000002B94D16DE700BF0080FFFF07B5104B73
:104510001B78012B07D1FDF7B1FDB0B94FF0FF308B
:1045200003B05DF804FB01A800F07CF99DF80410CD
:104530000029F3D1012001AA00F0EAFC9DF8040053
:10454000003818BF01204042EAE76FF00500E7E7B6
:10455000374B0220084B187801280AD1074B1B78EB
:10456000012B07D1064B1B78002B14BF0320022020
:1045700070470020704700BF344B0220374B0220A9
:10458000384B022007B5FDF779FD48B9074B1B787A
:10459000012B02D001A800F0C9F84FF0FF3001E074
:1045A0006FF0050003B05DF804FB00BF374B02203D
:1045B00037B50546FDF762FD18B10024204603B06B
:1045C00030BDC5B934201CF063FA04460028F4D08D
:1045D00001231A4980F8303001AA204600F0B0FFCC
:1045E0009DF80430FBB194F83030012BE5D1204622
:1045F0001CF056FAE1E7AC6874B934201CF048FAB4
:1046000004460028D9D0012384F8303029680B4BA8
:10461000002908BF1946DFE7EB68332BCDD914F02A
:104620000303F1D0C9E735B16B68DB0703D501237C
:1046300084F83130C2E70023FAE700BF03A202008A
:1046400073B504460E461546FDF718FD18B1002453
:10465000204602B070BD002CF9D0D5B930201CF036
:1046600017FA04460028F2D00123164980F82830B2
:1046700001AB3246204601F0D7FA9DF80430002BFA
:10468000E6D094F82830012BE1D120461CF008FA3E
:10469000DDE7AC6874B930201CF0FAF90446002854
:1046A000D5D0012384F828302968064B002908BF9B
:1046B0001946DDE7EB682F2BC9D914F00303F1D0BD
:1046C000C5E700BF68A10200034B1B78012B06BFA2
:1046D000024B186800207047374B0220F82B00204F
:1046E00070B5044608B91EF03EF8FDF7C7FC054654
:1046F00010B120232370FEE70A4B1B78012B02D058
:104700000223237070BD084E3378F92B01D91E2384
:10471000F7E71DF055FA3378013333701DF056FA80
:104720002570EFE7374B0220384B022070B5044666
:1047300008B91EF018F8184B1E78012E02D013236A
:104740002370FEE7154B1B88022B02D80923237028
:10475000FEE7134D2B7813B11F232370FEE71DF0E6
:1047600038FA10B11F232370FEE701F079F80D4BE2
:104770000D4A18700D4B2E7018700C2358430C4BBB
:104780001B5813600B4A136001F08EFB19F086FD75
:10479000BDE870401DF0E7BF344B0220F24A002014
:1047A000374B0220364B0220FC2B0020354B0220D9
:1047B00010280020F82B002030B14368C1F8D83011
:1047C0008368DB68C361704791F83030022B03D0F7
:1047D000072B05D0034B00E0034BC1F8D8307047DE
:1047E000024BFAE7E0BB020078A102003AB00200F7
:1047F000044BC1F8D83018B1826802B1D368C361E4
:10480000704700BFE0BB0200054B40220021013A87
:10481000C3E90011198103F10C03F8D1704700BFFF
:104820001028002070B5044608B91DF09CFF944D77
:104830006A68D2B12B68934E4BB92346296B9248D4
:104840009200FEF763FF306023780BB170BD3360D8
:104850008E4B32681A608E4A6B6813608D498E4A9F
:104860009B0013600A6813440B602A89B2B1234687
:10487000296B8A481201FEF749FF894B186023789B
:10488000002BE3D1874B884A18602B89138081491C
:10489000864A1B0113600A6813440B606A69002A88
:1048A00027D02B69824E002B5BD12346296B814890
:1048B0009200FEF72BFF30602378002BC6D17E4B91
:1048C0002A7E1A707D4BEA691A607D4B32681A6045
:1048D0006B69EA6864215A43B2FBF1F279490A60D4
:1048E000794A6C491360794A9B0013600A68134443
:1048F0000B606A6A002A28D02B6A754E002B32D1D1
:104900002346296B73489200FEF700FF306023783E
:10491000002B9BD1704B95F828201A706F4B326892
:104920001A606B6AEA6864215A43B2FBF1F26C497F
:104930000A606C4AE96A13606B4A9B0013606B4A19
:10494000116054490A6813440B60694E6B6B336005
:1049500019F056FD1AF0F8FB054630B1012323701B
:1049600074E73360ABE73360D4E71AF0BDFC366818
:10497000604BB0420246186002D209232370FEE762
:104980006DD02B46002001211BF0C8FE70435A4B0E
:10499000B6F57A7F186008D932460023002001213D
:1049A0001BF0BCFE4FF47A754543544B544A1D60CE
:1049B00000231370534A1370534A1360534A136011
:1049C000534A1370534A1370534A2046137001F030
:1049D0004DFE0A23B0FBF3F0504B186021780029FC
:1049E0007FF434AF2A4B1A68002A3AD14C4B002589
:1049F0001D7000F02DFFFFF707FF4A4B1D604A4B6B
:104A00001D80294B1B88002B33D1484A002313609B
:104A1000474A1380474A1360474A1380474A136046
:104A2000474A2046138001F0DDFB2378002B7FF4FA
:104A30000DAF204601F004FA2378002B7FF406AF77
:104A4000204601F009FF2378002B7FF4FFAE00F031
:104A50000BFB1EF0B5FA3B4B01221A70F6E6284616
:104A600095E70A4B18680028C0D0920024F055FE44
:104A7000BCE7204600F044FC2378002BC5D0E5E6D7
:104A800064100020842600207FA1020088260020D8
:104A90008C260020802600209026002092A1020073
:104AA0009426002098260020E24A00209C26002020
:104AB000A4260020A4A102002F4B0220A026002043
:104AC000A8260020AC260020B0260020B426002016
:104AD000C0260020BDA10200304B0220C4260020C9
:104AE000C8260020CC260020D0260020BC2600208E
:104AF000B826002000270020D8260020D426002039
:104B0000374B0220384B0220F82B0020FC2B0020D2
:104B1000354B0220364B0220394B0220102B00204F
:104B20003C4B0220F8270020E64A002008280020FD
:104B3000E84A00200C280020EA4A0020142B00201C
:104B4000EC4A0020344B022090F833300B490C2201
:104B5000534330B5CA58CC1832B901252581C0E974
:104B60000422C850606030BD2589013525810024AC
:104B7000026144615061C850F5E700BF1028002071
:104B800090F833200B490C235A4330B58C588B18BE
:104B900034B901251D81C0E904448850586030BDF6
:104BA0001A8901321A81002202615A684261106139
:104BB000F4E700BF1028002010B5044690F8330039
:104BC00000F05EFE084B94F833201B789A42204692
:104BD00006D1FFF7D5FF2046BDE8104024F02BBDDD
:104BE000FFF7B2FFF7E700BF354B022070B5044670
:104BF000D4E9043590F83300124A0C21BDB973B9D9
:104C00004143551853502B816B6000F04FFE002339
:104C1000C4E904332046BDE8704024F025BD484374
:104C200016183189013931815D611350EFE701FBBD
:104C300000221189013911812B610BB95560E6E71A
:104C40005D61E4E71028002013B5044670B1084BFD
:104C50001B78012B0AD10023CDE90033054A816F6F
:104C60000346054824F02BFC044B1C6002B010BD29
:104C7000394B0220C94E0000E0260020DC2600202F
:104C8000F8B50446A8B1114B1B78012B11D1456F23
:104C90000F4E7DB90F4B1F681AF026FB32682B466A
:104CA000511E0D461946E7FB005128461BF036FD04
:104CB000A067F8BD1AF018FB32680023511E0E469B
:104CC0001946E5FB00613046F0E700BF394B022092
:104CD000B8260020102B00202DE9F3475A4B1B78F3
:104CE000012B00D0FEE7594B93F80080B8F1000F7C
:104CF00040F08A801CF064FF554F564C97F800A096
:104D0000DFF86091544D064600F0AAFD40280346A6
:104D100038707CD00C20DFF850814343BAF1400F4B
:104D200058F80330236003D101F0B0F9AFF30080ED
:104D300020682A6899F8003090420DD133B1836F12
:104D40000BB9FFF79DFF2068FFF77EFF304602B0EA
:104D5000BDE8F0471CF03ABF1BB3DFF81091D9F85B
:104D600000309B6FEBB13D4801A91AF06BFA30B9E6
:104D7000D9F80030019A39489A671AF01FFAD9F821
:104D800000309A6F6AB993F8330000EB400008EBEB
:104D900080001EF010FA3B780C22534358F8033081
:104DA00023602268D2F8AC300133C2F8AC302C4A10
:104DB0001368013313603B78402B3AD02B6822688C
:104DC000934215D0A3B119F057FA2B68D3F8B43039
:104DD000984226D319F050FA2B68D3F8B430C01A91
:104DE0002A68D2F8B830C2F8B0001844C2F8B80047
:104DF000246819F041FAC4F8B40019F08EFA30466C
:104E00001CF0E4FEBFF36F8F02B0BDE8F08799F8A5
:104E10000030C4F80080002BC9D010481AF0CEF939
:104E2000C5E719F029FA2B68D3F8B420D24310440F
:104E3000D6E701F023F92C681CB119F01DFAC4F86B
:104E4000B400AFF30080D8E7374B0220384B022084
:104E5000364B0220FC2B0020F82B0020E0260020FF
:104E6000002C0020394B022010280020DC260020D6
:104E700070B5044608B91DF076FCFDF7FFF810B1D7
:104E800020232370FEE70E4B1B78012B02D0022358
:104E9000237070BD0B4E33780BB91F23F8E71CF05D
:104EA0008FFE3578013DEDB235701DB11CF08EFEE0
:104EB0002D23EDE71CF08AFEFFF70EFF2570E8E7D3
:104EC000374B0220384B022038B50E4B1B78012B94
:104ED0000D4616D11CF074FE0023AB670A4B1B680D
:104EE00093F833300446094803EB430300EB830097
:104EF0001EF061F920461CF069FEBDE83840FFF75E
:104F0000EBBE38BD394B0220DC26002010280020E3
:104F10002DE9F04105460E4614460AB91DF023FC62
:104F2000002323701CF04CFEDFF878800746E6B1C2
:104F3000C8F80060174B012D1A781FD0012A0FD135
:104F4000154C16482168002578311D701AF07AF941
:104F500008B123689D6711481AF030F900232360D7
:104F60003846BDE8F0411CF031BE204601F07EFB22
:104F70000A23B0FBF3F0C8F80000DBE7002AEFD10A
:104F8000074C1D702068FFF77BFE2068FFF75CFE72
:104F9000E6E700BF394B0220DC260020E026002097
:104FA000F82B0020102B0020F7B504460D4611B356
:104FB0001AF09AF9114B1A680026571E46F1FF3174
:104FC000E5FB0071334638461BF0A8FBCDE90066CF
:104FD00001460B4A234604F1540024F070FA08B14C
:104FE0001DF0C1FB0323204684F8323003B0BDE836
:104FF000F040FFF7FBBD0223F5E700BFB826002015
:10500000E331020037B5144D0B4611462A6882F889
:105010003030002382F83130104A127804463AB119
:105020000F4A10481268019193671AF0C7F8019966
:105030002868FFF7B9FF64B1296804F10800CC6261
:105040001DF0D0FF2968204603B0BDE83040FFF7CF
:10505000B3BB2B68DC62F5E7F82B0020394B02204C
:10506000DC260020E0260020774B1B7882B0DBB2E4
:105070008DF80530754B1B68DBB28DF80730744B2B
:105080001B78DBB28DF80530724B1B78DBB28DF8E4
:105090000530714B1B68DBB28DF807306F4B1B6A14
:1050A000DBB28DF807306E4B1B78DBB28DF8053024
:1050B0006C4B1B78DBB28DF805306B4B1B88DBB279
:1050C0008DF80630694B1B88DBB28DF80630684BD3
:1050D0001B78DBB28DF80530664B1B88DBB28DF890
:1050E0000630654B1B88DBB28DF80630634B1B889E
:1050F000DBB28DF80630624B93F82830DBB28DF8C6
:105100000730604B1B78DBB28DF805305E4B1B8897
:10511000DBB28DF806305D4B1B88DBB28DF80630B4
:105120005B4B1B88DBB28DF806305A4B1B88DBB219
:105130008DF80630584B1B88DBB28DF80630574B84
:105140001B88DBB28DF80630554B5B8DDBB28DF8DA
:105150000730544B1B78DBB28DF80530524B1B885F
:10516000DBB28DF80630514B1B78DBB28DF8063080
:105170004F4B1B6ADBB28DF807304E4B1B78DBB20E
:105180008DF805304C4B1B88DBB28DF806304B4B4D
:105190001B88DBB28DF80630494B1B68DBB28DF8FB
:1051A0000730484B1B78DBB28DF80630464B1B7836
:1051B000DBB28DF80530454B1B78DBB28DF805303E
:1051C000434B1B78DBB28DF80530424B1B78DBB2CA
:1051D0008DF80530404B1B78DBB28DF805303F4B26
:1051E0001B78DBB28DF805303D4B1B88DBB28DF8A8
:1051F00006303C4B1B78DBB28DF805303A4B1B88F0
:10520000DBB28DF80630394B1B88DBB28DF80630E7
:10521000374B1B78DBB28DF80530364B1B88DBB281
:105220008DF80630344B9B8CDBB28DF80730334B56
:105230001B88DBB28DF806309DF805309DF80630EE
:105240009DF8073002B070475F1200209C100020CC
:105250005E120020314B0220A01000200427002005
:1052600060120020324B022034120020361200203F
:10527000611200203C120020381200203A12002057
:105280002C270020621200203E1200204012002035
:105290004212002044120020461200204812002032
:1052A0005C270020631200204A12002064120020B4
:1052B0008C270020651200204E1200204C12002086
:1052C000A41000206812002066120020671200203F
:1052D000691200206A120020334B02206B1200205A
:1052E000521200206C120020501200205412002094
:1052F0006D12002056120020B42700205812002002
:10530000124BF0B51C68124B1E880025721E04F16A
:10531000100192B22B46AFB2BA420DD8110104EB84
:105320000212635053601381D3600A4A146096805E
:10533000D38013810370F0BD41E9041321F8083CC8
:1053400041F8043C01351031E5E700BF9826002004
:10535000E24A0020FC2700202DE9F74F0C9D06466D
:10536000894692461C460DB91DF0FDF930461AF0EB
:10537000A3FA534601464A462C201AF07DFCFCF75E
:105380007DFE10B120232B70FEE716B90A232B7087
:10539000FEE7CAF30E0313B108232B70FEE7326851
:1053A000524B9A4202D00C232B70FEE70FFA8AFA76
:1053B000BAF1000F05DB1CF00CFC10B11F232B70A1
:1053C000FEE74B4B93F80080B8F1010F17D11CF0AA
:1053D000F7FB96F82830DFF820B10746A3B9DBF8D1
:1053E0000030736286F828800CB1F26A22609A6BF2
:1053F000326238469E631CF0E9FB002300E0022382
:105400002B7003B0BDE8F08FD6F82480DBF80020C5
:10541000904510D1FF2B03D11CF0D8FB1E23EFE7E2
:10542000013386F828300CB1F36A236038461CF04B
:10543000CDFB2323E4E7BAF1000F06DA1CF0C6FB2C
:105440000CB1002323601D23DAE72A4B1B7833B10C
:105450001CF0BCFB0CB1002323602D23D0E792F895
:10546000331098F833308B420BD9404600F0C6FF1A
:1054700040461AF021FA98F8332001462D201AF000
:10548000B7FB4A4604213046FFF7BCFD38461CF006
:105490009DFBFFF721FC1CF093FBDBF8003093F839
:1054A0003120032A1CD8DFE802F0020C16110CB1DF
:1054B0005B6C236000232B7003B0BDE8F04F1CF041
:1054C00085BB0CB15B6C23602123F4E70CB1002396
:1054D00023602223EFE70CB15B6C23603123EAE702
:1054E00001901DF040F90198E6E700BF4D55545872
:1054F000374B0220384B0220F82B0020064B03606C
:10550000064B43600023C0E9083380F82830C362AB
:1055100008301DF062BD00BF4E4F4E45D7A10200BE
:10552000054B064AC36100234361136883610BB9CD
:10553000106070475861FBE7E0BB020008280020BC
:105540002DE9F04104460F4615460AB91DF00BF946
:10555000FCF794FD064610B120232B70FEE714B92A
:105560000A232B70FEE71CF02BFB302231468046CD
:10557000204624F0D2F80C4B04F10800C4E90037AF
:105580001DF02BFD2046FFF7CBFF084A138801339F
:10559000138021463A4629201AF0A2FE40461CF00C
:1055A00015FB2E70BDE8F0814D555458E84A002097
:1055B000D0E9052332B907490B6003B15A610023D2
:1055C0008361704793610BB9436170475A6100234F
:1055D0008361F9E7082800202DE9F84304460F46C7
:1055E00015460AB91DF0BFF820461AF065F93A468B
:1055F00001462A201AF0FCFAFCF740FD064610B1DD
:1056000020232B70FEE714B90A232B70FEE72268D3
:10561000384B9A4202D00C232B70FEE7364B1B7896
:10562000012B05D002232B7007463846BDE8F883CE
:105630001CF0C6FA804637B1012F1FD01CF0C6FA05
:1056400008232B70FEE7A3689BB92046FFF7B0FF45
:105650002A4A606A1388013B138010B121461DF06D
:105660002BFE2046FFF74AFF40461CF0AFFA00230E
:1056700002E01CF0ABFA2E232B70D6E718F0FCFDED
:105680008146A068B7B2013670BB2046FFF790FF95
:105690001A4A666A1388013B1380E6B121463046F8
:1056A0001DF00AFE96F8341096F833308B4212D073
:1056B00030461DF00DFE814228BF0146C9B230467A
:1056C00000F09CFE30461AF0F7F896F833200146B9
:1056D0002E201AF08DFA2046FFF710FF40461CF0EE
:1056E00075FAFFF7F9FAC2E7022249461DF0CDFC30
:1056F000C7E700BF4D555458374B0220E84A0020F9
:105700002DE9F04F044685B00F4615460AB91DF045
:105710002AF820461AF0D0F83A4601462B201AF013
:1057200067FAFCF7ABFC10B120232B70FEE714B92D
:105730000A232B70FEE7C7F30E0313B108232B7067
:10574000FEE722683E4B9A4202D00C232B70FEE704
:105750003C4B1B78012B02D002232B702BE0DFF88F
:10576000EC901CF02DFA626AD9F800309A4280461B
:1057700003D01CF02BFA1B23EFE718F07DFD94F803
:105780002830E062013BDBB2824684F8283023B146
:1057900040461CF01BFA2323DFE7D9F8000021461E
:1057A0001DF08AFDA6684EB9666284F828604046FE
:1057B0001CF00CFA2E7005B0BDE8F08FD9F800107F
:1057C00091F8333091F834B003935B4520D008460C
:1057D0001DF07EFD584528BF5846039BC6B2B34214
:1057E00016D20846FFF702FAD9F8000080F83360B5
:1057F0001AF062F8324601462E201AF0F9F93046C6
:1058000000F03EF8D9F80000FFF7BAF90E4B1E7011
:10581000A1686162012384F828308B6B2362002326
:105820008C631A462046CDF800A01DF073FC40465C
:105830001CF0CCF93B0401D4FFF74EFA00238CE7AF
:105840004D555458374B0220354B0220F82B002081
:10585000024B0022C3E90022704700BFE42700206A
:1058600008B5064B186828B9586818F00BFD2030A9
:10587000C0B208BD18F006FDFAE700BFE42700201B
:105880001F28094A07D84FF0004323FA00F0136895
:105890000343136070470123C0F13F0003FA00F097
:1058A0005368184350607047E42700201F280A4BB4
:1058B00008D84FF0004222FA00F01A6822EA0002EB
:1058C0001A6070470122C0F13F0002FA00F05A68E6
:1058D00022EA00025A607047E42700202DE9F347CE
:1058E0000A9D0646884617461C460DB91CF03BFF2C
:1058F000304619F0E1FF0FFA87F901463B46424670
:1059000032201AF0B9F9B9F1000F03DA4EB90A23BF
:105910002B70FEE7FCF7B2FB0028F7D020232B709A
:10592000FEE7C7F30E0717B108232B70FEE73268B6
:105930003A4B9A4202D00C232B70FEE7B9F1000FCC
:1059400005DB1CF046F910B11F232B70FEE7344B2A
:105950001B78012B10D11CF033F9376A824697B1BE
:10596000013F37620CB1736A23605046376A1CF0FE
:105970002DF900232B7002E002232B7000273846FC
:1059800002B0BDE8F087B9F1000F07DA04B1276073
:105990005046376A1CF01AF91D23EBE7214B1B78A0
:1059A00033B104B1276050461CF010F92D23E1E714
:1059B000424606213046FFF725FB50461CF006F90B
:1059C000FFF78AF91CF0FCF8174B1B6893F831209D
:1059D000032A1BD8DFE802F0020B15100CB15B6C38
:1059E000236000232B70376A1CF0F0F8C7E70CB176
:1059F0005B6C23602123F5E70CB100232360222395
:105A0000F0E70CB15B6C23603123EBE701901CF0F5
:105A1000DDF81CF0A8FE0198E5E700BF53454D41B5
:105A2000374B0220384B0220F82B00202DE9F84399
:105A300007460E4614460AB91CF095FEFCF71EFBFD
:105A400010B120232370FEE717B90A232370FEE765
:105A500047F6FF65354002D008232370FEE73A6819
:105A6000174B9A4202D00C232370FEE7154B1B788C
:105A7000012B04D0022323702846BDE8F8831CF0D4
:105A80009FF8BB6880461BB91CF0A0F82423F2E7FE
:105A900018F0F2FB8146B86840B1012249461DF07A
:105AA000F4FA0135B6F5807FADB2F4D040461CF073
:105AB0008DF8330401D4FFF70FF90023DBE700BFB3
:105AC00053454D41374B02202DE9F34706460F461B
:105AD00015460AB91CF047FE304619F0EDFE3A466D
