:1000000000100020D11C0000CFA50000CFA50000EB
:10001000CFA50000CFA50000CFA50000CFA5000010
:10002000CFA50000CFA50000CFA50000CFA5000000
:10003000CFA50000CFA50000CFA50000CFA50000F0
:10004000CFA50000CFA50000D5230000CFA500005C
:10005000CFA50000CFA500008D1C000025A5000045
:10006000CFA50000CFA50000CFA50000CFA50000C0
:10007000CFA50000CFA50000CFA50000CFA50000B0
:10008000CFA50000CFA50000CFA50000CFA50000A0
:10009000CFA50000CFA50000CFA50000CFA5000090
:1000A000CFA50000CFA50000CFA50000CFA5000080
:1000B000CFA50000CFA50000CFA500005568000027
:1000C000CFA50000CFA50000CFA50000CFA5000060
:1000D000CFA50000CFA50000CFA50000CFA5000050
:1000E000CFA50000CFA50000CFA50000CFA5000040
:1000F000CFA50000CFA50000CFA50000CFA5000030
:10010000CFA50000CFA50000CFA50000CFA500001F
:10011000CFA50000CFA50000CFA50000CFA500000F
:10012000CFA50000CFA50000CFA50000CFA50000FF
:10013000013800D0FCE7704700000000000000001C
:1001400001F0FF01102A2BDB10F0070F08D010F888
:10015000013B013A8B422DD010F0070F42B3F6D18C
:10016000F0B441EA012141EA014122F007047FF0A5
:1001700000070023F0E80256083C85EA010586EAFC
:10018000010685FA47F5A3FA87F586FA47F6A5FA38
:1001900087F68EB9EED1F0BC01F0FF0102F0070244
:1001A00032B110F8013B013A83EA010313B1F8D1EF
:1001B0000020704701387047002D06BF35460338D0
:1001C000073815F0010F07D1013015F4807F02BF09
:1001D000013015F4C03F0130F0BC0138704700BF5A
:1001E0002DE9F04F2DED048B9DB01F460023189391
:1001F000A14B13921B6805930446184688460BF0E2
:10020000CCF94FF0000A05464FF0000BCDF85C80AA
:10021000179B1A782B2A4CD039D80D2A32D8082AA5
:1002200032D8002A3CD000230A93179E3378302B13
:1002300040F0AE80737803F0DF03582B66D10A9B41
:10024000019318AB029700938C4A19AB17A920466B
:1002500008F05EFC10F00707054605D0062F2AD1EE
:100260000136002317960A93139B002B40F08485D8
:100270000A9BDBB150460BF100411DB0BDEC048B75
:10028000BDE8F08F202ACED101331793C0E72D2A85
:10029000C9D101220A925A1C17925B78002BC4D153
:1002A000139BCDF85C80002B40F064855046594686
:1002B000E3E70022EEE7189A3AB135211AA80BF0CD
:1002C00042FC1899204608F0B5FE013F042F06D8DD
:1002D000DFE807F00A0314170A00DDE91AAB280764
:1002E000C2D54BF0004BBFE7DDE91AA3199A23F4FE
:1002F000801302F2334243EA025BF0E7DFF880B199
:10030000EDE76FF0004B4FF0FF3AE8E7179B5A1C00
:1003100017925B78302BF9D0002BA5D001234FF03A
:1003200000090493179B0893CDF81C904F460A22AE
:1003300017980678A6F13003D9B209292AD9059968
:100340002A460BF032F998B3002032463D4605901C
:100350000346652A01D0452A18D11DB9049A0243E3
:100360009ED00025DDF85C8008F10102179298F814
:1003700001202B2A75D02D2A7BD04FF0000CA2F142
:100380003001092940F28280CDF85C8000269DE092
:100390000023C4E7082FD8BF079900F10100DABF96
:1003A00002FB0133079302FB093901371790BFE7BE
:1003B000179B5A1917925A5D002F37D005903D466A
:1003C000A2F13003092B12D90123C2E7179B5A1C53
:1003D00017925A780130302AF8D0A2F13103082B55
:1003E00000F2CF84179B0590002008930546303A11
:1003F00000F1010314D00599194405912B4600EB37
:10040000050E0A21734513D12B18082B05F10105A0
:1004100005441CDC07990A2303FB012307930023EF
:10042000179A511C179152781846C9E73846D2E7F7
:10043000082B04DC079E4E4307960133E2E703F1E5
:10044000010CBCF1100FD8BF01FB09F9F5E7102D25
:10045000DCBF0A2303FB0929E1E7002305930123FD
:100460007CE74FF0000C08F10202179298F8022086
:1004700085E74FF0010CF6E71CD4000030D20000F5
:100480000000F07F179A511C17915278302AF9D04A
:10049000A2F1310108293FF679AFA2F1300E179A87
:1004A0000692179A511C17915278A2F13006092E24
:1004B00037D9069E891B082944F61F6602DC76455B
:1004C000A8BF7646BCF1000F00D07642002D4DD17A
:1004D000049901437FF4C8AE002B7FF4E1AE692A92
:1004E00027D024DC492A24D04E2A7FF4D9AE9E4955
:1004F00017A80BF0CAF900283FF4D2AE179B1B785F
:10050000282B2DD199491AAA17A80BF0D2F9052842
:1005100026D11B9BDDF868A043F0FF4B4BF4E00BAA
:10052000A2E60A2101FB0E2EAEF1300EB9E76E2ACB
:10053000DBE78F4917A80BF0A8F900283FF4B0AE0D
:10054000179B8C49013B17A817930BF09EF910B924
:10055000179B01331793DFF82CB24FF0000A83E6A4
:10056000854809F011FC82468B467DE6059B07987D
:10057000F31A002F08BF2F46102D0693A846A8BFD8
:100580004FF0100806F0FCFD092D82468B4613DD66
:100590007A4B03EBC80353E9122306F06BFE824645
:1005A00048468B4606F0ECFD02460B46504659463F
:1005B00006F0AAFC82468B460F2D36DC069B002BEC
:1005C0003FF452AE22DD162B09DC6C4901EBC3016E
:1005D000D1E9000152465B4606F04CFEC3E7069A9D
:1005E000C5F12503934220DB644CC5F10F0504EBF4
:1005F000C50152465B46D1E9000106F03BFE069B71
:100600005D1B04EBC504D4E90023E5E7069B163324
:100610000BDB059B9E1B594B03EBC606D6E900235B
:100620005046594606F050FF9DE7069AA5EB080391
:1006300003EB0208B8F1000F74DD18F00F030AD0C5
:100640004E4901EBC30152465B46D1E9000106F079
:1006500011FE82468B4638F00F084FD0B8F59A7FCE
:1006600022DD0025A946079505952223DFF814B160
:1006700023604FF0000A079B002B3FF4F5AD18995B
:10068000204608F0D7FC0599204608F0D3FC4946DF
:10069000204608F0CFFC0799204608F0CBFC2946FD
:1006A000204608F0C7FCDFE5354B049300234FEAF2
:1006B0002818504659469946B8F1010F21DC0BB174
:1006C00082468B462E4BABF1547B03EBC909524655
:1006D0005B46D9E9000106F0CDFD2A4B0A460B40E6
:1006E00029498B428246BCD8A1F580118B4286BF36
:1006F000DFF898B04FF0FF3A02F1547B00230493E7
:1007000083E018F0010F05D0049BD3E9002306F025
:10071000B1FD0123049A083209F101094FEA680882
:100720000492C9E7EAD0C8F1000818F00F020AD015
:10073000124B03EBC20350465946D3E9002306F09F
:10074000C3FE82468B465FEA2818D7D0B8F11F0F48
:100750001EDD0025A9460795059522234FF0000AC6
:100760004FF0000B236086E705D2000044D2000062
:10077000FDD1000083D20000D1C50000D8D4000014
:10078000B0D400000000F07F0000A07CFFFFEF7FEE
:1007900018F0100318BF6A23DFF8AC930493504697
:1007A0005946002318F0010F04D0D9E9002306F0C0
:1007B00061FD01235FEA680809F10809F2D10BB174
:1007C00082468B46049BC3B1CBF30A52C2F16B0342
:1007D000002B594611DD1F2B40F32181342BDEBF46
:1007E000C2F14B024FF0FF3303FA02F24FF0000A5E
:1007F000CCBF4FF05C7B02EA010B00220023504685
:10080000594609F0ADFD0028A3D1079B0093089934
:100810002B463A46204608F075FC079000283FF426
:1008200020AF059B9E1B069B002BB4BF33460023C5
:100830000C93069B002523EAE3731293A946079BBA
:100840002046596808F0B6FB059000283FF40DAF2C
:10085000079B1A69023203F10C0192000C300AF076
:1008600056FD1AAB019319AB009352465B462046E6
:1008700008F020FF4BEC18AB189000283FF4F5AEC1
:100880000121204608F088FC814600283FF4EDAEA7
:10089000199E1A9A002EABBF0C9B129B129FDDF87B
:1008A0003080ACBF06EB03089F1B049BF61A16446E
:1008B000A04B013E9E42C2F1360280F2C3809B1BD8
:1008C0001F2BA2EB03024FF0010100F3AF8001FAEE
:1008D00003F30D930023089308EB0206049BB04535
:1008E00017441F444346A8BF3346BB42A8BF3B46FC
:1008F000002BC2BFF61AFF1AA8EB03080C9B002BB3
:1009000017DD49461A46204608F006FD81460028B4
:100910003FF4ABAE0146189A204608F053FC0B900A
:1009200000283FF4A2AE1899204608F083FB0B9BE9
:100930001893002E00F38B80069B002B08DD129A83
:100940000599204608F0E8FC059000283FF48DAE9C
:10095000002F08DD05993A46204608F037FD05903E
:1009600000283FF482AEB8F1000F08DD4946424648
:10097000204608F02BFD814600283FF476AE059A0C
:100980001899204608F092FD054600283FF46DAE08
:10099000C3680B930023C36049460BF08AF8002814
:1009A0005FDA0B9B53EA0A0340F08380CBF3130317
:1009B000002B7ED12BF000431B0D1B05B3F1D66F2E
:1009C00077D96B6913B92B69012B72DD2946012296
:1009D000204608F0FBFC494605460BF06AF8002863
:1009E00067DD0499544A5B46002900F0838002EADF
:1009F0000B01B1F1D66F7DDCB1F15C7F7FF7ADAE5D
:100A00004E4B50465946002206F034FC0B46034339
:100A100008BF222382468B4608BF23602FE64FF093
:100A2000FF3202FA03F303EA0A0AE6E6C6F17F465A
:100A300006F57F0606F57B46E23601FA06F30893D3
:100A40000D9149E70023089301230D9344E718997A
:100A50003246204608F0BAFC189000287FF46CAFAC
:100A600003E6D84672D10B9ACBF3130352B3344A40
:100A700093422AD1049B5146FBB12F4B0BEA03034F
:100A8000B3F1D46F4FF0FF321AD81B0DC3F16B03D3
:100A900002FA03F3994218D12A4B984502D1013149
:100AA0003FF4E3AD244B08EA030303F5801B4FF04A
:100AB000000A049B002BA3D1E1E54FF0FF33E9E7E7
:100AC0001346E7E753EA0A038BD0089BE3B113EA26
:100AD000080FEED00B9B049A50465946C3B10AF05A
:100AE00078FD02460B4651EC180B06F00DFA8246D3
:100AF0008B46DEE71340A3F580136FEA135B6FEAC2
:100B00000B5B4FF0FF3AD4E70D9B13EA0A0FE0E7C7
:100B10000AF05FFD02460B4651EC180B06F0F2F9A5
:100B20000022002382468B4609F01AFC0028C0D020
:100B300013E600BF02FCFFFF0000F07F0000503909
:100B4000FFFF0F00FFFFEF7F58D200004946284605
:100B50000AF0CBFF00224FF0804306460F4609F013
:100B600013FC002879D00B9B002B4BD0924B00221A
:100B7000CDE90823904F0026904B08EA03030D931C
:100B80000D9A8F4B9A4240F0B0809DED087BA8F102
:100B9000547B50465946B0EE479AF0EE679A08F0FB
:100BA0000FFD02460B4651EC190B06F063FB524653
:100BB0005B4606F0A9F90B468049824A19409142EA
:100BC00082465ED918EE903A02F15472934204D1F3
:100BD00018EE103A01333FF448ADDFF8F4B14FF0AE
:100BE000FF3A1899204608F025FA0599204608F0A2
:100BF00021FA4946204608F01DFA2946204608F009
:100C000019FA1CE6BAF1000F1AD1CBF31303F3B9AA
:100C1000694B00223046394609F0ACFBD0B930466A
:100C20003946694B002206F025FB06460F4607F1C0
:100C3000004314961593DDE91423CDE908239BE7BF
:100C4000BAF1010F03D1BBF1000F3FF486AD5F4B4A
:100C500000228DE75C4F0026E9E75B4B30463946C2
:100C6000002206F007FB0B9B06460F4633B901F145
:100C700000430E900F93DDE90E23DEE7CDE90E670A
:100C8000F9E703F1547B049B002BAAD12BF000431E
:100C90000D9A1B0D1B059A42A3D13046394609F027
:100CA000EFFB06F0B9FA02460B463046394606F02D
:100CB00029F90B9ACBF3130343EA0A0313430646BD
:100CC0000F4651D034A3D3E9002309F053FB002889
:100CD0007FF4D5AC32A3D3E900233046394609F07E
:100CE00067FB00283FF47DAFC9E4049B33B30D9B41
:100CF000B3F1D46F22D82CA3D3E900233046394670
:100D000009F042FBA0B13946304609F099FB0128B1
:100D100038BF012006F034FA0B9B06460F4603BB92
:100D200001F1004310901193DDE91023CDE9082370
:100D3000099B0D9A03F1D6639B1A099351EC180B8A
:100D4000DDE908AB08F03CFC02460B46504659462C
:100D500006F090FA53EC182B06F0D6F882468B4634
:100D600091E7CDE91067DFE711A3D3E9002309F08C
:100D700001FBB6E700230A93139A179B1360FFF752
:100D800077BA652A3FF469AB452A3FF466AB012385
:100D9000FFF79EBBAFF300809535A094FFFFDF3FC8
:100DA00035E5AF350000E03F0000C0FFFFFFDF4149
:100DB0009535A094FFFFCF3F0000F03F0000F07F8B
:100DC0000000E07FFFFF9F7C0000E03F0000F0BFDD
:100DD000FFFFEF7F000000002DE9F04F2DED048BA9
:100DE000456A93B00446DDF88C8016461F4692464D
:100DF0009B4675B9102008F0D5F80246606220B90C
:100E0000A94BEA21A94809F0A7F8C0E901550560F6
:100E1000C560636A196851B15A684A6001239340FA
:100E20008B60204608F006F9636A00221A603B1EB8
:100E3000AABF002323F0004BC8F800309C4BBCBF76
:100E40000122C8F8002033EA0B031BD1229A42F298
:100E50000F731360CBF31303334300F09685249B89
:100E600063B9944B22E0944B04930833249A1360A3
:100E7000049813B0BDEC048BBDE8F08F8D4B049348
:100E80000333F3E7002200235046594609F068FA7D
:100E90004BEC19AB804658B1229A01231360249B76
:100EA000002B00F06F8585481860431E0493DFE730
:100EB00010AB019311AB009352465B46204608F0FD
:100EC000F9FBCBF30A5508EE100A002D00F08480E0
:100ED00019EE903AC3F3130343F07F57564647F495
:100EE0004017A5F2FF35CDF83880754B002230460B
:100EF000394606F007F866A3D3E9002306F0BAF9ED
:100F000065A3D3E9002305F0FFFF064628460F46F8
:100F100006F046F962A3D3E9002306F0ABF90246D6
:100F20000B463046394605F0EFFF06460F4609F0FE
:100F30005FFA0022039000233046394609F01AFA7E
:100F400050B1039806F02CF932463B4609F008FAF6
:100F500010B9039B013B0393039B162B5AD8039AAA
:100F6000584B03EBC203D3E9002351EC190B09F0F2
:100F700001FA002850D0039B013B039300230C93FC
:100F8000109B5D1B6B1E089345BFC5F101030793C2
:100F9000002300234CBF08930793039B002B3DDBEA
:100FA000089B039A0B921344089300230993209BF8
:100FB000092B00F28B80052BC4BF043B2093209BA0
:100FC000A3F10203CCBF00250125032B00F2898089
:100FD000DFE803F02D3A3859DDE910531D4405F2DE
:100FE0003243202BC1BFC3F1400305F212400BFA7C
:100FF00003F326FA00F0DABFC3F1200306FA03F088
:10100000184306F0BDF801230646A1F1F877013D2B
:101010000E936AE70123B2E70C90B1E7079B039AAE
:101020009B1A07935342099300230B93BFE70023B6
:101030000A93219B002B57DC0123CDE905331A4687
:1010400021920CE00123F3E70023219A0A93039BEA
:10105000134405930133012B0693B8BF0123606A43
:1010600000224260042202F114069E4241683FD9E8
:10107000204607F09FFF049000283DD1124B024606
:101080004FF4D571BEE60123DFE700BFAFF3008068
:1010900061436F63A787D23FB3C8608B288AC63F7E
:1010A000FB799F501344D33F8DD20000A4D200009F
:1010B0000000F07F89D2000080D20000AAC70000A3
:1010C0000000F83FD8D4000022D3000001250023FF
:1010D00020930A954FF0FF33CDE905330022122308
:1010E000AEE701230A93F5E7219BCDE90533B6E787
:1010F000013141605200B6E7636A049A1A60069BA8
:101100000E2B00F29D80002D00F09A80039B002B97
:1011100032DDB74A03F00F0302EBC303D3E90089C2
:10112000039BD8054FEA231716D5B24B51EC190B88
:10113000D3E9082306F0C8F907F00F0782468B466B
:101140000325AC4E57B942464B465046594606F029
:10115000BBF982468B4628E00225F2E7F90708D55D
:1011600040464946D6E9002306F084F8013580461A
:1011700089467F100836E5E700F09B80039B9D4F72
:101180005E429B4B06F00F0203EBC203D3E9002340
:1011900051EC190B06F06EF8361182468B4600238F
:1011A0000225002E7AD1002BD3D10C9B002B00F00E
:1011B0008280914B00225046594609F0DBF8002806
:1011C00079D0069B002B76D0059B002B36DD039B48
:1011D000504659465F1E0022884B06F04BF8059E8C
:1011E00082468B460135284605F0DAFF52465B46BB
:1011F00006F040F8824B002205F086FED046D94624
:101200008246A1F1507B002E58D17E4B00224046F1
:10121000494605F077FE52465B468046894609F00E
:10122000C7F8002840F0958252460BF10043404633
:10123000494609F09FF8002840F089825BEC19AB21
:10124000119B002BC0F24881039A0E2A00F34481BF
:10125000674B03EBC203D3E90089219B002B80F28B
:10126000D580069B002B00F3D18040F06F82654B48
:1012700000224046494605F0FDFF52465B4609F014
:101280008DF8069E3746002840F04582049D3123A4
:1012900005F8013B039B0133039340E2F20705D5B8
:1012A000D7E9002305F0E6FF013501237610083762
:1012B00077E7022579E7039F069E94E704994C4B54
:1012C00031440D910A9903EBC60353E90223002927
:1012D00043D04D49002006F0F7F852465B4605F032
:1012E00011FE049D82468B464946404609F080F82F
:1012F000064605F055FF02460B464046494605F0B6
:1013000001FE303605F8016B52465B468046894641
:1013100009F030F8002863D142464B463649002098
:1013200005F0F0FD52465B4609F024F8002840F035
:10133000B5800D9B9D4281D0304B002250465946CE
:1013400005F098FF2D4B82468B46404649460022C9
:1013500005F090FF80468946C6E75046594605F09D
:1013600089FF0D9B049D0F9382468B46494640465C
:1013700009F03EF8064605F013FF303602460B46EC
:101380004046494605F0BEFD05F8016B0D9B9D42A8
:10139000804689464FF0000224D11B4B50465946E7
:1013A00005F0B2FD02460B464046494609F000F8FA
:1013B000002873D152465B461349002005F0A2FD78
:1013C00002460B464046494608F0D4FF00283FF449
:1013D00035AF0F9D6B1E0F9315F8013C302BF8D0E5
:1013E000039749E0054B05F045FF80468946BDE778
:1013F000D8D40000B0D400000000F03F000024402A
:1014000000001C40000014400000E03F049D5646D0
:101410005F4642464B463046394606F055F808F0DE
:10142000E7FF824605F0BCFE42464B4605F022FF30
:1014300002460B46304639460AF1300605F062FD99
:1014400005F8016B049E069FAE1BB74202460B4691
:1014500035D105F059FD42464B4606460F4608F089
:10146000A7FFD0B942464B463046394608F078FFD0
:1014700010B11AF0010F10D1204618EE101A07F023
:10148000D9FD002303982B70229B01301860249B08
:10149000002B3FF4EDAC1D60EAE4039F2B461D4694
:1014A00013F8012D392A06D1049A9A42F7D10499EA
:1014B000302201370A701A7801321A7090E7A64B71
:1014C000002205F0D7FE0022002306460F4608F052
:1014D00047FF00289DD0CFE70A9A002A00F0D78066
:1014E000209A012A00F3BA800E9A002A00F0B280F6
:1014F00003F23343099E079D079A1A440792089AFC
:1015000001211A442046089207F046FE0746002DA6
:101510000CDD089B002B09DDAB42079AA8BF2B46C8
:10152000D21A0792089AED1AD31A0893099B1BB393
:101530000A9B002B00F0AF80002E13DD39463246A7
:10154000204607F0E9FE18EE102A0146074620461D
:1015500007F038FE18EE101A8046204607F06AFDA4
:1015600008EE108A099B9A1B06D018EE101A204626
:1015700007F0D2FE08EE100A0121204607F00CFE0B
:101580000B9B002B064640F388801A4601462046F6
:1015900007F0C2FE209B012B064640F381804FF0EE
:1015A0000008336906EB830318690AF033FAC0F1C7
:1015B0002000089B184410F01F0000F09280C0F13A
:1015C0002003042B40F38A80C0F11C00079B0344D6
:1015D0000793089B034405440893079B002B07DDF2
:1015E00018EE101A1A46204607F0F0FE08EE100A10
:1015F000089B002B05DD31461A46204607F0E6FE23
:1016000006460C9B002B6ED018EE100A31460AF0ED
:1016100050FA002867DA039B013B18EE101A039377
:101620000A220023204607F027FD0A9B08EE100A35
:10163000002B00F0B181002339460A22204607F032
:101640001BFD059B002B074600F38E80209B022B81
:1016500051DC89E0109BC3F136034BE7069B5E1E0D
:10166000099BB342BFBF099B0996F21A0B9BB6BFF9
:101670009B189E1B0B93069BB8BF0026002BB7BF81
:10168000DDE90623DDE906359D1A002334E7099ECE
:10169000079D0A9F3BE7099A67E7209B012B18DC0F
:1016A000BAF1000F15D1CBF3130393B92BF000431C
:1016B0001B0D1B0583B1079B01330793089B013367
:1016C00008934FF001080B9B002B7FF46AAF0120B9
:1016D0006FE74FF00008F6E79846F4E73FF47DAF78
:1016E00018461C3072E7069B002B37DC209B022B30
:1016F00034DD069B0593059B6BB9314605222046D8
:1017000007F0BAFC0146064618EE100A0AF0D1F9B5
:1017100000283FF7BBAD219B049DDB4303934FF0B3
:1017200000083146204607F085FC002F3FF4A4AEA8
:10173000B8F1000F05D0B84503D04146204607F068
:1017400079FC3946204607F075FC95E600263746B9
:10175000E1E70397374699E5000024400A9B002BF8
:1017600000F0CA80069B0593002D05DD39462A4608
:10177000204607F02BFE0746B8F1000F5BD07968D2
:10178000204607F017FC054628B9874B024640F271
:10179000EA21FFF737BB3A690232920007F10C01E8
:1017A0000C3009F0B4FD01222946204607F00EFE58
:1017B000049B03F10109DDE90423134408930AF0B3
:1017C0000103B84607930746314618EE100A09F0A0
:1017D00023FF4146059000F1300A18EE100A0AF086
:1017E00068F93A4606903146204607F05FFEC26827
:1017F00009F1FF3B054602BB014618EE100A0AF04C
:1018000058F9024629462046099207F013FC209B0E
:10181000099A43EA0201079B0B434D460FD1BAF1E7
:10182000390F2AD0069B002B02DD059B03F1310AFC
:101830008BF800A075E73846BAE70122E2E7069B7D
:10184000002B04DB20990B4307990B4322D1002A7C
:10185000EEDD18EE101A0122204607F0B7FD3146E2
:1018600008EE100A0AF025F9002803DCE0D11AF08E
:10187000010FDDD0BAF1390FD7D139238BF8003001
:101880002B461D46013B15F8012C392A71D0013237
:101890001A7046E7002A07DDBAF1390FEDD00AF1D8
:1018A00001038BF800303CE7089B09F801AC99452F
:1018B00047D018EE101A00230A22204607F0DCFB5E
:1018C000B84508EE100A4FF000034FF00A024146F7
:1018D000204606D107F0D0FB8046074609F10109F2
:1018E00072E707F0C9FB3946804600230A222046EA
:1018F00007F0C2FB0746F1E7069B0593049D18EE2F
:10190000100A314609F088FE00F1300A049B05F800
:1019100001ABEA1A059B934209DD18EE101A002369
:101920000A22204607F0A8FB08EE100AE7E7059B0D
:10193000002BC8BF1D46049BD8BF01251D444FF096
:10194000000818EE101A0122204607F03FFD31462C
:1019500008EE100A0AF0ADF8002891DC02D11AF066
:10196000010F8DD12B461D4613F8012D302AFAD0D8
:10197000D7E6049A9A4284D1039B0133039331231F
:101980001370CEE6094BFFF791BA249B002B7FF42E
:101990006AAA074BFFF78ABA059B002BAEDC209B97
:1019A000022B3FF7A8AEA9E722D30000A9C7000089
:1019B00080D2000010B5054C237833B9044B13B125
:1019C0000448AFF300800123237010BD4C140020A5
:1019D00000000000FCD5000008B5034B1BB1034913
:1019E0000348AFF3008008BD000000005014002041
:1019F000FCD50000A3F5803A704700BF174B002BC1
:101A000008BF134B9D46FFF7F5FF00218B460F469D
:101A10001348144A121A09F0A2FC0E4B002B00D0F6
:101A200098470D4B002B00D0984700200021040060
:101A30000D000D48002802D00C48AFF3008006F0DE
:101A400011F82000290009F05BFB05F0F7FF00BF4B
:101A5000000008000000000000000000001000204E
:101A60004C140020EC1A00200000000000000000D0
:101A700030B585B0094C0A4B22680A4D1A600A4BF2
:101A80002B600A4B019304F063F92B68029001A9C3
:101A90002068039308F094FE05B030BD0C100020C0
:101AA000501A00204C1A002000100020D4BE000064
:101AB00038B5084D04F04CF92B680446D3F8B00251
:101AC00004F03AF9286808F08FFE2046BDE8384057
:101AD00004F032B90C10002038B502F0BDFA1248FB
:101AE000124C012101F018FB01221146002002F0E6
:101AF0001FFA022501221146C4F88050002002F08E
:101B000017FA01221146C4F88450002002F010FA9E
:101B10000122C4F88C501146002002F009FAC4F8E2
:101B20008850002038BD00BF30053E0000400E4008
:101B300008B54FF0804301225A6403F564231B4922
:101B4000D3F8B02042F00102C3F8B020D3F8E0206F
:101B500042F00802C3F8E0204A6B42F480524A6324
:101B6000D3F8E02022F00802C3F8E020D3F8B02038
:101B700022F00102C3F8B0200D4AD2F8A43143F498
:101B8000F843C2F8A43104F0B9F800F09BF804F06F
:101B900059F804F09FF804F06BF8FFF79DFF09F087
:101BA000A5F9BDE8084000F081B800BF004005403D
:101BB00000300E4030B597B0254D0FCD0FAC0FC49F
:101BC00095E80700234B84E80700234ACDE9032367
:101BD00003F1C06303F204530593A3F10133A3F1AE
:101BE000021306936FF4A06103F17F430B44079344
:101BF0001022042300210BA8089309F0B0FB174B17
:101C00004FF44020CDE9090306238DF82C3007233B
:101C10008DF82D30124B0C9320230D9301238DF85A
:101C20003930104B0093104803AB0FAA09A904F0F8
:101C300021FB044618B10D48882108F0CFFC002193
:101C40004FF4E13008F0B4FC204617B030BD00BFBF
:101C500014BF000000020400000001401C0001400D
:101C6000C01A00202817002074170020E6BE0000CC
:101C700008B5FFF79FFF28B1BDE808400248B8212A
:101C800008F0ACBC08BD00BFE6BE0000014809F08A
:101C9000E4B900BF74170020024B0349186800F034
:101CA000C1BF00BF101000201410002008B5044868
:101CB000012101F031FABDE8084008F017BC00BF6F
:101CC00000450A000148012101F026BA00450A003A
:101CD00008B500F093F8124B12498B4212D3124B05
:101CE000124900208B4218D3FFF788FE186850F87D
:101CF0002240586840F82240013298688242F5D369
:101D00000C33EAE70022F8E71C6844F822000132AD
:101D10005C68A242F8D30833E4E70022F8E700BF8A
:101D200004D6000010D6000010D6000010D6000027
:101D30000048704700A24A04174AD2F8943003F0D2
:101D40000703023B042B1FD8DFE803F00620031A29
:101D50000800124B1B680AE0114BFBE79368C3F3C2
:101D60000443073B072B14D80E4A52F823300A4A83
:101D7000D2F80001C0F304200130B3FBF0F070474B
:101D8000094B1B685B08F2E7074BE3E74FF400439E
:101D9000EDE70023EBE700BF00400E403C100020C1
:101DA0003410002030BF00003810002008B5FFF7C5
:101DB000C3FF054BD3F80831C3F308230133B0FB4D
:101DC000F3F0024B186008BD00400E4030100020B8
:101DD000014B1868704700BF34100020054B186095
:101DE000054BD3F8943003F00703022B01D1FFF722
:101DF000DDBF70473410002000400E40044B054A00
:101E00009A60D3F8882042F47002C3F888207047A3
:101E100000ED00E000000000014B1868704700BFB3
:101E20003C10002038B504460D4601B118B90448ED
:101E3000372108F0D3FB23682B60256038BD00BF35
:101E400050BF000070B5D0B1C9B10E4E431E01396C
:101E500013F8014FA25D02F00302012A11F8012FCD
:101E6000B55C05F00305204608BF04F12000012DF4
:101E700008BF2032801A01D1002CE9D170BD0120A9
:101E8000FCE700BFF4D0000005490A6813180548B4
:101E900083428CBF4FF0FF320B601046704700BF8B
:101EA000401000200000032008B52948012101F05E
:101EB00033F9012304220221052002F0D3FD002082
:101EC00002F09EFD234B0122C3F810281146042086
:101ED00002F02EF8204801F03BFE204BD3F8F02012
:101EE00042F00102C3F8F020D3F8FC2042F08072E7
:101EF000C3F8FC20A3F55D43194A1A6000F5D5200C
:101F0000184B00F2FC40B0FBF3F0174B01380222F3
:101F10001861C3F8F0204FF48072C3F804234FF027
:101F20006043124AC3F8B02F114AC3F8802ED3F889
:101F3000002E42F48072C3F8002EFF2283F8202086
:101F4000D3F8002E22F48072C3F8002E002008BDC2
:101F500000450A000080104306000E0000ED00E07E
:101F6000FF030040F8590D00000004E055CEACC559
:101F70000900010030B54FF06043D3F8802ED2073E
:101F800015D501240B4D8440D5F8FC2042F0807219
:101F9000C5F8FC20D3F8002E2243C3F8002E53F8D6
:101FA0002020002AF0D003F82010002030BD11209E
:101FB000FCE700BF00ED00E02DE9F04F85B09A4648
:101FC000544BDDF83C901B789DF844B0DDF8508010
:101FD00006460F461546002B00F08B800B2A00F2B8
:101FE0008A800E9B002B00F08680B9F1000F00F074
:101FF0008280129BB3F5006F7DDC012802D1109B1B
:10200000002B78D0444B03EB05131B7B002B74D0C3
:10201000424C10220021684609F0A1F904EB451456
:102020001022002F57D13946204609F098F943F283
:1020300010036380BBF1000F03D1E37843F0030387
:10204000E370364A0E9BCDF800A002EB451CCCE9AC
:102050000193129B013BC3F30A009DF84C306901C8
:1020600003F003039B0643EA001E53582C48184014
:102070004EEA0003012E535041D11323CCF80C300B
:102080009CE80F000CF1100E8EE80F00DCF81C200D
:10209000109BCCF814306FF0030161F39F02012F05
:1020A000CCF81C2003D1CCF81890CCF804301A4A94
:1020B000290102EB051342F801800027159A5A60A6
:1020C00028469F605E732246694602F0ADFD3846A1
:1020D00005B0BDE8F08F0021204609F040F94FF42B
:1020E00044736380BBF1000FABD1E37843F030035E
:1020F000A6E70C48ECE70C48EAE70C48E8E7B8F13B
:10210000000FD4D19CF8023068F304138CF802302D
:10211000CDE700BFE01A00200C180020CC180020EA
:102120000F80FFF3028000F0018000F0078000F0D4
:1021300038B5124B1B780546DBB1E0B108F007FB60
:102140000F4A00231146147B54B92B601A0101EB8E
:10215000031301258C501D7308F0FFFA204638BD8B
:1021600001330C2B02F11002EDD108F0F6FA05480C
:10217000F5E70548F3E70548F1E700BFE01A00205E
:102180000C180020048000F0028000F0018000F0B4
:1021900013B508F0DCFA0C4A0023147B7CB9013338
:1021A0000C2B02F11002F8D1019002F0CDFC074B8C
:1021B00001981C7008F0D1FA204602B010BD08F05A
:1021C000CCFA0348F9E700BF0C180020E01A002001
:1021D000058000F010B50D4B1B78044693B10B2819
:1021E00012D808F0B4FA0A4B03EB04131A7B2AB195
:1021F00000241C7308F0B1FA204610BD08F0ADFAB7
:102200000448FAE70448F8E70448F6E7E01A002033
:102210000C180020068000F0028000F0018000F021
:1022200013B5134B1868019000238DF8043008F0A3
:102230008EFA104B1C7824B108F08FFA0E4802B0C9
:1022400010BD01221A7008F088FA0C4A2346214674
:1022500001330C2B117302F11002F9D104230DEBA1
:1022600003008DF8073002F09FFC0020E7E700BF75
:10227000A0BF0000E01A0020038000F00C1800202E
:1022800008B50A4A12785AB10B280BD8084A02EB53
:1022900000131B7B43B1002102F06AFC002008BD43
:1022A0000448FCE70448FAE70448F8E7E01A00208D
:1022B0000C180020028000F0018000F0078000F080
:1022C00008B50A4A12785AB10B280BD8084A02EB13
:1022D00000131B7B43B1012102F04AFC002008BD22
:1022E0000448FCE70448FAE70448F8E7E01A00204D
:1022F0000C180020028000F0018000F0078000F040
:1023000008B50A4A127852B10B280AD8084A02EBDB
:1023100000131B7B3BB102F00DFD002008BD0548FA
:10232000FCE70548FAE70548F8E700BFE01A002097
:102330000C180020028000F0018000F0078000F0FF
:102340000D4B1B7893B10B2812D889B10B4B03EBC3
:1023500000131B7B73B10A4B1A6E012303FA00F0C2
:1023600010401ABF00200B70087070470548704776
:102370000548704705487047E01A00200C180020F7
:1023800000200040028000F0018000F0078000F093
:1023900010B50B4A12780C4662B10B280CD859B113
:1023A000084A02EB00131B7B43B102F0E3FC2070F0
:1023B000002010BD0448FCE70448FAE70448F8E7A9
:1023C000E01A00200C180020028000F0018000F0CC
:1023D000078000F02DE9F843DFF86480D8F86070DA
:1023E000D8F86C301F4000D5FEE7144CDFF854904D
:1023F00001260025374217D02368C8F868609BB1D2
:10240000A16862680131A16028469847637B012B6F
:102410000AD148B909EB45131A7B60F341021A73DC
:102420001A7F60F341021A7701350C2D4FEA4606F8
:1024300004F11004DED1BDE8F88300BF0C180020C1
:1024400000200040CC18002030B50368594A934260
:1024500040F0B280037A012B76D9022B72D0032B85
:1024600072D0042B72D0052B14BFFF2202220A70F7
:10247000427A012A6ED9022A6AD0032A6AD0042A33
:102480006AD0052A14BFFF2402248C70847A012CA0
:1024900064D9A51E012D63D9042C63D0651F18BF14
:1024A0004FF0FF35EDB20D71C07A01285CD9851E61
:1024B000012D5BD904285BD0451F18BF4FF0FF35B5
:1024C000EDB28D71002B55D0012B59D0022B53D07A
:1024D000032B53D0042B53D0053B18BF4FF0FF33D1
:1024E000DBB24B70002A4DD0012A4DD0022A4DD0CC
:1024F000032A4DD0042A4DD0052A0CBF0123FF2307
:10250000CB70002C48D0012C48D0022C48D0032C92
:1025100048D0042C48D0052C0CBF0C23FF234B7152
:10252000002843D0012800F05382022800F01781D0
:10253000C31E012B40F24E82052808BF0D2318BF91
:10254000FF2334E01A4692E7042290E701228EE747
:1025500014469AE7042498E7012496E70425A2E7A5
:102560000225A0E701259EE70425AAE70225A8E7A2
:102570000125A6E70A23B4E70B23B2E70D23B0E752
:102580000723AEE70B23BBE70623B9E70A23B7E728
:102590000C23B5E70823B3E70C23C0E70523BEE708
:1025A0000923BCE70F23BAE70D23B8E70D23CB714E
:1025B000002030BD000001406C4A934240F0D880BA
:1025C000047A002C00F08D80631E012B40F2858080
:1025D000032C00F08480042C00F08380052C00F094
:1025E0008280A31F18BF4FF0FF33DBB20B70457A18
:1025F000002D7ED06B1E012B77D9032D77D0042DB3
:1026000077D0052D77D0AB1F18BF4FF0FF33DBB26B
:102610008B70827A002A76D0012A6ED0022A6ED080
:10262000D31E012B6DD9052A6DD0062A0CBF0423B9
:10263000FF230B71C37A002B67D0012B67D0022BCD
:1026400067D0D81E012866D9052B66D0062B14BF8B
:10265000FF200120012C887161D9022C61D0032C4C
:1026600061D0042C61D0052C61D0062C0CBF0E204B
:10267000FF20012D48705CD9022D5CD0032D5CD069
:10268000042D5CD0052D5CD0062D0CBF0220FF2050
:10269000C870002A57D0012A57D0022A57D0032ADF
:1026A00057D0042A57D0052A57D0062A0CBF052236
:1026B000FF224A71002B52D0012B00F08781022BA0
:1026C0004FD0032B00F08681042B4CD0052B00F05B
:1026D0007F81062B08BF022331E7032386E705230A
:1026E00084E7022382E7234680E7032390E705235C
:1026F0008EE702238CE700238AE7032399E705236B
:1027000097E7022395E7012393E70120A2E703203F
:10271000A0E705209EE702209CE704209AE700201E
:10272000A7E70720A5E70620A3E70120A1E70220ED
:102730009FE70120ACE70620AAE70720A8E70220D0
:10274000A6E70020A4E70722B3E70222B1E70022B0
:10275000AFE70F22ADE70322ABE70B22A9E708237F
:1027600025E7012323E7002321E700BF0004014000
:10277000924A934240F0BE80027A002A74D0012A25
:1027800074D0931E012B73D9042A73D0052A14BF69
:10279000FF2305230B70457A002D6DD0012D6DD0E0
:1027A000AB1E012B6CD9042D6CD0052D14BFFF235B
:1027B00005238B70847A002C66D0012C66D0A31E72
:1027C000012B65D9042C65D0052C14BFFF230523EC
:1027D0000B71C37A002B5FD0012B61D0022B5DD02F
:1027E000032B5DD0042B5DD0052B14BFFF200520EB
:1027F0008871002A58D0012A58D0022A58D0032ABA
:1028000058D0042A58D0053A18BF4FF0FF32D2B240
:102810004A70002D52D0012D52D0022D52D0032DDE
:1028200052D0042D52D0052D0CBF0122FF22CA70B8
:10283000002C4DD0012C4DD0022C4DD0032C4DD06E
:10284000042C4DD0052C0CBF0222FF224A71002B14
:1028500000F00881012B45D0022B45D0032B45D039
:10286000042B45D0052B6AE6022393E7134691E734
:1028700000238FE705238DE702239AE72B4698E78D
:10288000002396E7052394E70223A1E723469FE769
:1028900000239DE705239BE70220A9E70020A7E787
:1028A0000120A5E70520A3E70222B1E70322AFE755
:1028B0000722ADE70D22ABE70622A9E70322B6E720
:1028C0000422B4E70822B2E70E22B0E70722AEE7FF
:1028D0000422BBE70522B9E70922B7E70F22B5E7D3
:1028E0000822B3E7062362E60A2360E60B235EE6CE
:1028F00009235CE6324A93426ED1027A002A48D01C
:10290000012A48D0022A0CBF0123FF230B70447A0E
:10291000002C42D0012C42D0022C0CBF0123FF23FB
:102920008B70857A002D3CD0012D3CD0022D14BF38
:10293000FF2303230B71C37A002B38D0012B34D033
:10294000022B34D0032B14BFFF20022088712AB140
:10295000012A2ED0022A0CBF0322FF224A7054B350
:10296000013C012C94BF0722FF22CA7055B3012DF0
:102970002AD0022D0CBF0422FF224A7133B3012B4F
:1029800026D0022B26D0033B18BF4FF0FF33DBB21B
:102990000DE61346BAE70423B8E72346C0E704234D
:1029A000BEE72B46C6E70323C4E70420CEE718465C
:1029B000CCE70622D2E70122D7E700BF000801409A
:1029C000000C01400222D8E70722D6E70323EEE5F8
:1029D0000423ECE50E23EAE5244A934244D1057A28
:1029E000002D31D0012D0CBF0323FF230B70447A3F
:1029F000002C2BD0012C0CBF0323FF238B70827A79
:102A000032B3012A0CBF0323FF230B71C37A0BB32C
:102A1000012B0CBF0320FF208871EDB1012D0CBFED
:102A20000920FF204870CCB1012C0CBF0A20FF20E8
:102A3000C870AAB1012A0CBF0B22FF224A718BB1C8
:102A4000012B08BF0C237AE50123CFE70123D5E74B
:102A50000223DAE70220DFE70720E3E70820E7E7C1
:102A60000422EBE70523A2E50148A2E5001001409E
:102A7000022000F038B5144607F069FE00236364B5
:102A800084F84830E363237E012B054603D104F12B
:102A90005C0003F065FD236B1BB1A26B0021204697
:102AA0009847284607F059FE636D002B03DC044865
:102AB000BB2107F093FD636D013B6365012038BDC9
:102AC000A4BF000038B50546B0B1B9B1B2B1B2F596
:102AD000006F13DC07F03BFE95F8483003F0FF046D
:102AE0001BB107F03AFE064838BD012385F848308F
:102AF00007F033FE2046F7E70248F5E70248F3E720
:102B0000032000F0012000F0022000F0F0B587B0B3
:102B1000036390F8583017460022044680F850208E
:102B2000876333BB066905684FF44063092EEB6089
:102B300021D905F1240301263C35626D606A0494B5
:102B400001326265124A0197CDE9026201220092C8
:102B50000A46E16A07F0ACFD0023CDE90333009398
:102B6000CDE90176A16A206A04F114032A4607F030
:102B700085FD07B0F0BDA6F109020BBF05F11803F2
:102B800005F11C033035343556425641D5E700BFB8
:102B9000752A00002DE9F04387B0036390F85830A0
:102BA000174600220446884680F85020876343BBBE
:102BB000066905684FF44063092EEB6024D905F1DE
:102BC000240301263C35626DE16A606A0494013297
:102BD0006265134A01974FF00009CDE90262CDF812
:102BE000009004F1340207F063FD01230093CDE966
:102BF0000399CDE90176A16A206A43462A4607F087
:102C00003DFD07B0BDE8F083A6F109020BBF05F159
:102C1000180305F11C033035343556425641D2E7CE
:102C2000752A0000F0B58DB09D4F04460D460FCFBC
:102C300005AE0FC697E8070086E80700002C00F0F5
:102C40002D811DB9974D28460DB0F0BD8022002181
:102C5000204608F084FB0023934A63652B68934267
:102C600040F0B180914AE264914AA2624FF440225E
:102C70002360002384F858302F46E2620FCF261DD0
:102C80000FC697E8070086E807006B7D012B08BF99
:102C90008DF82230AB7D002B40F0BE80ADF82430A3
:102CA0002B7D8448012B0ABF0023AB688DF82130AF
:102CB0004FF0010108BF4FF4E133079300F02CFA05
:102CC0007D48012100F028FAE06C012100F024FA8F
:102CD000EB681A1F0C2AB5D8033B05A928688DF8A4
:102CE000203002F065FA6B69216823F47F0323F436
:102CF0007F431BB90B6843F480330B60AA792B79AF
:102D00006879EE7D120642EA032303438A6F002EA0
:102D100040F0928002F0F8321343EA7943EA02432A
:102D20008B670F234B67204603A9FFF78DFB0546F2
:102D3000002888D19DF8123084F840309DF8133077
:102D400084F84130237E9DF80C009DF80D10002B77
:102D50007AD10422019301F085FE019B9DF80F10AA
:102D60009DF80E00012201F07DFEA27E9DF811105B
:102D70009DF81000012A94BF019B0123042201F059
:102D800071FEE37E3BB90123042294F8411094F8CC
:102D9000400001F067FE07F0DAFC484B1A78002A81
:102DA00070D101221A7007F0D8FC03F09FFBFFF7E7
:102DB00037FA002104F12000FFF7BAF90146002894
:102DC00063D03F4D3FE73F4A934206D13E4AE2641B
:102DD0003E4AA2624FF450224AE73D4A934206D14E
:102DE0003C4AE2643C4AA2624FF4602240E73B4A1C
:102DF000934206D13A4AE2643A4AA2624FF4702200
:102E000036E7394A93427FF41DAF384AE264384AC4
:102E1000A2624FF480122BE7012B02D14FF4007312
:102E20003CE7022B02D14FF4807337E7032B7FF48A
:102E300009AF4FF4407331E722F0072222F0070276
:102E400013438B670B236DE72B46012201F00AFE2B
:102E50009DF80F109DF80E002B46042201F002FE93
:102E6000A37E9DF811109DF81000012B94BF2B46F6
:102E70000123022201F0F6FDE37E002B8BD101231A
:102E8000022282E707F069FC91E704F12400FFF7D2
:102E90004FF9054600283FF4D6AE92E7154DD2E62D
:102EA000F8BF0000022000F0000001400002040012
:102EB00001000C004041050000450A00E11A002015
:102EC000092000F0000401400012040001000D0080
:102ED000000801400022060001000E00000C014025
:102EE0000032040001000F00001001400042040005
:102EF00001001000012000F070B5037E012B044694
:102F00000D4616460DD0FFF7DDFD48B9064B32469B
:102F100029462046FFF7FAFD204607F0E8FB606CE3
:102F200070BD0248FCE700BFE5A60000082000F0E5
:102F300070B5037E012B04460D4616460DD0FFF7F3
:102F4000C1FD48B9064B324629462046FFF722FE0E
:102F5000204607F0CCFB606C70BD0248FCE700BF68
:102F6000E5A60000082000F00C4B984210D90C4B4D
:102F7000984210D9022201230A490B640A49D1F868
:102F8000003123F0407343EA0263C1F80031704717
:102F900000221346F0E70122FBE700BF0048E801EA
:102FA0000090D0030000C84300400E4038B54FF0F9
:102FB000804300225B68104BC9B21C461D798D42CC
:102FC00002D11D68854213D20132072A03F108039A
:102FD000F4D10A4841F2DD7107F000FB03224FF003
:102FE00080414B6823F0407343EA02634B6038BD75
:102FF00004EBC2025279F2E740C1000014C00000A5
:1030000010B51F28044604D903484FF4B67107F0E1
:10301000E5FA0120A04010BD61C00000044BDB6B4D
:103020005B0604D4034AD2F8C830002BFBD17047AA
:1030300000300E400000C64308B5FFF7EFFF024B1B
:103040005868C0F3014008BD00300E40044BD3F86F
:103050004421D20703D4D3F840211042FBD170475A
:1030600000400E4038B5B0F5004F054604D30C487B
:1030700040F64A6107F0B2FA6C1C14BFB4FA84F44B
:103080002024C4F11F042046FFF7BAFF0138A842EC
:1030900004D0034840F6516107F0A0FA204638BD3D
:1030A000B2C0000070B54FF0804341F671321E6C23
:1030B0001A6405460C46FFF779FF134A134B022C9E
:1030C00008BF13469D42124AB6B209D94FF08C434D
:1030D000C3F800210F4A954207D84FF0884306E015
:1030E0004FF08843C3F80021F7E7002CF5D14FF4E7
:1030F00080521A6041F671339E421EBF4FF08043EA
:1031000000221A6470BD00BF0024F40080D5430281
:103110000202020080F0FA0238B5C0F30322013A3D
:1031200003460E2A3DD8DFE802F043463C36081B32
:103130001E212539292E3C183300204C0020C3F3D2
:10314000043508B1FFF782FF04F1424404F580140E
:1031500005EBC404A400216038BD194C0020EEE743
:10316000184C0120EBE7184C1020E8E7174C4FF4FF
:103170008070E4E7164C4FF48030E0E7154C81F0A6
:1031800001010020DBE7144C81F001010020D6E7AB
:10319000124C0020D3E7124C0020D0E7114C002045
:1031A000CDE7BDE83840104841F6795107F016BA2E
:1031B0000E4C0020C3E70E4C0020C0E7B0400E408C
:1031C000C4400E40E0400E40E8400E40EC400E404F
:1031D000F0400E4060410E4064410E40F0410E4010
:1031E00068410E4050410E4014C0000000400E40A7
:1031F000C0400E4008B5C0F30313013B0B2B00F297
:10320000AB80DFE803F0060C101A2024282C668619
:1032100092A5534BD3F80001C0F3042008BD504BD6
:10322000D3F81401F8E74E4BD3F80001C0F3016066
:103230000130FFF7E5FE0138F0E7494BD3F80C0108
:10324000C0F30820EAE7464BD3F81801F8E7444BEF
:10325000D3F81C01F4E7424BD3F80801F0E7414BE7
:1032600098422AD00ED8A3F5BA2398422BD003F562
:103270007033984215D041F61D713B4807F0AEF906
:103280000020CBE7394B984205D0394B98420ED0FD
:10329000384B9842EFD1324BD3F82001C0F30230C3
:1032A000C7E72F4BD3F8200100F00F00C1E72C4BEC
:1032B000D3F82001C0F30120BBE7294BD3F820014C
:1032C000C0F30310B5E7264BD3F82001C0F3034049
:1032D000AFE7294B98420CD003F5A11398420ED0CA
:1032E000264B984212D11E4BD3F8280100F0030060
:1032F0009FE71B4BD3F82801C0F3011099E7184B47
:10330000D3F82801C0F30130043092E741F641714F
:10331000B3E71B4B984205D1114BD3F8300100F0B5
:1033200003007BE741F65071A7E7164B984205D0A2
:10333000154B984206D041F668719EE7084BD3F8CA
:103340005C01ECE7064BD3F85C01C0F3014065E794
:10335000034BD3F8040173E741F675718DE700BFA5
:1033600000400E408016180014C0000000362C00EB
:1033700080262E0080002A0090171C0090071A005B
:10338000A0091400B8003200B900340010B5C0F331
:103390000313013B0C460B2B00F21882DFE813F0FD
:1033A0000C00340045006000740088009C00BC00E4
:1033B0006101CE01DA0102021F2904D9C44841F695
:1033C0009E7107F00BF907F0A4F9C248FFF7CCFD96
:1033D00000F00AFAC04BD3F8001121F4F85141EA89
:1033E0000424C3F80041FEF7E1FC0446FFF724FE85
:1033F00001462046FFF756FEFEF79EFCFFF7B4FDA0
:10340000BDE8104000F006BA1F2904D9B04841F6C3
:10341000B47107F0E3F8B04BD3F8141121F4F8516C
:1034200041EA0424C3F8144110BD4B1EB3F5004F0C
:103430000DD2B4FA84F1A84BD3F80041C1F11F01B9
:1034400024F0407444EA0164C3F80041ECE7A34867
:1034500040F65A5107F0C2F8002CEAD12021EAE7E1
:10346000B1F5007F04D39A4841F6C17107F0B6F870
:10347000994BD3F80C1121F4FF3121F4807141EA0A
:103480000421C3F80C11CFE7B1F5007F04D39048B5
:1034900041F6C87107F0A2F88F4BD3F8181121F448
:1034A000FF3121F4807141EA0421C3F81811BBE710
:1034B000B1F5007F04D3864841F6D07107F08EF84D
:1034C000854BD3F81C1121F4FF3121F4807141EABE
:1034D0000421C3F81C11A7E7B1F5007F04D37C4891
:1034E00041F6D77107F07AF807F013F97A4BD3F861
:1034F000081121F4FF3121F4807141EA0421C3F85D
:103500000811FEF753FC0446FFF796FD01462046DE
:10351000BDE81040FFF7C6BD714B984274D010D87B
:10352000704B984246D0704B984257D0A3F57033F9
:10353000984226D042F25301BDE81040644807F09B
:103540004DB86A4B984205D0694B984273D0694B8D
:103550009842EFD1B4F5004F04D95D4842F24501DD
:1035600007F03CF82046FFF77DFD01460420FFF7F9
:103570006DFD594AD2F8203123F4E04343EA013388
:1035800015E0B1F5004F04D9514841F6E97107F053
:1035900025F82046FFF766FD01460420FFF756FD9B
:1035A0004D4AD2F8203123F4702343EA0143C2F894
:1035B000203139E7022904D941F6FA71444807F06D
:1035C0000DF84FF48020FFF741FD434BD3F8301145
:1035D00021F003010C43C3F8304125E7B1F5004F5A
:1035E00004D93B4842F2170106F0F8FF2046FFF7E6
:1035F00039FD01460420FFF729FD374AD2F8203172
:1036000023F00F030B43D2E7B1F5004F04D9304844
:1036100042F2260106F0E2FF2046FFF723FD0146B5
:103620000420FFF713FD2C4AD2F8203123F0F003D9
:1036300043EA0113BBE7082904D9254842F23501C2
:1036400006F0CCFF2046FFF70DFD01460420FFF7F2
:10365000FDFC214AD2F8203123F4407343EA0123D0
:10366000A5E7254B98421DD003F5A113984247D0FA
:10367000224B98425FD1082904D9154842F25C01D7
:1036800006F0ACFF2046FFF7EDFC01464020FFF7B7
:10369000DDFC114AD2F8283123F003030B43C2F8B2
:1036A0002831C1E6082904D9094842F26B0106F025
:1036B00095FF2046FFF7D6FC01464020FFF7C6FCE9
:1036C000054AD2F8283123F0300343EA0113E6E734
:1036D00014C000000148E80100400E40B2C00000E4
:1036E00080161800A00914008006160000362C0071
:1036F00080262E0080002A0090171C0090071A00D8
:10370000A1F10F03702B04D9324842F27A0106F07E
:1037100065FF2046FFF7A6FC01464020FFF796FC18
:103720002D4AD2F82801043920F4405040EA0130F3
:10373000C2F8280178E642F28901FDE6274B98425B
:1037400005D102297FF63DAF42F2930136E742F2FE
:10375000A301F1E6224B984205D0224B984212D0A9
:1037600042F2BC01E8E6032904D91A4842F2AE014C
:1037700006F034FF184BD3F85C1121F003010C4321
:10378000C3F85C4150E6032904D9124842F2B6015D
:1037900006F024FF104BD3F85C1121F4403141EACC
:1037A0000444EDE7B1F5007F04D30A4842F2C401B6
:1037B00006F014FF084BD3F8041121F4FF3121F473
:1037C000807141EA0421C3F804112DE642F2CB01D5
:1037D000B2E600BF14C0000000400E40A009140073
:1037E000B8003200B900340008B507480321FFF7DC
:1037F000CDFD06480321FFF7C9FDBDE80840044898
:103800000321FFF7C3BD00BF404105005041070041
:103810006041090037B5FEF78FFA0446FFF70CFC4C
:10382000022817D1194B1A481A491C449C42B4FB70
:10383000F1F188BF01F1FF310191FFF7A7FD019977
:103840001548FFF7A3FD0199144803B0BDE83040C7
:10385000FFF79CBD124B134D0D48E2189A42B2FB84
:10386000F5F588BF05F1FF352946FFF78FFD0B48B9
:103870002946FFF78BFD0C4B0C4907481C449C4222
:10388000B4FBF1F188BF01F1FF31DEE7FF2C31011C
:1038900040410500002D3101504107006041090001
:1038A0007FF0FA0280F0FA02FFA14A0400A24A0463
:1038B00008B500F00F0001380C2800F28480DFE822
:1038C00000F007121C30263A824452606C70790076
:1038D000454BD3F8943003F00703023B052B7FD808
:1038E000424AD05C08BD404BD3F8803003F0070358
:1038F000013B032B76D83E4AF3E73B4BD3F88430A9
:1039000003F00703013B032B6CD83A4AE9E7364B37
:10391000D3F8883003F00703013B032B62D8364A03
:10392000DFE7314BD3F88C3003F00703013B032B67
:1039300058D8324AD5E72C4B1B6F13F0030349D0FC
:10394000012B14BF01200920CCE7274BD3F85C31B1
:1039500003F03003202B3FD0302B3FD0102B14BF6F
:1039600001200720BEE7204BD3F85C3103F440135D
:10397000B3F5001F30D0B3F5401F2FD0B3F5801F33
:10398000EDE7194BD3F8600100F00300431E022B52
:1039900026D800EB40000130A4E7134BD3F86401B4
:1039A000F2E7114BD3F8F03103F00703052B19D8D8
:1039B000134A96E70C4BD3F8683103F00303032B4B
:1039C00010D0104A8DE7104842F2CA2106F006FED8
:1039D000002087E7072085E7042083E7082081E7A8
:1039E00005207FE701207DE700400E401BC100005D
:1039F00021C1000025C1000021C1000021C100003B
:103A000029C100002FC1000014C0000038B5314B9F
:103A1000984205460BD01ED82F4B984207D02F4B0B
:103A20009D4204D02E4841F6DC0106F0D7FD284621
:103A3000FFF73EFF274B9D42044625D00DD8264B6D
:103A40009D4211D0254B9D421AD0254841F60B11BD
:103A500006F0C4FD0DE0234BE2E7224B9D42F4D17A
:103A6000214BD3F8884002E01F4BD3F8804004F08C
:103A70000704042C27D8DFE804F0240B0F171300E9
:103A8000194BD3F88440F2E7174BD3F88C40EEE79C
:103A9000BDE8384006F09CBDBDE83840FEF7BCB933
:103AA000BDE8384006F097BDFEF746F90E4B0446D8
:103AB000D3F80001C0F301600130FFF7A1FAB4FBB5
:103AC000F0F4204638BD064841F65D1106F086FD4B
:103AD0000024F6E70400220002001E00030020007C
:103AE00014C000000500240000400E4008B5012865
:103AF00014BF12481248FFF7DBFE0138072816D81A
:103B0000DFE800F01A1515071515040B0D4B1868A2
:103B100008BDBDE80840FEF75BB9FEF70DF90A4B9A
:103B2000D3F80031C3F3042303FB0000F0E7074898
:103B300041F2D66106F052FD0020E9E7B8003200FC
:103B4000B90034004410002000400E4014C00000B2
:103B500038B500F47813B3F5E01F054600F0008196
:103B60004CD8B3F5602F00F0148123D8B3F5C02FE3
:103B700000F0A6800DD8B3F5003F00F0AD80B3F59E
:103B8000802F00F09280002B00F00B8141F6A9619C
:103B90000DE1B3F5202F00F09980B3F5402F00F030
:103BA000A180B3F5002FF1D1FEF7C6F8B74BD3F8DB
:103BB0001C317FE0B3F5B01F00F0AF800DD8B3F536
:103BC000901F00F09780B3F5A01F00F09D80B3F523
:103BD000801FDBD1AE4B186871E0B3F5C01F00F059
:103BE000AA80B3F5D01FD1D1AA48FFF70FFFA74B8A
:103BF0000446D3F8280100F0030097E0B3F5481F0E
:103C000000F0DA8029D8B3F5201F00F0BE800FD86D
:103C1000B3F5001F00F0A280B3F5101F00F0B780CD
:103C2000B3F5F01FB2D19C48BDE83840FFF7EEBEB7
:103C3000B3F5381F00F08980B3F5401F00F09A807B
:103C4000B3F5281FA2D19448FFF7E0FE8F4B04463E
:103C5000D3F82001C0F3023068E0B3F5681F00F02C
:103C6000E88013D8B3F5581F00F0AF80B3F5601F9C
:103C700000F0C580B3F5501F88D10120FFF736FF53
:103C8000824BD3F85C31C3F3014315E0B3F5701FE9
:103C900000F0EB80B3F5781F7FF478AFFEF74CF8B7
:103CA0000446284606F047FD42E0FEF745F8774B0C
:103CB000D3F80C31C3F308230133B0FBF3F038BD64
:103CC000FEF73AF8714BD3F81831F3E7FEF734F802
:103CD0006E4BD3F80431EDE7FEF72EF86B4BD3F8BB
:103CE0000831E7E7FEF728F8684BD3F81431C3F33F
:103CF0000423E1E76848FFF789FE644BD3F82031DD
:103D0000C3F30343D840DAE76448FFF77FFE5F4B15
:103D1000D3F8303103F00303F4E75F48FFF776FE92
:103D20005A4B0446D3F8200100F00F00FFF768F962
:103D3000B4FBF0F0C3E75848FFF768FE534B044666
:103D4000D3F82001C0F30310F0E75348FFF75EFEFD
:103D50004E4BD3F82031C3F30123D3E74D4863E73B
:103D60004C48FFF753FE494B0446D3F82801C0F3F3
:103D70000110DBE74748FFF749FE444B0446D3F800
:103D80002801C0F301300430D0E745484CE74348F0
:103D90004AE74448FFF78CFD07283FF41BAF09288A
:103DA00003D1BDE83840FDF7C7BF41F29F613E48EF
:103DB00006F014FC002082E70020FFF797FE334B4B
:103DC000D3F85C3103F0030376E73848FFF770FD62
:103DD0000438062810D801A353F820F07D3E0000D7
:103DE000853E0000F93D0000D53B0000F93D000094
:103DF000F93D0000893E00004FF4B851D7E72C4848
:103E0000FFF756FD0438062810D801A353F820F018
:103E10007D3E0000853E00002D3E0000D53B0000A9
:103E20002D3E00002D3E0000893E000041F232711F
:103E3000BDE72048FFF73CFD0238092812D8DFE82B
:103E400000F0090D1D21111111112305FDF7C0FF0F
:103E5000400034E7BDE83840FDF7DEBFBDE838403C
:103E600006F0B6BB41F28971A1E71348FFF720FDC8
:103E7000052807D00A2807D0042823D1BDE83840F8
:103E8000FDF7A6BF0D4BA6E60D4BA4E600400E4085
:103E9000441000200300200002001E000500240042
:103EA0000400220006000E0014C000000A7B360049
:103EB0000B7C38000C7F3A000D743C003810002059
:103EC0004810002041F2587171E700BF014B188083
:103ED000704700BF3E140020014B1880704700BFA0
:103EE0003C14002038B502280C4604D00D4842F698
:103EF000FC4106F073FB0C4D6B6AC3F30113012BFD
:103F00000DD064B1074842F6175106F067FB074B26
:103F1000D5F8902033EA0202FAD1012038BD4FF4DF
:103F20008003F5E714C0000000400E40FF3F4F3A09
:103F30002DE9F047052804460F4691461FD83E4B11
:103F40003E4A13F800A03E4B13F80080F1B93D4BF8
:103F500033F810301366012303FA08F8D2F89030D2
:103F600013EA080FFAD1B9F1000F61D00125334AE5
:103F700005FA0AF5D2F890302B42FBD158E0BDE8A3
:103F8000F047314842F6C83106F028BB2F4B0228D3
:103F900033F810604ED1536AC3F30113012B49D19A
:103FA0002B4BDB6B5B0504D4274842F6D73106F078
:103FB00015FB224A536A03F00303032B05D1536A0E
:103FC00023F0300343F020035362224D1B4BA844DF
:103FD0001E664FEA8808D8F80030002BFBD0B9F1F4
:103FE000000F25D05544AD002B68002BFCD0022CCF
:103FF0001ED1EFB1114B5B6A03F00303032B03D017
:1040000000212046FFF76EFF0F4842F65A4106F0A6
:10401000E5FA012200210220FFF78AFF0A4842F652
:10402000E44106F0DBFA054B1E662B68002BFCD042
:10403000BDE8F0870027C8E732C1000000400E400D
:1040400038C100000CC1000014C0000000C1000015
:1040500000300E408004F21038B5FDF7B9FE0021A3
:10406000044600F019FA1448FEF77EFF01221146BB
:104070000220FFF75DFF06F04CFBFFF7B5FB0CB12C
:10408000FEF7CCFF0D4B02225A67FDF755FEFEF7F7
:104090006BFFFDF78BFE0546FEF7CEFF0146284677
:1040A000FFF700F81CB90121204600F0F5F9BDE842
:1040B0003840FFF7AFBB00BF0148E80100400E40A9
:1040C00038B504461120FFF7F3FB042804D11F483C
:1040D00042F63C2106F082FA012200210220FFF77D
:1040E00027FFE37A022B2AD8194AD25C194D6B6A52
:1040F00023F0030313436B62FDF76AFE164B22881D
:10410000984294BF082000206B6A23F008031843EC
:10411000A388686243EAC223EB622B6BE2881B0D23
:104120001B051343628843EAC2232B63637A227A16
:104130001B0143EA0233A27A13436B6338BD034881
:1041400042F6502106F04AFA0022CFE714C00000E0
:1041500018C1000000400E4040787D0170B5054652
:104160001120FFF7A5FB022804D10F4842F6FA21DF
:1041700006F034FA0D4E0E4BB26B2C7813401C43F4
:104180006B7844EAC324AB7844EA0364EB7844EAEE
:104190000324B36BA34205D0002101220846FFF798
:1041A000C7FEB46370BD00BF14C0000000400E40E5
:1041B00080E4FFF80028A7BF00F1604000F56140EF
:1041C00000F00F00034BACBF90F80003185C4009EF
:1041D000704700BF14ED00E038B5C5B23B2D044672
:1041E00004D9084840F2163106F0F8F9064B640984
:1041F00005F01F0553F82400E840C04300F001001B
:1042000038BD00BF78C1000000E100E010B500F14A
:104210000C03DBB2472B044604D915484FF429712F
:1042200006F0DCF9EFF31083DB0702D5012210461C
:1042300010BD2046FFF7D0FF02460028F6D12046E9
:10424000FFF7B8FF0146EFF3118313B1B0EB531F33
:10425000ECD2084B5B68C3F30803002BE7D0103B9C
:1042600058B2FFF7A7FF88428CBF00220122DEE789
:1042700078C1000000ED00E0034BD86B80F04000F7
:10428000C0F38010704700BF00300E4038B542EADE
:104290000323B3F5007F05460C463ED019D8B3F58D
:1042A000807F36D00AD883B3012B21D01F4840F637
:1042B0003C2106F093F9002213461FE040F2011260
:1042C0009342F3D11A4BD3F824321A0EC3F30743A7
:1042D00014E0B3F5407F24D040F20132934210D075
:1042E00040F201229342E1D1114BD3F8283202E08F
:1042F0000F4BD3F82432C3F30722DBB22B602260CA
:1043000038BD0B4BD3F82832DFE7094BD3F81C320A
:10431000F1E7074BD3F81C32D7E7054BD3F820322F
:10432000E9E7034BD3F82032CFE700BFC6C1000056
:104330000081E00F08B5FFF79FFF20B1024AD2F8D5
:10434000C830002BFBD108BD0000C64310B51A4B86
:104350000228D3F830320C4612D0032813D001289B
:1043600014BFDBB2C3F307231B0323F47042ECB981
:104370005AB140F6CB11114806F030F9002010BDBB
:10438000C3F30743F0E71B0EEEE70D49CA6E22F4B4
:1043900070421343CB660120F1E70949D1F8EC20C4
:1043A00022F470421343C1F8EC30F4E7002AF4D051
:1043B00040F6D711DFE700BF0081E00FC6C1000063
:1043C00000300E4070B50378124A002B4378946990
:1043D00014BF04260026002B837814BF0225002575
:1043E000002B037924F03F0443EA0403C47814BF8C
:1043F00008210021012C08BF43F0010333432B4364
:104400000B4393611368417923F4403343EA01433A
:10441000136070BD00300E40F8B504460F46FFF73C
:104420002BFF78B3FFF786FF174B5B68C3F301439D
:104430009C4227D0154BD3F80061FDF77DFC022C80
:1044400005460FD1124BC6F3042606FB00069E421A
:1044500004D9104840F2627106F0C0F802212846E3
:10446000FEF720FEC4F1020210239340064A1361B6
:104470000FB1FFF75FFF2CB921462846BDE8F84091
:10448000FEF710BEF8BD00BF00300E4000400E40E9
:10449000002D3101C6C1000013B50246FFF7ECFE46
:1044A000C8B152B90D4B0191D3F80041FDF744FC5E
:1044B000C4F30422019902FB0002094B1B7843B1AB
:1044C000084B9A4205D8022002B0BDE81040FFF721
:1044D000A3BF0020F8E702B010BD00BF00400E40AF
:1044E000E21A0020002D310110B5174B4AF6E852B0
:1044F000596B5A639A6FD407FCD41B6C13F00303F7
:104500001EBF124A0124C2F8B44A834216D00E4B91
:104510009A6FD207FCD41A6C22F0030202431A6489
:104520009A6F12F00102FBD10038084C18BF01202D
:104530000129C4F8B40A08BF5A6303E010B9034B59
:10454000C3F8B40A10BD00BF00300E400000C643DF
:104550002DE9F04F89B0A0F5E1630024B3F5966F23
:10456000CDE90244CDE90444CDE9064406468A4635
:10457000934605D940F6C531554806F02FF8A3E01B
:10458000B0F5E16F534B8CBF0122002249D1D3F823
:104590001832C3F30721DBB2079104934FF4167569
:1045A0004FF4966748E0BBF1000F0ED0D9F85C20BD
:1045B00022F4FE4222F00202B6F5E16F42EA012245
:1045C00018BF02200243C9F85C20BAF1000F26D0C0
:1045D00020460021FFF7BAFE044610B940F62241FA
:1045E000CAE701214046FFF7B1FE044610B940F684
:1045F0002A41C1E7384A536EBD4238BF3D4623F4D5
:10460000FF73E72D23F0010328BFE725B6F5E16F1F
:1046100018BF43F0010343EA4503536654E0012405
:1046200052E0D3F81832190EC3F3074307910493ED
:104630004FF496654FF4E167DFF89C90D9F84C4051
:104640000192C4F30174234605A902A8FFF71EFED8
:10465000D9F8EC30019AC3F30128434606A903A810
:10466000FFF714FE049BF01B079FF91A4143B1FBAF
:10467000F5F299182CBF012300238F421ED3EBB90A
:10468000069A039FD31B4343B3FBF5F3FF182CBFDC
:1046900001230023BA4211D383B9059B029AA3EBED
:1046A000020C00FB0CF0B0FBF5F555192CBF0120F6
:1046B0000020AB4202D300283FF475AF044840F617
:1046C000134105F08BFF0024204609B0BDE8F08FB0
:1046D000C6C100000081E00F00300E4008B5334A2B
:1046E000136FD16C11F0010F03F0060344D0002BBF
:1046F00042D0132857D9143813288CBF102308230D
:104700002A49013BCA6C180322F47F4240EA032382
:104710001343CB64264BCA6C1B88C2F30322283395
:10472000013202EB820003EB5303B3FBF0F3C86CDE
:10473000013B072B28BF072320F0EE6040EA03630C
:1047400043F48013CB641B4BB3F90030002B12DB16
:1047500003F12800C0F34E030344500800EB42026B
:10476000B3FBF2F20B6D072A28BF072223F0700378
:1047700043EA02120A6508BDD16C01F00101194338
:1047800004D109280FD90A380928B6E7D26CD20714
:1047900002D50BB92728B0E7074840F6684105F075
:1047A0001DFF0023ACE70423AAE700BF00300E4042
:1047B000BA1A0020BC1A0020C6C1000010B50C4B6C
:1047C000D3F88039044633B9012804D9094840F6A2
:1047D000864105F003FF084A136F23F007032343C4
:1047E0001367064BBDE810401888FFF777BF00BF7E
:1047F0000000C643C6C1000000300E40B81A0020B9
:1048000038B50389C82B044604D9514840F66A21BB
:1048100005F0E4FEA28823899A4204D94C4840F668
:104820006B2105F0DBFEB4F90C30C82B04DD4848E1
:1048300040F66C2105F0D2FE6378012B55D1A38898
:10484000C82B04D94FF42761414805F0C7FEE28820
:1048500042F210739A4204D93D4840F67D2105F09A
:10486000BDFEE3884A2B48D9B3F5FA7F47D340F61B
:10487000C312934294BF4FF000524FF0405235495B
:10488000B4F90C00CB6C23F0405323F00103002853
:10489000A8BF43F001031343CB64D1F8EC30A288E6
:1048A00043F44073C1F8EC302B4B1A80CB6E43F0CD
:1048B0008073CB66294BD3F8800900B10420FFF741
:1048C0007DFF274B21891980264BB4F90C20A08845
:1048D0001A80FFF703FFA37BA3B1012B23D01C4851
:1048E00040F67C1105F07AFE0FE0022BAFD1A388D1
:1048F0000A2BACD940F67521A6E70022BFE74FF09E
:104900008052BCE7134B184A9A6501226088114611
:10491000FFF71EFE054648B90D4840F6B42105F0E4
:104920005DFE284638BD0B4B104AEDE7094AD36BB4
:1049300043F48063D3636078FFF7D6FDA37AA3F1D5
:10494000200253425341054AC2F89437E9E700BFB9
:10495000C6C1000000300E40B81A00200000C64357
:10496000BA1A0020BC1A002077402057372110B710
:1049700038B5042804460D4618D9052804D147F651
:10498000FF73EB40DB0704D40A4840F22D4105F0E9
:1049900025FE30230C2013FB040000F18C40012184
:1049A00000F5082001FA05F5056038BD4FF6FF73E4
:1049B000E7E700BF13C2000038B5042804460D46DF
:1049C00018D9052804D147F6FF73EB40DB0704D460
:1049D0000A4840F2FE3105F001FE30230C2013FBA3
:1049E000040000F18840012100F5082001FA05F5D6
:1049F000056038BD4FF6FF73E7E700BF13C2000044
:104A000010B50728044603D90648522105F0E6FDF3
:104A1000054AD2F8443423F003032343C2F8443454
:104A200010BD00BF61C200000080084038B50528F5
:104A300004460D4602D831F0011303D008487D2109
:104A400005F0CCFD04EB4404200100F180402A462F
:104A50004FF00111BDE8384000F5082005F080BE98
:104A600061C20000F8B5042804460D4616461F46EC
:104A700029D9052804D147F6FF73EB40DB0704D49E
:104A80001A484FF4B07105F0A9FD26B12946204619
:104A9000E7B1FFF76DFF04EB4403072D4FEA031363
:104AA0004FF00F0115D8A80006FA00F28140104817
:104AB000184405F055FEC6B9294620468FB1BDE819
:104AC000F840FFF755BF4FF6FF73D6E7FFF774FFC7
:104AD000E1E7A5F10800800006FA00F281400548F0
:104AE000E6E7BDE8F840FFF767BFF8BD61C2000028
:104AF000048008400880084038B5042805460C4664
:104B00001AD9052804D147F6FF73E340DB0704D424
:104B10000B4840F28F1105F061FD0A4B302000FB7D
:104B20000533072C92BF58689868083CA40020FA07
:104B300004F404F00F0038BD4FF6FF73E5E700BF43
:104B400061C2000000800840074B0422C3F88020A7
:104B5000BFF34F8FBFF36F8F044B0021D9664FF423
:104B6000CA401962FEF7D8BA00E100E00020004018
:104B700038B50B2805460C4603DD0848772105F0BB
:104B80002DFD1F2D84F0010403D90548912105F066
:104B900025FD044B2B449B001C6038BDAFC20000B8
:104BA000FDC20000A001811010B5044618B91B48D1
:104BB000912105F013FD23781B0613F0704F03D0ED
:104BC0001648922105F00AFDE378072B03D9134814
:104BD000A32105F003FD01214FF4CA40FEF79CFA22
:104BE000B4F8013022785BBA9BB243EA02630C4A04
:104BF000136000231362D36253634FF00043D36604
:104C00004FF0FF339366074A0421C2F88011E3781E
:104C10005B01DBB282F80233116010BDAFC200004D
:104C20000020004000E100E02DE9F041C3B2012680
:104C30000B2805460C46904606FA03F603DD3A4873
:104C4000EC2105F0CBFC1CB93748ED2105F0C6FC82
:104C5000236823F47C1323F00F031BB13248F221A5
:104C600005F0BCFCA37A1B0413F47C0F04D02E487F
:104C700040F2091105F0B2FCE37A1B0513F07E6FD8
:104C800004D0294840F20B1105F0A8FC237B5B05FA
:104C900013F0FE5F04D0244840F20D1105F09EFC95
:104CA000224F637BBE66302000FB05702268C0F88F
:104CB0008020C0F88830E37AA27A1B0543EA0243D9
:104CC000227B43EA425328F00302C0F88430C0F844
:104CD000982005F03CFDFB6E3343FB66237A13B14D
:104CE0007B6B33437B63637A13B1FB6A3343FB62B1
:104CF0000E4B1A68237923B1DB431B0263F47F4315
:104D00001A4063790BB142EA0322A3790BB122EA7C
:104D10000302E3791A43054B1A60054A9662DE6383
:104D2000BDE8F04105F019BDAFC200000020004011
:104D30000020004410B5C3B201240B2804FA03F488
:104D400004DD094840F2971105F048FC05F0FFFC2E
:104D5000064AD36E23EA0403D366054B1C62BDE802
:104D6000104005F0FABC00BFAFC2000000200040B8
:104D70000020004410B5C3B201240B2804FA03F448
:104D800004DD0B4840F2B51105F028FC05F0DFFC0E
:104D9000084B1A6A224209D19B6A34EA03030CBF0A
:104DA0000124002405F0D9FC204610BD0024F9E7B9
:104DB000AFC200000020004038B5022804460D466E
:104DC00003D911484C2105F009FC6B791F2B03D93D
:104DD0000D484F2105F002FCAB786A789B0143EA4D
:104DE00082032A781343EA7843EA02132A7943EAD2
:104DF000C2236A7943EA0233AA79043443EA42437C
:104E00002401024A135138BD4AC300000020064065
:104E1000014B1860704700BF0000C44270B5427873
:104E200001790378002A827814BF04260026002A1C
:104E3000C27814BF10250025002A42794FEA0232B9
:104E400042EA012242EA0302837942EA8332C379C9
:104E500014BF20240024002B037A42EA034343EAD0
:104E60000603427A43EA050314BF4FF400410021D0
:104E70002343002A14BF4FF4003200220B43134394
:104E8000014A136070BD00BF002006402DE9F041CB
:104E900080460C461F46164622B934484FF4A1718D
:104EA00005F09CFB3CB9324B98450CBF3148324869
:104EB000FEF74EFE0446402F4BD009D8A7B1202F55
:104EC0003DD0BDE8F041294840F2891105F086BB8C
:104ED000602FF6D1B6EB940F04D9244840F2831129
:104EE00005F07CFB042108E0B6EB141F04D91F4831
:104EF0004FF4BA7105F072FB10214E4371081F4D3B
:104F000001EB4414B4FBF6F6203EB5EBC60F4FEAB6
:104F1000C60404D215484FF4D07105F05FFBD8F8F1
:104F2000003023F06003C8F80030D8F800302C407F
:104F30001F43C8F80070C8F81440BDE8F081B6EB14
:104F4000D40F04D9094840F2791105F047FB082134
:104F5000D3E70625B4FBF5F3B34204D203484FF47C
:104F6000BF7105F03BFB2946C7E700BF98C30000AF
:104F7000000801405041070040410500F8FF7F0054
:104F800070B506460C46154622B90F4840F28E21F0
:104F900005F024FB3CB90D4B9E420CBF0C480D485C
:104FA000FEF7D6FD04460C4B6D00013CB4FBF5F456
:104FB00013EA04234FEA042504D0034840F2B32146
:104FC00005F00CFB756170BD98C30000000801403E
:104FD0005041070040410500070080FF38B5144BE1
:104FE000984204460D461CD003F58063984218D0C1
:104FF00003F58063984214D003F58063984210D083
:1050000003F5806398420CD003F54053984208D0D2
:1050100003F58063984204D006484FF4337105F0DD
:10502000DDFAEB435B0003F00A03E360E56038BDA3
:105030000000014098C3000038B5264B264D984229
:1050400004461AD0A84218D003F50063984214D041
:1050500003F58063984210D003F5806398420CD02A
:1050600003F54053984208D003F58063984204D07A
:105070001A4840F2424105F0B1FA40F6AA63E360F3
:1050800041F20502002323606260154AA360636158
:10509000E364A26423666367A367E3670D4B9C42E6
:1050A00009D0AC4207D003F500639C4203D003F55E
:1050B00080639C4201D1002323650023AC42A36599
:1050C00006D0084A944203D002F58062944200D18F
:1050D000E36538BD000001400004014098C30000B2
:1050E000F9FF0100000C014038B52F4B98420446EF
:1050F0000D461CD003F58063984218D003F58063F9
:10510000984214D003F58063984210D003F5806371
:1051100098420CD003F54053984208D003F58063C1
:10512000984204D0214840F2FD2105F057FA20466C
:10513000FFF782FFAB7C1BB1236843F08043236001
:10514000EB7C1BB12B7D43F08003A3652A8A6B7B2C
:105150001343EA89134363602B7BD5E90112204690
:10516000FFF794FE6B7D1BB1236843F4803323600B
:10517000AB7D1BB1236843F400432360EB7D2A7EA3
:105180001B07120502F4E00203F0E0431343236619
:10519000636F23F030036367626F6B7E1343636753
:1051A0002B78E36038BD00BF0000014098C30000C9
:1051B00038B52F4B984204460D4614D003F5806352
:1051C000984210D003F5806398420CD003F58063B9
:1051D000984208D003F58063984204D0254840F2F5
:1051E000693105F0FBF92046FFF726FFA97B2A8AE3
:1051F0002368002942F0010214BF4FF480610021AE
:1052000013430B432A7D23602368002A14BF4FF009
:105210000052002213432360AB7C1BB1EB7C43F0B4
:105220008003A3652B7B43F480536360D5E90112AF
:105230002046FFF7A5FE6B7B0BB11023E3606B7D6F
:105240001BB1236843F480332360AB7D1BB123681B
:1052500043F400432360EB7D2A7E1B07120503F015
:10526000E04302F4E002134323662B78E36038BD89
:105270000000014098C3000010B54FF42F720021C8
:10528000044606F06CF800238022C4E92323094A6F
:10529000C4F884200122C4F8943084F8983084F84B
:1052A0008820C4F8AC3204F19C00BDE8104005F041
:1052B00096B900BFE7C3000010B5D0F8A0400A4679
:1052C00074B905F01EFC044640B12D2896BF074B6B
:1052D000074953F82010074805F071FD204610BD1E
:1052E000D0F8A4101046A0470024F7E78CC40000B3
:1052F000EAC30000F5D5000070B590F88030044690
:105300000BB1002070BD05F044FA0028F9D101234B
:1053100084F8803094F8883033B184F88800D4F869
:105320008410164805F04BFD4FF0FF36D4F8B45208
:105330006A1C1CD0C4F8B462204605F027FAE9B212
:10534000204600F097FB0028F0D0204605F023FA15
:1053500094F8880038B1D4F88410084805F02FFD7F
:10536000002084F88800002384F88030CAE705F024
:105370000BFD431C0546DFD10120F4E7CAC5000040
:10538000F8B50B78302B05460E46174604D14B78FE
:1053900003F0DF03582B12D02F49721E12F8014F71
:1053A000002C43D10A222146304603F04DFA202D2D
:1053B00003460A463FD1631A5842584119E04A1C35
:1053C000254912F8013FABB9244B2B40032B304643
:1053D0001FD106F0E2F86B1C48BF2B1D0238B0EB62
:1053E000A30F4FEAA3040BD1B07837288CBF00205D
:1053F0000120F8BD5B5C13F04403E2D11846F8E7E6
:10540000304606F0CAF802388442D4BF002001209A
:10541000EFE706F0C2F8002DA0F10200B8BF033597
:10542000B0EBA50FD4BF01200020E2E7635C13F0CE
:105430000403B3D1E2E727B1084302D0013B61F195
:105440000002012000FA05F5013D1D40002A08BFB9
:105450009D4218BF0020CCE7F4D00000030000807C
:1054600070B503787B2B16D10C4E05460221002225
:1054700015F8014F7D2C05D1435C63B9D04300F092
:10548000010070BDA35D13F0440302D0013201316D
:10549000EEE7202CFBD00020F3E700BFF4D00000A3
:1054A00070B506460D4606F078F80446304605F01D
:1054B00086FC044EAC4200D370BD304605F07FFC44
:1054C0000134F7E7B0C800002DE9F84F0446022187
:1054D0005248FFF7E5FF1E212068FFF7E1FF6368F0
:1054E000586805F06CFC4E4805F069FC67683B7B2A
:1054F000FD2B12D8D7F80880DFF82091DFF880A1C3
:10550000DFF858B1404606F048F80C3705464FF032
:10551000FF3617F8013BFF2B01D1BDE8F88F212B97
:1055200018D8212B34D8DFE803F070767211191BDC
:105530001D1F333333333333333321232527292BB3
:105540002D2F33333333333333336C31354C002D1C
:1055500021DC23E0FE2B5CD0334CF8E7334CF6E73C
:10556000334CF4E7334CF2E7334CF0E7334CEEE7DF
:10557000334CECE7334CEAE7334CE8E7334CE6E7EF
:10558000334CE4E7334CE2E7334CE0E7334CDEE7FF
:10559000002D254C00DD0136202BBAD002214846D3
:1055A000FFF77EFF1E214846FFF77AFF504605F0C1
:1055B00006FC5946204605F0E6FF2949002818BF99
:1055C0002146284805F0FBFB3B78202B02D12B20FD
:1055D00005F0E9FB244805F0F2FB002D09DD18F881
:1055E00006301F2B05D018F806001F2801D0AE4248
:1055F00003DB0B4805F0E3FB8BE705F0D4FB01363A
:10560000F1E7002D85DD194CC5E7194C9FE7194CD2
:105610009DE7194C9BE7194C99E700BFD1C50000E5
:10562000DAC800005AC5000044C50000AFC500003C
:1056300060C50000A1C500009DC5000094C5000024
:105640008AC5000080C5000095C500008BC500001C
:1056500081C5000076C500006FC5000066C500006A
:1056600057C50000CAC50000B7C500004CC5000002
:1056700059C500005FC50000A8C50000AEC5000008
:10568000B5C500002DE9F04F91B01A9E0393054671
:105690000F46904605F081FF039B04904FF00009F0
:1056A000C3F8009008AAC6F8009007A9284605F09C
:1056B000A7FB0446002840F0B880089805F06DFF6D
:1056C000039B1860D5F89C300293A346A246029B28
:1056D0001BB9204611B0BDE8F08F029B9B68019377
:1056E000002B6ED005EB0A0212F8013B202B14D0E0
:1056F0004FF0000A019A0C2303FB0AF31A440092AC
:10570000019AD158002956D0079B5B4553DB009B7B
:105710001B7A33B10AF1010933E033680133336096
:10572000E2E73368D5F89420D21A039B1A6010ABD5
:1057300003EB8B03059353F8200C05F036FF8146ED
:105740000028E7D1009B186805F027FF009B5B68E5
:1057500093F80CC0BCF1FE0F17D1079A013A5A45D5
:1057600013D01B680193059B53F8200C05F015FF1F
:1057700033680133034433603368EA5C1AB10BF1D8
:10578000010BCA46B6E70133F5E7D5F89420316836
:10579000521A824226DC384605F0FFFE009B814605
:1057A000186805F0FAFE48447B280ED9204A414685
:1057B000384604F037FF049A2B46A918CA1A002A63
:1057C0002CDC029B1B68029381E7009B41461A6810
:1057D000384604F027FF174A41463846013404F0A2
:1057E00021FF97E7BCF1FE0F94D1079A013A5A4581
:1057F00090D1D3F8009059F80C2B22B9049B336058
:10580000039B1A60D7E74146384604F00BFF094A6C
:105810004146384604F006FF0134ECE71A7812B925
:105820004FF020021A700133C8E74C4651E700BF21
:10583000BAC50000B0C800002DE9F04786B0DDE928
:105840000EA800241C60064689468AF800401168AC
:10585000154888F8004017461D468DF81740FCF79C
:10586000F1FA18B92B6801332B600124D6F89C603B
:10587000002036B914B1012388F8003006B0BDE825
:10588000F087B06868B14B46CDE902A8CDE9007554
:105890000DF11702002105F0D1F89DF81730002B0B
:1058A000E8D13668E5E700BFBFC500002DE9F04745
:1058B000ADF5447D002604467C22314605A80DF155
:1058C0000808049605F04BFDCDF8008003AB80225C
:1058D00004A92046FFF7D6FE012846D104A805F00A
:1058E0005CFE039BD8F800201A44C11A22440546E6
:1058F000013B04A80344571810463E1A002E20DC32
:1059000021EAE17100235354D4F89060039BD8F846
:105910000010D4F890201944B14217DCD4F8941048
:10592000E81A0244C4F89020014404AAC4F8941070
:10593000D41825182B1B002B12DC0DF5447DBDE877
:10594000F08713F8016F00F8016BD6E7A05C05F053
:105950002AFAD4F890300133C4F890300136D5E7F4
:1059600014F8010B05F01FFAE4E7E6DD24AD802210
:105970003146284605F0F3FC44AB4FF4007218465C
:10598000314605F0ECFC0DF1100A034652464FF08B
:10599000010912F8017B002F3AD143F8296004A8CD
:1059A00005F0FBFD29463B461AF8016B44AF57F85A
:1059B000042B824235D10133994501F8016BF3DAAA
:1059C000D4F89060039BB34234DC284A284823462D
:1059D00004A905F0F4F9284605F0DFFD039AD8F88C
:1059E0000030134423441544801A6E1E1A461F18B3
:1059F000B91A00292ADC20EAE072002199542C18F7
:105A0000631B002B99DD15F8010B05F0CCF9F7E7C6
:105A1000202F06F1010604BF43F8296009F10109AE
:105A2000B7E70DF1100C6244D25CB242BFD0002245
:105A3000EA54C5E7D4F89030E05C05F0B4F9D4F846
:105A400090300133C4F890300136BBE716F8011FDF
:105A500002F8011BD4F890100131C4F89010D4F86A
:105A600094100131C4F89410C2E700BFE7C30000EE
:105A7000C4C500002DE9F843D0E9245604460F467A
:105A8000002294F89830012B06D10A2F06D100206D
:105A900084F89800BDE8F88300F2A0801B2F03D1A2
:105AA000022384F898303BE0A7F10D0253425341A2
:105AB000082F84F8983035D1002D30DDB5420FD154
:105AC000384605F070F9202005F06DF9013D3846A3
:105AD00005F069F900236355013EC4E924561FE02F
