:1000000000100020CD1E00004F8E00004F8E00001B
:100010004F8E00004F8E00004F8E00004F8E00006C
:100020004F8E00004F8E00004F8E00004F8E00005C
:100030004F8E00004F8E00004F8E00004F8E00004C
:100040004F8E00004F8E0000C12400004F8E000034
:100050004F8E00004F8E00009D1E0000478E000056
:100060004F8E00004F8E00004F8E00004F8E00001C
:100070004F8E00004F8E00004F8E00004F8E00000C
:100080004F8E00004F8E00004F8E00004F8E0000FC
:100090004F8E00004F8E00004F8E00004F8E0000EC
:1000A0004F8E00004F8E00004F8E00004F8E0000DC
:1000B0004F8E00004F8E00004F8E00004F8E0000CC
:1000C0004F8E00004F8E00004F8E00004F8E0000BC
:1000D0004F8E00004F8E00004F8E00004F8E0000AC
:1000E0004F8E00004F8E00004F8E00004F8E00009C
:1000F0004F8E00004F8E00004F8E00004F8E00008C
:100100004F8E00004F8E00004F8E00004F8E00007B
:100110004F8E00004F8E00004F8E00004F8E00006B
:100120004F8E00004F8E00004F8E00004F8E00005B
:10013000013800D0FCE7704700000000000000001C
:1001400001F0FF01102A2BDB10F0070F08D010F888
:10015000013B013A8B422DD010F0070F42B3F6D18C
:10016000F0B441EA012141EA014122F007047FF0A5
:1001700000070023F0E80256083C85EA010586EAFC
:10018000010685FA47F5A3FA87F586FA47F6A5FA38
:1001900087F68EB9EED1F0BC01F0FF0102F0070244
:1001A00032B110F8013B013A83EA010313B1F8D1EF
:1001B0000020704701387047002D06BF35460338D0
:1001C000073815F0010F07D1013015F4807F02BF09
:1001D000013015F4C03F0130F0BC0138704700BF5A
:1001E0002DE9F04F2DED048B9DB01F460023189391
:1001F000A14B13921B68059304461846884609F0E4
:10020000B9FC4FF0000A05464FF0000BCDF85C80BA
:10021000179B1A782B2A4CD039D80D2A32D8082AA5
:1002200032D8002A3CD000230A93179E3378302B13
:1002300040F0AE80737803F0DF03582B66D10A9B41
:10024000019318AB029700938C4A19AB17A920466B
:1002500007F0AEF910F00707054605D0062F2AD1A2
:100260000136002317960A93139B002B40F08485D8
:100270000A9BDBB150460BF100411DB0BDEC048B75
:10028000BDE8F08F202ACED101331793C0E72D2A85
:10029000C9D101220A925A1C17925B78002BC4D153
:1002A000139BCDF85C80002B40F064855046594686
:1002B000E3E70022EEE7189A3AB135211AA809F0CF
:1002C00054FF1899204607F045FC013F042F06D83B
:1002D000DFE807F00A0314170A00DDE91AAB280764
:1002E000C2D54BF0004BBFE7DDE91AA3199A23F4FE
:1002F000801302F2334243EA025BF0E7DFF880B199
:10030000EDE76FF0004B4FF0FF3AE8E7179B5A1C00
:1003100017925B78302BF9D0002BA5D001234FF03A
:1003200000090493179B0893CDF81C904F460A22AE
:1003300017980678A6F13003D9B209292AD9059968
:100340002A4609F01FFC98B3002032463D4605902E
:100350000346652A01D0452A18D11DB9049A0243E3
:100360009ED00025DDF85C8008F10102179298F814
:1003700001202B2A75D02D2A7BD04FF0000CA2F142
:100380003001092940F28280CDF85C8000269DE092
:100390000023C4E7082FD8BF079900F10100DABF96
:1003A00002FB0133079302FB093901371790BFE7BE
:1003B000179B5A1917925A5D002F37D005903D466A
:1003C000A2F13003092B12D90123C2E7179B5A1C53
:1003D00017925A780130302AF8D0A2F13103082B55
:1003E00000F2CF84179B0590002008930546303A11
:1003F00000F1010314D00599194405912B4600EB37
:10040000050E0A21734513D12B18082B05F10105A0
:1004100005441CDC07990A2303FB012307930023EF
:10042000179A511C179152781846C9E73846D2E7F7
:10043000082B04DC079E4E4307960133E2E703F1E5
:10044000010CBCF1100FD8BF01FB09F9F5E7102D25
:10045000DCBF0A2303FB0929E1E7002305930123FD
:100460007CE74FF0000C08F10202179298F8022086
:1004700085E74FF0010CF6E72CB600003CB4000015
:100480000000F07F179A511C17915278302AF9D04A
:10049000A2F1310108293FF679AFA2F1300E179A87
:1004A0000692179A511C17915278A2F13006092E24
:1004B00037D9069E891B082944F61F6602DC76455B
:1004C000A8BF7646BCF1000F00D07642002D4DD17A
:1004D000049901437FF4C8AE002B7FF4E1AE692A92
:1004E00027D024DC492A24D04E2A7FF4D9AE9E4955
:1004F00017A809F0B7FC00283FF4D2AE179B1B7871
:10050000282B2DD199491AAA17A809F0BFFC052854
:1005100026D11B9BDDF868A043F0FF4B4BF4E00BAA
:10052000A2E60A2101FB0E2EAEF1300EB9E76E2ACB
:10053000DBE78F4917A809F095FC00283FF4B0AE1F
:10054000179B8C49013B17A8179309F08BFC10B936
:10055000179B01331793DFF82CB24FF0000A83E6A4
:10056000854808F0A1F982468B467DE6059B0798F1
:10057000F31A002F08BF2F46102D0693A846A8BFD8
:100580004FF0100805F0C4F9092D82468B4613DDA3
:100590007A4B03EBC80353E9122305F033FA824682
:1005A00048468B4605F0B4F902460B46504659467C
:1005B00005F072F882468B460F2D36DC069B002B29
:1005C0003FF452AE22DD162B09DC6C4901EBC3016E
:1005D000D1E9000152465B4605F014FAC3E7069ADA
:1005E000C5F12503934220DB644CC5F10F0504EBF4
:1005F000C50152465B46D1E9000105F003FA069BAE
:100600005D1B04EBC504D4E90023E5E7069B163324
:100610000BDB059B9E1B594B03EBC606D6E900235B
:100620005046594605F018FB9DE7069AA5EB0803CE
:1006300003EB0208B8F1000F74DD18F00F030AD0C5
:100640004E4901EBC30152465B46D1E9000105F07A
:10065000D9F982468B4638F00F084FD0B8F59A7F0B
:1006600022DD0025A946079505952223DFF814B160
:1006700023604FF0000A079B002B3FF4F5AD18995B
:10068000204607F067FA0599204607F063FA4946C5
:10069000204607F05FFA0799204607F05BFA2946E3
:1006A000204607F057FADFE5354B049300234FEA65
:1006B0002818504659469946B8F1010F21DC0BB174
:1006C00082468B462E4BABF1547B03EBC909524655
:1006D0005B46D9E9000105F095F92A4B0A460B4023
:1006E00029498B428246BCD8A1F580118B4286BF36
:1006F000DFF898B04FF0FF3A02F1547B00230493E7
:1007000083E018F0010F05D0049BD3E9002305F026
:1007100079F90123049A083209F101094FEA6808BE
:100720000492C9E7EAD0C8F1000818F00F020AD015
:10073000124B03EBC20350465946D3E9002305F0A0
:100740008BFA82468B465FEA2818D7D0B8F11F0F84
:100750001EDD0025A9460795059522234FF0000AC6
:100760004FF0000B236086E711B4000050B4000086
:1007700009B4000093B40000ADB10000E8B6000079
:10078000C0B600000000F07F0000A07CFFFFEF7FFC
:1007900018F0100318BF6A23DFF8AC930493504697
:1007A0005946002318F0010F04D0D9E9002305F0C1
:1007B00029F901235FEA680809F10809F2D10BB1B0
:1007C00082468B46049BC3B1CBF30A52C2F16B0342
:1007D000002B594611DD1F2B40F32181342BDEBF46
:1007E000C2F14B024FF0FF3303FA02F24FF0000A5E
:1007F000CCBF4FF05C7B02EA010B00220023504685
:10080000594608F03BFA0028A3D1079B00930899AA
:100810002B463A46204607F005FA079000283FF499
:1008200020AF059B9E1B069B002BB4BF33460023C5
:100830000C93069B002523EAE3731293A946079BBA
:100840002046596807F046F9059000283FF40DAF9F
:10085000079B1A69023203F10C0192000C3009F077
:1008600043F81AAB019319AB009352465B462046FE
:1008700007F0B0FC4BEC18AB189000283FF4F5AE35
:100880000121204607F018FA814600283FF4EDAE1A
:10089000199E1A9A002EABBF0C9B129B129FDDF87B
:1008A0003080ACBF06EB03089F1B049BF61A16446E
:1008B000A04B013E9E42C2F1360280F2C3809B1BD8
:1008C0001F2BA2EB03024FF0010100F3AF8001FAEE
:1008D00003F30D930023089308EB0206049BB04535
:1008E00017441F444346A8BF3346BB42A8BF3B46FC
:1008F000002BC2BFF61AFF1AA8EB03080C9B002BB3
:1009000017DD49461A46204607F096FA8146002828
:100910003FF4ABAE0146189A204607F0E3F90B907E
:1009200000283FF4A2AE1899204607F013F90B9B5C
:100930001893002E00F38B80069B002B08DD129A83
:100940000599204607F078FA059000283FF48DAE0F
:10095000002F08DD05993A46204607F0C7FA0590B2
:1009600000283FF482AEB8F1000F08DD4946424648
:10097000204607F0BBFA814600283FF476AE059A80
:100980001899204607F022FB054600283FF46DAE7B
:10099000C3680B930023C360494609F09CFB002801
:1009A0005FDA0B9B53EA0A0340F08380CBF3130317
:1009B000002B7ED12BF000431B0D1B05B3F1D66F2E
:1009C00077D96B6913B92B69012B72DD2946012296
:1009D000204607F08BFA4946054609F07CFB0028C3
:1009E00067DD0499544A5B46002900F0838002EADF
:1009F0000B01B1F1D66F7DDCB1F15C7F7FF7ADAE5D
:100A00004E4B50465946002204F0FCFF0B46034370
:100A100008BF222382468B4608BF23602FE64FF093
:100A2000FF3202FA03F303EA0A0AE6E6C6F17F465A
:100A300006F57F0606F57B46E23601FA06F30893D3
:100A40000D9149E70023089301230D9344E718997A
:100A50003246204607F04AFA189000287FF46CAF1F
:100A600003E6D84672D10B9ACBF3130352B3344A40
:100A700093422AD1049B5146FBB12F4B0BEA03034F
:100A8000B3F1D46F4FF0FF321AD81B0DC3F16B03D3
:100A900002FA03F3994218D12A4B984502D1013149
:100AA0003FF4E3AD244B08EA030303F5801B4FF04A
:100AB000000A049B002BA3D1E1E54FF0FF33E9E7E7
:100AC0001346E7E753EA0A038BD0089BE3B113EA26
:100AD000080FEED00B9B049A50465946C3B109F05B
:100AE00065F802460B4651EC180B04F0D5FD824622
:100AF0008B46DEE71340A3F580136FEA135B6FEAC2
:100B00000B5B4FF0FF3AD4E70D9B13EA0A0FE0E7C7
:100B100009F04CF802460B4651EC180B04F0BAFDF4
:100B20000022002382468B4608F0A8F80028C0D097
:100B300013E600BF02FCFFFF0000F07F0000503909
:100B4000FFFF0F00FFFFEF7F68B400004946284613
:100B500009F0DDFA00224FF0804306460F4608F008
:100B6000A1F8002879D00B9B002B4BD0924B002290
:100B7000CDE90823904F0026904B08EA03030D931C
:100B80000D9A8F4B9A4240F0B0809DED087BA8F102
:100B9000547B50465946B0EE479AF0EE679A07F0FC
:100BA0009FFA02460B4651EC190B04F02BFF5246FC
:100BB0005B4604F071FD0B468049824A1940914220
:100BC00082465ED918EE903A02F15472934204D1F3
:100BD00018EE103A01333FF448ADDFF8F4B14FF0AE
:100BE000FF3A1899204606F0B5FF0599204606F011
:100BF000B1FF4946204606F0ADFF2946204606F0E3
:100C0000A9FF1CE6BAF1000F1AD1CBF31303F3B915
:100C1000694B00223046394608F03AF8D0B93046E0
:100C20003946694B002204F0EDFE06460F4607F1F7
:100C3000004314961593DDE91423CDE908239BE7BF
:100C4000BAF1010F03D1BBF1000F3FF486AD5F4B4A
:100C500000228DE75C4F0026E9E75B4B30463946C2
:100C6000002204F0CFFE0B9B06460F4633B901F17C
:100C700000430E900F93DDE90E23DEE7CDE90E670A
:100C8000F9E703F1547B049B002BAAD12BF000431E
:100C90000D9A1B0D1B059A42A3D13046394608F028
:100CA0007DF804F081FE02460B463046394604F0DA
:100CB000F1FC0B9ACBF3130343EA0A0313430646F2
:100CC0000F4651D034A3D3E9002307F0E1FF0028F9
:100CD0007FF4D5AC32A3D3E900233046394607F080
:100CE000F5FF00283FF47DAFC9E4049B33B30D9BAF
:100CF000B3F1D46F22D82CA3D3E900233046394670
:100D000007F0D0FFA0B13946304608F027F8012897
:100D100038BF012004F0FCFD0B9B06460F4603BBC9
:100D200001F1004310901193DDE91023CDE9082370
:100D3000099B0D9A03F1D6639B1A099351EC180B8A
:100D4000DDE908AB07F0CCF902460B4650465946A0
:100D500004F058FE53EC182B04F09EFC82468B46A0
:100D600091E7CDE91067DFE711A3D3E9002307F08E
:100D70008FFFB6E700230A93139A179B1360FFF7C0
:100D800077BA652A3FF469AB452A3FF466AB012385
:100D9000FFF79EBBAFF300809535A094FFFFDF3FC8
:100DA00035E5AF350000E03F0000C0FFFFFFDF4149
:100DB0009535A094FFFFCF3F0000F03F0000F07F8B
:100DC0000000E07FFFFF9F7C0000E03F0000F0BFDD
:100DD000FFFFEF7F000000002DE9F04F2DED048BA9
:100DE000456A93B00446DDF88C8016461F4692464D
:100DF0009B4675B9102006F065FE0246606220B978
:100E0000A94BEA21A94807F037FEC0E90155056062
:100E1000C560636A196851B15A684A6001239340FA
:100E20008B60204606F096FE636A00221A603B1E25
:100E3000AABF002323F0004BC8F800309C4BBCBF76
:100E40000122C8F8002033EA0B031BD1229A42F298
:100E50000F731360CBF31303334300F09685249B89
:100E600063B9944B22E0944B04930833249A1360A3
:100E7000049813B0BDEC048BBDE8F08F8D4B049348
:100E80000333F3E7002200235046594607F0F6FEED
:100E90004BEC19AB804658B1229A01231360249B76
:100EA000002B00F06F8585481860431E0493DFE730
:100EB00010AB019311AB009352465B46204607F0FE
:100EC00089F9CBF30A5508EE100A002D00F0848052
:100ED00019EE903AC3F3130343F07F57564647F495
:100EE0004017A5F2FF35CDF83880754B002230460B
:100EF000394604F0CFFB66A3D3E9002304F082FD5A
:100F000065A3D3E9002304F0C7FB064628460F4635
:100F100004F00EFD62A3D3E9002304F073FD024642
:100F20000B463046394604F0B7FB06460F4607F03D
:100F3000EDFE0022039000233046394607F0A8FE5C
:100F400050B1039804F0F4FC32463B4607F096FE9D
:100F500010B9039B013B0393039B162B5AD8039AAA
:100F6000584B03EBC203D3E9002351EC190B07F0F4
:100F70008FFE002850D0039B013B039300230C936A
:100F8000109B5D1B6B1E089345BFC5F101030793C2
:100F9000002300234CBF08930793039B002B3DDBEA
:100FA000089B039A0B921344089300230993209BF8
:100FB000092B00F28B80052BC4BF043B2093209BA0
:100FC000A3F10203CCBF00250125032B00F2898089
:100FD000DFE803F02D3A3859DDE910531D4405F2DE
:100FE0003243202BC1BFC3F1400305F212400BFA7C
:100FF00003F326FA00F0DABFC3F1200306FA03F088
:10100000184304F085FC01230646A1F1F877013D61
:101010000E936AE70123B2E70C90B1E7079B039AAE
:101020009B1A07935342099300230B93BFE70023B6
:101030000A93219B002B57DC0123CDE905331A4687
:1010400021920CE00123F3E70023219A0A93039BEA
:10105000134405930133012B0693B8BF0123606A43
:1010600000224260042202F114069E4241683FD9E8
:10107000204606F02FFD049000283DD1124B024679
:101080004FF4D571BEE60123DFE700BFAFF3008068
:1010900061436F63A787D23FB3C8608B288AC63F7E
:1010A000FB799F501344D33F9DB40000B4B40000BB
:1010B0000000F07F99B4000090B40000A7A60000E3
:1010C0000000F83FE8B6000032B50000012500231B
:1010D00020930A954FF0FF33CDE905330022122308
:1010E000AEE701230A93F5E7219BCDE90533B6E787
:1010F000013141605200B6E7636A049A1A60069BA8
:101100000E2B00F29D80002D00F09A80039B002B97
:1011100032DDB74A03F00F0302EBC303D3E90089C2
:10112000039BD8054FEA231716D5B24B51EC190B88
:10113000D3E9082304F090FD07F00F0782468B46A1
:101140000325AC4E57B942464B465046594604F02B
:1011500083FD82468B4628E00225F2E7F90708D591
:1011600040464946D6E9002304F04CFC0135804650
:1011700089467F100836E5E700F09B80039B9D4F72
:101180005E429B4B06F00F0203EBC203D3E9002340
:1011900051EC190B04F036FC361182468B460023C5
:1011A0000225002E7AD1002BD3D10C9B002B00F00E
:1011B0008280914B00225046594607F069FD002875
:1011C00079D0069B002B76D0059B002B36DD039B48
:1011D000504659465F1E0022884B04F013FC059EC2
:1011E00082468B460135284604F0A2FB52465B46F8
:1011F00004F008FC824B002204F04EFAD046D94697
:101200008246A1F1507B002E58D17E4B00224046F1
:10121000494604F03FFA52465B468046894607F04D
:1012200055FD002840F0958252460BF100434046A0
:10123000494607F02DFD002840F089825BEC19AB90
:10124000119B002BC0F24881039A0E2A00F34481BF
:10125000674B03EBC203D3E90089219B002B80F28B
:10126000D580069B002B00F3D18040F06F82654B48
:1012700000224046494604F0C5FB52465B4607F053
:101280001BFD069E3746002840F04582049D312311
:1012900005F8013B039B0133039340E2F20705D5B8
:1012A000D7E9002304F0AEFB01350123761008379F
:1012B00077E7022579E7039F069E94E704994C4B54
:1012C00031440D910A9903EBC60353E90223002927
:1012D00043D04D49002004F0BFFC52465B4604F069
:1012E000D9F9049D82468B464946404607F00EFDDB
:1012F000064604F01DFB02460B464046494604F0F4
:10130000C9F9303605F8016B52465B46804689467E
:1013100007F0BEFC002863D142464B463649002008
:1013200004F0B8F952465B4607F0B2FC002840F0E2
:10133000B5800D9B9D4281D0304B002250465946CE
:1013400004F060FB2D4B82468B4640464946002206
:1013500004F058FB80468946C6E75046594604F0DB
:1013600051FB0D9B049D0F9382468B464946404698
:1013700007F0CCFC064604F0DBFA303602460B469A
:101380004046494604F086F905F8016B0D9B9D42E5
:10139000804689464FF0000224D11B4B50465946E7
:1013A00004F07AF902460B464046494607F08EFCA7
:1013B000002873D152465B461349002004F06AF9B5
:1013C00002460B464046494607F062FC00283FF4BF
:1013D00035AF0F9D6B1E0F9315F8013C302BF8D0E5
:1013E000039749E0054B04F00DFB80468946BDE7B5
:1013F000E8B60000C0B600000000F03F0000244046
:1014000000001C40000014400000E03F049D5646D0
:101410005F4642464B463046394604F01DFC07F015
:1014200075FC824604F084FA42464B4604F0EAFA20
:1014300002460B46304639460AF1300604F02AF9D6
:1014400005F8016B049E069FAE1BB74202460B4691
:1014500035D104F021F942464B4606460F4607F0C7
:1014600035FCD0B942464B463046394607F006FCBB
:1014700010B11AF0010F10D1204618EE101A06F024
:1014800069FB002303982B70229B01301860249B7A
:10149000002B3FF4EDAC1D60EAE4039F2B461D4694
:1014A00013F8012D392A06D1049A9A42F7D10499EA
:1014B000302201370A701A7801321A7090E7A64B71
:1014C000002204F09FFA0022002306460F4607F090
:1014D000D5FB00289DD0CFE70A9A002A00F0D780DC
:1014E000209A012A00F3BA800E9A002A00F0B280F6
:1014F00003F23343099E079D079A1A440792089AFC
:1015000001211A442046089206F0D6FB0746002D1A
:101510000CDD089B002B09DDAB42079AA8BF2B46C8
:10152000D21A0792089AED1AD31A0893099B1BB393
:101530000A9B002B00F0AF80002E13DD39463246A7
:10154000204606F079FC18EE102A01460746204690
:1015500006F0C8FB18EE101A8046204606F0FAFA8C
:1015600008EE108A099B9A1B06D018EE101A204626
:1015700006F062FC08EE100A0121204606F09CFBF2
:101580000B9B002B064640F388801A4601462046F6
:1015900006F052FC209B012B064640F381804FF061
:1015A0000008336906EB8303186908F045FDC0F1B4
:1015B0002000089B184410F01F0000F09280C0F13A
:1015C0002003042B40F38A80C0F11C00079B0344D6
:1015D0000793089B034405440893079B002B07DDF2
:1015E00018EE101A1A46204606F080FC08EE100A83
:1015F000089B002B05DD31461A46204606F076FC96
:1016000006460C9B002B6ED018EE100A314608F0EF
:1016100062FD002867DA039B013B18EE101A039362
:101620000A220023204606F0B7FA0A9B08EE100AA9
:10163000002B00F0B181002339460A22204606F033
:10164000ABFA059B002B074600F38E80209B022BF4
:1016500051DC89E0109BC3F136034BE7069B5E1E0D
:10166000099BB342BFBF099B0996F21A0B9BB6BFF9
:101670009B189E1B0B93069BB8BF0026002BB7BF81
:10168000DDE90623DDE906359D1A002334E7099ECE
:10169000079D0A9F3BE7099A67E7209B012B18DC0F
:1016A000BAF1000F15D1CBF3130393B92BF000431C
:1016B0001B0D1B0583B1079B01330793089B013367
:1016C00008934FF001080B9B002B7FF46AAF0120B9
:1016D0006FE74FF00008F6E79846F4E73FF47DAF78
:1016E00018461C3072E7069B002B37DC209B022B30
:1016F00034DD069B0593059B6BB9314605222046D8
:1017000006F04AFA0146064618EE100A08F0E3FC15
:1017100000283FF7BBAD219B049DDB4303934FF0B3
:1017200000083146204606F015FA002F3FF4A4AE1B
:10173000B8F1000F05D0B84503D04146204606F069
:1017400009FA3946204606F005FA95E6002637469E
:10175000E1E70397374699E5000024400A9B002BF8
:1017600000F0CA80069B0593002D05DD39462A4608
:10177000204606F0BBFB0746B8F1000F5BD0796846
:10178000204606F0A7F9054628B9874B024640F2E5
:10179000EA21FFF737BB3A690232920007F10C01E8
:1017A0000C3008F0A1F801222946204606F09EFBE5
:1017B000049B03F10109DDE90423134408930AF0B3
:1017C0000103B84607930746314618EE100A08F0A1
:1017D00010FA4146059000F1300A18EE100A08F0A0
:1017E0007AFC3A4606903146204606F0EFFBC26886
:1017F00009F1FF3B054602BB014618EE100A08F04E
:101800006AFC024629462046099206F0A3F9209B6D
:10181000099A43EA0201079B0B434D460FD1BAF1E7
:10182000390F2AD0069B002B02DD059B03F1310AFC
:101830008BF800A075E73846BAE70122E2E7069B7D
:10184000002B04DB20990B4307990B4322D1002A7C
:10185000EEDD18EE101A0122204606F047FB314655
:1018600008EE100A08F037FC002803DCE0D11AF07B
:10187000010FDDD0BAF1390FD7D139238BF8003001
:101880002B461D46013B15F8012C392A71D0013237
:101890001A7046E7002A07DDBAF1390FEDD00AF1D8
:1018A00001038BF800303CE7089B09F801AC99452F
:1018B00047D018EE101A00230A22204606F06CF9D1
:1018C000B84508EE100A4FF000034FF00A024146F7
:1018D000204606D106F060F98046074609F1010965
:1018E00072E706F059F93946804600230A2220465D
:1018F00006F052F90746F1E7069B0593049D18EEA2
:10190000100A314608F075F900F1300A049B05F819
:1019100001ABEA1A059B934209DD18EE101A002369
:101920000A22204606F038F908EE100AE7E7059B80
:10193000002BC8BF1D46049BD8BF01251D444FF096
:10194000000818EE101A0122204606F0CFFA3146A0
:1019500008EE100A08F0BFFB002891DC02D11AF053
:10196000010F8DD12B461D4613F8012D302AFAD0D8
:10197000D7E6049A9A4284D1039B0133039331231F
:101980001370CEE6094BFFF791BA249B002B7FF42E
:101990006AAA074BFFF78ABA059B002BAEDC209B97
:1019A000022B3FF7A8AEA9E732B50000A6A60000BB
:1019B00090B4000010B5054C237833B9044B13B133
:1019C0000448AFF300800123237010BD24140020CD
:1019D000000000000CB8000008B5034B1BB1034920
:1019E0000348AFF3008008BD000000002814002069
:1019F0000CB80000A3F5803A704700BF174B002BCE
:101A000008BF134B9D46FFF7F5FF00218B460F469D
:101A10001348144A121A07F08FFF0E4B002B00D008
:101A200098470D4B002B00D0984700200021040060
:101A30000D000D48002802D00C48AFF3008004F0E0
:101A4000D9FB2000290007F0E0F904F0BFFB00BF3C
:101A5000000008000000000000000000001000204E
:101A600024140020E81900200000000000000000FD
:101A700008B500F0F7F8BDE80840014805F048B99E
:101A8000B0A40000014805F043B900BF25A500003F
:101A9000014805F03DB900BF41A50000014805F02F
:101AA00037B900BF5DA50000014805F031B900BF9E
:101AB0007FA50000014805F02BB900BF8CA50000F0
:101AC000014805F025B900BF9DA50000014805F0BB
:101AD0001FB900BFACA500001FB5074A10685168C8
:101AE000127A01AB03C301A904481A7005F010F97A
:101AF00005B05DF804FB00BFC2A50000BCA5000056
:101B0000014805F005B900BFCBA50000014805F06C
:101B1000FFB800BFE8A50000D0E9023253F8223038
:101B20001B7813B9034805F0F3B8012B0CBF02482A
:101B30000248F8E70DA6000034A6000064A60000E5
:101B4000D0E9023253F822301B7813B9024805F06D
:101B5000DFB80248FBE700BF69A6000064A60000EA
:101B600007B5064B186800909B880548ADF804300F
:101B7000694605F0CDF803B05DF804FBA2A60000AD
:101B80008CA60000D0E90232024853F8221005F07A
:101B9000BFB800BFA8A6000038B50748074D05F03C
:101BA000B7F81E24284603F047FD013CFAD1BDE8F2
:101BB0003840034805F0ACB8BDA60000A08601007F
:101BC000D7A600001FB5D0E9023253F8223018889A
:101BD00040F6B833984216D803F0AAFE0D4B002207
:101BE00004F03AF804F020F903F0B4FE02460B4684
:101BF0006846094905F06EF96946084805F088F815
:101C000005B05DF804FB064805B05DF804EB05F08F
:101C10007FB800BF00005940E8A60000EDA6000014
:101C200064A6000010B5D0E9023253F822400949F9
:101C3000204607F095FF20B90748BDE8104005F0A1
:101C400067B80649204607F08BFF08B10448F4E75F
:101C500010BD00BF18A700001CA7000030A700009F
:101C600044A7000008B5064B0649186807F032FB88
:101C700028B9BDE808400448582107F0EFB808BD6E
:101C800028120020001000204DA7000030B585B0BC
:101C9000094C0A4B22680A4D1A600A4B2B600A4B0A
:101CA000019303F079F92B68029001A9206803934E
:101CB00007F07CF905B030BD28120020A8190020DB
:101CC000A41900201C120020F6AB000038B5084D06
:101CD00003F062F92B680446D3F8B00203F050F920
:101CE000286807F077F92046BDE8384003F048B986
:101CF0002812002038B501F08FFC1248124C012147
:101D000000F0F0FC01221146002001F0F1FB022559
:101D100001221146C4F88050002001F0E9FB0122A5
:101D20001146C4F88450002001F0E2FB0122C4F8FF
:101D30008C501146002001F0DBFBC4F888500020D5
:101D400038BD00BF30053E0000400E4008B54FF0E2
:101D5000804301225A6403F564231B49D3F8B02061
:101D600042F00102C3F8B020D3F8E02042F00802AC
:101D7000C3F8E0204A6B42F480524A63D3F8E02073
:101D800022F00802C3F8E020D3F8B02022F00102CC
:101D9000C3F8B0200D4AD2F8A43143F4F843C2F896
:101DA000A43103F0CFF800F08BF803F073F803F0E0
:101DB00087F803F0B3F8FFF79DFF07F08DFCBDE84F
:101DC000084000F071B800BF0040054000300E40F0
:101DD00030B597B0224D0FCD0FAC0FC495E807007A
:101DE000204B84E80700204ACDE9032303F1C063B8
:101DF00003F204530593A3F10133A3F102130693F5
:101E00006FF4A06103F17F430B4407931022042376
:101E100000210BA8089307F08FFD144B4FF44020CE
:101E2000CDE9090306238DF82C3007238DF82D30DA
:101E30000F4B0C9320230D9301238DF839300D4B5C
:101E400000930D4803AB0FAA09A903F041FB044618
:101E500018B10A48852107F001F8204617B030BDB7
:101E600038AC000000020400000001401C000140EA
:101E7000C2190020001700204C17002007AC0000FA
:101E800008B5FFF7A5FF28B1BDE808400248972133
:101E900006F0E4BF08BD00BF07AC0000014807F032
:101EA000D2BC00BF4C17002008B50448012100F047
:101EB00019FCBDE8084006F0B2BF00BF00450A00AB
:101EC0000148012100F00EBC00450A0008B500F0F1
:101ED00093F8124B12498B4212D3124B1249002035
:101EE0008B4218D3FFF78AFD186850F822405868D3
:101EF00040F82240013298688242F5D30C33EAE779
:101F00000022F8E71C6844F8220001325C68A24213
:101F1000F8D30833E4E70022F8E700BF14B8000064
:101F200020B8000020B8000020B80000004870472A
:101F300000A24A04174AD2F8943003F00703023B88
:101F4000042B1FD8DFE803F00620031A0800124B09
:101F50001B680AE0114BFBE79368C3F30443073B9C
:101F6000072B14D80E4A52F823300A4AD2F800013F
:101F7000C0F304200130B3FBF0F07047094B1B683D
:101F80005B08F2E7074BE3E74FF40043EDE700237C
:101F9000EBE700BF00400E40381200203012002056
:101FA00054AC00003412002008B5FFF7C3FF054B06
:101FB000D3F80831C3F308230133B0FBF3F0024B2D
:101FC000186008BD00400E402C120020014B18681C
:101FD000704700BF30120020054B1860054BD3F846
:101FE000943003F00703022B01D1FFF7DDBF7047E8
:101FF0003012002000400E40044B054A9A60D3F88E
:10200000882042F47002C3F88820704700ED00E099
:1020100000000000014B1868704700BF3812002014
:1020200038B504460D4601B118B90448372106F009
:1020300015FF23682B60256038BD00BF74AC00001D
:1020400070B5D0B1C9B10E4E431E013913F8014F1E
:10205000A25D02F00302012A11F8012FB55C05F020
:102060000305204608BF04F12000012D08BF2032DF
:10207000801A01D1002CE9D170BD0120FCE700BF1E
:10208000FDB2000005490A681318054883428CBF59
:102090004FF0FF320B601046704700BF3C1200202B
:1020A000000003202DE9F04F85B09A46544BDDF82F
:1020B0003C901B789DF844B0DDF8508006460F46F2
:1020C0001546002B00F08B800B2A00F28A800E9BB5
:1020D000002B00F08680B9F1000F00F08280129B87
:1020E000B3F5006F7DDC012802D1109B002B78D066
:1020F000444B03EB05131B7B002B74D0424C102286
:102100000021684607F018FC04EB45141022002F4C
:1021100057D13946204607F00FFC43F21003638085
:10212000BBF1000F03D1E37843F00303E370364AB9
:102130000E9BCDF800A002EB451CCCE90193129B4D
:10214000013BC3F30A009DF84C30690103F003031F
:102150009B0643EA001E53582C4818404EEA0003E1
:10216000012E535041D11323CCF80C309CE80F00C2
:102170000CF1100E8EE80F00DCF81C20109BCCF840
:1021800014306FF0030161F39F02012FCCF81C2083
:1021900003D1CCF81890CCF804301A4A290102EB8C
:1021A000051342F801800027159A5A6028469F605F
:1021B0005E732246694601F05BFF384605B0BDE814
:1021C000F08F0021204607F0B7FB4FF44473638083
:1021D000BBF1000FABD1E37843F03003A6E70C4826
:1021E000ECE70C48EAE70C48E8E7B8F1000FD4D177
:1021F0009CF8023068F304138CF80230CDE700BF7E
:10220000E219002064170020241800200F80FFF33B
:10221000028000F0018000F0078000F038B5124B1A
:102220001B780546DBB1E0B106F087FE0F4A0023BC
:102230001146147B54B92B601A0101EB03130125DD
:102240008C501D7306F07FFE204638BD01330C2BE9
:1022500002F11002EDD106F076FE0548F5E70548DB
:10226000F3E70548F1E700BFE219002064170020FA
:10227000048000F0028000F0018000F013B506F049
:102280005CFE0C4A0023147B7CB901330C2B02F159
:102290001002F8D1019001F07BFE074B01981C70F1
:1022A00006F051FE204602B010BD06F04CFE034879
:1022B000F9E700BF64170020E2190020058000F054
:1022C00010B50D4B1B78044693B10B2812D806F0BD
:1022D00034FE0A4B03EB04131A7B2AB100241C734F
:1022E00006F031FE204610BD06F02DFE0448FAE748
:1022F0000448F8E70448F6E7E219002064170020D4
:10230000068000F0028000F0018000F013B5134B4E
:102310001868019000238DF8043006F00EFE104B73
:102320001C7824B106F00FFE0E4802B010BD012249
:102330001A7006F008FE0C4A2346214601330C2B86
:10234000117302F11002F9D104230DEB03008DF893
:10235000073001F04DFE0020E7E700BFC5AC0000EC
:10236000E2190020038000F06417002008B50A4A33
:1023700012785AB10B280BD8084A02EB00131B7BCA
:1023800043B1002101F018FE002008BD0448FCE71D
:102390000448FAE70448F8E7E2190020641700202F
:1023A000028000F0018000F0078000F008B50A4AC2
:1023B00012785AB10B280BD8084A02EB00131B7B8A
:1023C00043B1012101F0F8FD002008BD0448FCE7FD
:1023D0000448FAE70448F8E7E219002064170020EF
:1023E000028000F0018000F0078000F008B50A4A82
:1023F000127852B10B280AD8084A02EB00131B7B53
:102400003BB101F0BBFE002008BD0548FCE70548D4
:10241000FAE70548F8E700BFE2190020641700203A
:10242000028000F0018000F0078000F00D4B1B7867
:1024300093B10B2812D889B10B4B03EB00131B7B14
:1024400073B10A4B1A6E012303FA00F010401ABF51
:1024500000200B70087070470548704705487047AA
:1024600005487047E2190020641700200020004052
:10247000028000F0018000F0078000F010B50B4AE8
:1024800012780C4662B10B280CD859B1084A02EBFD
:1024900000131B7B43B101F091FE2070002010BDA2
:1024A0000448FCE70448FAE70448F8E7E21900208A
:1024B00064170020028000F0018000F0078000F027
:1024C0002DE9F843DFF86480D8F86070D8F86C30F4
:1024D0001F4000D5FEE7144CDFF85490012600257C
:1024E000374217D02368C8F868609BB1A16862685A
:1024F0000131A16028469847637B012B0AD148B976
:1025000009EB45131A7B60F341021A731A7F60F3DB
:1025100041021A7701350C2D4FEA460604F11004EA
:10252000DED1BDE8F88300BF641700200020004022
:10253000241800200C4B984210D90C4B984210D90B
:10254000022201230A490B640A49D1F8003123F021
:10255000407343EA0263C1F800317047002213461A
:10256000F0E70122FBE700BF0048E8010090D0033C
:102570000000C84300400E4038B54FF080430022B1
:102580005B68104BC9B21C461D798D4202D11D6893
:10259000854213D20132072A03F10803F4D10A4815
:1025A00041F2147106F05AFC03224FF080414B684F
:1025B00023F0407343EA02634B6038BD04EBC20270
:1025C0005279F2E7F8AD0000C9AC000010B51F2841
:1025D000044604D903484FF4B67106F03FFC0120CD
:1025E000A04010BD17AD0000044BDB6B5B0604D4AC
:1025F000034AD2F8C830002BFBD1704700300E40A0
:102600000000C64308B5FFF7EFFF024B5868C0F360
:10261000014008BD00300E40044BD3F84421D207DE
:1026200003D4D3F840211042FBD1704700400E4044
:1026300038B5B0F5004F054604D30C484FF463613C
:1026400006F00CFC6C1C14BFB4FA84F42024C4F112
:102650001F042046FFF7BAFF0138A84204D0034800
:1026600040F6376106F0FAFB204638BD69AD000040
:1026700070B54FF0804341F671321E6C1A64054606
:102680000C46FFF779FF134A134B022C08BF134681
:102690009D42124AB6B209D94FF08C43C3F80021CB
:1026A0000F4A954207D84FF0884306E04FF0884321
:1026B000C3F80021F7E7002CF5D14FF480521A60DF
:1026C00041F671339E421EBF4FF0804300221A64D0
:1026D00070BD00BF0024F40080D543020202020056
:1026E00080F0FA0238B5C0F30322013A03460E2AFD
:1026F0003DD8DFE802F043463C36081B1E21253951
:10270000292E3C183300204C0020C3F3043508B1B7
:10271000FFF782FF04F1424404F5801405EBC40482
:10272000A400216038BD194C0020EEE7184C0120B0
:10273000EBE7184C1020E8E7174C4FF48070E4E703
:10274000164C4FF48030E0E7154C81F00101002079
:10275000DBE7144C81F001010020D6E7124C002089
:10276000D3E7124C0020D0E7114C0020CDE7BDE8A4
:102770003840104841F6B04106F070BB0E4C0020C6
:10278000C3E70E4C0020C0E7B0400E40C4400E40EE
:10279000E0400E40E8400E40EC400E40F0400E405D
:1027A00060410E4064410E40F0410E4068410E40D1
:1027B00050410E40C9AC000000400E40C0400E40E9
:1027C00008B5C0F30313013B0B2B00F2AB80DFE82D
:1027D00003F0060C101A2024282C668692A5534B71
:1027E000D3F80001C0F3042008BD504BD3F8140106
:1027F000F8E74E4BD3F80001C0F301600130FFF75A
:10280000E5FE0138F0E7494BD3F80C01C0F308208E
:10281000EAE7464BD3F81801F8E7444BD3F81C011C
:10282000F4E7424BD3F80801F0E7414B98422AD035
:102830000ED8A3F5BA2398422BD003F570339842F3
:1028400015D041F654613B4806F008FB0020CBE769
:10285000394B984205D0394B98420ED0384B9842AC
:10286000EFD1324BD3F82001C0F30230C7E72F4B32
:10287000D3F8200100F00F00C1E72C4BD3F8200162
:10288000C0F30120BBE7294BD3F82001C0F30310AC
:10289000B5E7264BD3F82001C0F30340AFE7294B3F
:1028A00098420CD003F5A11398420ED0264B9842C3
:1028B00012D11E4BD3F8280100F003009FE71B4BF9
:1028C000D3F82801C0F3011099E7184BD3F8280179
:1028D000C0F30130043092E741F67861B3E71B4B57
:1028E000984205D1114BD3F8300100F003007BE78B
:1028F00041F68761A7E7164B984205D0154B9842E1
:1029000006D041F69F619EE7084BD3F85C01ECE7E7
:10291000064BD3F85C01C0F3014065E7034BD3F8E5
:10292000040173E741F6AC618DE700BF00400E4043
:1029300080161800C9AC000000362C0080262E003E
:1029400080002A0090171C0090071A00A0091400AC
:10295000B8003200B900340010B5C0F30313013BD6
:102960000C460B2B00F21882DFE813F00C00340049
:1029700045006000740088009C00BC006101CE012D
:10298000DA0102021F2904D9C44841F6D56106F0D4
:1029900065FA06F0B4FAC248FFF7CCFD00F00AFA77
:1029A000C04BD3F8001121F4F85141EA0424C3F8D4
:1029B0000041FFF7F9FA0446FFF724FE01462046DE
:1029C000FFF756FEFFF7B6FAFFF7B4FDBDE810407B
:1029D00000F006BA1F2904D9B04841F6EB6106F0B1
:1029E0003DFAB04BD3F8141121F4F85141EA042414
:1029F000C3F8144110BD4B1EB3F5004F0DD2B4FA0D
:102A000084F1A84BD3F80041C1F11F0124F04074B8
:102A100044EA0164C3F80041ECE7A3484FF4546171
:102A200006F01CFA002CEAD12021EAE7B1F5007F7C
:102A300004D39A4841F6F86106F010FA994BD3F89E
:102A40000C1121F4FF3121F4807141EA0421C3F813
:102A50000C11CFE7B1F5007F04D3904841F6FF6138
:102A600006F0FCF98F4BD3F8181121F4FF3121F453
:102A7000807141EA0421C3F81811BBE7B1F5007F6A
:102A800004D3864841F6077106F0E8F9854BD3F880
:102A90001C1121F4FF3121F4807141EA0421C3F8B3
:102AA0001C11A7E7B1F5007F04D37C4841F60E71F5
:102AB00006F0D4F906F023FA7A4BD3F8081121F482
:102AC000FF3121F4807141EA0421C3F80811FFF7B6
:102AD0006BFA0446FFF796FD01462046BDE810401C
:102AE000FFF7C6BD714B984274D010D8704B984216
:102AF00046D0704B984257D0A3F57033984226D0F9
:102B000041F68A71BDE81040644806F0A7B96A4BE7
:102B1000984205D0694B984273D0694B9842EFD1E7
:102B2000B4F5004F04D95D4841F67C7106F096F982
:102B30002046FFF77DFD01460420FFF76DFD594A51
:102B4000D2F8203123F4E04343EA013315E0B1F534
:102B5000004F04D951484FF4F95106F07FF920464F
:102B6000FFF766FD01460420FFF756FD4D4AD2F8F7
:102B7000203123F4702343EA0143C2F8203139E7BE
:102B8000022904D941F63171444806F067F94FF43F
:102B90008020FFF741FD434BD3F8301121F00301B2
:102BA0000C43C3F8304125E7B1F5004F04D93B4849
:102BB00041F64E7106F052F92046FFF739FD014605
:102BC0000420FFF729FD374AD2F8203123F00F0304
:102BD0000B43D2E7B1F5004F04D9304841F65D719F
:102BE00006F03CF92046FFF723FD01460420FFF7DD
:102BF00013FD2C4AD2F8203123F0F00343EA0113ED
:102C0000BBE7082904D9254841F66C7106F026F97E
:102C10002046FFF70DFD01460420FFF7FDFC214A89
:102C2000D2F8203123F4407343EA0123A5E7254B72
:102C300098421DD003F5A113984247D0224B9842E9
:102C40005FD1082904D9154841F6937106F006F9B9
:102C50002046FFF7EDFC01464020FFF7DDFC114A5E
:102C6000D2F8283123F003030B43C2F82831C1E620
:102C7000082904D9094841F6A27106F0EFF8204668
:102C8000FFF7D6FC01464020FFF7C6FC054AD2F804
:102C9000283123F0300343EA0113E6E7C9AC000012
:102CA0000148E80100400E4069AD000080161800A0
:102CB000A00914008006160000362C0080262E0085
:102CC00080002A0090171C0090071A00A1F10F0342
:102CD000702B04D9324841F6B17106F0BFF8204696
:102CE000FFF7A6FC01464020FFF796FC2D4AD2F8DC
:102CF0002801043920F4405040EA0130C2F828018C
:102D000078E64FF4FE51FDE6274B984205D10229A3
:102D10007FF63DAF41F6CA7136E741F6DA71F1E66A
:102D2000224B984205D0224B984212D041F6F371C3
:102D3000E8E6032904D91A4841F6E57106F08EF851
:102D4000184BD3F85C1121F003010C43C3F85C412C
:102D500050E6032904D9124841F6ED7106F07EF8D9
:102D6000104BD3F85C1121F4403141EA0444EDE703
:102D7000B1F5007F04D30A4841F6FB7106F06EF806
:102D8000084BD3F8041121F4FF3121F4807141EA9A
:102D90000421C3F804112DE642F20201B2E600BF9D
:102DA000C9AC000000400E40A0091400B800320079
:102DB000B900340008B507480321FFF7CDFD0648E8
:102DC0000321FFF7C9FDBDE8084004480321FFF7D0
:102DD000C3BD00BF404105005041070060410900EC
:102DE00037B5FFF7A7F80446FFF70CFC022817D108
:102DF000194B1A481A491C449C42B4FBF1F188BF94
:102E000001F1FF310191FFF7A7FD01991548FFF787
:102E1000A3FD0199144803B0BDE83040FFF79CBD05
:102E2000124B134D0D48E2189A42B2FBF5F588BFDC
:102E300005F1FF352946FFF78FFD0B482946FFF7BF
:102E40008BFD0C4B0C4907481C449C42B4FBF1F130
:102E500088BF01F1FF31DEE7FF2C31014041050061
:102E6000002D310150410700604109007FF0FA0256
:102E700080F0FA02FFA14A0400A24A0408B500F05B
:102E80000F0001380C2800F28480DFE800F0071200
:102E90001C30263A824452606C707900454BD3F85E
:102EA000943003F00703023B052B7FD8424AD05CE5
:102EB00008BD404BD3F8803003F00703013B032BE0
:102EC00076D83E4AF3E73B4BD3F8843003F0070350
:102ED000013B032B6CD83A4AE9E7364BD3F88830EC
:102EE00003F00703013B032B62D8364ADFE7314B7F
:102EF000D3F88C3003F00703013B032B58D8324A38
:102F0000D5E72C4B1B6F13F0030349D0012B14BFE3
:102F100001200920CCE7274BD3F85C3103F03003C4
:102F2000202B3FD0302B3FD0102B14BF0120072087
:102F3000BEE7204BD3F85C3103F44013B3F5001F18
:102F400030D0B3F5401F2FD0B3F5801FEDE7194BFC
:102F5000D3F8600100F00300431E022B26D800EBDB
:102F600040000130A4E7134BD3F86401F2E7114BA2
:102F7000D3F8F03103F00703052B19D8134A96E76D
:102F80000C4BD3F8683103F00303032B10D0104A25
:102F90008DE7104842F2012105F060FF002087E72D
:102FA000072085E7042083E7082081E705207FE7E5
:102FB00001207DE700400E40BAAD0000C0AD00002A
:102FC000C4AD0000C0AD0000C0AD0000C8AD000041
:102FD000CEAD0000C9AC000038B5314B9842054673
:102FE0000BD01ED82F4B984207D02F4B9D4204D0B8
:102FF0002E4841F6130105F031FF2846FFF73EFF4A
:10300000274B9D42044625D00DD8264B9D4211D01A
:10301000254B9D421AD0254841F6420105F01EFF7E
:103020000DE0234BE2E7224B9D42F4D1214BD3F834
:10303000884002E01F4BD3F8804004F00704042CC2
:1030400027D8DFE804F0240B0F171300194BD3F82F
:103050008440F2E7174BD3F88C40EEE7BDE83840E8
:1030600005F0F6BEBDE83840FEF7D4BFBDE83840F5
:1030700005F0F1BEFEF75EFF0E4B0446D3F80001EB
:10308000C0F301600130FFF7A1FAB4FBF0F4204671
:1030900038BD064841F6940105F0E0FE0024F6E74D
:1030A0000400220002001E0003002000C9AC000042
:1030B0000500240000400E4008B5012814BF124846
:1030C0001248FFF7DBFE0138072816D8DFE800F0CA
:1030D0001A1515071515040B0D4B186808BDBDE82A
:1030E0000840FEF773BFFEF725FF0A4BD3F8003107
:1030F000C3F3042303FB0000F0E7074841F20D612E
:1031000005F0ACFE0020E9E7B8003200B900340059
:103110004012002000400E40C9AC000038B500F459
:103120007813B3F5E01F054600F000814CD8B3F5E5
:10313000602F00F0148123D8B3F5C02F00F0A680D3
:103140000DD8B3F5003F00F0AD80B3F5802F00F04F
:103150009280002B00F00B814FF4EF510DE1B3F59D
:10316000202F00F09980B3F5402F00F0A180B3F537
:10317000002FF1D1FEF7DEFEB74BD3F81C317FE014
:10318000B3F5B01F00F0AF800DD8B3F5901F00F07D
:103190009780B3F5A01F00F09D80B3F5801FDBD1B1
:1031A000AE4B186871E0B3F5C01F00F0AA80B3F50C
:1031B000D01FD1D1AA48FFF70FFFA74B0446D3F881
:1031C000280100F0030097E0B3F5481F00F0DA8013
:1031D00029D8B3F5201F00F0BE800FD8B3F5001F2B
:1031E00000F0A280B3F5101F00F0B780B3F5F01F18
:1031F000B2D19C48BDE83840FFF7EEBEB3F5381FAA
:1032000000F08980B3F5401F00F09A80B3F5281FC5
:10321000A2D19448FFF7E0FE8F4B0446D3F820017B
:10322000C0F3023068E0B3F5681F00F0E88013D8FF
:10323000B3F5581F00F0AF80B3F5601F00F0C580F4
:10324000B3F5501F88D10120FFF736FF824BD3F82A
:103250005C31C3F3014315E0B3F5701F00F0EB8060
:10326000B3F5781F7FF478AFFEF764FE0446284676
:1032700005F057FE42E0FEF75DFE774BD3F80C31C8
:10328000C3F308230133B0FBF3F038BDFEF752FE61
:10329000714BD3F81831F3E7FEF74CFE6E4BD3F8C1
:1032A0000431EDE7FEF746FE6B4BD3F80831E7E754
:1032B000FEF740FE684BD3F81431C3F30423E1E773
:1032C0006848FFF789FE644BD3F82031C3F303430A
:1032D000D840DAE76448FFF77FFE5F4BD3F8303120
:1032E00003F00303F4E75F48FFF776FE5A4B04460A
:1032F000D3F8200100F00F00FFF768F9B4FBF0F0FD
:10330000C3E75848FFF768FE534B0446D3F8200143
:10331000C0F30310F0E75348FFF75EFE4E4BD3F8BF
:103320002031C3F30123D3E74D4863E74C48FFF74F
:1033300053FE494B0446D3F82801C0F30110DBE7E4
:103340004748FFF749FE444B0446D3F82801C0F331
:1033500001300430D0E745484CE743484AE7444849
:10336000FFF78CFD07283FF41BAF092803D1BDE808
:103370003840FEF7DFBD41F2D6513E4805F06EFD04
:10338000002082E70020FFF797FE334BD3F85C3133
:1033900003F0030376E73848FFF770FD043806288A
:1033A00010D801A353F820F0493400005134000034
:1033B000C5330000A1310000C5330000C533000053
:1033C0005534000041F23761D7E72C48FFF756FD2E
:1033D0000438062810D801A353F820F0493400001F
:1033E00051340000F9330000A1310000F93300002E
:1033F000F93300005534000041F26961BDE720480F
:10340000FFF73CFD0238092812D8DFE800F0090D6B
:103410001D21111111112305FEF7D8FD400034E7DD
:10342000BDE83840FEF7F6BDBDE8384005F010BDF8
:103430004FF4B651A1E71348FFF720FD052807D048
:103440000A2807D0042823D1BDE83840FEF7BEBDC6
:103450000D4BA6E60D4BA4E600400E4040120020A6
:103460000300200002001E000500240004002200CA
:1034700006000E00C9AC00000A7B36000B7C380049
:103480000C7F3A000D743C003412002044120020DE
:1034900041F28F6171E700BF014B1880704700BF98
:1034A0001814002038B502280C4604D00D4842F606
:1034B000D63105F0D3FC0C4D6B6AC3F30113012B1D
:1034C0000DD064B1074842F6F13105F0C7FC074B57
:1034D000D5F8902033EA0202FAD1012038BD4FF42A
:1034E0008003F5E7C9AC000000400E40FF3F4F3AB3
:1034F0002DE9F047052804460F4691461FD83E4B5C
:103500003E4A13F800A03E4B13F80080F1B93D4B42
:1035100033F810301366012303FA08F8D2F890301C
:1035200013EA080FFAD1B9F1000F61D00125334A2F
:1035300005FA0AF5D2F890302B42FBD158E0BDE8ED
:10354000F047314842F6BB2105F088BC2F4B0228DA
:1035500033F810604ED1536AC3F30113012B49D1E4
:103560002B4BDB6B5B0504D4274842F6CA2105F0E0
:1035700075FC224A536A03F00303032B05D1536AF7
:1035800023F0300343F020035362224D1B4BA84429
:103590001E664FEA8808D8F80030002BFBD0B9F13E
:1035A000000F25D05544AD002B68002BFCD0022C19
:1035B0001ED1EFB1114B5B6A03F00303032B03D061
:1035C00000212046FFF76EFF0F4842F6473105F015
:1035D00045FC012200210220FFF78AFF0A4842F63B
:1035E000BE3105F03BFC054B1E662B68002BFCD062
:1035F000BDE8F0870027C8E7D1AD000000400E40CD
:10360000D7AD0000EAAD0000C9AC0000DEAD00009F
:1036100000300E408004F21038B5FEF7D7FC0021D0
:10362000044600F0B7F91448FEF784FF0122114662
:103630000220FFF75DFF05F062FCFFF7BBFB0CB15A
:10364000FEF7D2FF0D4B02225A67FEF773FCFEF71E
:1036500071FFFEF7A9FC0546FEF7D4FF0146284698
:10366000FFF706F81CB90121204600F093F9BDE8E8
:103670003840FFF7B5BB00BF0148E80100400E40ED
:1036800038B504461120FFF7F9FB042804D11F4880
:1036900042F64A1105F0E2FB012200210220FFF769
:1036A00027FFE37A022B2AD8194AD25C194D6B6A9C
:1036B00023F0030313436B62FEF788FC164B22884A
:1036C000984294BF082000206B6A23F00803184337
:1036D000A388686243EAC223EB622B6BE2881B0D6E
:1036E0001B051343628843EAC2232B63637A227A61
:1036F0001B0143EA0233A27A13436B6338BD0348CC
:1037000042F65E1105F0AAFB0022CFE7C9AC00002B
:10371000B7AD000000400E4040787D0170B5054611
:103720001120FFF7ABFB022804D10F4842F6082115
:1037300005F094FB0D4E0E4BB26B2C7813401C43DE
:103740006B7844EAC324AB7844EA0364EB7844EA38
:103750000324B36BA34205D0002101220846FFF7E2
:10376000C7FEB46370BD00BFC9AC000000400E408E
:1037700080E4FFF8034BD86B80F04000C0F380106A
:10378000704700BF00300E4038B542EA0323B3F55E
:10379000007F05460C463ED019D8B3F5807F36D061
:1037A0000AD883B3012B21D01F4840F6312105F000
:1037B00055FB002213461FE040F201129342F3D161
:1037C0001A4BD3F824321A0EC3F3074314E0B3F5AF
:1037D000407F24D040F20132934210D040F20122C7
:1037E0009342E1D1114BD3F8283202E00F4BD3F8CA
:1037F0002432C3F30722DBB22B60226038BD0B4BAF
:10380000D3F82832DFE7094BD3F81C32F1E7074B36
:10381000D3F81C32D7E7054BD3F82032E9E7034B46
:10382000D3F82032CFE700BF30AE00000081E00FB8
:1038300008B5FFF79FFF20B1024AD2F8C830002B2D
:10384000FBD108BD0000C64310B51A4B0228D3F8BF
:1038500030320C4612D0032813D0012814BFDBB23B
:10386000C3F307231B0323F47042ECB95AB14FF49E
:103870001C61114805F0F2FA002010BDC3F30743A4
:10388000F0E71B0EEEE70D49CA6E22F470421343B7
:10389000CB660120F1E70949D1F8EC2022F470420F
:1038A0001343C1F8EC30F4E7002AF4D040F6CC1111
:1038B000DFE700BF0081E00F30AE000000300E40B7
:1038C00070B50378124A002B4378946914BF04261C
:1038D0000026002B837814BF02250025002B0379D6
:1038E00024F03F0443EA0403C47814BF08210021F4
:1038F000012C08BF43F0010333432B430B43936177
:103900001368417923F4403343EA0143136070BDE7
:1039100000300E40F8B504460F46FFF72BFF78B392
:10392000FFF786FF174B5B68C3F301439C4227D028
:10393000154BD3F80061FEF7FDFA022C05460FD1B6
:10394000124BC6F3042606FB00069E4204D910481B
:1039500040F2577105F082FA02212846FEF788FEF0
:10396000C4F1020210239340064A13610FB1FFF71E
:103970005FFF2CB921462846BDE8F840FEF778BE27
:10398000F8BD00BF00300E4000400E40002D310158
:1039900030AE000013B50246FFF7ECFEC8B152B9D5
:1039A0000D4B0191D3F80041FEF7C4FAC4F3042291
:1039B000019902FB0002094B1B7843B1084B9A4264
:1039C00005D8022002B0BDE81040FFF7A3BF0020D9
:1039D000F8E702B010BD00BF00400E40E319002020
:1039E000002D310110B5174B4AF6E852596B5A6356
:1039F0009A6FD407FCD41B6C13F003031EBF124A4A
:103A00000124C2F8B44A834216D00E4B9A6FD207F3
:103A1000FCD41A6C22F0030202431A649A6F12F06B
:103A20000102FBD10038084C18BF01200129C4F85D
:103A3000B40A08BF5A6303E010B9034BC3F8B40AD1
:103A400010BD00BF00300E400000C6432DE9F04F0E
:103A500089B0A0F5E1630024B3F5966FCDE9024487
:103A6000CDE90444CDE9064406468A46934605D985
:103A700040F6BA31554805F0F1F9A3E0B0F5E16F31
:103A8000534B8CBF0122002249D1D3F81832C3F323
:103A90000721DBB2079104934FF416754FF4966734
:103AA00048E0BBF1000F0ED0D9F85C2022F4FE42B2
:103AB00022F00202B6F5E16F42EA012218BF0220AD
:103AC0000243C9F85C20BAF1000F26D0204600213D
:103AD000FFF7BAFE044610B940F61741CAE70121C4
:103AE0004046FFF7B1FE044610B940F61F41C1E75A
:103AF000384A536EBD4238BF3D4623F4FF73E72D6D
:103B000023F0010328BFE725B6F5E16F18BF43F0A6
:103B1000010343EA4503536654E0012452E0D3F81D
:103B20001832190EC3F30743079104934FF49665B7
:103B30004FF4E167DFF89C90D9F84C400192C4F350
:103B40000174234605A902A8FFF71EFED9F8EC3040
:103B5000019AC3F30128434606A903A8FFF714FE00
:103B6000049BF01B079FF91A4143B1FBF5F299182A
:103B70002CBF012300238F421ED3EBB9069A039F6B
:103B8000D31B4343B3FBF5F3FF182CBF01230023E2
:103B9000BA4211D383B9059B029AA3EB020C00FB36
:103BA0000CF0B0FBF5F555192CBF01200020AB42FD
:103BB00002D300283FF475AF044840F6084105F0F1
:103BC0004DF90024204609B0BDE8F08F30AE00006A
:103BD0000081E00F00300E4008B5334A136FD16CFE
:103BE00011F0010F03F0060344D0002B42D013283C
:103BF00057D9143813288CBF102308232A49013BB6
:103C0000CA6C180322F47F4240EA03231343CB64B7
:103C1000264BCA6C1B88C2F303222833013202EB05
:103C2000820003EB5303B3FBF0F3C86C013B072B9B
:103C300028BF072320F0EE6040EA036343F48013BB
:103C4000CB641B4BB3F90030002B12DB03F12800CF
:103C5000C0F34E030344500800EB4202B3FBF2F200
:103C60000B6D072A28BF072223F0700343EA0212D4
:103C70000A6508BDD16C01F00101194304D109287E
:103C80000FD90A380928B6E7D26CD20702D50BB98A
:103C90002728B0E7074840F65D4105F0DFF800232C
:103CA000ACE70423AAE700BF00300E40BE19002095
:103CB000C019002030AE000010B50C4BD3F880398D
:103CC000044633B9012804D9094840F67B4105F080
:103CD000C5F8084A136F23F0070323431367064B05
:103CE000BDE810401888FFF777BF00BF0000C6434B
:103CF00030AE000000300E40BC19002038B50389FA
:103D0000C82B044604D9514840F65F2105F0A6F8B7
:103D1000A28823899A4204D94C484FF4266105F0C1
:103D20009DF8B4F90C30C82B04DD484840F66121F9
:103D300005F094F86378012B55D1A388C82B04D9DA
:103D400040F66521414805F089F8E28842F2107397
:103D50009A4204D93D4840F6722105F07FF8E38885
:103D60004A2B48D9B3F5FA7F47D340F6C3129342A2
:103D700094BF4FF000524FF040523549B4F90C0057
:103D8000CB6C23F0405323F001030028A8BF43F07D
:103D900001031343CB64D1F8EC30A28843F44073A1
:103DA000C1F8EC302B4B1A80CB6E43F08073CB669E
:103DB000294BD3F8800900B10420FFF77DFF274B82
:103DC00021891980264BB4F90C20A0881A80FFF7AE
:103DD00003FFA37BA3B1012B23D01C4840F6711134
:103DE00005F03CF80FE0022BAFD1A3880A2BACD929
:103DF00040F66A21A6E70022BFE74FF08052BCE7F9
:103E0000134B184A9A65012260881146FFF71EFE7F
:103E1000054648B90D4840F6A92105F01FF8284687
:103E200038BD0B4B104AEDE7094AD36B43F480636E
:103E3000D3636078FFF7D6FDA37AA3F12002534243
:103E40005341054AC2F89437E9E700BF30AE00009D
:103E500000300E40BC1900200000C643BE190020EF
:103E6000C019002077402057372110B738B50428F3
:103E700004460D4618D9052804D147F6FF73EB40D8
:103E8000DB0704D40A4840F22D4104F0E7FF302359
:103E90000C2013FB040000F18C40012100F50820E8
:103EA00001FA05F5056038BD4FF6FF73E7E700BF7F
:103EB0007EAE000038B5042804460D4618D9052802
:103EC00004D147F6FF73EB40DB0704D40A4840F205
:103ED000FE3104F0C3FF30230C2013FB040000F17B
:103EE0008840012100F5082001FA05F5056038BD7C
:103EF0004FF6FF73E7E700BF7EAE0000F8B5042879
:103F000004460D4616461F4629D9052804D147F612
:103F1000FF73EB40DB0704D41A484FF4B07104F090
:103F20009DFF26B129462046E7B1FFF79FFF04EB2E
:103F30004403072D4FEA03134FF00F0115D8A800D3
:103F400006FA00F281401048184404F0FFFFC6B999
:103F5000294620468FB1BDE8F840FFF787BF4FF6EE
:103F6000FF73D6E7FFF7A6FFE1E7A5F108008000A1
:103F700006FA00F281400548E6E7BDE8F840FFF7A1
:103F800099BFF8BDCDAE000004800840088008400D
:103F9000074B0422C3F88020BFF34F8FBFF36F8F0E
:103FA000044B0021D9664FF4CA401962FEF79ABB50
:103FB00000E100E00020004038B50B2805460C4623
:103FC00003DD0848772104F049FF1F2D84F0010428
:103FD00003D90548912104F041FF044B2B449B0079
:103FE0001C6038BD1CAF00006BAF0000A001811049
:103FF00010B5044618B91B48912104F02FFF23780F
:104000001B0613F0704F03D01648922104F026FFD0
:10401000E378072B03D91348A32104F01FFF0121E4
:104020004FF4CA40FEF75EFBB4F8013022785BBA69
:104030009BB243EA02630C4A136000231362D3620B
:1040400053634FF00043D3664FF0FF339366074A44
:104050000421C2F88011E3785B01DBB282F80233FD
:10406000116010BD1CAF00000020004000E100E026
:104070002DE9F041C3B201260B2805460C469046B7
:1040800006FA03F603DD3A48EC2104F0E7FE1CB91A
:104090003748ED2104F0E2FE236823F47C1323F07B
:1040A0000F031BB13248F22104F0D8FEA37A1B049F
:1040B00013F47C0F04D02E4840F2091104F0CEFE18
:1040C000E37A1B0513F07E6F04D0294840F20B11F0
:1040D00004F0C4FE237B5B0513F0FE5F04D024488C
:1040E00040F20D1104F0BAFE224F637BBE66302011
:1040F00000FB05702268C0F88020C0F88830E37AA1
:10410000A27A1B0543EA0243227B43EA425328F08A
:104110000302C0F88430C0F8982004F00EFFFB6E54
:104120003343FB66237A13B17B6B33437B63637A40
:1041300013B1FB6A3343FB620E4B1A68237923B138
:10414000DB431B0263F47F431A4063790BB142EAFD
:104150000322A3790BB122EA0302E3791A43054B48
:104160001A60054A9662DE63BDE8F04104F0EBBEDA
:104170001CAF0000002000400020004410B5C3B276
:1041800001240B2804FA03F404DD094840F29711D6
:1041900004F064FE04F0D1FE064AD36E23EA040361
:1041A000D366054B1C62BDE8104004F0CCBE00BFD6
:1041B0001CAF0000002000400020004410B5C3B236
:1041C00001240B2804FA03F404DD0B4840F2B51176
:1041D00004F044FE04F0B1FE084B1A6A224209D1F1
:1041E0009B6A34EA03030CBF0124002404F0ABFEF5
:1041F000204610BD0024F9E71CAF0000002000405D
:104200002DE9F04180460C461F46164622B9344837
:104210004FF4A17104F022FE3CB9324B98450CBF1B
:1042200031483248FEF77AFF0446402F4BD009D878
:10423000A7B1202F3DD0BDE8F041294840F28911B7
:1042400004F00CBE602FF6D1B6EB940F04D92448CD
:1042500040F2831104F002FE042108E0B6EB141FC3
:1042600004D91F484FF4BA7104F0F8FD10214E43F1
:1042700071081F4D01EB4414B4FBF6F6203EB5EB7C
:10428000C60F4FEAC60404D215484FF4D07104F0AB
:10429000E5FDD8F8003023F06003C8F80030D8F806
:1042A00000302C401F43C8F80070C8F81440BDE827
:1042B000F081B6EBD40F04D9094840F2791104F02B
:1042C000CDFD0821D3E70625B4FBF5F3B34204D2B4
:1042D00003484FF4BF7104F0C1FD2946C7E700BF92
:1042E000B9AF0000000801405041070040410500FF
:1042F000F8FF7F0038B5144B984204460D461CD099
:1043000003F58063984218D003F58063984214D077
:1043100003F58063984210D003F5806398420CD077
:1043200003F54053984208D003F58063984204D0C7
:1043300006484FF4337104F091FDEB435B0003F04A
:104340000A03E360E56038BD00000140B9AF00003A
:1043500038B5264B264D984204461AD0A84218D0AC
:1043600003F50063984214D003F58063984210D09F
:1043700003F5806398420CD003F54053984208D06F
:1043800003F58063984204D01A4840F2424104F099
:1043900065FD40F6AA63E36041F205020023236055
:1043A0006260154AA3606361E364A2642366636785
:1043B000A367E3670D4B9C4209D0AC4207D003F5DD
:1043C00000639C4203D003F580639C4201D100232B
:1043D00023650023AC42A36506D0084A944203D06B
:1043E00002F58062944200D1E36538BD00000140CF
:1043F00000040140B9AF0000F9FF0100000C0140CA
:1044000038B52F4B984204460D461CD003F5806307
:10441000984218D003F58063984214D003F5806366
:10442000984210D003F5806398420CD003F54053B6
:10443000984208D003F58063984204D0214840F2A6
:10444000FD2104F00BFD2046FFF782FFAB7C1BB182
:10445000236843F080432360EB7C1BB12B7D43F04A
:104460008003A3652A8A6B7B1343EA891343636045
:104470002B7BD5E901122046FFF7C2FE6B7D1BB1F5
:10448000236843F480332360AB7D1BB1236843F47E
:1044900000432360EB7D2A7E1B07120502F4E00235
:1044A00003F0E04313432366636F23F03003636735
:1044B000626F6B7E134363672B78E36038BD00BF88
:1044C00000000140B9AF000010B54FF42F72002179
:1044D000044605F031FA00238022C4E92323094A67
:1044E000C4F884200122C4F8943084F8983084F809
:1044F0008820C4F8AC3204F19C00BDE8104004F000
:10450000AEBC00BFADB1000010B5D0F8A0400A4667
:1045100074B904F0ECFE044640B12D2896BF074B59
:10452000074953F82010074805F03FF8204610BD12
:10453000D0F8A4101046A0470024F7E768B00000A8
:1045400009B0000005B8000070B590F8803004464E
:104550000BB1002070BD04F012FD0028F9D1012339
:1045600084F8803094F8883033B184F88800D4F827
:104570008410164805F019F84FF0FF36D4F8B452FD
:104580006A1C1CD0C4F8B462204604F0F5FCE9B201
:10459000204600F097FB0028F0D0204604F0F1FC04
:1045A00094F8880038B1D4F88410084804F0FDFF6E
:1045B000002084F88800002384F88030CAE704F0E3
:1045C000D9FF431C0546DFD10120F4E7A6B1000066
:1045D000F8B50B78302B05460E46174604D14B78BC
:1045E00003F0DF03582B12D02F49721E12F8014F2F
:1045F000002C43D10A222146304602F0B3FD202D83
:1046000003460A463FD1631A5842584119E04A1CF2
:10461000254912F8013FABB9244B2B40032B304600
:104620001FD105F0A7FA6B1C48BF2B1D0238B0EB59
:10463000A30F4FEAA3040BD1B07837288CBF00201A
:104640000120F8BD5B5C13F04403E2D11846F8E7A3
:10465000304605F08FFA02388442D4BF0020012092
:10466000EFE705F087FA002DA0F10200B8BF03358F
:10467000B0EBA50FD4BF01200020E2E7635C13F08C
:104680000403B3D1E2E727B1084302D0013B61F153
:104690000002012000FA05F5013D1D40002A08BF77
:1046A0009D4218BF0020CCE7FDB20000030000804F
:1046B00070B503787B2B16D10C4E054602210022E3
:1046C00015F8014F7D2C05D1435C63B9D04300F050
:1046D000010070BDA35D13F0440302D0013201312B
:1046E000EEE7202CFBD00020F3E700BFFDB2000076
:1046F00070B506460D4605F03DFA0446304604F016
:1047000054FF044EAC4200D370BD304604F04DFF60
:104710000134F7E716A700002DE9F84F04460221FF
:104720005248FFF7E5FF1E212068FFF7E1FF6368AD
:10473000586804F03AFF4E4804F037FF67683B7B47
:10474000FD2B12D8D7F80880DFF82091DFF880A180
:10475000DFF858B1404605F00DFA0C3705464FF02A
:10476000FF3617F8013BFF2B01D1BDE8F88F212B55
:1047700018D8212B34D8DFE803F070767211191B9A
:104780001D1F333333333333333321232527292B71
:104790002D2F33333333333333336C31354C002DDA
:1047A00021DC23E0FE2B5CD0334CF8E7334CF6E7FA
:1047B000334CF4E7334CF2E7334CF0E7334CEEE79D
:1047C000334CECE7334CEAE7334CE8E7334CE6E7AD
:1047D000334CE4E7334CE2E7334CE0E7334CDEE7BD
:1047E000002D254C00DD0136202BBAD00221484691
:1047F000FFF77EFF1E214846FFF77AFF504604F080
:10480000D4FE5946204605F0ABF92949002818BFC7
:104810002146284804F0C9FE3B78202B02D12B20EA
:1048200004F0B7FE244804F0C0FE002D09DD18F89E
:1048300006301F2B05D018F806001F2801D0AE4205
:1048400003DB0B4804F0B1FE8BE704F0A2FE013657
:10485000F1E7002D85DD194CC5E7194C9FE7194C90
:104860009DE7194C9BE7194C99E700BFADB10000DB
:104870000BA6000036B1000020B100008BB1000093
:104880003CB100007DB1000079B1000070B10000C2
:1048900066B100005CB1000071B1000067B10000BA
:1048A0005DB1000052B100004BB1000042B1000008
:1048B00033B10000A6B1000093B1000028B10000A0
:1048C00035B100003BB1000084B100008AB10000A6
:1048D00091B100002DE9F04F91B01A9E0393054667
:1048E0000F46904605F046F9039B04904FF00009EF
:1048F000C3F8009008AAC6F8009007A9284604F05B
:1049000075FE0446002840F0B880089805F032F99A
:10491000039B1860D5F89C300293A346A246029BE5
:104920001BB9204611B0BDE8F08F029B9B68019334
:10493000002B6ED005EB0A0212F8013B202B14D09D
:104940004FF0000A019A0C2303FB0AF31A44009269
:10495000019AD158002956D0079B5B4553DB009B39
:104960001B7A33B10AF1010933E033680133336054
:10497000E2E73368D5F89420D21A039B1A6010AB93
:1049800003EB8B03059353F8200C05F0FBF88146ED
:104990000028E7D1009B186805F0ECF8009B5B68E5
:1049A00093F80CC0BCF1FE0F17D1079A013A5A4593
:1049B00013D01B680193059B53F8200C05F0DAF81F
:1049C00033680133034433603368EA5C1AB10BF196
:1049D000010BCA46B6E70133F5E7D5F894203168F4
:1049E000521A824226DC384605F0C4F8009B814604
:1049F000186805F0BFF848447B280ED9204A414684
:104A0000384604F04FFA049A2B46A918CA1A002A0D
:104A10002CDC029B1B68029381E7009B41461A68CD
:104A2000384604F03FFA174A41463846013404F04C
:104A300039FA97E7BCF1FE0F94D1079A013A5A452B
:104A400090D1D3F8009059F80C2B22B9049B336015
:104A5000039B1A60D7E74146384604F023FA094A17
:104A60004146384604F01EFA0134ECE71A7812B9D0
:104A70004FF020021A700133C8E74C4651E700BFDF
:104A800096B1000016A700002DE9F04786B0DDE9D9
:104A90000EA800241C60064689468AF8004011686A
:104AA000154888F8004017461D468DF81740FDF759
:104AB000C7FA18B92B6801332B600124D6F89C6023
:104AC000002036B914B1012388F8003006B0BDE8E3
:104AD000F087B06868B14B46CDE902A8CDE9007512
:104AE0000DF11702002104F09FFB9DF81730002BF9
:104AF000E8D13668E5E700BF9BB100002DE9F0473B
:104B0000ADF5447D002604467C22314605A80DF112
:104B10000808049604F010FFCDF8008003AB802253
:104B200004A92046FFF7D6FE012846D104A805F0C7
:104B300021F8039BD8F800201A44C11A22440546E4
:104B4000013B04A80344571810463E1A002E20DCEF
:104B500021EAE17100235354D4F89060039BD8F804
:104B60000010D4F890201944B14217DCD4F8941006
:104B7000E81A0244C4F89020014404AAC4F894102E
:104B8000D41825182B1B002B12DC0DF5447DBDE835
:104B9000F08713F8016F00F8016BD6E7A05C04F012
:104BA000F8FCD4F890300133C4F890300136D5E7E2
:104BB00014F8010B04F0EDFCE4E7E6DD24AD8022FF
:104BC0003146284604F0B8FE44AB4FF40072184654
:104BD000314604F0B1FE0DF1100A034652464FF083
:104BE000010912F8017B002F3AD143F8296004A88B
:104BF00004F0C0FF29463B461AF8016B44AF57F852
:104C0000042B824235D10133994501F8016BF3DA67
:104C1000D4F89060039BB34234DC284A28482346EA
:104C200004A904F0C2FC284604F0A4FF039AD8F8B3
:104C30000030134423441544801A6E1E1A461F1870
:104C4000B91A00292ADC20EAE072002199542C18B4
:104C5000631B002B99DD15F8010B04F09AFCF7E7B4
:104C6000202F06F1010604BF43F8296009F101096C
:104C7000B7E70DF1100C6244D25CB242BFD0002203
:104C8000EA54C5E7D4F89030E05C04F082FCD4F834
:104C900090300133C4F890300136BBE716F8011F9D
:104CA00002F8011BD4F890100131C4F89010D4F828
:104CB00094100131C4F89410C2E700BFADB10000F8
:104CC000A0B100002DE9F843D0E9245604460F4670
:104CD000002294F89830012B06D10A2F06D100202B
:104CE00084F89800BDE8F88300F2A0801B2F03D160
:104CF000022384F898303BE0A7F10D025342534160
:104D0000082F84F8983035D1002D30DDB5420FD111
:104D1000384604F03EFC202004F03BFC013D3846C0
:104D200004F037FC00236355013EC4E924561FE01C
:104D3000FBDA05F1FF38384604EB080704F029FCDC
:104D4000A6EB08026119384604F0DCFD0023A355E8
:104D50004E48394604F029FC013E3546454501DC04
:104D60004546E2E7082004F014FC013DF6E7DCD1FB
:104D70000020B7E77F2F1CD1002EF9DDB542F7DA0E
:104D80006719691C2144721B384604F0BBFD0023DF
:104D9000A3553F48394604F008FC0820013E04F0C2
:104DA000F8FBB542F9D1D4F89430013BC4F8943003
:104DB000DEE70D2F01D00A2F0AD10D2004F0E9FB08
:104DC0000A2004F0E6FB0023C4E92433012089E72C
:104DD000092F03D12046FFF791FEC9E7D4F88C30A4
:104DE000013BB342C4DDB54204EB050805F10109FE
:104DF0000CDB88F80070D4F89430C4F8909001333C
:104E0000C4F89430384604F0C4FBB1E7721B414645
:104E100004EB090004F076FD404604F0C6FB0820D0
:104E2000013E04F0B6FBB542F9DDE2E7022B06D104
:104E30005B2F01D103235CE784F8982049E7032B1B
:104E400096D1413F84F89820032F91D8DFE807F0EE
:104E500002070A150121204604F043FB88E74FF0C2
:104E6000FF31F8E7B54283DA605D04F092FBD4F8D5
:104E700090300133C4F890307AE7002D7FF778AF97
:104E8000013DC4F890500820BDE700BFA9B1000063
:104E9000AEB100007FB5094B6A4603F11006154616
:104EA00018685968144603C40833B3422246F7D140
:104EB0002846FEF723FF002004B070BDB2B1000009
:104EC0001FB5124A1068516801AB03C3906818609F
:104ED0000F4BD3F8B42012030FD4D3F8B830C3F378
:104EE00008030C48ADF80630FDF776F801A8FEF788
:104EF000C7FB002005B05DF804FB074B1B884FF68D
:104F0000FF72934208BF8423EBE700BFC2B10000E9
:104F10000081E00F80F0FA020001E00F07B5084BB6
:104F200018680190462301A88DF80430FEF7F6FBBF
:104F30006420FEF7B1FA002003B05DF804FB00BF67
:104F4000CEB1000010B50C480C4C6FF00402A0214B
:104F500012F0800FD3B21BBF03F00F03043BA31862
:104F60001B1802F101020CBF83F8001319763C2ACA
:104F7000EED1002010BD00BF00ED00E000E100E038
:104F800010B5044603F0D2FF024B1C6003F0D2FFC1
:104F9000002010BDAC19002010B503F0C7FF034B73
:104FA0001C6803F0C7FF204610BD00BFAC190020ED
:104FB00010B50020144604F09DFB18B10248BF2133
:104FC00003F04CFF204610BDD2B10000034B18681F
:104FD000002380680222194601F0B2BE4812002068
:104FE00038B5037A3022534303F1804303F500536D
:104FF0000446D3F89450D0E9032313449D4201D8CA
:10500000AA4204D905484FF43E7103F027FFD4E9C2
:10501000030303449D4218BF284638BD3FB2000039
:1050200030B587B0144605461046FFF7D9FF6369CF
:1050300083423CBFD4E903315B181B1A0246ABB173
:10504000124903910021CDE9013101230093049419
:10505000D4E90013284603F038FF20B10C484FF480
:10506000347103F0FBFE002007B030BD01226276F0
:1050700094F82D20002AF6D084F835301321E36906
:1050800020469847636A20469847ECE72150000085
:105090003FB200002DE9F04788B004468846174625
:1050A000994603F04AFF8246002F00F0AB80237E32
:1050B00003F0FF02002B00F0DE802046FFF790FF98
:1050C00063699842054606D1637E23B96B4840F276
:1050D0007F3103F0C3FE6669B5429CBFD4E9035239
:1050E000AD18AD1BBD4228BF3D4603F026FF94F826
:1050F0002D300646002B40F0968061692A464046D6
:1051000004F0F2FB63692B4463612F462CE0606975
:10511000037803F0FD01112940F08280216B884261
:1051200005D1A3F111014B424B4184F83430013FCA
:105130006369216B8B4203F1010308BF2363636141
:1051400001329542E3D1D4E90323216B1344994200
:1051500008BF2263216B8A4201D88B4204D847489A
:105160004FF46D7103F07AFED4E9032361691344AF
:10517000994208BF626161698A4201D88B4204D8B2
:105180003E484FF4717103F069FE0023207A637684
:10519000FDF7ECF820B1394840F2113103F05EFE22
:1051A0002046FFF71DFF636983423FD1002323762A
:1051B00094F82D30E568656103B12563636A204684
:1051C00098472F4B039300230293236901930123F4
:1051D000009321686368207A04942A4603F075FEE0
:1051E00020B1264840F22D3103F038FE207AFDF739
:1051F000DDF820B1214840F2513103F02FFE304656
:1052000003F0A1FE5046C9F8007003F09CFED9F8E7
:105210000030002B0CBF1B20002008B0BDE8F08739
:1052200008F8013B84E72F4600228AE70123207A11
:1052300023760DF11E01FDF721F920B10F484FF43F
:10524000507103F00BFE9DF81E30002BCED0207A5B
:105250000DF11F01FDF7EAF820B1084840F2463190
:1052600003F0FCFD9DF81F100029BFD1207A2246D3
:10527000FFF7D6FEBAE71746C4E700BF3FB200000B
:105280002150000070B504460568FFF785FE844292
:1052900002D10020FFF774FE95F93630002B11DBA8
:1052A00003F01F015B099B0003F1604303F56143B9
:1052B00001228A40C3F88021C3F88020BFF34F8FBA
:1052C000BFF36F8F287AFDF791F820B111484FF4A2
:1052D000ED7103F0C3FD287AFCF7F2FF20B10D4811
:1052E0004FF4EF7103F0BAFDFCF7C8FF38B10A4B79
:1052F000984204D007484FF4F17103F0AFFD00234A
:10530000C4E90033C4E90433A3602846AB6ABDE8AE
:10531000704018473FB20000058000F02DE9F843C7
:1053200090F82C80DFF8AC9004460D468E18B542FC
:1053300028D094F82D3083B103F0FFFD237E07467B
:105340001BBB226B63699A4204D040F2F9114846B4
:1053500003F084FD384603F0F6FD94F83430002B5A
:10536000E5D0B8F1000F06D02B780A2B03D1E36902
:105370000D2120469847E36915F8011B2046984700
:105380000028D4D00020BDE8F8832046FFF728FE8F
:10539000E168D4F830C0013888423EBF206900F18E
:1053A000FF30401803469C450BD013F80129112A01
:1053B00001D0132A07D1A2F111035A425A4184F8AD
:1053C00034202063C6E7994282BF236903F1FF338B
:1053D0005B18E8E73FB20000F0B587B00C46064620
:1053E00015460021382220461F4604F0A5FA002366
:1053F00095E803002A692376EB68E360C4E9042397
:105400002A7D84F82C20AA7D2363012384F834307C
:1054100084F835300C9B236284E803000D9B6362A3
:105420000E9B84F82D20E761A3622B7A84F8363036
:10543000204B7360204BB360204B3361204B736172
:10544000204B3460F360FCF761FF30B11E4B984293
:1054500003D01024204607B0F0BD002104F108005D
:10546000FCF7DCFE0028F4D1184B0494CDE90203CC
:1054700001272369019300976368E2682168207A15
:1054800003F023FD04460028E3D195F90830002BF2
:105490000BDB03F01F025B099B0003F1604303F584
:1054A00061439740C3F880711F603046FFF768FD85
:1054B000D0E700BF1D53000095500000AB970000DF
:1054C000B197000085520000038000F021500000D9
:1054D0002DE9F04186B01C46524B0C9D0293524B75
:1054E0000193012600230093CDE903664F4B9046BC
:1054F0000A462946FFF770FF0746002856D1236861
:10550000AB636368EB63637A85F84130237A85F88F
:105510004030E37A85F84330A37A85F84230637BE4
:1055200085F84530237B85F84430E37B85F84730A8
:10553000A37B85F846303E483146FDF7D3F83D4819
:105540003146FDF7CFF8617A207A33460422FEF720
:10555000D5FC33460222E17AA07AFEF7CFFC6068E0
:105560003146FDF7BFF888F8007041462068FEF725
:1055700047FF2268536F43F003035367936FA17C87
:1055800023F4E06323F007030B43617C43EA012328
:1055900003219367516785F8487098F81930202BDC
:1055A0002CD007D803B3102B09D02327384606B0D8
:1055B000BDE8F081302BF8D185F8481002E085F87D
:1055C00048603E4600230222617B207BFEF796FC6A
:1055D0002368E27CDA675A6E42F004025A665A6F18
:1055E00042F010025A6766B9AA6B2068D36C43F088
:1055F0000403D3640521FEF77DFED7E7022385F877
:105600004830E17BA07B00230422FEF777FC23686F
:10561000217DDA6F42EA0122DA675A6F42F02002F6
:105620005A67E1E7C3970000B79700003B98000076
:105630004041050000450A0010B50446FCF7B4FCE3
:105640004FF47A729042B0FBF2F105D23621BDE8F8
:1056500010400B4803F002BC0A4BB3FBF1F30A49BC
:10566000884201D93C21F2E702FB04F0B0FBF3F0E1
:10567000032804D9BDE810408008FAF759BD10BDD1
:10568000A2B2000040420F00E7CD9A3B81F00041FA
:1056900002E000BF83F0004330B54FEA41044FEA17
:1056A000430594EA050F08BF90EA020F1FBF54EAB2
:1056B000000C55EA020C7FEA645C7FEA655C00F04E
:1056C000E2804FEA5454D4EB5555B8BF6D420CDD1F
:1056D0002C4480EA020281EA030382EA000083EAA2
:1056E000010180EA020281EA0303362D88BF30BD42
:1056F00011F0004F4FEA01314FF4801C4CEA113198
:1057000002D0404261EB410113F0004F4FEA0333F6
:105710004CEA133302D0524263EB430394EA050F81
:1057200000F0A780A4F10104D5F1200E0DDB02FAF0
:105730000EFC22FA05F2801841F1000103FA0EF284
:10574000801843FA05F359410EE0A5F120050EF14A
:10575000200E012A03FA0EFC28BF4CF0020C43FA7B
:1057600005F3C01851EBE37101F0004507D54FF088
:10577000000EDCF1000C7EEB00006EEB0101B1F5D8
:10578000801F1BD3B1F5001F0CD349085FEA30001E
:105790004FEA3C0C04F101044FEA445212F5800F29
:1057A00080F09A80BCF1004F08BF5FEA500C50F1C6
:1057B000000041EB045141EA050130BD5FEA4C0CA9
:1057C000404141EB0101013C28BFB1F5801FE9D206
:1057D00091F0000F04BF01460020B1FA81F308BF29
:1057E0002033A3F10B03B3F120020CDA0C3208DDF5
:1057F00002F1140CC2F10C0201FA0CF021FA02F1D0
:105800000CE002F11402D8BFC2F1200C01FA02F13F
:1058100020FA0CFCDCBF41EA0C019040E41AA2BF64
:1058200001EB0451294330BD6FEA04041F3C1CDA2C
:105830000C340EDC04F11404C4F1200220FA04F04C
:1058400001FA02F340EA030021FA04F345EA0301F6
:1058500030BDC4F10C04C4F1200220FA02F001FAB8
:1058600004F340EA0300294630BD21FA04F029463A
:1058700030BD94F0000F83F4801306BF81F48011D3
:105880000134013D4EE77FEA645C18BF7FEA655C46
:1058900029D094EA050F08BF90EA020F05D054EA18
:1058A000000C04BF1946104630BD91EA030F1EBF1D
:1058B0000021002030BD5FEA545C05D14000494121
:1058C00028BF41F0004130BD14F580043CBF01F514
:1058D000801130BD01F0004545F0FE4141F47001FA
:1058E0004FF0000030BD7FEA645C1ABF19461046D5
:1058F0007FEA655C1CBF0B46024650EA013406BFD6
:1059000052EA033591EA030F41F4002130BD00BF94
:1059100090F0000F04BF0021704730B54FF4806451
:1059200004F132044FF000054FF0000150E700BFD2
:1059300090F0000F04BF0021704730B54FF4806431
:1059400004F1320410F0004548BF40424FF000011E
:105950003EE700BF42004FEAE2014FEA31014FEA61
:1059600002701FBF12F07F4393F07F4F81F06051B0
:10597000704732F07F4208BF704793F07F4F04BFFB
:1059800041F40021704730B54FF4607401F00045D8
:1059900021F000411CE700BF50EA010208BF704738
:1059A00030B54FF000050AE050EA010208BF704729
:1059B00030B511F0004502D5404261EB41014FF492
:1059C000806404F132045FEA915C3FF4D8AE4FF09A
:1059D00003025FEADC0C18BF03325FEADC0C18BF7D
:1059E000033202EBDC02C2F1200300FA03FC20FACE
:1059F00002F001FA03FE40EA0E0021FA02F114441B
:105A0000BDE600BF70B54FF0FF0C4CF4E06C1CEA33
:105A100011541DBF1CEA135594EA0C0F95EA0C0FA4
:105A200000F0DEF82C4481EA030621EA4C5123EA17
:105A30004C5350EA013518BF52EA033541F4801146
:105A400043F4801338D0A0FB02CE4FF00005E1FBF9
:105A500002E506F00042E0FB03E54FF00006E1FB43
:105A600003569CF0000F18BF4EF0010EA4F1FF0486
:105A7000B6F5007F64F5407404D25FEA4E0E6D41C6
:105A800046EB060642EAC62141EA55514FEAC520D7
:105A900040EA5E504FEACE2EB4F1FD0C88BFBCF553
:105AA000E06F1ED8BEF1004F08BF5FEA500E50F104
:105AB000000041EB045170BD06F0004646EA0101CA
:105AC00040EA020081EA0301B4EB5C04C2BFD4EBFC
:105AD0000C0541EA045170BD41F480114FF0000EF5
