:1000000000100020D12300006998000069980000CA
:1000100069980000699800006998000069980000DC
:1000200069980000699800006998000069980000CC
:1000300069980000699800006998000069980000BC
:100040006998000069980000C529000069980000BF
:100050006998000069980000A123000061980000E1
:10006000699800006998000069980000699800008C
:10007000699800006998000069980000699800007C
:10008000699800006998000069980000699800006C
:10009000699800006998000069980000699800005C
:1000A000699800006998000069980000699800004C
:1000B000699800006998000069980000699800003C
:1000C000699800006998000069980000699800002C
:1000D000699800006998000069980000699800001C
:1000E000699800006998000069980000699800000C
:1000F00069980000699800006998000069980000FC
:1001000069980000699800006998000069980000EB
:1001100069980000699800006998000069980000DB
:1001200069980000699800006998000069980000CB
:10013000013800D0FCE7704700000000000000001C
:1001400001F0FF01102A2BDB10F0070F08D010F888
:10015000013B013A8B422DD010F0070F42B3F6D18C
:10016000F0B441EA012141EA014122F007047FF0A5
:1001700000070023F0E80256083C85EA010586EAFC
:10018000010685FA47F5A3FA87F586FA47F6A5FA38
:1001900087F68EB9EED1F0BC01F0FF0102F0070244
:1001A00032B110F8013B013A83EA010313B1F8D1EF
:1001B0000020704701387047002D06BF35460338D0
:1001C000073815F0010F07D1013015F4807F02BF09
:1001D000013015F4C03F0130F0BC0138704700BF5A
:1001E0002DE9F04F2DED088B8DB009EE903ADDE949
:1001F00020439DED1E7B0A93229B079209EE100A75
:10020000B0EE478AF0EE678A8A46069351EC170BE8
:1002100053EC172B06F0C6FC80B1D14B51EC180BF8
:100220004FF0FF3206F0E6FC40B951EC180B4FF0EE
:10023000FF326FF4801306F0BFFC98B1069B229347
:100240000A9B079ACDE9204319EE100A19EE903A5D
:1002500051468DED1E8B0DB0BDEC088BBDE8F04F07
:1002600000F0A2B951EC180B0022002306F0A4FC08
:10027000002800F0458118EE903A18EE108A03F13C
:100280000049069BC9F30A5013F48063A0F2FF30C3
:1002900008BF06240B9306F0B3F9A1A3D3E900230A
:1002A00006F018FAA0A3D3E9002306F05DF8C9F31D
:1002B00013050F4645F07F510646AA4B00224046E3
:1002C00041F4401106F04EF899A3D3E9002306F05B
:1002D00001FA02460B463046394606F045F806F06C
:1002E00093FC834606F08CF993A3D3E900230646DA
:1002F0000F4606F0EFF99C4B002206F035F806F0A9
:1003000083FC8FA3D3E9002305463946304606F027
:10031000E1F9064628460F4606F072F98AA3D3E9AA
:10032000002306F0D7F902460B463046394606F060
:1003300019F802460B4606460F4606F0CBF9324640
:1003400041EC1A0B3B463046394606F00DF8874B18
:1003500041EC1B0B002251EC1A0B06F0E5FA844B22
:10036000002206F001F802460B4651EC1A0B06F08B
:10037000DBFA804B002205F0F7FF02460B4651ECFA
:100380001A0B06F0D1FA324641EC1A0B3B4600201C
:100390004FF0804105F0E6FF02460B4651EC1A0B88
:1003A00005F0E2FF02460B4651EC1B0B06F0BCFACF
:1003B00005F2FF35704B002205F0D6FF00222B0519
:1003C00006F088F942464B4606460F4606F012FCF8
:1003D000002840F09880CDE908670BF16303C72B34
:1003E000069B34BF04250525190522D558A3D3E95A
:1003F00000234046494606F0F3FB002800F0BE808B
:1004000055A3D3E900234046494606F0D5FB002812
:1004100000F0B480069B5C45C8BFA4EB0B0043F41E
:1004200080634FF00005CCBF00F1FF340024069339
:10043000AB460A9B9D4238BF5E1B069B28BF002629
:1004400013F0020702D0002D18BF0026BBF1000FE9
:1004500007D040464946DDE9082306F065FA8046A4
:10046000894651EC180B0022002306F0A5FB10B1C1
:1004700009F100439946069B079A029423F400630E
:10048000CDE90363CDE9008919EE903A19EE100A1F
:10049000514600F089F875B3069B13F0200F00F168
:1004A0000106024619EE903A14BF452065205146D8
:1004B00019EE104AA0470523002205938BEAEB7042
:1004C0000A23CDE90232A0EBEB704FEADB73013D6A
:1004D0000193009019EE903A19EE100A04953246F5
:1004E000514609F0DBFF37B1079BC51A079B581926
:1004F0000A9BAB424BD80DB0BDEC088BBDE8F08F2A
:1005000059EC188BBDE61A4B00223046394606F0EE
:100510000BFA0BF1FF3BCDE908015EE7AFF300807A
:10052000FB799F501344D33FB3C8608B288AC63FE2
:1005300061436F63A787D23F71A379094F930A4044
:100540001655B5BBB16B0240EF39FAFE422EE63FBD
:100550002D431CEBE2361A3F0000000080842E4140
:10056000FFFFEF7F0000F83F0000E03F00002C405D
:1005700000002440000018400000F03F002C3FF431
:1005800058AF0B9B002B3FF454AF013C51E70246A0
:1005900019EE903A19EE104A51462020A047013535
:1005A000A4E700BF000000002DE9F04F2DED088BFF
:1005B0008FB0DDE920AB09EE103ADDE9225308EEF9
:1005C000100A08EE902A0F46049352465B465046A6
:1005D0005946249E06F0E6FAA0B9049B2293032311
:1005E0002193B94B2396209318EE902A19EE103AD6
:1005F00018EE100A39460FB0BDEC088BBDE8F04F7D
:1006000009F084BE4FF0FF326FF480135046594614
:1006100006F0D2FA30B1049B22930423219323964F
:10062000AA4BE0E7AA4B4FF0FF325046594606F07E
:10063000E1FA70B1A74A0499239606F00403002B4F
:1006400008BF0322A44B1CBF13460422CDE921217D
:10065000C9E799A3D3E900235046594606F0CAFAE0
:1006600038B997A3D3E900235046594606F0A4FAB7
:1006700098B1049B2496CDE9225318EE902A19EEE6
:10068000103A18EE100A3946CDE920AB0FB0BDEC98
:10069000088BBDE8F04FFFF7A3BD002200235046B2
:1006A000594606F089FA002800F081805B465246E0
:1006B0000020002105F056FE012382468B4605935B
:1006C00016F4806F08BF062506ABA5F12002A946E7
:1006D0003021B9F1090FA5EB090406D909F1FF3959
:1006E0004A4503F8011BF4D120245946504606F030
:1006F0008BFA7A4B03EBC90393ED007B0546B0EE12
:1007000047AAF0EE67AA05F07BFF02460B4650466B
:10071000594605F027FE53EC1A2B05F0DBFF024685
:100720000B4643EC1B2B06F097FA804605F058FF6A
:1007300002460B4651EC1B0B05F014FE02460B461D
:1007400043EC1B2B664B002206F054FA88B308F1E9
:100750000108404605F044FF02460B4651EC1A0BD7
:1007600006F034FA10B101354FF00008B9F1000F6E
:1007700050D1284605F044FF02460B4650465946E4
:1007800005F0F0FD564B00228046894606F014FA2B
:1007900030B1534B00224046494606F02BFA10B1C7
:1007A000E80700D5013506AB23440A2259E005903D
:1007B00086E74B4B51EC1B0B002206F0FDF900289D
:1007C000D4D1B8F1000F02D018F0010FCED008F14B
:1007D0000108CBE7B8FBF1F001FB10823032B8F131
:1007E000090F03F8012B09F1FF3904F1010428D89E
:1007F000A14406AA3021202C11D04C4504F101035C
:1008000021D104F138020DEB02042E2204F8202C31
:100810001C46C8E706AB23440A21202CDAD106F097
:100820000303012B06AB39D1049A002A36D0059A6E
:1008300012B916F00C0F02D0049A013A0492302239
:1008400014E08046E9E7A1541C46D4E795FBF2F199
:1008500002FB1155303503F8015B01340D460029C8
:10086000DDD0202CF2D1DAE71A5501340499A142E7
:1008700014D9202CF8D1049A0093CDE9014219EE45
:10088000103A18EE902A18EE100A0396394609F02D
:100890003DFD0FB0BDEC088BBDE8F08F202CEAD0F9
:1008A000059AFAB104F138026A442D2102F8201C9D
:1008B0000134E0E7AFF300800000000065CDCD41DA
:1008C0000000000065CDCDC1ADB70000B1B700009C
:1008D000FFFFEF7FA8B70000A4B70000B8B7000083
:1008E0000000E03F710704D504F138026A442B216F
:1008F000DCE73207BFD504F138026A442021D5E78E
:100900002DE9F04F2DED048B9DB01F460023189369
:10091000A14B13921B68059304461846884609F0BC
:10092000B3FF4FF0000A05464FF0000BCDF85C8096
:10093000179B1A782B2A4CD039D80D2A32D8082A7E
:1009400032D8002A3CD000230A93179E3378302BEC
:1009500040F0AE80737803F0DF03582B66D10A9B1A
:10096000019318AB029700938C4A19AB17A9204644
:1009700007F006FD10F00707054605D0062F2AD11F
:100980000136002317960A93139B002B40F08485B1
:100990000A9BDBB150460BF100411DB0BDEC048B4E
:1009A000BDE8F08F202ACED101331793C0E72D2A5E
:1009B000C9D101220A925A1C17925B78002BC4D12C
:1009C000139BCDF85C80002B40F06485504659465F
:1009D000E3E70022EEE7189A3AB135211AA80AF0A7
:1009E0004EFA1899204607F09DFF013F042F06D8C4
:1009F000DFE807F00A0314170A00DDE91AAB28073D
:100A0000C2D54BF0004BBFE7DDE91AA3199A23F4D6
:100A1000801302F2334243EA025BF0E7DFF880B171
:100A2000EDE76FF0004B4FF0FF3AE8E7179B5A1CD9
:100A300017925B78302BF9D0002BA5D001234FF013
:100A400000090493179B0893CDF81C904F460A2287
:100A500017980678A6F13003D9B209292AD9059941
:100A60002A4609F019FF98B3002032463D4605900A
:100A70000346652A01D0452A18D11DB9049A0243BC
:100A80009ED00025DDF85C8008F10102179298F8ED
:100A900001202B2A75D02D2A7BD04FF0000CA2F11B
:100AA0003001092940F28280CDF85C8000269DE06B
:100AB0000023C4E7082FD8BF079900F10100DABF6F
:100AC00002FB0133079302FB093901371790BFE797
:100AD000179B5A1917925A5D002F37D005903D4643
:100AE000A2F13003092B12D90123C2E7179B5A1C2C
:100AF00017925A780130302AF8D0A2F13103082B2E
:100B000000F2CF84179B0590002008930546303AE9
:100B100000F1010314D00599194405912B4600EB0F
:100B2000050E0A21734513D12B18082B05F1010579
:100B300005441CDC07990A2303FB012307930023C8
:100B4000179A511C179152781846C9E73846D2E7D0
:100B5000082B04DC079E4E4307960133E2E703F1BE
:100B6000010CBCF1100FD8BF01FB09F9F5E7102DFE
:100B7000DCBF0A2303FB0929E1E7002305930123D6
:100B80007CE74FF0000C08F10202179298F802205F
:100B900085E74FF0010CF6E774C2000084C0000046
:100BA0000000F07F179A511C17915278302AF9D023
:100BB000A2F1310108293FF679AFA2F1300E179A60
:100BC0000692179A511C17915278A2F13006092EFD
:100BD00037D9069E891B082944F61F6602DC764534
:100BE000A8BF7646BCF1000F00D07642002D4DD153
:100BF000049901437FF4C8AE002B7FF4E1AE692A6B
:100C000027D024DC492A24D04E2A7FF4D9AE9E492D
:100C100017A809F0B1FF00283FF4D2AE179B1B784C
:100C2000282B2DD199491AAA17A809F0B9FF052830
:100C300026D11B9BDDF868A043F0FF4B4BF4E00B83
:100C4000A2E60A2101FB0E2EAEF1300EB9E76E2AA4
:100C5000DBE78F4917A809F08FFF00283FF4B0AEFB
:100C6000179B8C49013B17A8179309F085FF10B912
:100C7000179B01331793DFF82CB24FF0000A83E67D
:100C8000854808F0C9FA82468B467DE6059B0798A1
:100C9000F31A002F08BF2F46102D0693A846A8BFB1
:100CA0004FF0100805F09CFC092D82468B4613DDA1
:100CB0007A4B03EBC80353E9122305F00BFD824680
:100CC00048468B4605F08CFC02460B46504659467A
:100CD00005F04AFB82468B460F2D36DC069B002B27
:100CE0003FF452AE22DD162B09DC6C4901EBC30147
:100CF000D1E9000152465B4605F0ECFCC3E7069AD9
:100D0000C5F12503934220DB644CC5F10F0504EBCC
:100D1000C50152465B46D1E9000105F0DBFC069BAC
:100D20005D1B04EBC504D4E90023E5E7069B1633FD
:100D30000BDB059B9E1B594B03EBC606D6E9002334
:100D40005046594605F0F0FD9DE7069AA5EB0803CD
:100D500003EB0208B8F1000F74DD18F00F030AD09E
:100D60004E4901EBC30152465B46D1E9000105F053
:100D7000B1FC82468B4638F00F084FD0B8F59A7F09
:100D800022DD0025A946079505952223DFF814B139
:100D900023604FF0000A079B002B3FF4F5AD189934
:100DA000204607F0BFFD0599204607F0BBFD4946E8
:100DB000204607F0B7FD0799204607F0B3FD294606
:100DC000204607F0AFFDDFE5354B049300234FEAE3
:100DD0002818504659469946B8F1010F21DC0BB14D
:100DE00082468B462E4BABF1547B03EBC90952462E
:100DF0005B46D9E9000105F06DFC2A4B0A460B4021
:100E000029498B428246BCD8A1F580118B4286BF0E
:100E1000DFF898B04FF0FF3A02F1547B00230493BF
:100E200083E018F0010F05D0049BD3E9002305F0FF
:100E300051FC0123049A083209F101094FEA6808BC
:100E40000492C9E7EAD0C8F1000818F00F020AD0EE
:100E5000124B03EBC20350465946D3E9002305F079
:100E600063FD82468B465FEA2818D7D0B8F11F0F82
:100E70001EDD0025A9460795059522234FF0000A9F
:100E80004FF0000B236086E7AEB7000098C000006B
:100E900055C00000DBC0000055B6000030C30000A4
:100EA00008C300000000F07F0000A07CFFFFEF7F80
:100EB00018F0100318BF6A23DFF8AC930493504670
:100EC0005946002318F0010F04D0D9E9002305F09A
:100ED00001FC01235FEA680809F10809F2D10BB1AE
:100EE00082468B46049BC3B1CBF30A52C2F16B031B
:100EF000002B594611DD1F2B40F32181342BDEBF1F
:100F0000C2F14B024FF0FF3303FA02F24FF0000A36
:100F1000CCBF4FF05C7B02EA010B0022002350465D
:100F2000594605F03FFE0028A3D1079B009308997E
:100F30002B463A46204607F05DFD079000283FF417
:100F400020AF059B9E1B069B002BB4BF334600239E
:100F50000C93069B002523EAE3731293A946079B93
:100F60002046596807F09EFC059000283FF40DAF1D
:100F7000079B1A69023203F10C0192000C3009F050
:100F80003DFB1AAB019319AB009352465B462046DA
:100F900008F008F84BEC18AB189000283FF4F5AEB9
:100FA0000121204607F070FD814600283FF4EDAE98
:100FB000199E1A9A002EABBF0C9B129B129FDDF854
:100FC0003080ACBF06EB03089F1B049BF61A164447
:100FD000A04B013E9E42C2F1360280F2C3809B1BB1
:100FE0001F2BA2EB03024FF0010100F3AF8001FAC7
:100FF00003F30D930023089308EB0206049BB0450E
:1010000017441F444346A8BF3346BB42A8BF3B46D4
:10101000002BC2BFF61AFF1AA8EB03080C9B002B8B
:1010200017DD49461A46204607F0EEFD81460028A6
:101030003FF4ABAE0146189A204607F03BFD0B90FB
:1010400000283FF4A2AE1899204607F06BFC0B9BDA
:101050001893002E00F38B80069B002B08DD129A5C
:101060000599204607F0D0FD059000283FF48DAE8D
:10107000002F08DD05993A46204607F01FFE05902F
:1010800000283FF482AEB8F1000F08DD4946424621
:10109000204607F013FE814600283FF476AE059AFD
:1010A0001899204607F07AFE054600283FF46DAEF9
:1010B000C3680B930023C360494609F096FE0028DD
:1010C0005FDA0B9B53EA0A0340F08380CBF31303F0
:1010D000002B7ED12BF000431B0D1B05B3F1D66F07
:1010E00077D96B6913B92B69012B72DD294601226F
:1010F000204607F0E3FD4946054609F076FE002844
:1011000067DD0499544A5B46002900F0838002EAB7
:101110000B01B1F1D66F7DDCB1F15C7F7FF7ADAE35
:101120004E4B50465946002205F0D4FA0B46034375
:1011300008BF222382468B4608BF23602FE64FF06C
:10114000FF3202FA03F303EA0A0AE6E6C6F17F4633
:1011500006F57F0606F57B46E23601FA06F30893AC
:101160000D9149E70023089301230D9344E7189953
:101170003246204607F0A2FD189000287FF46CAF9D
:1011800003E6D84672D10B9ACBF3130352B3344A19
:1011900093422AD1049B5146FBB12F4B0BEA030328
:1011A000B3F1D46F4FF0FF321AD81B0DC3F16B03AC
:1011B00002FA03F3994218D12A4B984502D1013122
:1011C0003FF4E3AD244B08EA030303F5801B4FF023
:1011D000000A049B002BA3D1E1E54FF0FF33E9E7C0
:1011E0001346E7E753EA0A038BD0089BE3B113EAFF
:1011F000080FEED00B9B049A50465946C3B109F034
:101200005FFB02460B4651EC180B05F0ADF8824629
:101210008B46DEE71340A3F580136FEA135B6FEA9A
:101220000B5B4FF0FF3AD4E70D9B13EA0A0FE0E7A0
:1012300009F046FB02460B4651EC180B05F092F8FC
:101240000022002382468B4605F0ACFC0028C0D06B
:1012500013E600BF02FCFFFF0000F07F00005039E2
:10126000FFFF0F00FFFFEF7FB0C000004946284698
:1012700009F0D7FD00224FF0804306460F4605F0E7
:10128000A5FC002879D00B9B002B4BD0924B002261
:10129000CDE90823904F0026904B08EA03030D93F5
:1012A0000D9A8F4B9A4240F0B0809DED087BA8F1DB
:1012B000547B50465946B0EE479AF0EE679A07F0D5
:1012C000F7FD02460B4651EC190B05F003FA5246A6
:1012D0005B4605F049F80B468049824A1940914225
:1012E00082465ED918EE903A02F15472934204D1CC
:1012F00018EE103A01333FF448ADDFF8F4B14FF087
:10130000FF3A1899204607F00DFB0599204607F093
:1013100009FB4946204607F005FB2946204607F011
:1013200001FB1CE6BAF1000F1AD1CBF31303F3B99A
:10133000694B00223046394605F03EFCD0B93046B4
:101340003946694B002205F0C5F906460F4607F1FC
:10135000004314961593DDE91423CDE908239BE798
:10136000BAF1010F03D1BBF1000F3FF486AD5F4B23
:1013700000228DE75C4F0026E9E75B4B304639469B
:10138000002205F0A7F90B9B06460F4633B901F181
:1013900000430E900F93DDE90E23DEE7CDE90E67E3
:1013A000F9E703F1547B049B002BAAD12BF00043F7
:1013B0000D9A1B0D1B059A42A3D13046394608F001
:1013C00005FA05F059F902460B463046394604F055
:1013D000C9FF0B9ACBF3130343EA0A0313430646F0
:1013E0000F4651D034A3D3E9002305F0E5FB0028D4
:1013F0007FF4D5AC32A3D3E900233046394605F05B
:10140000F9FB00283FF47DAFC9E4049B33B30D9B87
:10141000B3F1D46F22D82CA3D3E900233046394648
:1014200005F0D4FBA0B13946304605F015FC012883
:1014300038BF012005F0D4F80B9B06460F4603BBCE
:1014400001F1004310901193DDE91023CDE9082349
:10145000099B0D9A03F1D6639B1A099351EC180B63
:10146000DDE908AB07F024FD02460B46504659461D
:1014700005F030F953EC182B04F076FF82468B46CA
:1014800091E7CDE91067DFE711A3D3E9002305F069
:1014900093FBB6E700230A93139A179B1360FFF799
:1014A00077BA652A3FF469AB452A3FF466AB01235E
:1014B000FFF79EBBAFF300809535A094FFFFDF3FA1
:1014C00035E5AF350000E03F0000C0FFFFFFDF4122
:1014D0009535A094FFFFCF3F0000F03F0000F07F64
:1014E0000000E07FFFFF9F7C0000E03F0000F0BFB6
:1014F000FFFFEF7F000000002DE9F04F2DED048B82
:10150000456A93B00446DDF88C8016461F46924625
:101510009B4675B9102007F0BDF90246606220B9FC
:10152000A94BEA21A94807F09FFEC0E901550560D3
:10153000C560636A196851B15A684A6001239340D3
:101540008B60204607F0EEF9636A00221A603B1EAA
:10155000AABF002323F0004BC8F800309C4BBCBF4F
:101560000122C8F8002033EA0B031BD1229A42F271
:101570000F731360CBF31303334300F09685249B62
:1015800063B9944B22E0944B04930833249A13607C
:10159000049813B0BDEC048BBDE8F08F8D4B049321
:1015A0000333F3E7002200235046594605F0FAFAC8
:1015B0004BEC19AB804658B1229A01231360249B4F
:1015C000002B00F06F8585481860431E0493DFE709
:1015D00010AB019311AB009352465B46204607F0D7
:1015E000E1FCCBF30A5508EE100A002D00F08480D0
:1015F00019EE903AC3F3130343F07F57564647F46E
:101600004017A5F2FF35CDF83880754B00223046E3
:10161000394604F0A7FE66A3D3E9002305F05AF883
:1016200065A3D3E9002304F09FFE064628460F4633
:1016300004F0E6FF62A3D3E9002305F04BF802466D
:101640000B463046394604F08FFE06460F4605F03D
:10165000DBFA0022039000233046394605F0ACFA4D
:1016600050B1039804F0CCFF32463B4605F09AFA9D
:1016700010B9039B013B0393039B162B5AD8039A83
:10168000584B03EBC203D3E9002351EC190B05F0CF
:1016900093FA002850D0039B013B039300230C9343
:1016A000109B5D1B6B1E089345BFC5F1010307939B
:1016B000002300234CBF08930793039B002B3DDBC3
:1016C000089B039A0B921344089300230993209BD1
:1016D000092B00F28B80052BC4BF043B2093209B79
:1016E000A3F10203CCBF00250125032B00F2898062
:1016F000DFE803F02D3A3859DDE910531D4405F2B7
:101700003243202BC1BFC3F1400305F212400BFA54
:1017100003F326FA00F0DABFC3F1200306FA03F060
:10172000184304F05DFF01230646A1F1F877013D5F
:101730000E936AE70123B2E70C90B1E7079B039A87
:101740009B1A07935342099300230B93BFE700238F
:101750000A93219B002B57DC0123CDE905331A4660
:1017600021920CE00123F3E70023219A0A93039BC3
:10177000134405930133012B0693B8BF0123606A1C
:1017800000224260042202F114069E4241683FD9C1
:10179000204607F087F8049000283DD1124B0246FE
:1017A0004FF4D571BEE60123DFE700BFAFF3008041
:1017B00061436F63A787D23FB3C8608B288AC63F57
:1017C000FB799F501344D33FE5C00000FCC00000EC
:1017D0000000F07FE1C00000D8C00000F5B90000B3
:1017E0000000F83F30C300007AC10000012500234B
:1017F00020930A954FF0FF33CDE9053300221223E1
:10180000AEE701230A93F5E7219BCDE90533B6E75F
:10181000013141605200B6E7636A049A1A60069B80
:101820000E2B00F29D80002D00F09A80039B002B70
:1018300032DDB74A03F00F0302EBC303D3E900899B
:10184000039BD8054FEA231716D5B24B51EC190B61
:10185000D3E9082305F068F807F00F0782468B46A6
:101860000325AC4E57B942464B465046594605F003
:101870005BF882468B4628E00225F2E7F90708D597
:1018800040464946D6E9002304F024FF013580464E
:1018900089467F100836E5E700F09B80039B9D4F4B
:1018A0005E429B4B06F00F0203EBC203D3E9002319
:1018B00051EC190B04F00EFF361182468B460023C3
:1018C0000225002E7AD1002BD3D10C9B002B00F0E7
:1018D0008280914B00225046594605F06DF9002850
:1018E00079D0069B002B76D0059B002B36DD039B21
:1018F000504659465F1E0022884B04F0EBFE059EC1
:1019000082468B460135284604F07AFE52465B46F5
:1019100004F0E0FE824B002204F026FDD046D946BA
:101920008246A1F1507B002E58D17E4B00224046CA
:10193000494604F017FD52465B468046894605F04D
:1019400059F9002840F0958252460BF10043404679
:10195000494605F031F9002840F089825BEC19AB6B
:10196000119B002BC0F24881039A0E2A00F3448198
:10197000674B03EBC203D3E90089219B002B80F264
:10198000D580069B002B00F3D18040F06F82654B21
:1019900000224046494604F09DFE52465B4605F053
:1019A0001FF9069E3746002840F04582049D3123EA
:1019B00005F8013B039B0133039340E2F20705D591
:1019C000D7E9002304F086FE01350123761008379D
:1019D00077E7022579E7039F069E94E704994C4B2D
:1019E00031440D910A9903EBC60353E90223002900
:1019F00043D04D49002004F097FF52465B4604F067
:101A0000B1FC049D82468B464946404605F0FCF8F1
:101A1000064604F0F5FD02460B464046494604F0F2
:101A2000A1FC303605F8016B52465B46804689467C
:101A300005F0C2F8002863D142464B4636490020E3
:101A400004F090FC52465B4605F0B6F8002840F0E2
:101A5000B5800D9B9D4281D0304B002250465946A7
:101A600004F038FE2D4B82468B4640464946002204
:101A700004F030FE80468946C6E75046594604F0D9
:101A800029FE0D9B049D0F9382468B464946404696
:101A900005F0BAF8064604F0B3FD303602460B46B0
:101AA0004046494604F05EFC05F8016B0D9B9D42E3
:101AB000804689464FF0000224D11B4B50465946C0
:101AC00004F052FC02460B464046494605F092F8A7
:101AD000002873D152465B461349002004F042FCB3
:101AE00002460B464046494605F066F800283FF49A
:101AF00035AF0F9D6B1E0F9315F8013C302BF8D0BE
:101B0000039749E0054B04F0E5FD80468946BDE7B3
:101B100030C3000008C300000000F03F0000244074
:101B200000001C40000014400000E03F049D5646A9
:101B30005F4642464B463046394604F0F5FE05F016
:101B400063F8824604F05CFD42464B4604F0C2FD59
:101B500002460B46304639460AF1300604F002FCD4
:101B600005F8016B049E069FAE1BB74202460B466A
:101B700035D104F0F9FB42464B4606460F4605F0C8
:101B800039F8D0B942464B463046394605F00AF896
:101B900010B11AF0010F10D1204618EE101A06F0FD
:101BA000C1FE002303982B70229B01301860249BF8
:101BB000002B3FF4EDAC1D60EAE4039F2B461D466D
:101BC00013F8012D392A06D1049A9A42F7D10499C3
:101BD000302201370A701A7801321A7090E7A64B4A
:101BE000002204F077FD0022002306460F4604F091
:101BF000D9FF00289DD0CFE70A9A002A00F0D780AD
:101C0000209A012A00F3BA800E9A002A00F0B280CE
:101C100003F23343099E079D079A1A440792089AD4
:101C200001211A442046089206F02EFF0746002D97
:101C30000CDD089B002B09DDAB42079AA8BF2B46A1
:101C4000D21A0792089AED1AD31A0893099B1BB36C
:101C50000A9B002B00F0AF80002E13DD3946324680
:101C6000204606F0D1FF18EE102A0146074620460E
:101C700006F020FF18EE101A8046204606F052FEAD
:101C800008EE108A099B9A1B06D018EE101A2046FF
:101C900006F0BAFF08EE100A0121204606F0F4FE15
:101CA0000B9B002B064640F388801A4601462046CF
:101CB00006F0AAFF209B012B064640F381804FF0DF
:101CC0000008336906EB8303186909F03FF8C0F197
:101CD0002000089B184410F01F0000F09280C0F113
:101CE0002003042B40F38A80C0F11C00079B0344AF
:101CF0000793089B034405440893079B002B07DDCB
:101D000018EE101A1A46204606F0D8FF08EE100A00
:101D1000089B002B05DD31461A46204606F0CEFF13
:101D200006460C9B002B6ED018EE100A314609F0C7
:101D30005CF8002867DA039B013B18EE101A039346
:101D40000A220023204606F00FFE0A9B08EE100A26
:101D5000002B00F0B181002339460A22204606F00C
:101D600003FE059B002B074600F38E80209B022B71
:101D700051DC89E0109BC3F136034BE7069B5E1EE6
:101D8000099BB342BFBF099B0996F21A0B9BB6BFD2
:101D90009B189E1B0B93069BB8BF0026002BB7BF5A
:101DA000DDE90623DDE906359D1A002334E7099EA7
:101DB000079D0A9F3BE7099A67E7209B012B18DCE8
:101DC000BAF1000F15D1CBF3130393B92BF00043F5
:101DD0001B0D1B0583B1079B01330793089B013340
:101DE00008934FF001080B9B002B7FF46AAF012092
:101DF0006FE74FF00008F6E79846F4E73FF47DAF51
:101E000018461C3072E7069B002B37DC209B022B08
:101E100034DD069B0593059B6BB9314605222046B0
:101E200006F0A2FD0146064618EE100A08F0DDFF96
:101E300000283FF7BBAD219B049DDB4303934FF08C
:101E400000083146204606F06DFD002F3FF4A4AE99
:101E5000B8F1000F05D0B84503D04146204606F042
:101E600061FD3946204606F05DFD95E600263746C1
:101E7000E1E70397374699E5000024400A9B002BD1
:101E800000F0CA80069B0593002D05DD39462A46E1
:101E9000204606F013FF0746B8F1000F5BD07968C3
:101EA000204606F0FFFC054628B9874B024640F263
:101EB000EA21FFF737BB3A690232920007F10C01C1
:101EC0000C3008F09BFB01222946204606F0F6FE66
:101ED000049B03F10109DDE90423134408930AF08C
:101EE0000103B84607930746314618EE100A08F07A
:101EF0000AFD4146059000F1300A18EE100A08F07C
:101F000074FF3A4606903146204606F047FFC26805
:101F100009F1FF3B054602BB014618EE100A08F026
:101F200064FF024629462046099206F0FBFC209BEE
:101F3000099A43EA0201079B0B434D460FD1BAF1C0
:101F4000390F2AD0069B002B02DD059B03F1310AD5
:101F50008BF800A075E73846BAE70122E2E7069B56
:101F6000002B04DB20990B4307990B4322D1002A55
:101F7000EEDD18EE101A0122204606F09FFE3146D3
:101F800008EE100A08F031FF002803DCE0D11AF057
:101F9000010FDDD0BAF1390FD7D139238BF80030DA
:101FA0002B461D46013B15F8012C392A71D0013210
:101FB0001A7046E7002A07DDBAF1390FEDD00AF1B1
:101FC00001038BF800303CE7089B09F801AC994508
:101FD00047D018EE101A00230A22204606F0C4FC4F
:101FE000B84508EE100A4FF000034FF00A024146D0
:101FF000204606D106F0B8FC8046074609F10109E3
:1020000072E706F0B1FC3946804600230A222046DA
:1020100006F0AAFC0746F1E7069B0593049D18EE1F
:10202000100A314608F06FFC00F1300A049B05F8F5
:1020300001ABEA1A059B934209DD18EE101A002342
:102040000A22204606F090FC08EE100AE7E7059BFE
:10205000002BC8BF1D46049BD8BF01251D444FF06F
:10206000000818EE101A0122204606F027FE31461D
:1020700008EE100A08F0B9FE002891DC02D11AF02F
:10208000010F8DD12B461D4613F8012D302AFAD0B1
:10209000D7E6049A9A4284D1039B013303933123F8
:1020A0001370CEE6094BFFF791BA249B002B7FF407
:1020B0006AAA074BFFF78ABA059B002BAEDC209B70
:1020C000022B3FF7A8AEA9E77AC10000F4B90000DF
:1020D000D8C0000010B5054C237833B9044B13B1B8
:1020E0000448AFF300800123237010BD24140020A6
:1020F0000000000054C4000008B5034B1BB10349A5
:102100000348AFF3008008BD000000002814002041
:1021100054C40000A3F5803A704700BF174B002B52
:1021200008BF134B9D46FFF7F5FF00218B460F4676
:102130001348144A121A08F089FA0E4B002B00D0EB
:1021400098470D4B002B00D0984700200021040039
:102150000D000D48002802D00C48AFF3008004F0B9
:1021600081FF2000290008F03FFA04F067FF00BF5C
:102170000000080000000000000000000010002027
:1021800024140020E81900200000000000000000D6
:1021900030B585B0094C0A4B22680A4D1A600A4BCB
:1021A0002B600A4B019303F079F92B68029001A987
:1021B0002068039307F007FC05B030BD0C10002029
:1021C000A8190020A419002000100020A0B00000D1
:1021D00038B5084D03F062F92B680446D3F8B00215
:1021E00003F050F9286807F002FC2046BDE83840AB
:1021F00003F048B90C10002038B501F08FFC1248EC
:10220000124C012100F0F0FC01221146002001F0E7
:10221000F1FB022501221146C4F88050002001F094
:10222000E9FB01221146C4F88450002001F0E2FBD2
:102230000122C4F88C501146002001F0DBFBC4F8E9
:102240008850002038BD00BF30053E0000400E40E1
:1022500008B54FF0804301225A6403F564231B49FB
:10226000D3F8B02042F00102C3F8B020D3F8E02048
:1022700042F00802C3F8E0204A6B42F480524A63FD
:10228000D3F8E02022F00802C3F8E020D3F8B02011
:1022900022F00102C3F8B0200D4AD2F8A43143F471
:1022A000F843C2F8A43103F0CFF800F08BF803F044
:1022B00073F803F087F803F0B3F8FFF79DFF07F01A
:1022C00018FFBDE8084000F071B800BF00400540AD
:1022D00000300E4030B597B0224D0FCD0FAC0FC47B
:1022E00095E80700204B84E80700204ACDE9032346
:1022F00003F1C06303F204530593A3F10133A3F187
:10230000021306936FF4A06103F17F430B4407931C
:102310001022042300210BA8089308F097F9144B0E
:102320004FF44020CDE9090306238DF82C30072314
:102330008DF82D300F4B0C9320230D9301238DF836
:1023400039300D4B00930D4803AB0FAA09A903F0D8
:1023500041FB044618B10A48852107F08CFA204653
:1023600017B030BDE0B000000002040000000140E2
:102370001C000140C2190020001700204C1700204B
:10238000B1B0000008B5FFF7A5FF28B1BDE80840CF
:102390000248972107F06FBA08BD00BFB1B0000036
:1023A000014807F05DBF00BF4C17002008B5044886
:1023B000012100F019FCBDE8084007F03DBA00BF5C
:1023C00000450A000148012100F00EBC00450A004A
:1023D00008B500F093F8124B12498B4212D3124BFE
:1023E000124900208B4218D3FFF798FE186850F866
:1023F0002240586840F82240013298688242F5D362
:102400000C33EAE70022F8E71C6844F822000132A6
:102410005C68A242F8D30833E4E70022F8E700BF83
:102420005CC4000068C4000068C4000068C4000008
:102430000048704700A24A04174AD2F8943003F0CB
:102440000703023B042B1FD8DFE803F00620031A22
:102450000800124B1B680AE0114BFBE79368C3F3BB
:102460000443073B072B14D80E4A52F823300A4A7C
:10247000D2F80001C0F304200130B3FBF0F0704744
:10248000094B1B685B08F2E7074BE3E74FF4004397
:10249000EDE70023EBE700BF00400E401C100020DA
:1024A00014100020FCB000001810002008B5FFF741
:1024B000C3FF054BD3F80831C3F308230133B0FB46
:1024C000F3F0024B186008BD00400E4010100020D1
:1024D000014B1868704700BF14100020054B1860AE
:1024E000054BD3F8943003F00703022B01D1FFF71B
:1024F000DDBF70471410002000400E40044B054A19
:102500009A60D3F8882042F47002C3F8882070479C
:1025100000ED00E000000000014B1868704700BFAC
:102520001C10002038B504460D4601B118B9044806
:10253000372107F0A0F923682B60256038BD00BF64
:102540001CB1000070B5D0B1C9B10E4E431E0139A7
:1025500013F8014FA25D02F00302012A11F8012FC6
:10256000B55C05F00305204608BF04F12000012DED
:1025700008BF2032801A01D1002CE9D170BD0120A2
:10258000FCE700BF4BBF000005490A681318054867
:1025900083428CBF4FF0FF320B601046704700BF84
:1025A00020100020000003202DE9F04F85B09A464E
:1025B000544BDDF83C901B789DF844B0DDF850801A
:1025C00006460F461546002B00F08B800B2A00F2C2
:1025D0008A800E9B002B00F08680B9F1000F00F07E
:1025E0008280129BB3F5006F7DDC012802D1109B25
:1025F000002B78D0444B03EB05131B7B002B74D0CE
:10260000424C10220021684608F020F804EB4514E3
:102610001022002F57D13946204608F017F843F210
:1026200010036380BBF1000F03D1E37843F0030391
:10263000E370364A0E9BCDF800A002EB451CCCE9B6
:102640000193129B013BC3F30A009DF84C306901D2
:1026500003F003039B0643EA001E53582C4818401E
:102660004EEA0003012E535041D11323CCF80C3015
:102670009CE80F000CF1100E8EE80F00DCF81C2017
:10268000109BCCF814306FF0030161F39F02012F0F
:10269000CCF81C2003D1CCF81890CCF804301A4A9E
:1026A000290102EB051342F801800027159A5A60B0
:1026B00028469F605E732246694601F05BFF3846FC
:1026C00005B0BDE8F08F0021204607F0BFFF4FF4B2
:1026D00044736380BBF1000FABD1E37843F0300368
:1026E000A6E70C48ECE70C48EAE70C48E8E7B8F145
:1026F000000FD4D19CF8023068F304138CF8023038
:10270000CDE700BFE2190020641700202418002044
:102710000F80FFF3028000F0018000F0078000F0DE
:1027200038B5124B1B780546DBB1E0B107F012F962
:102730000F4A00231146147B54B92B601A0101EB98
:10274000031301258C501D7307F00AF9204638BD8C
:1027500001330C2B02F11002EDD107F001F905480D
:10276000F5E70548F3E70548F1E700BFE219002067
:1027700064170020048000F0028000F0018000F067
:1027800013B507F0E7F80C4A0023147B7CB901333A
:102790000C2B02F11002F8D1019001F07BFE074BE7
:1027A00001981C7007F0DCF8204602B010BD07F05D
:1027B000D7F80348F9E700BF64170020E2190020AA
:1027C000058000F010B50D4B1B78044693B10B2823
:1027D00012D807F0BFF80A4B03EB04131A7B2AB197
:1027E00000241C7307F0BCF8204610BD07F0B8F8B1
:1027F0000448FAE70448F8E70448F6E7E21900203D
:1028000064170020068000F0028000F0018000F0D4
:1028100013B5134B1868019000238DF8043007F0AE
:1028200099F8104B1C7824B107F09AF80E4802B0C2
:1028300010BD01221A7007F093F80C4A2346214676
:1028400001330C2B117302F11002F9D104230DEBAB
:1028500003008DF8073001F04DFE0020E7E700BFD0
:102860006DB10000E2190020038000F06417002021
:1028700008B50A4A12785AB10B280BD8084A02EB5D
:1028800000131B7B43B1002101F018FE002008BD9E
:102890000448FCE70448FAE70448F8E7E219002096
:1028A00064170020028000F0018000F0078000F033
:1028B00008B50A4A12785AB10B280BD8084A02EB1D
:1028C00000131B7B43B1012101F0F8FD002008BD7E
:1028D0000448FCE70448FAE70448F8E7E219002056
:1028E00064170020028000F0018000F0078000F0F3
:1028F00008B50A4A127852B10B280AD8084A02EBE6
:1029000000131B7B3BB101F0BBFE002008BD054856
:10291000FCE70548FAE70548F8E700BFE2190020A0
:1029200064170020028000F0018000F0078000F0B2
:102930000D4B1B7893B10B2812D889B10B4B03EBCD
:1029400000131B7B73B10A4B1A6E012303FA00F0CC
:1029500010401ABF00200B70087070470548704780
:102960000548704705487047E219002064170020A9
:1029700000200040028000F0018000F0078000F09D
:1029800010B50B4A12780C4662B10B280CD859B11D
:10299000084A02EB00131B7B43B101F091FE20704B
:1029A000002010BD0448FCE70448FAE70448F8E7B3
:1029B000E219002064170020028000F0018000F07E
:1029C000078000F02DE9F843DFF86480D8F86070E4
:1029D000D8F86C301F4000D5FEE7144CDFF8549057
:1029E00001260025374217D02368C8F868609BB1DC
:1029F000A16862680131A16028469847637B012B7A
:102A00000AD148B909EB45131A7B60F341021A73E6
:102A10001A7F60F341021A7701350C2D4FEA460602
:102A200004F11004DED1BDE8F88300BF6417002074
:102A300000200040241800200C4B984210D90C4B69
:102A4000984210D9022201230A490B640A49D1F89D
:102A5000003123F0407343EA0263C1F8003170474C
:102A600000221346F0E70122FBE700BF0048E8011F
:102A70000090D0030000C84300400E4038B54FF02E
:102A8000804300225B68104BC9B21C461D798D4201
:102A900002D11D68854213D20132072A03F10803CF
:102AA000F4D10A4841F2147106F0E5FE03224FF01A
:102AB00080414B6823F0407343EA02634B6038BDAA
:102AC00004EBC2025279F2E7A0B2000071B100003B
:102AD00010B51F28044604D903484FF4B67106F018
:102AE000CAFE0120A04010BDBFB10000044BDB6B4B
:102AF0005B0604D4034AD2F8C830002BFBD17047E0
:102B000000300E400000C64308B5FFF7EFFF024B50
:102B10005868C0F3014008BD00300E40044BD3F8A4
:102B20004421D20703D4D3F840211042FBD170478F
:102B300000400E4038B5B0F5004F054604D30C48B0
:102B40004FF4636106F097FE6C1C14BFB4FA84F472
:102B50002024C4F11F042046FFF7BAFF0138A84221
:102B600004D0034840F6376106F085FE204638BDA4
:102B700011B2000070B54FF0804341F671321E6C07
:102B80001A6405460C46FFF779FF134A134B022CD3
:102B900008BF13469D42124AB6B209D94FF08C4382
:102BA000C3F800210F4A954207D84FF0884306E04A
:102BB0004FF08843C3F80021F7E7002CF5D14FF41C
:102BC00080521A6041F671339E421EBF4FF080431F
:102BD00000221A6470BD00BF0024F40080D54302B7
:102BE0000202020080F0FA0238B5C0F30322013A73
:102BF00003460E2A3DD8DFE802F043463C36081B68
:102C00001E212539292E3C183300204C0020C3F307
:102C1000043508B1FFF782FF04F1424404F5801443
:102C200005EBC404A400216038BD194C0020EEE778
:102C3000184C0120EBE7184C1020E8E7174C4FF434
:102C40008070E4E7164C4FF48030E0E7154C81F0DB
:102C500001010020DBE7144C81F001010020D6E7E0
:102C6000124C0020D3E7124C0020D0E7114C00207A
:102C7000CDE7BDE83840104841F6B04106F0FBBD55
:102C80000E4C0020C3E70E4C0020C0E7B0400E40C1
:102C9000C4400E40E0400E40E8400E40EC400E4084
:102CA000F0400E4060410E4064410E40F0410E4045
:102CB00068410E4050410E4071B1000000400E408E
:102CC000C0400E4008B5C0F30313013B0B2B00F2CC
:102CD000AB80DFE803F0060C101A2024282C66864F
:102CE00092A5534BD3F80001C0F3042008BD504B0C
:102CF000D3F81401F8E74E4BD3F80001C0F301609C
:102D00000130FFF7E5FE0138F0E7494BD3F80C013D
:102D1000C0F30820EAE7464BD3F81801F8E7444B24
:102D2000D3F81C01F4E7424BD3F80801F0E7414B1C
:102D300098422AD00ED8A3F5BA2398422BD003F597
:102D40007033984215D041F654613B4806F093FD2C
:102D50000020CBE7394B984205D0394B98420ED032
:102D6000384B9842EFD1324BD3F82001C0F30230F8
:102D7000C7E72F4BD3F8200100F00F00C1E72C4B21
:102D8000D3F82001C0F30120BBE7294BD3F8200181
:102D9000C0F30310B5E7264BD3F82001C0F303407E
:102DA000AFE7294B98420CD003F5A11398420ED0FF
:102DB000264B984212D11E4BD3F8280100F0030095
:102DC0009FE71B4BD3F82801C0F3011099E7184B7C
:102DD000D3F82801C0F30130043092E741F678615E
:102DE000B3E71B4B984205D1114BD3F8300100F0EB
:102DF00003007BE741F68761A7E7164B984205D0B1
:102E0000154B984206D041F69F619EE7084BD3F8D8
:102E10005C01ECE7064BD3F85C01C0F3014065E7C9
:102E2000034BD3F8040173E741F6AC618DE700BFB3
:102E300000400E408016180071B1000000362C00D2
:102E400080262E0080002A0090171C0090071A0090
:102E5000A0091400B8003200B900340010B5C0F366
:102E60000313013B0C460B2B00F21882DFE813F032
:102E70000C00340045006000740088009C00BC0019
:102E80006101CE01DA0102021F2904D9C44841F6CA
:102E9000D56106F0F0FC06F03FFDC248FFF7CCFD1F
:102EA00000F00AFAC04BD3F8001121F4F85141EABE
:102EB0000424C3F80041FFF7F9FA0446FFF724FEA3
:102EC00001462046FFF756FEFFF7B6FAFFF7B4FDBE
:102ED000BDE8104000F006BA1F2904D9B04841F6F9
:102EE000EB6106F0C8FCB04BD3F8141121F4F85193
:102EF00041EA0424C3F8144110BD4B1EB3F5004F42
:102F00000DD2B4FA84F1A84BD3F80041C1F11F01EE
:102F100024F0407444EA0164C3F80041ECE7A3489C
:102F20004FF4546106F0A7FC002CEAD12021EAE717
:102F3000B1F5007F04D39A4841F6F86106F09BFC96
:102F4000994BD3F80C1121F4FF3121F4807141EA3F
:102F50000421C3F80C11CFE7B1F5007F04D39048EA
:102F600041F6FF6106F087FC8F4BD3F8181121F46E
:102F7000FF3121F4807141EA0421C3F81811BBE745
:102F8000B1F5007F04D3864841F6077106F073FC63
:102F9000854BD3F81C1121F4FF3121F4807141EAF3
:102FA0000421C3F81C11A7E7B1F5007F04D37C48C6
:102FB00041F60E7106F05FFC06F0AEFC7A4BD3F8DA
:102FC000081121F4FF3121F4807141EA0421C3F892
:102FD0000811FFF76BFA0446FFF796FD01462046FD
:102FE000BDE81040FFF7C6BD714B984274D010D8B1
:102FF000704B984246D0704B984257D0A3F570332F
:10300000984226D041F68A71BDE81040644806F027
:1030100032BC6A4B984205D0694B984273D0694BD9
:103020009842EFD1B4F5004F04D95D4841F67C7168
:1030300006F021FC2046FFF77DFD01460420FFF746
:103040006DFD594AD2F8203123F4E04343EA0133BD
:1030500015E0B1F5004F04D951484FF4F95106F08D
:103060000AFC2046FFF766FD01460420FFF756FDE7
:103070004D4AD2F8203123F4702343EA0143C2F8C9
:10308000203139E7022904D941F63171444806F06C
:10309000F2FB4FF48020FFF741FD434BD3F8301192
:1030A00021F003010C43C3F8304125E7B1F5004F8F
:1030B00004D93B4841F64E7106F0DDFB2046FFF790
:1030C00039FD01460420FFF729FD374AD2F82031A7
:1030D00023F00F030B43D2E7B1F5004F04D930487A
:1030E00041F65D7106F0C7FB2046FFF723FD014660
:1030F0000420FFF713FD2C4AD2F8203123F0F0030F
:1031000043EA0113BBE7082904D9254841F66C714D
:1031100006F0B1FB2046FFF70DFD01460420FFF746
:10312000FDFC214AD2F8203123F4407343EA012305
:10313000A5E7254B98421DD003F5A113984247D02F
:10314000224B98425FD1082904D9154841F6937162
:1031500006F091FB2046FFF7EDFC01464020FFF70B
:10316000DDFC114AD2F8283123F003030B43C2F8E7
:103170002831C1E6082904D9094841F6A27106F0B0
:103180007AFB2046FFF7D6FC01464020FFF7C6FC3D
:10319000054AD2F8283123F0300343EA0113E6E769
:1031A00071B100000148E80100400E4011B200007A
:1031B00080161800A00914008006160000362C00A6
:1031C00080262E0080002A0090171C0090071A000D
:1031D000A1F10F03702B04D9324841F6B17106F00A
:1031E0004AFB2046FFF7A6FC01464020FFF796FC6D
:1031F0002D4AD2F82801043920F4405040EA013029
:10320000C2F8280178E64FF4FE51FDE6274B9842BC
:1032100005D102297FF63DAF41F6CA7136E741F686
:10322000DA71F1E6224B984205D0224B984212D037
:1032300041F6F371E8E6032904D91A4841F6E5712D
:1032400006F019FB184BD3F85C1121F003010C4375
:10325000C3F85C4150E6032904D9124841F6ED71E8
:1032600006F009FB104BD3F85C1121F4403141EA20
:103270000444EDE7B1F5007F04D30A4841F6FB7141
:1032800006F0F9FA084BD3F8041121F4FF3121F4C8
:10329000807141EA0421C3F804112DE642F20201D3
:1032A000B2E600BF71B1000000400E40A00914005A
:1032B000B8003200B900340008B507480321FFF711
:1032C000CDFD06480321FFF7C9FDBDE808400448CD
:1032D0000321FFF7C3BD00BF404105005041070077
:1032E0006041090037B5FFF7A7F80446FFF70CFC6B
:1032F000022817D1194B1A481A491C449C42B4FBA6
:10330000F1F188BF01F1FF310191FFF7A7FD0199AC
:103310001548FFF7A3FD0199144803B0BDE83040FC
:10332000FFF79CBD124B134D0D48E2189A42B2FBB9
:10333000F5F588BF05F1FF352946FFF78FFD0B48EE
:103340002946FFF78BFD0C4B0C4907481C449C4257
:10335000B4FBF1F188BF01F1FF31DEE7FF2C310151
:1033600040410500002D3101504107006041090036
:103370007FF0FA0280F0FA02FFA14A0400A24A0498
:1033800008B500F00F0001380C2800F28480DFE857
:1033900000F007121C30263A824452606C707900AB
:1033A000454BD3F8943003F00703023B052B7FD83D
:1033B000424AD05C08BD404BD3F8803003F007038D
:1033C000013B032B76D83E4AF3E73B4BD3F88430DE
:1033D00003F00703013B032B6CD83A4AE9E7364B6D
:1033E000D3F8883003F00703013B032B62D8364A39
:1033F000DFE7314BD3F88C3003F00703013B032B9D
:1034000058D8324AD5E72C4B1B6F13F0030349D031
:10341000012B14BF01200920CCE7274BD3F85C31E6
:1034200003F03003202B3FD0302B3FD0102B14BFA4
:1034300001200720BEE7204BD3F85C3103F4401392
:10344000B3F5001F30D0B3F5401F2FD0B3F5801F68
:10345000EDE7194BD3F8600100F00300431E022B87
:1034600026D800EB40000130A4E7134BD3F86401E9
:10347000F2E7114BD3F8F03103F00703052B19D80D
:10348000134A96E70C4BD3F8683103F00303032B80
:1034900010D0104A8DE7104842F2012106F0EBF9F6
:1034A000002087E7072085E7042083E7082081E7DD
:1034B00005207FE701207DE700400E4062B200005A
:1034C00068B200006CB2000068B2000068B2000090
:1034D00070B2000076B2000071B1000038B5314B17
:1034E000984205460BD01ED82F4B984207D02F4B41
:1034F0009D4204D02E4841F6130106F0BCF928463F
:10350000FFF73EFF274B9D42044625D00DD8264BA2
:103510009D4211D0254B9D421AD0254841F64201CB
:1035200006F0A9F90DE0234BE2E7224B9D42F4D1CE
:10353000214BD3F8884002E01F4BD3F8804004F0C1
:103540000704042C27D8DFE804F0240B0F1713001E
:10355000194BD3F88440F2E7174BD3F88C40EEE7D1
:10356000BDE8384006F081B9BDE83840FEF7D4BF69
:10357000BDE8384006F07CB9FEF75EFF0E4B04460E
:10358000D3F80001C0F301600130FFF7A1FAB4FBEA
:10359000F0F4204638BD064841F6940106F06BF978
:1035A0000024F6E70400220002001E0003002000B1
:1035B00071B100000500240000400E4008B501284C
:1035C00014BF12481248FFF7DBFE0138072816D84F
:1035D000DFE800F01A1515071515040B0D4B1868D8
:1035E00008BDBDE80840FEF773BFFEF725FF0A4B94
:1035F000D3F80031C3F3042303FB0000F0E70748CE
:1036000041F20D6106F037F90020E9E7B800320019
:10361000B90034002410002000400E4071B10000B9
:1036200038B500F47813B3F5E01F054600F00081CB
:103630004CD8B3F5602F00F0148123D8B3F5C02F18
:1036400000F0A6800DD8B3F5003F00F0AD80B3F5D3
:10365000802F00F09280002B00F00B814FF4EF518F
:103660000DE1B3F5202F00F09980B3F5402F00F065
:10367000A180B3F5002FF1D1FEF7DEFEB74BD3F8F2
:103680001C317FE0B3F5B01F00F0AF800DD8B3F56B
:10369000901F00F09780B3F5A01F00F09D80B3F558
:1036A000801FDBD1AE4B186871E0B3F5C01F00F08E
:1036B000AA80B3F5D01FD1D1AA48FFF70FFFA74BBF
:1036C0000446D3F8280100F0030097E0B3F5481F43
:1036D00000F0DA8029D8B3F5201F00F0BE800FD8A3
:1036E000B3F5001F00F0A280B3F5101F00F0B78003
:1036F000B3F5F01FB2D19C48BDE83840FFF7EEBEED
:10370000B3F5381F00F08980B3F5401F00F09A80B0
:10371000B3F5281FA2D19448FFF7E0FE8F4B044673
:10372000D3F82001C0F3023068E0B3F5681F00F061
:10373000E88013D8B3F5581F00F0AF80B3F5601FD1
:1037400000F0C580B3F5501F88D10120FFF736FF88
:10375000824BD3F85C31C3F3014315E0B3F5701F1E
:1037600000F0EB80B3F5781F7FF478AFFEF764FECE
:103770000446284606F0E2F842E0FEF75DFE774B8D
:10378000D3F80C31C3F308230133B0FBF3F038BD99
:10379000FEF752FE714BD3F81831F3E7FEF74CFEFB
:1037A0006E4BD3F80431EDE7FEF746FE6B4BD3F8D2
:1037B0000831E7E7FEF740FE684BD3F81431C3F356
:1037C0000423E1E76848FFF789FE644BD3F8203112
:1037D000C3F30343D840DAE76448FFF77FFE5F4B4B
:1037E000D3F8303103F00303F4E75F48FFF776FEC8
:1037F0005A4B0446D3F8200100F00F00FFF768F998
:10380000B4FBF0F0C3E75848FFF768FE534B04469B
:10381000D3F82001C0F30310F0E75348FFF75EFE32
:103820004E4BD3F82031C3F30123D3E74D4863E770
:103830004C48FFF753FE494B0446D3F82801C0F328
:103840000110DBE74748FFF749FE444B0446D3F835
:103850002801C0F301300430D0E745484CE7434825
:103860004AE74448FFF78CFD07283FF41BAF0928BF
:1038700003D1BDE83840FEF7DFBD41F2D6513E48E6
:1038800005F0F9FF002082E70020FFF797FE334B99
:10389000D3F85C3103F0030376E73848FFF770FD97
:1038A0000438062810D801A353F820F04D39000041
:1038B00055390000C9380000A5360000C93800009D
:1038C000C93800005939000041F23761D7E72C4868
:1038D000FFF756FD0438062810D801A353F820F04E
:1038E0004D39000055390000FD380000A5360000B4
:1038F000FD380000FD3800005939000041F26961CF
:10390000BDE72048FFF73CFD0238092812D8DFE860
:1039100000F0090D1D21111111112305FEF7D8FD2D
:10392000400034E7BDE83840FEF7F6BDBDE838405A
:1039300005F09BBF4FF4B651A1E71348FFF720FDF8
:10394000052807D00A2807D0042823D1BDE838402D
:10395000FEF7BEBD0D4BA6E60D4BA4E600400E40A3
:10396000241000200300200002001E000500240097
:103970000400220006000E0071B100000A7B360030
:103980000B7C38000C7F3A000D743C0018100020AE
:103990002810002041F28F6171E700BF014B1880B1
:1039A000704700BF1814002038B502280C4604D018
:1039B0000D4842F6D63105F05EFF0C4D6B6AC3F33D
:1039C0000113012B0DD064B1074842F6F13105F027
:1039D00052FF074BD5F8902033EA0202FAD10120BA
:1039E00038BD4FF48003F5E771B1000000400E4090
:1039F000FF3F4F3A2DE9F047052804460F46914610
:103A00001FD83E4B3E4A13F800A03E4B13F80080EF
:103A1000F1B93D4B33F810301366012303FA08F86F
:103A2000D2F8903013EA080FFAD1B9F1000F61D043
:103A30000125334A05FA0AF5D2F890302B42FBD122
:103A400058E0BDE8F047314842F6BB2105F013BF0E
:103A50002F4B022833F810604ED1536AC3F3011381
:103A6000012B49D12B4BDB6B5B0504D4274842F675
:103A7000CA2105F000FF224A536A03F00303032B17
:103A800005D1536A23F0300343F020035362224DE3
:103A90001B4BA8441E664FEA8808D8F80030002B5C
:103AA000FBD0B9F1000F25D05544AD002B68002B99
:103AB000FCD0022C1ED1EFB1114B5B6A03F0030363
:103AC000032B03D000212046FFF76EFF0F4842F67C
:103AD000473105F0D0FE012200210220FFF78AFFC6
:103AE0000A4842F6BE3105F0C6FE054B1E662B683D
:103AF000002BFCD0BDE8F0870027C8E779B20000B2
:103B000000400E407FB2000092B2000071B1000090
:103B100086B2000000300E408004F21038B5FEF787
:103B2000D7FC0021044600F0B7F91448FEF784FFE3
:103B3000012211460220FFF75DFF05F0EDFEFFF7C1
:103B4000BBFB0CB1FEF7D2FF0D4B02225A67FEF70A
:103B500073FCFEF771FFFEF7A9FC0546FEF7D4FFE4
:103B600001462846FFF706F81CB90121204600F05F
:103B700093F9BDE83840FFF7B5BB00BF0148E80145
:103B800000400E4038B504461120FFF7F9FB042829
:103B900004D11F4842F64A1105F06DFE01220021B2
:103BA0000220FFF727FFE37A022B2AD8194AD25CBA
:103BB000194D6B6A23F0030313436B62FEF788FC15
:103BC000164B2288984294BF082000206B6A23F08D
:103BD00008031843A388686243EAC223EB622B6B95
:103BE000E2881B0D1B051343628843EAC2232B6343
:103BF000637A227A1B0143EA0233A27A13436B638E
:103C000038BD034842F65E1105F035FE0022CFE7CD
:103C100071B100005FB2000000400E4040787D01AD
:103C200070B505461120FFF7ABFB022804D10F4801
:103C300042F6082105F01FFE0D4E0E4BB26B2C789C
:103C400013401C436B7844EAC324AB7844EA036412
:103C5000EB7844EA0324B36BA34205D00021012290
:103C60000846FFF7C7FEB46370BD00BF71B1000026
:103C700000400E4080E4FFF8034BD86B80F040001A
:103C8000C0F38010704700BF00300E4038B542EAE4
:103C90000323B3F5007F05460C463ED019D8B3F593
:103CA000807F36D00AD883B3012B21D01F4840F63D
:103CB000312105F0E0FD002213461FE040F2011221
:103CC0009342F3D11A4BD3F824321A0EC3F30743AD
:103CD00014E0B3F5407F24D040F20132934210D07B
:103CE00040F201229342E1D1114BD3F8283202E095
:103CF0000F4BD3F82432C3F30722DBB22B602260D0
:103D000038BD0B4BD3F82832DFE7094BD3F81C3210
:103D1000F1E7074BD3F81C32D7E7054BD3F8203235
:103D2000E9E7034BD3F82032CFE700BFD8B2000059
:103D30000081E00F08B5FFF79FFF20B1024AD2F8DB
:103D4000C830002BFBD108BD0000C64310B51A4B8C
:103D50000228D3F830320C4612D0032813D00128A1
:103D600014BFDBB2C3F307231B0323F47042ECB987
:103D70005AB14FF41C61114805F07DFD002010BDC3
:103D8000C3F30743F0E71B0EEEE70D49CA6E22F4BA
:103D900070421343CB660120F1E70949D1F8EC20CA
:103DA00022F470421343C1F8EC30F4E7002AF4D057
:103DB00040F6CC11DFE700BF0081E00FD8B2000071
:103DC00000300E4070B50378124A002B4378946996
:103DD00014BF04260026002B837814BF022500257B
:103DE000002B037924F03F0443EA0403C47814BF92
:103DF00008210021012C08BF43F0010333432B436A
:103E00000B4393611368417923F4403343EA014340
:103E1000136070BD00300E40F8B504460F46FFF742
:103E20002BFF78B3FFF786FF174B5B68C3F30143A3
:103E30009C4227D0154BD3F80061FEF7FDFA022C07
:103E400005460FD1124BC6F3042606FB00069E4220
:103E500004D9104840F2577105F00DFD02212846A3
:103E6000FEF788FEC4F1020210239340064A136154
:103E70000FB1FFF75FFF2CB921462846BDE8F84097
:103E8000FEF778BEF8BD00BF00300E4000400E4087
:103E9000002D3101D8B2000013B50246FFF7ECFE49
:103EA000C8B152B90D4B0191D3F80041FEF7C4FAE5
:103EB000C4F30422019902FB0002094B1B7843B1B1
:103EC000084B9A4205D8022002B0BDE81040FFF727
:103ED000A3BF0020F8E702B010BD00BF00400E40B5
:103EE000E3190020002D310110B5174B4AF6E852B6
:103EF000596B5A639A6FD407FCD41B6C13F00303FD
:103F00001EBF124A0124C2F8B44A834216D00E4B97
:103F10009A6FD207FCD41A6C22F0030202431A648F
:103F20009A6F12F00102FBD10038084C18BF012033
:103F30000129C4F8B40A08BF5A6303E010B9034B5F
:103F4000C3F8B40A10BD00BF00300E400000C643E5
:103F50002DE9F04F89B0A0F5E1630024B3F5966F29
:103F6000CDE90244CDE90444CDE9064406468A463B
:103F7000934605D940F6BA31554805F07CFCA3E0DC
:103F8000B0F5E16F534B8CBF0122002249D1D3F829
:103F90001832C3F30721DBB2079104934FF416756F
:103FA0004FF4966748E0BBF1000F0ED0D9F85C20C3
:103FB00022F4FE4222F00202B6F5E16F42EA01224B
:103FC00018BF02200243C9F85C20BAF1000F26D0C6
:103FD00020460021FFF7BAFE044610B940F617410B
:103FE000CAE701214046FFF7B1FE044610B940F68A
:103FF0001F41C1E7384A536EBD4238BF3D4623F4E6
:10400000FF73E72D23F0010328BFE725B6F5E16F25
:1040100018BF43F0010343EA4503536654E001240B
:1040200052E0D3F81832190EC3F3074307910493F3
:104030004FF496654FF4E167DFF89C90D9F84C4057
:104040000192C4F30174234605A902A8FFF71EFEDE
:10405000D9F8EC30019AC3F30128434606A903A816
:10406000FFF714FE049BF01B079FF91A4143B1FBB5
:10407000F5F299182CBF012300238F421ED3EBB910
:10408000069A039FD31B4343B3FBF5F3FF182CBFE2
:1040900001230023BA4211D383B9059B029AA3EBF3
:1040A000020C00FB0CF0B0FBF5F555192CBF0120FC
:1040B0000020AB4202D300283FF475AF044840F61D
:1040C000084105F0D8FB0024204609B0BDE8F08F78
:1040D000D8B200000081E00F00300E4008B5334A2E
:1040E000136FD16C11F0010F03F0060344D0002BC5
:1040F00042D0132857D9143813288CBF1023082313
:104100002A49013BCA6C180322F47F4240EA032388
:104110001343CB64264BCA6C1B88C2F3032228339B
:10412000013202EB820003EB5303B3FBF0F3C86CE4
:10413000013B072B28BF072320F0EE6040EA036312
:1041400043F48013CB641B4BB3F90030002B12DB1C
:1041500003F12800C0F34E030344500800EB420271
:10416000B3FBF2F20B6D072A28BF072223F070037E
:1041700043EA02120A6508BDD16C01F0010119433E
:1041800004D109280FD90A380928B6E7D26CD2071A
:1041900002D50BB92728B0E7074840F65D4105F086
:1041A0006AFB0023ACE70423AAE700BF00300E40FF
:1041B000BE190020C0190020D8B2000010B50C4B69
:1041C000D3F88039044633B9012804D9094840F6A8
:1041D0007B4105F050FB084A136F23F0070323438C
:1041E0001367064BBDE810401888FFF777BF00BF84
:1041F0000000C643D8B2000000300E40BC190020B9
:1042000038B50389C82B044604D9514840F65F21CC
:1042100005F031FBA28823899A4204D94C484FF417
:10422000266105F028FBB4F90C30C82B04DD4848A2
:1042300040F6612105F01FFB6378012B55D1A3885F
:10424000C82B04D940F66521414805F014FBE288EB
:1042500042F210739A4204D93D4840F6722105F0AB
:104260000AFBE3884A2B48D9B3F5FA7F47D340F6D7
:10427000C312934294BF4FF000524FF04052354961
:10428000B4F90C00CB6C23F0405323F00103002859
:10429000A8BF43F001031343CB64D1F8EC30A288EC
:1042A00043F44073C1F8EC302B4B1A80CB6E43F0D3
:1042B0008073CB66294BD3F8800900B10420FFF747
:1042C0007DFF274B21891980264BB4F90C20A0884B
:1042D0001A80FFF703FFA37BA3B1012B23D01C4857
:1042E00040F6711105F0C7FA0FE0022BAFD1A38899
:1042F0000A2BACD940F66A21A6E70022BFE74FF0AF
:104300008052BCE7134B184A9A6501226088114617
:10431000FFF71EFE054648B90D4840F6A92105F0F5
:10432000AAFA284638BD0B4B104AEDE7094AD36B71
:1043300043F48063D3636078FFF7D6FDA37AA3F1DB
:10434000200253425341054AC2F89437E9E700BFBF
:10435000D8B2000000300E40BC1900200000C64357
:10436000BE190020C019002077402057372110B710
:1043700038B5042804460D4618D9052804D147F657
:10438000FF73EB40DB0704D40A4840F22D4105F0EF
:1043900072FA30230C2013FB040000F18C40012141
:1043A00000F5082001FA05F5056038BD4FF6FF73EA
:1043B000E7E700BF26B3000038B5042804460D46E1
:1043C00018D9052804D147F6FF73EB40DB0704D466
:1043D0000A4840F2FE3105F04EFA30230C2013FB60
:1043E000040000F18840012100F5082001FA05F5DC
:1043F000056038BD4FF6FF73E7E700BF26B3000046
:10440000F8B5042804460D4616461F4629D9052846
:1044100004D147F6FF73EB40DB0704D41A484FF48E
:10442000B07105F028FA26B129462046E7B1FFF71A
:104430009FFF04EB4403072D4FEA03134FF00F01D6
:1044400015D8A80006FA00F281401048184405F07B
:104450008AFAC6B9294620468FB1BDE8F840FFF771
:1044600087BF4FF6FF73D6E7FFF7A6FFE1E7A5F199
:104470000800800006FA00F281400548E6E7BDE842
:10448000F840FFF799BFF8BD75B3000004800840FD
:1044900008800840074B0422C3F88020BFF34F8FE9
:1044A000BFF36F8F044B0021D9664FF4CA401962E5
:1044B000FEF79ABB00E100E00020004038B50B2871
:1044C00005460C4603DD0848772105F0D4F91F2D79
:1044D00084F0010403D90548912105F0CCF9044B7F
:1044E0002B449B001C6038BDC4B3000013B4000013
:1044F000A001811010B5044618B91B48912105F0A0
:10450000BAF923781B0613F0704F03D01648922196
:1045100005F0B1F9E378072B03D91348A32105F07F
:10452000AAF901214FF4CA40FEF75EFBB4F801304E
:1045300022785BBA9BB243EA02630C4A1360002301
:104540001362D36253634FF00043D3664FF0FF33DF
:104550009366074A0421C2F88011E3785B01DBB25D
:1045600082F80233116010BDC4B300000020004087
:1045700000E100E02DE9F041C3B201260B28054619
:104580000C46904606FA03F603DD3A48EC2105F0A6
:1045900072F91CB93748ED2105F06DF9236823F451
:1045A0007C1323F00F031BB13248F22105F063F9AD
:1045B000A37A1B0413F47C0F04D02E4840F2091197
:1045C00005F059F9E37A1B0513F07E6F04D02948F2
:1045D00040F20B1105F04FF9237B5B0513F0FE5FF2
:1045E00004D0244840F20D1105F045F9224F637BB9
:1045F000BE66302000FB05702268C0F88020C0F83D
:104600008830E37AA27A1B0543EA0243227B43EA1D
:10461000425328F00302C0F88430C0F8982005F017
:1046200099F9FB6E3343FB66237A13B17B6B3343FB
:104630007B63637A13B1FB6A3343FB620E4B1A68E8
:10464000237923B1DB431B0263F47F431A40637970
:104650000BB142EA0322A3790BB122EA0302E37908
:104660001A43054B1A60054A9662DE63BDE8F041C5
:1046700005F076B9C4B300000020004000200044DB
:1046800010B5C3B201240B2804FA03F404DD094871
:1046900040F2971105F0EFF805F05CF9064AD36E89
:1046A00023EA0403D366054B1C62BDE8104005F005
:1046B00057B900BFC4B300000020004000200044F0
:1046C00010B5C3B201240B2804FA03F404DD0B482F
:1046D00040F2B51105F0CFF805F03CF9084B1A6A25
:1046E000224209D19B6A34EA03030CBF012400244F
:1046F00005F036F9204610BD0024F9E7C4B30000E8
:10470000002000402DE9F04180460C461F46164629
:1047100022B934484FF4A17105F0ADF83CB9324BE1
:1047200098450CBF31483248FEF77AFF0446402FC7
:104730004BD009D8A7B1202F3DD0BDE8F041294882
:1047400040F2891105F097B8602FF6D1B6EB940FBF
:1047500004D9244840F2831105F08DF8042108E0C3
:10476000B6EB141F04D91F484FF4BA7105F083F853
:1047700010214E4371081F4D01EB4414B4FBF6F6B3
:10478000203EB5EBC60F4FEAC60404D215484FF4DD
:10479000D07105F070F8D8F8003023F06003C8F845
:1047A0000030D8F800302C401F43C8F80070C8F81B
:1047B0001440BDE8F081B6EBD40F04D9094840F2AB
:1047C000791105F058F80821D3E70625B4FBF5F375
:1047D000B34204D203484FF4BF7105F04CF82946A8
:1047E000C7E700BF61B40000000801405041070066
:1047F00040410500F8FF7F0038B5144B984204464D
:104800000D461CD003F58063984218D003F58063F1
:10481000984214D003F58063984210D003F580636A
:1048200098420CD003F54053984208D003F58063BA
:10483000984204D006484FF4337105F01CF8EB435E
:104840005B0003F00A03E360E56038BD000001404F
:1048500061B4000038B5264B264D984204461AD064
:10486000A84218D003F50063984214D003F5806382
:10487000984210D003F5806398420CD003F5405362
:10488000984208D003F58063984204D01A4840F259
:10489000424104F0F0FF40F6AA63E36041F20502F2
:1048A000002323606260154AA3606361E364A2642D
:1048B00023666367A367E3670D4B9C4209D0AC4254
:1048C00007D003F500639C4203D003F580639C424C
:1048D00001D1002323650023AC42A36506D0084A1A
:1048E000944203D002F58062944200D1E36538BD62
:1048F000000001400004014061B40000F9FF010024
:10490000000C014038B52F4B984204460D461CD090
:1049100003F58063984218D003F58063984214D061
:1049200003F58063984210D003F5806398420CD061
:1049300003F54053984208D003F58063984204D0B1
:10494000214840F2FD2104F096FF2046FFF782FF48
:10495000AB7C1BB1236843F080432360EB7C1BB12D
:104960002B7D43F08003A3652A8A6B7B1343EA897E
:10497000134363602B7BD5E901122046FFF7C2FE8B
:104980006B7D1BB1236843F480332360AB7D1BB187
:10499000236843F400432360EB7D2A7E1B07120546
:1049A00002F4E00203F0E04313432366636F23F055
:1049B00030036367626F6B7E134363672B78E3603A
:1049C00038BD00BF0000014061B4000010B54FF4D5
:1049D0002F720021044605F039FE00238022C4E92D
:1049E0002323094AC4F884200122C4F8943084F8AF
:1049F000983084F88820C4F8AC3204F19C00BDE8FB
:104A0000104004F039BF00BF55B6000010B5D0F813
:104A1000A0400A4674B905F077F9044640B12D2844
:104A200096BF074B074953F82010074805F0CAFA0C
:104A3000204610BDD0F8A4101046A0470024F7E788
:104A400010B50000B1B400003CC4000070B590F88F
:104A5000803004460BB1002070BD04F09DFF00289B
:104A6000F9D1012384F8803094F8883033B184F888
:104A70008800D4F88410164805F0A4FA4FF0FF36E9
:104A8000D4F8B4526A1C1CD0C4F8B462204604F0B6
:104A900080FFE9B2204600F097FB0028F0D02046C6
:104AA00004F07CFF94F8880038B1D4F884100848EA
:104AB00005F088FA002084F88800002384F880300C
:104AC000CAE705F064FA431C0546DFD10120F4E78C
:104AD0004EB60000F8B50B78302B05460E4617464B
:104AE00004D14B7803F0DF03582B12D02F49721EEC
:104AF00012F8014F002C43D10A222146304603F020
:104B000031FA202D03460A463FD1631A58425841D4
:104B100019E04A1C254912F8013FABB9244B2B4040
:104B2000032B30461FD105F0AFFE6B1C48BF2B1D79
:104B30000238B0EBA30F4FEAA3040BD1B0783728AB
:104B40008CBF00200120F8BD5B5C13F04403E2D170
:104B50001846F8E7304605F097FE02388442D4BF85
:104B600000200120EFE705F08FFE002DA0F10200EC
:104B7000B8BF0335B0EBA50FD4BF01200020E2E79A
:104B8000635C13F00403B3D1E2E727B1084302D01A
:104B9000013B61F10002012000FA05F5013D1D40D5
:104BA000002A08BF9D4218BF0020CCE74BBF000081
:104BB0000300008070B503787B2B16D10C4E0546A0
:104BC0000221002215F8014F7D2C05D1435C63B909
:104BD000D04300F0010070BDA35D13F0440302D088
:104BE00001320131EEE7202CFBD00020F3E700BFBB
:104BF0004BBF000070B506460D4605F045FE044665
:104C0000304605F0DFF9044EAC4200D370BD3046AB
:104C100005F0D8F90134F7E764BA00002DE9F84F40
:104C2000044602215248FFF7E5FF1E212068FFF7E6
:104C3000E1FF6368586805F0C5F94E4805F0C2F910
:104C400067683B7BFD2B12D8D7F80880DFF82091EE
:104C5000DFF880A1DFF858B1404605F015FE0C37AB
:104C600005464FF0FF3617F8013BFF2B01D1BDE899
:104C7000F88F212B18D8212B34D8DFE803F0707679
:104C80007211191B1D1F3333333333333333212355
:104C90002527292B2D2F33333333333333336C31E3
:104CA000354C002D21DC23E0FE2B5CD0334CF8E7A3
:104CB000334CF6E7334CF4E7334CF2E7334CF0E790
:104CC000334CEEE7334CECE7334CEAE7334CE8E7A0
:104CD000334CE6E7334CE4E7334CE2E7334CE0E7B0
:104CE000334CDEE7002D254C00DD0136202BBAD0F9
:104CF00002214846FFF77EFF1E214846FFF77AFF54
:104D0000504605F05FF95946204605F0B3FD2949A4
:104D1000002818BF2146284805F054F93B78202B7D
:104D200002D12B2005F042F9244805F04BF9002D63
:104D300009DD18F806301F2B05D018F806001F28CB
:104D400001D0AE4203DB0B4805F03CF98BE705F0E0
:104D50002DF90136F1E7002D85DD194CC5E7194C19
:104D60009FE7194C9DE7194C9BE7194C99E700BF49
:104D700055B6000059B90000DEB50000C8B5000006
:104D800033B60000E4B5000025B6000021B60000EF
:104D900018B600000EB6000004B6000019B60000F8
:104DA0000FB6000005B60000FAB50000F3B500002C
:104DB000EAB50000DBB500004EB600003BB60000CF
:104DC000D0B50000DDB50000E3B500002CB6000052
:104DD00032B6000039B600002DE9F04F91B01A9EAE
:104DE000039305460F46904605F04EFD039B049045
:104DF0004FF00009C3F8009008AAC6F8009007A970
:104E0000284605F000F90446002840F0B8800898CC
:104E100005F03AFD039B1860D5F89C300293A34639
:104E2000A246029B1BB9204611B0BDE8F08F029B41
:104E30009B680193002B6ED005EB0A0212F8013B30
:104E4000202B14D04FF0000A019A0C2303FB0AF325
:104E50001A440092019AD158002956D0079B5B450D
:104E600053DB009B1B7A33B10AF1010933E033684D
:104E700001333360E2E73368D5F89420D21A039BFC
:104E80001A6010AB03EB8B03059353F8200C05F06D
:104E900003FD81460028E7D1009B186805F0F4FC6B
:104EA000009B5B6893F80CC0BCF1FE0F17D1079A0A
:104EB000013A5A4513D01B680193059B53F8200C07
:104EC00005F0E2FC33680133034433603368EA5C85
:104ED0001AB10BF1010BCA46B6E70133F5E7D5F875
:104EE00094203168521A824226DC384605F0CCFC08
:104EF000009B8146186805F0C7FC48447B280ED902
:104F0000204A4146384604F0DAFC049A2B46A91898
:104F1000CA1A002A2CDC029B1B68029381E7009BC3
:104F200041461A68384604F0CAFC174A41463846DA
:104F3000013404F0C4FC97E7BCF1FE0F94D1079A4A
:104F4000013A5A4590D1D3F8009059F80C2B22B968
:104F5000049B3360039B1A60D7E74146384604F050
:104F6000AEFC094A4146384604F0A9FC0134ECE79E
:104F70001A7812B94FF020021A700133C8E74C4674
:104F800051E700BF3EB6000064BA00002DE9F047CB
:104F900086B0DDE90EA800241C60064689468AF822
:104FA00000401168154888F8004017461D468DF8E6
:104FB0001740FDF7C7FA18B92B6801332B6001249D
:104FC000D6F89C60002036B914B1012388F800306F
:104FD00006B0BDE8F087B06868B14B46CDE902A8DD
:104FE000CDE900750DF11702002104F02AFE9DF8AD
:104FF0001730002BE8D13668E5E700BF43B6000064
:105000002DE9F047ADF5447D002604467C2231466B
:1050100005A80DF10808049605F018FBCDF80080EE
:1050200003AB802204A92046FFF7D6FE012846D113
:1050300004A805F029FC039BD8F800201A44C11AE3
:1050400022440546013B04A80344571810463E1A63
:10505000002E20DC21EAE17100235354D4F8906043
:10506000039BD8F80010D4F890201944B14217DC03
:10507000D4F89410E81A0244C4F89020014404AA19
:10508000C4F89410D41825182B1B002B12DC0DF536
:10509000447DBDE8F08713F8016F00F8016BD6E797
:1050A000A05C04F083FFD4F890300133C4F8903052
:1050B0000136D5E714F8010B04F078FFE4E7E6DDEC
:1050C00024AD80223146284605F0C0FA44AB4FF4A7
:1050D00000721846314605F0B9FA0DF1100A034680
:1050E00052464FF0010912F8017B002F3AD143F8E4
:1050F000296004A805F0C8FB29463B461AF8016B55
:1051000044AF57F8042B824235D10133994501F859
:10511000016BF3DAD4F89060039BB34234DC284A85
:105120002848234604A904F04DFF284605F0ACFBAF
:10513000039AD8F80030134423441544801A6E1E95
:105140001A461F18B91A00292ADC20EAE072002149
:1051500099542C18631B002B99DD15F8010B04F0F2
:1051600025FFF7E7202F06F1010604BF43F8296069
:1051700009F10109B7E70DF1100C6244D25CB242AB
:10518000BFD00022EA54C5E7D4F89030E05C04F0C8
:105190000DFFD4F890300133C4F890300136BBE7EE
:1051A00016F8011F02F8011BD4F890100131C4F861
:1051B0009010D4F894100131C4F89410C2E700BFE5
:1051C00055B6000048B600002DE9F843D0E9245652
:1051D00004460F46002294F89830012B06D10A2F7E
:1051E00006D1002084F89800BDE8F88300F2A08082
:1051F0001B2F03D1022384F898303BE0A7F10D0266
:1052000053425341082F84F8983035D1002D30DDBA
:10521000B5420FD1384604F0C9FE202004F0C6FE86
:10522000013D384604F0C2FE00236355013EC4E947
:1052300024561FE0FBDA05F1FF38384604EB080777
:1052400004F0B4FEA6EB08026119384605F0E4F953
:105250000023A3554E48394604F0B4FE013E3546BE
:10526000454501DC4546E2E7082004F09FFE013D8C
:10527000F6E7DCD10020B7E77F2F1CD1002EF9DD47
:10528000B542F7DA6719691C2144721B384605F0EC
:10529000C3F90023A3553F48394604F093FE082084
:1052A000013E04F083FEB542F9D1D4F89430013BBD
:1052B000C4F89430DEE70D2F01D00A2F0AD10D205B
:1052C00004F074FE0A2004F071FE0023C4E92433C4
:1052D000012089E7092F03D12046FFF791FEC9E796
:1052E000D4F88C30013BB342C4DDB54204EB050871
:1052F00005F101090CDB88F80070D4F89430C4F88B
:1053000090900133C4F89430384604F04FFEB1E772
:10531000721B414604EB090005F07EF9404604F09B
:1053200051FE0820013E04F041FEB542F9DDE2E7FE
:10533000022B06D15B2F01D103235CE784F8982070
:1053400049E7032B96D1413F84F89820032F91D849
:10535000DFE807F002070A150121204604F0CEFD20
:1053600088E74FF0FF31F8E7B54283DA605D04F07B
:105370001DFED4F890300133C4F890307AE7002D48
:105380007FF778AF013DC4F890500820BDE700BF1B
:1053900051B6000056B600007FB5094B6A4603F1CE
:1053A0001006154618685968144603C40833B342FA
:1053B0002246F7D12846FEF723FF002004B070BD37
:1053C0005AB600001FB5124A1068516801AB03C3FA
:1053D000906818600F4BD3F8B42012030FD4D3F8A1
:1053E000B830C3F308030C48ADF80630FDF776F883
:1053F00001A8FEF7C7FB002005B05DF804FB074BD2
:105400001B884FF6FF72934208BF8423EBE700BF6F
:105410006AB600000081E00F80F0FA020001E00FA0
:1054200007B5084B18680190462301A88DF8043091
:10543000FEF7F6FB6420FEF7B1FA002003B05DF83A
:1054400004FB00BF76B6000010B50C480C4C6FF0A2
:105450000402A02112F0800FD3B21BBF03F00F0390
:10546000043BA3181B1802F101020CBF83F80013C0
:1054700019763C2AEED1002010BD00BF00ED00E0FF
:1054800000E100E010B5044604F05DFA024B1C6038
:1054900004F05DFA002010BDAC19002010B504F036
:1054A00052FA034B1C6804F052FA204610BD00BFAC
:1054B000AC19002010B50020144604F028FE18B1E5
:1054C0000248BF2104F0D7F9204610BD7AB600008B
:1054D000034B1868002380680222194602F050BB73
:1054E0004812002038B5037A3022534303F1804339
:1054F00003F500530446D3F89450D0E90323134432
:105500009D4201D8AA4204D905484FF43E7104F0E7
:10551000B2F9D4E9030303449D4218BF284638BDBD
:10552000E7B6000030B587B0144605461046FFF7D1
:10553000D9FF636983423CBFD4E903315B181B1A6E
:105540000246ABB1124903910021CDE9013101239B
:1055500000930494D4E90013284604F0C3F920B161
:105560000C484FF4347104F086F9002007B030BDC8
:105570000122627694F82D20002AF6D084F8353086
:105580001321E36920469847636A20469847ECE771
:1055900025550000E7B600002DE9F04788B0044625
:1055A00088461746994604F0D5F98246002F00F048
:1055B000AB80237E03F0FF02002B00F0DE8020464C
:1055C000FFF790FF63699842054606D1637E23B9D1
:1055D0006B4840F27F3104F04EF96669B5429CBFDA
:1055E000D4E90352AD18AD1BBD4228BF3D4604F0BF
:1055F000B1F994F82D300646002B40F09680616991
:105600002A46404604F0FAFF63692B4463612F4643
:105610002CE06069037803F0FD01112940F08280DD
:10562000216B884205D1A3F111014B424B4184F813
:105630003430013F6369216B8B4203F1010308BFE2
:105640002363636101329542E3D1D4E90323216BE3
:105650001344994208BF2263216B8A4201D88B42CE
:1056600004D847484FF46D7104F005F9D4E90323D9
:1056700061691344994208BF626161698A4201D835
:105680008B4204D83E484FF4717104F0F4F80023C3
:10569000207A6376FDF7ECF820B1394840F21131F9
:1056A00004F0E9F82046FFF71DFF636983423FD10C
:1056B0000023237694F82D30E568656103B12563F6
:1056C000636A204698472F4B039300230293236974
:1056D00001930123009321686368207A04942A4689
:1056E00004F000F920B1264840F22D3104F0C3F84F
:1056F000207AFDF7DDF820B1214840F2513104F065
:10570000BAF8304604F02CF95046C9F8007004F09D
:1057100027F9D9F80030002B0CBF1B20002008B05F
:10572000BDE8F08708F8013B84E72F4600228AE7AE
:105730000123207A23760DF11E01FDF721F920B116
:105740000F484FF4507104F096F89DF81E30002B6E
:10575000CED0207A0DF11F01FDF7EAF820B10848FC
:1057600040F2463104F087F89DF81F100029BFD1A0
:10577000207A2246FFF7D6FEBAE71746C4E700BFF5
:10578000E7B600002555000070B504460568FFF730
:1057900085FE844202D10020FFF774FE95F9363071
:1057A000002B11DB03F01F015B099B0003F1604339
:1057B00003F5614301228A40C3F88021C3F88020A9
:1057C000BFF34F8FBFF36F8F287AFDF791F820B1A9
:1057D00011484FF4ED7104F04EF8287AFCF7F2FF0F
:1057E00020B10D484FF4EF7104F045F8FCF7C8FF05
:1057F00038B10A4B984204D007484FF4F17104F0D5
:105800003AF80023C4E90033C4E90433A36028460E
:10581000AB6ABDE870401847E7B60000058000F0AD
:105820002DE9F84390F82C80DFF8AC9004460D4643
:105830008E18B54228D094F82D3083B104F08AF840
:10584000237E07461BBB226B63699A4204D040F259
:10585000F911484604F00FF8384604F081F894F83E
:105860003430002BE5D0B8F1000F06D02B780A2B8E
:1058700003D1E3690D2120469847E36915F8011B20
:10588000204698470028D4D00020BDE8F883204661
:10589000FFF728FEE168D4F830C0013888423EBFE7
:1058A000206900F1FF30401803469C450BD013F8E7
:1058B0000129112A01D0132A07D1A2F111035A425A
:1058C0005A4184F834202063C6E7994282BF236995
:1058D00003F1FF335B18E8E7E7B60000F0B587B0E7
:1058E0000C46064615460021382220461F4604F085
:1058F000ADFE002395E803002A692376EB68E36098
:10590000C4E904232A7D84F82C20AA7D2363012383
:1059100084F8343084F835300C9B236284E803002B
:105920000D9B63620E9B84F82D20E761A3622B7AA6
:1059300084F83630204B7360204BB360204B3361CA
:10594000204B7361204B3460F360FCF761FF30B192
:105950001E4B984203D01024204607B0F0BD002112
:1059600004F10800FCF7DCFE0028F4D1184B049485
:10597000CDE9020301272369019300976368E26878
:105980002168207A03F0AEFF04460028E3D195F9A0
:105990000830002B0BDB03F01F025B099B0003F1B7
:1059A000604303F561439740C3F880711F60304640
:1059B000FFF768FDD0E700BF2158000099550000AF
:1059C000C5A10000CBA1000089570000038000F0B2
:1059D000255500002DE9F04186B01C46524B0C9D28
:1059E0000293524B0193012600230093CDE90366F5
:1059F0004F4B90460A462946FFF770FF074600289E
:105A000056D12368AB636368EB63637A85F84130F2
:105A1000237A85F84030E37A85F84330A37A85F815
:105A20004230637B85F84530237B85F84430E37B47
:105A300085F84730A37B85F846303E483146FDF770
:105A4000D3F83D483146FDF7CFF8617A207A3346E6
:105A50000422FEF7D5FC33460222E17AA07AFEF753
:105A6000CFFC60683146FDF7BFF888F8007041460A
:105A70002068FEF747FF2268536F43F00303536724
:105A8000936FA17C23F4E06323F007030B43617C55
:105A900043EA012303219367516785F8487098F81A
:105AA0001930202B2CD007D803B3102B09D0232773
:105AB000384606B0BDE8F081302BF8D185F84810A3
:105AC00002E085F848603E4600230222617B207B8D
:105AD000FEF796FC2368E27CDA675A6E42F0040215
